{
  "contractName": "AthertonTreasury",
  "abi": [
    {
      "inputs": [
        {
          "internalType": "address",
          "name": "_ATHER",
          "type": "address"
        },
        {
          "internalType": "address",
          "name": "_ATHERUSD",
          "type": "address"
        },
        {
          "internalType": "address",
          "name": "_SATHER",
          "type": "address"
        }
      ],
      "stateMutability": "nonpayable",
      "type": "constructor"
    },
    {
      "anonymous": false,
      "inputs": [
        {
          "indexed": true,
          "internalType": "address",
          "name": "recorder",
          "type": "address"
        },
        {
          "indexed": true,
          "internalType": "address",
          "name": "recipient",
          "type": "address"
        },
        {
          "indexed": false,
          "internalType": "uint256",
          "name": "amount",
          "type": "uint256"
        },
        {
          "indexed": false,
          "internalType": "string",
          "name": "details",
          "type": "string"
        }
      ],
      "name": "AtherLoss",
      "type": "event"
    },
    {
      "anonymous": false,
      "inputs": [
        {
          "indexed": true,
          "internalType": "address",
          "name": "recorder",
          "type": "address"
        },
        {
          "indexed": true,
          "internalType": "address",
          "name": "recipient",
          "type": "address"
        },
        {
          "indexed": false,
          "internalType": "uint256",
          "name": "amount",
          "type": "uint256"
        },
        {
          "indexed": false,
          "internalType": "string",
          "name": "details",
          "type": "string"
        }
      ],
      "name": "AtherProfit",
      "type": "event"
    },
    {
      "anonymous": false,
      "inputs": [
        {
          "indexed": true,
          "internalType": "address",
          "name": "recorder",
          "type": "address"
        },
        {
          "indexed": true,
          "internalType": "address",
          "name": "recipient",
          "type": "address"
        },
        {
          "indexed": false,
          "internalType": "uint256",
          "name": "amount",
          "type": "uint256"
        },
        {
          "indexed": false,
          "internalType": "string",
          "name": "details",
          "type": "string"
        }
      ],
      "name": "AtherSales",
      "type": "event"
    },
    {
      "anonymous": false,
      "inputs": [
        {
          "indexed": false,
          "internalType": "address",
          "name": "target",
          "type": "address"
        },
        {
          "indexed": false,
          "internalType": "bool",
          "name": "value",
          "type": "bool"
        }
      ],
      "name": "AuthorityChange",
      "type": "event"
    },
    {
      "anonymous": false,
      "inputs": [
        {
          "indexed": true,
          "internalType": "address",
          "name": "token",
          "type": "address"
        },
        {
          "indexed": false,
          "internalType": "address",
          "name": "calulator",
          "type": "address"
        }
      ],
      "name": "BondCalulatorChange",
      "type": "event"
    },
    {
      "anonymous": false,
      "inputs": [
        {
          "indexed": true,
          "internalType": "address",
          "name": "token",
          "type": "address"
        },
        {
          "indexed": false,
          "internalType": "uint256",
          "name": "amount",
          "type": "uint256"
        },
        {
          "indexed": false,
          "internalType": "uint256",
          "name": "value",
          "type": "uint256"
        }
      ],
      "name": "Deposit",
      "type": "event"
    },
    {
      "anonymous": false,
      "inputs": [
        {
          "indexed": false,
          "internalType": "address",
          "name": "target",
          "type": "address"
        },
        {
          "indexed": false,
          "internalType": "bool",
          "name": "value",
          "type": "bool"
        }
      ],
      "name": "DepositorChange",
      "type": "event"
    },
    {
      "anonymous": false,
      "inputs": [
        {
          "indexed": true,
          "internalType": "address",
          "name": "token",
          "type": "address"
        },
        {
          "indexed": true,
          "internalType": "address",
          "name": "borrower",
          "type": "address"
        },
        {
          "indexed": false,
          "internalType": "uint256",
          "name": "amount",
          "type": "uint256"
        },
        {
          "indexed": false,
          "internalType": "uint256",
          "name": "balance",
          "type": "uint256"
        }
      ],
      "name": "IncurUnsecured",
      "type": "event"
    },
    {
      "anonymous": false,
      "inputs": [
        {
          "indexed": true,
          "internalType": "address",
          "name": "token",
          "type": "address"
        },
        {
          "indexed": true,
          "internalType": "address",
          "name": "borrower",
          "type": "address"
        },
        {
          "indexed": false,
          "internalType": "uint256",
          "name": "amount",
          "type": "uint256"
        },
        {
          "indexed": false,
          "internalType": "uint256",
          "name": "balance",
          "type": "uint256"
        }
      ],
      "name": "IncurUnsecuredUSD",
      "type": "event"
    },
    {
      "anonymous": false,
      "inputs": [
        {
          "indexed": true,
          "internalType": "address",
          "name": "previousOwner",
          "type": "address"
        },
        {
          "indexed": true,
          "internalType": "address",
          "name": "newOwner",
          "type": "address"
        }
      ],
      "name": "OwnershipTransferred",
      "type": "event"
    },
    {
      "anonymous": false,
      "inputs": [
        {
          "indexed": true,
          "internalType": "address",
          "name": "token",
          "type": "address"
        },
        {
          "indexed": true,
          "internalType": "address",
          "name": "borrower",
          "type": "address"
        },
        {
          "indexed": false,
          "internalType": "uint256",
          "name": "amount",
          "type": "uint256"
        },
        {
          "indexed": false,
          "internalType": "uint256",
          "name": "balance",
          "type": "uint256"
        }
      ],
      "name": "RepayUnsecured",
      "type": "event"
    },
    {
      "anonymous": false,
      "inputs": [
        {
          "indexed": true,
          "internalType": "address",
          "name": "token",
          "type": "address"
        },
        {
          "indexed": true,
          "internalType": "address",
          "name": "borrower",
          "type": "address"
        },
        {
          "indexed": false,
          "internalType": "uint256",
          "name": "amount",
          "type": "uint256"
        },
        {
          "indexed": false,
          "internalType": "uint256",
          "name": "balance",
          "type": "uint256"
        }
      ],
      "name": "RepayUnsecuredUSD",
      "type": "event"
    },
    {
      "anonymous": false,
      "inputs": [
        {
          "indexed": true,
          "internalType": "uint256",
          "name": "totalReserves",
          "type": "uint256"
        }
      ],
      "name": "ReservesUpdated",
      "type": "event"
    },
    {
      "anonymous": false,
      "inputs": [
        {
          "indexed": true,
          "internalType": "address",
          "name": "stakingContract",
          "type": "address"
        },
        {
          "indexed": false,
          "internalType": "bool",
          "name": "value",
          "type": "bool"
        }
      ],
      "name": "StakingContractUpdated",
      "type": "event"
    },
    {
      "inputs": [],
      "name": "ATHER",
      "outputs": [
        {
          "internalType": "address",
          "name": "",
          "type": "address"
        }
      ],
      "stateMutability": "view",
      "type": "function"
    },
    {
      "inputs": [],
      "name": "ATHERUSD",
      "outputs": [
        {
          "internalType": "address",
          "name": "",
          "type": "address"
        }
      ],
      "stateMutability": "view",
      "type": "function"
    },
    {
      "inputs": [],
      "name": "SATHER",
      "outputs": [
        {
          "internalType": "address",
          "name": "",
          "type": "address"
        }
      ],
      "stateMutability": "view",
      "type": "function"
    },
    {
      "inputs": [
        {
          "internalType": "address",
          "name": "",
          "type": "address"
        }
      ],
      "name": "bondCalculator",
      "outputs": [
        {
          "internalType": "address",
          "name": "",
          "type": "address"
        }
      ],
      "stateMutability": "view",
      "type": "function"
    },
    {
      "inputs": [
        {
          "internalType": "address",
          "name": "",
          "type": "address"
        }
      ],
      "name": "isDepositor",
      "outputs": [
        {
          "internalType": "bool",
          "name": "",
          "type": "bool"
        }
      ],
      "stateMutability": "view",
      "type": "function"
    },
    {
      "inputs": [
        {
          "internalType": "address",
          "name": "",
          "type": "address"
        }
      ],
      "name": "isLiquidityDepositor",
      "outputs": [
        {
          "internalType": "bool",
          "name": "",
          "type": "bool"
        }
      ],
      "stateMutability": "view",
      "type": "function"
    },
    {
      "inputs": [
        {
          "internalType": "address",
          "name": "",
          "type": "address"
        }
      ],
      "name": "isLiquidityToken",
      "outputs": [
        {
          "internalType": "bool",
          "name": "",
          "type": "bool"
        }
      ],
      "stateMutability": "view",
      "type": "function"
    },
    {
      "inputs": [
        {
          "internalType": "address",
          "name": "",
          "type": "address"
        }
      ],
      "name": "isRecordAuthority",
      "outputs": [
        {
          "internalType": "bool",
          "name": "",
          "type": "bool"
        }
      ],
      "stateMutability": "view",
      "type": "function"
    },
    {
      "inputs": [
        {
          "internalType": "address",
          "name": "",
          "type": "address"
        }
      ],
      "name": "isReserveDepositor",
      "outputs": [
        {
          "internalType": "bool",
          "name": "",
          "type": "bool"
        }
      ],
      "stateMutability": "view",
      "type": "function"
    },
    {
      "inputs": [
        {
          "internalType": "address",
          "name": "",
          "type": "address"
        }
      ],
      "name": "isReserveToken",
      "outputs": [
        {
          "internalType": "bool",
          "name": "",
          "type": "bool"
        }
      ],
      "stateMutability": "view",
      "type": "function"
    },
    {
      "inputs": [
        {
          "internalType": "address",
          "name": "",
          "type": "address"
        }
      ],
      "name": "isStakingContract",
      "outputs": [
        {
          "internalType": "bool",
          "name": "",
          "type": "bool"
        }
      ],
      "stateMutability": "view",
      "type": "function"
    },
    {
      "inputs": [],
      "name": "owner",
      "outputs": [
        {
          "internalType": "address",
          "name": "",
          "type": "address"
        }
      ],
      "stateMutability": "view",
      "type": "function"
    },
    {
      "inputs": [],
      "name": "renounceOwnership",
      "outputs": [],
      "stateMutability": "nonpayable",
      "type": "function"
    },
    {
      "inputs": [],
      "name": "totalLoss",
      "outputs": [
        {
          "internalType": "uint256",
          "name": "",
          "type": "uint256"
        }
      ],
      "stateMutability": "view",
      "type": "function"
    },
    {
      "inputs": [],
      "name": "totalProfit",
      "outputs": [
        {
          "internalType": "uint256",
          "name": "",
          "type": "uint256"
        }
      ],
      "stateMutability": "view",
      "type": "function"
    },
    {
      "inputs": [],
      "name": "totalReserves",
      "outputs": [
        {
          "internalType": "uint256",
          "name": "",
          "type": "uint256"
        }
      ],
      "stateMutability": "view",
      "type": "function"
    },
    {
      "inputs": [],
      "name": "totalSales",
      "outputs": [
        {
          "internalType": "uint256",
          "name": "",
          "type": "uint256"
        }
      ],
      "stateMutability": "view",
      "type": "function"
    },
    {
      "inputs": [],
      "name": "totalUnsecured",
      "outputs": [
        {
          "internalType": "uint256",
          "name": "",
          "type": "uint256"
        }
      ],
      "stateMutability": "view",
      "type": "function"
    },
    {
      "inputs": [],
      "name": "totalUnsecuredUSD",
      "outputs": [
        {
          "internalType": "uint256",
          "name": "",
          "type": "uint256"
        }
      ],
      "stateMutability": "view",
      "type": "function"
    },
    {
      "inputs": [
        {
          "internalType": "address",
          "name": "newOwner",
          "type": "address"
        }
      ],
      "name": "transferOwnership",
      "outputs": [],
      "stateMutability": "nonpayable",
      "type": "function"
    },
    {
      "inputs": [
        {
          "internalType": "address",
          "name": "",
          "type": "address"
        }
      ],
      "name": "unsecuredLoans",
      "outputs": [
        {
          "internalType": "uint256",
          "name": "",
          "type": "uint256"
        }
      ],
      "stateMutability": "view",
      "type": "function"
    },
    {
      "inputs": [
        {
          "internalType": "address",
          "name": "",
          "type": "address"
        }
      ],
      "name": "unsecuredLoansUSD",
      "outputs": [
        {
          "internalType": "uint256",
          "name": "",
          "type": "uint256"
        }
      ],
      "stateMutability": "view",
      "type": "function"
    },
    {
      "inputs": [
        {
          "internalType": "uint256",
          "name": "_amount",
          "type": "uint256"
        },
        {
          "internalType": "address",
          "name": "_token",
          "type": "address"
        },
        {
          "internalType": "uint256",
          "name": "_treasuryProfit",
          "type": "uint256"
        }
      ],
      "name": "deposit",
      "outputs": [
        {
          "internalType": "uint256",
          "name": "",
          "type": "uint256"
        }
      ],
      "stateMutability": "nonpayable",
      "type": "function"
    },
    {
      "inputs": [
        {
          "internalType": "address",
          "name": "_recipient",
          "type": "address"
        },
        {
          "internalType": "uint256",
          "name": "_amount",
          "type": "uint256"
        },
        {
          "internalType": "string",
          "name": "_details",
          "type": "string"
        }
      ],
      "name": "recordSales",
      "outputs": [],
      "stateMutability": "nonpayable",
      "type": "function"
    },
    {
      "inputs": [
        {
          "internalType": "address",
          "name": "_recipient",
          "type": "address"
        },
        {
          "internalType": "uint256",
          "name": "_amount",
          "type": "uint256"
        },
        {
          "internalType": "string",
          "name": "_details",
          "type": "string"
        }
      ],
      "name": "recordProfit",
      "outputs": [],
      "stateMutability": "nonpayable",
      "type": "function"
    },
    {
      "inputs": [
        {
          "internalType": "address",
          "name": "_recipient",
          "type": "address"
        },
        {
          "internalType": "uint256",
          "name": "_amount",
          "type": "uint256"
        },
        {
          "internalType": "string",
          "name": "_details",
          "type": "string"
        }
      ],
      "name": "recordLoss",
      "outputs": [],
      "stateMutability": "nonpayable",
      "type": "function"
    },
    {
      "inputs": [
        {
          "internalType": "address",
          "name": "_stakingContract",
          "type": "address"
        },
        {
          "internalType": "address",
          "name": "_account",
          "type": "address"
        },
        {
          "internalType": "uint256",
          "name": "_amount",
          "type": "uint256"
        },
        {
          "internalType": "bool",
          "name": "_isPositive",
          "type": "bool"
        }
      ],
      "name": "rebase",
      "outputs": [],
      "stateMutability": "nonpayable",
      "type": "function"
    },
    {
      "inputs": [
        {
          "internalType": "address",
          "name": "_stakingContract",
          "type": "address"
        },
        {
          "internalType": "address",
          "name": "_account",
          "type": "address"
        },
        {
          "internalType": "uint256",
          "name": "_amount",
          "type": "uint256"
        }
      ],
      "name": "stake",
      "outputs": [],
      "stateMutability": "nonpayable",
      "type": "function"
    },
    {
      "inputs": [
        {
          "internalType": "address",
          "name": "_stakingContract",
          "type": "address"
        },
        {
          "internalType": "address",
          "name": "_account",
          "type": "address"
        },
        {
          "internalType": "uint256",
          "name": "_amount",
          "type": "uint256"
        }
      ],
      "name": "unstake",
      "outputs": [],
      "stateMutability": "nonpayable",
      "type": "function"
    },
    {
      "inputs": [
        {
          "internalType": "address",
          "name": "_borrower",
          "type": "address"
        },
        {
          "internalType": "uint256",
          "name": "_amount",
          "type": "uint256"
        }
      ],
      "name": "incurUnsecured",
      "outputs": [],
      "stateMutability": "nonpayable",
      "type": "function"
    },
    {
      "inputs": [
        {
          "internalType": "address",
          "name": "_borrower",
          "type": "address"
        },
        {
          "internalType": "uint256",
          "name": "_amount",
          "type": "uint256"
        }
      ],
      "name": "repayUnsecured",
      "outputs": [],
      "stateMutability": "nonpayable",
      "type": "function"
    },
    {
      "inputs": [
        {
          "internalType": "address",
          "name": "_borrower",
          "type": "address"
        },
        {
          "internalType": "address",
          "name": "_repayer",
          "type": "address"
        },
        {
          "internalType": "uint256",
          "name": "_amount",
          "type": "uint256"
        }
      ],
      "name": "repayUnsecuredOnBehalfOf",
      "outputs": [],
      "stateMutability": "nonpayable",
      "type": "function"
    },
    {
      "inputs": [
        {
          "internalType": "address",
          "name": "_borrower",
          "type": "address"
        },
        {
          "internalType": "uint256",
          "name": "_amount",
          "type": "uint256"
        }
      ],
      "name": "incurUnsecuredUSD",
      "outputs": [],
      "stateMutability": "nonpayable",
      "type": "function"
    },
    {
      "inputs": [
        {
          "internalType": "address",
          "name": "_borrower",
          "type": "address"
        },
        {
          "internalType": "uint256",
          "name": "_amount",
          "type": "uint256"
        }
      ],
      "name": "repayUnsecuredUSD",
      "outputs": [],
      "stateMutability": "nonpayable",
      "type": "function"
    },
    {
      "inputs": [
        {
          "internalType": "address",
          "name": "_borrower",
          "type": "address"
        },
        {
          "internalType": "address",
          "name": "_repayer",
          "type": "address"
        },
        {
          "internalType": "uint256",
          "name": "_amount",
          "type": "uint256"
        }
      ],
      "name": "repayUnsecuredUSDOnBehalfOf",
      "outputs": [],
      "stateMutability": "nonpayable",
      "type": "function"
    },
    {
      "inputs": [],
      "name": "getTotalReserves",
      "outputs": [
        {
          "internalType": "uint256",
          "name": "",
          "type": "uint256"
        }
      ],
      "stateMutability": "view",
      "type": "function"
    },
    {
      "inputs": [],
      "name": "getTreasuryData",
      "outputs": [
        {
          "components": [
            {
              "internalType": "uint256",
              "name": "totalReserves",
              "type": "uint256"
            },
            {
              "internalType": "uint256",
              "name": "totalUnsecured",
              "type": "uint256"
            },
            {
              "internalType": "uint256",
              "name": "totalUnsecuredUSD",
              "type": "uint256"
            }
          ],
          "internalType": "struct AthertonTreasury.TreasuryData",
          "name": "",
          "type": "tuple"
        }
      ],
      "stateMutability": "view",
      "type": "function"
    },
    {
      "inputs": [],
      "name": "auditReserves",
      "outputs": [],
      "stateMutability": "nonpayable",
      "type": "function"
    },
    {
      "inputs": [
        {
          "internalType": "address",
          "name": "_token",
          "type": "address"
        },
        {
          "internalType": "uint256",
          "name": "_amount",
          "type": "uint256"
        }
      ],
      "name": "valueOfToken",
      "outputs": [
        {
          "internalType": "uint256",
          "name": "value_",
          "type": "uint256"
        }
      ],
      "stateMutability": "view",
      "type": "function"
    },
    {
      "inputs": [
        {
          "internalType": "address",
          "name": "_address",
          "type": "address"
        },
        {
          "internalType": "bool",
          "name": "value",
          "type": "bool"
        }
      ],
      "name": "setAuthority",
      "outputs": [],
      "stateMutability": "nonpayable",
      "type": "function"
    },
    {
      "inputs": [
        {
          "internalType": "address",
          "name": "_address",
          "type": "address"
        },
        {
          "internalType": "bool",
          "name": "value",
          "type": "bool"
        }
      ],
      "name": "setDepositor",
      "outputs": [],
      "stateMutability": "nonpayable",
      "type": "function"
    },
    {
      "inputs": [
        {
          "internalType": "address",
          "name": "_token",
          "type": "address"
        }
      ],
      "name": "addReserveToken",
      "outputs": [],
      "stateMutability": "nonpayable",
      "type": "function"
    },
    {
      "inputs": [
        {
          "internalType": "address",
          "name": "_token",
          "type": "address"
        }
      ],
      "name": "removeReserveToken",
      "outputs": [],
      "stateMutability": "nonpayable",
      "type": "function"
    },
    {
      "inputs": [
        {
          "internalType": "address",
          "name": "_token",
          "type": "address"
        }
      ],
      "name": "addLiquidityToken",
      "outputs": [],
      "stateMutability": "nonpayable",
      "type": "function"
    },
    {
      "inputs": [
        {
          "internalType": "address",
          "name": "_token",
          "type": "address"
        }
      ],
      "name": "removeLiquidityToken",
      "outputs": [],
      "stateMutability": "nonpayable",
      "type": "function"
    },
    {
      "inputs": [
        {
          "internalType": "address",
          "name": "_token",
          "type": "address"
        },
        {
          "internalType": "address",
          "name": "_calculator",
          "type": "address"
        }
      ],
      "name": "setBondCalulator",
      "outputs": [],
      "stateMutability": "nonpayable",
      "type": "function"
    },
    {
      "inputs": [
        {
          "internalType": "address",
          "name": "stakingContract_",
          "type": "address"
        }
      ],
      "name": "addStakingContract",
      "outputs": [],
      "stateMutability": "nonpayable",
      "type": "function"
    },
    {
      "inputs": [
        {
          "internalType": "address",
          "name": "stakingContract_",
          "type": "address"
        }
      ],
      "name": "removeStakingContract",
      "outputs": [],
      "stateMutability": "nonpayable",
      "type": "function"
    }
  ],
  "bytecode": "0x60e06040523480156200001157600080fd5b50604051620061c5380380620061c58339818101604052810190620000379190620002f1565b620000576200004b6200020e60201b60201c565b6200021660201b60201c565b600073ffffffffffffffffffffffffffffffffffffffff168373ffffffffffffffffffffffffffffffffffffffff1614156200009257600080fd5b8273ffffffffffffffffffffffffffffffffffffffff1660808173ffffffffffffffffffffffffffffffffffffffff1660601b81525050600073ffffffffffffffffffffffffffffffffffffffff168273ffffffffffffffffffffffffffffffffffffffff1614156200010457600080fd5b8173ffffffffffffffffffffffffffffffffffffffff1660a08173ffffffffffffffffffffffffffffffffffffffff1660601b81525050600073ffffffffffffffffffffffffffffffffffffffff168173ffffffffffffffffffffffffffffffffffffffff1614156200017657600080fd5b8073ffffffffffffffffffffffffffffffffffffffff1660c08173ffffffffffffffffffffffffffffffffffffffff1660601b815250506001600b60003073ffffffffffffffffffffffffffffffffffffffff1673ffffffffffffffffffffffffffffffffffffffff16815260200190815260200160002060006101000a81548160ff02191690831515021790555050505062000395565b600033905090565b60008060009054906101000a900473ffffffffffffffffffffffffffffffffffffffff169050816000806101000a81548173ffffffffffffffffffffffffffffffffffffffff021916908373ffffffffffffffffffffffffffffffffffffffff1602179055508173ffffffffffffffffffffffffffffffffffffffff168173ffffffffffffffffffffffffffffffffffffffff167f8be0079c531659141344cd1fd0a4f28419497f9722a3daafe3b4186f6b6457e060405160405180910390a35050565b600081519050620002eb816200037b565b92915050565b6000806000606084860312156200030757600080fd5b60006200031786828701620002da565b93505060206200032a86828701620002da565b92505060406200033d86828701620002da565b9150509250925092565b600062000354826200035b565b9050919050565b600073ffffffffffffffffffffffffffffffffffffffff82169050919050565b620003868162000347565b81146200039257600080fd5b50565b60805160601c60a05160601c60c05160601c615d416200048460003960008181611bb401528181612a7201528181612b5101528181612c5b015281816132fb0152613e670152600081816116d60152818161182a015281816118de01528181611cc401528181611e180152818161228a01526123de01526000818161093d01528181610a9101528181611482015281816115d60152818161190201528181611b6d015281816121450152818161251d01528181612a2b01528181612b0a015281816132b4015281816136b501528181613d99015281816140130152818161429b01526143ef0152615d416000f3fe608060405234801561001057600080fd5b50600436106102a05760003560e01c80637b21ac3711610167578063b5f0d35c116100ce578063e35c9b4411610087578063e35c9b4414610821578063f0dc2c201461083d578063f2979a6b14610859578063f2fde38b14610875578063f3b9765c14610891578063fabce441146108ad576102a0565b8063b5f0d35c1461074f578063bc157ac11461076b578063bf6eac2f1461079b578063bf75e9c3146107b7578063d1b317e5146107d3578063d8b55f9814610803576102a0565b80639797457811610120578063979745781461067957806398f965d114610695578063a1210a2d146106b3578063a4dd5c98146106e3578063a569e57114610701578063adec520a14610731576102a0565b80637b21ac37146105cb5780637ed8e37f146105e757806386001519146106035780638762dad9146106215780638da5cb5b1461063d5780638f840ddd1461065b576102a0565b806349268e431161020b5780636661df96116101c45780636661df96146104f957806366dcf02e1461052957806368c31dd5146105595780636f860d7414610589578063715018a6146105a557806378691ede146105af576102a0565b806349268e43146104375780634e3d8853146104555780635312e42b1461047357806360829f8a146104a357806362cb41ee146104bf5780636605ff66146104db576102a0565b80631af4da701161025d5780631af4da7014610377578063242693d3146103a75780632b7ce500146103c55780632f70d1ba146103cf57806339442fac146103ff57806344ae25c91461041b576102a0565b806306df2719146102a55780630d457ee1146102d55780630f7e84df146102f3578063124154ca1461030f5780631288c60f1461033f57806319eb78451461035b575b600080fd5b6102bf60048036038101906102ba9190614bf8565b6108c9565b6040516102cc919061553f565b60405180910390f35b6102dd6108e9565b6040516102ea9190615797565b60405180910390f35b61030d60048036038101906103089190614d4b565b6108ef565b005b61032960048036038101906103249190614bf8565b610b42565b604051610336919061553f565b60405180910390f35b61035960048036038101906103549190614c21565b610b62565b005b61037560048036038101906103709190614bf8565b610d22565b005b610391600480360381019061038c9190614bf8565b610e85565b60405161039e919061549b565b60405180910390f35b6103af610eb8565b6040516103bc9190615797565b60405180910390f35b6103cd610ec2565b005b6103e960048036038101906103e49190614bf8565b611414565b6040516103f6919061553f565b60405180910390f35b61041960048036038101906104149190614c5d565b611434565b005b61043560048036038101906104309190614c5d565b611688565b005b61043f6118dc565b60405161044c919061549b565b60405180910390f35b61045d611900565b60405161046a919061549b565b60405180910390f35b61048d60048036038101906104889190614bf8565b611924565b60405161049a919061553f565b60405180910390f35b6104bd60048036038101906104b89190614c5d565b611944565b005b6104d960048036038101906104d49190614d4b565b611c46565b005b6104e3611ec9565b6040516104f09190615797565b60405180910390f35b610513600480360381019061050e9190614bf8565b611ecf565b6040516105209190615797565b60405180910390f35b610543600480360381019061053e9190614bf8565b611ee7565b6040516105509190615797565b60405180910390f35b610573600480360381019061056e9190614bf8565b611eff565b604051610580919061553f565b60405180910390f35b6105a3600480360381019061059e9190614d0f565b611f1f565b005b6105ad61202f565b005b6105c960048036038101906105c49190614d87565b6120b7565b005b6105e560048036038101906105e09190614d4b565b61223c565b005b61060160048036038101906105fc9190614d87565b61248f565b005b61060b61262f565b6040516106189190615797565b60405180910390f35b61063b60048036038101906106369190614bf8565b612635565b005b61064561280c565b604051610652919061549b565b60405180910390f35b610663612835565b6040516106709190615797565b60405180910390f35b610693600480360381019061068e9190614cac565b61283b565b005b61069d612be5565b6040516106aa919061577c565b60405180910390f35b6106cd60048036038101906106c89190614bf8565b612c13565b6040516106da919061553f565b60405180910390f35b6106eb612c33565b6040516106f89190615797565b60405180910390f35b61071b60048036038101906107169190614bf8565b612c39565b604051610728919061553f565b60405180910390f35b610739612c59565b604051610746919061549b565b60405180910390f35b61076960048036038101906107649190614d0f565b612c7d565b005b61078560048036038101906107809190614e40565b612d8d565b6040516107929190615797565b60405180910390f35b6107b560048036038101906107b09190614c5d565b613155565b005b6107d160048036038101906107cc9190614bf8565b6133f8565b005b6107ed60048036038101906107e89190614d4b565b6135cf565b6040516107fa9190615797565b60405180910390f35b61080b613964565b6040516108189190615797565b60405180910390f35b61083b60048036038101906108369190614bf8565b61396a565b005b61085760048036038101906108529190614bf8565b613b6b565b005b610873600480360381019061086e9190614d87565b613f85565b005b61088f600480360381019061088a9190614bf8565b614125565b005b6108ab60048036038101906108a69190614d4b565b61421d565b005b6108c760048036038101906108c29190614bf8565b6144a0565b005b600d6020528060005260406000206000915054906101000a900460ff1681565b60065481565b80600e60008473ffffffffffffffffffffffffffffffffffffffff1673ffffffffffffffffffffffffffffffffffffffff16815260200190815260200160002054101561093b57600080fd5b7f000000000000000000000000000000000000000000000000000000000000000073ffffffffffffffffffffffffffffffffffffffff166379cc679083836040518363ffffffff1660e01b8152600401610996929190615516565b600060405180830381600087803b1580156109b057600080fd5b505af11580156109c4573d6000803e3d6000fd5b505050506109dd8160025461460390919063ffffffff16565b600281905550610a3581600e60008573ffffffffffffffffffffffffffffffffffffffff1673ffffffffffffffffffffffffffffffffffffffff1681526020019081526020016000205461460390919063ffffffff16565b600e60008473ffffffffffffffffffffffffffffffffffffffff1673ffffffffffffffffffffffffffffffffffffffff168152602001908152602001600020819055508173ffffffffffffffffffffffffffffffffffffffff167f000000000000000000000000000000000000000000000000000000000000000073ffffffffffffffffffffffffffffffffffffffff167ff6290eed3ed9d2add25153332b8efd496643990cc139aa19b27fd52763cd957783600e60008773ffffffffffffffffffffffffffffffffffffffff1673ffffffffffffffffffffffffffffffffffffffff16815260200190815260200160002054604051610b369291906157e2565b60405180910390a35050565b60086020528060005260406000206000915054906101000a900460ff1681565b610b6a614619565b73ffffffffffffffffffffffffffffffffffffffff16610b8861280c565b73ffffffffffffffffffffffffffffffffffffffff1614610bde576040517f08c379a0000000000000000000000000000000000000000000000000000000008152600401610bd59061569c565b60405180910390fd5b600073ffffffffffffffffffffffffffffffffffffffff168273ffffffffffffffffffffffffffffffffffffffff161415610c1857600080fd5b600073ffffffffffffffffffffffffffffffffffffffff168173ffffffffffffffffffffffffffffffffffffffff161415610c5257600080fd5b80601060008473ffffffffffffffffffffffffffffffffffffffff1673ffffffffffffffffffffffffffffffffffffffff16815260200190815260200160002060006101000a81548173ffffffffffffffffffffffffffffffffffffffff021916908373ffffffffffffffffffffffffffffffffffffffff1602179055508173ffffffffffffffffffffffffffffffffffffffff167ff56920c710c5c7f6742e665088e90fbdd3fd14a544334bac55b70c57d14df41c82604051610d16919061549b565b60405180910390a25050565b610d2a614619565b73ffffffffffffffffffffffffffffffffffffffff16610d4861280c565b73ffffffffffffffffffffffffffffffffffffffff1614610d9e576040517f08c379a0000000000000000000000000000000000000000000000000000000008152600401610d959061569c565b60405180910390fd5b600760008273ffffffffffffffffffffffffffffffffffffffff1673ffffffffffffffffffffffffffffffffffffffff16815260200190815260200160002060009054906101000a900460ff16610e2a576040517f08c379a0000000000000000000000000000000000000000000000000000000008152600401610e21906156bc565b60405180910390fd5b6000600760008373ffffffffffffffffffffffffffffffffffffffff1673ffffffffffffffffffffffffffffffffffffffff16815260200190815260200160002060006101000a81548160ff02191690831515021790555050565b60106020528060005260406000206000915054906101000a900473ffffffffffffffffffffffffffffffffffffffff1681565b6000600154905090565b610eca614619565b73ffffffffffffffffffffffffffffffffffffffff16610ee861280c565b73ffffffffffffffffffffffffffffffffffffffff1614610f3e576040517f08c379a0000000000000000000000000000000000000000000000000000000008152600401610f359061569c565b60405180910390fd5b600080600090505b60118054905081101561118f576007600060118381548110610f91577f4e487b7100000000000000000000000000000000000000000000000000000000600052603260045260246000fd5b9060005260206000200160009054906101000a900473ffffffffffffffffffffffffffffffffffffffff1673ffffffffffffffffffffffffffffffffffffffff1673ffffffffffffffffffffffffffffffffffffffff16815260200190815260200160002060009054906101000a900460ff1661100d5761117c565b61117961116a6011838154811061104d577f4e487b7100000000000000000000000000000000000000000000000000000000600052603260045260246000fd5b9060005260206000200160009054906101000a900473ffffffffffffffffffffffffffffffffffffffff16601184815481106110b2577f4e487b7100000000000000000000000000000000000000000000000000000000600052603260045260246000fd5b9060005260206000200160009054906101000a900473ffffffffffffffffffffffffffffffffffffffff1673ffffffffffffffffffffffffffffffffffffffff166370a08231306040518263ffffffff1660e01b8152600401611115919061549b565b60206040518083038186803b15801561112d57600080fd5b505afa158015611141573d6000803e3d6000fd5b505050506040513d601f19601f820116820180604052508101906111659190614e17565b6135cf565b8361462190919063ffffffff16565b91505b808061118790615bbb565b915050610f46565b5060005b6012805490508110156113dc5760096000601283815481106111de577f4e487b7100000000000000000000000000000000000000000000000000000000600052603260045260246000fd5b9060005260206000200160009054906101000a900473ffffffffffffffffffffffffffffffffffffffff1673ffffffffffffffffffffffffffffffffffffffff1673ffffffffffffffffffffffffffffffffffffffff16815260200190815260200160002060009054906101000a900460ff1661125a576113c9565b6113c66113b76012838154811061129a577f4e487b7100000000000000000000000000000000000000000000000000000000600052603260045260246000fd5b9060005260206000200160009054906101000a900473ffffffffffffffffffffffffffffffffffffffff16601284815481106112ff577f4e487b7100000000000000000000000000000000000000000000000000000000600052603260045260246000fd5b9060005260206000200160009054906101000a900473ffffffffffffffffffffffffffffffffffffffff1673ffffffffffffffffffffffffffffffffffffffff166370a08231306040518263ffffffff1660e01b8152600401611362919061549b565b60206040518083038186803b15801561137a57600080fd5b505afa15801561138e573d6000803e3d6000fd5b505050506040513d601f19601f820116820180604052508101906113b29190614e17565b6135cf565b8361462190919063ffffffff16565b91505b80806113d490615bbb565b915050611193565b5080600181905550807f93bb8edd35984706eee1b92541281f7f62d33c01c5b2ec0929a113603bd21d6660405160405180910390a250565b600c6020528060005260406000206000915054906101000a900460ff1681565b80600e60008573ffffffffffffffffffffffffffffffffffffffff1673ffffffffffffffffffffffffffffffffffffffff16815260200190815260200160002054101561148057600080fd5b7f000000000000000000000000000000000000000000000000000000000000000073ffffffffffffffffffffffffffffffffffffffff166379cc679083836040518363ffffffff1660e01b81526004016114db929190615516565b600060405180830381600087803b1580156114f557600080fd5b505af1158015611509573d6000803e3d6000fd5b505050506115228160025461460390919063ffffffff16565b60028190555061157a81600e60008673ffffffffffffffffffffffffffffffffffffffff1673ffffffffffffffffffffffffffffffffffffffff1681526020019081526020016000205461460390919063ffffffff16565b600e60008573ffffffffffffffffffffffffffffffffffffffff1673ffffffffffffffffffffffffffffffffffffffff168152602001908152602001600020819055508273ffffffffffffffffffffffffffffffffffffffff167f000000000000000000000000000000000000000000000000000000000000000073ffffffffffffffffffffffffffffffffffffffff167ff6290eed3ed9d2add25153332b8efd496643990cc139aa19b27fd52763cd957783600e60008873ffffffffffffffffffffffffffffffffffffffff1673ffffffffffffffffffffffffffffffffffffffff1681526020019081526020016000205460405161167b9291906157e2565b60405180910390a3505050565b80600f60008573ffffffffffffffffffffffffffffffffffffffff1673ffffffffffffffffffffffffffffffffffffffff1681526020019081526020016000205410156116d457600080fd5b7f000000000000000000000000000000000000000000000000000000000000000073ffffffffffffffffffffffffffffffffffffffff166379cc679083836040518363ffffffff1660e01b815260040161172f929190615516565b600060405180830381600087803b15801561174957600080fd5b505af115801561175d573d6000803e3d6000fd5b505050506117768160035461460390919063ffffffff16565b6003819055506117ce81600f60008673ffffffffffffffffffffffffffffffffffffffff1673ffffffffffffffffffffffffffffffffffffffff1681526020019081526020016000205461460390919063ffffffff16565b600f60008573ffffffffffffffffffffffffffffffffffffffff1673ffffffffffffffffffffffffffffffffffffffff168152602001908152602001600020819055508273ffffffffffffffffffffffffffffffffffffffff167f000000000000000000000000000000000000000000000000000000000000000073ffffffffffffffffffffffffffffffffffffffff167f824f9999a67a9b9936847acb7ffeefb1614ca68fbea8e6ce3a51aa80e0b24ac583600f60008873ffffffffffffffffffffffffffffffffffffffff1673ffffffffffffffffffffffffffffffffffffffff168152602001908152602001600020546040516118cf9291906157e2565b60405180910390a3505050565b7f000000000000000000000000000000000000000000000000000000000000000081565b7f000000000000000000000000000000000000000000000000000000000000000081565b600b6020528060005260406000206000915054906101000a900460ff1681565b8282600d60008373ffffffffffffffffffffffffffffffffffffffff1673ffffffffffffffffffffffffffffffffffffffff16815260200190815260200160002060009054906101000a900460ff166119d2576040517f08c379a00000000000000000000000000000000000000000000000000000000081526004016119c9906155bc565b60405180910390fd5b8173ffffffffffffffffffffffffffffffffffffffff166375cd51ed826040518263ffffffff1660e01b8152600401611a0b919061549b565b60206040518083038186803b158015611a2357600080fd5b505afa158015611a37573d6000803e3d6000fd5b505050506040513d601f19601f82011682018060405250810190611a5b9190614dee565b611a9a576040517f08c379a0000000000000000000000000000000000000000000000000000000008152600401611a919061565c565b60405180910390fd5b8473ffffffffffffffffffffffffffffffffffffffff1663fb01508d6040518163ffffffff1660e01b8152600401600060405180830381600087803b158015611ae257600080fd5b505af1158015611af6573d6000803e3d6000fd5b505050508473ffffffffffffffffffffffffffffffffffffffff16633b4abb0a856040518263ffffffff1660e01b8152600401611b33919061549b565b600060405180830381600087803b158015611b4d57600080fd5b505af1158015611b61573d6000803e3d6000fd5b50505050611bb28585857f000000000000000000000000000000000000000000000000000000000000000073ffffffffffffffffffffffffffffffffffffffff16614637909392919063ffffffff16565b7f000000000000000000000000000000000000000000000000000000000000000073ffffffffffffffffffffffffffffffffffffffff166379cc679085856040518363ffffffff1660e01b8152600401611c0d929190615516565b600060405180830381600087803b158015611c2757600080fd5b505af1158015611c3b573d6000803e3d6000fd5b505050505050505050565b611c4e614619565b73ffffffffffffffffffffffffffffffffffffffff16611c6c61280c565b73ffffffffffffffffffffffffffffffffffffffff1614611cc2576040517f08c379a0000000000000000000000000000000000000000000000000000000008152600401611cb99061569c565b60405180910390fd5b7f000000000000000000000000000000000000000000000000000000000000000073ffffffffffffffffffffffffffffffffffffffff166340c10f1983836040518363ffffffff1660e01b8152600401611d1d929190615516565b600060405180830381600087803b158015611d3757600080fd5b505af1158015611d4b573d6000803e3d6000fd5b50505050611d648160035461462190919063ffffffff16565b600381905550611dbc81600f60008573ffffffffffffffffffffffffffffffffffffffff1673ffffffffffffffffffffffffffffffffffffffff1681526020019081526020016000205461462190919063ffffffff16565b600f60008473ffffffffffffffffffffffffffffffffffffffff1673ffffffffffffffffffffffffffffffffffffffff168152602001908152602001600020819055508173ffffffffffffffffffffffffffffffffffffffff167f000000000000000000000000000000000000000000000000000000000000000073ffffffffffffffffffffffffffffffffffffffff167fb05fa3a90a585041324d05cbab7053cc3cc46f6e7b5cb485434dd358fb6d66e783600f60008773ffffffffffffffffffffffffffffffffffffffff1673ffffffffffffffffffffffffffffffffffffffff16815260200190815260200160002054604051611ebd9291906157e2565b60405180910390a35050565b60045481565b600e6020528060005260406000206000915090505481565b600f6020528060005260406000206000915090505481565b60076020528060005260406000206000915054906101000a900460ff1681565b611f27614619565b73ffffffffffffffffffffffffffffffffffffffff16611f4561280c565b73ffffffffffffffffffffffffffffffffffffffff1614611f9b576040517f08c379a0000000000000000000000000000000000000000000000000000000008152600401611f929061569c565b60405180910390fd5b80600c60008473ffffffffffffffffffffffffffffffffffffffff1673ffffffffffffffffffffffffffffffffffffffff16815260200190815260200160002060006101000a81548160ff0219169083151502179055507f38b55bf7f01876952f9bc7012fa391cc86e11491ef6615dacbf1780ee350eade82826040516120239291906154ed565b60405180910390a15050565b612037614619565b73ffffffffffffffffffffffffffffffffffffffff1661205561280c565b73ffffffffffffffffffffffffffffffffffffffff16146120ab576040517f08c379a00000000000000000000000000000000000000000000000000000000081526004016120a29061569c565b60405180910390fd5b6120b560006146c0565b565b600b60003373ffffffffffffffffffffffffffffffffffffffff1673ffffffffffffffffffffffffffffffffffffffff16815260200190815260200160002060009054906101000a900460ff16612143576040517f08c379a000000000000000000000000000000000000000000000000000000000815260040161213a9061573c565b60405180910390fd5b7f000000000000000000000000000000000000000000000000000000000000000073ffffffffffffffffffffffffffffffffffffffff166340c10f1984846040518363ffffffff1660e01b815260040161219e929190615516565b600060405180830381600087803b1580156121b857600080fd5b505af11580156121cc573d6000803e3d6000fd5b505050508273ffffffffffffffffffffffffffffffffffffffff163373ffffffffffffffffffffffffffffffffffffffff167f1c92cc48badefac356b4098a70537276741b43ce59df64b37e8cb76f93141cd8848460405161222f9291906157b2565b60405180910390a3505050565b80600f60008473ffffffffffffffffffffffffffffffffffffffff1673ffffffffffffffffffffffffffffffffffffffff16815260200190815260200160002054101561228857600080fd5b7f000000000000000000000000000000000000000000000000000000000000000073ffffffffffffffffffffffffffffffffffffffff166379cc679083836040518363ffffffff1660e01b81526004016122e3929190615516565b600060405180830381600087803b1580156122fd57600080fd5b505af1158015612311573d6000803e3d6000fd5b5050505061232a8160035461460390919063ffffffff16565b60038190555061238281600f60008573ffffffffffffffffffffffffffffffffffffffff1673ffffffffffffffffffffffffffffffffffffffff1681526020019081526020016000205461460390919063ffffffff16565b600f60008473ffffffffffffffffffffffffffffffffffffffff1673ffffffffffffffffffffffffffffffffffffffff168152602001908152602001600020819055508173ffffffffffffffffffffffffffffffffffffffff167f000000000000000000000000000000000000000000000000000000000000000073ffffffffffffffffffffffffffffffffffffffff167f824f9999a67a9b9936847acb7ffeefb1614ca68fbea8e6ce3a51aa80e0b24ac583600f60008773ffffffffffffffffffffffffffffffffffffffff1673ffffffffffffffffffffffffffffffffffffffff168152602001908152602001600020546040516124839291906157e2565b60405180910390a35050565b600b60003373ffffffffffffffffffffffffffffffffffffffff1673ffffffffffffffffffffffffffffffffffffffff16815260200190815260200160002060009054906101000a900460ff1661251b576040517f08c379a00000000000000000000000000000000000000000000000000000000081526004016125129061573c565b60405180910390fd5b7f000000000000000000000000000000000000000000000000000000000000000073ffffffffffffffffffffffffffffffffffffffff166379cc679084846040518363ffffffff1660e01b8152600401612576929190615516565b600060405180830381600087803b15801561259057600080fd5b505af11580156125a4573d6000803e3d6000fd5b505050506125bd8260065461462190919063ffffffff16565b6006819055508273ffffffffffffffffffffffffffffffffffffffff163373ffffffffffffffffffffffffffffffffffffffff167fbc37d0a57feb923122ebfc9d621199cc631a4ed85c72f93eca33ece4a404fa6884846040516126229291906157b2565b60405180910390a3505050565b60055481565b61263d614619565b73ffffffffffffffffffffffffffffffffffffffff1661265b61280c565b73ffffffffffffffffffffffffffffffffffffffff16146126b1576040517f08c379a00000000000000000000000000000000000000000000000000000000081526004016126a89061569c565b60405180910390fd5b600760008273ffffffffffffffffffffffffffffffffffffffff1673ffffffffffffffffffffffffffffffffffffffff16815260200190815260200160002060009054906101000a900460ff161561273e576040517f08c379a00000000000000000000000000000000000000000000000000000000081526004016127359061563c565b60405180910390fd5b6001600760008373ffffffffffffffffffffffffffffffffffffffff1673ffffffffffffffffffffffffffffffffffffffff16815260200190815260200160002060006101000a81548160ff0219169083151502179055506127a1601182614784565b612809576011819080600181540180825580915050600190039060005260206000200160009091909190916101000a81548173ffffffffffffffffffffffffffffffffffffffff021916908373ffffffffffffffffffffffffffffffffffffffff1602179055505b50565b60008060009054906101000a900473ffffffffffffffffffffffffffffffffffffffff16905090565b60015481565b600b60003373ffffffffffffffffffffffffffffffffffffffff1673ffffffffffffffffffffffffffffffffffffffff16815260200190815260200160002060009054906101000a900460ff166128c7576040517f08c379a00000000000000000000000000000000000000000000000000000000081526004016128be9061573c565b60405180910390fd5b8383600d60008373ffffffffffffffffffffffffffffffffffffffff1673ffffffffffffffffffffffffffffffffffffffff16815260200190815260200160002060009054906101000a900460ff16612955576040517f08c379a000000000000000000000000000000000000000000000000000000000815260040161294c906155bc565b60405180910390fd5b8173ffffffffffffffffffffffffffffffffffffffff166375cd51ed826040518263ffffffff1660e01b815260040161298e919061549b565b60206040518083038186803b1580156129a657600080fd5b505afa1580156129ba573d6000803e3d6000fd5b505050506040513d601f19601f820116820180604052508101906129de9190614dee565b612a1d576040517f08c379a0000000000000000000000000000000000000000000000000000000008152600401612a149061565c565b60405180910390fd5b8215612b0257612a703087867f000000000000000000000000000000000000000000000000000000000000000073ffffffffffffffffffffffffffffffffffffffff16614637909392919063ffffffff16565b7f000000000000000000000000000000000000000000000000000000000000000073ffffffffffffffffffffffffffffffffffffffff166340c10f1986866040518363ffffffff1660e01b8152600401612acb929190615516565b600060405180830381600087803b158015612ae557600080fd5b505af1158015612af9573d6000803e3d6000fd5b50505050612bdd565b612b4f8630867f000000000000000000000000000000000000000000000000000000000000000073ffffffffffffffffffffffffffffffffffffffff16614637909392919063ffffffff16565b7f000000000000000000000000000000000000000000000000000000000000000073ffffffffffffffffffffffffffffffffffffffff166379cc679086866040518363ffffffff1660e01b8152600401612baa929190615516565b600060405180830381600087803b158015612bc457600080fd5b505af1158015612bd8573d6000803e3d6000fd5b505050505b505050505050565b612bed614af1565b604051806060016040528060015481526020016002548152602001600354815250905090565b600a6020528060005260406000206000915054906101000a900460ff1681565b60035481565b60096020528060005260406000206000915054906101000a900460ff1681565b7f000000000000000000000000000000000000000000000000000000000000000081565b612c85614619565b73ffffffffffffffffffffffffffffffffffffffff16612ca361280c565b73ffffffffffffffffffffffffffffffffffffffff1614612cf9576040517f08c379a0000000000000000000000000000000000000000000000000000000008152600401612cf09061569c565b60405180910390fd5b80600b60008473ffffffffffffffffffffffffffffffffffffffff1673ffffffffffffffffffffffffffffffffffffffff16815260200190815260200160002060006101000a81548160ff0219169083151502179055507fbf9060ea8471bf69f47f2ac5dc98bb74593d00ed41eed8df1d2dfdffbdc367968282604051612d819291906154ed565b60405180910390a15050565b600082600760008273ffffffffffffffffffffffffffffffffffffffff1673ffffffffffffffffffffffffffffffffffffffff16815260200190815260200160002060009054906101000a900460ff1680612e315750600960008273ffffffffffffffffffffffffffffffffffffffff1673ffffffffffffffffffffffffffffffffffffffff16815260200190815260200160002060009054906101000a900460ff165b612e70576040517f08c379a0000000000000000000000000000000000000000000000000000000008152600401612e679061575c565b60405180910390fd5b600c60003373ffffffffffffffffffffffffffffffffffffffff1673ffffffffffffffffffffffffffffffffffffffff16815260200190815260200160002060009054906101000a900460ff16612efc576040517f08c379a0000000000000000000000000000000000000000000000000000000008152600401612ef39061561c565b60405180910390fd5b600760008573ffffffffffffffffffffffffffffffffffffffff1673ffffffffffffffffffffffffffffffffffffffff16815260200190815260200160002060009054906101000a900460ff1680612f9d5750600960008573ffffffffffffffffffffffffffffffffffffffff1673ffffffffffffffffffffffffffffffffffffffff16815260200190815260200160002060009054906101000a900460ff165b612fdc576040517f08c379a0000000000000000000000000000000000000000000000000000000008152600401612fd39061575c565b60405180910390fd5b6130093330878773ffffffffffffffffffffffffffffffffffffffff16614637909392919063ffffffff16565b600061301585876135cf565b9050600061302c858361460390919063ffffffff16565b905061306e30826040518060400160405280600e81526020017f646972656374206465706f7369740000000000000000000000000000000000008152506120b7565b6130ae30866040518060400160405280601f81526020017f646972656374206465706f736974207365742d61736964652070726f66697400815250613f85565b6130c38260015461462190919063ffffffff16565b6001819055506001547f93bb8edd35984706eee1b92541281f7f62d33c01c5b2ec0929a113603bd21d6660405160405180910390a28573ffffffffffffffffffffffffffffffffffffffff167f90890809c654f11d6e72a28fa60149770a0d11ec6c92319d6ceb2bb0a4ea1a1588846040516131409291906157e2565b60405180910390a28093505050509392505050565b600d60008473ffffffffffffffffffffffffffffffffffffffff1673ffffffffffffffffffffffffffffffffffffffff16815260200190815260200160002060009054906101000a900460ff166131e1576040517f08c379a00000000000000000000000000000000000000000000000000000000081526004016131d8906155bc565b60405180910390fd5b8273ffffffffffffffffffffffffffffffffffffffff1663fb01508d6040518163ffffffff1660e01b8152600401600060405180830381600087803b15801561322957600080fd5b505af115801561323d573d6000803e3d6000fd5b505050508273ffffffffffffffffffffffffffffffffffffffff16633b4abb0a836040518263ffffffff1660e01b815260040161327a919061549b565b600060405180830381600087803b15801561329457600080fd5b505af11580156132a8573d6000803e3d6000fd5b505050506132f98284837f000000000000000000000000000000000000000000000000000000000000000073ffffffffffffffffffffffffffffffffffffffff16614637909392919063ffffffff16565b7f000000000000000000000000000000000000000000000000000000000000000073ffffffffffffffffffffffffffffffffffffffff166340c10f1983836040518363ffffffff1660e01b8152600401613354929190615516565b600060405180830381600087803b15801561336e57600080fd5b505af1158015613382573d6000803e3d6000fd5b505050508273ffffffffffffffffffffffffffffffffffffffff1663ffb1738083836040518363ffffffff1660e01b81526004016133c1929190615516565b600060405180830381600087803b1580156133db57600080fd5b505af11580156133ef573d6000803e3d6000fd5b50505050505050565b613400614619565b73ffffffffffffffffffffffffffffffffffffffff1661341e61280c565b73ffffffffffffffffffffffffffffffffffffffff1614613474576040517f08c379a000000000000000000000000000000000000000000000000000000000815260040161346b9061569c565b60405180910390fd5b600760008273ffffffffffffffffffffffffffffffffffffffff1673ffffffffffffffffffffffffffffffffffffffff16815260200190815260200160002060009054906101000a900460ff1615613501576040517f08c379a00000000000000000000000000000000000000000000000000000000081526004016134f8906156fc565b60405180910390fd5b6001600960008373ffffffffffffffffffffffffffffffffffffffff1673ffffffffffffffffffffffffffffffffffffffff16815260200190815260200160002060006101000a81548160ff021916908315150217905550613564601282614784565b6135cc576012819080600181540180825580915050600190039060005260206000200160009091909190916101000a81548173ffffffffffffffffffffffffffffffffffffffff021916908373ffffffffffffffffffffffffffffffffffffffff1602179055505b50565b6000600760008473ffffffffffffffffffffffffffffffffffffffff1673ffffffffffffffffffffffffffffffffffffffff16815260200190815260200160002060009054906101000a900460ff16156137815761377a8373ffffffffffffffffffffffffffffffffffffffff1663313ce5676040518163ffffffff1660e01b815260040160206040518083038186803b15801561366c57600080fd5b505afa158015613680573d6000803e3d6000fd5b505050506040513d601f19601f820116820180604052508101906136a49190614e8f565b600a6136b09190615978565b61376c7f000000000000000000000000000000000000000000000000000000000000000073ffffffffffffffffffffffffffffffffffffffff1663313ce5676040518163ffffffff1660e01b815260040160206040518083038186803b15801561371957600080fd5b505afa15801561372d573d6000803e3d6000fd5b505050506040513d601f19601f820116820180604052508101906137519190614e8f565b600a61375d9190615978565b8561485890919063ffffffff16565b61486e90919063ffffffff16565b905061395e565b600960008473ffffffffffffffffffffffffffffffffffffffff1673ffffffffffffffffffffffffffffffffffffffff16815260200190815260200160002060009054906101000a900460ff161561395d57600073ffffffffffffffffffffffffffffffffffffffff16601060008573ffffffffffffffffffffffffffffffffffffffff1673ffffffffffffffffffffffffffffffffffffffff16815260200190815260200160002060009054906101000a900473ffffffffffffffffffffffffffffffffffffffff1673ffffffffffffffffffffffffffffffffffffffff161461395757601060008473ffffffffffffffffffffffffffffffffffffffff1673ffffffffffffffffffffffffffffffffffffffff16815260200190815260200160002060009054906101000a900473ffffffffffffffffffffffffffffffffffffffff1673ffffffffffffffffffffffffffffffffffffffff16634249719f84846040518363ffffffff1660e01b8152600401613900929190615516565b60206040518083038186803b15801561391857600080fd5b505afa15801561392c573d6000803e3d6000fd5b505050506040513d601f19601f820116820180604052508101906139509190614e17565b905061395c565b600090505b5b5b92915050565b60025481565b613972614619565b73ffffffffffffffffffffffffffffffffffffffff1661399061280c565b73ffffffffffffffffffffffffffffffffffffffff16146139e6576040517f08c379a00000000000000000000000000000000000000000000000000000000081526004016139dd9061569c565b60405180910390fd5b600d60008273ffffffffffffffffffffffffffffffffffffffff1673ffffffffffffffffffffffffffffffffffffffff16815260200190815260200160002060009054906101000a900460ff16613a72576040517f08c379a0000000000000000000000000000000000000000000000000000000008152600401613a69906155dc565b60405180910390fd5b600d60008273ffffffffffffffffffffffffffffffffffffffff1673ffffffffffffffffffffffffffffffffffffffff16815260200190815260200160002060006101000a81549060ff02191690556000600b60008373ffffffffffffffffffffffffffffffffffffffff1673ffffffffffffffffffffffffffffffffffffffff16815260200190815260200160002060006101000a81548160ff0219169083151502179055508073ffffffffffffffffffffffffffffffffffffffff167f86ddbb962e85f6c5d739cd61731d7ec6062593767596250a59f303050455899d6000604051613b60919061553f565b60405180910390a250565b613b73614619565b73ffffffffffffffffffffffffffffffffffffffff16613b9161280c565b73ffffffffffffffffffffffffffffffffffffffff1614613be7576040517f08c379a0000000000000000000000000000000000000000000000000000000008152600401613bde9061569c565b60405180910390fd5b600d60008273ffffffffffffffffffffffffffffffffffffffff1673ffffffffffffffffffffffffffffffffffffffff16815260200190815260200160002060009054906101000a900460ff1615613c74576040517f08c379a0000000000000000000000000000000000000000000000000000000008152600401613c6b9061559c565b60405180910390fd5b6001600d60008373ffffffffffffffffffffffffffffffffffffffff1673ffffffffffffffffffffffffffffffffffffffff16815260200190815260200160002060006101000a81548160ff021916908315150217905550613cd7601382614784565b613d3f576013819080600181540180825580915050600190039060005260206000200160009091909190916101000a81548173ffffffffffffffffffffffffffffffffffffffff021916908373ffffffffffffffffffffffffffffffffffffffff1602179055505b6001600b60008373ffffffffffffffffffffffffffffffffffffffff1673ffffffffffffffffffffffffffffffffffffffff16815260200190815260200160002060006101000a81548160ff0219169083151502179055507f000000000000000000000000000000000000000000000000000000000000000073ffffffffffffffffffffffffffffffffffffffff1663095ea7b3827fffffffffffffffffffffffffffffffffffffffffffffffffffffffffffffffff6040518363ffffffff1660e01b8152600401613e12929190615516565b602060405180830381600087803b158015613e2c57600080fd5b505af1158015613e40573d6000803e3d6000fd5b505050506040513d601f19601f82011682018060405250810190613e649190614dee565b507f000000000000000000000000000000000000000000000000000000000000000073ffffffffffffffffffffffffffffffffffffffff1663095ea7b3827fffffffffffffffffffffffffffffffffffffffffffffffffffffffffffffffff6040518363ffffffff1660e01b8152600401613ee0929190615516565b602060405180830381600087803b158015613efa57600080fd5b505af1158015613f0e573d6000803e3d6000fd5b505050506040513d601f19601f82011682018060405250810190613f329190614dee565b508073ffffffffffffffffffffffffffffffffffffffff167f86ddbb962e85f6c5d739cd61731d7ec6062593767596250a59f303050455899d6001604051613f7a919061553f565b60405180910390a250565b600b60003373ffffffffffffffffffffffffffffffffffffffff1673ffffffffffffffffffffffffffffffffffffffff16815260200190815260200160002060009054906101000a900460ff16614011576040517f08c379a00000000000000000000000000000000000000000000000000000000081526004016140089061573c565b60405180910390fd5b7f000000000000000000000000000000000000000000000000000000000000000073ffffffffffffffffffffffffffffffffffffffff166340c10f1984846040518363ffffffff1660e01b815260040161406c929190615516565b600060405180830381600087803b15801561408657600080fd5b505af115801561409a573d6000803e3d6000fd5b505050506140b38260055461462190919063ffffffff16565b6005819055508273ffffffffffffffffffffffffffffffffffffffff163373ffffffffffffffffffffffffffffffffffffffff167ffa5fcfcc355984ff4f39be2daa6f20fb8dc3fb5141089a6f5c46143f8afceff984846040516141189291906157b2565b60405180910390a3505050565b61412d614619565b73ffffffffffffffffffffffffffffffffffffffff1661414b61280c565b73ffffffffffffffffffffffffffffffffffffffff16146141a1576040517f08c379a00000000000000000000000000000000000000000000000000000000081526004016141989061569c565b60405180910390fd5b600073ffffffffffffffffffffffffffffffffffffffff168173ffffffffffffffffffffffffffffffffffffffff161415614211576040517f08c379a00000000000000000000000000000000000000000000000000000000081526004016142089061557c565b60405180910390fd5b61421a816146c0565b50565b614225614619565b73ffffffffffffffffffffffffffffffffffffffff1661424361280c565b73ffffffffffffffffffffffffffffffffffffffff1614614299576040517f08c379a00000000000000000000000000000000000000000000000000000000081526004016142909061569c565b60405180910390fd5b7f000000000000000000000000000000000000000000000000000000000000000073ffffffffffffffffffffffffffffffffffffffff166340c10f1983836040518363ffffffff1660e01b81526004016142f4929190615516565b600060405180830381600087803b15801561430e57600080fd5b505af1158015614322573d6000803e3d6000fd5b5050505061433b8160025461462190919063ffffffff16565b60028190555061439381600e60008573ffffffffffffffffffffffffffffffffffffffff1673ffffffffffffffffffffffffffffffffffffffff1681526020019081526020016000205461462190919063ffffffff16565b600e60008473ffffffffffffffffffffffffffffffffffffffff1673ffffffffffffffffffffffffffffffffffffffff168152602001908152602001600020819055508173ffffffffffffffffffffffffffffffffffffffff167f000000000000000000000000000000000000000000000000000000000000000073ffffffffffffffffffffffffffffffffffffffff167f4818b92ef195c8580e3cd08d9f47d50913f1a9aa6d4e4b8570d6861fa4ab2e6483600e60008773ffffffffffffffffffffffffffffffffffffffff1673ffffffffffffffffffffffffffffffffffffffff168152602001908152602001600020546040516144949291906157e2565b60405180910390a35050565b6144a8614619565b73ffffffffffffffffffffffffffffffffffffffff166144c661280c565b73ffffffffffffffffffffffffffffffffffffffff161461451c576040517f08c379a00000000000000000000000000000000000000000000000000000000081526004016145139061569c565b60405180910390fd5b600760008273ffffffffffffffffffffffffffffffffffffffff1673ffffffffffffffffffffffffffffffffffffffff16815260200190815260200160002060009054906101000a900460ff166145a8576040517f08c379a000000000000000000000000000000000000000000000000000000000815260040161459f9061567c565b60405180910390fd5b6000600960008373ffffffffffffffffffffffffffffffffffffffff1673ffffffffffffffffffffffffffffffffffffffff16815260200190815260200160002060006101000a81548160ff02191690831515021790555050565b600081836146119190615af0565b905092915050565b600033905090565b6000818361462f919061589e565b905092915050565b6146ba846323b872dd60e01b858585604051602401614658939291906154b6565b604051602081830303815290604052907bffffffffffffffffffffffffffffffffffffffffffffffffffffffff19166020820180517bffffffffffffffffffffffffffffffffffffffffffffffffffffffff8381831617835250505050614884565b50505050565b60008060009054906101000a900473ffffffffffffffffffffffffffffffffffffffff169050816000806101000a81548173ffffffffffffffffffffffffffffffffffffffff021916908373ffffffffffffffffffffffffffffffffffffffff1602179055508173ffffffffffffffffffffffffffffffffffffffff168173ffffffffffffffffffffffffffffffffffffffff167f8be0079c531659141344cd1fd0a4f28419497f9722a3daafe3b4186f6b6457e060405160405180910390a35050565b600080600090505b838054905081101561484c578273ffffffffffffffffffffffffffffffffffffffff168482815481106147e8577f4e487b7100000000000000000000000000000000000000000000000000000000600052603260045260246000fd5b9060005260206000200160009054906101000a900473ffffffffffffffffffffffffffffffffffffffff1673ffffffffffffffffffffffffffffffffffffffff161415614839576001915050614852565b808061484490615bbb565b91505061478c565b50600090505b92915050565b600081836148669190615a96565b905092915050565b6000818361487c91906158f4565b905092915050565b60006148e6826040518060400160405280602081526020017f5361666545524332303a206c6f772d6c6576656c2063616c6c206661696c65648152508573ffffffffffffffffffffffffffffffffffffffff1661494b9092919063ffffffff16565b905060008151111561494657808060200190518101906149069190614dee565b614945576040517f08c379a000000000000000000000000000000000000000000000000000000000815260040161493c9061571c565b60405180910390fd5b5b505050565b606061495a8484600085614963565b90509392505050565b6060824710156149a8576040517f08c379a000000000000000000000000000000000000000000000000000000000815260040161499f906155fc565b60405180910390fd5b6149b185614a77565b6149f0576040517f08c379a00000000000000000000000000000000000000000000000000000000081526004016149e7906156dc565b60405180910390fd5b6000808673ffffffffffffffffffffffffffffffffffffffff168587604051614a199190615484565b60006040518083038185875af1925050503d8060008114614a56576040519150601f19603f3d011682016040523d82523d6000602084013e614a5b565b606091505b5091509150614a6b828286614a8a565b92505050949350505050565b600080823b905060008111915050919050565b60608315614a9a57829050614aea565b600083511115614aad5782518084602001fd5b816040517f08c379a0000000000000000000000000000000000000000000000000000000008152600401614ae1919061555a565b60405180910390fd5b9392505050565b60405180606001604052806000815260200160008152602001600081525090565b6000614b25614b208461583c565b61580b565b905082815260208101848484011115614b3d57600080fd5b614b48848285615b79565b509392505050565b600081359050614b5f81615caf565b92915050565b600081359050614b7481615cc6565b92915050565b600081519050614b8981615cc6565b92915050565b600082601f830112614ba057600080fd5b8135614bb0848260208601614b12565b91505092915050565b600081359050614bc881615cdd565b92915050565b600081519050614bdd81615cdd565b92915050565b600081519050614bf281615cf4565b92915050565b600060208284031215614c0a57600080fd5b6000614c1884828501614b50565b91505092915050565b60008060408385031215614c3457600080fd5b6000614c4285828601614b50565b9250506020614c5385828601614b50565b9150509250929050565b600080600060608486031215614c7257600080fd5b6000614c8086828701614b50565b9350506020614c9186828701614b50565b9250506040614ca286828701614bb9565b9150509250925092565b60008060008060808587031215614cc257600080fd5b6000614cd087828801614b50565b9450506020614ce187828801614b50565b9350506040614cf287828801614bb9565b9250506060614d0387828801614b65565b91505092959194509250565b60008060408385031215614d2257600080fd5b6000614d3085828601614b50565b9250506020614d4185828601614b65565b9150509250929050565b60008060408385031215614d5e57600080fd5b6000614d6c85828601614b50565b9250506020614d7d85828601614bb9565b9150509250929050565b600080600060608486031215614d9c57600080fd5b6000614daa86828701614b50565b9350506020614dbb86828701614bb9565b925050604084013567ffffffffffffffff811115614dd857600080fd5b614de486828701614b8f565b9150509250925092565b600060208284031215614e0057600080fd5b6000614e0e84828501614b7a565b91505092915050565b600060208284031215614e2957600080fd5b6000614e3784828501614bce565b91505092915050565b600080600060608486031215614e5557600080fd5b6000614e6386828701614bb9565b9350506020614e7486828701614b50565b9250506040614e8586828701614bb9565b9150509250925092565b600060208284031215614ea157600080fd5b6000614eaf84828501614be3565b91505092915050565b614ec181615b24565b82525050565b614ed081615b36565b82525050565b6000614ee18261586c565b614eeb8185615882565b9350614efb818560208601615b88565b80840191505092915050565b6000614f1282615877565b614f1c818561588d565b9350614f2c818560208601615b88565b614f3581615c91565b840191505092915050565b6000614f4d60268361588d565b91507f4f776e61626c653a206e6577206f776e657220697320746865207a65726f206160008301527f64647265737300000000000000000000000000000000000000000000000000006020830152604082019050919050565b6000614fb360128361588d565b91507f616c7265616479207265676973746572656400000000000000000000000000006000830152602082019050919050565b6000614ff360168361588d565b91507f4e6f742061207374616b696e6720636f6e7472616374000000000000000000006000830152602082019050919050565b6000615033601e8361588d565b91507f636f6e7472616374206e6f7420666f756e64206f6e20726567697374727900006000830152602082019050919050565b600061507360268361588d565b91507f416464726573733a20696e73756666696369656e742062616c616e636520666f60008301527f722063616c6c00000000000000000000000000000000000000000000000000006020830152604082019050919050565b60006150d9601b8361588d565b91507f4e6f7420616e20617574686f72697a6564206465706f7369746f7200000000006000830152602082019050919050565b600061511960288361588d565b91507f616c7265616479207265676973746572656420746f207265736572766520746f60008301527f6b656e206c6973740000000000000000000000000000000000000000000000006020830152604082019050919050565b600061517f60258361588d565b91507f4e6f742061207374616b6572206f6e2074686973207374616b696e6720636f6e60008301527f74726163740000000000000000000000000000000000000000000000000000006020830152604082019050919050565b60006151e560158361588d565b91507f6e6f742061206c697175696469747920746f6b656e00000000000000000000006000830152602082019050919050565b600061522560208361588d565b91507f4f776e61626c653a2063616c6c6572206973206e6f7420746865206f776e65726000830152602082019050919050565b600061526560138361588d565b91507f6e6f742061207265736572766520746f6b656e000000000000000000000000006000830152602082019050919050565b60006152a5601d8361588d565b91507f416464726573733a2063616c6c20746f206e6f6e2d636f6e74726163740000006000830152602082019050919050565b60006152e5602a8361588d565b91507f616c7265616479207265676973746572656420746f206c69717569646974792060008301527f746f6b656e206c697374000000000000000000000000000000000000000000006020830152604082019050919050565b600061534b602a8361588d565b91507f5361666545524332303a204552433230206f7065726174696f6e20646964206e60008301527f6f742073756363656564000000000000000000000000000000000000000000006020830152604082019050919050565b60006153b1600e8361588d565b91507f4e6f7420617574686f72697a65640000000000000000000000000000000000006000830152602082019050919050565b60006153f1600c8361588d565b91507f4e6f7420616363657074656400000000000000000000000000000000000000006000830152602082019050919050565b60608201600082015161543a6000850182615466565b50602082015161544d6020850182615466565b5060408201516154606040850182615466565b50505050565b61546f81615b62565b82525050565b61547e81615b62565b82525050565b60006154908284614ed6565b915081905092915050565b60006020820190506154b06000830184614eb8565b92915050565b60006060820190506154cb6000830186614eb8565b6154d86020830185614eb8565b6154e56040830184615475565b949350505050565b60006040820190506155026000830185614eb8565b61550f6020830184614ec7565b9392505050565b600060408201905061552b6000830185614eb8565b6155386020830184615475565b9392505050565b60006020820190506155546000830184614ec7565b92915050565b600060208201905081810360008301526155748184614f07565b905092915050565b6000602082019050818103600083015261559581614f40565b9050919050565b600060208201905081810360008301526155b581614fa6565b9050919050565b600060208201905081810360008301526155d581614fe6565b9050919050565b600060208201905081810360008301526155f581615026565b9050919050565b6000602082019050818103600083015261561581615066565b9050919050565b60006020820190508181036000830152615635816150cc565b9050919050565b600060208201905081810360008301526156558161510c565b9050919050565b6000602082019050818103600083015261567581615172565b9050919050565b60006020820190508181036000830152615695816151d8565b9050919050565b600060208201905081810360008301526156b581615218565b9050919050565b600060208201905081810360008301526156d581615258565b9050919050565b600060208201905081810360008301526156f581615298565b9050919050565b60006020820190508181036000830152615715816152d8565b9050919050565b600060208201905081810360008301526157358161533e565b9050919050565b60006020820190508181036000830152615755816153a4565b9050919050565b60006020820190508181036000830152615775816153e4565b9050919050565b60006060820190506157916000830184615424565b92915050565b60006020820190506157ac6000830184615475565b92915050565b60006040820190506157c76000830185615475565b81810360208301526157d98184614f07565b90509392505050565b60006040820190506157f76000830185615475565b6158046020830184615475565b9392505050565b6000604051905081810181811067ffffffffffffffff8211171561583257615831615c62565b5b8060405250919050565b600067ffffffffffffffff82111561585757615856615c62565b5b601f19601f8301169050602081019050919050565b600081519050919050565b600081519050919050565b600081905092915050565b600082825260208201905092915050565b60006158a982615b62565b91506158b483615b62565b9250827fffffffffffffffffffffffffffffffffffffffffffffffffffffffffffffffff038211156158e9576158e8615c04565b5b828201905092915050565b60006158ff82615b62565b915061590a83615b62565b92508261591a57615919615c33565b5b828204905092915050565b6000808291508390505b600185111561596f5780860481111561594b5761594a615c04565b5b600185161561595a5780820291505b808102905061596885615ca2565b945061592f565b94509492505050565b600061598382615b62565b915061598e83615b6c565b92506159bb7fffffffffffffffffffffffffffffffffffffffffffffffffffffffffffffffff84846159c3565b905092915050565b6000826159d35760019050615a8f565b816159e15760009050615a8f565b81600181146159f75760028114615a0157615a30565b6001915050615a8f565b60ff841115615a1357615a12615c04565b5b8360020a915084821115615a2a57615a29615c04565b5b50615a8f565b5060208310610133831016604e8410600b8410161715615a655782820a905083811115615a6057615a5f615c04565b5b615a8f565b615a728484846001615925565b92509050818404811115615a8957615a88615c04565b5b81810290505b9392505050565b6000615aa182615b62565b9150615aac83615b62565b9250817fffffffffffffffffffffffffffffffffffffffffffffffffffffffffffffffff0483118215151615615ae557615ae4615c04565b5b828202905092915050565b6000615afb82615b62565b9150615b0683615b62565b925082821015615b1957615b18615c04565b5b828203905092915050565b6000615b2f82615b42565b9050919050565b60008115159050919050565b600073ffffffffffffffffffffffffffffffffffffffff82169050919050565b6000819050919050565b600060ff82169050919050565b82818337600083830152505050565b60005b83811015615ba6578082015181840152602081019050615b8b565b83811115615bb5576000848401525b50505050565b6000615bc682615b62565b91507fffffffffffffffffffffffffffffffffffffffffffffffffffffffffffffffff821415615bf957615bf8615c04565b5b600182019050919050565b7f4e487b7100000000000000000000000000000000000000000000000000000000600052601160045260246000fd5b7f4e487b7100000000000000000000000000000000000000000000000000000000600052601260045260246000fd5b7f4e487b7100000000000000000000000000000000000000000000000000000000600052604160045260246000fd5b6000601f19601f8301169050919050565b60008160011c9050919050565b615cb881615b24565b8114615cc357600080fd5b50565b615ccf81615b36565b8114615cda57600080fd5b50565b615ce681615b62565b8114615cf157600080fd5b50565b615cfd81615b6c565b8114615d0857600080fd5b5056fea2646970667358221220dd4f9eb0f2b0343d3b0f83f272a996fb6537603ed7fad11af7aac65adc231c6d64736f6c63430008000033",
  "immutableReferences": {
    "4793": [
      {
        "length": 32,
        "start": 2365
      },
      {
        "length": 32,
        "start": 2705
      },
      {
        "length": 32,
        "start": 5250
      },
      {
        "length": 32,
        "start": 5590
      },
      {
        "length": 32,
        "start": 6402
      },
      {
        "length": 32,
        "start": 7021
      },
      {
        "length": 32,
        "start": 8517
      },
      {
        "length": 32,
        "start": 9501
      },
      {
        "length": 32,
        "start": 10795
      },
      {
        "length": 32,
        "start": 11018
      },
      {
        "length": 32,
        "start": 12980
      },
      {
        "length": 32,
        "start": 14005
      },
      {
        "length": 32,
        "start": 15769
      },
      {
        "length": 32,
        "start": 16403
      },
      {
        "length": 32,
        "start": 17051
      },
      {
        "length": 32,
        "start": 17391
      }
    ],
    "4795": [
      {
        "length": 32,
        "start": 5846
      },
      {
        "length": 32,
        "start": 6186
      },
      {
        "length": 32,
        "start": 6366
      },
      {
        "length": 32,
        "start": 7364
      },
      {
        "length": 32,
        "start": 7704
      },
      {
        "length": 32,
        "start": 8842
      },
      {
        "length": 32,
        "start": 9182
      }
    ],
    "4797": [
      {
        "length": 32,
        "start": 7092
      },
      {
        "length": 32,
        "start": 10866
      },
      {
        "length": 32,
        "start": 11089
      },
      {
        "length": 32,
        "start": 11355
      },
      {
        "length": 32,
        "start": 13051
      },
      {
        "length": 32,
        "start": 15975
      }
    ]
  },
  "source": "// SPDX-License-Identifier: AGPL-3.0-or-later\npragma solidity 0.8.0;\n\nimport \"@openzeppelin/contracts/token/ERC20/ERC20.sol\";\nimport \"@openzeppelin/contracts/token/ERC20/utils/SafeERC20.sol\";\nimport \"@openzeppelin/contracts/utils/math/SafeMath.sol\";\nimport \"@openzeppelin/contracts/access/Ownable.sol\";\nimport \"./util/ERC20Mintable.sol\";\nimport \"./AthertonModels.sol\";\n\n// TODO-hightlight :: main logic\n\ncontract AthertonTreasury is Ownable {\n\n    using SafeMath for uint;\n    using SafeERC20 for IERC20;\n\n    modifier onlyAuthority() { require( isRecordAuthority[msg.sender], \"Not authorized\" ); _; }\n    modifier onlyDepositor() { require( isDepositor[ msg.sender ], \"Not an authorized depositor\" ); _; }\n    modifier isAccepted(address _token) { require( isReserveToken[ _token ] || isLiquidityToken[ _token ], \"Not accepted\" ); _; }\n    modifier isStaker(address _stakingContract, address _account) {\n        require( isStakingContract[ _stakingContract ], \"Not a staking contract\" );\n        require( IStaking(_stakingContract).accountExists(_account), \"Not a staker on this staking contract\" );\n        _;\n    }\n\n    struct TreasuryData {\n        uint256 totalReserves; // Risk-free value of all assets\n        uint256 totalUnsecured; // Total unsecured ATHER (very highly risky)\n        uint256 totalUnsecuredUSD; // Total unsecured ATHERUSD (very highly risky)\n    }\n\n    event StakingContractUpdated( address indexed stakingContract,  bool value );\n    event AtherSales( address indexed recorder, address indexed recipient, uint amount, string details);\n    event AtherProfit( address indexed recorder, address indexed recipient, uint amount, string details);\n    event AtherLoss( address indexed recorder, address indexed recipient, uint amount, string details);\n    event Deposit( address indexed token, uint amount, uint value );\n    event BondCalulatorChange (address indexed token, address calulator);\n    event ReservesUpdated( uint indexed totalReserves );\n    event AuthorityChange( address target, bool value);\n    event DepositorChange( address target, bool value);\n    event IncurUnsecured( address indexed token, address indexed borrower, uint amount, uint balance );\n    event RepayUnsecured( address indexed token, address indexed borrower, uint amount, uint balance );\n    event IncurUnsecuredUSD( address indexed token, address indexed borrower, uint amount, uint balance );\n    event RepayUnsecuredUSD( address indexed token, address indexed borrower, uint amount, uint balance );\n\n    address public immutable ATHER;\n    address public immutable ATHERUSD;\n    address public immutable SATHER;\n\n    uint public totalReserves; // Risk-free value of all assets\n    uint public totalUnsecured; // Total unsecured ATHER (very highly risky)\n    uint public totalUnsecuredUSD; // Total unsecured ATHERUSD (very highly risky)\n    uint public totalSales;\n    uint public totalProfit;\n    uint public totalLoss;\n\n    mapping( address => bool ) public isReserveToken;\n    mapping( address => bool ) public isReserveDepositor;\n    mapping( address => bool ) public isLiquidityToken;\n    mapping( address => bool ) public isLiquidityDepositor;\n    mapping( address => bool ) public isRecordAuthority;\n    mapping( address => bool ) public isDepositor;\n    mapping( address => bool ) public isStakingContract;\n    mapping( address => uint ) public unsecuredLoans; // No-collateral loans (very highly risky)\n    mapping( address => uint ) public unsecuredLoansUSD; // No-collateral USD loans (very highly risky)\n    mapping( address => address ) public bondCalculator; // bond calculator for liquidity token\n\n    address[] reserveTokens;\n    address[] liquidityTokens;\n    address[] stakingContracts;\n\n    constructor (\n        address _ATHER,\n        address _ATHERUSD,\n        address _SATHER\n    ) {\n        require( _ATHER != address(0) );\n        ATHER = _ATHER;\n        require( _ATHERUSD != address(0) );\n        ATHERUSD = _ATHERUSD;\n        require( _SATHER != address(0) );\n        SATHER = _SATHER;\n        isRecordAuthority[address(this)] = true;\n    }\n\n    /**\n        @notice allow approved address to deposit an asset for ATHER\n        @param _amount uint\n        @param _token address\n        @param _treasuryProfit uint\n        @return send_ uint\n     */\n    function deposit( uint _amount, address _token, uint _treasuryProfit ) external isAccepted(_token) onlyDepositor() returns ( uint ) {\n        require( isReserveToken[ _token ] || isLiquidityToken[ _token ], \"Not accepted\" );\n        IERC20( _token ).safeTransferFrom( msg.sender, address(this), _amount );\n\n        uint value = valueOfToken(_token, _amount);\n        // mint ATHER needed and store amount of rewards for distribution\n        uint send_ = value.sub( _treasuryProfit );\n        recordSales( address(this), send_, \"direct deposit\" );\n        recordProfit( address(this), _treasuryProfit, \"direct deposit set-aside profit\" );\n\n        totalReserves = totalReserves.add( value );\n        emit ReservesUpdated( totalReserves );\n        emit Deposit( _token, _amount, value );\n        return send_;\n    }\n\n    /**\n        @notice send epoch reward to staking contract\n     */\n     function recordSales( address _recipient, uint _amount, string memory _details) public onlyAuthority() {\n        IERC20Mintable( ATHER ).mint( _recipient, _amount );\n        emit AtherSales( msg.sender, _recipient, _amount, _details);\n    }\n    function recordProfit( address _recipient, uint _amount, string memory _details) public onlyAuthority() {\n        IERC20Mintable( ATHER ).mint( _recipient, _amount );\n        totalProfit = totalProfit.add(_amount);\n        emit AtherProfit( msg.sender, _recipient, _amount, _details);\n    }\n    function recordLoss( address _recipient, uint _amount, string memory _details) public onlyAuthority() {\n        IERC20Mintable( ATHER ).burnFrom( _recipient, _amount );\n        totalLoss = totalLoss.add(_amount);\n        emit AtherLoss( msg.sender, _recipient, _amount, _details);\n    }\n    function rebase( address _stakingContract, address _account, uint _amount, bool _isPositive )\n      public onlyAuthority() isStaker( _stakingContract, _account ) {\n        if (_isPositive) {\n          IERC20( ATHER ).safeTransferFrom( address(this), _stakingContract, _amount );\n          IERC20Mintable( SATHER ).mint( _account, _amount );\n        } else {\n          IERC20( ATHER ).safeTransferFrom( _stakingContract, address(this), _amount );\n          IERC20Mintable( SATHER ).burnFrom( _account, _amount );\n        }\n    }\n    function stake( address _stakingContract, address _account, uint _amount ) external {\n        require( isStakingContract[_stakingContract], \"Not a staking contract\");\n        IStaking(_stakingContract).epochCheck();\n        IStaking(_stakingContract).rebaseAccount(_account);\n        IERC20( ATHER ).safeTransferFrom( _account, _stakingContract, _amount );\n        IERC20Mintable( SATHER ).mint( _account, _amount );\n        IStaking(_stakingContract).stakeEffect( _account, _amount );\n    }\n    function unstake( address _stakingContract, address _account, uint _amount ) external isStaker( _stakingContract, _account ) {\n        IStaking(_stakingContract).epochCheck();\n        IStaking(_stakingContract).rebaseAccount( _account );\n        IERC20( ATHER ).safeTransferFrom( _stakingContract, _account, _amount );\n        IERC20Mintable( SATHER ).burnFrom( _account, _amount );\n    }\n\n    /**\n        @notice Unsecured minting ATHER, DAO must approve\n     */\n    function incurUnsecured( address _borrower, uint _amount ) external onlyOwner() {\n        IERC20Mintable( ATHER ).mint( _borrower, _amount );\n        totalUnsecured = totalUnsecured.add( _amount );\n        unsecuredLoans[_borrower] = unsecuredLoans[_borrower].add(_amount);\n\n        emit IncurUnsecured( ATHER, _borrower, _amount, unsecuredLoans[_borrower]);\n    }\n\n    /**\n        @notice Repay unsecured after the borrower has made value from it\n     */\n    function repayUnsecured( address _borrower, uint _amount ) external {\n        require( unsecuredLoans[_borrower] >= _amount );\n        IATHERERC20( ATHER ).burnFrom(_borrower, _amount);\n        totalUnsecured = totalUnsecured.sub( _amount );\n        unsecuredLoans[_borrower] = unsecuredLoans[_borrower].sub(_amount);\n\n        emit RepayUnsecured( ATHER, _borrower, _amount, unsecuredLoans[_borrower]);\n    }\n\n    /**\n        @notice Repay on behalf of the borrower\n     */\n    function repayUnsecuredOnBehalfOf( address _borrower, address _repayer, uint _amount ) external {\n        require( unsecuredLoans[_borrower] >= _amount );\n        IATHERERC20( ATHER ).burnFrom(_repayer, _amount);\n        totalUnsecured = totalUnsecured.sub( _amount );\n        unsecuredLoans[_borrower] = unsecuredLoans[_borrower].sub(_amount);\n\n        emit RepayUnsecured( ATHER, _borrower, _amount, unsecuredLoans[_borrower]);\n    }\n\n    /**\n        @notice Unsecured minting ATHERUSD, DAO must approve\n     */\n    function incurUnsecuredUSD( address _borrower, uint _amount ) external onlyOwner() {\n        IERC20Mintable( ATHERUSD ).mint( _borrower, _amount );\n        totalUnsecuredUSD = totalUnsecuredUSD.add( _amount );\n        unsecuredLoansUSD[_borrower] = unsecuredLoansUSD[_borrower].add(_amount);\n\n        emit IncurUnsecuredUSD( ATHERUSD, _borrower, _amount, unsecuredLoansUSD[_borrower]);\n    }\n\n    /**\n        @notice Repay unsecured after the borrower has made value from it\n     */\n    function repayUnsecuredUSD( address _borrower, uint _amount ) external {\n        require( unsecuredLoansUSD[_borrower] >= _amount );\n        IATHERERC20( ATHERUSD ).burnFrom(_borrower, _amount);\n        totalUnsecuredUSD = totalUnsecuredUSD.sub( _amount );\n        unsecuredLoansUSD[_borrower] = unsecuredLoansUSD[_borrower].sub(_amount);\n\n        emit RepayUnsecuredUSD( ATHERUSD, _borrower, _amount, unsecuredLoansUSD[_borrower]);\n    }\n\n    /**\n        @notice Repay on behalf of the borrower\n     */\n    function repayUnsecuredUSDOnBehalfOf( address _borrower, address _repayer, uint _amount ) external {\n        require( unsecuredLoansUSD[_borrower] >= _amount );\n        IATHERERC20( ATHERUSD ).burnFrom(_repayer, _amount);\n        totalUnsecuredUSD = totalUnsecuredUSD.sub( _amount );\n        unsecuredLoansUSD[_borrower] = unsecuredLoansUSD[_borrower].sub(_amount);\n\n        emit RepayUnsecuredUSD( ATHERUSD, _borrower, _amount, unsecuredLoansUSD[_borrower]);\n    }\n\n    /**\n        @notice returns excess reserves not backing tokens\n        @return uint\n     */\n    function getTotalReserves() public view returns ( uint ) {\n        return totalReserves;\n    }\n\n    /**\n        @notice returns all important treasury data\n        @return TreasuryData\n     */\n    function getTreasuryData() public view returns ( TreasuryData memory ) {\n        return TreasuryData({\n          totalReserves: totalReserves,\n          totalUnsecured: totalUnsecured,\n          totalUnsecuredUSD: totalUnsecuredUSD\n        });\n    } \n\n    /**\n        @notice takes inventory of all tracked assets\n        @notice always consolidate to recognized reserves before audit\n     */\n    function auditReserves() external onlyOwner() {\n        uint reserves;\n        for( uint i = 0; i < reserveTokens.length; i++ ) {\n            if (!isReserveToken[reserveTokens[ i ]]) { continue; }\n            reserves = reserves.add ( \n                valueOfToken( reserveTokens[ i ], IERC20( reserveTokens[ i ] ).balanceOf( address(this) ) )\n            );\n        }\n        for( uint i = 0; i < liquidityTokens.length; i++ ) {\n            if (!isLiquidityToken[liquidityTokens[ i ]]) { continue; }\n            reserves = reserves.add (\n                valueOfToken( liquidityTokens[ i ], IERC20( liquidityTokens[ i ] ).balanceOf( address(this) ) )\n            );\n        }\n        totalReserves = reserves;\n        emit ReservesUpdated( reserves );\n    }\n\n    /**\n        @notice returns ATHER valuation of asset\n        @param _token address\n        @param _amount uint\n        @return value_ uint\n     */\n    function valueOfToken( address _token, uint _amount ) public view returns ( uint value_ ) {\n        if ( isReserveToken[ _token ] ) {\n            // 1:1 backing with reserve token (e.g. 1 ATHER = 1 USDT)\n            // convert amount to match ATHER decimals\n            value_ = _amount.mul( 10 ** ERC20( ATHER ).decimals() ).div( 10 ** ERC20( _token ).decimals() );\n        } else if ( isLiquidityToken[ _token ] ) {\n            if (bondCalculator[ _token ] != address(0)) {\n                value_ = IBondCalculator( bondCalculator[ _token ] ).valuation( _token, _amount );  \n            } else {\n                value_ = 0;\n            }\n        }\n    }\n\n    /**\n        @notice verify queue then set boolean in mapping\n        @param _address address\n        @param value bool\n     */\n    function setAuthority( address _address, bool value ) external onlyOwner() {\n        isRecordAuthority[_address] = value;\n        emit AuthorityChange( _address, value );\n    }\n    function setDepositor( address _address, bool value ) external onlyOwner() {\n        isDepositor[_address] = value;\n        emit DepositorChange( _address, value );\n    }\n    function addReserveToken(address _token) external onlyOwner() {\n        require(!isReserveToken[ _token ], \"already registered to reserve token list\");\n        isReserveToken[ _token ] = true;\n        if (!listContains(reserveTokens, _token)) {\n            reserveTokens.push(_token);\n        }\n    }\n    function removeReserveToken(address _token) external onlyOwner() {\n        require(isReserveToken[ _token ], \"not a reserve token\");\n        isReserveToken[ _token ] = false;\n    }\n    function addLiquidityToken(address _token) external onlyOwner() {\n        require(!isReserveToken[ _token ], \"already registered to liquidity token list\");\n        isLiquidityToken[ _token ] = true;\n        if (!listContains(liquidityTokens, _token)) {\n            liquidityTokens.push(_token);\n        }\n    }\n    function removeLiquidityToken(address _token) external onlyOwner() {\n        require(isReserveToken[ _token ], \"not a liquidity token\");\n        isLiquidityToken[ _token ] = false;\n    }\n\n    /**\n        @notice verify queue then set boolean in mapping\n        @param _token address\n        @param _calculator address\n     */\n    function setBondCalulator( address _token, address _calculator ) external onlyOwner() {\n        require( _token != address(0) );\n        require( _calculator != address(0) );\n        bondCalculator[_token] = _calculator;\n        emit BondCalulatorChange( _token, _calculator );\n    }\n\n    function addStakingContract( address stakingContract_ ) external onlyOwner() {\n        require( !isStakingContract[stakingContract_], \"already registered\" );\n        isStakingContract[stakingContract_] = true;\n        if (!listContains(stakingContracts, stakingContract_)) {\n            stakingContracts.push(stakingContract_);\n        }\n        isRecordAuthority[stakingContract_] = true;\n        IERC20( ATHER ).approve( address( stakingContract_ ), type(uint).max );\n        IERC20( SATHER ).approve( address( stakingContract_ ), type(uint).max );\n        emit StakingContractUpdated( stakingContract_, true );\n    }\n\n    function removeStakingContract( address stakingContract_ ) external onlyOwner() {\n        require( isStakingContract[stakingContract_], \"contract not found on registry\" );\n        delete isStakingContract[stakingContract_];\n        isRecordAuthority[stakingContract_] = false;\n        emit StakingContractUpdated( stakingContract_, false );\n    }\n\n    /**\n        @notice checks array to ensure against duplicate\n        @param _list address[]\n        @param _token address\n        @return bool\n     */\n    function listContains( address[] storage _list, address _token ) internal view returns ( bool ) {\n        for( uint i = 0; i < _list.length; i++ ) {\n            if( _list[ i ] == _token ) {\n                return true;\n            }\n        }\n        return false;\n    }\n\n}",
  "sourcePath": "/var/www/atherton/solidity/contracts/Treasury.sol",
  "compiler": {
    "name": "solc",
    "version": "0.8.0+commit.c7dfd78e.Emscripten.clang"
  },
  "schemaVersion": "3.4.3",
  "updatedAt": "2021-12-07T05:40:45.777Z",
  "devdoc": {
    "kind": "dev",
    "methods": {
      "deposit(uint256,address,uint256)": {
        "params": {
          "_amount": "uint",
          "_token": "address",
          "_treasuryProfit": "uint"
        },
        "returns": {
          "_0": "send_ uint"
        }
      },
      "getTotalReserves()": {
        "returns": {
          "_0": "uint"
        }
      },
      "getTreasuryData()": {
        "returns": {
          "_0": "TreasuryData"
        }
      },
      "owner()": {
        "details": "Returns the address of the current owner."
      },
      "renounceOwnership()": {
        "details": "Leaves the contract without owner. It will not be possible to call `onlyOwner` functions anymore. Can only be called by the current owner. NOTE: Renouncing ownership will leave the contract without an owner, thereby removing any functionality that is only available to the owner."
      },
      "setAuthority(address,bool)": {
        "params": {
          "_address": "address",
          "value": "bool"
        }
      },
      "setBondCalulator(address,address)": {
        "params": {
          "_calculator": "address",
          "_token": "address"
        }
      },
      "transferOwnership(address)": {
        "details": "Transfers ownership of the contract to a new account (`newOwner`). Can only be called by the current owner."
      },
      "valueOfToken(address,uint256)": {
        "params": {
          "_amount": "uint",
          "_token": "address"
        },
        "returns": {
          "value_": "uint"
        }
      }
    },
    "version": 1
  },
  "userdoc": {
    "kind": "user",
    "methods": {
      "auditReserves()": {
        "notice": "takes inventory of all tracked assetsalways consolidate to recognized reserves before audit"
      },
      "deposit(uint256,address,uint256)": {
        "notice": "allow approved address to deposit an asset for ATHER"
      },
      "getTotalReserves()": {
        "notice": "returns excess reserves not backing tokens"
      },
      "getTreasuryData()": {
        "notice": "returns all important treasury data"
      },
      "incurUnsecured(address,uint256)": {
        "notice": "Unsecured minting ATHER, DAO must approve"
      },
      "incurUnsecuredUSD(address,uint256)": {
        "notice": "Unsecured minting ATHERUSD, DAO must approve"
      },
      "recordSales(address,uint256,string)": {
        "notice": "send epoch reward to staking contract"
      },
      "repayUnsecured(address,uint256)": {
        "notice": "Repay unsecured after the borrower has made value from it"
      },
      "repayUnsecuredOnBehalfOf(address,address,uint256)": {
        "notice": "Repay on behalf of the borrower"
      },
      "repayUnsecuredUSD(address,uint256)": {
        "notice": "Repay unsecured after the borrower has made value from it"
      },
      "repayUnsecuredUSDOnBehalfOf(address,address,uint256)": {
        "notice": "Repay on behalf of the borrower"
      },
      "setAuthority(address,bool)": {
        "notice": "verify queue then set boolean in mapping"
      },
      "setBondCalulator(address,address)": {
        "notice": "verify queue then set boolean in mapping"
      },
      "valueOfToken(address,uint256)": {
        "notice": "returns ATHER valuation of asset"
      }
    },
    "version": 1
  }
}