{
  "contractName": "AthertonERC20Token",
  "abi": [
    {
      "inputs": [],
      "stateMutability": "nonpayable",
      "type": "constructor"
    },
    {
      "anonymous": false,
      "inputs": [
        {
          "indexed": true,
          "internalType": "address",
          "name": "owner",
          "type": "address"
        },
        {
          "indexed": true,
          "internalType": "address",
          "name": "spender",
          "type": "address"
        },
        {
          "indexed": false,
          "internalType": "uint256",
          "name": "value",
          "type": "uint256"
        }
      ],
      "name": "Approval",
      "type": "event"
    },
    {
      "anonymous": false,
      "inputs": [
        {
          "indexed": true,
          "internalType": "address",
          "name": "previousOwner",
          "type": "address"
        },
        {
          "indexed": true,
          "internalType": "address",
          "name": "newOwner",
          "type": "address"
        }
      ],
      "name": "OwnershipTransferred",
      "type": "event"
    },
    {
      "anonymous": false,
      "inputs": [
        {
          "indexed": true,
          "internalType": "address",
          "name": "from",
          "type": "address"
        },
        {
          "indexed": true,
          "internalType": "address",
          "name": "to",
          "type": "address"
        },
        {
          "indexed": false,
          "internalType": "uint256",
          "name": "value",
          "type": "uint256"
        }
      ],
      "name": "Transfer",
      "type": "event"
    },
    {
      "inputs": [],
      "name": "DOMAIN_SEPARATOR",
      "outputs": [
        {
          "internalType": "bytes32",
          "name": "",
          "type": "bytes32"
        }
      ],
      "stateMutability": "view",
      "type": "function"
    },
    {
      "inputs": [],
      "name": "PERMIT_TYPEHASH",
      "outputs": [
        {
          "internalType": "bytes32",
          "name": "",
          "type": "bytes32"
        }
      ],
      "stateMutability": "view",
      "type": "function"
    },
    {
      "inputs": [
        {
          "internalType": "address",
          "name": "owner",
          "type": "address"
        },
        {
          "internalType": "address",
          "name": "spender",
          "type": "address"
        }
      ],
      "name": "allowance",
      "outputs": [
        {
          "internalType": "uint256",
          "name": "",
          "type": "uint256"
        }
      ],
      "stateMutability": "view",
      "type": "function"
    },
    {
      "inputs": [
        {
          "internalType": "address",
          "name": "spender",
          "type": "address"
        },
        {
          "internalType": "uint256",
          "name": "amount",
          "type": "uint256"
        }
      ],
      "name": "approve",
      "outputs": [
        {
          "internalType": "bool",
          "name": "",
          "type": "bool"
        }
      ],
      "stateMutability": "nonpayable",
      "type": "function"
    },
    {
      "inputs": [
        {
          "internalType": "address",
          "name": "account",
          "type": "address"
        }
      ],
      "name": "balanceOf",
      "outputs": [
        {
          "internalType": "uint256",
          "name": "",
          "type": "uint256"
        }
      ],
      "stateMutability": "view",
      "type": "function"
    },
    {
      "inputs": [],
      "name": "decimals",
      "outputs": [
        {
          "internalType": "uint8",
          "name": "",
          "type": "uint8"
        }
      ],
      "stateMutability": "view",
      "type": "function"
    },
    {
      "inputs": [
        {
          "internalType": "address",
          "name": "spender",
          "type": "address"
        },
        {
          "internalType": "uint256",
          "name": "subtractedValue",
          "type": "uint256"
        }
      ],
      "name": "decreaseAllowance",
      "outputs": [
        {
          "internalType": "bool",
          "name": "",
          "type": "bool"
        }
      ],
      "stateMutability": "nonpayable",
      "type": "function"
    },
    {
      "inputs": [
        {
          "internalType": "address",
          "name": "spender",
          "type": "address"
        },
        {
          "internalType": "uint256",
          "name": "addedValue",
          "type": "uint256"
        }
      ],
      "name": "increaseAllowance",
      "outputs": [
        {
          "internalType": "bool",
          "name": "",
          "type": "bool"
        }
      ],
      "stateMutability": "nonpayable",
      "type": "function"
    },
    {
      "inputs": [],
      "name": "name",
      "outputs": [
        {
          "internalType": "string",
          "name": "",
          "type": "string"
        }
      ],
      "stateMutability": "view",
      "type": "function"
    },
    {
      "inputs": [
        {
          "internalType": "address",
          "name": "owner",
          "type": "address"
        }
      ],
      "name": "nonces",
      "outputs": [
        {
          "internalType": "uint256",
          "name": "",
          "type": "uint256"
        }
      ],
      "stateMutability": "view",
      "type": "function"
    },
    {
      "inputs": [],
      "name": "owner",
      "outputs": [
        {
          "internalType": "address",
          "name": "",
          "type": "address"
        }
      ],
      "stateMutability": "view",
      "type": "function"
    },
    {
      "inputs": [
        {
          "internalType": "address",
          "name": "owner",
          "type": "address"
        },
        {
          "internalType": "address",
          "name": "spender",
          "type": "address"
        },
        {
          "internalType": "uint256",
          "name": "amount",
          "type": "uint256"
        },
        {
          "internalType": "uint256",
          "name": "deadline",
          "type": "uint256"
        },
        {
          "internalType": "uint8",
          "name": "v",
          "type": "uint8"
        },
        {
          "internalType": "bytes32",
          "name": "r",
          "type": "bytes32"
        },
        {
          "internalType": "bytes32",
          "name": "s",
          "type": "bytes32"
        }
      ],
      "name": "permit",
      "outputs": [],
      "stateMutability": "nonpayable",
      "type": "function"
    },
    {
      "inputs": [],
      "name": "renounceOwnership",
      "outputs": [],
      "stateMutability": "nonpayable",
      "type": "function"
    },
    {
      "inputs": [
        {
          "internalType": "address",
          "name": "vault_",
          "type": "address"
        }
      ],
      "name": "setVault",
      "outputs": [
        {
          "internalType": "bool",
          "name": "",
          "type": "bool"
        }
      ],
      "stateMutability": "nonpayable",
      "type": "function"
    },
    {
      "inputs": [],
      "name": "symbol",
      "outputs": [
        {
          "internalType": "string",
          "name": "",
          "type": "string"
        }
      ],
      "stateMutability": "view",
      "type": "function"
    },
    {
      "inputs": [],
      "name": "totalSupply",
      "outputs": [
        {
          "internalType": "uint256",
          "name": "",
          "type": "uint256"
        }
      ],
      "stateMutability": "view",
      "type": "function"
    },
    {
      "inputs": [
        {
          "internalType": "address",
          "name": "recipient",
          "type": "address"
        },
        {
          "internalType": "uint256",
          "name": "amount",
          "type": "uint256"
        }
      ],
      "name": "transfer",
      "outputs": [
        {
          "internalType": "bool",
          "name": "",
          "type": "bool"
        }
      ],
      "stateMutability": "nonpayable",
      "type": "function"
    },
    {
      "inputs": [
        {
          "internalType": "address",
          "name": "sender",
          "type": "address"
        },
        {
          "internalType": "address",
          "name": "recipient",
          "type": "address"
        },
        {
          "internalType": "uint256",
          "name": "amount",
          "type": "uint256"
        }
      ],
      "name": "transferFrom",
      "outputs": [
        {
          "internalType": "bool",
          "name": "",
          "type": "bool"
        }
      ],
      "stateMutability": "nonpayable",
      "type": "function"
    },
    {
      "inputs": [
        {
          "internalType": "address",
          "name": "newOwner",
          "type": "address"
        }
      ],
      "name": "transferOwnership",
      "outputs": [],
      "stateMutability": "nonpayable",
      "type": "function"
    },
    {
      "inputs": [],
      "name": "vault",
      "outputs": [
        {
          "internalType": "address",
          "name": "",
          "type": "address"
        }
      ],
      "stateMutability": "view",
      "type": "function"
    },
    {
      "inputs": [
        {
          "internalType": "address",
          "name": "account_",
          "type": "address"
        },
        {
          "internalType": "uint256",
          "name": "amount_",
          "type": "uint256"
        }
      ],
      "name": "mint",
      "outputs": [],
      "stateMutability": "nonpayable",
      "type": "function"
    },
    {
      "inputs": [
        {
          "internalType": "uint256",
          "name": "amount",
          "type": "uint256"
        }
      ],
      "name": "burn",
      "outputs": [],
      "stateMutability": "nonpayable",
      "type": "function"
    },
    {
      "inputs": [
        {
          "internalType": "address",
          "name": "account_",
          "type": "address"
        },
        {
          "internalType": "uint256",
          "name": "amount_",
          "type": "uint256"
        }
      ],
      "name": "burnFrom",
      "outputs": [],
      "stateMutability": "nonpayable",
      "type": "function"
    },
    {
      "inputs": [
        {
          "internalType": "address",
          "name": "account_",
          "type": "address"
        },
        {
          "internalType": "uint256",
          "name": "amount_",
          "type": "uint256"
        }
      ],
      "name": "_burnFrom",
      "outputs": [],
      "stateMutability": "nonpayable",
      "type": "function"
    }
  ],
  "bytecode": "0x60806040523480156200001157600080fd5b506040518060400160405280600581526020017f41746865720000000000000000000000000000000000000000000000000000008152506040518060400160405280600581526020017f4154484552000000000000000000000000000000000000000000000000000000815250816003908051906020019062000096929190620002ef565b508060049080519060200190620000af929190620002ef565b50505060004690507f8b73c3c69bb8fe3d512ecc4cf759cc79239f7b179b0ffacaa9a75d522b39400f620000e86200018760201b60201c565b805190602001206040518060400160405280600181526020017f310000000000000000000000000000000000000000000000000000000000000081525080519060200120833060405160200162000144959493929190620003d2565b604051602081830303815290604052805190602001206006819055505062000181620001756200022160201b60201c565b6200022960201b60201c565b620004dc565b606060038054620001989062000477565b80601f0160208091040260200160405190810160405280929190818152602001828054620001c69062000477565b8015620002175780601f10620001eb5761010080835404028352916020019162000217565b820191906000526020600020905b815481529060010190602001808311620001f957829003601f168201915b5050505050905090565b600033905090565b6000600760009054906101000a900473ffffffffffffffffffffffffffffffffffffffff16905081600760006101000a81548173ffffffffffffffffffffffffffffffffffffffff021916908373ffffffffffffffffffffffffffffffffffffffff1602179055508173ffffffffffffffffffffffffffffffffffffffff168173ffffffffffffffffffffffffffffffffffffffff167f8be0079c531659141344cd1fd0a4f28419497f9722a3daafe3b4186f6b6457e060405160405180910390a35050565b828054620002fd9062000477565b90600052602060002090601f0160209004810192826200032157600085556200036d565b82601f106200033c57805160ff19168380011785556200036d565b828001600101855582156200036d579182015b828111156200036c5782518255916020019190600101906200034f565b5b5090506200037c919062000380565b5090565b5b808211156200039b57600081600090555060010162000381565b5090565b620003aa816200042f565b82525050565b620003bb8162000443565b82525050565b620003cc816200046d565b82525050565b600060a082019050620003e96000830188620003b0565b620003f86020830187620003b0565b620004076040830186620003b0565b620004166060830185620003c1565b6200042560808301846200039f565b9695505050505050565b60006200043c826200044d565b9050919050565b6000819050919050565b600073ffffffffffffffffffffffffffffffffffffffff82169050919050565b6000819050919050565b600060028204905060018216806200049057607f821691505b60208210811415620004a757620004a6620004ad565b5b50919050565b7f4e487b7100000000000000000000000000000000000000000000000000000000600052602260045260246000fd5b61275d80620004ec6000396000f3fe608060405234801561001057600080fd5b50600436106101585760003560e01c8063715018a6116100c3578063a457c2d71161007c578063a457c2d7146103c9578063a9059cbb146103f9578063d505accf14610429578063dd62ed3e14610445578063f2fde38b14610475578063fbfa77cf1461049157610158565b8063715018a61461031b57806379cc6790146103255780637ecebe00146103415780638da5cb5b1461037157806395d89b411461038f578063a22b35ce146103ad57610158565b80633644e515116101155780633644e51514610235578063395093511461025357806340c10f191461028357806342966c681461029f5780636817031b146102bb57806370a08231146102eb57610158565b806306fdde031461015d578063095ea7b31461017b57806318160ddd146101ab57806323b872dd146101c957806330adf81f146101f9578063313ce56714610217575b600080fd5b6101656104af565b604051610172919061225f565b60405180910390f35b61019560048036038101906101909190611a8c565b610541565b6040516101a29190612183565b60405180910390f35b6101b361055f565b6040516101c09190612461565b60405180910390f35b6101e360048036038101906101de919061199f565b610569565b6040516101f09190612183565b60405180910390f35b610201610661565b60405161020e919061219e565b60405180910390f35b61021f610688565b60405161022c919061247c565b60405180910390f35b61023d610691565b60405161024a919061219e565b60405180910390f35b61026d60048036038101906102689190611a8c565b610697565b60405161027a9190612183565b60405180910390f35b61029d60048036038101906102989190611a8c565b610743565b005b6102b960048036038101906102b49190611ac8565b6107e1565b005b6102d560048036038101906102d0919061193a565b6107ee565b6040516102e29190612183565b60405180910390f35b6103056004803603810190610300919061193a565b6108b6565b6040516103129190612461565b60405180910390f35b6103236108fe565b005b61033f600480360381019061033a9190611a8c565b610986565b005b61035b6004803603810190610356919061193a565b610994565b6040516103689190612461565b60405180910390f35b6103796109e4565b6040516103869190612168565b60405180910390f35b610397610a0e565b6040516103a4919061225f565b60405180910390f35b6103c760048036038101906103c29190611a8c565b610aa0565b005b6103e360048036038101906103de9190611a8c565b610af4565b6040516103f09190612183565b60405180910390f35b610413600480360381019061040e9190611a8c565b610bdf565b6040516104209190612183565b60405180910390f35b610443600480360381019061043e91906119ee565b610bfd565b005b61045f600480360381019061045a9190611963565b610e69565b60405161046c9190612461565b60405180910390f35b61048f600480360381019061048a919061193a565b610ef0565b005b610499610fe8565b6040516104a69190612168565b60405180910390f35b6060600380546104be906125dd565b80601f01602080910402602001604051908101604052809291908181526020018280546104ea906125dd565b80156105375780601f1061050c57610100808354040283529160200191610537565b820191906000526020600020905b81548152906001019060200180831161051a57829003601f168201915b5050505050905090565b600061055561054e611012565b848461101a565b6001905092915050565b6000600254905090565b60006105768484846111e5565b6000600160008673ffffffffffffffffffffffffffffffffffffffff1673ffffffffffffffffffffffffffffffffffffffff16815260200190815260200160002060006105c1611012565b73ffffffffffffffffffffffffffffffffffffffff1673ffffffffffffffffffffffffffffffffffffffff16815260200190815260200160002054905082811015610641576040517f08c379a000000000000000000000000000000000000000000000000000000000815260040161063890612361565b60405180910390fd5b6106558561064d611012565b85840361101a565b60019150509392505050565b7f6e71edae12b1b97f4d1f60370fef10105fa2faae0126114a169c64845d6126c960001b81565b60006012905090565b60065481565b60006107396106a4611012565b8484600160006106b2611012565b73ffffffffffffffffffffffffffffffffffffffff1673ffffffffffffffffffffffffffffffffffffffff16815260200190815260200160002060008873ffffffffffffffffffffffffffffffffffffffff1673ffffffffffffffffffffffffffffffffffffffff1681526020019081526020016000205461073491906124b3565b61101a565b6001905092915050565b3373ffffffffffffffffffffffffffffffffffffffff16600860009054906101000a900473ffffffffffffffffffffffffffffffffffffffff1673ffffffffffffffffffffffffffffffffffffffff16146107d3576040517f08c379a00000000000000000000000000000000000000000000000000000000081526004016107ca90612381565b60405180910390fd5b6107dd8282611466565b5050565b6107eb33826115c6565b50565b60006107f8611012565b73ffffffffffffffffffffffffffffffffffffffff166108166109e4565b73ffffffffffffffffffffffffffffffffffffffff161461086c576040517f08c379a0000000000000000000000000000000000000000000000000000000008152600401610863906123a1565b60405180910390fd5b81600860006101000a81548173ffffffffffffffffffffffffffffffffffffffff021916908373ffffffffffffffffffffffffffffffffffffffff16021790555060019050919050565b60008060008373ffffffffffffffffffffffffffffffffffffffff1673ffffffffffffffffffffffffffffffffffffffff168152602001908152602001600020549050919050565b610906611012565b73ffffffffffffffffffffffffffffffffffffffff166109246109e4565b73ffffffffffffffffffffffffffffffffffffffff161461097a576040517f08c379a0000000000000000000000000000000000000000000000000000000008152600401610971906123a1565b60405180910390fd5b610984600061179d565b565b6109908282610aa0565b5050565b60006109dd600560008473ffffffffffffffffffffffffffffffffffffffff1673ffffffffffffffffffffffffffffffffffffffff168152602001908152602001600020611863565b9050919050565b6000600760009054906101000a900473ffffffffffffffffffffffffffffffffffffffff16905090565b606060048054610a1d906125dd565b80601f0160208091040260200160405190810160405280929190818152602001828054610a49906125dd565b8015610a965780601f10610a6b57610100808354040283529160200191610a96565b820191906000526020600020905b815481529060010190602001808311610a7957829003601f168201915b5050505050905090565b6000610ad88260405180606001604052806024815260200161270460249139610ac98633610e69565b6118719092919063ffffffff16565b9050610ae583338361101a565b610aef83836115c6565b505050565b60008060016000610b03611012565b73ffffffffffffffffffffffffffffffffffffffff1673ffffffffffffffffffffffffffffffffffffffff16815260200190815260200160002060008573ffffffffffffffffffffffffffffffffffffffff1673ffffffffffffffffffffffffffffffffffffffff16815260200190815260200160002054905082811015610bc0576040517f08c379a0000000000000000000000000000000000000000000000000000000008152600401610bb790612421565b60405180910390fd5b610bd4610bcb611012565b8585840361101a565b600191505092915050565b6000610bf3610bec611012565b84846111e5565b6001905092915050565b83421115610c40576040517f08c379a0000000000000000000000000000000000000000000000000000000008152600401610c3790612301565b60405180910390fd5b60007f6e71edae12b1b97f4d1f60370fef10105fa2faae0126114a169c64845d6126c960001b888888610cb0600560008e73ffffffffffffffffffffffffffffffffffffffff1673ffffffffffffffffffffffffffffffffffffffff168152602001908152602001600020611863565b89604051602001610cc6969594939291906121b9565b604051602081830303815290604052805190602001209050600061190160065483604051602001610cf99392919061212b565b604051602081830303815290604052805190602001209050600060018287878760405160008152602001604052604051610d36949392919061221a565b6020604051602081039080840390855afa158015610d58573d6000803e3d6000fd5b505050602060405103519050600073ffffffffffffffffffffffffffffffffffffffff168173ffffffffffffffffffffffffffffffffffffffff1614158015610dcc57508973ffffffffffffffffffffffffffffffffffffffff168173ffffffffffffffffffffffffffffffffffffffff16145b610e0b576040517f08c379a0000000000000000000000000000000000000000000000000000000008152600401610e0290612341565b60405180910390fd5b610e52600560008c73ffffffffffffffffffffffffffffffffffffffff1673ffffffffffffffffffffffffffffffffffffffff1681526020019081526020016000206118c6565b610e5d8a8a8a61101a565b50505050505050505050565b6000600160008473ffffffffffffffffffffffffffffffffffffffff1673ffffffffffffffffffffffffffffffffffffffff16815260200190815260200160002060008373ffffffffffffffffffffffffffffffffffffffff1673ffffffffffffffffffffffffffffffffffffffff16815260200190815260200160002054905092915050565b610ef8611012565b73ffffffffffffffffffffffffffffffffffffffff16610f166109e4565b73ffffffffffffffffffffffffffffffffffffffff1614610f6c576040517f08c379a0000000000000000000000000000000000000000000000000000000008152600401610f63906123a1565b60405180910390fd5b600073ffffffffffffffffffffffffffffffffffffffff168173ffffffffffffffffffffffffffffffffffffffff161415610fdc576040517f08c379a0000000000000000000000000000000000000000000000000000000008152600401610fd3906122c1565b60405180910390fd5b610fe58161179d565b50565b6000600860009054906101000a900473ffffffffffffffffffffffffffffffffffffffff16905090565b600033905090565b600073ffffffffffffffffffffffffffffffffffffffff168373ffffffffffffffffffffffffffffffffffffffff16141561108a576040517f08c379a000000000000000000000000000000000000000000000000000000000815260040161108190612401565b60405180910390fd5b600073ffffffffffffffffffffffffffffffffffffffff168273ffffffffffffffffffffffffffffffffffffffff1614156110fa576040517f08c379a00000000000000000000000000000000000000000000000000000000081526004016110f1906122e1565b60405180910390fd5b80600160008573ffffffffffffffffffffffffffffffffffffffff1673ffffffffffffffffffffffffffffffffffffffff16815260200190815260200160002060008473ffffffffffffffffffffffffffffffffffffffff1673ffffffffffffffffffffffffffffffffffffffff168152602001908152602001600020819055508173ffffffffffffffffffffffffffffffffffffffff168373ffffffffffffffffffffffffffffffffffffffff167f8c5be1e5ebec7d5bd14f71427d1e84f3dd0314c0f7b2291e5b200ac8c7c3b925836040516111d89190612461565b60405180910390a3505050565b600073ffffffffffffffffffffffffffffffffffffffff168373ffffffffffffffffffffffffffffffffffffffff161415611255576040517f08c379a000000000000000000000000000000000000000000000000000000000815260040161124c906123e1565b60405180910390fd5b600073ffffffffffffffffffffffffffffffffffffffff168273ffffffffffffffffffffffffffffffffffffffff1614156112c5576040517f08c379a00000000000000000000000000000000000000000000000000000000081526004016112bc90612281565b60405180910390fd5b6112d08383836118dc565b60008060008573ffffffffffffffffffffffffffffffffffffffff1673ffffffffffffffffffffffffffffffffffffffff16815260200190815260200160002054905081811015611356576040517f08c379a000000000000000000000000000000000000000000000000000000000815260040161134d90612321565b60405180910390fd5b8181036000808673ffffffffffffffffffffffffffffffffffffffff1673ffffffffffffffffffffffffffffffffffffffff16815260200190815260200160002081905550816000808573ffffffffffffffffffffffffffffffffffffffff1673ffffffffffffffffffffffffffffffffffffffff16815260200190815260200160002060008282546113e991906124b3565b925050819055508273ffffffffffffffffffffffffffffffffffffffff168473ffffffffffffffffffffffffffffffffffffffff167fddf252ad1be2c89b69c2b068fc378daa952ba7f163c4a11628f55a4df523b3ef8460405161144d9190612461565b60405180910390a36114608484846118e1565b50505050565b600073ffffffffffffffffffffffffffffffffffffffff168273ffffffffffffffffffffffffffffffffffffffff1614156114d6576040517f08c379a00000000000000000000000000000000000000000000000000000000081526004016114cd90612441565b60405180910390fd5b6114e2600083836118dc565b80600260008282546114f491906124b3565b92505081905550806000808473ffffffffffffffffffffffffffffffffffffffff1673ffffffffffffffffffffffffffffffffffffffff168152602001908152602001600020600082825461154991906124b3565b925050819055508173ffffffffffffffffffffffffffffffffffffffff16600073ffffffffffffffffffffffffffffffffffffffff167fddf252ad1be2c89b69c2b068fc378daa952ba7f163c4a11628f55a4df523b3ef836040516115ae9190612461565b60405180910390a36115c2600083836118e1565b5050565b600073ffffffffffffffffffffffffffffffffffffffff168273ffffffffffffffffffffffffffffffffffffffff161415611636576040517f08c379a000000000000000000000000000000000000000000000000000000000815260040161162d906123c1565b60405180910390fd5b611642826000836118dc565b60008060008473ffffffffffffffffffffffffffffffffffffffff1673ffffffffffffffffffffffffffffffffffffffff168152602001908152602001600020549050818110156116c8576040517f08c379a00000000000000000000000000000000000000000000000000000000081526004016116bf906122a1565b60405180910390fd5b8181036000808573ffffffffffffffffffffffffffffffffffffffff1673ffffffffffffffffffffffffffffffffffffffff16815260200190815260200160002081905550816002600082825461171f9190612509565b92505081905550600073ffffffffffffffffffffffffffffffffffffffff168373ffffffffffffffffffffffffffffffffffffffff167fddf252ad1be2c89b69c2b068fc378daa952ba7f163c4a11628f55a4df523b3ef846040516117849190612461565b60405180910390a3611798836000846118e1565b505050565b6000600760009054906101000a900473ffffffffffffffffffffffffffffffffffffffff16905081600760006101000a81548173ffffffffffffffffffffffffffffffffffffffff021916908373ffffffffffffffffffffffffffffffffffffffff1602179055508173ffffffffffffffffffffffffffffffffffffffff168173ffffffffffffffffffffffffffffffffffffffff167f8be0079c531659141344cd1fd0a4f28419497f9722a3daafe3b4186f6b6457e060405160405180910390a35050565b600081600001549050919050565b60008383111582906118b9576040517f08c379a00000000000000000000000000000000000000000000000000000000081526004016118b0919061225f565b60405180910390fd5b5082840390509392505050565b6001816000016000828254019250508190555050565b505050565b505050565b6000813590506118f5816126a7565b92915050565b60008135905061190a816126be565b92915050565b60008135905061191f816126d5565b92915050565b600081359050611934816126ec565b92915050565b60006020828403121561194c57600080fd5b600061195a848285016118e6565b91505092915050565b6000806040838503121561197657600080fd5b6000611984858286016118e6565b9250506020611995858286016118e6565b9150509250929050565b6000806000606084860312156119b457600080fd5b60006119c2868287016118e6565b93505060206119d3868287016118e6565b92505060406119e486828701611910565b9150509250925092565b600080600080600080600060e0888a031215611a0957600080fd5b6000611a178a828b016118e6565b9750506020611a288a828b016118e6565b9650506040611a398a828b01611910565b9550506060611a4a8a828b01611910565b9450506080611a5b8a828b01611925565b93505060a0611a6c8a828b016118fb565b92505060c0611a7d8a828b016118fb565b91505092959891949750929550565b60008060408385031215611a9f57600080fd5b6000611aad858286016118e6565b9250506020611abe85828601611910565b9150509250929050565b600060208284031215611ada57600080fd5b6000611ae884828501611910565b91505092915050565b611afa8161253d565b82525050565b611b098161254f565b82525050565b611b188161255b565b82525050565b611b2f611b2a8261255b565b61260f565b82525050565b6000611b4082612497565b611b4a81856124a2565b9350611b5a8185602086016125aa565b611b6381612689565b840191505092915050565b6000611b7b6023836124a2565b91507f45524332303a207472616e7366657220746f20746865207a65726f206164647260008301527f65737300000000000000000000000000000000000000000000000000000000006020830152604082019050919050565b6000611be16022836124a2565b91507f45524332303a206275726e20616d6f756e7420657863656564732062616c616e60008301527f63650000000000000000000000000000000000000000000000000000000000006020830152604082019050919050565b6000611c476026836124a2565b91507f4f776e61626c653a206e6577206f776e657220697320746865207a65726f206160008301527f64647265737300000000000000000000000000000000000000000000000000006020830152604082019050919050565b6000611cad6022836124a2565b91507f45524332303a20617070726f766520746f20746865207a65726f20616464726560008301527f73730000000000000000000000000000000000000000000000000000000000006020830152604082019050919050565b6000611d136018836124a2565b91507f5065726d69743a206578706972656420646561646c696e6500000000000000006000830152602082019050919050565b6000611d536026836124a2565b91507f45524332303a207472616e7366657220616d6f756e742065786365656473206260008301527f616c616e636500000000000000000000000000000000000000000000000000006020830152604082019050919050565b6000611db96021836124a2565b91507f5a65726f537761705065726d69743a20496e76616c6964207369676e6174757260008301527f65000000000000000000000000000000000000000000000000000000000000006020830152604082019050919050565b6000611e1f6028836124a2565b91507f45524332303a207472616e7366657220616d6f756e742065786365656473206160008301527f6c6c6f77616e63650000000000000000000000000000000000000000000000006020830152604082019050919050565b6000611e856023836124a2565b91507f5661756c744f776e65643a2063616c6c6572206973206e6f742074686520566160008301527f756c7400000000000000000000000000000000000000000000000000000000006020830152604082019050919050565b6000611eeb6020836124a2565b91507f4f776e61626c653a2063616c6c6572206973206e6f7420746865206f776e65726000830152602082019050919050565b6000611f2b6021836124a2565b91507f45524332303a206275726e2066726f6d20746865207a65726f2061646472657360008301527f73000000000000000000000000000000000000000000000000000000000000006020830152604082019050919050565b6000611f916025836124a2565b91507f45524332303a207472616e736665722066726f6d20746865207a65726f20616460008301527f64726573730000000000000000000000000000000000000000000000000000006020830152604082019050919050565b6000611ff76024836124a2565b91507f45524332303a20617070726f76652066726f6d20746865207a65726f2061646460008301527f72657373000000000000000000000000000000000000000000000000000000006020830152604082019050919050565b600061205d6025836124a2565b91507f45524332303a2064656372656173656420616c6c6f77616e63652062656c6f7760008301527f207a65726f0000000000000000000000000000000000000000000000000000006020830152604082019050919050565b60006120c3601f836124a2565b91507f45524332303a206d696e7420746f20746865207a65726f2061646472657373006000830152602082019050919050565b61210761210282612565565b612619565b82525050565b61211681612593565b82525050565b6121258161259d565b82525050565b600061213782866120f6565b6002820191506121478285611b1e565b6020820191506121578284611b1e565b602082019150819050949350505050565b600060208201905061217d6000830184611af1565b92915050565b60006020820190506121986000830184611b00565b92915050565b60006020820190506121b36000830184611b0f565b92915050565b600060c0820190506121ce6000830189611b0f565b6121db6020830188611af1565b6121e86040830187611af1565b6121f5606083018661210d565b612202608083018561210d565b61220f60a083018461210d565b979650505050505050565b600060808201905061222f6000830187611b0f565b61223c602083018661211c565b6122496040830185611b0f565b6122566060830184611b0f565b95945050505050565b600060208201905081810360008301526122798184611b35565b905092915050565b6000602082019050818103600083015261229a81611b6e565b9050919050565b600060208201905081810360008301526122ba81611bd4565b9050919050565b600060208201905081810360008301526122da81611c3a565b9050919050565b600060208201905081810360008301526122fa81611ca0565b9050919050565b6000602082019050818103600083015261231a81611d06565b9050919050565b6000602082019050818103600083015261233a81611d46565b9050919050565b6000602082019050818103600083015261235a81611dac565b9050919050565b6000602082019050818103600083015261237a81611e12565b9050919050565b6000602082019050818103600083015261239a81611e78565b9050919050565b600060208201905081810360008301526123ba81611ede565b9050919050565b600060208201905081810360008301526123da81611f1e565b9050919050565b600060208201905081810360008301526123fa81611f84565b9050919050565b6000602082019050818103600083015261241a81611fea565b9050919050565b6000602082019050818103600083015261243a81612050565b9050919050565b6000602082019050818103600083015261245a816120b6565b9050919050565b6000602082019050612476600083018461210d565b92915050565b6000602082019050612491600083018461211c565b92915050565b600081519050919050565b600082825260208201905092915050565b60006124be82612593565b91506124c983612593565b9250827fffffffffffffffffffffffffffffffffffffffffffffffffffffffffffffffff038211156124fe576124fd61262b565b5b828201905092915050565b600061251482612593565b915061251f83612593565b9250828210156125325761253161262b565b5b828203905092915050565b600061254882612573565b9050919050565b60008115159050919050565b6000819050919050565b600061ffff82169050919050565b600073ffffffffffffffffffffffffffffffffffffffff82169050919050565b6000819050919050565b600060ff82169050919050565b60005b838110156125c85780820151818401526020810190506125ad565b838111156125d7576000848401525b50505050565b600060028204905060018216806125f557607f821691505b602082108114156126095761260861265a565b5b50919050565b6000819050919050565b60006126248261269a565b9050919050565b7f4e487b7100000000000000000000000000000000000000000000000000000000600052601160045260246000fd5b7f4e487b7100000000000000000000000000000000000000000000000000000000600052602260045260246000fd5b6000601f19601f8301169050919050565b60008160f01b9050919050565b6126b08161253d565b81146126bb57600080fd5b50565b6126c78161255b565b81146126d257600080fd5b50565b6126de81612593565b81146126e957600080fd5b50565b6126f58161259d565b811461270057600080fd5b5056fe45524332303a206275726e20616d6f756e74206578636565647320616c6c6f77616e6365a2646970667358221220cb5f55e21509cb9676944cbb55c2da80ddb276149c1e14e99a237d3e04a08f2b64736f6c63430008000033",
  "immutableReferences": {},
  "source": "// SPDX-License-Identifier: AGPL-3.0-or-later\npragma solidity 0.8.0;\n\nimport \"@openzeppelin/contracts/utils/math/SafeMath.sol\";\nimport \"@openzeppelin/contracts/access/Ownable.sol\";\nimport \"./util/ERC20Permit.sol\";\nimport \"./util/VaultOwned.sol\";\n\n// TODO-hightlight :: main logic\n\ncontract AthertonERC20Token is ERC20Permit, VaultOwned {\n\n    using SafeMath for uint256;\n\n    constructor() ERC20(\"Ather\", \"ATHER\") {\n\n    }\n\n    function mint(address account_, uint256 amount_) external onlyVault() {\n        _mint(account_, amount_);\n    }\n\n    function burn(uint256 amount) public virtual {\n        _burn(msg.sender, amount);\n    }\n     \n    function burnFrom(address account_, uint256 amount_) public virtual {\n        _burnFrom(account_, amount_);\n    }\n\n    function _burnFrom(address account_, uint256 amount_) public virtual {\n        uint256 decreasedAllowance_ =\n            allowance(account_, msg.sender).sub(\n                amount_,\n                \"ERC20: burn amount exceeds allowance\"\n            );\n\n        _approve(account_, msg.sender, decreasedAllowance_);\n        _burn(account_, amount_);\n    }\n}",
  "sourcePath": "/var/www/atherton/evm/contracts/AthertonERC20.sol",
  "compiler": {
    "name": "solc",
    "version": "0.8.0+commit.c7dfd78e.Emscripten.clang"
  },
  "schemaVersion": "3.4.3",
  "updatedAt": "2021-12-04T00:51:05.612Z",
  "devdoc": {
    "kind": "dev",
    "methods": {
      "allowance(address,address)": {
        "details": "See {IERC20-allowance}."
      },
      "approve(address,uint256)": {
        "details": "See {IERC20-approve}. Requirements: - `spender` cannot be the zero address."
      },
      "balanceOf(address)": {
        "details": "See {IERC20-balanceOf}."
      },
      "decimals()": {
        "details": "Returns the number of decimals used to get its user representation. For example, if `decimals` equals `2`, a balance of `505` tokens should be displayed to a user as `5.05` (`505 / 10 ** 2`). Tokens usually opt for a value of 18, imitating the relationship between Ether and Wei. This is the value {ERC20} uses, unless this function is overridden; NOTE: This information is only used for _display_ purposes: it in no way affects any of the arithmetic of the contract, including {IERC20-balanceOf} and {IERC20-transfer}."
      },
      "decreaseAllowance(address,uint256)": {
        "details": "Atomically decreases the allowance granted to `spender` by the caller. This is an alternative to {approve} that can be used as a mitigation for problems described in {IERC20-approve}. Emits an {Approval} event indicating the updated allowance. Requirements: - `spender` cannot be the zero address. - `spender` must have allowance for the caller of at least `subtractedValue`."
      },
      "increaseAllowance(address,uint256)": {
        "details": "Atomically increases the allowance granted to `spender` by the caller. This is an alternative to {approve} that can be used as a mitigation for problems described in {IERC20-approve}. Emits an {Approval} event indicating the updated allowance. Requirements: - `spender` cannot be the zero address."
      },
      "name()": {
        "details": "Returns the name of the token."
      },
      "owner()": {
        "details": "Returns the address of the current owner."
      },
      "renounceOwnership()": {
        "details": "Leaves the contract without owner. It will not be possible to call `onlyOwner` functions anymore. Can only be called by the current owner. NOTE: Renouncing ownership will leave the contract without an owner, thereby removing any functionality that is only available to the owner."
      },
      "symbol()": {
        "details": "Returns the symbol of the token, usually a shorter version of the name."
      },
      "totalSupply()": {
        "details": "See {IERC20-totalSupply}."
      },
      "transfer(address,uint256)": {
        "details": "See {IERC20-transfer}. Requirements: - `recipient` cannot be the zero address. - the caller must have a balance of at least `amount`."
      },
      "transferFrom(address,address,uint256)": {
        "details": "See {IERC20-transferFrom}. Emits an {Approval} event indicating the updated allowance. This is not required by the EIP. See the note at the beginning of {ERC20}. Requirements: - `sender` and `recipient` cannot be the zero address. - `sender` must have a balance of at least `amount`. - the caller must have allowance for ``sender``'s tokens of at least `amount`."
      },
      "transferOwnership(address)": {
        "details": "Transfers ownership of the contract to a new account (`newOwner`). Can only be called by the current owner."
      }
    },
    "version": 1
  },
  "userdoc": {
    "kind": "user",
    "methods": {},
    "version": 1
  }
}