{
  "contractName": "AthertonBondCalculator",
  "abi": [
    {
      "inputs": [
        {
          "internalType": "address",
          "name": "_ATHER",
          "type": "address"
        }
      ],
      "stateMutability": "nonpayable",
      "type": "constructor"
    },
    {
      "inputs": [],
      "name": "ATHER",
      "outputs": [
        {
          "internalType": "address",
          "name": "",
          "type": "address"
        }
      ],
      "stateMutability": "view",
      "type": "function"
    },
    {
      "inputs": [
        {
          "internalType": "address",
          "name": "_pair",
          "type": "address"
        }
      ],
      "name": "getKValue",
      "outputs": [
        {
          "internalType": "uint256",
          "name": "k_",
          "type": "uint256"
        }
      ],
      "stateMutability": "view",
      "type": "function"
    },
    {
      "inputs": [
        {
          "internalType": "address",
          "name": "_pair",
          "type": "address"
        }
      ],
      "name": "getTotalValue",
      "outputs": [
        {
          "internalType": "uint256",
          "name": "_value",
          "type": "uint256"
        }
      ],
      "stateMutability": "view",
      "type": "function"
    },
    {
      "inputs": [
        {
          "internalType": "address",
          "name": "_pair",
          "type": "address"
        },
        {
          "internalType": "uint256",
          "name": "amount_",
          "type": "uint256"
        }
      ],
      "name": "valuation",
      "outputs": [
        {
          "internalType": "uint256",
          "name": "_value",
          "type": "uint256"
        }
      ],
      "stateMutability": "view",
      "type": "function"
    },
    {
      "inputs": [
        {
          "internalType": "address",
          "name": "_pair",
          "type": "address"
        }
      ],
      "name": "markdown",
      "outputs": [
        {
          "internalType": "uint256",
          "name": "",
          "type": "uint256"
        }
      ],
      "stateMutability": "view",
      "type": "function"
    },
    {
      "inputs": [
        {
          "internalType": "uint256",
          "name": "a",
          "type": "uint256"
        }
      ],
      "name": "sqrrt",
      "outputs": [
        {
          "internalType": "uint256",
          "name": "c",
          "type": "uint256"
        }
      ],
      "stateMutability": "pure",
      "type": "function"
    }
  ],
  "bytecode": "0x60a06040523480156200001157600080fd5b50604051620018d9380380620018d98339818101604052810190620000379190620000c7565b600073ffffffffffffffffffffffffffffffffffffffff168173ffffffffffffffffffffffffffffffffffffffff1614156200007257600080fd5b8073ffffffffffffffffffffffffffffffffffffffff1660808173ffffffffffffffffffffffffffffffffffffffff1660601b815250505062000141565b600081519050620000c18162000127565b92915050565b600060208284031215620000da57600080fd5b6000620000ea84828501620000b0565b91505092915050565b6000620001008262000107565b9050919050565b600073ffffffffffffffffffffffffffffffffffffffff82169050919050565b6200013281620000f3565b81146200013e57600080fd5b50565b60805160601c61176b6200016e600039600081816102210152818161030d0152610853015261176b6000f3fe608060405234801561001057600080fd5b50600436106100625760003560e01c806332da80a3146100675780634249719f14610097578063490084ef146100c75780634e3d8853146100f75780636863754914610115578063e1d2220f14610145575b600080fd5b610081600480360381019061007c9190611010565b610175565b60405161008e91906112e7565b60405180910390f35b6100b160048036038101906100ac9190611062565b6103e8565b6040516100be91906112e7565b60405180910390f35b6100e160048036038101906100dc9190611010565b6104c0565b6040516100ee91906112e7565b60405180910390f35b6100ff610851565b60405161010c919061126c565b60405180910390f35b61012f600480360381019061012a9190611010565b610875565b60405161013c91906112e7565b60405180910390f35b61015f600480360381019061015a91906110ed565b6108a2565b60405161016c91906112e7565b60405180910390f35b60008060008373ffffffffffffffffffffffffffffffffffffffff16630902f1ac6040518163ffffffff1660e01b815260040160606040518083038186803b1580156101c057600080fd5b505afa1580156101d4573d6000803e3d6000fd5b505050506040513d601f19601f820116820180604052508101906101f8919061109e565b506dffffffffffffffffffffffffffff1691506dffffffffffffffffffffffffffff16915060007f000000000000000000000000000000000000000000000000000000000000000073ffffffffffffffffffffffffffffffffffffffff168573ffffffffffffffffffffffffffffffffffffffff16630dfe16816040518163ffffffff1660e01b815260040160206040518083038186803b15801561029c57600080fd5b505afa1580156102b0573d6000803e3d6000fd5b505050506040513d601f19601f820116820180604052508101906102d49190611039565b73ffffffffffffffffffffffffffffffffffffffff1614156102f8578190506102fc565b8290505b6103de61030886610875565b6103d07f000000000000000000000000000000000000000000000000000000000000000073ffffffffffffffffffffffffffffffffffffffff1663313ce5676040518163ffffffff1660e01b815260040160206040518083038186803b15801561037157600080fd5b505afa158015610385573d6000803e3d6000fd5b505050506040513d601f19601f820116820180604052508101906103a9919061113f565b600a6103b59190611438565b60026103c19190611556565b8461093f90919063ffffffff16565b61095590919063ffffffff16565b9350505050919050565b6000806103f484610875565b905060008473ffffffffffffffffffffffffffffffffffffffff166318160ddd6040518163ffffffff1660e01b815260040160206040518083038186803b15801561043e57600080fd5b505afa158015610452573d6000803e3d6000fd5b505050506040513d601f19601f820116820180604052508101906104769190611116565b90506104b6670de0b6b3a76400006104a8610499610494888661096b565b610b72565b8561093f90919063ffffffff16565b61095590919063ffffffff16565b9250505092915050565b6000808273ffffffffffffffffffffffffffffffffffffffff16630dfe16816040518163ffffffff1660e01b815260040160206040518083038186803b15801561050957600080fd5b505afa15801561051d573d6000803e3d6000fd5b505050506040513d601f19601f820116820180604052508101906105419190611039565b73ffffffffffffffffffffffffffffffffffffffff1663313ce5676040518163ffffffff1660e01b815260040160206040518083038186803b15801561058657600080fd5b505afa15801561059a573d6000803e3d6000fd5b505050506040513d601f19601f820116820180604052508101906105be919061113f565b60ff16905060008373ffffffffffffffffffffffffffffffffffffffff1663d21220a76040518163ffffffff1660e01b815260040160206040518083038186803b15801561060b57600080fd5b505afa15801561061f573d6000803e3d6000fd5b505050506040513d601f19601f820116820180604052508101906106439190611039565b73ffffffffffffffffffffffffffffffffffffffff1663313ce5676040518163ffffffff1660e01b815260040160206040518083038186803b15801561068857600080fd5b505afa15801561069c573d6000803e3d6000fd5b505050506040513d601f19601f820116820180604052508101906106c0919061113f565b60ff169050600061076c8573ffffffffffffffffffffffffffffffffffffffff1663313ce5676040518163ffffffff1660e01b815260040160206040518083038186803b15801561071057600080fd5b505afa158015610724573d6000803e3d6000fd5b505050506040513d601f19601f82011682018060405250810190610748919061113f565b60ff1661075e8486610bb090919063ffffffff16565b610bc690919063ffffffff16565b90506000808673ffffffffffffffffffffffffffffffffffffffff16630902f1ac6040518163ffffffff1660e01b815260040160606040518083038186803b1580156107b757600080fd5b505afa1580156107cb573d6000803e3d6000fd5b505050506040513d601f19601f820116820180604052508101906107ef919061109e565b506dffffffffffffffffffffffffffff1691506dffffffffffffffffffffffffffff16915061084583600a61082491906113ed565b610837838561093f90919063ffffffff16565b61095590919063ffffffff16565b95505050505050919050565b7f000000000000000000000000000000000000000000000000000000000000000081565b600061089b600261088d610888856104c0565b6108a2565b61093f90919063ffffffff16565b9050919050565b6000600382111561092c5781905060006108d960016108cb60028661095590919063ffffffff16565b610bb090919063ffffffff16565b90505b818110156109265780915061091f600261091183610903858861095590919063ffffffff16565b610bb090919063ffffffff16565b61095590919063ffffffff16565b90506108dc565b5061093a565b6000821461093957600190505b5b919050565b6000818361094d9190611556565b905092915050565b600081836109639190611369565b905092915050565b610973610f4c565b600082116109b6576040517f08c379a00000000000000000000000000000000000000000000000000000000081526004016109ad90611287565b60405180910390fd5b60008314156109f457604051806020016040528060007bffffffffffffffffffffffffffffffffffffffffffffffffffffffff168152509050610b6c565b71ffffffffffffffffffffffffffffffffffff80168311610abc57600082607060ff1685901b610a249190611369565b90507bffffffffffffffffffffffffffffffffffffffffffffffffffffffff8016811115610a87576040517f08c379a0000000000000000000000000000000000000000000000000000000008152600401610a7e906112c7565b60405180910390fd5b6040518060200160405280827bffffffffffffffffffffffffffffffffffffffffffffffffffffffff16815250915050610b6c565b6000610ad8846e01000000000000000000000000000085610bdc565b90507bffffffffffffffffffffffffffffffffffffffffffffffffffffffff8016811115610b3b576040517f08c379a0000000000000000000000000000000000000000000000000000000008152600401610b32906112c7565b60405180910390fd5b6040518060200160405280827bffffffffffffffffffffffffffffffffffffffffffffffffffffffff168152509150505b92915050565b60006612725dd1d243ab82600001517bffffffffffffffffffffffffffffffffffffffffffffffffffffffff16610ba99190611369565b9050919050565b60008183610bbe9190611313565b905092915050565b60008183610bd491906115b0565b905092915050565b6000806000610beb8686610caa565b9150915060008480610c26577f4e487b7100000000000000000000000000000000000000000000000000000000600052601260045260246000fd5b868809905082811115610c4357600182610c4091906115b0565b91505b8083610c4f91906115b0565b9250848210610c93576040517f08c379a0000000000000000000000000000000000000000000000000000000008152600401610c8a906112a7565b60405180910390fd5b610c9e838387610d45565b93505050509392505050565b60008060007fffffffffffffffffffffffffffffffffffffffffffffffffffffffffffffffff80610d04577f4e487b7100000000000000000000000000000000000000000000000000000000600052601260045260246000fd5b84860990508385610d159190611556565b92508281610d2391906115b0565b915082811015610d3d57600182610d3a91906115b0565b91505b509250929050565b6000806001837fffffffffffffffffffffffffffffffffffffffffffffffffffffffffffffffff610d7691906115b0565b610d809190611313565b831690508083610d909190611369565b92508085610d9e9190611369565b94506001816001837fffffffffffffffffffffffffffffffffffffffffffffffffffffffffffffffff610dd191906115b0565b610ddb9190611313565b610de59190611369565b610def9190611313565b84610dfa9190611556565b85610e059190611313565b94506000600190508084610e199190611556565b6002610e2591906115b0565b81610e309190611556565b90508084610e3e9190611556565b6002610e4a91906115b0565b81610e559190611556565b90508084610e639190611556565b6002610e6f91906115b0565b81610e7a9190611556565b90508084610e889190611556565b6002610e9491906115b0565b81610e9f9190611556565b90508084610ead9190611556565b6002610eb991906115b0565b81610ec49190611556565b90508084610ed29190611556565b6002610ede91906115b0565b81610ee99190611556565b90508084610ef79190611556565b6002610f0391906115b0565b81610f0e9190611556565b90508084610f1c9190611556565b6002610f2891906115b0565b81610f339190611556565b90508086610f419190611556565b925050509392505050565b604051806020016040528060007bffffffffffffffffffffffffffffffffffffffffffffffffffffffff1681525090565b600081359050610f8c816116c2565b92915050565b600081519050610fa1816116c2565b92915050565b600081519050610fb6816116d9565b92915050565b600081359050610fcb816116f0565b92915050565b600081519050610fe0816116f0565b92915050565b600081519050610ff581611707565b92915050565b60008151905061100a8161171e565b92915050565b60006020828403121561102257600080fd5b600061103084828501610f7d565b91505092915050565b60006020828403121561104b57600080fd5b600061105984828501610f92565b91505092915050565b6000806040838503121561107557600080fd5b600061108385828601610f7d565b925050602061109485828601610fbc565b9150509250929050565b6000806000606084860312156110b357600080fd5b60006110c186828701610fa7565b93505060206110d286828701610fa7565b92505060406110e386828701610fe6565b9150509250925092565b6000602082840312156110ff57600080fd5b600061110d84828501610fbc565b91505092915050565b60006020828403121561112857600080fd5b600061113684828501610fd1565b91505092915050565b60006020828403121561115157600080fd5b600061115f84828501610ffb565b91505092915050565b611171816115e4565b82525050565b6000611184602683611302565b91507f4669786564506f696e743a3a6672616374696f6e3a206469766973696f6e206260008301527f79207a65726f00000000000000000000000000000000000000000000000000006020830152604082019050919050565b60006111ea601a83611302565b91507f46756c6c4d6174683a3a6d756c4469763a206f766572666c6f770000000000006000830152602082019050919050565b600061122a601e83611302565b91507f4669786564506f696e743a3a6672616374696f6e3a206f766572666c6f7700006000830152602082019050919050565b61126681611630565b82525050565b60006020820190506112816000830184611168565b92915050565b600060208201905081810360008301526112a081611177565b9050919050565b600060208201905081810360008301526112c0816111dd565b9050919050565b600060208201905081810360008301526112e08161121d565b9050919050565b60006020820190506112fc600083018461125d565b92915050565b600082825260208201905092915050565b600061131e82611630565b915061132983611630565b9250827fffffffffffffffffffffffffffffffffffffffffffffffffffffffffffffffff0382111561135e5761135d611657565b5b828201905092915050565b600061137482611630565b915061137f83611630565b92508261138f5761138e611686565b5b828204905092915050565b6000808291508390505b60018511156113e4578086048111156113c0576113bf611657565b5b60018516156113cf5780820291505b80810290506113dd856116b5565b94506113a4565b94509492505050565b60006113f882611630565b915061140383611630565b92506114307fffffffffffffffffffffffffffffffffffffffffffffffffffffffffffffffff8484611483565b905092915050565b600061144382611630565b915061144e8361164a565b925061147b7fffffffffffffffffffffffffffffffffffffffffffffffffffffffffffffffff8484611483565b905092915050565b600082611493576001905061154f565b816114a1576000905061154f565b81600181146114b757600281146114c1576114f0565b600191505061154f565b60ff8411156114d3576114d2611657565b5b8360020a9150848211156114ea576114e9611657565b5b5061154f565b5060208310610133831016604e8410600b84101617156115255782820a9050838111156115205761151f611657565b5b61154f565b611532848484600161139a565b9250905081840481111561154957611548611657565b5b81810290505b9392505050565b600061156182611630565b915061156c83611630565b9250817fffffffffffffffffffffffffffffffffffffffffffffffffffffffffffffffff04831182151516156115a5576115a4611657565b5b828202905092915050565b60006115bb82611630565b91506115c683611630565b9250828210156115d9576115d8611657565b5b828203905092915050565b60006115ef82611610565b9050919050565b60006dffffffffffffffffffffffffffff82169050919050565b600073ffffffffffffffffffffffffffffffffffffffff82169050919050565b6000819050919050565b600063ffffffff82169050919050565b600060ff82169050919050565b7f4e487b7100000000000000000000000000000000000000000000000000000000600052601160045260246000fd5b7f4e487b7100000000000000000000000000000000000000000000000000000000600052601260045260246000fd5b60008160011c9050919050565b6116cb816115e4565b81146116d657600080fd5b50565b6116e2816115f6565b81146116ed57600080fd5b50565b6116f981611630565b811461170457600080fd5b50565b6117108161163a565b811461171b57600080fd5b50565b6117278161164a565b811461173257600080fd5b5056fea264697066735822122095c7064bb9b0e0e5eda5521140587e9daae819d386a8601a4a0a3fd063e4e8e964736f6c63430008000033",
  "immutableReferences": {
    "2201": [
      {
        "length": 32,
        "start": 545
      },
      {
        "length": 32,
        "start": 781
      },
      {
        "length": 32,
        "start": 2131
      }
    ]
  },
  "source": "// SPDX-License-Identifier: AGPL-3.0-or-later\npragma solidity 0.8.0;\n\nimport \"@openzeppelin/contracts/token/ERC20/ERC20.sol\";\nimport \"@openzeppelin/contracts/utils/math/SafeMath.sol\";\nimport \"./util/MathOther.sol\";\nimport \"./util/Uniswap.sol\";\nimport \"./AthertonModels.sol\";\n\n\n// TODO-hightlight :: main logic\n\ncontract AthertonBondCalculator is IBondCalculator {\n\n    using FixedPoint for *;\n    using SafeMath for uint;\n    using SafeMath for uint112;\n\n    address public immutable ATHER;\n\n    constructor(\n      address _ATHER\n    ) {\n        require( _ATHER != address(0) );\n        ATHER = _ATHER;\n    }\n\n    function getKValue( address _pair ) public view returns( uint k_ ) {\n        uint token0 = ERC20( IUniswapV2Pair( _pair ).token0() ).decimals();\n        uint token1 = ERC20( IUniswapV2Pair( _pair ).token1() ).decimals();\n        uint decimals = token0.add( token1 ).sub( ERC20( _pair ).decimals() );\n\n        (uint reserve0, uint reserve1, ) = IUniswapV2Pair( _pair ).getReserves();\n        k_ = reserve0.mul(reserve1).div( 10 ** decimals );\n    }\n\n    function getTotalValue( address _pair ) public view returns ( uint _value ) {\n        _value = sqrrt(getKValue( _pair )).mul(2);\n    }\n\n    function valuation( address _pair, uint amount_ ) external view override returns ( uint _value ) {\n        uint totalValue = getTotalValue( _pair );\n        uint totalSupply = IUniswapV2Pair( _pair ).totalSupply();\n\n        _value = totalValue.mul( FixedPoint.fraction( amount_, totalSupply ).decode112with18() ).div( 1e18 );\n    }\n\n    // function getPriceRatio( address _pair, uint amount ) public view returns ( uint ) {\n    //     IUniswapV2Pair pair = IUniswapV2Pair(_pair);\n    //     ERC20 token1 = ERC20(pair.token1());\n    //     (uint Res0, uint Res1,) = pair.getReserves();\n\n    //     // decimals\n    //     uint res0 = Res0*(10**token1.decimals());\n    //     return((amount*res0)/Res1); // return amount of token0 needed to buy token1\n    // }\n\n    function markdown( address _pair ) external view override returns ( uint ) {\n        ( uint reserve0, uint reserve1, ) = IUniswapV2Pair( _pair ).getReserves();\n\n        uint reserve;\n        if ( IUniswapV2Pair( _pair ).token0() == ATHER ) {\n            reserve = reserve1;\n        } else {\n            reserve = reserve0;\n        }\n        return reserve.mul( 2 * ( 10 ** ERC20( ATHER ).decimals() ) ).div( getTotalValue( _pair ) );\n    }\n\n    function sqrrt(uint256 a) public pure returns (uint c) {\n        if (a > 3) {\n            c = a;\n            uint b = a.div(2).add(1);\n            while (b < c) {\n                c = b;\n                b = a.div(b).add(b).div(2);\n            }\n        } else if (a != 0) {\n            c = 1;\n        }\n    }\n}\n",
  "sourcePath": "/var/www/atherton/solidity/contracts/BondCalculator.sol",
  "compiler": {
    "name": "solc",
    "version": "0.8.0+commit.c7dfd78e.Emscripten.clang"
  },
  "schemaVersion": "3.4.3",
  "updatedAt": "2021-12-07T05:40:45.584Z",
  "devdoc": {
    "kind": "dev",
    "methods": {},
    "version": 1
  },
  "userdoc": {
    "kind": "user",
    "methods": {},
    "version": 1
  }
}