{
  "contractName": "AthertonTreasury",
  "abi": [
    {
      "inputs": [
        {
          "internalType": "address",
          "name": "_DAO",
          "type": "address"
        },
        {
          "internalType": "address",
          "name": "_ATHER",
          "type": "address"
        },
        {
          "internalType": "uint256",
          "name": "_blocksNeededForQueue",
          "type": "uint256"
        }
      ],
      "stateMutability": "nonpayable",
      "type": "constructor"
    },
    {
      "anonymous": false,
      "inputs": [
        {
          "indexed": true,
          "internalType": "enum AthertonTreasury.MANAGING",
          "name": "managing",
          "type": "uint8"
        },
        {
          "indexed": false,
          "internalType": "address",
          "name": "activated",
          "type": "address"
        },
        {
          "indexed": false,
          "internalType": "bool",
          "name": "result",
          "type": "bool"
        }
      ],
      "name": "ChangeActivated",
      "type": "event"
    },
    {
      "anonymous": false,
      "inputs": [
        {
          "indexed": true,
          "internalType": "enum AthertonTreasury.MANAGING",
          "name": "managing",
          "type": "uint8"
        },
        {
          "indexed": false,
          "internalType": "address",
          "name": "queued",
          "type": "address"
        }
      ],
      "name": "ChangeQueued",
      "type": "event"
    },
    {
      "anonymous": false,
      "inputs": [
        {
          "indexed": true,
          "internalType": "address",
          "name": "debtor",
          "type": "address"
        },
        {
          "indexed": true,
          "internalType": "address",
          "name": "token",
          "type": "address"
        },
        {
          "indexed": false,
          "internalType": "uint256",
          "name": "amount",
          "type": "uint256"
        },
        {
          "indexed": false,
          "internalType": "uint256",
          "name": "value",
          "type": "uint256"
        }
      ],
      "name": "CreateDebt",
      "type": "event"
    },
    {
      "anonymous": false,
      "inputs": [
        {
          "indexed": true,
          "internalType": "address",
          "name": "token",
          "type": "address"
        },
        {
          "indexed": false,
          "internalType": "uint256",
          "name": "amount",
          "type": "uint256"
        },
        {
          "indexed": false,
          "internalType": "uint256",
          "name": "value",
          "type": "uint256"
        }
      ],
      "name": "Deposit",
      "type": "event"
    },
    {
      "anonymous": false,
      "inputs": [
        {
          "indexed": true,
          "internalType": "address",
          "name": "token",
          "type": "address"
        },
        {
          "indexed": true,
          "internalType": "address",
          "name": "borrower",
          "type": "address"
        },
        {
          "indexed": false,
          "internalType": "uint256",
          "name": "amount",
          "type": "uint256"
        },
        {
          "indexed": false,
          "internalType": "uint256",
          "name": "value",
          "type": "uint256"
        },
        {
          "indexed": false,
          "internalType": "uint256",
          "name": "balance",
          "type": "uint256"
        }
      ],
      "name": "IncurUnsecured",
      "type": "event"
    },
    {
      "anonymous": false,
      "inputs": [
        {
          "indexed": true,
          "internalType": "address",
          "name": "previousOwner",
          "type": "address"
        },
        {
          "indexed": true,
          "internalType": "address",
          "name": "newOwner",
          "type": "address"
        }
      ],
      "name": "OwnershipTransferred",
      "type": "event"
    },
    {
      "anonymous": false,
      "inputs": [
        {
          "indexed": true,
          "internalType": "address",
          "name": "debtor",
          "type": "address"
        },
        {
          "indexed": true,
          "internalType": "address",
          "name": "token",
          "type": "address"
        },
        {
          "indexed": false,
          "internalType": "uint256",
          "name": "amount",
          "type": "uint256"
        },
        {
          "indexed": false,
          "internalType": "uint256",
          "name": "value",
          "type": "uint256"
        }
      ],
      "name": "RepayDebt",
      "type": "event"
    },
    {
      "anonymous": false,
      "inputs": [
        {
          "indexed": true,
          "internalType": "address",
          "name": "token",
          "type": "address"
        },
        {
          "indexed": true,
          "internalType": "address",
          "name": "borrower",
          "type": "address"
        },
        {
          "indexed": false,
          "internalType": "uint256",
          "name": "amount",
          "type": "uint256"
        },
        {
          "indexed": false,
          "internalType": "uint256",
          "name": "value",
          "type": "uint256"
        },
        {
          "indexed": false,
          "internalType": "uint256",
          "name": "balance",
          "type": "uint256"
        }
      ],
      "name": "RepayUnsecured",
      "type": "event"
    },
    {
      "anonymous": false,
      "inputs": [
        {
          "indexed": true,
          "internalType": "uint256",
          "name": "totalReserves",
          "type": "uint256"
        }
      ],
      "name": "ReservesAudited",
      "type": "event"
    },
    {
      "anonymous": false,
      "inputs": [
        {
          "indexed": true,
          "internalType": "address",
          "name": "token",
          "type": "address"
        },
        {
          "indexed": false,
          "internalType": "uint256",
          "name": "amount",
          "type": "uint256"
        }
      ],
      "name": "ReservesManaged",
      "type": "event"
    },
    {
      "anonymous": false,
      "inputs": [
        {
          "indexed": true,
          "internalType": "uint256",
          "name": "totalReserves",
          "type": "uint256"
        }
      ],
      "name": "ReservesUpdated",
      "type": "event"
    },
    {
      "anonymous": false,
      "inputs": [
        {
          "indexed": true,
          "internalType": "address",
          "name": "caller",
          "type": "address"
        },
        {
          "indexed": true,
          "internalType": "address",
          "name": "recipient",
          "type": "address"
        },
        {
          "indexed": false,
          "internalType": "uint256",
          "name": "amount",
          "type": "uint256"
        }
      ],
      "name": "RewardsMinted",
      "type": "event"
    },
    {
      "anonymous": false,
      "inputs": [
        {
          "indexed": true,
          "internalType": "address",
          "name": "token",
          "type": "address"
        },
        {
          "indexed": false,
          "internalType": "uint256",
          "name": "amount",
          "type": "uint256"
        },
        {
          "indexed": false,
          "internalType": "uint256",
          "name": "value",
          "type": "uint256"
        }
      ],
      "name": "Withdrawal",
      "type": "event"
    },
    {
      "inputs": [],
      "name": "ATHER",
      "outputs": [
        {
          "internalType": "address",
          "name": "",
          "type": "address"
        }
      ],
      "stateMutability": "view",
      "type": "function"
    },
    {
      "inputs": [],
      "name": "DAO",
      "outputs": [
        {
          "internalType": "address",
          "name": "",
          "type": "address"
        }
      ],
      "stateMutability": "view",
      "type": "function"
    },
    {
      "inputs": [
        {
          "internalType": "address",
          "name": "",
          "type": "address"
        }
      ],
      "name": "LiquidityDepositorQueue",
      "outputs": [
        {
          "internalType": "uint256",
          "name": "",
          "type": "uint256"
        }
      ],
      "stateMutability": "view",
      "type": "function"
    },
    {
      "inputs": [
        {
          "internalType": "address",
          "name": "",
          "type": "address"
        }
      ],
      "name": "LiquidityManagerQueue",
      "outputs": [
        {
          "internalType": "uint256",
          "name": "",
          "type": "uint256"
        }
      ],
      "stateMutability": "view",
      "type": "function"
    },
    {
      "inputs": [
        {
          "internalType": "address",
          "name": "",
          "type": "address"
        }
      ],
      "name": "LiquidityTokenQueue",
      "outputs": [
        {
          "internalType": "uint256",
          "name": "",
          "type": "uint256"
        }
      ],
      "stateMutability": "view",
      "type": "function"
    },
    {
      "inputs": [
        {
          "internalType": "address",
          "name": "",
          "type": "address"
        }
      ],
      "name": "ReserveManagerQueue",
      "outputs": [
        {
          "internalType": "uint256",
          "name": "",
          "type": "uint256"
        }
      ],
      "stateMutability": "view",
      "type": "function"
    },
    {
      "inputs": [],
      "name": "blocksNeededForQueue",
      "outputs": [
        {
          "internalType": "uint256",
          "name": "",
          "type": "uint256"
        }
      ],
      "stateMutability": "view",
      "type": "function"
    },
    {
      "inputs": [
        {
          "internalType": "address",
          "name": "",
          "type": "address"
        }
      ],
      "name": "bondCalculator",
      "outputs": [
        {
          "internalType": "address",
          "name": "",
          "type": "address"
        }
      ],
      "stateMutability": "view",
      "type": "function"
    },
    {
      "inputs": [
        {
          "internalType": "address",
          "name": "",
          "type": "address"
        }
      ],
      "name": "debtorBalance",
      "outputs": [
        {
          "internalType": "uint256",
          "name": "",
          "type": "uint256"
        }
      ],
      "stateMutability": "view",
      "type": "function"
    },
    {
      "inputs": [
        {
          "internalType": "address",
          "name": "",
          "type": "address"
        }
      ],
      "name": "debtorQueue",
      "outputs": [
        {
          "internalType": "uint256",
          "name": "",
          "type": "uint256"
        }
      ],
      "stateMutability": "view",
      "type": "function"
    },
    {
      "inputs": [
        {
          "internalType": "uint256",
          "name": "",
          "type": "uint256"
        }
      ],
      "name": "debtors",
      "outputs": [
        {
          "internalType": "address",
          "name": "",
          "type": "address"
        }
      ],
      "stateMutability": "view",
      "type": "function"
    },
    {
      "inputs": [
        {
          "internalType": "address",
          "name": "",
          "type": "address"
        }
      ],
      "name": "isDebtor",
      "outputs": [
        {
          "internalType": "bool",
          "name": "",
          "type": "bool"
        }
      ],
      "stateMutability": "view",
      "type": "function"
    },
    {
      "inputs": [
        {
          "internalType": "address",
          "name": "",
          "type": "address"
        }
      ],
      "name": "isLiquidityDepositor",
      "outputs": [
        {
          "internalType": "bool",
          "name": "",
          "type": "bool"
        }
      ],
      "stateMutability": "view",
      "type": "function"
    },
    {
      "inputs": [
        {
          "internalType": "address",
          "name": "",
          "type": "address"
        }
      ],
      "name": "isLiquidityManager",
      "outputs": [
        {
          "internalType": "bool",
          "name": "",
          "type": "bool"
        }
      ],
      "stateMutability": "view",
      "type": "function"
    },
    {
      "inputs": [
        {
          "internalType": "address",
          "name": "",
          "type": "address"
        }
      ],
      "name": "isLiquidityToken",
      "outputs": [
        {
          "internalType": "bool",
          "name": "",
          "type": "bool"
        }
      ],
      "stateMutability": "view",
      "type": "function"
    },
    {
      "inputs": [
        {
          "internalType": "address",
          "name": "",
          "type": "address"
        }
      ],
      "name": "isReserveDepositor",
      "outputs": [
        {
          "internalType": "bool",
          "name": "",
          "type": "bool"
        }
      ],
      "stateMutability": "view",
      "type": "function"
    },
    {
      "inputs": [
        {
          "internalType": "address",
          "name": "",
          "type": "address"
        }
      ],
      "name": "isReserveManager",
      "outputs": [
        {
          "internalType": "bool",
          "name": "",
          "type": "bool"
        }
      ],
      "stateMutability": "view",
      "type": "function"
    },
    {
      "inputs": [
        {
          "internalType": "address",
          "name": "",
          "type": "address"
        }
      ],
      "name": "isReserveSpender",
      "outputs": [
        {
          "internalType": "bool",
          "name": "",
          "type": "bool"
        }
      ],
      "stateMutability": "view",
      "type": "function"
    },
    {
      "inputs": [
        {
          "internalType": "address",
          "name": "",
          "type": "address"
        }
      ],
      "name": "isReserveToken",
      "outputs": [
        {
          "internalType": "bool",
          "name": "",
          "type": "bool"
        }
      ],
      "stateMutability": "view",
      "type": "function"
    },
    {
      "inputs": [
        {
          "internalType": "address",
          "name": "",
          "type": "address"
        }
      ],
      "name": "isRewardManager",
      "outputs": [
        {
          "internalType": "bool",
          "name": "",
          "type": "bool"
        }
      ],
      "stateMutability": "view",
      "type": "function"
    },
    {
      "inputs": [
        {
          "internalType": "uint256",
          "name": "",
          "type": "uint256"
        }
      ],
      "name": "liquidityDepositors",
      "outputs": [
        {
          "internalType": "address",
          "name": "",
          "type": "address"
        }
      ],
      "stateMutability": "view",
      "type": "function"
    },
    {
      "inputs": [
        {
          "internalType": "uint256",
          "name": "",
          "type": "uint256"
        }
      ],
      "name": "liquidityManagers",
      "outputs": [
        {
          "internalType": "address",
          "name": "",
          "type": "address"
        }
      ],
      "stateMutability": "view",
      "type": "function"
    },
    {
      "inputs": [
        {
          "internalType": "uint256",
          "name": "",
          "type": "uint256"
        }
      ],
      "name": "liquidityTokens",
      "outputs": [
        {
          "internalType": "address",
          "name": "",
          "type": "address"
        }
      ],
      "stateMutability": "view",
      "type": "function"
    },
    {
      "inputs": [],
      "name": "owner",
      "outputs": [
        {
          "internalType": "address",
          "name": "",
          "type": "address"
        }
      ],
      "stateMutability": "view",
      "type": "function"
    },
    {
      "inputs": [],
      "name": "renounceOwnership",
      "outputs": [],
      "stateMutability": "nonpayable",
      "type": "function"
    },
    {
      "inputs": [
        {
          "internalType": "address",
          "name": "",
          "type": "address"
        }
      ],
      "name": "reserveDepositorQueue",
      "outputs": [
        {
          "internalType": "uint256",
          "name": "",
          "type": "uint256"
        }
      ],
      "stateMutability": "view",
      "type": "function"
    },
    {
      "inputs": [
        {
          "internalType": "uint256",
          "name": "",
          "type": "uint256"
        }
      ],
      "name": "reserveDepositors",
      "outputs": [
        {
          "internalType": "address",
          "name": "",
          "type": "address"
        }
      ],
      "stateMutability": "view",
      "type": "function"
    },
    {
      "inputs": [
        {
          "internalType": "uint256",
          "name": "",
          "type": "uint256"
        }
      ],
      "name": "reserveManagers",
      "outputs": [
        {
          "internalType": "address",
          "name": "",
          "type": "address"
        }
      ],
      "stateMutability": "view",
      "type": "function"
    },
    {
      "inputs": [
        {
          "internalType": "address",
          "name": "",
          "type": "address"
        }
      ],
      "name": "reserveSpenderQueue",
      "outputs": [
        {
          "internalType": "uint256",
          "name": "",
          "type": "uint256"
        }
      ],
      "stateMutability": "view",
      "type": "function"
    },
    {
      "inputs": [
        {
          "internalType": "uint256",
          "name": "",
          "type": "uint256"
        }
      ],
      "name": "reserveSpenders",
      "outputs": [
        {
          "internalType": "address",
          "name": "",
          "type": "address"
        }
      ],
      "stateMutability": "view",
      "type": "function"
    },
    {
      "inputs": [
        {
          "internalType": "address",
          "name": "",
          "type": "address"
        }
      ],
      "name": "reserveTokenQueue",
      "outputs": [
        {
          "internalType": "uint256",
          "name": "",
          "type": "uint256"
        }
      ],
      "stateMutability": "view",
      "type": "function"
    },
    {
      "inputs": [
        {
          "internalType": "uint256",
          "name": "",
          "type": "uint256"
        }
      ],
      "name": "reserveTokens",
      "outputs": [
        {
          "internalType": "address",
          "name": "",
          "type": "address"
        }
      ],
      "stateMutability": "view",
      "type": "function"
    },
    {
      "inputs": [
        {
          "internalType": "address",
          "name": "",
          "type": "address"
        }
      ],
      "name": "rewardManagerQueue",
      "outputs": [
        {
          "internalType": "uint256",
          "name": "",
          "type": "uint256"
        }
      ],
      "stateMutability": "view",
      "type": "function"
    },
    {
      "inputs": [
        {
          "internalType": "uint256",
          "name": "",
          "type": "uint256"
        }
      ],
      "name": "rewardManagers",
      "outputs": [
        {
          "internalType": "address",
          "name": "",
          "type": "address"
        }
      ],
      "stateMutability": "view",
      "type": "function"
    },
    {
      "inputs": [],
      "name": "sATHER",
      "outputs": [
        {
          "internalType": "address",
          "name": "",
          "type": "address"
        }
      ],
      "stateMutability": "view",
      "type": "function"
    },
    {
      "inputs": [],
      "name": "sATHERQueue",
      "outputs": [
        {
          "internalType": "uint256",
          "name": "",
          "type": "uint256"
        }
      ],
      "stateMutability": "view",
      "type": "function"
    },
    {
      "inputs": [],
      "name": "totalDebt",
      "outputs": [
        {
          "internalType": "uint256",
          "name": "",
          "type": "uint256"
        }
      ],
      "stateMutability": "view",
      "type": "function"
    },
    {
      "inputs": [],
      "name": "totalReserves",
      "outputs": [
        {
          "internalType": "uint256",
          "name": "",
          "type": "uint256"
        }
      ],
      "stateMutability": "view",
      "type": "function"
    },
    {
      "inputs": [],
      "name": "totalUnsecured",
      "outputs": [
        {
          "internalType": "uint256",
          "name": "",
          "type": "uint256"
        }
      ],
      "stateMutability": "view",
      "type": "function"
    },
    {
      "inputs": [
        {
          "internalType": "address",
          "name": "newOwner",
          "type": "address"
        }
      ],
      "name": "transferOwnership",
      "outputs": [],
      "stateMutability": "nonpayable",
      "type": "function"
    },
    {
      "inputs": [
        {
          "internalType": "address",
          "name": "",
          "type": "address"
        }
      ],
      "name": "unsecuredLoans",
      "outputs": [
        {
          "internalType": "uint256",
          "name": "",
          "type": "uint256"
        }
      ],
      "stateMutability": "view",
      "type": "function"
    },
    {
      "inputs": [
        {
          "internalType": "uint256",
          "name": "_amount",
          "type": "uint256"
        },
        {
          "internalType": "address",
          "name": "_token",
          "type": "address"
        },
        {
          "internalType": "uint256",
          "name": "_profit",
          "type": "uint256"
        }
      ],
      "name": "deposit",
      "outputs": [
        {
          "internalType": "uint256",
          "name": "send_",
          "type": "uint256"
        }
      ],
      "stateMutability": "nonpayable",
      "type": "function"
    },
    {
      "inputs": [
        {
          "internalType": "uint256",
          "name": "_amount",
          "type": "uint256"
        },
        {
          "internalType": "address",
          "name": "_token",
          "type": "address"
        }
      ],
      "name": "withdraw",
      "outputs": [],
      "stateMutability": "nonpayable",
      "type": "function"
    },
    {
      "inputs": [
        {
          "internalType": "uint256",
          "name": "_amount",
          "type": "uint256"
        },
        {
          "internalType": "address",
          "name": "_token",
          "type": "address"
        }
      ],
      "name": "incurDebt",
      "outputs": [],
      "stateMutability": "nonpayable",
      "type": "function"
    },
    {
      "inputs": [
        {
          "internalType": "uint256",
          "name": "_amount",
          "type": "uint256"
        },
        {
          "internalType": "address",
          "name": "_token",
          "type": "address"
        }
      ],
      "name": "repayDebtWithReserve",
      "outputs": [],
      "stateMutability": "nonpayable",
      "type": "function"
    },
    {
      "inputs": [
        {
          "internalType": "uint256",
          "name": "_amount",
          "type": "uint256"
        }
      ],
      "name": "repayDebtWithATHER",
      "outputs": [],
      "stateMutability": "nonpayable",
      "type": "function"
    },
    {
      "inputs": [
        {
          "internalType": "address",
          "name": "_token",
          "type": "address"
        },
        {
          "internalType": "uint256",
          "name": "_amount",
          "type": "uint256"
        }
      ],
      "name": "manage",
      "outputs": [],
      "stateMutability": "nonpayable",
      "type": "function"
    },
    {
      "inputs": [
        {
          "internalType": "address",
          "name": "_recipient",
          "type": "address"
        },
        {
          "internalType": "uint256",
          "name": "_amount",
          "type": "uint256"
        }
      ],
      "name": "mintRewards",
      "outputs": [],
      "stateMutability": "nonpayable",
      "type": "function"
    },
    {
      "inputs": [
        {
          "internalType": "address",
          "name": "_borrower",
          "type": "address"
        },
        {
          "internalType": "uint256",
          "name": "_amount",
          "type": "uint256"
        }
      ],
      "name": "incurUnsecured",
      "outputs": [],
      "stateMutability": "nonpayable",
      "type": "function"
    },
    {
      "inputs": [
        {
          "internalType": "address",
          "name": "_borrower",
          "type": "address"
        },
        {
          "internalType": "uint256",
          "name": "_amount",
          "type": "uint256"
        }
      ],
      "name": "repayUnsecured",
      "outputs": [],
      "stateMutability": "nonpayable",
      "type": "function"
    },
    {
      "inputs": [
        {
          "internalType": "address",
          "name": "_borrower",
          "type": "address"
        },
        {
          "internalType": "address",
          "name": "_repayer",
          "type": "address"
        },
        {
          "internalType": "uint256",
          "name": "_amount",
          "type": "uint256"
        }
      ],
      "name": "repayUnsecuredOnBehalfOf",
      "outputs": [],
      "stateMutability": "nonpayable",
      "type": "function"
    },
    {
      "inputs": [],
      "name": "excessReserves",
      "outputs": [
        {
          "internalType": "uint256",
          "name": "",
          "type": "uint256"
        }
      ],
      "stateMutability": "view",
      "type": "function"
    },
    {
      "inputs": [],
      "name": "auditReserves",
      "outputs": [],
      "stateMutability": "nonpayable",
      "type": "function"
    },
    {
      "inputs": [
        {
          "internalType": "address",
          "name": "_token",
          "type": "address"
        },
        {
          "internalType": "uint256",
          "name": "_amount",
          "type": "uint256"
        }
      ],
      "name": "valueOfToken",
      "outputs": [
        {
          "internalType": "uint256",
          "name": "value_",
          "type": "uint256"
        }
      ],
      "stateMutability": "view",
      "type": "function"
    },
    {
      "inputs": [
        {
          "internalType": "enum AthertonTreasury.MANAGING",
          "name": "_managing",
          "type": "uint8"
        },
        {
          "internalType": "address",
          "name": "_address",
          "type": "address"
        }
      ],
      "name": "queue",
      "outputs": [
        {
          "internalType": "bool",
          "name": "",
          "type": "bool"
        }
      ],
      "stateMutability": "nonpayable",
      "type": "function"
    },
    {
      "inputs": [
        {
          "internalType": "enum AthertonTreasury.MANAGING",
          "name": "_managing",
          "type": "uint8"
        },
        {
          "internalType": "address",
          "name": "_address",
          "type": "address"
        },
        {
          "internalType": "address",
          "name": "_calculator",
          "type": "address"
        }
      ],
      "name": "toggle",
      "outputs": [
        {
          "internalType": "bool",
          "name": "",
          "type": "bool"
        }
      ],
      "stateMutability": "nonpayable",
      "type": "function"
    },
    {
      "inputs": [
        {
          "internalType": "address",
          "name": "newDao",
          "type": "address"
        }
      ],
      "name": "setDao",
      "outputs": [],
      "stateMutability": "nonpayable",
      "type": "function"
    }
  ],
  "bytecode": "0x60c06040523480156200001157600080fd5b5060405162006f6c38038062006f6c833981810160405281019062000037919062000250565b620000576200004b6200015660201b60201c565b6200015e60201b60201c565b600073ffffffffffffffffffffffffffffffffffffffff168373ffffffffffffffffffffffffffffffffffffffff1614156200009257600080fd5b82602060006101000a81548173ffffffffffffffffffffffffffffffffffffffff021916908373ffffffffffffffffffffffffffffffffffffffff160217905550600073ffffffffffffffffffffffffffffffffffffffff168273ffffffffffffffffffffffffffffffffffffffff1614156200010e57600080fd5b8173ffffffffffffffffffffffffffffffffffffffff1660808173ffffffffffffffffffffffffffffffffffffffff1660601b815250508060a0818152505050505062000318565b600033905090565b60008060009054906101000a900473ffffffffffffffffffffffffffffffffffffffff169050816000806101000a81548173ffffffffffffffffffffffffffffffffffffffff021916908373ffffffffffffffffffffffffffffffffffffffff1602179055508173ffffffffffffffffffffffffffffffffffffffff168173ffffffffffffffffffffffffffffffffffffffff167f8be0079c531659141344cd1fd0a4f28419497f9722a3daafe3b4186f6b6457e060405160405180910390a35050565b6000815190506200023381620002e4565b92915050565b6000815190506200024a81620002fe565b92915050565b6000806000606084860312156200026657600080fd5b6000620002768682870162000222565b9350506020620002898682870162000222565b92505060406200029c8682870162000239565b9150509250925092565b6000620002b382620002ba565b9050919050565b600073ffffffffffffffffffffffffffffffffffffffff82169050919050565b6000819050919050565b620002ef81620002a6565b8114620002fb57600080fd5b50565b6200030981620002da565b81146200031557600080fd5b50565b60805160601c60a051616b8a620003e260003960008181612cf601528181613425015281816135190152818161360d0152818161370601528181613808015281816138fc015281816139f501528181613af701528181613beb0152613cde015260008181610d8a01528181610fc401528181611101015281816114260152818161153401528181611688015281816120490152818161219d01528181612298015281816124aa01528181612b3201528181612dfe01528181613f38015261408c0152616b8a6000f3fe608060405234801561001057600080fd5b50600436106103825760003560e01c80638f6a7b57116101de578063d07f390f1161010f578063ee4e19a1116100ad578063fbfd393b1161007c578063fbfd393b14610bad578063fc7b9c1814610bdd578063fd1ec01014610bfb578063fff9ee8714610c2b57610382565b8063ee4e19a114610b15578063f2fde38b14610b45578063f3b9765c14610b61578063fb93958814610b7d57610382565b8063d8b55f98116100e9578063d8b55f9814610a67578063df89b34414610a85578063e83afee314610ab5578063ebd83cd814610ae557610382565b8063d07f390f146109fd578063d1b317e514610a1b578063d796ffb814610a4b57610382565b8063b1bd38b01161017c578063c188a20011610156578063c188a2001461094f578063c24ad43e1461096d578063cd85641a1461099d578063d031370b146109cd57610382565b8063b1bd38b0146108bf578063b5b1d560146108ef578063bc157ac11461091f57610382565b806398fabd3a116101b857806398fabd3a14610811578063a1210a2d1461082f578063a569e5711461085f578063ab319c9a1461088f57610382565b80638f6a7b57146107935780638f840ddd146107c3578063932cc8c3146107e157610382565b80634e3d8853116102b857806370a0502a11610256578063869871bf11610230578063869871bf146106e557806387d67dff146107155780638da5cb5b146107455780638f59c7271461076357610382565b806370a0502a1461067b578063715018a6146106ab578063788c6c01146106b557610382565b80636661df96116102925780636661df96146105cf57806368c31dd5146105ff5780636a20de921461062f5780636b5e40a71461064b57610382565b80634e3d8853146105655780634e83423c146105835780636637b882146105b357610382565b8063124154ca116103255780632b7ce500116102ff5780632b7ce500146104f157806339442fac146104fb5780633a3e439e14610517578063437f79121461053557610382565b8063124154ca1461047557806312422d23146104a55780631af4da70146104c157610382565b8063095ba75d11610361578063095ba75d146104035780630b0eee301461041f5780630c3513a81461043b5780630f7e84df1461045957610382565b8062f714ce146103875780630619aff1146103a3578063094a8651146103d3575b600080fd5b6103a1600480360381019061039c9190615f93565b610c5b565b005b6103bd60048036038101906103b89190615f41565b610edf565b6040516103ca9190616427565b60405180910390f35b6103ed60048036038101906103e89190615dd9565b610f1e565b6040516103fa9190616668565b60405180910390f35b61041d60048036038101906104189190615f41565b610f36565b005b61043960048036038101906104349190615e51565b611189565b005b610443611419565b6040516104509190616668565b60405180910390f35b610473600480360381019061046e9190615e51565b6114e6565b005b61048f600480360381019061048a9190615dd9565b61173b565b60405161049c91906164cb565b60405180910390f35b6104bf60048036038101906104ba9190615f93565b61175b565b005b6104db60048036038101906104d69190615dd9565b611bbf565b6040516104e89190616427565b60405180910390f35b6104f9611bf2565b005b61051560048036038101906105109190615e02565b611ffb565b005b61051f612251565b60405161052c9190616668565b60405180910390f35b61054f600480360381019061054a9190615f41565b612257565b60405161055c9190616427565b60405180910390f35b61056d612296565b60405161057a9190616427565b60405180910390f35b61059d60048036038101906105989190615dd9565b6122ba565b6040516105aa91906164cb565b60405180910390f35b6105cd60048036038101906105c89190615dd9565b6122da565b005b6105e960048036038101906105e49190615dd9565b61239a565b6040516105f69190616668565b60405180910390f35b61061960048036038101906106149190615dd9565b6123b2565b60405161062691906164cb565b60405180910390f35b61064960048036038101906106449190615e51565b6123d2565b005b61066560048036038101906106609190615f41565b61259e565b6040516106729190616427565b60405180910390f35b61069560048036038101906106909190615f41565b6125dd565b6040516106a29190616427565b60405180910390f35b6106b361261c565b005b6106cf60048036038101906106ca9190615dd9565b6126a4565b6040516106dc9190616668565b60405180910390f35b6106ff60048036038101906106fa9190615f41565b6126bc565b60405161070c9190616427565b60405180910390f35b61072f600480360381019061072a9190615dd9565b6126fb565b60405161073c91906164cb565b60405180910390f35b61074d61271b565b60405161075a9190616427565b60405180910390f35b61077d60048036038101906107789190615dd9565b612744565b60405161078a9190616668565b60405180910390f35b6107ad60048036038101906107a89190615f41565b61275c565b6040516107ba9190616427565b60405180910390f35b6107cb61279b565b6040516107d89190616668565b60405180910390f35b6107fb60048036038101906107f69190615dd9565b6127a1565b6040516108089190616668565b60405180910390f35b6108196127b9565b6040516108269190616427565b60405180910390f35b61084960048036038101906108449190615dd9565b6127df565b60405161085691906164cb565b60405180910390f35b61087960048036038101906108749190615dd9565b6127ff565b60405161088691906164cb565b60405180910390f35b6108a960048036038101906108a49190615dd9565b61281f565b6040516108b69190616668565b60405180910390f35b6108d960048036038101906108d49190615dd9565b612837565b6040516108e69190616668565b60405180910390f35b61090960048036038101906109049190615f41565b61284f565b6040516109169190616427565b60405180910390f35b61093960048036038101906109349190615fcf565b61288e565b6040516109469190616668565b60405180910390f35b610957612c5f565b6040516109649190616427565b60405180910390f35b61098760048036038101906109829190615dd9565b612c85565b6040516109949190616668565b60405180910390f35b6109b760048036038101906109b29190615dd9565b612c9d565b6040516109c49190616668565b60405180910390f35b6109e760048036038101906109e29190615f41565b612cb5565b6040516109f49190616427565b60405180910390f35b610a05612cf4565b604051610a129190616668565b60405180910390f35b610a356004803603810190610a309190615e51565b612d18565b604051610a429190616668565b60405180910390f35b610a656004803603810190610a609190615f93565b613010565b005b610a6f6132c9565b604051610a7c9190616668565b60405180910390f35b610a9f6004803603810190610a9a9190615dd9565b6132cf565b604051610aac91906164cb565b60405180910390f35b610acf6004803603810190610aca9190615eb6565b6132ef565b604051610adc91906164cb565b60405180910390f35b610aff6004803603810190610afa9190615dd9565b613da4565b604051610b0c91906164cb565b60405180910390f35b610b2f6004803603810190610b2a9190615dd9565b613dc4565b604051610b3c91906164cb565b60405180910390f35b610b5f6004803603810190610b5a9190615dd9565b613de4565b005b610b7b6004803603810190610b769190615e51565b613edc565b005b610b976004803603810190610b929190615dd9565b61413f565b604051610ba49190616668565b60405180910390f35b610bc76004803603810190610bc29190615ef2565b614157565b604051610bd491906164cb565b60405180910390f35b610be5615620565b604051610bf29190616668565b60405180910390f35b610c156004803603810190610c109190615f41565b615626565b604051610c229190616427565b60405180910390f35b610c456004803603810190610c409190615dd9565b615665565b604051610c529190616668565b60405180910390f35b600260008273ffffffffffffffffffffffffffffffffffffffff1673ffffffffffffffffffffffffffffffffffffffff16815260200190815260200160002060009054906101000a900460ff16610ce7576040517f08c379a0000000000000000000000000000000000000000000000000000000008152600401610cde90616648565b60405180910390fd5b60011515600860003373ffffffffffffffffffffffffffffffffffffffff1673ffffffffffffffffffffffffffffffffffffffff16815260200190815260200160002060009054906101000a900460ff16151514610d7a576040517f08c379a0000000000000000000000000000000000000000000000000000000008152600401610d7190616588565b60405180910390fd5b6000610d868284612d18565b90507f000000000000000000000000000000000000000000000000000000000000000073ffffffffffffffffffffffffffffffffffffffff166379cc679033836040518363ffffffff1660e01b8152600401610de39291906164a2565b600060405180830381600087803b158015610dfd57600080fd5b505af1158015610e11573d6000803e3d6000fd5b50505050610e2a8160225461567d90919063ffffffff16565b6022819055506022547f93bb8edd35984706eee1b92541281f7f62d33c01c5b2ec0929a113603bd21d6660405160405180910390a2610e8a33848473ffffffffffffffffffffffffffffffffffffffff166156939092919063ffffffff16565b8173ffffffffffffffffffffffffffffffffffffffff167fdf273cb619d95419a9cd0ec88123a0538c85064229baa6363788f743fff90deb8483604051610ed2929190616683565b60405180910390a2505050565b60118181548110610eef57600080fd5b906000526020600020016000915054906101000a900473ffffffffffffffffffffffffffffffffffffffff1681565b601a6020528060005260406000206000915090505481565b601860003373ffffffffffffffffffffffffffffffffffffffff1673ffffffffffffffffffffffffffffffffffffffff16815260200190815260200160002060009054906101000a900460ff16610fc2576040517f08c379a0000000000000000000000000000000000000000000000000000000008152600401610fb990616588565b60405180910390fd5b7f000000000000000000000000000000000000000000000000000000000000000073ffffffffffffffffffffffffffffffffffffffff166379cc679033836040518363ffffffff1660e01b815260040161101d9291906164a2565b600060405180830381600087803b15801561103757600080fd5b505af115801561104b573d6000803e3d6000fd5b505050506110a181601a60003373ffffffffffffffffffffffffffffffffffffffff1673ffffffffffffffffffffffffffffffffffffffff1681526020019081526020016000205461567d90919063ffffffff16565b601a60003373ffffffffffffffffffffffffffffffffffffffff1673ffffffffffffffffffffffffffffffffffffffff168152602001908152602001600020819055506110f98160245461567d90919063ffffffff16565b6024819055507f000000000000000000000000000000000000000000000000000000000000000073ffffffffffffffffffffffffffffffffffffffff163373ffffffffffffffffffffffffffffffffffffffff167fc6d98eecfc9c78ab62c89a82950079b54874749f1f6f24090f7acc758bc2f309838460405161117e929190616683565b60405180910390a350565b600b60008373ffffffffffffffffffffffffffffffffffffffff1673ffffffffffffffffffffffffffffffffffffffff16815260200190815260200160002060009054906101000a900460ff161561126c57601560003373ffffffffffffffffffffffffffffffffffffffff1673ffffffffffffffffffffffffffffffffffffffff16815260200190815260200160002060009054906101000a900460ff16611267576040517f08c379a000000000000000000000000000000000000000000000000000000000815260040161125e90616588565b60405180910390fd5b6112f9565b601260003373ffffffffffffffffffffffffffffffffffffffff1673ffffffffffffffffffffffffffffffffffffffff16815260200190815260200160002060009054906101000a900460ff166112f8576040517f08c379a00000000000000000000000000000000000000000000000000000000081526004016112ef90616588565b60405180910390fd5b5b60006113058383612d18565b905061130f611419565b811115611351576040517f08c379a000000000000000000000000000000000000000000000000000000000815260040161134890616568565b60405180910390fd5b6113668160225461567d90919063ffffffff16565b6022819055506022547f93bb8edd35984706eee1b92541281f7f62d33c01c5b2ec0929a113603bd21d6660405160405180910390a26113c633838573ffffffffffffffffffffffffffffffffffffffff166156939092919063ffffffff16565b8273ffffffffffffffffffffffffffffffffffffffff167f2bb2640731848fe9820ba48dbc978c1fc9bbd5f11b948bfab05b7dee3378fd808360405161140c9190616668565b60405180910390a2505050565b60006114e16114d06024547f000000000000000000000000000000000000000000000000000000000000000073ffffffffffffffffffffffffffffffffffffffff166318160ddd6040518163ffffffff1660e01b815260040160206040518083038186803b15801561148a57600080fd5b505afa15801561149e573d6000803e3d6000fd5b505050506040513d601f19601f820116820180604052508101906114c29190615f6a565b61567d90919063ffffffff16565b60225461567d90919063ffffffff16565b905090565b80601e60008473ffffffffffffffffffffffffffffffffffffffff1673ffffffffffffffffffffffffffffffffffffffff16815260200190815260200160002054101561153257600080fd5b7f000000000000000000000000000000000000000000000000000000000000000073ffffffffffffffffffffffffffffffffffffffff166379cc679083836040518363ffffffff1660e01b815260040161158d9291906164a2565b600060405180830381600087803b1580156115a757600080fd5b505af11580156115bb573d6000803e3d6000fd5b505050506115d48160235461567d90919063ffffffff16565b60238190555061162c81601e60008573ffffffffffffffffffffffffffffffffffffffff1673ffffffffffffffffffffffffffffffffffffffff1681526020019081526020016000205461567d90919063ffffffff16565b601e60008473ffffffffffffffffffffffffffffffffffffffff1673ffffffffffffffffffffffffffffffffffffffff168152602001908152602001600020819055508173ffffffffffffffffffffffffffffffffffffffff167f000000000000000000000000000000000000000000000000000000000000000073ffffffffffffffffffffffffffffffffffffffff167f79438dda441210455d019d26bbba108990fa0515e15282f7a7842d0875828a628384601e60008873ffffffffffffffffffffffffffffffffffffffff1673ffffffffffffffffffffffffffffffffffffffff1681526020019081526020016000205460405161172f939291906166ac565b60405180910390a35050565b60056020528060005260406000206000915054906101000a900460ff1681565b601860003373ffffffffffffffffffffffffffffffffffffffff1673ffffffffffffffffffffffffffffffffffffffff16815260200190815260200160002060009054906101000a900460ff166117e7576040517f08c379a00000000000000000000000000000000000000000000000000000000081526004016117de90616588565b60405180910390fd5b600260008273ffffffffffffffffffffffffffffffffffffffff1673ffffffffffffffffffffffffffffffffffffffff16815260200190815260200160002060009054906101000a900460ff16611873576040517f08c379a000000000000000000000000000000000000000000000000000000000815260040161186a90616648565b60405180910390fd5b600061187f8284612d18565b90506000601f60009054906101000a900473ffffffffffffffffffffffffffffffffffffffff1673ffffffffffffffffffffffffffffffffffffffff166370a08231336040518263ffffffff1660e01b81526004016118de9190616427565b60206040518083038186803b1580156118f657600080fd5b505afa15801561190a573d6000803e3d6000fd5b505050506040513d601f19601f8201168201806040525081019061192e9190615f6a565b90506000611984601a60003373ffffffffffffffffffffffffffffffffffffffff1673ffffffffffffffffffffffffffffffffffffffff168152602001908152602001600020548361567d90919063ffffffff16565b9050808311156119c9576040517f08c379a00000000000000000000000000000000000000000000000000000000081526004016119c090616628565b60405180910390fd5b611a1b83601a60003373ffffffffffffffffffffffffffffffffffffffff1673ffffffffffffffffffffffffffffffffffffffff1681526020019081526020016000205461571990919063ffffffff16565b601a60003373ffffffffffffffffffffffffffffffffffffffff1673ffffffffffffffffffffffffffffffffffffffff16815260200190815260200160002081905550611a738360245461571990919063ffffffff16565b602481905550611a8e8360225461567d90919063ffffffff16565b6022819055506022547f93bb8edd35984706eee1b92541281f7f62d33c01c5b2ec0929a113603bd21d6660405160405180910390a28373ffffffffffffffffffffffffffffffffffffffff1663a9059cbb33876040518363ffffffff1660e01b8152600401611afe9291906164a2565b602060405180830381600087803b158015611b1857600080fd5b505af1158015611b2c573d6000803e3d6000fd5b505050506040513d601f19601f82011682018060405250810190611b509190615e8d565b508373ffffffffffffffffffffffffffffffffffffffff163373ffffffffffffffffffffffffffffffffffffffff167f7e1a939bed137a819b5d2979822c67f877689f7a863d5e4cb57cdca97b2977d68786604051611bb0929190616683565b60405180910390a35050505050565b60106020528060005260406000206000915054906101000a900473ffffffffffffffffffffffffffffffffffffffff1681565b611bfa61572f565b73ffffffffffffffffffffffffffffffffffffffff16611c1861271b565b73ffffffffffffffffffffffffffffffffffffffff1614611c6e576040517f08c379a0000000000000000000000000000000000000000000000000000000008152600401611c65906165a8565b60405180910390fd5b600080600090505b600180549050811015611e0457611def611de060018381548110611cc3577f4e487b7100000000000000000000000000000000000000000000000000000000600052603260045260246000fd5b9060005260206000200160009054906101000a900473ffffffffffffffffffffffffffffffffffffffff1660018481548110611d28577f4e487b7100000000000000000000000000000000000000000000000000000000600052603260045260246000fd5b9060005260206000200160009054906101000a900473ffffffffffffffffffffffffffffffffffffffff1673ffffffffffffffffffffffffffffffffffffffff166370a08231306040518263ffffffff1660e01b8152600401611d8b9190616427565b60206040518083038186803b158015611da357600080fd5b505afa158015611db7573d6000803e3d6000fd5b505050506040513d601f19601f82011682018060405250810190611ddb9190615f6a565b612d18565b8361571990919063ffffffff16565b91508080611dfc90616a23565b915050611c76565b5060005b600a80549050811015611f9657611f81611f72600a8381548110611e55577f4e487b7100000000000000000000000000000000000000000000000000000000600052603260045260246000fd5b9060005260206000200160009054906101000a900473ffffffffffffffffffffffffffffffffffffffff16600a8481548110611eba577f4e487b7100000000000000000000000000000000000000000000000000000000600052603260045260246000fd5b9060005260206000200160009054906101000a900473ffffffffffffffffffffffffffffffffffffffff1673ffffffffffffffffffffffffffffffffffffffff166370a08231306040518263ffffffff1660e01b8152600401611f1d9190616427565b60206040518083038186803b158015611f3557600080fd5b505afa158015611f49573d6000803e3d6000fd5b505050506040513d601f19601f82011682018060405250810190611f6d9190615f6a565b612d18565b8361571990919063ffffffff16565b91508080611f8e90616a23565b915050611e08565b5080602281905550807f93bb8edd35984706eee1b92541281f7f62d33c01c5b2ec0929a113603bd21d6660405160405180910390a2807fec691f09f6924b27932253f85caf99bacc30360cc0e50a1cc4d2acc24601446660405160405180910390a250565b80601e60008573ffffffffffffffffffffffffffffffffffffffff1673ffffffffffffffffffffffffffffffffffffffff16815260200190815260200160002054101561204757600080fd5b7f000000000000000000000000000000000000000000000000000000000000000073ffffffffffffffffffffffffffffffffffffffff166379cc679083836040518363ffffffff1660e01b81526004016120a29291906164a2565b600060405180830381600087803b1580156120bc57600080fd5b505af11580156120d0573d6000803e3d6000fd5b505050506120e98160235461567d90919063ffffffff16565b60238190555061214181601e60008673ffffffffffffffffffffffffffffffffffffffff1673ffffffffffffffffffffffffffffffffffffffff1681526020019081526020016000205461567d90919063ffffffff16565b601e60008573ffffffffffffffffffffffffffffffffffffffff1673ffffffffffffffffffffffffffffffffffffffff168152602001908152602001600020819055508273ffffffffffffffffffffffffffffffffffffffff167f000000000000000000000000000000000000000000000000000000000000000073ffffffffffffffffffffffffffffffffffffffff167f79438dda441210455d019d26bbba108990fa0515e15282f7a7842d0875828a628384601e60008973ffffffffffffffffffffffffffffffffffffffff1673ffffffffffffffffffffffffffffffffffffffff16815260200190815260200160002054604051612244939291906166ac565b60405180910390a3505050565b60215481565b6007818154811061226757600080fd5b906000526020600020016000915054906101000a900473ffffffffffffffffffffffffffffffffffffffff1681565b7f000000000000000000000000000000000000000000000000000000000000000081565b601c6020528060005260406000206000915054906101000a900460ff1681565b6122e261572f565b73ffffffffffffffffffffffffffffffffffffffff1661230061271b565b73ffffffffffffffffffffffffffffffffffffffff1614612356576040517f08c379a000000000000000000000000000000000000000000000000000000000815260040161234d906165a8565b60405180910390fd5b80602060006101000a81548173ffffffffffffffffffffffffffffffffffffffff021916908373ffffffffffffffffffffffffffffffffffffffff16021790555050565b601e6020528060005260406000206000915090505481565b60026020528060005260406000206000915054906101000a900460ff1681565b601c60003373ffffffffffffffffffffffffffffffffffffffff1673ffffffffffffffffffffffffffffffffffffffff16815260200190815260200160002060009054906101000a900460ff1661245e576040517f08c379a000000000000000000000000000000000000000000000000000000000815260040161245590616588565b60405180910390fd5b612466611419565b8111156124a8576040517f08c379a000000000000000000000000000000000000000000000000000000000815260040161249f90616568565b60405180910390fd5b7f000000000000000000000000000000000000000000000000000000000000000073ffffffffffffffffffffffffffffffffffffffff166340c10f1983836040518363ffffffff1660e01b81526004016125039291906164a2565b600060405180830381600087803b15801561251d57600080fd5b505af1158015612531573d6000803e3d6000fd5b505050508173ffffffffffffffffffffffffffffffffffffffff163373ffffffffffffffffffffffffffffffffffffffff167ffa8ccab40e7da8146c2304cd0950334fd30a6ba093abe86261aa13911fed849c836040516125929190616668565b60405180910390a35050565b600481815481106125ae57600080fd5b906000526020600020016000915054906101000a900473ffffffffffffffffffffffffffffffffffffffff1681565b601481815481106125ed57600080fd5b906000526020600020016000915054906101000a900473ffffffffffffffffffffffffffffffffffffffff1681565b61262461572f565b73ffffffffffffffffffffffffffffffffffffffff1661264261271b565b73ffffffffffffffffffffffffffffffffffffffff1614612698576040517f08c379a000000000000000000000000000000000000000000000000000000000815260040161268f906165a8565b60405180910390fd5b6126a26000615737565b565b60036020528060005260406000206000915090505481565b601781815481106126cc57600080fd5b906000526020600020016000915054906101000a900473ffffffffffffffffffffffffffffffffffffffff1681565b60086020528060005260406000206000915054906101000a900460ff1681565b60008060009054906101000a900473ffffffffffffffffffffffffffffffffffffffff16905090565b600c6020528060005260406000206000915090505481565b600d818154811061276c57600080fd5b906000526020600020016000915054906101000a900473ffffffffffffffffffffffffffffffffffffffff1681565b60225481565b60066020528060005260406000206000915090505481565b602060009054906101000a900473ffffffffffffffffffffffffffffffffffffffff1681565b600e6020528060005260406000206000915054906101000a900460ff1681565b600b6020528060005260406000206000915054906101000a900460ff1681565b60166020528060005260406000206000915090505481565b60136020528060005260406000206000915090505481565b601b818154811061285f57600080fd5b906000526020600020016000915054906101000a900473ffffffffffffffffffffffffffffffffffffffff1681565b6000600260008473ffffffffffffffffffffffffffffffffffffffff1673ffffffffffffffffffffffffffffffffffffffff16815260200190815260200160002060009054906101000a900460ff16806129315750600b60008473ffffffffffffffffffffffffffffffffffffffff1673ffffffffffffffffffffffffffffffffffffffff16815260200190815260200160002060009054906101000a900460ff165b612970576040517f08c379a000000000000000000000000000000000000000000000000000000000815260040161296790616648565b60405180910390fd5b61299d3330868673ffffffffffffffffffffffffffffffffffffffff166157fb909392919063ffffffff16565b600260008473ffffffffffffffffffffffffffffffffffffffff1673ffffffffffffffffffffffffffffffffffffffff16815260200190815260200160002060009054906101000a900460ff1615612a8057600560003373ffffffffffffffffffffffffffffffffffffffff1673ffffffffffffffffffffffffffffffffffffffff16815260200190815260200160002060009054906101000a900460ff16612a7b576040517f08c379a0000000000000000000000000000000000000000000000000000000008152600401612a7290616588565b60405180910390fd5b612b0d565b600e60003373ffffffffffffffffffffffffffffffffffffffff1673ffffffffffffffffffffffffffffffffffffffff16815260200190815260200160002060009054906101000a900460ff16612b0c576040517f08c379a0000000000000000000000000000000000000000000000000000000008152600401612b0390616588565b60405180910390fd5b5b6000612b198486612d18565b9050612b2e838261567d90919063ffffffff16565b91507f000000000000000000000000000000000000000000000000000000000000000073ffffffffffffffffffffffffffffffffffffffff166340c10f1933846040518363ffffffff1660e01b8152600401612b8b9291906164a2565b600060405180830381600087803b158015612ba557600080fd5b505af1158015612bb9573d6000803e3d6000fd5b50505050612bd28160225461571990919063ffffffff16565b6022819055506022547f93bb8edd35984706eee1b92541281f7f62d33c01c5b2ec0929a113603bd21d6660405160405180910390a28373ffffffffffffffffffffffffffffffffffffffff167f90890809c654f11d6e72a28fa60149770a0d11ec6c92319d6ceb2bb0a4ea1a158683604051612c4f929190616683565b60405180910390a2509392505050565b601f60009054906101000a900473ffffffffffffffffffffffffffffffffffffffff1681565b60096020528060005260406000206000915090505481565b60196020528060005260406000206000915090505481565b60018181548110612cc557600080fd5b906000526020600020016000915054906101000a900473ffffffffffffffffffffffffffffffffffffffff1681565b7f000000000000000000000000000000000000000000000000000000000000000081565b6000600260008473ffffffffffffffffffffffffffffffffffffffff1673ffffffffffffffffffffffffffffffffffffffff16815260200190815260200160002060009054906101000a900460ff1615612eca57612ec38373ffffffffffffffffffffffffffffffffffffffff1663313ce5676040518163ffffffff1660e01b815260040160206040518083038186803b158015612db557600080fd5b505afa158015612dc9573d6000803e3d6000fd5b505050506040513d601f19601f82011682018060405250810190612ded919061601e565b600a612df991906167ef565b612eb57f000000000000000000000000000000000000000000000000000000000000000073ffffffffffffffffffffffffffffffffffffffff1663313ce5676040518163ffffffff1660e01b815260040160206040518083038186803b158015612e6257600080fd5b505afa158015612e76573d6000803e3d6000fd5b505050506040513d601f19601f82011682018060405250810190612e9a919061601e565b600a612ea691906167ef565b8561588490919063ffffffff16565b61589a90919063ffffffff16565b905061300a565b600b60008473ffffffffffffffffffffffffffffffffffffffff1673ffffffffffffffffffffffffffffffffffffffff16815260200190815260200160002060009054906101000a900460ff161561300957601060008473ffffffffffffffffffffffffffffffffffffffff1673ffffffffffffffffffffffffffffffffffffffff16815260200190815260200160002060009054906101000a900473ffffffffffffffffffffffffffffffffffffffff1673ffffffffffffffffffffffffffffffffffffffff16634249719f84846040518363ffffffff1660e01b8152600401612fb69291906164a2565b60206040518083038186803b158015612fce57600080fd5b505afa158015612fe2573d6000803e3d6000fd5b505050506040513d601f19601f820116820180604052508101906130069190615f6a565b90505b5b92915050565b601860003373ffffffffffffffffffffffffffffffffffffffff1673ffffffffffffffffffffffffffffffffffffffff16815260200190815260200160002060009054906101000a900460ff1661309c576040517f08c379a000000000000000000000000000000000000000000000000000000000815260040161309390616588565b60405180910390fd5b600260008273ffffffffffffffffffffffffffffffffffffffff1673ffffffffffffffffffffffffffffffffffffffff16815260200190815260200160002060009054906101000a900460ff16613128576040517f08c379a000000000000000000000000000000000000000000000000000000000815260040161311f90616648565b60405180910390fd5b6131553330848473ffffffffffffffffffffffffffffffffffffffff166157fb909392919063ffffffff16565b60006131618284612d18565b90506131b581601a60003373ffffffffffffffffffffffffffffffffffffffff1673ffffffffffffffffffffffffffffffffffffffff1681526020019081526020016000205461567d90919063ffffffff16565b601a60003373ffffffffffffffffffffffffffffffffffffffff1673ffffffffffffffffffffffffffffffffffffffff1681526020019081526020016000208190555061320d8160245461567d90919063ffffffff16565b6024819055506132288160225461571990919063ffffffff16565b6022819055506022547f93bb8edd35984706eee1b92541281f7f62d33c01c5b2ec0929a113603bd21d6660405160405180910390a28173ffffffffffffffffffffffffffffffffffffffff163373ffffffffffffffffffffffffffffffffffffffff167fc6d98eecfc9c78ab62c89a82950079b54874749f1f6f24090f7acc758bc2f30985846040516132bc929190616683565b60405180910390a3505050565b60235481565b60156020528060005260406000206000915054906101000a900460ff1681565b60006132f961572f565b73ffffffffffffffffffffffffffffffffffffffff1661331761271b565b73ffffffffffffffffffffffffffffffffffffffff161461336d576040517f08c379a0000000000000000000000000000000000000000000000000000000008152600401613364906165a8565b60405180910390fd5b600073ffffffffffffffffffffffffffffffffffffffff168273ffffffffffffffffffffffffffffffffffffffff1614156133a757600080fd5b600060098111156133e1577f4e487b7100000000000000000000000000000000000000000000000000000000600052602160045260246000fd5b83600981111561341a577f4e487b7100000000000000000000000000000000000000000000000000000000600052602160045260246000fd5b141561349b576134537f00000000000000000000000000000000000000000000000000000000000000004361571990919063ffffffff16565b600660008473ffffffffffffffffffffffffffffffffffffffff1673ffffffffffffffffffffffffffffffffffffffff16815260200190815260200160002081905550613d29565b600160098111156134d5577f4e487b7100000000000000000000000000000000000000000000000000000000600052602160045260246000fd5b83600981111561350e577f4e487b7100000000000000000000000000000000000000000000000000000000600052602160045260246000fd5b141561358f576135477f00000000000000000000000000000000000000000000000000000000000000004361571990919063ffffffff16565b600960008473ffffffffffffffffffffffffffffffffffffffff1673ffffffffffffffffffffffffffffffffffffffff16815260200190815260200160002081905550613d28565b600260098111156135c9577f4e487b7100000000000000000000000000000000000000000000000000000000600052602160045260246000fd5b836009811115613602577f4e487b7100000000000000000000000000000000000000000000000000000000600052602160045260246000fd5b14156136835761363b7f00000000000000000000000000000000000000000000000000000000000000004361571990919063ffffffff16565b600360008473ffffffffffffffffffffffffffffffffffffffff1673ffffffffffffffffffffffffffffffffffffffff16815260200190815260200160002081905550613d27565b600360098111156136bd577f4e487b7100000000000000000000000000000000000000000000000000000000600052602160045260246000fd5b8360098111156136f6577f4e487b7100000000000000000000000000000000000000000000000000000000600052602160045260246000fd5b141561378a5761374261373360027f000000000000000000000000000000000000000000000000000000000000000061588490919063ffffffff16565b4361571990919063ffffffff16565b601360008473ffffffffffffffffffffffffffffffffffffffff1673ffffffffffffffffffffffffffffffffffffffff16815260200190815260200160002081905550613d26565b600460098111156137c4577f4e487b7100000000000000000000000000000000000000000000000000000000600052602160045260246000fd5b8360098111156137fd577f4e487b7100000000000000000000000000000000000000000000000000000000600052602160045260246000fd5b141561387e576138367f00000000000000000000000000000000000000000000000000000000000000004361571990919063ffffffff16565b600f60008473ffffffffffffffffffffffffffffffffffffffff1673ffffffffffffffffffffffffffffffffffffffff16815260200190815260200160002081905550613d25565b600560098111156138b8577f4e487b7100000000000000000000000000000000000000000000000000000000600052602160045260246000fd5b8360098111156138f1577f4e487b7100000000000000000000000000000000000000000000000000000000600052602160045260246000fd5b14156139725761392a7f00000000000000000000000000000000000000000000000000000000000000004361571990919063ffffffff16565b600c60008473ffffffffffffffffffffffffffffffffffffffff1673ffffffffffffffffffffffffffffffffffffffff16815260200190815260200160002081905550613d24565b600660098111156139ac577f4e487b7100000000000000000000000000000000000000000000000000000000600052602160045260246000fd5b8360098111156139e5577f4e487b7100000000000000000000000000000000000000000000000000000000600052602160045260246000fd5b1415613a7957613a31613a2260027f000000000000000000000000000000000000000000000000000000000000000061588490919063ffffffff16565b4361571990919063ffffffff16565b601660008473ffffffffffffffffffffffffffffffffffffffff1673ffffffffffffffffffffffffffffffffffffffff16815260200190815260200160002081905550613d23565b60076009811115613ab3577f4e487b7100000000000000000000000000000000000000000000000000000000600052602160045260246000fd5b836009811115613aec577f4e487b7100000000000000000000000000000000000000000000000000000000600052602160045260246000fd5b1415613b6d57613b257f00000000000000000000000000000000000000000000000000000000000000004361571990919063ffffffff16565b601960008473ffffffffffffffffffffffffffffffffffffffff1673ffffffffffffffffffffffffffffffffffffffff16815260200190815260200160002081905550613d22565b60086009811115613ba7577f4e487b7100000000000000000000000000000000000000000000000000000000600052602160045260246000fd5b836009811115613be0577f4e487b7100000000000000000000000000000000000000000000000000000000600052602160045260246000fd5b1415613c6157613c197f00000000000000000000000000000000000000000000000000000000000000004361571990919063ffffffff16565b601d60008473ffffffffffffffffffffffffffffffffffffffff1673ffffffffffffffffffffffffffffffffffffffff16815260200190815260200160002081905550613d21565b600980811115613c9a577f4e487b7100000000000000000000000000000000000000000000000000000000600052602160045260246000fd5b836009811115613cd3577f4e487b7100000000000000000000000000000000000000000000000000000000600052602160045260246000fd5b1415613d1757613d0c7f00000000000000000000000000000000000000000000000000000000000000004361571990919063ffffffff16565b602181905550613d20565b60009050613d9e565b5b5b5b5b5b5b5b5b5b826009811115613d62577f4e487b7100000000000000000000000000000000000000000000000000000000600052602160045260246000fd5b7f0e4f2c4b5bc209d509bc3d49348c787fefadc66a79351b470599ac0f5be52eaf83604051613d919190616427565b60405180910390a2600190505b92915050565b60126020528060005260406000206000915054906101000a900460ff1681565b60186020528060005260406000206000915054906101000a900460ff1681565b613dec61572f565b73ffffffffffffffffffffffffffffffffffffffff16613e0a61271b565b73ffffffffffffffffffffffffffffffffffffffff1614613e60576040517f08c379a0000000000000000000000000000000000000000000000000000000008152600401613e57906165a8565b60405180910390fd5b600073ffffffffffffffffffffffffffffffffffffffff168173ffffffffffffffffffffffffffffffffffffffff161415613ed0576040517f08c379a0000000000000000000000000000000000000000000000000000000008152600401613ec790616528565b60405180910390fd5b613ed981615737565b50565b602060009054906101000a900473ffffffffffffffffffffffffffffffffffffffff1673ffffffffffffffffffffffffffffffffffffffff163373ffffffffffffffffffffffffffffffffffffffff1614613f3657600080fd5b7f000000000000000000000000000000000000000000000000000000000000000073ffffffffffffffffffffffffffffffffffffffff166340c10f1983836040518363ffffffff1660e01b8152600401613f919291906164a2565b600060405180830381600087803b158015613fab57600080fd5b505af1158015613fbf573d6000803e3d6000fd5b50505050613fd88160235461571990919063ffffffff16565b60238190555061403081601e60008573ffffffffffffffffffffffffffffffffffffffff1673ffffffffffffffffffffffffffffffffffffffff1681526020019081526020016000205461571990919063ffffffff16565b601e60008473ffffffffffffffffffffffffffffffffffffffff1673ffffffffffffffffffffffffffffffffffffffff168152602001908152602001600020819055508173ffffffffffffffffffffffffffffffffffffffff167f000000000000000000000000000000000000000000000000000000000000000073ffffffffffffffffffffffffffffffffffffffff167f123b6119d7c7bfa290147de5eb6536c85b756f12c308d74d342abc27368de5a68384601e60008873ffffffffffffffffffffffffffffffffffffffff1673ffffffffffffffffffffffffffffffffffffffff16815260200190815260200160002054604051614133939291906166ac565b60405180910390a35050565b601d6020528060005260406000206000915090505481565b600061416161572f565b73ffffffffffffffffffffffffffffffffffffffff1661417f61271b565b73ffffffffffffffffffffffffffffffffffffffff16146141d5576040517f08c379a00000000000000000000000000000000000000000000000000000000081526004016141cc906165a8565b60405180910390fd5b600073ffffffffffffffffffffffffffffffffffffffff168373ffffffffffffffffffffffffffffffffffffffff16141561420f57600080fd5b600080600981111561424a577f4e487b7100000000000000000000000000000000000000000000000000000000600052602160045260246000fd5b856009811115614283577f4e487b7100000000000000000000000000000000000000000000000000000000600052602160045260246000fd5b14156144005761429660066005866158b0565b15614354576000600660008673ffffffffffffffffffffffffffffffffffffffff1673ffffffffffffffffffffffffffffffffffffffff168152602001908152602001600020819055506142eb600485615a1a565b614353576004849080600181540180825580915050600190039060005260206000200160009091909190916101000a81548173ffffffffffffffffffffffffffffffffffffffff021916908373ffffffffffffffffffffffffffffffffffffffff1602179055505b5b600560008573ffffffffffffffffffffffffffffffffffffffff1673ffffffffffffffffffffffffffffffffffffffff16815260200190815260200160002060009054906101000a900460ff1615905080600560008673ffffffffffffffffffffffffffffffffffffffff1673ffffffffffffffffffffffffffffffffffffffff16815260200190815260200160002060006101000a81548160ff0219169083151502179055506155a1565b6001600981111561443a577f4e487b7100000000000000000000000000000000000000000000000000000000600052602160045260246000fd5b856009811115614473577f4e487b7100000000000000000000000000000000000000000000000000000000600052602160045260246000fd5b14156145f05761448660096008866158b0565b15614544576000600960008673ffffffffffffffffffffffffffffffffffffffff1673ffffffffffffffffffffffffffffffffffffffff168152602001908152602001600020819055506144db600785615a1a565b614543576007849080600181540180825580915050600190039060005260206000200160009091909190916101000a81548173ffffffffffffffffffffffffffffffffffffffff021916908373ffffffffffffffffffffffffffffffffffffffff1602179055505b5b600860008573ffffffffffffffffffffffffffffffffffffffff1673ffffffffffffffffffffffffffffffffffffffff16815260200190815260200160002060009054906101000a900460ff1615905080600860008673ffffffffffffffffffffffffffffffffffffffff1673ffffffffffffffffffffffffffffffffffffffff16815260200190815260200160002060006101000a81548160ff0219169083151502179055506155a0565b6002600981111561462a577f4e487b7100000000000000000000000000000000000000000000000000000000600052602160045260246000fd5b856009811115614663577f4e487b7100000000000000000000000000000000000000000000000000000000600052602160045260246000fd5b14156147e05761467660036002866158b0565b15614734576000600360008673ffffffffffffffffffffffffffffffffffffffff1673ffffffffffffffffffffffffffffffffffffffff168152602001908152602001600020819055506146cb600185615a1a565b614733576001849080600181540180825580915050600190039060005260206000200160009091909190916101000a81548173ffffffffffffffffffffffffffffffffffffffff021916908373ffffffffffffffffffffffffffffffffffffffff1602179055505b5b600260008573ffffffffffffffffffffffffffffffffffffffff1673ffffffffffffffffffffffffffffffffffffffff16815260200190815260200160002060009054906101000a900460ff1615905080600260008673ffffffffffffffffffffffffffffffffffffffff1673ffffffffffffffffffffffffffffffffffffffff16815260200190815260200160002060006101000a81548160ff02191690831515021790555061559f565b6003600981111561481a577f4e487b7100000000000000000000000000000000000000000000000000000000600052602160045260246000fd5b856009811115614853577f4e487b7100000000000000000000000000000000000000000000000000000000600052602160045260246000fd5b1415614a335761486660136012866158b0565b15614987576011849080600181540180825580915050600190039060005260206000200160009091909190916101000a81548173ffffffffffffffffffffffffffffffffffffffff021916908373ffffffffffffffffffffffffffffffffffffffff1602179055506000601360008673ffffffffffffffffffffffffffffffffffffffff1673ffffffffffffffffffffffffffffffffffffffff1681526020019081526020016000208190555061491e601185615a1a565b614986576011849080600181540180825580915050600190039060005260206000200160009091909190916101000a81548173ffffffffffffffffffffffffffffffffffffffff021916908373ffffffffffffffffffffffffffffffffffffffff1602179055505b5b601260008573ffffffffffffffffffffffffffffffffffffffff1673ffffffffffffffffffffffffffffffffffffffff16815260200190815260200160002060009054906101000a900460ff1615905080601260008673ffffffffffffffffffffffffffffffffffffffff1673ffffffffffffffffffffffffffffffffffffffff16815260200190815260200160002060006101000a81548160ff02191690831515021790555061559e565b60046009811115614a6d577f4e487b7100000000000000000000000000000000000000000000000000000000600052602160045260246000fd5b856009811115614aa6577f4e487b7100000000000000000000000000000000000000000000000000000000600052602160045260246000fd5b1415614c8657614ab9600f600e866158b0565b15614bda57600d849080600181540180825580915050600190039060005260206000200160009091909190916101000a81548173ffffffffffffffffffffffffffffffffffffffff021916908373ffffffffffffffffffffffffffffffffffffffff1602179055506000600f60008673ffffffffffffffffffffffffffffffffffffffff1673ffffffffffffffffffffffffffffffffffffffff16815260200190815260200160002081905550614b71600d85615a1a565b614bd957600d849080600181540180825580915050600190039060005260206000200160009091909190916101000a81548173ffffffffffffffffffffffffffffffffffffffff021916908373ffffffffffffffffffffffffffffffffffffffff1602179055505b5b600e60008573ffffffffffffffffffffffffffffffffffffffff1673ffffffffffffffffffffffffffffffffffffffff16815260200190815260200160002060009054906101000a900460ff1615905080600e60008673ffffffffffffffffffffffffffffffffffffffff1673ffffffffffffffffffffffffffffffffffffffff16815260200190815260200160002060006101000a81548160ff02191690831515021790555061559d565b60056009811115614cc0577f4e487b7100000000000000000000000000000000000000000000000000000000600052602160045260246000fd5b856009811115614cf9577f4e487b7100000000000000000000000000000000000000000000000000000000600052602160045260246000fd5b1415614ef457614d0c600c600b866158b0565b15614dca576000600c60008673ffffffffffffffffffffffffffffffffffffffff1673ffffffffffffffffffffffffffffffffffffffff16815260200190815260200160002081905550614d61600a85615a1a565b614dc957600a849080600181540180825580915050600190039060005260206000200160009091909190916101000a81548173ffffffffffffffffffffffffffffffffffffffff021916908373ffffffffffffffffffffffffffffffffffffffff1602179055505b5b600b60008573ffffffffffffffffffffffffffffffffffffffff1673ffffffffffffffffffffffffffffffffffffffff16815260200190815260200160002060009054906101000a900460ff1615905080600b60008673ffffffffffffffffffffffffffffffffffffffff1673ffffffffffffffffffffffffffffffffffffffff16815260200190815260200160002060006101000a81548160ff02191690831515021790555082601060008673ffffffffffffffffffffffffffffffffffffffff1673ffffffffffffffffffffffffffffffffffffffff16815260200190815260200160002060006101000a81548173ffffffffffffffffffffffffffffffffffffffff021916908373ffffffffffffffffffffffffffffffffffffffff16021790555061559c565b60066009811115614f2e577f4e487b7100000000000000000000000000000000000000000000000000000000600052602160045260246000fd5b856009811115614f67577f4e487b7100000000000000000000000000000000000000000000000000000000600052602160045260246000fd5b14156150e457614f7a60166015866158b0565b15615038576000601660008673ffffffffffffffffffffffffffffffffffffffff1673ffffffffffffffffffffffffffffffffffffffff16815260200190815260200160002081905550614fcf601485615a1a565b615037576014849080600181540180825580915050600190039060005260206000200160009091909190916101000a81548173ffffffffffffffffffffffffffffffffffffffff021916908373ffffffffffffffffffffffffffffffffffffffff1602179055505b5b601560008573ffffffffffffffffffffffffffffffffffffffff1673ffffffffffffffffffffffffffffffffffffffff16815260200190815260200160002060009054906101000a900460ff1615905080601560008673ffffffffffffffffffffffffffffffffffffffff1673ffffffffffffffffffffffffffffffffffffffff16815260200190815260200160002060006101000a81548160ff02191690831515021790555061559b565b6007600981111561511e577f4e487b7100000000000000000000000000000000000000000000000000000000600052602160045260246000fd5b856009811115615157577f4e487b7100000000000000000000000000000000000000000000000000000000600052602160045260246000fd5b14156152d45761516a60196018866158b0565b15615228576000601960008673ffffffffffffffffffffffffffffffffffffffff1673ffffffffffffffffffffffffffffffffffffffff168152602001908152602001600020819055506151bf601785615a1a565b615227576017849080600181540180825580915050600190039060005260206000200160009091909190916101000a81548173ffffffffffffffffffffffffffffffffffffffff021916908373ffffffffffffffffffffffffffffffffffffffff1602179055505b5b601860008573ffffffffffffffffffffffffffffffffffffffff1673ffffffffffffffffffffffffffffffffffffffff16815260200190815260200160002060009054906101000a900460ff1615905080601860008673ffffffffffffffffffffffffffffffffffffffff1673ffffffffffffffffffffffffffffffffffffffff16815260200190815260200160002060006101000a81548160ff02191690831515021790555061559a565b6008600981111561530e577f4e487b7100000000000000000000000000000000000000000000000000000000600052602160045260246000fd5b856009811115615347577f4e487b7100000000000000000000000000000000000000000000000000000000600052602160045260246000fd5b14156154c45761535a601d601c866158b0565b15615418576000601d60008673ffffffffffffffffffffffffffffffffffffffff1673ffffffffffffffffffffffffffffffffffffffff168152602001908152602001600020819055506153af601b85615a1a565b61541757601b849080600181540180825580915050600190039060005260206000200160009091909190916101000a81548173ffffffffffffffffffffffffffffffffffffffff021916908373ffffffffffffffffffffffffffffffffffffffff1602179055505b5b601c60008573ffffffffffffffffffffffffffffffffffffffff1673ffffffffffffffffffffffffffffffffffffffff16815260200190815260200160002060009054906101000a900460ff1615905080601c60008673ffffffffffffffffffffffffffffffffffffffff1673ffffffffffffffffffffffffffffffffffffffff16815260200190815260200160002060006101000a81548160ff021916908315150217905550615599565b6009808111156154fd577f4e487b7100000000000000000000000000000000000000000000000000000000600052602160045260246000fd5b856009811115615536577f4e487b7100000000000000000000000000000000000000000000000000000000600052602160045260246000fd5b141561558e57600060218190555083601f60006101000a81548173ffffffffffffffffffffffffffffffffffffffff021916908373ffffffffffffffffffffffffffffffffffffffff16021790555060019050615598565b6000915050615619565b5b5b5b5b5b5b5b5b5b8460098111156155da577f4e487b7100000000000000000000000000000000000000000000000000000000600052602160045260246000fd5b7f0dcacb7e392f3d6a216ed2660e3dcfd40b7793d33591db2ba185a6b8e44fc477858360405161560b929190616479565b60405180910390a260019150505b9392505050565b60245481565b600a818154811061563657600080fd5b906000526020600020016000915054906101000a900473ffffffffffffffffffffffffffffffffffffffff1681565b600f6020528060005260406000206000915090505481565b6000818361568b9190616967565b905092915050565b6157148363a9059cbb60e01b84846040516024016156b29291906164a2565b604051602081830303815290604052907bffffffffffffffffffffffffffffffffffffffffffffffffffffffff19166020820180517bffffffffffffffffffffffffffffffffffffffffffffffffffffffff8381831617835250505050615aee565b505050565b600081836157279190616715565b905092915050565b600033905090565b60008060009054906101000a900473ffffffffffffffffffffffffffffffffffffffff169050816000806101000a81548173ffffffffffffffffffffffffffffffffffffffff021916908373ffffffffffffffffffffffffffffffffffffffff1602179055508173ffffffffffffffffffffffffffffffffffffffff168173ffffffffffffffffffffffffffffffffffffffff167f8be0079c531659141344cd1fd0a4f28419497f9722a3daafe3b4186f6b6457e060405160405180910390a35050565b61587e846323b872dd60e01b85858560405160240161581c93929190616442565b604051602081830303815290604052907bffffffffffffffffffffffffffffffffffffffffffffffffffffffff19166020820180517bffffffffffffffffffffffffffffffffffffffffffffffffffffffff8381831617835250505050615aee565b50505050565b60008183615892919061690d565b905092915050565b600081836158a8919061676b565b905092915050565b60008260008373ffffffffffffffffffffffffffffffffffffffff1673ffffffffffffffffffffffffffffffffffffffff16815260200190815260200160002060009054906101000a900460ff16615a0e5760008460008473ffffffffffffffffffffffffffffffffffffffff1673ffffffffffffffffffffffffffffffffffffffff168152602001908152602001600020541415615984576040517f08c379a000000000000000000000000000000000000000000000000000000000815260040161597b906165c8565b60405180910390fd5b438460008473ffffffffffffffffffffffffffffffffffffffff1673ffffffffffffffffffffffffffffffffffffffff168152602001908152602001600020541115615a05576040517f08c379a00000000000000000000000000000000000000000000000000000000081526004016159fc90616508565b60405180910390fd5b60019050615a13565b600090505b9392505050565b600080600090505b8380549050811015615ae2578273ffffffffffffffffffffffffffffffffffffffff16848281548110615a7e577f4e487b7100000000000000000000000000000000000000000000000000000000600052603260045260246000fd5b9060005260206000200160009054906101000a900473ffffffffffffffffffffffffffffffffffffffff1673ffffffffffffffffffffffffffffffffffffffff161415615acf576001915050615ae8565b8080615ada90616a23565b915050615a22565b50600090505b92915050565b6000615b50826040518060400160405280602081526020017f5361666545524332303a206c6f772d6c6576656c2063616c6c206661696c65648152508573ffffffffffffffffffffffffffffffffffffffff16615bb59092919063ffffffff16565b9050600081511115615bb05780806020019051810190615b709190615e8d565b615baf576040517f08c379a0000000000000000000000000000000000000000000000000000000008152600401615ba690616608565b60405180910390fd5b5b505050565b6060615bc48484600085615bcd565b90509392505050565b606082471015615c12576040517f08c379a0000000000000000000000000000000000000000000000000000000008152600401615c0990616548565b60405180910390fd5b615c1b85615ce1565b615c5a576040517f08c379a0000000000000000000000000000000000000000000000000000000008152600401615c51906165e8565b60405180910390fd5b6000808673ffffffffffffffffffffffffffffffffffffffff168587604051615c839190616410565b60006040518083038185875af1925050503d8060008114615cc0576040519150601f19603f3d011682016040523d82523d6000602084013e615cc5565b606091505b5091509150615cd5828286615cf4565b92505050949350505050565b600080823b905060008111915050919050565b60608315615d0457829050615d54565b600083511115615d175782518084602001fd5b816040517f08c379a0000000000000000000000000000000000000000000000000000000008152600401615d4b91906164e6565b60405180910390fd5b9392505050565b600081359050615d6a81616ae8565b92915050565b600081519050615d7f81616aff565b92915050565b600081359050615d9481616b16565b92915050565b600081359050615da981616b26565b92915050565b600081519050615dbe81616b26565b92915050565b600081519050615dd381616b3d565b92915050565b600060208284031215615deb57600080fd5b6000615df984828501615d5b565b91505092915050565b600080600060608486031215615e1757600080fd5b6000615e2586828701615d5b565b9350506020615e3686828701615d5b565b9250506040615e4786828701615d9a565b9150509250925092565b60008060408385031215615e6457600080fd5b6000615e7285828601615d5b565b9250506020615e8385828601615d9a565b9150509250929050565b600060208284031215615e9f57600080fd5b6000615ead84828501615d70565b91505092915050565b60008060408385031215615ec957600080fd5b6000615ed785828601615d85565b9250506020615ee885828601615d5b565b9150509250929050565b600080600060608486031215615f0757600080fd5b6000615f1586828701615d85565b9350506020615f2686828701615d5b565b9250506040615f3786828701615d5b565b9150509250925092565b600060208284031215615f5357600080fd5b6000615f6184828501615d9a565b91505092915050565b600060208284031215615f7c57600080fd5b6000615f8a84828501615daf565b91505092915050565b60008060408385031215615fa657600080fd5b6000615fb485828601615d9a565b9250506020615fc585828601615d5b565b9150509250929050565b600080600060608486031215615fe457600080fd5b6000615ff286828701615d9a565b935050602061600386828701615d5b565b925050604061601486828701615d9a565b9150509250925092565b60006020828403121561603057600080fd5b600061603e84828501615dc4565b91505092915050565b6160508161699b565b82525050565b61605f816169ad565b82525050565b6000616070826166e3565b61607a81856166f9565b935061608a8185602086016169f0565b80840191505092915050565b60006160a1826166ee565b6160ab8185616704565b93506160bb8185602086016169f0565b6160c481616aca565b840191505092915050565b60006160dc601183616704565b91507f5175657565206e6f7420657870697265640000000000000000000000000000006000830152602082019050919050565b600061611c602683616704565b91507f4f776e61626c653a206e6577206f776e657220697320746865207a65726f206160008301527f64647265737300000000000000000000000000000000000000000000000000006020830152604082019050919050565b6000616182602683616704565b91507f416464726573733a20696e73756666696369656e742062616c616e636520666f60008301527f722063616c6c00000000000000000000000000000000000000000000000000006020830152604082019050919050565b60006161e8601583616704565b91507f496e73756666696369656e7420726573657276657300000000000000000000006000830152602082019050919050565b6000616228600c83616704565b91507f4e6f7420617070726f76656400000000000000000000000000000000000000006000830152602082019050919050565b6000616268602083616704565b91507f4f776e61626c653a2063616c6c6572206973206e6f7420746865206f776e65726000830152602082019050919050565b60006162a8600a83616704565b91507f4d757374207175657565000000000000000000000000000000000000000000006000830152602082019050919050565b60006162e8601d83616704565b91507f416464726573733a2063616c6c20746f206e6f6e2d636f6e74726163740000006000830152602082019050919050565b6000616328602a83616704565b91507f5361666545524332303a204552433230206f7065726174696f6e20646964206e60008301527f6f742073756363656564000000000000000000000000000000000000000000006020830152604082019050919050565b600061638e601283616704565b91507f457863656564732064656274206c696d697400000000000000000000000000006000830152602082019050919050565b60006163ce600c83616704565b91507f4e6f7420616363657074656400000000000000000000000000000000000000006000830152602082019050919050565b61640a816169d9565b82525050565b600061641c8284616065565b915081905092915050565b600060208201905061643c6000830184616047565b92915050565b60006060820190506164576000830186616047565b6164646020830185616047565b6164716040830184616401565b949350505050565b600060408201905061648e6000830185616047565b61649b6020830184616056565b9392505050565b60006040820190506164b76000830185616047565b6164c46020830184616401565b9392505050565b60006020820190506164e06000830184616056565b92915050565b600060208201905081810360008301526165008184616096565b905092915050565b60006020820190508181036000830152616521816160cf565b9050919050565b600060208201905081810360008301526165418161610f565b9050919050565b6000602082019050818103600083015261656181616175565b9050919050565b60006020820190508181036000830152616581816161db565b9050919050565b600060208201905081810360008301526165a18161621b565b9050919050565b600060208201905081810360008301526165c18161625b565b9050919050565b600060208201905081810360008301526165e18161629b565b9050919050565b60006020820190508181036000830152616601816162db565b9050919050565b600060208201905081810360008301526166218161631b565b9050919050565b6000602082019050818103600083015261664181616381565b9050919050565b60006020820190508181036000830152616661816163c1565b9050919050565b600060208201905061667d6000830184616401565b92915050565b60006040820190506166986000830185616401565b6166a56020830184616401565b9392505050565b60006060820190506166c16000830186616401565b6166ce6020830185616401565b6166db6040830184616401565b949350505050565b600081519050919050565b600081519050919050565b600081905092915050565b600082825260208201905092915050565b6000616720826169d9565b915061672b836169d9565b9250827fffffffffffffffffffffffffffffffffffffffffffffffffffffffffffffffff038211156167605761675f616a6c565b5b828201905092915050565b6000616776826169d9565b9150616781836169d9565b92508261679157616790616a9b565b5b828204905092915050565b6000808291508390505b60018511156167e6578086048111156167c2576167c1616a6c565b5b60018516156167d15780820291505b80810290506167df85616adb565b94506167a6565b94509492505050565b60006167fa826169d9565b9150616805836169e3565b92506168327fffffffffffffffffffffffffffffffffffffffffffffffffffffffffffffffff848461683a565b905092915050565b60008261684a5760019050616906565b816168585760009050616906565b816001811461686e5760028114616878576168a7565b6001915050616906565b60ff84111561688a57616889616a6c565b5b8360020a9150848211156168a1576168a0616a6c565b5b50616906565b5060208310610133831016604e8410600b84101617156168dc5782820a9050838111156168d7576168d6616a6c565b5b616906565b6168e9848484600161679c565b92509050818404811115616900576168ff616a6c565b5b81810290505b9392505050565b6000616918826169d9565b9150616923836169d9565b9250817fffffffffffffffffffffffffffffffffffffffffffffffffffffffffffffffff048311821515161561695c5761695b616a6c565b5b828202905092915050565b6000616972826169d9565b915061697d836169d9565b9250828210156169905761698f616a6c565b5b828203905092915050565b60006169a6826169b9565b9050919050565b60008115159050919050565b600073ffffffffffffffffffffffffffffffffffffffff82169050919050565b6000819050919050565b600060ff82169050919050565b60005b83811015616a0e5780820151818401526020810190506169f3565b83811115616a1d576000848401525b50505050565b6000616a2e826169d9565b91507fffffffffffffffffffffffffffffffffffffffffffffffffffffffffffffffff821415616a6157616a60616a6c565b5b600182019050919050565b7f4e487b7100000000000000000000000000000000000000000000000000000000600052601160045260246000fd5b7f4e487b7100000000000000000000000000000000000000000000000000000000600052601260045260246000fd5b6000601f19601f8301169050919050565b60008160011c9050919050565b616af18161699b565b8114616afc57600080fd5b50565b616b08816169ad565b8114616b1357600080fd5b50565b600a8110616b2357600080fd5b50565b616b2f816169d9565b8114616b3a57600080fd5b50565b616b46816169e3565b8114616b5157600080fd5b5056fea2646970667358221220cbb56d5ef572d50399e09493fa2889c79dd5e754758e2945eb963aa58d4fd95c64736f6c63430008000033",
  "immutableReferences": {
    "4995": [
      {
        "length": 32,
        "start": 3466
      },
      {
        "length": 32,
        "start": 4036
      },
      {
        "length": 32,
        "start": 4353
      },
      {
        "length": 32,
        "start": 5158
      },
      {
        "length": 32,
        "start": 5428
      },
      {
        "length": 32,
        "start": 5768
      },
      {
        "length": 32,
        "start": 8265
      },
      {
        "length": 32,
        "start": 8605
      },
      {
        "length": 32,
        "start": 8856
      },
      {
        "length": 32,
        "start": 9386
      },
      {
        "length": 32,
        "start": 11058
      },
      {
        "length": 32,
        "start": 11774
      },
      {
        "length": 32,
        "start": 16184
      },
      {
        "length": 32,
        "start": 16524
      }
    ],
    "4997": [
      {
        "length": 32,
        "start": 11510
      },
      {
        "length": 32,
        "start": 13349
      },
      {
        "length": 32,
        "start": 13593
      },
      {
        "length": 32,
        "start": 13837
      },
      {
        "length": 32,
        "start": 14086
      },
      {
        "length": 32,
        "start": 14344
      },
      {
        "length": 32,
        "start": 14588
      },
      {
        "length": 32,
        "start": 14837
      },
      {
        "length": 32,
        "start": 15095
      },
      {
        "length": 32,
        "start": 15339
      },
      {
        "length": 32,
        "start": 15582
      }
    ]
  },
  "source": "// SPDX-License-Identifier: AGPL-3.0-or-later\npragma solidity 0.8.0;\n\nimport \"@openzeppelin/contracts/token/ERC20/ERC20.sol\";\nimport \"@openzeppelin/contracts/token/ERC20/utils/SafeERC20.sol\";\nimport \"@openzeppelin/contracts/utils/math/SafeMath.sol\";\nimport \"@openzeppelin/contracts/access/Ownable.sol\";\nimport \"./util/ERC20Mintable.sol\";\nimport \"./AthertonModels.sol\";\n\n// TODO-hightlight :: main logic\n\ncontract AthertonTreasury is Ownable {\n\n    using SafeMath for uint;\n    using SafeERC20 for IERC20;\n\n    event Deposit( address indexed token, uint amount, uint value );\n    event Withdrawal( address indexed token, uint amount, uint value );\n    event CreateDebt( address indexed debtor, address indexed token, uint amount, uint value );\n    event RepayDebt( address indexed debtor, address indexed token, uint amount, uint value );\n    event ReservesManaged( address indexed token, uint amount );\n    event ReservesUpdated( uint indexed totalReserves );\n    event ReservesAudited( uint indexed totalReserves );\n    event RewardsMinted( address indexed caller, address indexed recipient, uint amount );\n    event ChangeQueued( MANAGING indexed managing, address queued );\n    event ChangeActivated( MANAGING indexed managing, address activated, bool result );\n    event IncurUnsecured( address indexed token, address indexed borrower, uint amount, uint value, uint balance );\n    event RepayUnsecured( address indexed token, address indexed borrower, uint amount, uint value, uint balance );\n\n    enum MANAGING { RESERVEDEPOSITOR, RESERVESPENDER, RESERVETOKEN, RESERVEMANAGER, LIQUIDITYDEPOSITOR, LIQUIDITYTOKEN, LIQUIDITYMANAGER, DEBTOR, REWARDMANAGER, SATHER }\n\n    address public immutable ATHER;\n    uint public immutable blocksNeededForQueue;\n\n    address[] public reserveTokens; // Push only, beware false-positives.\n    mapping( address => bool ) public isReserveToken;\n    mapping( address => uint ) public reserveTokenQueue; // Delays changes to mapping.\n\n    address[] public reserveDepositors; // Push only, beware false-positives. Only for viewing.\n    mapping( address => bool ) public isReserveDepositor;\n    mapping( address => uint ) public reserveDepositorQueue; // Delays changes to mapping.\n\n    address[] public reserveSpenders; // Push only, beware false-positives. Only for viewing.\n    mapping( address => bool ) public isReserveSpender;\n    mapping( address => uint ) public reserveSpenderQueue; // Delays changes to mapping.\n\n    address[] public liquidityTokens; // Push only, beware false-positives.\n    mapping( address => bool ) public isLiquidityToken;\n    mapping( address => uint ) public LiquidityTokenQueue; // Delays changes to mapping.\n\n    address[] public liquidityDepositors; // Push only, beware false-positives. Only for viewing.\n    mapping( address => bool ) public isLiquidityDepositor;\n    mapping( address => uint ) public LiquidityDepositorQueue; // Delays changes to mapping.\n\n    mapping( address => address ) public bondCalculator; // bond calculator for liquidity token\n\n    address[] public reserveManagers; // Push only, beware false-positives. Only for viewing.\n    mapping( address => bool ) public isReserveManager;\n    mapping( address => uint ) public ReserveManagerQueue; // Delays changes to mapping.\n\n    address[] public liquidityManagers; // Push only, beware false-positives. Only for viewing.\n    mapping( address => bool ) public isLiquidityManager;\n    mapping( address => uint ) public LiquidityManagerQueue; // Delays changes to mapping.\n\n    address[] public debtors; // Push only, beware false-positives. Only for viewing.\n    mapping( address => bool ) public isDebtor;\n    mapping( address => uint ) public debtorQueue; // Delays changes to mapping.\n    mapping( address => uint ) public debtorBalance;\n\n    address[] public rewardManagers; // Push only, beware false-positives. Only for viewing.\n    mapping( address => bool ) public isRewardManager;\n    mapping( address => uint ) public rewardManagerQueue; // Delays changes to mapping.\n\n    mapping( address => uint ) public unsecuredLoans; // No-collateral loans (very highly risky)\n\n    address public sATHER;\n    address public DAO; // governace controller\n    uint public sATHERQueue; // Delays change to sATHER address\n    \n    uint256 public totalReserves; // Risk-free value of all assets\n    uint256 public totalUnsecured; // Total unsecured ATHERS (very highly risky)\n    uint256 public totalDebt;\n\n    constructor (\n        address _DAO,\n        address _ATHER,\n        uint _blocksNeededForQueue\n    ) {\n        require( _DAO != address(0) );\n        DAO = _DAO;\n\n        require( _ATHER != address(0) );\n        ATHER = _ATHER;\n\n        blocksNeededForQueue = _blocksNeededForQueue;\n    }\n\n    /**\n        @notice allow approved address to deposit an asset for ATHER\n        @param _amount uint\n        @param _token address\n        @param _profit uint\n        @return send_ uint\n     */\n    function deposit( uint _amount, address _token, uint _profit ) external returns ( uint send_ ) {\n        require( isReserveToken[ _token ] || isLiquidityToken[ _token ], \"Not accepted\" );\n        IERC20( _token ).safeTransferFrom( msg.sender, address(this), _amount );\n\n        if ( isReserveToken[ _token ] ) {\n            require( isReserveDepositor[ msg.sender ], \"Not approved\" );\n        } else {\n            require( isLiquidityDepositor[ msg.sender ], \"Not approved\" );\n        }\n\n        uint value = valueOfToken(_token, _amount);\n        // mint ATHER needed and store amount of rewards for distribution\n        send_ = value.sub( _profit );\n        IERC20Mintable( ATHER ).mint( msg.sender, send_ );\n\n        totalReserves = totalReserves.add( value );\n        emit ReservesUpdated( totalReserves );\n\n        emit Deposit( _token, _amount, value );\n    }\n\n    /**\n        @notice allow approved address to burn ATHER for reserves\n        @param _amount uint\n        @param _token address\n     */\n    function withdraw( uint _amount, address _token ) external {\n        require( isReserveToken[ _token ], \"Not accepted\" ); // Only reserves can be used for redemptions\n        require( isReserveSpender[ msg.sender ] == true, \"Not approved\" );\n\n        uint value = valueOfToken( _token, _amount );\n        IATHERERC20( ATHER ).burnFrom( msg.sender, value );\n\n        totalReserves = totalReserves.sub( value );\n        emit ReservesUpdated( totalReserves );\n\n        IERC20( _token ).safeTransfer( msg.sender, _amount );\n\n        emit Withdrawal( _token, _amount, value );\n    }\n\n    /**\n        @notice allow approved address to borrow reserves\n        @param _amount uint\n        @param _token address\n     */\n    function incurDebt( uint _amount, address _token ) external {\n        require( isDebtor[ msg.sender ], \"Not approved\" );\n        require( isReserveToken[ _token ], \"Not accepted\" );\n\n        uint value = valueOfToken( _token, _amount );\n\n        uint maximumDebt = IERC20( sATHER ).balanceOf( msg.sender ); // Can only borrow against sATHER held\n        uint availableDebt = maximumDebt.sub( debtorBalance[ msg.sender ] );\n        require( value <= availableDebt, \"Exceeds debt limit\" );\n\n        debtorBalance[ msg.sender ] = debtorBalance[ msg.sender ].add( value );\n        totalDebt = totalDebt.add( value );\n\n        totalReserves = totalReserves.sub( value );\n        emit ReservesUpdated( totalReserves );\n\n        IERC20( _token ).transfer( msg.sender, _amount );\n        \n        emit CreateDebt( msg.sender, _token, _amount, value );\n    }\n\n    /**\n        @notice allow approved address to repay borrowed reserves with reserves\n        @param _amount uint\n        @param _token address\n     */\n    function repayDebtWithReserve( uint _amount, address _token ) external {\n        require( isDebtor[ msg.sender ], \"Not approved\" );\n        require( isReserveToken[ _token ], \"Not accepted\" );\n\n        IERC20( _token ).safeTransferFrom( msg.sender, address(this), _amount );\n\n        uint value = valueOfToken( _token, _amount );\n        debtorBalance[ msg.sender ] = debtorBalance[ msg.sender ].sub( value );\n        totalDebt = totalDebt.sub( value );\n\n        totalReserves = totalReserves.add( value );\n        emit ReservesUpdated( totalReserves );\n\n        emit RepayDebt( msg.sender, _token, _amount, value );\n    }\n\n    /**\n        @notice allow approved address to repay borrowed reserves with ATHER\n        @param _amount uint\n     */\n    function repayDebtWithATHER( uint _amount ) external {\n        require( isDebtor[ msg.sender ], \"Not approved\" );\n\n        IATHERERC20( ATHER ).burnFrom( msg.sender, _amount );\n\n        debtorBalance[ msg.sender ] = debtorBalance[ msg.sender ].sub( _amount );\n        totalDebt = totalDebt.sub( _amount );\n\n        emit RepayDebt( msg.sender, ATHER, _amount, _amount );\n    }\n\n    /**\n        @notice allow approved address to withdraw assets\n        @param _token address\n        @param _amount uint\n     */\n    function manage( address _token, uint _amount ) external {\n        if( isLiquidityToken[ _token ] ) {\n            require( isLiquidityManager[ msg.sender ], \"Not approved\" );\n        } else {\n            require( isReserveManager[ msg.sender ], \"Not approved\" );\n        }\n\n        uint value = valueOfToken(_token, _amount);\n        require( value <= excessReserves(), \"Insufficient reserves\" );\n\n        totalReserves = totalReserves.sub( value );\n        emit ReservesUpdated( totalReserves );\n\n        IERC20( _token ).safeTransfer( msg.sender, _amount );\n\n        emit ReservesManaged( _token, _amount );\n    }\n\n    /**\n        @notice send epoch reward to staking contract\n     */\n    function mintRewards( address _recipient, uint _amount ) external {\n        require( isRewardManager[ msg.sender ], \"Not approved\" );\n        require( _amount <= excessReserves(), \"Insufficient reserves\" );\n\n        IERC20Mintable( ATHER ).mint( _recipient, _amount );\n\n        emit RewardsMinted( msg.sender, _recipient, _amount );\n    }\n\n    /**\n        @notice Unsecured minting ATHER for hedgefunds, DAO must approve\n     */\n    function incurUnsecured( address _borrower, uint _amount ) external {\n        require( msg.sender == DAO );\n        IERC20Mintable( ATHER ).mint( _borrower, _amount );\n        totalUnsecured = totalUnsecured.add( _amount );\n        unsecuredLoans[_borrower] = unsecuredLoans[_borrower].add(_amount);\n\n        emit IncurUnsecured( ATHER, _borrower, _amount, _amount, unsecuredLoans[_borrower]);\n    }\n\n    /**\n        @notice Repay unsecured after hedgefunds make value from it\n     */\n    function repayUnsecured( address _borrower, uint _amount ) external {\n        require( unsecuredLoans[_borrower] >= _amount );\n        IATHERERC20( ATHER ).burnFrom(_borrower, _amount);\n        totalUnsecured = totalUnsecured.sub( _amount );\n        unsecuredLoans[_borrower] = unsecuredLoans[_borrower].sub(_amount);\n\n        emit RepayUnsecured( ATHER, _borrower, _amount, _amount, unsecuredLoans[_borrower]);\n    }\n\n    /**\n        @notice Repay on behalf of hedgefund that borrowed\n     */\n    function repayUnsecuredOnBehalfOf( address _borrower, address _repayer, uint _amount ) external {\n        require( unsecuredLoans[_borrower] >= _amount );\n        IATHERERC20( ATHER ).burnFrom(_repayer, _amount);\n        totalUnsecured = totalUnsecured.sub( _amount );\n        unsecuredLoans[_borrower] = unsecuredLoans[_borrower].sub(_amount);\n\n        emit RepayUnsecured( ATHER, _borrower, _amount, _amount, unsecuredLoans[_borrower]);\n    }\n\n    /**\n        @notice returns excess reserves not backing tokens\n        @return uint\n     */\n    function excessReserves() public view returns ( uint ) {\n        return totalReserves.sub( IERC20( ATHER ).totalSupply().sub( totalDebt ) );\n    }\n\n    /**\n        @notice takes inventory of all tracked assets\n        @notice always consolidate to recognized reserves before audit\n     */\n    function auditReserves() external onlyOwner() {\n        uint reserves;\n        for( uint i = 0; i < reserveTokens.length; i++ ) {\n            reserves = reserves.add ( \n                valueOfToken( reserveTokens[ i ], IERC20( reserveTokens[ i ] ).balanceOf( address(this) ) )\n            );\n        }\n        for( uint i = 0; i < liquidityTokens.length; i++ ) {\n            reserves = reserves.add (\n                valueOfToken( liquidityTokens[ i ], IERC20( liquidityTokens[ i ] ).balanceOf( address(this) ) )\n            );\n        }\n        totalReserves = reserves;\n        emit ReservesUpdated( reserves );\n        emit ReservesAudited( reserves );\n    }\n\n    /**\n        @notice returns ATHER valuation of asset\n        @param _token address\n        @param _amount uint\n        @return value_ uint\n     */\n    function valueOfToken( address _token, uint _amount ) public view returns ( uint value_ ) {\n        if ( isReserveToken[ _token ] ) {\n            // 1:1 backing with reserve token (e.g. 1 ATHER = 1 USDT)\n            // convert amount to match ATHER decimals\n            value_ = _amount.mul( 10 ** ERC20( ATHER ).decimals() ).div( 10 ** ERC20( _token ).decimals() );\n        } else if ( isLiquidityToken[ _token ] ) {\n            value_ = IBondCalculator( bondCalculator[ _token ] ).valuation( _token, _amount );\n        }\n    }\n\n    /**\n        @notice queue address to change boolean in mapping\n        @param _managing MANAGING\n        @param _address address\n        @return bool\n     */\n    function queue( MANAGING _managing, address _address ) external onlyOwner() returns ( bool ) {\n        require( _address != address(0) );\n        if ( _managing == MANAGING.RESERVEDEPOSITOR ) { // 0\n            reserveDepositorQueue[ _address ] = block.number.add( blocksNeededForQueue );\n        } else if ( _managing == MANAGING.RESERVESPENDER ) { // 1\n            reserveSpenderQueue[ _address ] = block.number.add( blocksNeededForQueue );\n        } else if ( _managing == MANAGING.RESERVETOKEN ) { // 2\n            reserveTokenQueue[ _address ] = block.number.add( blocksNeededForQueue );\n        } else if ( _managing == MANAGING.RESERVEMANAGER ) { // 3\n            ReserveManagerQueue[ _address ] = block.number.add( blocksNeededForQueue.mul( 2 ) );\n        } else if ( _managing == MANAGING.LIQUIDITYDEPOSITOR ) { // 4\n            LiquidityDepositorQueue[ _address ] = block.number.add( blocksNeededForQueue );\n        } else if ( _managing == MANAGING.LIQUIDITYTOKEN ) { // 5\n            LiquidityTokenQueue[ _address ] = block.number.add( blocksNeededForQueue );\n        } else if ( _managing == MANAGING.LIQUIDITYMANAGER ) { // 6\n            LiquidityManagerQueue[ _address ] = block.number.add( blocksNeededForQueue.mul( 2 ) );\n        } else if ( _managing == MANAGING.DEBTOR ) { // 7\n            debtorQueue[ _address ] = block.number.add( blocksNeededForQueue );\n        } else if ( _managing == MANAGING.REWARDMANAGER ) { // 8\n            rewardManagerQueue[ _address ] = block.number.add( blocksNeededForQueue );\n        } else if ( _managing == MANAGING.SATHER ) { // 9\n            sATHERQueue = block.number.add( blocksNeededForQueue );\n        } else return false;\n\n        emit ChangeQueued( _managing, _address );\n        return true;\n    }\n\n    /**\n        @notice verify queue then set boolean in mapping\n        @param _managing MANAGING\n        @param _address address\n        @param _calculator address\n        @return bool\n     */\n    function toggle( MANAGING _managing, address _address, address _calculator ) external onlyOwner() returns ( bool ) {\n        require( _address != address(0) );\n        bool result;\n        if ( _managing == MANAGING.RESERVEDEPOSITOR ) { // 0\n            if ( requirements( reserveDepositorQueue, isReserveDepositor, _address ) ) {\n                reserveDepositorQueue[ _address ] = 0;\n                if( !listContains( reserveDepositors, _address ) ) {\n                    reserveDepositors.push( _address );\n                }\n            }\n            result = !isReserveDepositor[ _address ];\n            isReserveDepositor[ _address ] = result;\n            \n        } else if ( _managing == MANAGING.RESERVESPENDER ) { // 1\n            if ( requirements( reserveSpenderQueue, isReserveSpender, _address ) ) {\n                reserveSpenderQueue[ _address ] = 0;\n                if( !listContains( reserveSpenders, _address ) ) {\n                    reserveSpenders.push( _address );\n                }\n            }\n            result = !isReserveSpender[ _address ];\n            isReserveSpender[ _address ] = result;\n\n        } else if ( _managing == MANAGING.RESERVETOKEN ) { // 2\n            if ( requirements( reserveTokenQueue, isReserveToken, _address ) ) {\n                reserveTokenQueue[ _address ] = 0;\n                if( !listContains( reserveTokens, _address ) ) {\n                    reserveTokens.push( _address );\n                }\n            }\n            result = !isReserveToken[ _address ];\n            isReserveToken[ _address ] = result;\n\n        } else if ( _managing == MANAGING.RESERVEMANAGER ) { // 3\n            if ( requirements( ReserveManagerQueue, isReserveManager, _address ) ) {\n                reserveManagers.push( _address );\n                ReserveManagerQueue[ _address ] = 0;\n                if( !listContains( reserveManagers, _address ) ) {\n                    reserveManagers.push( _address );\n                }\n            }\n            result = !isReserveManager[ _address ];\n            isReserveManager[ _address ] = result;\n\n        } else if ( _managing == MANAGING.LIQUIDITYDEPOSITOR ) { // 4\n            if ( requirements( LiquidityDepositorQueue, isLiquidityDepositor, _address ) ) {\n                liquidityDepositors.push( _address );\n                LiquidityDepositorQueue[ _address ] = 0;\n                if( !listContains( liquidityDepositors, _address ) ) {\n                    liquidityDepositors.push( _address );\n                }\n            }\n            result = !isLiquidityDepositor[ _address ];\n            isLiquidityDepositor[ _address ] = result;\n\n        } else if ( _managing == MANAGING.LIQUIDITYTOKEN ) { // 5\n            if ( requirements( LiquidityTokenQueue, isLiquidityToken, _address ) ) {\n                LiquidityTokenQueue[ _address ] = 0;\n                if( !listContains( liquidityTokens, _address ) ) {\n                    liquidityTokens.push( _address );\n                }\n            }\n            result = !isLiquidityToken[ _address ];\n            isLiquidityToken[ _address ] = result;\n            bondCalculator[ _address ] = _calculator;\n\n        } else if ( _managing == MANAGING.LIQUIDITYMANAGER ) { // 6\n            if ( requirements( LiquidityManagerQueue, isLiquidityManager, _address ) ) {\n                LiquidityManagerQueue[ _address ] = 0;\n                if( !listContains( liquidityManagers, _address ) ) {\n                    liquidityManagers.push( _address );\n                }\n            }\n            result = !isLiquidityManager[ _address ];\n            isLiquidityManager[ _address ] = result;\n\n        } else if ( _managing == MANAGING.DEBTOR ) { // 7\n            if ( requirements( debtorQueue, isDebtor, _address ) ) {\n                debtorQueue[ _address ] = 0;\n                if( !listContains( debtors, _address ) ) {\n                    debtors.push( _address );\n                }\n            }\n            result = !isDebtor[ _address ];\n            isDebtor[ _address ] = result;\n\n        } else if ( _managing == MANAGING.REWARDMANAGER ) { // 8\n            if ( requirements( rewardManagerQueue, isRewardManager, _address ) ) {\n                rewardManagerQueue[ _address ] = 0;\n                if( !listContains( rewardManagers, _address ) ) {\n                    rewardManagers.push( _address );\n                }\n            }\n            result = !isRewardManager[ _address ];\n            isRewardManager[ _address ] = result;\n\n        } else if ( _managing == MANAGING.SATHER ) { // 9\n            sATHERQueue = 0;\n            sATHER = _address;\n            result = true;\n\n        } else return false;\n\n        emit ChangeActivated( _managing, _address, result );\n        return true;\n    }\n\n    /**\n        @notice checks requirements and returns altered structs\n        @param queue_ mapping( address => uint )\n        @param status_ mapping( address => bool )\n        @param _address address\n        @return bool \n     */\n    function requirements( \n        mapping( address => uint ) storage queue_, \n        mapping( address => bool ) storage status_, \n        address _address \n    ) internal view returns ( bool ) {\n        if ( !status_[ _address ] ) {\n            require( queue_[ _address ] != 0, \"Must queue\" );\n            require( queue_[ _address ] <= block.number, \"Queue not expired\" );\n            return true;\n        } return false;\n    }\n\n    /**\n        @notice checks array to ensure against duplicate\n        @param _list address[]\n        @param _token address\n        @return bool\n     */\n    function listContains( address[] storage _list, address _token ) internal view returns ( bool ) {\n        for( uint i = 0; i < _list.length; i++ ) {\n            if( _list[ i ] == _token ) {\n                return true;\n            }\n        }\n        return false;\n    }\n\n    /* ======= Governance Contingency ======= */\n    function setDao(address newDao) external onlyOwner() {\n        DAO = newDao;\n    }\n\n}",
  "sourcePath": "/var/www/atherton/evm/contracts/Treasury.sol",
  "compiler": {
    "name": "solc",
    "version": "0.8.0+commit.c7dfd78e.Emscripten.clang"
  },
  "schemaVersion": "3.4.3",
  "updatedAt": "2021-12-04T00:51:05.973Z",
  "devdoc": {
    "kind": "dev",
    "methods": {
      "deposit(uint256,address,uint256)": {
        "params": {
          "_amount": "uint",
          "_profit": "uint",
          "_token": "address"
        },
        "returns": {
          "send_": "uint"
        }
      },
      "excessReserves()": {
        "returns": {
          "_0": "uint"
        }
      },
      "incurDebt(uint256,address)": {
        "params": {
          "_amount": "uint",
          "_token": "address"
        }
      },
      "manage(address,uint256)": {
        "params": {
          "_amount": "uint",
          "_token": "address"
        }
      },
      "owner()": {
        "details": "Returns the address of the current owner."
      },
      "queue(uint8,address)": {
        "params": {
          "_address": "address",
          "_managing": "MANAGING"
        },
        "returns": {
          "_0": "bool"
        }
      },
      "renounceOwnership()": {
        "details": "Leaves the contract without owner. It will not be possible to call `onlyOwner` functions anymore. Can only be called by the current owner. NOTE: Renouncing ownership will leave the contract without an owner, thereby removing any functionality that is only available to the owner."
      },
      "repayDebtWithATHER(uint256)": {
        "params": {
          "_amount": "uint"
        }
      },
      "repayDebtWithReserve(uint256,address)": {
        "params": {
          "_amount": "uint",
          "_token": "address"
        }
      },
      "toggle(uint8,address,address)": {
        "params": {
          "_address": "address",
          "_calculator": "address",
          "_managing": "MANAGING"
        },
        "returns": {
          "_0": "bool"
        }
      },
      "transferOwnership(address)": {
        "details": "Transfers ownership of the contract to a new account (`newOwner`). Can only be called by the current owner."
      },
      "valueOfToken(address,uint256)": {
        "params": {
          "_amount": "uint",
          "_token": "address"
        },
        "returns": {
          "value_": "uint"
        }
      },
      "withdraw(uint256,address)": {
        "params": {
          "_amount": "uint",
          "_token": "address"
        }
      }
    },
    "version": 1
  },
  "userdoc": {
    "kind": "user",
    "methods": {
      "auditReserves()": {
        "notice": "takes inventory of all tracked assetsalways consolidate to recognized reserves before audit"
      },
      "deposit(uint256,address,uint256)": {
        "notice": "allow approved address to deposit an asset for ATHER"
      },
      "excessReserves()": {
        "notice": "returns excess reserves not backing tokens"
      },
      "incurDebt(uint256,address)": {
        "notice": "allow approved address to borrow reserves"
      },
      "incurUnsecured(address,uint256)": {
        "notice": "Unsecured minting ATHER for hedgefunds, DAO must approve"
      },
      "manage(address,uint256)": {
        "notice": "allow approved address to withdraw assets"
      },
      "mintRewards(address,uint256)": {
        "notice": "send epoch reward to staking contract"
      },
      "queue(uint8,address)": {
        "notice": "queue address to change boolean in mapping"
      },
      "repayDebtWithATHER(uint256)": {
        "notice": "allow approved address to repay borrowed reserves with ATHER"
      },
      "repayDebtWithReserve(uint256,address)": {
        "notice": "allow approved address to repay borrowed reserves with reserves"
      },
      "repayUnsecured(address,uint256)": {
        "notice": "Repay unsecured after hedgefunds make value from it"
      },
      "repayUnsecuredOnBehalfOf(address,address,uint256)": {
        "notice": "Repay on behalf of hedgefund that borrowed"
      },
      "toggle(uint8,address,address)": {
        "notice": "verify queue then set boolean in mapping"
      },
      "valueOfToken(address,uint256)": {
        "notice": "returns ATHER valuation of asset"
      },
      "withdraw(uint256,address)": {
        "notice": "allow approved address to burn ATHER for reserves"
      }
    },
    "version": 1
  }
}