{
  "contractName": "AthertonStaking",
  "abi": [
    {
      "inputs": [
        {
          "internalType": "address",
          "name": "_ATHER",
          "type": "address"
        },
        {
          "internalType": "address",
          "name": "_SATHER",
          "type": "address"
        },
        {
          "internalType": "address",
          "name": "_treasury",
          "type": "address"
        },
        {
          "internalType": "uint256",
          "name": "_epochLength",
          "type": "uint256"
        },
        {
          "internalType": "uint256",
          "name": "_firstEpochEnds",
          "type": "uint256"
        }
      ],
      "stateMutability": "nonpayable",
      "type": "constructor"
    },
    {
      "anonymous": false,
      "inputs": [
        {
          "indexed": true,
          "internalType": "address",
          "name": "previousOwner",
          "type": "address"
        },
        {
          "indexed": true,
          "internalType": "address",
          "name": "newOwner",
          "type": "address"
        }
      ],
      "name": "OwnershipTransferred",
      "type": "event"
    },
    {
      "anonymous": false,
      "inputs": [
        {
          "indexed": false,
          "internalType": "uint256",
          "name": "epoch",
          "type": "uint256"
        },
        {
          "indexed": false,
          "internalType": "uint256",
          "name": "index",
          "type": "uint256"
        },
        {
          "indexed": false,
          "internalType": "uint256",
          "name": "rebaseAmount",
          "type": "uint256"
        },
        {
          "indexed": false,
          "internalType": "bool",
          "name": "rebaseNegative",
          "type": "bool"
        },
        {
          "indexed": false,
          "internalType": "uint256",
          "name": "balanceBeforeRebase",
          "type": "uint256"
        },
        {
          "indexed": false,
          "internalType": "uint256",
          "name": "multiplier",
          "type": "uint256"
        }
      ],
      "name": "StakeRebased",
      "type": "event"
    },
    {
      "inputs": [],
      "name": "ATHER",
      "outputs": [
        {
          "internalType": "address",
          "name": "",
          "type": "address"
        }
      ],
      "stateMutability": "view",
      "type": "function"
    },
    {
      "inputs": [],
      "name": "SATHER",
      "outputs": [
        {
          "internalType": "address",
          "name": "",
          "type": "address"
        }
      ],
      "stateMutability": "view",
      "type": "function"
    },
    {
      "inputs": [],
      "name": "epoch",
      "outputs": [
        {
          "internalType": "uint256",
          "name": "length",
          "type": "uint256"
        },
        {
          "internalType": "uint256",
          "name": "number",
          "type": "uint256"
        },
        {
          "internalType": "uint256",
          "name": "endBlock",
          "type": "uint256"
        },
        {
          "internalType": "uint256",
          "name": "distribute",
          "type": "uint256"
        },
        {
          "internalType": "bool",
          "name": "distributeNegative",
          "type": "bool"
        }
      ],
      "stateMutability": "view",
      "type": "function"
    },
    {
      "inputs": [],
      "name": "owner",
      "outputs": [
        {
          "internalType": "address",
          "name": "",
          "type": "address"
        }
      ],
      "stateMutability": "view",
      "type": "function"
    },
    {
      "inputs": [
        {
          "internalType": "uint256",
          "name": "",
          "type": "uint256"
        }
      ],
      "name": "rebases",
      "outputs": [
        {
          "internalType": "uint256",
          "name": "epoch",
          "type": "uint256"
        },
        {
          "internalType": "uint256",
          "name": "index",
          "type": "uint256"
        },
        {
          "internalType": "uint256",
          "name": "rebaseAmount",
          "type": "uint256"
        },
        {
          "internalType": "bool",
          "name": "rebaseNegative",
          "type": "bool"
        },
        {
          "internalType": "uint256",
          "name": "balanceBeforeRebase",
          "type": "uint256"
        },
        {
          "internalType": "uint256",
          "name": "multiplier",
          "type": "uint256"
        },
        {
          "internalType": "uint256",
          "name": "blockNumber",
          "type": "uint256"
        }
      ],
      "stateMutability": "view",
      "type": "function"
    },
    {
      "inputs": [],
      "name": "renounceOwnership",
      "outputs": [],
      "stateMutability": "nonpayable",
      "type": "function"
    },
    {
      "inputs": [
        {
          "internalType": "address",
          "name": "",
          "type": "address"
        }
      ],
      "name": "stakerInfo",
      "outputs": [
        {
          "internalType": "uint256",
          "name": "stakedAmount",
          "type": "uint256"
        },
        {
          "internalType": "uint256",
          "name": "earlyUnstakePenalty",
          "type": "uint256"
        },
        {
          "internalType": "uint256",
          "name": "totalHitoricallyStaked",
          "type": "uint256"
        },
        {
          "internalType": "uint256",
          "name": "totalHitoricallyUnstaked",
          "type": "uint256"
        },
        {
          "internalType": "uint256",
          "name": "totalHitoricallyRebased",
          "type": "uint256"
        },
        {
          "internalType": "uint32",
          "name": "rebasedLast",
          "type": "uint32"
        },
        {
          "internalType": "uint32",
          "name": "stakedLast",
          "type": "uint32"
        },
        {
          "internalType": "uint32",
          "name": "unstakedLast",
          "type": "uint32"
        },
        {
          "internalType": "uint32",
          "name": "memberSince",
          "type": "uint32"
        },
        {
          "internalType": "bool",
          "name": "rebasedOnce",
          "type": "bool"
        }
      ],
      "stateMutability": "view",
      "type": "function"
    },
    {
      "inputs": [
        {
          "internalType": "address",
          "name": "newOwner",
          "type": "address"
        }
      ],
      "name": "transferOwnership",
      "outputs": [],
      "stateMutability": "nonpayable",
      "type": "function"
    },
    {
      "inputs": [],
      "name": "treasury",
      "outputs": [
        {
          "internalType": "address",
          "name": "",
          "type": "address"
        }
      ],
      "stateMutability": "view",
      "type": "function"
    },
    {
      "inputs": [],
      "name": "epochCheck",
      "outputs": [],
      "stateMutability": "nonpayable",
      "type": "function"
    },
    {
      "inputs": [
        {
          "internalType": "address",
          "name": "_account",
          "type": "address"
        }
      ],
      "name": "rebaseAccount",
      "outputs": [],
      "stateMutability": "nonpayable",
      "type": "function"
    },
    {
      "inputs": [
        {
          "internalType": "address",
          "name": "_account",
          "type": "address"
        },
        {
          "internalType": "uint256",
          "name": "_amount",
          "type": "uint256"
        }
      ],
      "name": "stakeEffect",
      "outputs": [],
      "stateMutability": "nonpayable",
      "type": "function"
    },
    {
      "inputs": [
        {
          "internalType": "address",
          "name": "_account",
          "type": "address"
        },
        {
          "internalType": "uint256",
          "name": "_amount",
          "type": "uint256"
        }
      ],
      "name": "unstakeEffect",
      "outputs": [],
      "stateMutability": "nonpayable",
      "type": "function"
    },
    {
      "inputs": [
        {
          "internalType": "address",
          "name": "account",
          "type": "address"
        }
      ],
      "name": "stakedBalanceOf",
      "outputs": [
        {
          "internalType": "uint256",
          "name": "",
          "type": "uint256"
        }
      ],
      "stateMutability": "view",
      "type": "function"
    },
    {
      "inputs": [
        {
          "internalType": "address",
          "name": "_account",
          "type": "address"
        }
      ],
      "name": "accountExists",
      "outputs": [
        {
          "internalType": "bool",
          "name": "",
          "type": "bool"
        }
      ],
      "stateMutability": "view",
      "type": "function"
    },
    {
      "inputs": [
        {
          "internalType": "address",
          "name": "account",
          "type": "address"
        }
      ],
      "name": "getAccountInfo",
      "outputs": [
        {
          "components": [
            {
              "internalType": "uint256",
              "name": "stakedAmount",
              "type": "uint256"
            },
            {
              "internalType": "uint256",
              "name": "earlyUnstakePenalty",
              "type": "uint256"
            },
            {
              "internalType": "uint256",
              "name": "totalHitoricallyStaked",
              "type": "uint256"
            },
            {
              "internalType": "uint256",
              "name": "totalHitoricallyUnstaked",
              "type": "uint256"
            },
            {
              "internalType": "uint256",
              "name": "totalHitoricallyRebased",
              "type": "uint256"
            },
            {
              "internalType": "uint32",
              "name": "rebasedLast",
              "type": "uint32"
            },
            {
              "internalType": "uint32",
              "name": "stakedLast",
              "type": "uint32"
            },
            {
              "internalType": "uint32",
              "name": "unstakedLast",
              "type": "uint32"
            },
            {
              "internalType": "uint32",
              "name": "memberSince",
              "type": "uint32"
            },
            {
              "internalType": "bool",
              "name": "rebasedOnce",
              "type": "bool"
            },
            {
              "internalType": "string[]",
              "name": "awards",
              "type": "string[]"
            }
          ],
          "internalType": "struct AthertonStaking.StakerInfo",
          "name": "",
          "type": "tuple"
        }
      ],
      "stateMutability": "view",
      "type": "function"
    },
    {
      "inputs": [],
      "name": "getStakingConfig",
      "outputs": [
        {
          "components": [
            {
              "internalType": "uint16",
              "name": "penaltyStartPercent",
              "type": "uint16"
            },
            {
              "internalType": "uint32",
              "name": "penaltyHalfLife",
              "type": "uint32"
            },
            {
              "internalType": "uint256",
              "name": "maxStakingLimit",
              "type": "uint256"
            },
            {
              "internalType": "uint256",
              "name": "rebaseThreshold",
              "type": "uint256"
            },
            {
              "internalType": "bool",
              "name": "stakingSuspended",
              "type": "bool"
            },
            {
              "internalType": "bool",
              "name": "unstakingSuspended",
              "type": "bool"
            }
          ],
          "internalType": "struct AthertonStaking.StakingController",
          "name": "",
          "type": "tuple"
        }
      ],
      "stateMutability": "view",
      "type": "function"
    },
    {
      "inputs": [],
      "name": "contractBalance",
      "outputs": [
        {
          "internalType": "uint256",
          "name": "",
          "type": "uint256"
        }
      ],
      "stateMutability": "view",
      "type": "function"
    },
    {
      "inputs": [
        {
          "internalType": "uint16",
          "name": "_penaltyStartPercent",
          "type": "uint16"
        },
        {
          "internalType": "uint32",
          "name": "_penaltyHalfLife",
          "type": "uint32"
        },
        {
          "internalType": "uint256",
          "name": "_maxStakingLimit",
          "type": "uint256"
        },
        {
          "internalType": "uint256",
          "name": "_rebaseThreshold",
          "type": "uint256"
        }
      ],
      "name": "setConfig",
      "outputs": [],
      "stateMutability": "nonpayable",
      "type": "function"
    },
    {
      "inputs": [
        {
          "internalType": "bool",
          "name": "value",
          "type": "bool"
        }
      ],
      "name": "setStakeSuspension",
      "outputs": [],
      "stateMutability": "nonpayable",
      "type": "function"
    },
    {
      "inputs": [
        {
          "internalType": "bool",
          "name": "value",
          "type": "bool"
        }
      ],
      "name": "setUnstakeSuspension",
      "outputs": [],
      "stateMutability": "nonpayable",
      "type": "function"
    }
  ],
  "bytecode": "0x60e06040523480156200001157600080fd5b5060405162003c3c38038062003c3c833981810160405281019062000037919062000612565b620000576200004b620004e960201b60201c565b620004f160201b60201c565b600073ffffffffffffffffffffffffffffffffffffffff168573ffffffffffffffffffffffffffffffffffffffff1614156200009257600080fd5b8473ffffffffffffffffffffffffffffffffffffffff1660808173ffffffffffffffffffffffffffffffffffffffff1660601b81525050600073ffffffffffffffffffffffffffffffffffffffff168473ffffffffffffffffffffffffffffffffffffffff1614156200010457600080fd5b8373ffffffffffffffffffffffffffffffffffffffff1660a08173ffffffffffffffffffffffffffffffffffffffff1660601b81525050600073ffffffffffffffffffffffffffffffffffffffff168373ffffffffffffffffffffffffffffffffffffffff1614156200017657600080fd5b8273ffffffffffffffffffffffffffffffffffffffff1660c08173ffffffffffffffffffffffffffffffffffffffff1660601b815250506040518060a0016040528083815260200160008152602001828152602001600081526020016000151581525060026000820151816000015560208201518160010155604082015181600201556060820151816003015560808201518160040160006101000a81548160ff0219169083151502179055509050506000606490506000606490506040518060c0016040528061271061ffff16815260200161168063ffffffff16815260200162000295670de0b6b3a764000062000281620f424087620005b560201b62001c441790919060201c565b620005b560201b62001c441790919060201c565b8152602001620002bc670de0b6b3a764000084620005b560201b62001c441790919060201c565b815260200160001515815260200160001515815250600760008201518160000160006101000a81548161ffff021916908361ffff16021790555060208201518160000160026101000a81548163ffffffff021916908363ffffffff160217905550604082015181600101556060820151816002015560808201518160030160006101000a81548160ff02191690831515021790555060a08201518160030160016101000a81548160ff0219169083151502179055509050508673ffffffffffffffffffffffffffffffffffffffff1663095ea7b3867fffffffffffffffffffffffffffffffffffffffffffffffffffffffffffffffff6040518363ffffffff1660e01b8152600401620003d1929190620006e2565b602060405180830381600087803b158015620003ec57600080fd5b505af115801562000401573d6000803e3d6000fd5b505050506040513d601f19601f8201168201806040525081019062000427919062000694565b508573ffffffffffffffffffffffffffffffffffffffff1663095ea7b3867fffffffffffffffffffffffffffffffffffffffffffffffffffffffffffffffff6040518363ffffffff1660e01b815260040162000485929190620006e2565b602060405180830381600087803b158015620004a057600080fd5b505af1158015620004b5573d6000803e3d6000fd5b505050506040513d601f19601f82011682018060405250810190620004db919062000694565b505050505050505062000837565b600033905090565b60008060009054906101000a900473ffffffffffffffffffffffffffffffffffffffff169050816000806101000a81548173ffffffffffffffffffffffffffffffffffffffff021916908373ffffffffffffffffffffffffffffffffffffffff1602179055508173ffffffffffffffffffffffffffffffffffffffff168173ffffffffffffffffffffffffffffffffffffffff167f8be0079c531659141344cd1fd0a4f28419497f9722a3daafe3b4186f6b6457e060405160405180910390a35050565b60008183620005c591906200070f565b905092915050565b600081519050620005de81620007e9565b92915050565b600081519050620005f58162000803565b92915050565b6000815190506200060c816200081d565b92915050565b600080600080600060a086880312156200062b57600080fd5b60006200063b88828901620005cd565b95505060206200064e88828901620005cd565b94505060406200066188828901620005cd565b93505060606200067488828901620005fb565b92505060806200068788828901620005fb565b9150509295509295909350565b600060208284031215620006a757600080fd5b6000620006b784828501620005e4565b91505092915050565b620006cb8162000770565b82525050565b620006dc81620007b0565b82525050565b6000604082019050620006f96000830185620006c0565b620007086020830184620006d1565b9392505050565b60006200071c82620007b0565b91506200072983620007b0565b9250817fffffffffffffffffffffffffffffffffffffffffffffffffffffffffffffffff0483118215151615620007655762000764620007ba565b5b828202905092915050565b60006200077d8262000790565b9050919050565b60008115159050919050565b600073ffffffffffffffffffffffffffffffffffffffff82169050919050565b6000819050919050565b7f4e487b7100000000000000000000000000000000000000000000000000000000600052601160045260246000fd5b620007f48162000770565b81146200080057600080fd5b50565b6200080e8162000784565b81146200081a57600080fd5b50565b6200082881620007b0565b81146200083457600080fd5b50565b60805160601c60a05160601c60c05160601c613394620008a86000396000818161096201528181610e170152818161119e015261181a0152600081816109d201528181610b13015261143f01526000818161098501528181610a8601528181610cb6015261133701526133946000f3fe608060405234801561001057600080fd5b50600436106101375760003560e01c80637f5bdecd116100b8578063e6bf24271161007c578063e6bf242714610351578063ef3631b21461036f578063f2fde38b1461038b578063f7a7f340146103a7578063fb01508d146103c3578063ffb17380146103cd57610137565b80637f5bdecd146102b95780638b7afe2e146102d55780638da5cb5b146102f3578063900cf0cf14610311578063adec520a1461033357610137565b806361d027b3116100ff57806361d027b3146101fb578063715018a61461021957806373c69eb71461022357806375cd51ed146102595780637b510fe81461028957610137565b8063167653911461013c5780633b4abb0a1461016c5780634e3d8853146101885780634e745f1f146101a65780635e2d1025146101df575b600080fd5b6101566004803603810190610151919061252f565b6103e9565b6040516101639190612d67565b60405180910390f35b6101866004803603810190610181919061252f565b6106fe565b005b610190610cb4565b60405161019d9190612bb2565b60405180910390f35b6101c060048036038101906101bb919061252f565b610cd8565b6040516101d69a99989796959493929190612ea5565b60405180910390f35b6101f960048036038101906101f49190612594565b610d79565b005b610203610e15565b6040516102109190612bb2565b60405180910390f35b610221610e39565b005b61023d60048036038101906102389190612649565b610ec1565b6040516102509796959493929190612de3565b60405180910390f35b610273600480360381019061026e919061252f565b610f20565b6040516102809190612c2d565b60405180910390f35b6102a3600480360381019061029e919061252f565b610f84565b6040516102b09190612d2a565b60405180910390f35b6102d360048036038101906102ce9190612558565b61119c565b005b6102dd611333565b6040516102ea9190612d67565b60405180910390f35b6102fb6113e3565b6040516103089190612bb2565b60405180910390f35b61031961140c565b60405161032a959493929190612e52565b60405180910390f35b61033b61143d565b6040516103489190612bb2565b60405180910390f35b610359611461565b6040516103669190612d4c565b60405180910390f35b610389600480360381019061038491906125e6565b61150b565b005b6103a560048036038101906103a0919061252f565b611617565b005b6103c160048036038101906103bc9190612594565b61170f565b005b6103cb6117ab565b005b6103e760048036038101906103e29190612558565b611818565b005b600080600b60008473ffffffffffffffffffffffffffffffffffffffff1673ffffffffffffffffffffffffffffffffffffffff1681526020019081526020016000206040518061016001604052908160008201548152602001600182015481526020016002820154815260200160038201548152602001600482015481526020016005820160009054906101000a900463ffffffff1663ffffffff1663ffffffff1681526020016005820160049054906101000a900463ffffffff1663ffffffff1663ffffffff1681526020016005820160089054906101000a900463ffffffff1663ffffffff1663ffffffff16815260200160058201600c9054906101000a900463ffffffff1663ffffffff1663ffffffff1681526020016005820160109054906101000a900460ff1615151515815260200160068201805480602002602001604051908101604052809291908181526020016000905b828210156105ed578382906000526020600020018054610560906131a5565b80601f016020809104026020016040519081016040528092919081815260200182805461058c906131a5565b80156105d95780601f106105ae576101008083540402835291602001916105d9565b820191906000526020600020905b8154815290600101906020018083116105bc57829003601f168201915b505050505081526020019060010190610541565b50505050815250509050600081610100015163ffffffff1614156106155760009150506106f9565b60008160000151905060008261012001516106405760018360a0015161063b9190613013565b610643565b60005b905060008190505b6001805490508163ffffffff1610156106f1576106dc670de0b6b3a76400006106ce60018463ffffffff16815481106106ad577f4e487b7100000000000000000000000000000000000000000000000000000000600052603260045260246000fd5b90600052602060002090600702016005015486611c4490919063ffffffff16565b611c5a90919063ffffffff16565b925080806106e990613220565b91505061064b565b508193505050505b919050565b61070781610f20565b61071057610cb1565b6000600b60008373ffffffffffffffffffffffffffffffffffffffff1673ffffffffffffffffffffffffffffffffffffffff1681526020019081526020016000206040518061016001604052908160008201548152602001600182015481526020016002820154815260200160038201548152602001600482015481526020016005820160009054906101000a900463ffffffff1663ffffffff1663ffffffff1681526020016005820160049054906101000a900463ffffffff1663ffffffff1663ffffffff1681526020016005820160089054906101000a900463ffffffff1663ffffffff1663ffffffff16815260200160058201600c9054906101000a900463ffffffff1663ffffffff1663ffffffff1681526020016005820160109054906101000a900460ff1615151515815260200160068201805480602002602001604051908101604052809291908181526020016000905b82821015610913578382906000526020600020018054610886906131a5565b80601f01602080910402602001604051908101604052809291908181526020018280546108b2906131a5565b80156108ff5780601f106108d4576101008083540402835291602001916108ff565b820191906000526020600020905b8154815290600101906020018083116108e257829003601f168201915b505050505081526020019060010190610867565b505050508152505090506000610928836103e9565b9050816000015181141561093d575050610cb1565b60008260000151821115610a725782600001518261095b91906130d8565b90506109ca7f000000000000000000000000000000000000000000000000000000000000000030837f000000000000000000000000000000000000000000000000000000000000000073ffffffffffffffffffffffffffffffffffffffff16611c70909392919063ffffffff16565b610a173085837f000000000000000000000000000000000000000000000000000000000000000073ffffffffffffffffffffffffffffffffffffffff16611c70909392919063ffffffff16565b610a6c81600b60008773ffffffffffffffffffffffffffffffffffffffff1673ffffffffffffffffffffffffffffffffffffffff16815260200190815260200160002060040154611cf990919063ffffffff16565b50610bf5565b818360000151610a8291906130d8565b90507f000000000000000000000000000000000000000000000000000000000000000073ffffffffffffffffffffffffffffffffffffffff166379cc679030836040518363ffffffff1660e01b8152600401610adf929190612c04565b600060405180830381600087803b158015610af957600080fd5b505af1158015610b0d573d6000803e3d6000fd5b505050507f000000000000000000000000000000000000000000000000000000000000000073ffffffffffffffffffffffffffffffffffffffff166379cc679085836040518363ffffffff1660e01b8152600401610b6c929190612c04565b600060405180830381600087803b158015610b8657600080fd5b505af1158015610b9a573d6000803e3d6000fd5b50505050610bf381600b60008773ffffffffffffffffffffffffffffffffffffffff1673ffffffffffffffffffffffffffffffffffffffff16815260200190815260200160002060040154611d0f90919063ffffffff16565b505b81600b60008673ffffffffffffffffffffffffffffffffffffffff1673ffffffffffffffffffffffffffffffffffffffff1681526020019081526020016000206000018190555060018080549050610c4d91906130d8565b600b60008673ffffffffffffffffffffffffffffffffffffffff1673ffffffffffffffffffffffffffffffffffffffff16815260200190815260200160002060050160006101000a81548163ffffffff021916908363ffffffff1602179055505050505b50565b7f000000000000000000000000000000000000000000000000000000000000000081565b600b6020528060005260406000206000915090508060000154908060010154908060020154908060030154908060040154908060050160009054906101000a900463ffffffff16908060050160049054906101000a900463ffffffff16908060050160089054906101000a900463ffffffff169080600501600c9054906101000a900463ffffffff16908060050160109054906101000a900460ff1690508a565b610d81611d25565b73ffffffffffffffffffffffffffffffffffffffff16610d9f6113e3565b73ffffffffffffffffffffffffffffffffffffffff1614610df5576040517f08c379a0000000000000000000000000000000000000000000000000000000008152600401610dec90612caa565b60405180910390fd5b80600760030160006101000a81548160ff02191690831515021790555050565b7f000000000000000000000000000000000000000000000000000000000000000081565b610e41611d25565b73ffffffffffffffffffffffffffffffffffffffff16610e5f6113e3565b73ffffffffffffffffffffffffffffffffffffffff1614610eb5576040517f08c379a0000000000000000000000000000000000000000000000000000000008152600401610eac90612caa565b60405180910390fd5b610ebf6000611d2d565b565b60018181548110610ed157600080fd5b90600052602060002090600702016000915090508060000154908060010154908060020154908060030160009054906101000a900460ff16908060040154908060050154908060060154905087565b600080600b60008473ffffffffffffffffffffffffffffffffffffffff1673ffffffffffffffffffffffffffffffffffffffff168152602001908152602001600020600501600c9054906101000a900463ffffffff1663ffffffff16119050919050565b610f8c61227d565b600b60008373ffffffffffffffffffffffffffffffffffffffff1673ffffffffffffffffffffffffffffffffffffffff1681526020019081526020016000206040518061016001604052908160008201548152602001600182015481526020016002820154815260200160038201548152602001600482015481526020016005820160009054906101000a900463ffffffff1663ffffffff1663ffffffff1681526020016005820160049054906101000a900463ffffffff1663ffffffff1663ffffffff1681526020016005820160089054906101000a900463ffffffff1663ffffffff1663ffffffff16815260200160058201600c9054906101000a900463ffffffff1663ffffffff1663ffffffff1681526020016005820160109054906101000a900460ff1615151515815260200160068201805480602002602001604051908101604052809291908181526020016000905b8282101561118d578382906000526020600020018054611100906131a5565b80601f016020809104026020016040519081016040528092919081815260200182805461112c906131a5565b80156111795780601f1061114e57610100808354040283529160200191611179565b820191906000526020600020905b81548152906001019060200180831161115c57829003601f168201915b5050505050815260200190600101906110e1565b50505050815250509050919050565b7f000000000000000000000000000000000000000000000000000000000000000073ffffffffffffffffffffffffffffffffffffffff163373ffffffffffffffffffffffffffffffffffffffff161461122a576040517f08c379a000000000000000000000000000000000000000000000000000000000815260040161122190612d0a565b60405180910390fd5b611233826106fe565b61128881600b60008573ffffffffffffffffffffffffffffffffffffffff1673ffffffffffffffffffffffffffffffffffffffff16815260200190815260200160002060030154611cf990919063ffffffff16565b600b60008473ffffffffffffffffffffffffffffffffffffffff1673ffffffffffffffffffffffffffffffffffffffff1681526020019081526020016000206003018190555043600b60008473ffffffffffffffffffffffffffffffffffffffff1673ffffffffffffffffffffffffffffffffffffffff16815260200190815260200160002060050160086101000a81548163ffffffff021916908363ffffffff1602179055505050565b60007f000000000000000000000000000000000000000000000000000000000000000073ffffffffffffffffffffffffffffffffffffffff166370a08231306040518263ffffffff1660e01b815260040161138e9190612bb2565b60206040518083038186803b1580156113a657600080fd5b505afa1580156113ba573d6000803e3d6000fd5b505050506040513d601f19601f820116820180604052508101906113de9190612672565b905090565b60008060009054906101000a900473ffffffffffffffffffffffffffffffffffffffff16905090565b60028060000154908060010154908060020154908060030154908060040160009054906101000a900460ff16905085565b7f000000000000000000000000000000000000000000000000000000000000000081565b6114696122f1565b60076040518060c00160405290816000820160009054906101000a900461ffff1661ffff1661ffff1681526020016000820160029054906101000a900463ffffffff1663ffffffff1663ffffffff16815260200160018201548152602001600282015481526020016003820160009054906101000a900460ff161515151581526020016003820160019054906101000a900460ff161515151581525050905090565b611513611d25565b73ffffffffffffffffffffffffffffffffffffffff166115316113e3565b73ffffffffffffffffffffffffffffffffffffffff1614611587576040517f08c379a000000000000000000000000000000000000000000000000000000000815260040161157e90612caa565b60405180910390fd5b60008461ffff1611156115b55783600760000160006101000a81548161ffff021916908361ffff1602179055505b60008363ffffffff1611156115e95782600760000160026101000a81548163ffffffff021916908363ffffffff1602179055505b60008211156115fd57816007600101819055505b600081111561161157806007600201819055505b50505050565b61161f611d25565b73ffffffffffffffffffffffffffffffffffffffff1661163d6113e3565b73ffffffffffffffffffffffffffffffffffffffff1614611693576040517f08c379a000000000000000000000000000000000000000000000000000000000815260040161168a90612caa565b60405180910390fd5b600073ffffffffffffffffffffffffffffffffffffffff168173ffffffffffffffffffffffffffffffffffffffff161415611703576040517f08c379a00000000000000000000000000000000000000000000000000000000081526004016116fa90612c6a565b60405180910390fd5b61170c81611d2d565b50565b611717611d25565b73ffffffffffffffffffffffffffffffffffffffff166117356113e3565b73ffffffffffffffffffffffffffffffffffffffff161461178b576040517f08c379a000000000000000000000000000000000000000000000000000000000815260040161178290612caa565b60405180910390fd5b80600760030160006101000a81548160ff02191690831515021790555050565b43600280015411156117bc57611816565b600760020154600260030154106117d6576117d5611df1565b5b6117f26002600001546002800154611cf990919063ffffffff16565b600280018190555060026001016000815480929190611810906131d7565b91905055505b565b7f000000000000000000000000000000000000000000000000000000000000000073ffffffffffffffffffffffffffffffffffffffff163373ffffffffffffffffffffffffffffffffffffffff16146118a6576040517f08c379a000000000000000000000000000000000000000000000000000000000815260040161189d90612d0a565b60405180910390fd5b6000600b60008473ffffffffffffffffffffffffffffffffffffffff1673ffffffffffffffffffffffffffffffffffffffff168152602001908152602001600020600501600c9054906101000a900463ffffffff1663ffffffff161415611b3b576040518061016001604052806000815260200160008152602001600081526020016000815260200160008152602001600063ffffffff168152602001600063ffffffff168152602001600063ffffffff1681526020014363ffffffff168152602001600015158152602001600067ffffffffffffffff8111156119b3577f4e487b7100000000000000000000000000000000000000000000000000000000600052604160045260246000fd5b6040519080825280602002602001820160405280156119e657816020015b60608152602001906001900390816119d15790505b50815250600b60008473ffffffffffffffffffffffffffffffffffffffff1673ffffffffffffffffffffffffffffffffffffffff168152602001908152602001600020600082015181600001556020820151816001015560408201518160020155606082015181600301556080820151816004015560a08201518160050160006101000a81548163ffffffff021916908363ffffffff16021790555060c08201518160050160046101000a81548163ffffffff021916908363ffffffff16021790555060e08201518160050160086101000a81548163ffffffff021916908363ffffffff16021790555061010082015181600501600c6101000a81548163ffffffff021916908363ffffffff1602179055506101208201518160050160106101000a81548160ff021916908315150217905550610140820151816006019080519060200190611b36929190612335565b509050505b611b44826106fe565b611b9981600b60008573ffffffffffffffffffffffffffffffffffffffff1673ffffffffffffffffffffffffffffffffffffffff16815260200190815260200160002060020154611cf990919063ffffffff16565b600b60008473ffffffffffffffffffffffffffffffffffffffff1673ffffffffffffffffffffffffffffffffffffffff1681526020019081526020016000206002018190555043600b60008473ffffffffffffffffffffffffffffffffffffffff1673ffffffffffffffffffffffffffffffffffffffff16815260200190815260200160002060050160046101000a81548163ffffffff021916908363ffffffff1602179055505050565b60008183611c52919061307e565b905092915050565b60008183611c68919061304d565b905092915050565b611cf3846323b872dd60e01b858585604051602401611c9193929190612bcd565b604051602081830303815290604052907bffffffffffffffffffffffffffffffffffffffffffffffffffffffff19166020820180517bffffffffffffffffffffffffffffffffffffffffffffffffffffffff8381831617835250505050612010565b50505050565b60008183611d079190612fbd565b905092915050565b60008183611d1d91906130d8565b905092915050565b600033905090565b60008060009054906101000a900473ffffffffffffffffffffffffffffffffffffffff169050816000806101000a81548173ffffffffffffffffffffffffffffffffffffffff021916908373ffffffffffffffffffffffffffffffffffffffff1602179055508173ffffffffffffffffffffffffffffffffffffffff168173ffffffffffffffffffffffffffffffffffffffff167f8be0079c531659141344cd1fd0a4f28419497f9722a3daafe3b4186f6b6457e060405160405180910390a35050565b6007600201546002600301541015611e085761200e565b6000611e12611333565b9050600060018054905090506000600260040160009054906101000a900460ff1615611e8157611e7c83611e6e670de0b6b3a7640000611e6060026003015488611d0f90919063ffffffff16565b611c4490919063ffffffff16565b611c5a90919063ffffffff16565b611ec6565b611ec583611eb7670de0b6b3a7640000611ea960026003015488611cf990919063ffffffff16565b611c4490919063ffffffff16565b611c5a90919063ffffffff16565b5b905060016040518060e0016040528060026001015481526020018481526020016002600301548152602001600260040160009054906101000a900460ff161515815260200185815260200183815260200143815250908060018154018082558091505060019003906000526020600020906007020160009091909190915060008201518160000155602082015181600101556040820151816002015560608201518160030160006101000a81548160ff0219169083151502179055506080820151816004015560a0820151816005015560c0820151816006015550507fe71aa89b7efab5e2d703b387dfcc967f99faf01d341c8ee8bbd01a3773b4b0fd60026001015483600260030154600260040160009054906101000a900460ff168786604051611ff796959493929190612d82565b60405180910390a160006002600301819055505050505b565b6000612072826040518060400160405280602081526020017f5361666545524332303a206c6f772d6c6576656c2063616c6c206661696c65648152508573ffffffffffffffffffffffffffffffffffffffff166120d79092919063ffffffff16565b90506000815111156120d2578080602001905181019061209291906125bd565b6120d1576040517f08c379a00000000000000000000000000000000000000000000000000000000081526004016120c890612cea565b60405180910390fd5b5b505050565b60606120e684846000856120ef565b90509392505050565b606082471015612134576040517f08c379a000000000000000000000000000000000000000000000000000000000815260040161212b90612c8a565b60405180910390fd5b61213d85612203565b61217c576040517f08c379a000000000000000000000000000000000000000000000000000000000815260040161217390612cca565b60405180910390fd5b6000808673ffffffffffffffffffffffffffffffffffffffff1685876040516121a59190612b9b565b60006040518083038185875af1925050503d80600081146121e2576040519150601f19603f3d011682016040523d82523d6000602084013e6121e7565b606091505b50915091506121f7828286612216565b92505050949350505050565b600080823b905060008111915050919050565b6060831561222657829050612276565b6000835111156122395782518084602001fd5b816040517f08c379a000000000000000000000000000000000000000000000000000000000815260040161226d9190612c48565b60405180910390fd5b9392505050565b6040518061016001604052806000815260200160008152602001600081526020016000815260200160008152602001600063ffffffff168152602001600063ffffffff168152602001600063ffffffff168152602001600063ffffffff168152602001600015158152602001606081525090565b6040518060c00160405280600061ffff168152602001600063ffffffff16815260200160008152602001600081526020016000151581526020016000151581525090565b828054828255906000526020600020908101928215612384579160200282015b82811115612383578251829080519060200190612373929190612395565b5091602001919060010190612355565b5b509050612391919061241b565b5090565b8280546123a1906131a5565b90600052602060002090601f0160209004810192826123c3576000855561240a565b82601f106123dc57805160ff191683800117855561240a565b8280016001018555821561240a579182015b828111156124095782518255916020019190600101906123ee565b5b509050612417919061243f565b5090565b5b8082111561243b5760008181612432919061245c565b5060010161241c565b5090565b5b80821115612458576000816000905550600101612440565b5090565b508054612468906131a5565b6000825580601f1061247a5750612499565b601f016020900490600052602060002090810190612498919061243f565b5b50565b6000813590506124ab816132eb565b92915050565b6000813590506124c081613302565b92915050565b6000815190506124d581613302565b92915050565b6000813590506124ea81613319565b92915050565b6000813590506124ff81613330565b92915050565b60008151905061251481613330565b92915050565b60008135905061252981613347565b92915050565b60006020828403121561254157600080fd5b600061254f8482850161249c565b91505092915050565b6000806040838503121561256b57600080fd5b60006125798582860161249c565b925050602061258a858286016124f0565b9150509250929050565b6000602082840312156125a657600080fd5b60006125b4848285016124b1565b91505092915050565b6000602082840312156125cf57600080fd5b60006125dd848285016124c6565b91505092915050565b600080600080608085870312156125fc57600080fd5b600061260a878288016124db565b945050602061261b8782880161251a565b935050604061262c878288016124f0565b925050606061263d878288016124f0565b91505092959194509250565b60006020828403121561265b57600080fd5b6000612669848285016124f0565b91505092915050565b60006020828403121561268457600080fd5b600061269284828501612505565b91505092915050565b60006126a78383612782565b905092915050565b6126b88161310c565b82525050565b60006126c982612f51565b6126d38185612f7f565b9350836020820285016126e585612f41565b8060005b858110156127215784840389528151612702858261269b565b945061270d83612f72565b925060208a019950506001810190506126e9565b50829750879550505050505092915050565b61273c8161311e565b82525050565b61274b8161311e565b82525050565b600061275c82612f5c565b6127668185612f90565b9350612776818560208601613172565b80840191505092915050565b600061278d82612f67565b6127978185612f9b565b93506127a7818560208601613172565b6127b0816132da565b840191505092915050565b60006127c682612f67565b6127d08185612fac565b93506127e0818560208601613172565b6127e9816132da565b840191505092915050565b6000612801602683612fac565b91507f4f776e61626c653a206e6577206f776e657220697320746865207a65726f206160008301527f64647265737300000000000000000000000000000000000000000000000000006020830152604082019050919050565b6000612867602683612fac565b91507f416464726573733a20696e73756666696369656e742062616c616e636520666f60008301527f722063616c6c00000000000000000000000000000000000000000000000000006020830152604082019050919050565b60006128cd602083612fac565b91507f4f776e61626c653a2063616c6c6572206973206e6f7420746865206f776e65726000830152602082019050919050565b600061290d601d83612fac565b91507f416464726573733a2063616c6c20746f206e6f6e2d636f6e74726163740000006000830152602082019050919050565b600061294d602a83612fac565b91507f5361666545524332303a204552433230206f7065726174696f6e20646964206e60008301527f6f742073756363656564000000000000000000000000000000000000000000006020830152604082019050919050565b60006129b3601183612fac565b91507f4e6f742066726f6d2074726561737572790000000000000000000000000000006000830152602082019050919050565b6000610160830160008301516129ff6000860182612b5f565b506020830151612a126020860182612b5f565b506040830151612a256040860182612b5f565b506060830151612a386060860182612b5f565b506080830151612a4b6080860182612b5f565b5060a0830151612a5e60a0860182612b7d565b5060c0830151612a7160c0860182612b7d565b5060e0830151612a8460e0860182612b7d565b50610100830151612a99610100860182612b7d565b50610120830151612aae610120860182612733565b50610140830151848203610140860152612ac882826126be565b9150508091505092915050565b60c082016000820151612aeb6000850182612b50565b506020820151612afe6020850182612b7d565b506040820151612b116040850182612b5f565b506060820151612b246060850182612b5f565b506080820151612b376080850182612733565b5060a0820151612b4a60a0850182612733565b50505050565b612b598161312a565b82525050565b612b6881613158565b82525050565b612b7781613158565b82525050565b612b8681613162565b82525050565b612b9581613162565b82525050565b6000612ba78284612751565b915081905092915050565b6000602082019050612bc760008301846126af565b92915050565b6000606082019050612be260008301866126af565b612bef60208301856126af565b612bfc6040830184612b6e565b949350505050565b6000604082019050612c1960008301856126af565b612c266020830184612b6e565b9392505050565b6000602082019050612c426000830184612742565b92915050565b60006020820190508181036000830152612c6281846127bb565b905092915050565b60006020820190508181036000830152612c83816127f4565b9050919050565b60006020820190508181036000830152612ca38161285a565b9050919050565b60006020820190508181036000830152612cc3816128c0565b9050919050565b60006020820190508181036000830152612ce381612900565b9050919050565b60006020820190508181036000830152612d0381612940565b9050919050565b60006020820190508181036000830152612d23816129a6565b9050919050565b60006020820190508181036000830152612d4481846129e6565b905092915050565b600060c082019050612d616000830184612ad5565b92915050565b6000602082019050612d7c6000830184612b6e565b92915050565b600060c082019050612d976000830189612b6e565b612da46020830188612b6e565b612db16040830187612b6e565b612dbe6060830186612742565b612dcb6080830185612b6e565b612dd860a0830184612b6e565b979650505050505050565b600060e082019050612df8600083018a612b6e565b612e056020830189612b6e565b612e126040830188612b6e565b612e1f6060830187612742565b612e2c6080830186612b6e565b612e3960a0830185612b6e565b612e4660c0830184612b6e565b98975050505050505050565b600060a082019050612e676000830188612b6e565b612e746020830187612b6e565b612e816040830186612b6e565b612e8e6060830185612b6e565b612e9b6080830184612742565b9695505050505050565b600061014082019050612ebb600083018d612b6e565b612ec8602083018c612b6e565b612ed5604083018b612b6e565b612ee2606083018a612b6e565b612eef6080830189612b6e565b612efc60a0830188612b8c565b612f0960c0830187612b8c565b612f1660e0830186612b8c565b612f24610100830185612b8c565b612f32610120830184612742565b9b9a5050505050505050505050565b6000819050602082019050919050565b600081519050919050565b600081519050919050565b600081519050919050565b6000602082019050919050565b600082825260208201905092915050565b600081905092915050565b600082825260208201905092915050565b600082825260208201905092915050565b6000612fc882613158565b9150612fd383613158565b9250827fffffffffffffffffffffffffffffffffffffffffffffffffffffffffffffffff038211156130085761300761324d565b5b828201905092915050565b600061301e82613162565b915061302983613162565b92508263ffffffff038211156130425761304161324d565b5b828201905092915050565b600061305882613158565b915061306383613158565b9250826130735761307261327c565b5b828204905092915050565b600061308982613158565b915061309483613158565b9250817fffffffffffffffffffffffffffffffffffffffffffffffffffffffffffffffff04831182151516156130cd576130cc61324d565b5b828202905092915050565b60006130e382613158565b91506130ee83613158565b9250828210156131015761310061324d565b5b828203905092915050565b600061311782613138565b9050919050565b60008115159050919050565b600061ffff82169050919050565b600073ffffffffffffffffffffffffffffffffffffffff82169050919050565b6000819050919050565b600063ffffffff82169050919050565b60005b83811015613190578082015181840152602081019050613175565b8381111561319f576000848401525b50505050565b600060028204905060018216806131bd57607f821691505b602082108114156131d1576131d06132ab565b5b50919050565b60006131e282613158565b91507fffffffffffffffffffffffffffffffffffffffffffffffffffffffffffffffff8214156132155761321461324d565b5b600182019050919050565b600061322b82613162565b915063ffffffff8214156132425761324161324d565b5b600182019050919050565b7f4e487b7100000000000000000000000000000000000000000000000000000000600052601160045260246000fd5b7f4e487b7100000000000000000000000000000000000000000000000000000000600052601260045260246000fd5b7f4e487b7100000000000000000000000000000000000000000000000000000000600052602260045260246000fd5b6000601f19601f8301169050919050565b6132f48161310c565b81146132ff57600080fd5b50565b61330b8161311e565b811461331657600080fd5b50565b6133228161312a565b811461332d57600080fd5b50565b61333981613158565b811461334457600080fd5b50565b61335081613162565b811461335b57600080fd5b5056fea264697066735822122089fcf1650a87062b82a2be721373aada86137031b0c52a096c471a052c366e0664736f6c63430008000033",
  "immutableReferences": {
    "3800": [
      {
        "length": 32,
        "start": 2437
      },
      {
        "length": 32,
        "start": 2694
      },
      {
        "length": 32,
        "start": 3254
      },
      {
        "length": 32,
        "start": 4919
      }
    ],
    "3802": [
      {
        "length": 32,
        "start": 2514
      },
      {
        "length": 32,
        "start": 2835
      },
      {
        "length": 32,
        "start": 5183
      }
    ],
    "3804": [
      {
        "length": 32,
        "start": 2402
      },
      {
        "length": 32,
        "start": 3607
      },
      {
        "length": 32,
        "start": 4510
      },
      {
        "length": 32,
        "start": 6170
      }
    ]
  },
  "source": "// SPDX-License-Identifier: AGPL-3.0-or-later\npragma solidity 0.8.0;\n\nimport \"@openzeppelin/contracts/utils/math/SafeMath.sol\";\nimport \"@openzeppelin/contracts/access/Ownable.sol\";\nimport \"@openzeppelin/contracts/token/ERC20/utils/SafeERC20.sol\";\nimport \"./util/ERC20Permit.sol\";\nimport \"./util/ERC20Mintable.sol\";\nimport \"./AthertonModels.sol\";\n\n// TODO-hightlight :: main logic\n\ncontract AthertonStaking is Ownable {\n\n    using SafeMath for uint256;\n    using SafeERC20 for IERC20;\n\n    modifier onlyTreasury() { require( msg.sender == treasury, \"Not from treasury\" ); _; }\n\n    address public immutable ATHER;\n    address public immutable SATHER;\n    address public immutable treasury;\n\n    event StakeRebased(\n        uint epoch,\n        uint index,\n        uint rebaseAmount,\n        bool rebaseNegative,\n        uint balanceBeforeRebase,\n        uint multiplier\n    );\n\n    struct Rebase {\n        uint epoch;\n        uint index;\n        uint rebaseAmount;\n        bool rebaseNegative;\n        uint balanceBeforeRebase;\n        uint multiplier;\n        uint blockNumber;\n    }\n    Rebase[] public rebases;\n\n    struct Epoch {\n        uint length;\n        uint number;\n        uint endBlock;\n        uint distribute;\n        bool distributeNegative;\n    }\n    Epoch public epoch;\n\n    struct StakingController {\n        uint16 penaltyStartPercent;   // uint (10000 == 100%)\n        uint32 penaltyHalfLife;       // in block count\n        uint maxStakingLimit;\n        uint rebaseThreshold;\n        bool stakingSuspended;\n        bool unstakingSuspended;\n    }\n    StakingController config;\n\n    struct StakerInfo {\n        uint stakedAmount;\n        uint earlyUnstakePenalty;\n        uint totalHitoricallyStaked;\n        uint totalHitoricallyUnstaked;\n        uint totalHitoricallyRebased;\n        uint32 rebasedLast;\n        uint32 stakedLast;\n        uint32 unstakedLast;\n        uint32 memberSince;\n        bool rebasedOnce;\n        string[] awards;\n    }\n    mapping( address => StakerInfo ) public stakerInfo;\n    \n    constructor ( \n        address _ATHER, \n        address _SATHER,\n        address _treasury,\n        uint _epochLength,\n        uint _firstEpochEnds\n    ) {\n        require( _ATHER != address(0) );\n        ATHER = _ATHER;\n        require( _SATHER != address(0) );\n        SATHER = _SATHER;\n        require( _treasury != address(0) );\n        treasury = _treasury;\n        \n        epoch = Epoch({\n            number: 0,\n            length: _epochLength,\n            endBlock: _firstEpochEnds,\n            distribute: 0,\n            distributeNegative: false\n        });\n\n        uint maxStakingLimitInMillions = 100;\n        uint rebaseThresholdInWholeAther = 100;\n\n        config = StakingController({\n            penaltyStartPercent: 10000, // 30%\n            penaltyHalfLife: 5760, // ~ 1 day\n            maxStakingLimit: maxStakingLimitInMillions.mul(1e6).mul(1e18), // 100 M\n            rebaseThreshold: rebaseThresholdInWholeAther.mul(1e18), // minimum 100 Ather profit needed for rebase\n            stakingSuspended: false,\n            unstakingSuspended: false\n        });\n\n        IERC20( _ATHER ).approve( _treasury, type(uint).max );\n        IERC20( _SATHER ).approve( _treasury, type(uint).max );\n    }\n\n    /**\n        @notice trigger rebase if epoch over\n     */\n    function epochCheck() public {\n        if ( epoch.endBlock > block.number ) {\n            return;\n        }\n        if (epoch.distribute >= config.rebaseThreshold) {\n            rebase();\n        }\n        epoch.endBlock = epoch.endBlock.add( epoch.length );\n        epoch.number++;\n    }\n\n    function rebase() private {\n        if (epoch.distribute < config.rebaseThreshold) {\n            return;\n        }\n        uint balance = contractBalance();\n        uint rebaseIndex = rebases.length;\n        uint multiplier = ! epoch.distributeNegative ? \n                            balance.add(epoch.distribute).mul(1e18).div(balance)\n                          : balance.sub(epoch.distribute).mul(1e18).div(balance);\n\n        rebases.push( Rebase ( {\n            epoch: epoch.number,\n            index: rebaseIndex,\n            rebaseAmount: epoch.distribute,\n            rebaseNegative: epoch.distributeNegative,\n            balanceBeforeRebase: balance,\n            multiplier: multiplier,\n            blockNumber: block.number\n        }));\n\n        emit StakeRebased(\n            epoch.number,\n            rebaseIndex,\n            epoch.distribute,\n            epoch.distributeNegative,\n            balance,\n            multiplier\n        );\n\n        epoch.distribute = 0;\n    }\n\n    function rebaseAccount( address _account ) public {\n        if (!accountExists(_account)) {\n            return;\n        }\n        StakerInfo memory info = stakerInfo[_account];\n        uint amount = stakedBalanceOf(_account);\n        if (amount == info.stakedAmount) { // no effective change\n            return;\n        }\n        uint delta = 0;\n        if (amount > info.stakedAmount) {\n          delta = amount - info.stakedAmount;\n          IERC20( ATHER ).safeTransferFrom( treasury, address(this), delta );\n          IERC20( SATHER ).safeTransferFrom( address(this), _account, delta );\n          stakerInfo[_account].totalHitoricallyRebased.add(delta);\n        } else {\n          delta = info.stakedAmount - amount;\n          IERC20Mintable( ATHER ).burnFrom( address(this), delta );\n          IERC20Mintable( SATHER ).burnFrom( _account, delta );\n          stakerInfo[_account].totalHitoricallyRebased.sub(delta);\n        }\n        stakerInfo[_account].stakedAmount = amount;\n        stakerInfo[_account].rebasedLast = uint32(rebases.length - 1);\n    }\n\n    /**\n        @notice stake ATHER to enter warmup\n        @param _account uint\n     */\n    function stakeEffect( address _account, uint _amount ) public onlyTreasury() {\n        if (stakerInfo[_account].memberSince == 0) {\n            stakerInfo[_account] = StakerInfo({\n              stakedAmount: 0,\n              earlyUnstakePenalty: 0,\n              totalHitoricallyStaked: 0,\n              totalHitoricallyUnstaked: 0,\n              totalHitoricallyRebased: 0,\n              rebasedLast: 0,\n              stakedLast: 0,\n              unstakedLast: 0,\n              memberSince: uint32(block.number),\n              rebasedOnce: false,\n              awards: new string[](0)\n            });\n        }\n        rebaseAccount(_account);\n        stakerInfo[_account].totalHitoricallyStaked = stakerInfo[_account].totalHitoricallyStaked.add(_amount);\n        stakerInfo[_account].stakedLast = uint32(block.number);\n    }\n\n    /**\n        @notice redeem sATHER for ATHER\n        @param _account uint\n     */\n    function unstakeEffect( address _account, uint _amount ) public onlyTreasury() {\n        rebaseAccount(_account);\n        stakerInfo[_account].totalHitoricallyUnstaked = stakerInfo[_account].totalHitoricallyUnstaked.add(_amount); \n        stakerInfo[_account].unstakedLast = uint32(block.number);\n    }\n\n    function stakedBalanceOf(address account) public view returns ( uint ) {\n        StakerInfo memory info = stakerInfo[account];\n        if (info.memberSince == 0) {\n            return 0;\n        }\n        uint amount = info.stakedAmount;\n        uint32 startIndex = info.rebasedOnce ? 0 : info.rebasedLast + 1;\n        for ( uint32 i = startIndex; i < rebases.length; i++ ) {\n            amount = amount.mul(rebases[i].multiplier).div(1e18);\n        }\n        return amount;\n    }\n\n    function accountExists(address _account) public view returns ( bool ) {\n        return stakerInfo[_account].memberSince > 0;\n    }\n\n    function getAccountInfo(address account) public view returns (StakerInfo memory) {\n        return stakerInfo[account];\n    }\n\n    function getStakingConfig() public view returns (StakingController memory) {\n        return config;\n    }\n\n    /**\n        @notice returns contract ATHER holdings, including bonuses provided\n        @return uint\n     */\n    function contractBalance() public view returns ( uint ) {\n        return IERC20( ATHER ).balanceOf( address(this) );\n    }\n    \n    /**\n     * @notice set warmup period for new stakers\n     * @param _penaltyStartPercent uint16 (10000 == 100%)\n     * @param _penaltyHalfLife uint32 (10000 == 100%)\n     */\n    function setConfig(\n      uint16 _penaltyStartPercent,\n      uint32 _penaltyHalfLife,\n      uint _maxStakingLimit,\n      uint _rebaseThreshold\n    ) external onlyOwner() {\n        if (_penaltyStartPercent > 0) { config.penaltyStartPercent = _penaltyStartPercent; }\n        if (_penaltyHalfLife > 0) { config.penaltyHalfLife = _penaltyHalfLife; }\n        if (_maxStakingLimit > 0) { config.maxStakingLimit = _maxStakingLimit; }\n        if (_rebaseThreshold > 0) { config.rebaseThreshold = _rebaseThreshold; }\n    }\n\n    function setStakeSuspension(bool value) external onlyOwner() {\n        config.stakingSuspended = value;\n    }\n\n    function setUnstakeSuspension(bool value) external onlyOwner() {\n        config.stakingSuspended = value;\n    }\n\n}",
  "sourcePath": "/var/www/atherton/solidity/contracts/Staking.sol",
  "compiler": {
    "name": "solc",
    "version": "0.8.0+commit.c7dfd78e.Emscripten.clang"
  },
  "schemaVersion": "3.4.3",
  "updatedAt": "2021-12-07T05:40:45.713Z",
  "devdoc": {
    "kind": "dev",
    "methods": {
      "contractBalance()": {
        "returns": {
          "_0": "uint"
        }
      },
      "owner()": {
        "details": "Returns the address of the current owner."
      },
      "renounceOwnership()": {
        "details": "Leaves the contract without owner. It will not be possible to call `onlyOwner` functions anymore. Can only be called by the current owner. NOTE: Renouncing ownership will leave the contract without an owner, thereby removing any functionality that is only available to the owner."
      },
      "setConfig(uint16,uint32,uint256,uint256)": {
        "params": {
          "_penaltyHalfLife": "uint32 (10000 == 100%)",
          "_penaltyStartPercent": "uint16 (10000 == 100%)"
        }
      },
      "stakeEffect(address,uint256)": {
        "params": {
          "_account": "uint"
        }
      },
      "transferOwnership(address)": {
        "details": "Transfers ownership of the contract to a new account (`newOwner`). Can only be called by the current owner."
      },
      "unstakeEffect(address,uint256)": {
        "params": {
          "_account": "uint"
        }
      }
    },
    "version": 1
  },
  "userdoc": {
    "kind": "user",
    "methods": {
      "contractBalance()": {
        "notice": "returns contract ATHER holdings, including bonuses provided"
      },
      "epochCheck()": {
        "notice": "trigger rebase if epoch over"
      },
      "setConfig(uint16,uint32,uint256,uint256)": {
        "notice": "set warmup period for new stakers"
      },
      "stakeEffect(address,uint256)": {
        "notice": "stake ATHER to enter warmup"
      },
      "unstakeEffect(address,uint256)": {
        "notice": "redeem sATHER for ATHER"
      }
    },
    "version": 1
  }
}