{
  "contractName": "AthertonStaking",
  "abi": [
    {
      "inputs": [
        {
          "internalType": "address",
          "name": "_ATHER",
          "type": "address"
        },
        {
          "internalType": "address",
          "name": "_SATHER",
          "type": "address"
        },
        {
          "internalType": "address",
          "name": "_treasury",
          "type": "address"
        },
        {
          "internalType": "uint256",
          "name": "_epochLength",
          "type": "uint256"
        },
        {
          "internalType": "uint256",
          "name": "_firstEpochEnds",
          "type": "uint256"
        },
        {
          "internalType": "uint256",
          "name": "_initialDistribute",
          "type": "uint256"
        }
      ],
      "stateMutability": "nonpayable",
      "type": "constructor"
    },
    {
      "anonymous": false,
      "inputs": [
        {
          "indexed": true,
          "internalType": "address",
          "name": "previousOwner",
          "type": "address"
        },
        {
          "indexed": true,
          "internalType": "address",
          "name": "newOwner",
          "type": "address"
        }
      ],
      "name": "OwnershipTransferred",
      "type": "event"
    },
    {
      "anonymous": false,
      "inputs": [
        {
          "indexed": false,
          "internalType": "uint256",
          "name": "epoch",
          "type": "uint256"
        },
        {
          "indexed": false,
          "internalType": "uint256",
          "name": "index",
          "type": "uint256"
        },
        {
          "indexed": false,
          "internalType": "uint256",
          "name": "rebaseAmount",
          "type": "uint256"
        },
        {
          "indexed": false,
          "internalType": "bool",
          "name": "rebaseNegative",
          "type": "bool"
        },
        {
          "indexed": false,
          "internalType": "uint256",
          "name": "balanceBeforeRebase",
          "type": "uint256"
        },
        {
          "indexed": false,
          "internalType": "uint256",
          "name": "multiplier",
          "type": "uint256"
        }
      ],
      "name": "StakeRebased",
      "type": "event"
    },
    {
      "inputs": [],
      "name": "ATHER",
      "outputs": [
        {
          "internalType": "address",
          "name": "",
          "type": "address"
        }
      ],
      "stateMutability": "view",
      "type": "function"
    },
    {
      "inputs": [],
      "name": "SATHER",
      "outputs": [
        {
          "internalType": "address",
          "name": "",
          "type": "address"
        }
      ],
      "stateMutability": "view",
      "type": "function"
    },
    {
      "inputs": [],
      "name": "epoch",
      "outputs": [
        {
          "internalType": "uint256",
          "name": "length",
          "type": "uint256"
        },
        {
          "internalType": "uint256",
          "name": "number",
          "type": "uint256"
        },
        {
          "internalType": "uint256",
          "name": "endBlock",
          "type": "uint256"
        },
        {
          "internalType": "uint256",
          "name": "distribute",
          "type": "uint256"
        },
        {
          "internalType": "bool",
          "name": "distributeNegative",
          "type": "bool"
        }
      ],
      "stateMutability": "view",
      "type": "function"
    },
    {
      "inputs": [],
      "name": "owner",
      "outputs": [
        {
          "internalType": "address",
          "name": "",
          "type": "address"
        }
      ],
      "stateMutability": "view",
      "type": "function"
    },
    {
      "inputs": [
        {
          "internalType": "uint256",
          "name": "",
          "type": "uint256"
        }
      ],
      "name": "rebases",
      "outputs": [
        {
          "internalType": "uint256",
          "name": "epoch",
          "type": "uint256"
        },
        {
          "internalType": "uint256",
          "name": "index",
          "type": "uint256"
        },
        {
          "internalType": "uint256",
          "name": "rebaseAmount",
          "type": "uint256"
        },
        {
          "internalType": "bool",
          "name": "rebaseNegative",
          "type": "bool"
        },
        {
          "internalType": "uint256",
          "name": "balanceBeforeRebase",
          "type": "uint256"
        },
        {
          "internalType": "uint256",
          "name": "multiplier",
          "type": "uint256"
        },
        {
          "internalType": "uint256",
          "name": "blockNumber",
          "type": "uint256"
        }
      ],
      "stateMutability": "view",
      "type": "function"
    },
    {
      "inputs": [],
      "name": "renounceOwnership",
      "outputs": [],
      "stateMutability": "nonpayable",
      "type": "function"
    },
    {
      "inputs": [
        {
          "internalType": "address",
          "name": "",
          "type": "address"
        }
      ],
      "name": "stakerInfo",
      "outputs": [
        {
          "internalType": "uint256",
          "name": "stakedAmount",
          "type": "uint256"
        },
        {
          "internalType": "uint256",
          "name": "earlyUnstakePenalty",
          "type": "uint256"
        },
        {
          "internalType": "uint256",
          "name": "totalHitoricallyStaked",
          "type": "uint256"
        },
        {
          "internalType": "uint256",
          "name": "totalHitoricallyUnstaked",
          "type": "uint256"
        },
        {
          "internalType": "uint256",
          "name": "totalHitoricallyRebased",
          "type": "uint256"
        },
        {
          "internalType": "uint16",
          "name": "autoRestakePercent",
          "type": "uint16"
        },
        {
          "internalType": "uint32",
          "name": "rebasedLast",
          "type": "uint32"
        },
        {
          "internalType": "uint32",
          "name": "stakedLast",
          "type": "uint32"
        },
        {
          "internalType": "uint32",
          "name": "unstakedLast",
          "type": "uint32"
        },
        {
          "internalType": "uint32",
          "name": "memberSince",
          "type": "uint32"
        },
        {
          "internalType": "bool",
          "name": "rebasedOnce",
          "type": "bool"
        }
      ],
      "stateMutability": "view",
      "type": "function"
    },
    {
      "inputs": [
        {
          "internalType": "address",
          "name": "newOwner",
          "type": "address"
        }
      ],
      "name": "transferOwnership",
      "outputs": [],
      "stateMutability": "nonpayable",
      "type": "function"
    },
    {
      "inputs": [],
      "name": "treasury",
      "outputs": [
        {
          "internalType": "address",
          "name": "",
          "type": "address"
        }
      ],
      "stateMutability": "view",
      "type": "function"
    },
    {
      "inputs": [],
      "name": "epochCheck",
      "outputs": [],
      "stateMutability": "nonpayable",
      "type": "function"
    },
    {
      "inputs": [
        {
          "internalType": "address",
          "name": "_account",
          "type": "address"
        }
      ],
      "name": "rebaseAccount",
      "outputs": [],
      "stateMutability": "nonpayable",
      "type": "function"
    },
    {
      "inputs": [
        {
          "internalType": "address",
          "name": "_account",
          "type": "address"
        },
        {
          "internalType": "uint256",
          "name": "_amount",
          "type": "uint256"
        }
      ],
      "name": "stakeEffect",
      "outputs": [],
      "stateMutability": "nonpayable",
      "type": "function"
    },
    {
      "inputs": [
        {
          "internalType": "address",
          "name": "_account",
          "type": "address"
        },
        {
          "internalType": "uint256",
          "name": "_amount",
          "type": "uint256"
        }
      ],
      "name": "unstakeEffect",
      "outputs": [],
      "stateMutability": "nonpayable",
      "type": "function"
    },
    {
      "inputs": [
        {
          "internalType": "uint256",
          "name": "_dividend",
          "type": "uint256"
        },
        {
          "internalType": "bool",
          "name": "_isPositive",
          "type": "bool"
        }
      ],
      "name": "updateDistribute",
      "outputs": [],
      "stateMutability": "nonpayable",
      "type": "function"
    },
    {
      "inputs": [
        {
          "internalType": "address",
          "name": "_account",
          "type": "address"
        },
        {
          "internalType": "uint16",
          "name": "_value",
          "type": "uint16"
        }
      ],
      "name": "setAutoRestake",
      "outputs": [],
      "stateMutability": "nonpayable",
      "type": "function"
    },
    {
      "inputs": [
        {
          "internalType": "address",
          "name": "account",
          "type": "address"
        }
      ],
      "name": "stakedBalanceOf",
      "outputs": [
        {
          "internalType": "uint256",
          "name": "",
          "type": "uint256"
        }
      ],
      "stateMutability": "view",
      "type": "function"
    },
    {
      "inputs": [
        {
          "internalType": "address",
          "name": "_account",
          "type": "address"
        }
      ],
      "name": "earlyUnstakePenaltyOf",
      "outputs": [
        {
          "internalType": "uint256",
          "name": "",
          "type": "uint256"
        }
      ],
      "stateMutability": "view",
      "type": "function"
    },
    {
      "inputs": [
        {
          "internalType": "address",
          "name": "account",
          "type": "address"
        }
      ],
      "name": "accountRestakePercent",
      "outputs": [
        {
          "internalType": "uint16",
          "name": "",
          "type": "uint16"
        }
      ],
      "stateMutability": "view",
      "type": "function"
    },
    {
      "inputs": [
        {
          "internalType": "address",
          "name": "_account",
          "type": "address"
        }
      ],
      "name": "accountExists",
      "outputs": [
        {
          "internalType": "bool",
          "name": "",
          "type": "bool"
        }
      ],
      "stateMutability": "view",
      "type": "function"
    },
    {
      "inputs": [
        {
          "internalType": "address",
          "name": "account",
          "type": "address"
        }
      ],
      "name": "accountInfo",
      "outputs": [
        {
          "components": [
            {
              "internalType": "uint256",
              "name": "stakedAmount",
              "type": "uint256"
            },
            {
              "internalType": "uint256",
              "name": "earlyUnstakePenalty",
              "type": "uint256"
            },
            {
              "internalType": "uint256",
              "name": "totalHitoricallyStaked",
              "type": "uint256"
            },
            {
              "internalType": "uint256",
              "name": "totalHitoricallyUnstaked",
              "type": "uint256"
            },
            {
              "internalType": "uint256",
              "name": "totalHitoricallyRebased",
              "type": "uint256"
            },
            {
              "internalType": "uint16",
              "name": "autoRestakePercent",
              "type": "uint16"
            },
            {
              "internalType": "uint32",
              "name": "rebasedLast",
              "type": "uint32"
            },
            {
              "internalType": "uint32",
              "name": "stakedLast",
              "type": "uint32"
            },
            {
              "internalType": "uint32",
              "name": "unstakedLast",
              "type": "uint32"
            },
            {
              "internalType": "uint32",
              "name": "memberSince",
              "type": "uint32"
            },
            {
              "internalType": "bool",
              "name": "rebasedOnce",
              "type": "bool"
            },
            {
              "internalType": "string[]",
              "name": "awards",
              "type": "string[]"
            }
          ],
          "internalType": "struct AthertonStaking.StakerInfo",
          "name": "",
          "type": "tuple"
        }
      ],
      "stateMutability": "view",
      "type": "function"
    },
    {
      "inputs": [],
      "name": "stakingConfig",
      "outputs": [
        {
          "components": [
            {
              "internalType": "uint16",
              "name": "penaltyStartPercent",
              "type": "uint16"
            },
            {
              "internalType": "uint16",
              "name": "penaltyHalfLife",
              "type": "uint16"
            },
            {
              "internalType": "uint16",
              "name": "penaltyIgnoreAfter",
              "type": "uint16"
            },
            {
              "internalType": "uint256",
              "name": "maxStakingLimit",
              "type": "uint256"
            },
            {
              "internalType": "uint256",
              "name": "rebaseThreshold",
              "type": "uint256"
            },
            {
              "internalType": "bool",
              "name": "stakingSuspended",
              "type": "bool"
            },
            {
              "internalType": "bool",
              "name": "unstakingSuspended",
              "type": "bool"
            },
            {
              "internalType": "bool",
              "name": "penaltySuspended",
              "type": "bool"
            }
          ],
          "internalType": "struct AthertonStaking.StakingController",
          "name": "",
          "type": "tuple"
        }
      ],
      "stateMutability": "view",
      "type": "function"
    },
    {
      "inputs": [],
      "name": "contractBalance",
      "outputs": [
        {
          "internalType": "uint256",
          "name": "",
          "type": "uint256"
        }
      ],
      "stateMutability": "view",
      "type": "function"
    },
    {
      "inputs": [
        {
          "internalType": "uint16",
          "name": "_penaltyStartPercent",
          "type": "uint16"
        },
        {
          "internalType": "uint16",
          "name": "_penaltyHalfLife",
          "type": "uint16"
        },
        {
          "internalType": "uint16",
          "name": "_penaltyIgnoreAfter",
          "type": "uint16"
        },
        {
          "internalType": "uint256",
          "name": "_maxStakingLimit",
          "type": "uint256"
        },
        {
          "internalType": "uint256",
          "name": "_rebaseThreshold",
          "type": "uint256"
        }
      ],
      "name": "setControls",
      "outputs": [],
      "stateMutability": "nonpayable",
      "type": "function"
    },
    {
      "inputs": [],
      "name": "fastForward",
      "outputs": [],
      "stateMutability": "nonpayable",
      "type": "function"
    },
    {
      "inputs": [
        {
          "internalType": "bool",
          "name": "_value",
          "type": "bool"
        }
      ],
      "name": "setStakeSuspension",
      "outputs": [],
      "stateMutability": "nonpayable",
      "type": "function"
    },
    {
      "inputs": [
        {
          "internalType": "bool",
          "name": "_value",
          "type": "bool"
        }
      ],
      "name": "setUnstakeSuspension",
      "outputs": [],
      "stateMutability": "nonpayable",
      "type": "function"
    },
    {
      "inputs": [
        {
          "internalType": "bool",
          "name": "_value",
          "type": "bool"
        }
      ],
      "name": "setEarlyUnstakePenalty",
      "outputs": [],
      "stateMutability": "nonpayable",
      "type": "function"
    },
    {
      "inputs": [
        {
          "internalType": "address",
          "name": "_account",
          "type": "address"
        }
      ],
      "name": "forgiveEarlyUnstakePenalty",
      "outputs": [],
      "stateMutability": "nonpayable",
      "type": "function"
    }
  ],
  "bytecode": "0x60e06040523480156200001157600080fd5b50604051620042bd380380620042bd833981810160405281019062000037919062000665565b620000576200004b6200053c60201b60201c565b6200054460201b60201c565b600073ffffffffffffffffffffffffffffffffffffffff168673ffffffffffffffffffffffffffffffffffffffff1614156200009257600080fd5b8573ffffffffffffffffffffffffffffffffffffffff1660808173ffffffffffffffffffffffffffffffffffffffff1660601b81525050600073ffffffffffffffffffffffffffffffffffffffff168573ffffffffffffffffffffffffffffffffffffffff1614156200010457600080fd5b8473ffffffffffffffffffffffffffffffffffffffff1660a08173ffffffffffffffffffffffffffffffffffffffff1660601b81525050600073ffffffffffffffffffffffffffffffffffffffff168473ffffffffffffffffffffffffffffffffffffffff1614156200017657600080fd5b8373ffffffffffffffffffffffffffffffffffffffff1660c08173ffffffffffffffffffffffffffffffffffffffff1660601b815250506040518060a00160405280848152602001600081526020018381526020018281526020016000151581525060026000820151816000015560208201518160010155604082015181600201556060820151816003015560808201518160040160006101000a81548160ff02191690831515021790555090505060006064905060006001905060405180610100016040528061138861ffff16815260200161168061ffff168152602001619d8061ffff1681526020016200029f670de0b6b3a76400006200028b620f4240876200060860201b620025ef1790919060201c565b6200060860201b620025ef1790919060201c565b8152602001620002c6670de0b6b3a7640000846200060860201b620025ef1790919060201c565b815260200160001515815260200160001515815260200160001515815250600760008201518160000160006101000a81548161ffff021916908361ffff16021790555060208201518160000160026101000a81548161ffff021916908361ffff16021790555060408201518160000160046101000a81548161ffff021916908361ffff160217905550606082015181600101556080820151816002015560a08201518160030160006101000a81548160ff02191690831515021790555060c08201518160030160016101000a81548160ff02191690831515021790555060e08201518160030160026101000a81548160ff0219169083151502179055509050508773ffffffffffffffffffffffffffffffffffffffff1663095ea7b3877fffffffffffffffffffffffffffffffffffffffffffffffffffffffffffffffff6040518363ffffffff1660e01b81526004016200042392919062000749565b602060405180830381600087803b1580156200043e57600080fd5b505af115801562000453573d6000803e3d6000fd5b505050506040513d601f19601f82011682018060405250810190620004799190620006fb565b508673ffffffffffffffffffffffffffffffffffffffff1663095ea7b3877fffffffffffffffffffffffffffffffffffffffffffffffffffffffffffffffff6040518363ffffffff1660e01b8152600401620004d792919062000749565b602060405180830381600087803b158015620004f257600080fd5b505af115801562000507573d6000803e3d6000fd5b505050506040513d601f19601f820116820180604052508101906200052d9190620006fb565b5050505050505050506200089e565b600033905090565b60008060009054906101000a900473ffffffffffffffffffffffffffffffffffffffff169050816000806101000a81548173ffffffffffffffffffffffffffffffffffffffff021916908373ffffffffffffffffffffffffffffffffffffffff1602179055508173ffffffffffffffffffffffffffffffffffffffff168173ffffffffffffffffffffffffffffffffffffffff167f8be0079c531659141344cd1fd0a4f28419497f9722a3daafe3b4186f6b6457e060405160405180910390a35050565b6000818362000618919062000776565b905092915050565b600081519050620006318162000850565b92915050565b60008151905062000648816200086a565b92915050565b6000815190506200065f8162000884565b92915050565b60008060008060008060c087890312156200067f57600080fd5b60006200068f89828a0162000620565b9650506020620006a289828a0162000620565b9550506040620006b589828a0162000620565b9450506060620006c889828a016200064e565b9350506080620006db89828a016200064e565b92505060a0620006ee89828a016200064e565b9150509295509295509295565b6000602082840312156200070e57600080fd5b60006200071e8482850162000637565b91505092915050565b6200073281620007d7565b82525050565b620007438162000817565b82525050565b600060408201905062000760600083018562000727565b6200076f602083018462000738565b9392505050565b6000620007838262000817565b9150620007908362000817565b9250817fffffffffffffffffffffffffffffffffffffffffffffffffffffffffffffffff0483118215151615620007cc57620007cb62000821565b5b828202905092915050565b6000620007e482620007f7565b9050919050565b60008115159050919050565b600073ffffffffffffffffffffffffffffffffffffffff82169050919050565b6000819050919050565b7f4e487b7100000000000000000000000000000000000000000000000000000000600052601160045260246000fd5b6200085b81620007d7565b81146200086757600080fd5b50565b6200087581620007eb565b81146200088157600080fd5b50565b6200088f8162000817565b81146200089b57600080fd5b50565b60805160601c60a05160601c60c05160601c6139b56200090860003960008181610553015281816111ae015281816112ad01528181611588015281816116e301528181611852015261219601526000611d2b01526000818161145501526119eb01526139b56000f3fe608060405234801561001057600080fd5b50600436106101c45760003560e01c806375cd51ed116100f9578063e4b82d7011610097578063f680812011610071578063f6808120146104f3578063f7a7f3401461050f578063fb01508d1461052b578063ffb1738014610535576101c4565b8063e4b82d70146104b1578063f2fde38b146104bb578063f312d3d1146104d7576101c4565b80638da5cb5b116100d35780638da5cb5b14610423578063900cf0cf14610441578063a7310b5814610463578063adec520a14610493576101c4565b806375cd51ed146103b95780637f5bdecd146103e95780638b7afe2e14610405576101c4565b80634e745f1f116101665780635e2d1025116101405780635e2d10251461033f57806361d027b31461035b578063715018a61461037957806373c69eb714610383576101c4565b80634e745f1f146102b957806350b2b931146102f357806353aafda614610323576101c4565b8063307f270f116101a2578063307f270f1461023157806336829dfc146102615780633b4abb0a1461027f5780634e3d88531461029b576101c4565b80631619cf3a146101c957806316765391146101e55780632ee3a75e14610215575b600080fd5b6101e360048036038101906101de9190612c01565b610551565b005b6101ff60048036038101906101fa9190612bd8565b61067c565b60405161020c9190613310565b60405180910390f35b61022f600480360381019061022a9190612ca2565b6109b1565b005b61024b60048036038101906102469190612bd8565b610ae6565b6040516102589190613310565b60405180910390f35b610269610e4d565b60405161027691906132d9565b60405180910390f35b61029960048036038101906102949190612bd8565b610f2d565b005b6102a3611453565b6040516102b091906131bc565b60405180910390f35b6102d360048036038101906102ce9190612bd8565b611477565b6040516102ea9b9a9998979695949392919061344e565b60405180910390f35b61030d60048036038101906103089190612bd8565b61152c565b60405161031a91906132f5565b60405180910390f35b61033d60048036038101906103389190612d6b565b611586565b005b61035960048036038101906103549190612c79565b611645565b005b6103636116e1565b60405161037091906131bc565b60405180910390f35b610381611705565b005b61039d60048036038101906103989190612d19565b61178d565b6040516103b0979695949392919061338c565b60405180910390f35b6103d360048036038101906103ce9190612bd8565b6117ec565b6040516103e0919061321c565b60405180910390f35b61040360048036038101906103fe9190612c3d565b611850565b005b61040d6119e7565b60405161041a9190613310565b60405180910390f35b61042b611a97565b60405161043891906131bc565b60405180910390f35b610449611ac0565b60405161045a9594939291906133fb565b60405180910390f35b61047d60048036038101906104789190612bd8565b611af1565b60405161048a91906132b7565b60405180910390f35b61049b611d29565b6040516104a891906131bc565b60405180910390f35b6104b9611d4d565b005b6104d560048036038101906104d09190612bd8565b611de8565b005b6104f160048036038101906104ec9190612c79565b611ee0565b005b61050d60048036038101906105089190612bd8565b611f7c565b005b61052960048036038101906105249190612c79565b61208b565b005b610533612127565b005b61054f600480360381019061054a9190612c3d565b612194565b005b7f000000000000000000000000000000000000000000000000000000000000000073ffffffffffffffffffffffffffffffffffffffff163373ffffffffffffffffffffffffffffffffffffffff16146105df576040517f08c379a00000000000000000000000000000000000000000000000000000000081526004016105d690613297565b60405180910390fd5b60008161ffff1614156105f157610678565b61ffff80168161ffff16141561060657600090505b6127108161ffff16111561061a5761271090505b80600b60008473ffffffffffffffffffffffffffffffffffffffff1673ffffffffffffffffffffffffffffffffffffffff16815260200190815260200160002060050160006101000a81548161ffff021916908361ffff1602179055505b5050565b600080600b60008473ffffffffffffffffffffffffffffffffffffffff1673ffffffffffffffffffffffffffffffffffffffff1681526020019081526020016000206040518061018001604052908160008201548152602001600182015481526020016002820154815260200160038201548152602001600482015481526020016005820160009054906101000a900461ffff1661ffff1661ffff1681526020016005820160029054906101000a900463ffffffff1663ffffffff1663ffffffff1681526020016005820160069054906101000a900463ffffffff1663ffffffff1663ffffffff16815260200160058201600a9054906101000a900463ffffffff1663ffffffff1663ffffffff16815260200160058201600e9054906101000a900463ffffffff1663ffffffff1663ffffffff1681526020016005820160129054906101000a900460ff1615151515815260200160068201805480602002602001604051908101604052809291908181526020016000905b828210156108a0578382906000526020600020018054610813906137ac565b80601f016020809104026020016040519081016040528092919081815260200182805461083f906137ac565b801561088c5780601f106108615761010080835404028352916020019161088c565b820191906000526020600020905b81548152906001019060200180831161086f57829003601f168201915b5050505050815260200190600101906107f4565b50505050815250509050600081610120015163ffffffff1614156108c85760009150506109ac565b60008160000151905060008261014001516108f35760018360c001516108ee91906135b5565b6108f6565b60005b905060008190505b6001805490508163ffffffff1610156109a45761098f670de0b6b3a764000061098160018463ffffffff1681548110610960577f4e487b7100000000000000000000000000000000000000000000000000000000600052603260045260246000fd5b906000526020600020906007020160050154866125ef90919063ffffffff16565b61260590919063ffffffff16565b9250808061099c90613827565b9150506108fe565b508193505050505b919050565b6109b961261b565b73ffffffffffffffffffffffffffffffffffffffff166109d7611a97565b73ffffffffffffffffffffffffffffffffffffffff1614610a2d576040517f08c379a0000000000000000000000000000000000000000000000000000000008152600401610a2490613257565b60405180910390fd5b60008561ffff161115610a5b5784600760000160006101000a81548161ffff021916908361ffff1602179055505b60008461ffff161115610a895783600760000160026101000a81548161ffff021916908361ffff1602179055505b60008361ffff161115610ab75782600760000160046101000a81548161ffff021916908361ffff1602179055505b6000821115610acb57816007600101819055505b6000811115610adf57806007600201819055505b5050505050565b600080600b60008473ffffffffffffffffffffffffffffffffffffffff1673ffffffffffffffffffffffffffffffffffffffff1681526020019081526020016000206040518061018001604052908160008201548152602001600182015481526020016002820154815260200160038201548152602001600482015481526020016005820160009054906101000a900461ffff1661ffff1661ffff1681526020016005820160029054906101000a900463ffffffff1663ffffffff1663ffffffff1681526020016005820160069054906101000a900463ffffffff1663ffffffff1663ffffffff16815260200160058201600a9054906101000a900463ffffffff1663ffffffff1663ffffffff16815260200160058201600e9054906101000a900463ffffffff1663ffffffff1663ffffffff1681526020016005820160129054906101000a900460ff1615151515815260200160068201805480602002602001604051908101604052809291908181526020016000905b82821015610d0a578382906000526020600020018054610c7d906137ac565b80601f0160208091040260200160405190810160405280929190818152602001828054610ca9906137ac565b8015610cf65780601f10610ccb57610100808354040283529160200191610cf6565b820191906000526020600020905b815481529060010190602001808311610cd957829003601f168201915b505050505081526020019060010190610c5e565b50505050815250509050600081610120015163ffffffff161480610d32575060008160200151145b80610d4c5750600760030160029054906101000a900460ff165b15610d5b576000915050610e48565b60008160e0015143610d6d91906136df565b9050600760000160049054906101000a900461ffff1661ffff168163ffffffff1610610d9e57600092505050610e48565b6000600760000160029054906101000a900461ffff1661ffff1682610dc39190613620565b63ffffffff168360200151901c90506002600760000160029054906101000a900461ffff1661ffff16600760000160029054906101000a900461ffff1661ffff1684610e0f9190613854565b63ffffffff1683610e209190613651565b610e2a91906135ef565b610e3491906135ef565b81610e3f91906136ab565b90508093505050505b919050565b610e55612932565b6007604051806101000160405290816000820160009054906101000a900461ffff1661ffff1661ffff1681526020016000820160029054906101000a900461ffff1661ffff1661ffff1681526020016000820160049054906101000a900461ffff1661ffff1661ffff16815260200160018201548152602001600282015481526020016003820160009054906101000a900460ff161515151581526020016003820160019054906101000a900460ff161515151581526020016003820160029054906101000a900460ff161515151581525050905090565b610f36816117ec565b610f3f57611450565b6000600b60008373ffffffffffffffffffffffffffffffffffffffff1673ffffffffffffffffffffffffffffffffffffffff1681526020019081526020016000206040518061018001604052908160008201548152602001600182015481526020016002820154815260200160038201548152602001600482015481526020016005820160009054906101000a900461ffff1661ffff1661ffff1681526020016005820160029054906101000a900463ffffffff1663ffffffff1663ffffffff1681526020016005820160069054906101000a900463ffffffff1663ffffffff1663ffffffff16815260200160058201600a9054906101000a900463ffffffff1663ffffffff1663ffffffff16815260200160058201600e9054906101000a900463ffffffff1663ffffffff1663ffffffff1681526020016005820160129054906101000a900460ff1615151515815260200160068201805480602002602001604051908101604052809291908181526020016000905b828210156111625783829060005260206000200180546110d5906137ac565b80601f0160208091040260200160405190810160405280929190818152602001828054611101906137ac565b801561114e5780601f106111235761010080835404028352916020019161114e565b820191906000526020600020905b81548152906001019060200180831161113157829003601f168201915b5050505050815260200190600101906110b6565b5050505081525050905060006111778361067c565b9050816000015181141561118c575050611450565b60008260000151821115611299578260000151826111aa91906136ab565b90507f000000000000000000000000000000000000000000000000000000000000000073ffffffffffffffffffffffffffffffffffffffff166338d781d830868460016040518563ffffffff1660e01b815260040161120c94939291906131d7565b600060405180830381600087803b15801561122657600080fd5b505af115801561123a573d6000803e3d6000fd5b5050505061129381600b60008773ffffffffffffffffffffffffffffffffffffffff1673ffffffffffffffffffffffffffffffffffffffff1681526020019081526020016000206004015461262390919063ffffffff16565b50611394565b8183600001516112a991906136ab565b90507f000000000000000000000000000000000000000000000000000000000000000073ffffffffffffffffffffffffffffffffffffffff166338d781d830868460006040518563ffffffff1660e01b815260040161130b94939291906131d7565b600060405180830381600087803b15801561132557600080fd5b505af1158015611339573d6000803e3d6000fd5b5050505061139281600b60008773ffffffffffffffffffffffffffffffffffffffff1673ffffffffffffffffffffffffffffffffffffffff1681526020019081526020016000206004015461263990919063ffffffff16565b505b81600b60008673ffffffffffffffffffffffffffffffffffffffff1673ffffffffffffffffffffffffffffffffffffffff16815260200190815260200160002060000181905550600180805490506113ec91906136ab565b600b60008673ffffffffffffffffffffffffffffffffffffffff1673ffffffffffffffffffffffffffffffffffffffff16815260200190815260200160002060050160026101000a81548163ffffffff021916908363ffffffff1602179055505050505b50565b7f000000000000000000000000000000000000000000000000000000000000000081565b600b6020528060005260406000206000915090508060000154908060010154908060020154908060030154908060040154908060050160009054906101000a900461ffff16908060050160029054906101000a900463ffffffff16908060050160069054906101000a900463ffffffff169080600501600a9054906101000a900463ffffffff169080600501600e9054906101000a900463ffffffff16908060050160129054906101000a900460ff1690508b565b6000600b60008373ffffffffffffffffffffffffffffffffffffffff1673ffffffffffffffffffffffffffffffffffffffff16815260200190815260200160002060050160009054906101000a900461ffff169050919050565b7f000000000000000000000000000000000000000000000000000000000000000073ffffffffffffffffffffffffffffffffffffffff163373ffffffffffffffffffffffffffffffffffffffff1614611614576040517f08c379a000000000000000000000000000000000000000000000000000000000815260040161160b90613297565b60405180910390fd5b8015611640576116328260026003015461262390919063ffffffff16565b600260030181905550611641565b5b5050565b61164d61261b565b73ffffffffffffffffffffffffffffffffffffffff1661166b611a97565b73ffffffffffffffffffffffffffffffffffffffff16146116c1576040517f08c379a00000000000000000000000000000000000000000000000000000000081526004016116b890613257565b60405180910390fd5b80600760030160006101000a81548160ff02191690831515021790555050565b7f000000000000000000000000000000000000000000000000000000000000000081565b61170d61261b565b73ffffffffffffffffffffffffffffffffffffffff1661172b611a97565b73ffffffffffffffffffffffffffffffffffffffff1614611781576040517f08c379a000000000000000000000000000000000000000000000000000000000815260040161177890613257565b60405180910390fd5b61178b600061264f565b565b6001818154811061179d57600080fd5b90600052602060002090600702016000915090508060000154908060010154908060020154908060030160009054906101000a900460ff16908060040154908060050154908060060154905087565b600080600b60008473ffffffffffffffffffffffffffffffffffffffff1673ffffffffffffffffffffffffffffffffffffffff168152602001908152602001600020600501600e9054906101000a900463ffffffff1663ffffffff16119050919050565b7f000000000000000000000000000000000000000000000000000000000000000073ffffffffffffffffffffffffffffffffffffffff163373ffffffffffffffffffffffffffffffffffffffff16146118de576040517f08c379a00000000000000000000000000000000000000000000000000000000081526004016118d590613297565b60405180910390fd5b6118e782610f2d565b61193c81600b60008573ffffffffffffffffffffffffffffffffffffffff1673ffffffffffffffffffffffffffffffffffffffff1681526020019081526020016000206003015461262390919063ffffffff16565b600b60008473ffffffffffffffffffffffffffffffffffffffff1673ffffffffffffffffffffffffffffffffffffffff1681526020019081526020016000206003018190555043600b60008473ffffffffffffffffffffffffffffffffffffffff1673ffffffffffffffffffffffffffffffffffffffff168152602001908152602001600020600501600a6101000a81548163ffffffff021916908363ffffffff1602179055505050565b60007f000000000000000000000000000000000000000000000000000000000000000073ffffffffffffffffffffffffffffffffffffffff166370a08231306040518263ffffffff1660e01b8152600401611a4291906131bc565b60206040518083038186803b158015611a5a57600080fd5b505afa158015611a6e573d6000803e3d6000fd5b505050506040513d601f19601f82011682018060405250810190611a929190612d42565b905090565b60008060009054906101000a900473ffffffffffffffffffffffffffffffffffffffff16905090565b60028060000154908060010154908060020154908060030154908060040160009054906101000a900460ff16905085565b611af9612989565b600b60008373ffffffffffffffffffffffffffffffffffffffff1673ffffffffffffffffffffffffffffffffffffffff1681526020019081526020016000206040518061018001604052908160008201548152602001600182015481526020016002820154815260200160038201548152602001600482015481526020016005820160009054906101000a900461ffff1661ffff1661ffff1681526020016005820160029054906101000a900463ffffffff1663ffffffff1663ffffffff1681526020016005820160069054906101000a900463ffffffff1663ffffffff1663ffffffff16815260200160058201600a9054906101000a900463ffffffff1663ffffffff1663ffffffff16815260200160058201600e9054906101000a900463ffffffff1663ffffffff1663ffffffff1681526020016005820160129054906101000a900460ff1615151515815260200160068201805480602002602001604051908101604052809291908181526020016000905b82821015611d1a578382906000526020600020018054611c8d906137ac565b80601f0160208091040260200160405190810160405280929190818152602001828054611cb9906137ac565b8015611d065780601f10611cdb57610100808354040283529160200191611d06565b820191906000526020600020905b815481529060010190602001808311611ce957829003601f168201915b505050505081526020019060010190611c6e565b50505050815250509050919050565b7f000000000000000000000000000000000000000000000000000000000000000081565b611d5561261b565b73ffffffffffffffffffffffffffffffffffffffff16611d73611a97565b73ffffffffffffffffffffffffffffffffffffffff1614611dc9576040517f08c379a0000000000000000000000000000000000000000000000000000000008152600401611dc090613257565b60405180910390fd5b600143611dd6919061355f565b6002800181905550611de6612127565b565b611df061261b565b73ffffffffffffffffffffffffffffffffffffffff16611e0e611a97565b73ffffffffffffffffffffffffffffffffffffffff1614611e64576040517f08c379a0000000000000000000000000000000000000000000000000000000008152600401611e5b90613257565b60405180910390fd5b600073ffffffffffffffffffffffffffffffffffffffff168173ffffffffffffffffffffffffffffffffffffffff161415611ed4576040517f08c379a0000000000000000000000000000000000000000000000000000000008152600401611ecb90613237565b60405180910390fd5b611edd8161264f565b50565b611ee861261b565b73ffffffffffffffffffffffffffffffffffffffff16611f06611a97565b73ffffffffffffffffffffffffffffffffffffffff1614611f5c576040517f08c379a0000000000000000000000000000000000000000000000000000000008152600401611f5390613257565b60405180910390fd5b80600760030160026101000a81548160ff02191690831515021790555050565b611f8461261b565b73ffffffffffffffffffffffffffffffffffffffff16611fa2611a97565b73ffffffffffffffffffffffffffffffffffffffff1614611ff8576040517f08c379a0000000000000000000000000000000000000000000000000000000008152600401611fef90613257565b60405180910390fd5b612001816117ec565b612040576040517f08c379a000000000000000000000000000000000000000000000000000000000815260040161203790613277565b60405180910390fd5b6000600b60008373ffffffffffffffffffffffffffffffffffffffff1673ffffffffffffffffffffffffffffffffffffffff1681526020019081526020016000206001018190555050565b61209361261b565b73ffffffffffffffffffffffffffffffffffffffff166120b1611a97565b73ffffffffffffffffffffffffffffffffffffffff1614612107576040517f08c379a00000000000000000000000000000000000000000000000000000000081526004016120fe90613257565b60405180910390fd5b80600760030160006101000a81548160ff02191690831515021790555050565b436002800154111561213857612192565b6007600201546002600301541061215257612151612713565b5b61216e600260000154600280015461262390919063ffffffff16565b60028001819055506002600101600081548092919061218c906137de565b91905055505b565b7f000000000000000000000000000000000000000000000000000000000000000073ffffffffffffffffffffffffffffffffffffffff163373ffffffffffffffffffffffffffffffffffffffff1614612222576040517f08c379a000000000000000000000000000000000000000000000000000000000815260040161221990613297565b60405180910390fd5b6000600b60008473ffffffffffffffffffffffffffffffffffffffff1673ffffffffffffffffffffffffffffffffffffffff168152602001908152602001600020600501600e9054906101000a900463ffffffff1663ffffffff1614156124e6576040518061018001604052806000815260200160008152602001600081526020016000815260200160008152602001600061ffff168152602001600063ffffffff168152602001600063ffffffff168152602001600063ffffffff1681526020014363ffffffff168152602001600015158152602001600067ffffffffffffffff81111561233a577f4e487b7100000000000000000000000000000000000000000000000000000000600052604160045260246000fd5b60405190808252806020026020018201604052801561236d57816020015b60608152602001906001900390816123585790505b50815250600b60008473ffffffffffffffffffffffffffffffffffffffff1673ffffffffffffffffffffffffffffffffffffffff168152602001908152602001600020600082015181600001556020820151816001015560408201518160020155606082015181600301556080820151816004015560a08201518160050160006101000a81548161ffff021916908361ffff16021790555060c08201518160050160026101000a81548163ffffffff021916908363ffffffff16021790555060e08201518160050160066101000a81548163ffffffff021916908363ffffffff16021790555061010082015181600501600a6101000a81548163ffffffff021916908363ffffffff16021790555061012082015181600501600e6101000a81548163ffffffff021916908363ffffffff1602179055506101408201518160050160126101000a81548160ff0219169083151502179055506101608201518160060190805190602001906124e1929190612a08565b509050505b6124ef82610f2d565b61254481600b60008573ffffffffffffffffffffffffffffffffffffffff1673ffffffffffffffffffffffffffffffffffffffff1681526020019081526020016000206002015461262390919063ffffffff16565b600b60008473ffffffffffffffffffffffffffffffffffffffff1673ffffffffffffffffffffffffffffffffffffffff1681526020019081526020016000206002018190555043600b60008473ffffffffffffffffffffffffffffffffffffffff1673ffffffffffffffffffffffffffffffffffffffff16815260200190815260200160002060050160066101000a81548163ffffffff021916908363ffffffff1602179055505050565b600081836125fd9190613651565b905092915050565b6000818361261391906135ef565b905092915050565b600033905090565b60008183612631919061355f565b905092915050565b6000818361264791906136ab565b905092915050565b60008060009054906101000a900473ffffffffffffffffffffffffffffffffffffffff169050816000806101000a81548173ffffffffffffffffffffffffffffffffffffffff021916908373ffffffffffffffffffffffffffffffffffffffff1602179055508173ffffffffffffffffffffffffffffffffffffffff168173ffffffffffffffffffffffffffffffffffffffff167f8be0079c531659141344cd1fd0a4f28419497f9722a3daafe3b4186f6b6457e060405160405180910390a35050565b600760020154600260030154101561272a57612930565b60006127346119e7565b9050600060018054905090506000600260040160009054906101000a900460ff16156127a35761279e83612790670de0b6b3a76400006127826002600301548861263990919063ffffffff16565b6125ef90919063ffffffff16565b61260590919063ffffffff16565b6127e8565b6127e7836127d9670de0b6b3a76400006127cb6002600301548861262390919063ffffffff16565b6125ef90919063ffffffff16565b61260590919063ffffffff16565b5b905060016040518060e0016040528060026001015481526020018481526020016002600301548152602001600260040160009054906101000a900460ff161515815260200185815260200183815260200143815250908060018154018082558091505060019003906000526020600020906007020160009091909190915060008201518160000155602082015181600101556040820151816002015560608201518160030160006101000a81548160ff0219169083151502179055506080820151816004015560a0820151816005015560c0820151816006015550507fe71aa89b7efab5e2d703b387dfcc967f99faf01d341c8ee8bbd01a3773b4b0fd60026001015483600260030154600260040160009054906101000a900460ff1687866040516129199695949392919061332b565b60405180910390a160006002600301819055505050505b565b604051806101000160405280600061ffff168152602001600061ffff168152602001600061ffff16815260200160008152602001600081526020016000151581526020016000151581526020016000151581525090565b6040518061018001604052806000815260200160008152602001600081526020016000815260200160008152602001600061ffff168152602001600063ffffffff168152602001600063ffffffff168152602001600063ffffffff168152602001600063ffffffff168152602001600015158152602001606081525090565b828054828255906000526020600020908101928215612a57579160200282015b82811115612a56578251829080519060200190612a46929190612a68565b5091602001919060010190612a28565b5b509050612a649190612aee565b5090565b828054612a74906137ac565b90600052602060002090601f016020900481019282612a965760008555612add565b82601f10612aaf57805160ff1916838001178555612add565b82800160010185558215612add579182015b82811115612adc578251825591602001919060010190612ac1565b5b509050612aea9190612b12565b5090565b5b80821115612b0e5760008181612b059190612b2f565b50600101612aef565b5090565b5b80821115612b2b576000816000905550600101612b13565b5090565b508054612b3b906137ac565b6000825580601f10612b4d5750612b6c565b601f016020900490600052602060002090810190612b6b9190612b12565b5b50565b600081359050612b7e81613923565b92915050565b600081359050612b938161393a565b92915050565b600081359050612ba881613951565b92915050565b600081359050612bbd81613968565b92915050565b600081519050612bd281613968565b92915050565b600060208284031215612bea57600080fd5b6000612bf884828501612b6f565b91505092915050565b60008060408385031215612c1457600080fd5b6000612c2285828601612b6f565b9250506020612c3385828601612b99565b9150509250929050565b60008060408385031215612c5057600080fd5b6000612c5e85828601612b6f565b9250506020612c6f85828601612bae565b9150509250929050565b600060208284031215612c8b57600080fd5b6000612c9984828501612b84565b91505092915050565b600080600080600060a08688031215612cba57600080fd5b6000612cc888828901612b99565b9550506020612cd988828901612b99565b9450506040612cea88828901612b99565b9350506060612cfb88828901612bae565b9250506080612d0c88828901612bae565b9150509295509295909350565b600060208284031215612d2b57600080fd5b6000612d3984828501612bae565b91505092915050565b600060208284031215612d5457600080fd5b6000612d6284828501612bc3565b91505092915050565b60008060408385031215612d7e57600080fd5b6000612d8c85828601612bae565b9250506020612d9d85828601612b84565b9150509250929050565b6000612db38383612e5d565b905092915050565b612dc481613713565b82525050565b6000612dd582613509565b612ddf818561352c565b935083602082028501612df1856134f9565b8060005b85811015612e2d5784840389528151612e0e8582612da7565b9450612e198361351f565b925060208a01995050600181019050612df5565b50829750879550505050505092915050565b612e4881613725565b82525050565b612e5781613725565b82525050565b6000612e6882613514565b612e72818561353d565b9350612e82818560208601613779565b612e8b81613912565b840191505092915050565b6000612ea360268361354e565b91507f4f776e61626c653a206e6577206f776e657220697320746865207a65726f206160008301527f64647265737300000000000000000000000000000000000000000000000000006020830152604082019050919050565b6000612f0960208361354e565b91507f4f776e61626c653a2063616c6c6572206973206e6f7420746865206f776e65726000830152602082019050919050565b6000612f4960168361354e565b91507f4163636f756e7420646f6573206e6f74206578697374000000000000000000006000830152602082019050919050565b6000612f8960118361354e565b91507f4e6f742066726f6d2074726561737572790000000000000000000000000000006000830152602082019050919050565b600061018083016000830151612fd56000860182613180565b506020830151612fe86020860182613180565b506040830151612ffb6040860182613180565b50606083015161300e6060860182613180565b5060808301516130216080860182613180565b5060a083015161303460a0860182613162565b5060c083015161304760c086018261319e565b5060e083015161305a60e086018261319e565b5061010083015161306f61010086018261319e565b5061012083015161308461012086018261319e565b50610140830151613099610140860182612e3f565b506101608301518482036101608601526130b38282612dca565b9150508091505092915050565b610100820160008201516130d76000850182613162565b5060208201516130ea6020850182613162565b5060408201516130fd6040850182613162565b5060608201516131106060850182613180565b5060808201516131236080850182613180565b5060a082015161313660a0850182612e3f565b5060c082015161314960c0850182612e3f565b5060e082015161315c60e0850182612e3f565b50505050565b61316b81613731565b82525050565b61317a81613731565b82525050565b6131898161375f565b82525050565b6131988161375f565b82525050565b6131a781613769565b82525050565b6131b681613769565b82525050565b60006020820190506131d16000830184612dbb565b92915050565b60006080820190506131ec6000830187612dbb565b6131f96020830186612dbb565b613206604083018561318f565b6132136060830184612e4e565b95945050505050565b60006020820190506132316000830184612e4e565b92915050565b6000602082019050818103600083015261325081612e96565b9050919050565b6000602082019050818103600083015261327081612efc565b9050919050565b6000602082019050818103600083015261329081612f3c565b9050919050565b600060208201905081810360008301526132b081612f7c565b9050919050565b600060208201905081810360008301526132d18184612fbc565b905092915050565b6000610100820190506132ef60008301846130c0565b92915050565b600060208201905061330a6000830184613171565b92915050565b6000602082019050613325600083018461318f565b92915050565b600060c082019050613340600083018961318f565b61334d602083018861318f565b61335a604083018761318f565b6133676060830186612e4e565b613374608083018561318f565b61338160a083018461318f565b979650505050505050565b600060e0820190506133a1600083018a61318f565b6133ae602083018961318f565b6133bb604083018861318f565b6133c86060830187612e4e565b6133d5608083018661318f565b6133e260a083018561318f565b6133ef60c083018461318f565b98975050505050505050565b600060a082019050613410600083018861318f565b61341d602083018761318f565b61342a604083018661318f565b613437606083018561318f565b6134446080830184612e4e565b9695505050505050565b600061016082019050613464600083018e61318f565b613471602083018d61318f565b61347e604083018c61318f565b61348b606083018b61318f565b613498608083018a61318f565b6134a560a0830189613171565b6134b260c08301886131ad565b6134bf60e08301876131ad565b6134cd6101008301866131ad565b6134db6101208301856131ad565b6134e9610140830184612e4e565b9c9b505050505050505050505050565b6000819050602082019050919050565b600081519050919050565b600081519050919050565b6000602082019050919050565b600082825260208201905092915050565b600082825260208201905092915050565b600082825260208201905092915050565b600061356a8261375f565b91506135758361375f565b9250827fffffffffffffffffffffffffffffffffffffffffffffffffffffffffffffffff038211156135aa576135a9613885565b5b828201905092915050565b60006135c082613769565b91506135cb83613769565b92508263ffffffff038211156135e4576135e3613885565b5b828201905092915050565b60006135fa8261375f565b91506136058361375f565b925082613615576136146138b4565b5b828204905092915050565b600061362b82613769565b915061363683613769565b925082613646576136456138b4565b5b828204905092915050565b600061365c8261375f565b91506136678361375f565b9250817fffffffffffffffffffffffffffffffffffffffffffffffffffffffffffffffff04831182151516156136a05761369f613885565b5b828202905092915050565b60006136b68261375f565b91506136c18361375f565b9250828210156136d4576136d3613885565b5b828203905092915050565b60006136ea82613769565b91506136f583613769565b92508282101561370857613707613885565b5b828203905092915050565b600061371e8261373f565b9050919050565b60008115159050919050565b600061ffff82169050919050565b600073ffffffffffffffffffffffffffffffffffffffff82169050919050565b6000819050919050565b600063ffffffff82169050919050565b60005b8381101561379757808201518184015260208101905061377c565b838111156137a6576000848401525b50505050565b600060028204905060018216806137c457607f821691505b602082108114156137d8576137d76138e3565b5b50919050565b60006137e98261375f565b91507fffffffffffffffffffffffffffffffffffffffffffffffffffffffffffffffff82141561381c5761381b613885565b5b600182019050919050565b600061383282613769565b915063ffffffff82141561384957613848613885565b5b600182019050919050565b600061385f82613769565b915061386a83613769565b92508261387a576138796138b4565b5b828206905092915050565b7f4e487b7100000000000000000000000000000000000000000000000000000000600052601160045260246000fd5b7f4e487b7100000000000000000000000000000000000000000000000000000000600052601260045260246000fd5b7f4e487b7100000000000000000000000000000000000000000000000000000000600052602260045260246000fd5b6000601f19601f8301169050919050565b61392c81613713565b811461393757600080fd5b50565b61394381613725565b811461394e57600080fd5b50565b61395a81613731565b811461396557600080fd5b50565b6139718161375f565b811461397c57600080fd5b5056fea26469706673582212207a3f1adecf12dae14dd95eaade2a91dabaed8e819c4865962a766b6cb4fe9e1464736f6c63430008000033",
  "immutableReferences": {
    "2371": [
      {
        "length": 32,
        "start": 5205
      },
      {
        "length": 32,
        "start": 6635
      }
    ],
    "2373": [
      {
        "length": 32,
        "start": 7467
      }
    ],
    "2375": [
      {
        "length": 32,
        "start": 1363
      },
      {
        "length": 32,
        "start": 4526
      },
      {
        "length": 32,
        "start": 4781
      },
      {
        "length": 32,
        "start": 5512
      },
      {
        "length": 32,
        "start": 5859
      },
      {
        "length": 32,
        "start": 6226
      },
      {
        "length": 32,
        "start": 8598
      }
    ]
  },
  "source": "// SPDX-License-Identifier: AGPL-3.0-or-later\npragma solidity 0.8.0;\n\nimport \"@openzeppelin/contracts/utils/math/SafeMath.sol\";\nimport \"@openzeppelin/contracts/access/Ownable.sol\";\nimport \"@openzeppelin/contracts/token/ERC20/utils/SafeERC20.sol\";\nimport \"./util/ERC20Permit.sol\";\nimport \"./util/ERC20Mintable.sol\";\nimport \"./AthertonModels.sol\";\n\ncontract AthertonStaking is Ownable {\n\n    using SafeMath for uint256;\n    using SafeERC20 for IERC20;\n\n    modifier onlyTreasury() { require( msg.sender == treasury, \"Not from treasury\" ); _; }\n\n    address public immutable ATHER;\n    address public immutable SATHER;\n    address public immutable treasury;\n\n    event StakeRebased(\n        uint epoch,\n        uint index,\n        uint rebaseAmount,\n        bool rebaseNegative,\n        uint balanceBeforeRebase,\n        uint multiplier\n    );\n\n    struct Rebase {\n        uint epoch;\n        uint index;\n        uint rebaseAmount;\n        bool rebaseNegative;\n        uint balanceBeforeRebase;\n        uint multiplier;\n        uint blockNumber;\n    }\n    Rebase[] public rebases;\n\n    struct Epoch {\n        uint length;\n        uint number;\n        uint endBlock;\n        uint distribute;\n        bool distributeNegative;\n    }\n    Epoch public epoch;\n\n    struct StakingController {\n        uint16 penaltyStartPercent;   // uint (10000 == 100%)\n        uint16 penaltyHalfLife;       // in block count\n        uint16 penaltyIgnoreAfter;\n        uint maxStakingLimit;\n        uint rebaseThreshold;\n        bool stakingSuspended;\n        bool unstakingSuspended;\n        bool penaltySuspended;\n    }\n    StakingController control;\n\n    struct StakerInfo {\n        uint stakedAmount;\n        uint earlyUnstakePenalty;\n        uint totalHitoricallyStaked;\n        uint totalHitoricallyUnstaked;\n        uint totalHitoricallyRebased;\n        uint16 autoRestakePercent;\n        uint32 rebasedLast;\n        uint32 stakedLast;\n        uint32 unstakedLast;\n        uint32 memberSince;\n        bool rebasedOnce;\n        string[] awards;\n    }\n    mapping( address => StakerInfo ) public stakerInfo;\n    \n    constructor ( \n        address _ATHER, \n        address _SATHER,\n        address _treasury,\n        uint _epochLength,\n        uint _firstEpochEnds,\n        uint _initialDistribute\n    ) {\n        require( _ATHER != address(0) );\n        ATHER = _ATHER;\n        require( _SATHER != address(0) );\n        SATHER = _SATHER;\n        require( _treasury != address(0) );\n        treasury = _treasury;\n        \n        epoch = Epoch({\n            number: 0,\n            length: _epochLength,\n            endBlock: _firstEpochEnds,\n            distribute: _initialDistribute,\n            distributeNegative: false\n        });\n\n        uint maxStakingLimitInMillions = 100;\n        uint rebaseThresholdInWholeAther = 1;\n\n        control = StakingController({\n            penaltyStartPercent: 5000, // 50%\n            penaltyHalfLife: 5760, // ~ 1 day\n            penaltyIgnoreAfter: 5760 * 7, // ~ 10 days\n            maxStakingLimit: maxStakingLimitInMillions.mul(1e6).mul(1e18), // 100 M\n            rebaseThreshold: rebaseThresholdInWholeAther.mul(1e18), // minimum 100 Ather profit needed for rebase\n            stakingSuspended: false,\n            unstakingSuspended: false,\n            penaltySuspended: false\n        });\n\n        IERC20( _ATHER ).approve( _treasury, type(uint).max );\n        IERC20( _SATHER ).approve( _treasury, type(uint).max );\n    }\n\n    /**\n        @notice trigger rebase if epoch over\n     */\n    function epochCheck() public {\n        if ( epoch.endBlock > block.number ) {\n            return;\n        }\n        if (epoch.distribute >= control.rebaseThreshold) {\n            rebase();\n        }\n        epoch.endBlock = epoch.endBlock.add( epoch.length );\n        epoch.number++;\n    }\n\n    function rebase() private {\n        if (epoch.distribute < control.rebaseThreshold) {\n            return;\n        }\n        uint balance = contractBalance();\n        uint rebaseIndex = rebases.length;\n        uint multiplier = ! epoch.distributeNegative ? \n                            balance.add(epoch.distribute).mul(1e18).div(balance)\n                          : balance.sub(epoch.distribute).mul(1e18).div(balance);\n\n        rebases.push( Rebase ( {\n            epoch: epoch.number,\n            index: rebaseIndex,\n            rebaseAmount: epoch.distribute,\n            rebaseNegative: epoch.distributeNegative,\n            balanceBeforeRebase: balance,\n            multiplier: multiplier,\n            blockNumber: block.number\n        }));\n\n        emit StakeRebased(\n            epoch.number,\n            rebaseIndex,\n            epoch.distribute,\n            epoch.distributeNegative,\n            balance,\n            multiplier\n        );\n\n        epoch.distribute = 0;\n    }\n\n    function rebaseAccount( address _account ) public {\n        if (!accountExists(_account)) {\n            return;\n        }\n        StakerInfo memory info = stakerInfo[_account];\n        uint amount = stakedBalanceOf(_account);\n        if (amount == info.stakedAmount) { // no effective change\n            return;\n        }\n        uint delta = 0;\n        if (amount > info.stakedAmount) {\n            delta = amount - info.stakedAmount;\n            ITreasury( treasury ).rebaseAccount( address(this), _account, delta, true);\n            stakerInfo[_account].totalHitoricallyRebased.add(delta);\n        } else {\n            delta = info.stakedAmount - amount;\n            ITreasury( treasury ).rebaseAccount( address(this), _account, delta, false);\n            stakerInfo[_account].totalHitoricallyRebased.sub(delta);\n        }\n        stakerInfo[_account].stakedAmount = amount;\n        stakerInfo[_account].rebasedLast = uint32(rebases.length - 1);\n    }\n\n    /**\n        @notice stake ATHER to enter warmup\n        @param _account uint\n     */\n    function stakeEffect( address _account, uint _amount ) public onlyTreasury() {\n        if (stakerInfo[_account].memberSince == 0) {\n            stakerInfo[_account] = StakerInfo({\n              stakedAmount: 0,\n              earlyUnstakePenalty: 0,\n              totalHitoricallyStaked: 0,\n              totalHitoricallyUnstaked: 0,\n              totalHitoricallyRebased: 0,\n              autoRestakePercent: 0,\n              rebasedLast: 0,\n              stakedLast: 0,\n              unstakedLast: 0,\n              memberSince: uint32(block.number),\n              rebasedOnce: false,\n              awards: new string[](0)\n            });\n        }\n        rebaseAccount(_account);\n        stakerInfo[_account].totalHitoricallyStaked = stakerInfo[_account].totalHitoricallyStaked.add(_amount);\n        stakerInfo[_account].stakedLast = uint32(block.number);\n    }\n\n    /**\n        @notice redeem sATHER for ATHER\n        @param _account uint\n     */\n    function unstakeEffect( address _account, uint _amount ) public onlyTreasury() {\n        rebaseAccount(_account);\n        stakerInfo[_account].totalHitoricallyUnstaked = stakerInfo[_account].totalHitoricallyUnstaked.add(_amount); \n        stakerInfo[_account].unstakedLast = uint32(block.number);\n    }\n\n    function updateDistribute( uint _dividend, bool _isPositive ) public onlyTreasury() {\n        if ( _isPositive ) {\n            epoch.distribute = epoch.distribute.add(_dividend);\n        } else {\n            // TODO\n        }\n    }\n\n    function setAutoRestake( address _account, uint16 _value ) public onlyTreasury() {\n        if ( _value == 0) { // ignore setting flag\n            return;\n        }\n        if ( _value == type(uint16).max ) { // disable flag\n            _value = 0;\n        }\n        if ( _value > 10000 ) { // cannot exceed 100%\n            _value = 10000;\n        }\n        stakerInfo[ _account ].autoRestakePercent = _value;\n    }\n\n    function stakedBalanceOf(address account) public view returns ( uint ) {\n        StakerInfo memory info = stakerInfo[account];\n        if (info.memberSince == 0) {\n            return 0;\n        }\n        uint amount = info.stakedAmount;\n        uint32 startIndex = info.rebasedOnce ? 0 : info.rebasedLast + 1;\n        for ( uint32 i = startIndex; i < rebases.length; i++ ) {\n            amount = amount.mul(rebases[i].multiplier).div(1e18);\n        }\n        return amount;\n    }\n\n    function earlyUnstakePenaltyOf(address _account) public view returns ( uint ) {\n        StakerInfo memory info = stakerInfo[_account];\n        if (info.memberSince == 0 || info.earlyUnstakePenalty == 0 || control.penaltySuspended) {\n            return 0;\n        }\n        uint32 elapsed = uint32(block.number) - info.stakedLast;\n        if ( elapsed >= control.penaltyIgnoreAfter ) {\n            return 0;\n        }\n        // Approximate halflife\n        uint penalty = info.earlyUnstakePenalty >> (elapsed / control.penaltyHalfLife);\n        penalty -= penalty * (elapsed % control.penaltyHalfLife) / control.penaltyHalfLife / 2;\n        return penalty;\n    }\n\n    function accountRestakePercent(address account) public view returns (uint16) {\n        return stakerInfo[account].autoRestakePercent;\n    }\n\n    function accountExists(address _account) public view returns ( bool ) {\n        return stakerInfo[_account].memberSince > 0;\n    }\n\n    function accountInfo(address account) public view returns (StakerInfo memory) {\n        return stakerInfo[account];\n    }\n\n    function stakingConfig() public view returns (StakingController memory) {\n        return control;\n    }\n\n    /**\n        @notice returns contract ATHER holdings, including bonuses provided\n        @return uint\n     */\n    function contractBalance() public view returns ( uint ) {\n        return IERC20( ATHER ).balanceOf( address(this) );\n    }\n    \n    /**\n     * @notice set warmup period for new stakers\n     * @param _penaltyStartPercent uint16 (10000 == 100%)\n     * @param _penaltyHalfLife uint32 (10000 == 100%)\n     */\n    function setControls(\n      uint16 _penaltyStartPercent,\n      uint16 _penaltyHalfLife,\n      uint16 _penaltyIgnoreAfter,\n      uint _maxStakingLimit,\n      uint _rebaseThreshold\n    ) external onlyOwner() {\n        if (_penaltyStartPercent > 0) { control.penaltyStartPercent = _penaltyStartPercent; }\n        if (_penaltyHalfLife > 0) { control.penaltyHalfLife = _penaltyHalfLife; }\n        if (_penaltyIgnoreAfter > 0) { control.penaltyIgnoreAfter = _penaltyIgnoreAfter; }\n        if (_maxStakingLimit > 0) { control.maxStakingLimit = _maxStakingLimit; }\n        if (_rebaseThreshold > 0) { control.rebaseThreshold = _rebaseThreshold; }\n    }\n\n    // Override epoch end, and rebase staking right away\n    function fastForward() external onlyOwner() {\n        epoch.endBlock = block.number + 1;\n        epochCheck();\n    }\n\n    function setStakeSuspension(bool _value) external onlyOwner() {\n        control.stakingSuspended = _value;\n    }\n\n    function setUnstakeSuspension(bool _value) external onlyOwner() {\n        control.stakingSuspended = _value;\n    }\n\n    function setEarlyUnstakePenalty(bool _value) external onlyOwner() {\n        control.penaltySuspended = _value;\n    }\n\n    function forgiveEarlyUnstakePenalty(address _account) external onlyOwner() {\n        require( accountExists(_account), \"Account does not exist\");\n        stakerInfo[_account].earlyUnstakePenalty = 0;\n    }\n\n}",
  "sourcePath": "/var/www/atherton/solidity/contracts/Staking.sol",
  "compiler": {
    "name": "solc",
    "version": "0.8.0+commit.c7dfd78e.Emscripten.clang"
  },
  "schemaVersion": "3.4.3",
  "updatedAt": "2021-12-08T23:25:37.976Z",
  "devdoc": {
    "kind": "dev",
    "methods": {
      "contractBalance()": {
        "returns": {
          "_0": "uint"
        }
      },
      "owner()": {
        "details": "Returns the address of the current owner."
      },
      "renounceOwnership()": {
        "details": "Leaves the contract without owner. It will not be possible to call `onlyOwner` functions anymore. Can only be called by the current owner. NOTE: Renouncing ownership will leave the contract without an owner, thereby removing any functionality that is only available to the owner."
      },
      "setControls(uint16,uint16,uint16,uint256,uint256)": {
        "params": {
          "_penaltyHalfLife": "uint32 (10000 == 100%)",
          "_penaltyStartPercent": "uint16 (10000 == 100%)"
        }
      },
      "stakeEffect(address,uint256)": {
        "params": {
          "_account": "uint"
        }
      },
      "transferOwnership(address)": {
        "details": "Transfers ownership of the contract to a new account (`newOwner`). Can only be called by the current owner."
      },
      "unstakeEffect(address,uint256)": {
        "params": {
          "_account": "uint"
        }
      }
    },
    "version": 1
  },
  "userdoc": {
    "kind": "user",
    "methods": {
      "contractBalance()": {
        "notice": "returns contract ATHER holdings, including bonuses provided"
      },
      "epochCheck()": {
        "notice": "trigger rebase if epoch over"
      },
      "setControls(uint16,uint16,uint16,uint256,uint256)": {
        "notice": "set warmup period for new stakers"
      },
      "stakeEffect(address,uint256)": {
        "notice": "stake ATHER to enter warmup"
      },
      "unstakeEffect(address,uint256)": {
        "notice": "redeem sATHER for ATHER"
      }
    },
    "version": 1
  }
}