{
  "contractName": "AthertonTreasury",
  "abi": [
    {
      "inputs": [
        {
          "internalType": "address",
          "name": "_ATHER",
          "type": "address"
        },
        {
          "internalType": "address",
          "name": "_ATHERUSD",
          "type": "address"
        },
        {
          "internalType": "address",
          "name": "_SATHER",
          "type": "address"
        }
      ],
      "stateMutability": "nonpayable",
      "type": "constructor"
    },
    {
      "anonymous": false,
      "inputs": [
        {
          "indexed": true,
          "internalType": "address",
          "name": "token",
          "type": "address"
        },
        {
          "indexed": false,
          "internalType": "uint256",
          "name": "amount",
          "type": "uint256"
        },
        {
          "indexed": false,
          "internalType": "uint256",
          "name": "usdValue",
          "type": "uint256"
        },
        {
          "indexed": false,
          "internalType": "uint256",
          "name": "atherAmount",
          "type": "uint256"
        },
        {
          "indexed": false,
          "internalType": "string",
          "name": "details",
          "type": "string"
        }
      ],
      "name": "AthertonLoss",
      "type": "event"
    },
    {
      "anonymous": false,
      "inputs": [
        {
          "indexed": true,
          "internalType": "address",
          "name": "token",
          "type": "address"
        },
        {
          "indexed": false,
          "internalType": "uint256",
          "name": "amount",
          "type": "uint256"
        },
        {
          "indexed": false,
          "internalType": "uint256",
          "name": "usdValue",
          "type": "uint256"
        },
        {
          "indexed": false,
          "internalType": "uint256",
          "name": "atherAmount",
          "type": "uint256"
        },
        {
          "indexed": false,
          "internalType": "string",
          "name": "details",
          "type": "string"
        }
      ],
      "name": "AthertonProfit",
      "type": "event"
    },
    {
      "anonymous": false,
      "inputs": [
        {
          "indexed": false,
          "internalType": "address",
          "name": "target",
          "type": "address"
        },
        {
          "indexed": false,
          "internalType": "bool",
          "name": "value",
          "type": "bool"
        }
      ],
      "name": "AuthorityChange",
      "type": "event"
    },
    {
      "anonymous": false,
      "inputs": [
        {
          "indexed": true,
          "internalType": "address",
          "name": "token",
          "type": "address"
        },
        {
          "indexed": false,
          "internalType": "address",
          "name": "calulator",
          "type": "address"
        }
      ],
      "name": "BondCalulatorChange",
      "type": "event"
    },
    {
      "anonymous": false,
      "inputs": [
        {
          "indexed": true,
          "internalType": "address",
          "name": "token",
          "type": "address"
        },
        {
          "indexed": false,
          "internalType": "uint256",
          "name": "amount",
          "type": "uint256"
        },
        {
          "indexed": false,
          "internalType": "uint256",
          "name": "usdValue",
          "type": "uint256"
        },
        {
          "indexed": false,
          "internalType": "uint256",
          "name": "atherAmount",
          "type": "uint256"
        }
      ],
      "name": "DirectDeposit",
      "type": "event"
    },
    {
      "anonymous": false,
      "inputs": [
        {
          "indexed": false,
          "internalType": "address",
          "name": "target",
          "type": "address"
        },
        {
          "indexed": false,
          "internalType": "bool",
          "name": "value",
          "type": "bool"
        }
      ],
      "name": "DirectDepositorChange",
      "type": "event"
    },
    {
      "anonymous": false,
      "inputs": [
        {
          "indexed": true,
          "internalType": "address",
          "name": "recipient",
          "type": "address"
        },
        {
          "indexed": false,
          "internalType": "uint256",
          "name": "atherAmount",
          "type": "uint256"
        },
        {
          "indexed": false,
          "internalType": "uint256",
          "name": "usdValue",
          "type": "uint256"
        }
      ],
      "name": "DividendPaid",
      "type": "event"
    },
    {
      "anonymous": false,
      "inputs": [
        {
          "indexed": true,
          "internalType": "address",
          "name": "token",
          "type": "address"
        },
        {
          "indexed": true,
          "internalType": "address",
          "name": "borrower",
          "type": "address"
        },
        {
          "indexed": false,
          "internalType": "uint256",
          "name": "amount",
          "type": "uint256"
        },
        {
          "indexed": false,
          "internalType": "uint256",
          "name": "balance",
          "type": "uint256"
        }
      ],
      "name": "IncurUnsecured",
      "type": "event"
    },
    {
      "anonymous": false,
      "inputs": [
        {
          "indexed": true,
          "internalType": "address",
          "name": "token",
          "type": "address"
        },
        {
          "indexed": true,
          "internalType": "address",
          "name": "borrower",
          "type": "address"
        },
        {
          "indexed": false,
          "internalType": "uint256",
          "name": "amount",
          "type": "uint256"
        },
        {
          "indexed": false,
          "internalType": "uint256",
          "name": "balance",
          "type": "uint256"
        }
      ],
      "name": "IncurUnsecuredUSD",
      "type": "event"
    },
    {
      "anonymous": false,
      "inputs": [
        {
          "indexed": true,
          "internalType": "address",
          "name": "previousOwner",
          "type": "address"
        },
        {
          "indexed": true,
          "internalType": "address",
          "name": "newOwner",
          "type": "address"
        }
      ],
      "name": "OwnershipTransferred",
      "type": "event"
    },
    {
      "anonymous": false,
      "inputs": [
        {
          "indexed": true,
          "internalType": "address",
          "name": "token",
          "type": "address"
        },
        {
          "indexed": true,
          "internalType": "address",
          "name": "borrower",
          "type": "address"
        },
        {
          "indexed": false,
          "internalType": "uint256",
          "name": "amount",
          "type": "uint256"
        },
        {
          "indexed": false,
          "internalType": "uint256",
          "name": "balance",
          "type": "uint256"
        }
      ],
      "name": "RepayUnsecured",
      "type": "event"
    },
    {
      "anonymous": false,
      "inputs": [
        {
          "indexed": true,
          "internalType": "address",
          "name": "token",
          "type": "address"
        },
        {
          "indexed": true,
          "internalType": "address",
          "name": "borrower",
          "type": "address"
        },
        {
          "indexed": false,
          "internalType": "uint256",
          "name": "amount",
          "type": "uint256"
        },
        {
          "indexed": false,
          "internalType": "uint256",
          "name": "balance",
          "type": "uint256"
        }
      ],
      "name": "RepayUnsecuredUSD",
      "type": "event"
    },
    {
      "anonymous": false,
      "inputs": [
        {
          "indexed": true,
          "internalType": "uint256",
          "name": "totalReserves",
          "type": "uint256"
        },
        {
          "components": [
            {
              "internalType": "address",
              "name": "token",
              "type": "address"
            },
            {
              "internalType": "uint256",
              "name": "balance",
              "type": "uint256"
            },
            {
              "internalType": "uint256",
              "name": "value",
              "type": "uint256"
            }
          ],
          "indexed": false,
          "internalType": "struct AthertonTreasury.TreasuryOwnedErc20[]",
          "name": "",
          "type": "tuple[]"
        }
      ],
      "name": "ReservesUpdated",
      "type": "event"
    },
    {
      "anonymous": false,
      "inputs": [
        {
          "indexed": true,
          "internalType": "uint256",
          "name": "totalReserves",
          "type": "uint256"
        },
        {
          "indexed": true,
          "internalType": "address",
          "name": "collectionAddress",
          "type": "address"
        },
        {
          "indexed": false,
          "internalType": "uint256",
          "name": "tokenId",
          "type": "uint256"
        },
        {
          "indexed": false,
          "internalType": "bool",
          "name": "added",
          "type": "bool"
        },
        {
          "indexed": false,
          "internalType": "uint256",
          "name": "estValue",
          "type": "uint256"
        }
      ],
      "name": "ReservesUpdatedErc721",
      "type": "event"
    },
    {
      "anonymous": false,
      "inputs": [
        {
          "indexed": true,
          "internalType": "address",
          "name": "stakingContract",
          "type": "address"
        },
        {
          "indexed": false,
          "internalType": "bool",
          "name": "value",
          "type": "bool"
        }
      ],
      "name": "StakingContractUpdated",
      "type": "event"
    },
    {
      "inputs": [],
      "name": "ATHER",
      "outputs": [
        {
          "internalType": "address",
          "name": "",
          "type": "address"
        }
      ],
      "stateMutability": "view",
      "type": "function"
    },
    {
      "inputs": [],
      "name": "ATHERUSD",
      "outputs": [
        {
          "internalType": "address",
          "name": "",
          "type": "address"
        }
      ],
      "stateMutability": "view",
      "type": "function"
    },
    {
      "inputs": [],
      "name": "SATHER",
      "outputs": [
        {
          "internalType": "address",
          "name": "",
          "type": "address"
        }
      ],
      "stateMutability": "view",
      "type": "function"
    },
    {
      "inputs": [
        {
          "internalType": "uint256",
          "name": "",
          "type": "uint256"
        }
      ],
      "name": "erc20Assets",
      "outputs": [
        {
          "internalType": "address",
          "name": "token",
          "type": "address"
        },
        {
          "internalType": "uint256",
          "name": "balance",
          "type": "uint256"
        },
        {
          "internalType": "uint256",
          "name": "value",
          "type": "uint256"
        }
      ],
      "stateMutability": "view",
      "type": "function"
    },
    {
      "inputs": [
        {
          "internalType": "address",
          "name": "",
          "type": "address"
        }
      ],
      "name": "erc721Assets",
      "outputs": [
        {
          "internalType": "address",
          "name": "token",
          "type": "address"
        },
        {
          "internalType": "uint256",
          "name": "value",
          "type": "uint256"
        }
      ],
      "stateMutability": "view",
      "type": "function"
    },
    {
      "inputs": [
        {
          "internalType": "address",
          "name": "",
          "type": "address"
        }
      ],
      "name": "evaluator",
      "outputs": [
        {
          "internalType": "address",
          "name": "addr",
          "type": "address"
        },
        {
          "internalType": "address",
          "name": "pair",
          "type": "address"
        }
      ],
      "stateMutability": "view",
      "type": "function"
    },
    {
      "inputs": [
        {
          "internalType": "address",
          "name": "",
          "type": "address"
        }
      ],
      "name": "isBondingContract",
      "outputs": [
        {
          "internalType": "bool",
          "name": "",
          "type": "bool"
        }
      ],
      "stateMutability": "view",
      "type": "function"
    },
    {
      "inputs": [
        {
          "internalType": "address",
          "name": "",
          "type": "address"
        }
      ],
      "name": "isComplexLpToken",
      "outputs": [
        {
          "internalType": "bool",
          "name": "",
          "type": "bool"
        }
      ],
      "stateMutability": "view",
      "type": "function"
    },
    {
      "inputs": [
        {
          "internalType": "address",
          "name": "",
          "type": "address"
        }
      ],
      "name": "isDirectDepositor",
      "outputs": [
        {
          "internalType": "bool",
          "name": "",
          "type": "bool"
        }
      ],
      "stateMutability": "view",
      "type": "function"
    },
    {
      "inputs": [
        {
          "internalType": "address",
          "name": "",
          "type": "address"
        }
      ],
      "name": "isFloatingToken",
      "outputs": [
        {
          "internalType": "bool",
          "name": "",
          "type": "bool"
        }
      ],
      "stateMutability": "view",
      "type": "function"
    },
    {
      "inputs": [
        {
          "internalType": "address",
          "name": "",
          "type": "address"
        }
      ],
      "name": "isLpToken",
      "outputs": [
        {
          "internalType": "bool",
          "name": "",
          "type": "bool"
        }
      ],
      "stateMutability": "view",
      "type": "function"
    },
    {
      "inputs": [
        {
          "internalType": "address",
          "name": "",
          "type": "address"
        }
      ],
      "name": "isRecordAuthority",
      "outputs": [
        {
          "internalType": "bool",
          "name": "",
          "type": "bool"
        }
      ],
      "stateMutability": "view",
      "type": "function"
    },
    {
      "inputs": [
        {
          "internalType": "address",
          "name": "",
          "type": "address"
        }
      ],
      "name": "isStableToken",
      "outputs": [
        {
          "internalType": "bool",
          "name": "",
          "type": "bool"
        }
      ],
      "stateMutability": "view",
      "type": "function"
    },
    {
      "inputs": [
        {
          "internalType": "address",
          "name": "",
          "type": "address"
        }
      ],
      "name": "isStakingContract",
      "outputs": [
        {
          "internalType": "bool",
          "name": "",
          "type": "bool"
        }
      ],
      "stateMutability": "view",
      "type": "function"
    },
    {
      "inputs": [],
      "name": "owner",
      "outputs": [
        {
          "internalType": "address",
          "name": "",
          "type": "address"
        }
      ],
      "stateMutability": "view",
      "type": "function"
    },
    {
      "inputs": [
        {
          "internalType": "address",
          "name": "",
          "type": "address"
        }
      ],
      "name": "profitShare",
      "outputs": [
        {
          "internalType": "address",
          "name": "addr",
          "type": "address"
        },
        {
          "internalType": "uint8",
          "name": "kind",
          "type": "uint8"
        },
        {
          "internalType": "uint16",
          "name": "percent",
          "type": "uint16"
        }
      ],
      "stateMutability": "view",
      "type": "function"
    },
    {
      "inputs": [],
      "name": "renounceOwnership",
      "outputs": [],
      "stateMutability": "nonpayable",
      "type": "function"
    },
    {
      "inputs": [
        {
          "internalType": "address",
          "name": "newOwner",
          "type": "address"
        }
      ],
      "name": "transferOwnership",
      "outputs": [],
      "stateMutability": "nonpayable",
      "type": "function"
    },
    {
      "inputs": [
        {
          "internalType": "address",
          "name": "",
          "type": "address"
        }
      ],
      "name": "unsecuredLoans",
      "outputs": [
        {
          "internalType": "uint256",
          "name": "",
          "type": "uint256"
        }
      ],
      "stateMutability": "view",
      "type": "function"
    },
    {
      "inputs": [
        {
          "internalType": "address",
          "name": "",
          "type": "address"
        }
      ],
      "name": "unsecuredLoansUSD",
      "outputs": [
        {
          "internalType": "uint256",
          "name": "",
          "type": "uint256"
        }
      ],
      "stateMutability": "view",
      "type": "function"
    },
    {
      "inputs": [
        {
          "internalType": "address",
          "name": "_token",
          "type": "address"
        },
        {
          "internalType": "uint256",
          "name": "_amount",
          "type": "uint256"
        }
      ],
      "name": "deposit",
      "outputs": [
        {
          "internalType": "uint256",
          "name": "",
          "type": "uint256"
        }
      ],
      "stateMutability": "nonpayable",
      "type": "function"
    },
    {
      "inputs": [
        {
          "internalType": "address",
          "name": "_token",
          "type": "address"
        },
        {
          "internalType": "uint256",
          "name": "_amount",
          "type": "uint256"
        },
        {
          "internalType": "string",
          "name": "_details",
          "type": "string"
        }
      ],
      "name": "recordProfit",
      "outputs": [],
      "stateMutability": "nonpayable",
      "type": "function"
    },
    {
      "inputs": [
        {
          "internalType": "address",
          "name": "_token",
          "type": "address"
        },
        {
          "internalType": "uint256",
          "name": "_amount",
          "type": "uint256"
        },
        {
          "internalType": "string",
          "name": "_details",
          "type": "string"
        }
      ],
      "name": "recordLoss",
      "outputs": [],
      "stateMutability": "nonpayable",
      "type": "function"
    },
    {
      "inputs": [
        {
          "internalType": "uint256",
          "name": "_atherAmount",
          "type": "uint256"
        },
        {
          "internalType": "bool",
          "name": "_excludeTreasuryHoldings",
          "type": "bool"
        }
      ],
      "name": "payDividends",
      "outputs": [],
      "stateMutability": "nonpayable",
      "type": "function"
    },
    {
      "inputs": [
        {
          "internalType": "address",
          "name": "_stakingContract",
          "type": "address"
        },
        {
          "internalType": "uint256",
          "name": "_amount",
          "type": "uint256"
        },
        {
          "internalType": "uint16",
          "name": "_autoRestake",
          "type": "uint16"
        }
      ],
      "name": "stake",
      "outputs": [],
      "stateMutability": "nonpayable",
      "type": "function"
    },
    {
      "inputs": [
        {
          "internalType": "address",
          "name": "_stakingContract",
          "type": "address"
        },
        {
          "internalType": "uint256",
          "name": "_amount",
          "type": "uint256"
        }
      ],
      "name": "unstake",
      "outputs": [],
      "stateMutability": "nonpayable",
      "type": "function"
    },
    {
      "inputs": [
        {
          "internalType": "address",
          "name": "_stakingContract",
          "type": "address"
        },
        {
          "internalType": "uint16",
          "name": "_autoRestake",
          "type": "uint16"
        }
      ],
      "name": "setAutoRestake",
      "outputs": [],
      "stateMutability": "nonpayable",
      "type": "function"
    },
    {
      "inputs": [
        {
          "internalType": "address",
          "name": "_stakingContract",
          "type": "address"
        },
        {
          "internalType": "address",
          "name": "_account",
          "type": "address"
        },
        {
          "internalType": "uint256",
          "name": "_amount",
          "type": "uint256"
        },
        {
          "internalType": "bool",
          "name": "_isPositive",
          "type": "bool"
        }
      ],
      "name": "rebaseAccount",
      "outputs": [],
      "stateMutability": "nonpayable",
      "type": "function"
    },
    {
      "inputs": [
        {
          "internalType": "address",
          "name": "_borrower",
          "type": "address"
        },
        {
          "internalType": "uint256",
          "name": "_amount",
          "type": "uint256"
        }
      ],
      "name": "incurUnsecured",
      "outputs": [],
      "stateMutability": "nonpayable",
      "type": "function"
    },
    {
      "inputs": [
        {
          "internalType": "address",
          "name": "_borrower",
          "type": "address"
        },
        {
          "internalType": "uint256",
          "name": "_amount",
          "type": "uint256"
        }
      ],
      "name": "repayUnsecured",
      "outputs": [],
      "stateMutability": "nonpayable",
      "type": "function"
    },
    {
      "inputs": [
        {
          "internalType": "address",
          "name": "_borrower",
          "type": "address"
        },
        {
          "internalType": "address",
          "name": "_repayer",
          "type": "address"
        },
        {
          "internalType": "uint256",
          "name": "_amount",
          "type": "uint256"
        }
      ],
      "name": "repayUnsecuredOnBehalfOf",
      "outputs": [],
      "stateMutability": "nonpayable",
      "type": "function"
    },
    {
      "inputs": [
        {
          "internalType": "address",
          "name": "_borrower",
          "type": "address"
        },
        {
          "internalType": "uint256",
          "name": "_amount",
          "type": "uint256"
        }
      ],
      "name": "incurUnsecuredUSD",
      "outputs": [],
      "stateMutability": "nonpayable",
      "type": "function"
    },
    {
      "inputs": [
        {
          "internalType": "address",
          "name": "_borrower",
          "type": "address"
        },
        {
          "internalType": "uint256",
          "name": "_amount",
          "type": "uint256"
        }
      ],
      "name": "repayUnsecuredUSD",
      "outputs": [],
      "stateMutability": "nonpayable",
      "type": "function"
    },
    {
      "inputs": [
        {
          "internalType": "address",
          "name": "_borrower",
          "type": "address"
        },
        {
          "internalType": "address",
          "name": "_repayer",
          "type": "address"
        },
        {
          "internalType": "uint256",
          "name": "_amount",
          "type": "uint256"
        }
      ],
      "name": "repayUnsecuredUSDOnBehalfOf",
      "outputs": [],
      "stateMutability": "nonpayable",
      "type": "function"
    },
    {
      "inputs": [],
      "name": "auditReserves",
      "outputs": [],
      "stateMutability": "nonpayable",
      "type": "function"
    },
    {
      "inputs": [
        {
          "internalType": "address",
          "name": "_address",
          "type": "address"
        },
        {
          "internalType": "bool",
          "name": "value",
          "type": "bool"
        }
      ],
      "name": "setAuthority",
      "outputs": [],
      "stateMutability": "nonpayable",
      "type": "function"
    },
    {
      "inputs": [
        {
          "internalType": "address",
          "name": "_address",
          "type": "address"
        },
        {
          "internalType": "bool",
          "name": "value",
          "type": "bool"
        }
      ],
      "name": "setDepositor",
      "outputs": [],
      "stateMutability": "nonpayable",
      "type": "function"
    },
    {
      "inputs": [
        {
          "internalType": "bool",
          "name": "_value",
          "type": "bool"
        },
        {
          "internalType": "address",
          "name": "_token",
          "type": "address"
        }
      ],
      "name": "setStableToken",
      "outputs": [],
      "stateMutability": "nonpayable",
      "type": "function"
    },
    {
      "inputs": [
        {
          "internalType": "bool",
          "name": "_value",
          "type": "bool"
        },
        {
          "internalType": "address",
          "name": "_token",
          "type": "address"
        },
        {
          "internalType": "address",
          "name": "_evaluator",
          "type": "address"
        },
        {
          "internalType": "address",
          "name": "_groudingLpPair",
          "type": "address"
        }
      ],
      "name": "setFloatingToken",
      "outputs": [],
      "stateMutability": "nonpayable",
      "type": "function"
    },
    {
      "inputs": [
        {
          "internalType": "bool",
          "name": "_value",
          "type": "bool"
        },
        {
          "internalType": "address",
          "name": "_token",
          "type": "address"
        },
        {
          "internalType": "address",
          "name": "_evaluator",
          "type": "address"
        },
        {
          "internalType": "address",
          "name": "_groudingLpPair",
          "type": "address"
        }
      ],
      "name": "setLpToken",
      "outputs": [],
      "stateMutability": "nonpayable",
      "type": "function"
    },
    {
      "inputs": [
        {
          "internalType": "bool",
          "name": "_value",
          "type": "bool"
        },
        {
          "internalType": "address",
          "name": "stakingContract_",
          "type": "address"
        }
      ],
      "name": "setStakingContract",
      "outputs": [],
      "stateMutability": "nonpayable",
      "type": "function"
    },
    {
      "inputs": [],
      "name": "getTreasuryData",
      "outputs": [
        {
          "components": [
            {
              "internalType": "uint256",
              "name": "totalReserves",
              "type": "uint256"
            },
            {
              "internalType": "uint256",
              "name": "totalReservesHard",
              "type": "uint256"
            },
            {
              "internalType": "uint256",
              "name": "totalReservesSoft",
              "type": "uint256"
            },
            {
              "internalType": "uint256",
              "name": "totalProfit",
              "type": "uint256"
            },
            {
              "internalType": "uint256",
              "name": "totalProfitHard",
              "type": "uint256"
            },
            {
              "internalType": "uint256",
              "name": "totalProfitSoft",
              "type": "uint256"
            },
            {
              "internalType": "uint256",
              "name": "totalLoss",
              "type": "uint256"
            },
            {
              "internalType": "uint256",
              "name": "totalLossHard",
              "type": "uint256"
            },
            {
              "internalType": "uint256",
              "name": "totalLossSoft",
              "type": "uint256"
            },
            {
              "internalType": "uint256",
              "name": "totalUnsecured",
              "type": "uint256"
            },
            {
              "internalType": "uint256",
              "name": "totalUnsecuredUSD",
              "type": "uint256"
            }
          ],
          "internalType": "struct AthertonTreasury.TreasuryData",
          "name": "",
          "type": "tuple"
        }
      ],
      "stateMutability": "view",
      "type": "function"
    },
    {
      "inputs": [
        {
          "internalType": "address",
          "name": "_token",
          "type": "address"
        },
        {
          "internalType": "uint256",
          "name": "_amount",
          "type": "uint256"
        }
      ],
      "name": "valueOfToken",
      "outputs": [
        {
          "internalType": "uint256",
          "name": "",
          "type": "uint256"
        }
      ],
      "stateMutability": "view",
      "type": "function"
    },
    {
      "inputs": [
        {
          "internalType": "address",
          "name": "_token",
          "type": "address"
        },
        {
          "internalType": "uint256",
          "name": "_amount",
          "type": "uint256"
        }
      ],
      "name": "atherValueOf",
      "outputs": [
        {
          "internalType": "uint256",
          "name": "",
          "type": "uint256"
        }
      ],
      "stateMutability": "view",
      "type": "function"
    },
    {
      "inputs": [],
      "name": "getErc20Assets",
      "outputs": [
        {
          "components": [
            {
              "internalType": "address",
              "name": "token",
              "type": "address"
            },
            {
              "internalType": "uint256",
              "name": "balance",
              "type": "uint256"
            },
            {
              "internalType": "uint256",
              "name": "value",
              "type": "uint256"
            }
          ],
          "internalType": "struct AthertonTreasury.TreasuryOwnedErc20[]",
          "name": "",
          "type": "tuple[]"
        }
      ],
      "stateMutability": "view",
      "type": "function"
    }
  ],
  "bytecode": "0x60e06040523480156200001157600080fd5b50604051620080f0380380620080f0833981810160405281019062000037919062000442565b620000576200004b6200035f60201b60201c565b6200036760201b60201c565b600073ffffffffffffffffffffffffffffffffffffffff168373ffffffffffffffffffffffffffffffffffffffff1614156200009257600080fd5b8273ffffffffffffffffffffffffffffffffffffffff1660808173ffffffffffffffffffffffffffffffffffffffff1660601b81525050600073ffffffffffffffffffffffffffffffffffffffff168273ffffffffffffffffffffffffffffffffffffffff1614156200010457600080fd5b8173ffffffffffffffffffffffffffffffffffffffff1660a08173ffffffffffffffffffffffffffffffffffffffff1660601b81525050600073ffffffffffffffffffffffffffffffffffffffff168173ffffffffffffffffffffffffffffffffffffffff1614156200017657600080fd5b8073ffffffffffffffffffffffffffffffffffffffff1660c08173ffffffffffffffffffffffffffffffffffffffff1660601b815250506001601660003073ffffffffffffffffffffffffffffffffffffffff1673ffffffffffffffffffffffffffffffffffffffff16815260200190815260200160002060006101000a81548160ff0219169083151502179055506001601660003373ffffffffffffffffffffffffffffffffffffffff1673ffffffffffffffffffffffffffffffffffffffff16815260200190815260200160002060006101000a81548160ff0219169083151502179055506001601560003373ffffffffffffffffffffffffffffffffffffffff1673ffffffffffffffffffffffffffffffffffffffff16815260200190815260200160002060006101000a81548160ff0219169083151502179055506040518060600160405280600063ffffffff168152602001603c63ffffffff168152602001600060ff16815250600c60008201518160000160006101000a81548163ffffffff021916908363ffffffff16021790555060208201518160000160046101000a81548163ffffffff021916908363ffffffff16021790555060408201518160000160086101000a81548160ff021916908360ff160217905550905050505050620004e6565b600033905090565b60008060009054906101000a900473ffffffffffffffffffffffffffffffffffffffff169050816000806101000a81548173ffffffffffffffffffffffffffffffffffffffff021916908373ffffffffffffffffffffffffffffffffffffffff1602179055508173ffffffffffffffffffffffffffffffffffffffff168173ffffffffffffffffffffffffffffffffffffffff167f8be0079c531659141344cd1fd0a4f28419497f9722a3daafe3b4186f6b6457e060405160405180910390a35050565b6000815190506200043c81620004cc565b92915050565b6000806000606084860312156200045857600080fd5b600062000468868287016200042b565b93505060206200047b868287016200042b565b92505060406200048e868287016200042b565b9150509250925092565b6000620004a582620004ac565b9050919050565b600073ffffffffffffffffffffffffffffffffffffffff82169050919050565b620004d78162000498565b8114620004e357600080fd5b50565b60805160601c60a05160601c60c05160601c617b0d620005e360003960008181612e7a01528181612faf015281816144be0152818161486001526153d6015260008181613498015281816135f20152818161397101528181613ab501528181613c0f01528181613f3a015261409401526000818161094001528181610a9a01528181610e7201528181610ff2015281816112210152818161136101528181612e3301528181612f1401528181612f6801528181613091015281816131eb015281816133ea015281816139d5015281816141ef015281816148190152818161538f0152818161587b01528181615ba30152615cfd0152617b0d6000f3fe608060405234801561001057600080fd5b506004361061027f5760003560e01c806362cb41ee1161015c578063a88b8276116100ce578063e62d29df11610087578063e62d29df146107f5578063e72b757f14610811578063f2979a6b1461082d578063f2fde38b14610849578063f3b9765c14610865578063fb9f808e146108815761027f565b8063a88b827614610723578063adec520a14610753578063b5f0d35c14610771578063c2a672e01461078d578063d1b317e5146107a9578063d5fc9de1146107d95761027f565b80637399570011610120578063739957001461064c5780637b21ac371461067d5780637ed8e37f146106995780638da5cb5b146106b55780639379f517146106d357806398f965d1146107055761027f565b806362cb41ee146105aa5780636661df96146105c657806366dcf02e146105f65780636f860d7414610626578063715018a6146106425761027f565b806338d781d8116101f557806349268e43116101b957806349268e43146104ae5780634e22322a146104cc5780634e34f26b146104fc5780634e3d88531461052c5780634eab71751461054a5780635312e42b1461057a5761027f565b806338d781d8146103fa57806339442fac146104165780633b264d741461043257806344ae25c91461046257806347e7ef241461047e5761027f565b80632a0e305e116102475780632a0e305e1461033a5780632b7ce5001461035657806332730ccc1461036057806334e3b4961461037c57806336a63054146103ac57806337244d6d146103c85761027f565b806306df2719146102845780630f24ca7d146102b45780630f7e84df146102e45780631619cf3a146103005780631d9a4bf21461031c575b600080fd5b61029e600480360381019061029991906164bc565b6108b2565b6040516102ab91906172ac565b60405180910390f35b6102ce60048036038101906102c991906164bc565b6108d2565b6040516102db91906172ac565b60405180910390f35b6102fe60048036038101906102f9919061660f565b6108f2565b005b61031a600480360381019061031591906165d3565b610b4b565b005b610324610d14565b6040516103319190617268565b60405180910390f35b610354600480360381019061034f9190616844565b610ddd565b005b61035e611560565b005b61037a60048036038101906103759190616766565b6120c1565b005b610396600480360381019061039191906164bc565b612641565b6040516103a391906172ac565b60405180910390f35b6103c660048036038101906103c19190616766565b612661565b005b6103e260048036038101906103dd91906164bc565b612b02565b6040516103f193929190617231565b60405180910390f35b610414600480360381019061040f9190616534565b612b67565b005b610430600480360381019061042b91906164e5565b613043565b005b61044c6004803603810190610447919061660f565b61329d565b6040516104599190617525565b60405180910390f35b61047c600480360381019061047791906164e5565b61344a565b005b6104986004803603810190610493919061660f565b6136a4565b6040516104a59190617525565b60405180910390f35b6104b661396f565b6040516104c39190617104565b60405180910390f35b6104e660048036038101906104e191906164bc565b613993565b6040516104f391906172ac565b60405180910390f35b610516600480360381019061051191906164bc565b6139b3565b60405161052391906172ac565b60405180910390f35b6105346139d3565b6040516105419190617104565b60405180910390f35b610564600480360381019061055f91906164bc565b6139f7565b60405161057191906172ac565b60405180910390f35b610594600480360381019061058f91906164bc565b613a17565b6040516105a191906172ac565b60405180910390f35b6105c460048036038101906105bf919061660f565b613a37565b005b6105e060048036038101906105db91906164bc565b613cc0565b6040516105ed9190617525565b60405180910390f35b610610600480360381019061060b91906164bc565b613cd8565b60405161061d9190617525565b60405180910390f35b610640600480360381019061063b9190616597565b613cf0565b005b61064a613e00565b005b610666600480360381019061066191906164bc565b613e88565b60405161067492919061711f565b60405180910390f35b6106976004803603810190610692919061660f565b613eec565b005b6106b360048036038101906106ae919061664b565b614145565b005b6106bd614390565b6040516106ca9190617104565b60405180910390f35b6106ed60048036038101906106e891906167f2565b6143b9565b6040516106fc939291906171fa565b60405180910390f35b61070d614413565b60405161071a9190617509565b60405180910390f35b61073d600480360381019061073891906164bc565b61449c565b60405161074a91906172ac565b60405180910390f35b61075b6144bc565b6040516107689190617104565b60405180910390f35b61078b60048036038101906107869190616597565b6144e0565b005b6107a760048036038101906107a2919061660f565b6145f0565b005b6107c360048036038101906107be919061660f565b61495e565b6040516107d09190617525565b60405180910390f35b6107f360048036038101906107ee919061672a565b614e06565b005b61080f600480360381019061080a91906166b2565b6151c3565b005b61082b6004803603810190610826919061672a565b6154d3565b005b6108476004803603810190610842919061664b565b6157d1565b005b610863600480360381019061085e91906164bc565b615a2d565b005b61087f600480360381019061087a919061660f565b615b25565b005b61089b600480360381019061089691906164bc565b615dae565b6040516108a99291906171d1565b60405180910390f35b60136020528060005260406000206000915054906101000a900460ff1681565b60116020528060005260406000206000915054906101000a900460ff1681565b80601760008473ffffffffffffffffffffffffffffffffffffffff1673ffffffffffffffffffffffffffffffffffffffff16815260200190815260200160002054101561093e57600080fd5b7f000000000000000000000000000000000000000000000000000000000000000073ffffffffffffffffffffffffffffffffffffffff166379cc679083836040518363ffffffff1660e01b81526004016109999291906171d1565b600060405180830381600087803b1580156109b357600080fd5b505af11580156109c7573d6000803e3d6000fd5b505050506109e381600160090154615df290919063ffffffff16565b600160090181905550610a3e81601760008573ffffffffffffffffffffffffffffffffffffffff1673ffffffffffffffffffffffffffffffffffffffff16815260200190815260200160002054615df290919063ffffffff16565b601760008473ffffffffffffffffffffffffffffffffffffffff1673ffffffffffffffffffffffffffffffffffffffff168152602001908152602001600020819055508173ffffffffffffffffffffffffffffffffffffffff167f000000000000000000000000000000000000000000000000000000000000000073ffffffffffffffffffffffffffffffffffffffff167ff6290eed3ed9d2add25153332b8efd496643990cc139aa19b27fd52763cd957783601760008773ffffffffffffffffffffffffffffffffffffffff1673ffffffffffffffffffffffffffffffffffffffff16815260200190815260200160002054604051610b3f929190617569565b60405180910390a35050565b8133601360008373ffffffffffffffffffffffffffffffffffffffff1673ffffffffffffffffffffffffffffffffffffffff16815260200190815260200160002060009054906101000a900460ff16610bd9576040517f08c379a0000000000000000000000000000000000000000000000000000000008152600401610bd090617329565b60405180910390fd5b8173ffffffffffffffffffffffffffffffffffffffff166375cd51ed826040518263ffffffff1660e01b8152600401610c129190617104565b60206040518083038186803b158015610c2a57600080fd5b505afa158015610c3e573d6000803e3d6000fd5b505050506040513d601f19601f82011682018060405250810190610c629190616701565b610ca1576040517f08c379a0000000000000000000000000000000000000000000000000000000008152600401610c98906173e9565b60405180910390fd5b8373ffffffffffffffffffffffffffffffffffffffff16631619cf3a33856040518363ffffffff1660e01b8152600401610cdc9291906171a8565b600060405180830381600087803b158015610cf657600080fd5b505af1158015610d0a573d6000803e3d6000fd5b5050505050505050565b6060600d805480602002602001604051908101604052809291908181526020016000905b82821015610dd457838290600052602060002090600302016040518060600160405290816000820160009054906101000a900473ffffffffffffffffffffffffffffffffffffffff1673ffffffffffffffffffffffffffffffffffffffff1673ffffffffffffffffffffffffffffffffffffffff1681526020016001820154815260200160028201548152505081526020019060010190610d38565b50505050905090565b601660003373ffffffffffffffffffffffffffffffffffffffff1673ffffffffffffffffffffffffffffffffffffffff16815260200190815260200160002060009054906101000a900460ff16610e69576040517f08c379a0000000000000000000000000000000000000000000000000000000008152600401610e60906174c9565b60405180910390fd5b600081610f1e577f000000000000000000000000000000000000000000000000000000000000000073ffffffffffffffffffffffffffffffffffffffff166370a08231306040518263ffffffff1660e01b8152600401610ec99190617104565b60206040518083038186803b158015610ee157600080fd5b505afa158015610ef5573d6000803e3d6000fd5b505050506040513d601f19601f82011682018060405250810190610f19919061681b565b610f21565b60005b905060005b601e805490508110156111215760136000601e8381548110610f71577f4e487b7100000000000000000000000000000000000000000000000000000000600052603260045260246000fd5b9060005260206000200160009054906101000a900473ffffffffffffffffffffffffffffffffffffffff1673ffffffffffffffffffffffffffffffffffffffff1673ffffffffffffffffffffffffffffffffffffffff16815260200190815260200160002060009054906101000a900460ff16610fed5761110e565b61110c7f000000000000000000000000000000000000000000000000000000000000000073ffffffffffffffffffffffffffffffffffffffff166370a08231601e8481548110611066577f4e487b7100000000000000000000000000000000000000000000000000000000600052603260045260246000fd5b9060005260206000200160009054906101000a900473ffffffffffffffffffffffffffffffffffffffff166040518263ffffffff1660e01b81526004016110ad9190617104565b60206040518083038186803b1580156110c557600080fd5b505afa1580156110d9573d6000803e3d6000fd5b505050506040513d601f19601f820116820180604052508101906110fd919061681b565b83615e0890919063ffffffff16565b505b808061111990617970565b915050610f26565b50600061115182611143670de0b6b3a764000087615e1e90919063ffffffff16565b615e3490919063ffffffff16565b905060005b601e805490508110156115595760136000601e83815481106111a1577f4e487b7100000000000000000000000000000000000000000000000000000000600052603260045260246000fd5b9060005260206000200160009054906101000a900473ffffffffffffffffffffffffffffffffffffffff1673ffffffffffffffffffffffffffffffffffffffff1673ffffffffffffffffffffffffffffffffffffffff16815260200190815260200160002060009054906101000a900460ff1661121d57611546565b60007f000000000000000000000000000000000000000000000000000000000000000073ffffffffffffffffffffffffffffffffffffffff166370a08231601e8481548110611295577f4e487b7100000000000000000000000000000000000000000000000000000000600052603260045260246000fd5b9060005260206000200160009054906101000a900473ffffffffffffffffffffffffffffffffffffffff166040518263ffffffff1660e01b81526004016112dc9190617104565b60206040518083038186803b1580156112f457600080fd5b505afa158015611308573d6000803e3d6000fd5b505050506040513d601f19601f8201168201806040525081019061132c919061681b565b9050600061135d670de0b6b3a764000061134f8685615e1e90919063ffffffff16565b615e3490919063ffffffff16565b90507f000000000000000000000000000000000000000000000000000000000000000073ffffffffffffffffffffffffffffffffffffffff1663a9059cbb601e85815481106113d5577f4e487b7100000000000000000000000000000000000000000000000000000000600052603260045260246000fd5b9060005260206000200160009054906101000a900473ffffffffffffffffffffffffffffffffffffffff16836040518363ffffffff1660e01b815260040161141e9291906171d1565b602060405180830381600087803b15801561143857600080fd5b505af115801561144c573d6000803e3d6000fd5b505050506040513d601f19601f820116820180604052508101906114709190616701565b50601e83815481106114ab577f4e487b7100000000000000000000000000000000000000000000000000000000600052603260045260246000fd5b9060005260206000200160009054906101000a900473ffffffffffffffffffffffffffffffffffffffff1673ffffffffffffffffffffffffffffffffffffffff166353aafda68260016040518363ffffffff1660e01b8152600401611511929190617540565b600060405180830381600087803b15801561152b57600080fd5b505af115801561153f573d6000803e3d6000fd5b5050505050505b808061155190617970565b915050611156565b5050505050565b600c60000160049054906101000a900463ffffffff16600c60000160009054906101000a900463ffffffff166115969190617764565b63ffffffff164310156115a8576120bf565b43600c60000160006101000a81548163ffffffff021916908363ffffffff1602179055506000600d60006115dc91906162e0565b60005b601b8054905081101561195157600f6000601b838154811061162a577f4e487b7100000000000000000000000000000000000000000000000000000000600052603260045260246000fd5b9060005260206000200160009054906101000a900473ffffffffffffffffffffffffffffffffffffffff1673ffffffffffffffffffffffffffffffffffffffff1673ffffffffffffffffffffffffffffffffffffffff16815260200190815260200160002060009054906101000a900460ff166116a65761193e565b6000601b82815481106116e2577f4e487b7100000000000000000000000000000000000000000000000000000000600052603260045260246000fd5b9060005260206000200160009054906101000a900473ffffffffffffffffffffffffffffffffffffffff1673ffffffffffffffffffffffffffffffffffffffff166370a08231306040518263ffffffff1660e01b81526004016117459190617104565b60206040518083038186803b15801561175d57600080fd5b505afa158015611771573d6000803e3d6000fd5b505050506040513d601f19601f82011682018060405250810190611795919061681b565b90506000611807601b84815481106117d6577f4e487b7100000000000000000000000000000000000000000000000000000000600052603260045260246000fd5b9060005260206000200160009054906101000a900473ffffffffffffffffffffffffffffffffffffffff168361495e565b905061181c8185615e0890919063ffffffff16565b9350600d6040518060600160405280601b8681548110611865577f4e487b7100000000000000000000000000000000000000000000000000000000600052603260045260246000fd5b9060005260206000200160009054906101000a900473ffffffffffffffffffffffffffffffffffffffff1673ffffffffffffffffffffffffffffffffffffffff16815260200184815260200183815250908060018154018082558091505060019003906000526020600020906003020160009091909190915060008201518160000160006101000a81548173ffffffffffffffffffffffffffffffffffffffff021916908373ffffffffffffffffffffffffffffffffffffffff1602179055506020820151816001015560408201518160020155505050505b808061194990617970565b9150506115df565b5060005b601c80549050811015611cc75760106000601c83815481106119a0577f4e487b7100000000000000000000000000000000000000000000000000000000600052603260045260246000fd5b9060005260206000200160009054906101000a900473ffffffffffffffffffffffffffffffffffffffff1673ffffffffffffffffffffffffffffffffffffffff1673ffffffffffffffffffffffffffffffffffffffff16815260200190815260200160002060009054906101000a900460ff16611a1c57611cb4565b6000601c8281548110611a58577f4e487b7100000000000000000000000000000000000000000000000000000000600052603260045260246000fd5b9060005260206000200160009054906101000a900473ffffffffffffffffffffffffffffffffffffffff1673ffffffffffffffffffffffffffffffffffffffff166370a08231306040518263ffffffff1660e01b8152600401611abb9190617104565b60206040518083038186803b158015611ad357600080fd5b505afa158015611ae7573d6000803e3d6000fd5b505050506040513d601f19601f82011682018060405250810190611b0b919061681b565b90506000611b7d601c8481548110611b4c577f4e487b7100000000000000000000000000000000000000000000000000000000600052603260045260246000fd5b9060005260206000200160009054906101000a900473ffffffffffffffffffffffffffffffffffffffff168361495e565b9050611b928185615e0890919063ffffffff16565b9350600d6040518060600160405280601c8681548110611bdb577f4e487b7100000000000000000000000000000000000000000000000000000000600052603260045260246000fd5b9060005260206000200160009054906101000a900473ffffffffffffffffffffffffffffffffffffffff1673ffffffffffffffffffffffffffffffffffffffff16815260200184815260200183815250908060018154018082558091505060019003906000526020600020906003020160009091909190915060008201518160000160006101000a81548173ffffffffffffffffffffffffffffffffffffffff021916908373ffffffffffffffffffffffffffffffffffffffff1602179055506020820151816001015560408201518160020155505050505b8080611cbf90617970565b915050611955565b5060005b601d8054905081101561203d5760116000601d8381548110611d16577f4e487b7100000000000000000000000000000000000000000000000000000000600052603260045260246000fd5b9060005260206000200160009054906101000a900473ffffffffffffffffffffffffffffffffffffffff1673ffffffffffffffffffffffffffffffffffffffff1673ffffffffffffffffffffffffffffffffffffffff16815260200190815260200160002060009054906101000a900460ff16611d925761202a565b6000601d8281548110611dce577f4e487b7100000000000000000000000000000000000000000000000000000000600052603260045260246000fd5b9060005260206000200160009054906101000a900473ffffffffffffffffffffffffffffffffffffffff1673ffffffffffffffffffffffffffffffffffffffff166370a08231306040518263ffffffff1660e01b8152600401611e319190617104565b60206040518083038186803b158015611e4957600080fd5b505afa158015611e5d573d6000803e3d6000fd5b505050506040513d601f19601f82011682018060405250810190611e81919061681b565b90506000611ef3601d8481548110611ec2577f4e487b7100000000000000000000000000000000000000000000000000000000600052603260045260246000fd5b9060005260206000200160009054906101000a900473ffffffffffffffffffffffffffffffffffffffff168361495e565b9050611f088185615e0890919063ffffffff16565b9350600d6040518060600160405280601d8681548110611f51577f4e487b7100000000000000000000000000000000000000000000000000000000600052603260045260246000fd5b9060005260206000200160009054906101000a900473ffffffffffffffffffffffffffffffffffffffff1673ffffffffffffffffffffffffffffffffffffffff16815260200184815260200183815250908060018154018082558091505060019003906000526020600020906003020160009091909190915060008201518160000160006101000a81548173ffffffffffffffffffffffffffffffffffffffff021916908373ffffffffffffffffffffffffffffffffffffffff1602179055506020820151816001015560408201518160020155505050505b808061203590617970565b915050611ccb565b5080600160000181905550612050614390565b73ffffffffffffffffffffffffffffffffffffffff163373ffffffffffffffffffffffffffffffffffffffff1614156120bd57807f03bf8bd1ed8d7f6f985a2df46b568b5c3fdd37148bf7b832de24d158eba7412a600d6040516120b4919061728a565b60405180910390a25b505b565b6120c9615e4a565b73ffffffffffffffffffffffffffffffffffffffff166120e7614390565b73ffffffffffffffffffffffffffffffffffffffff161461213d576040517f08c379a000000000000000000000000000000000000000000000000000000000815260040161213490617409565b60405180910390fd5b60128373ffffffffffffffffffffffffffffffffffffffff1663313ce5676040518163ffffffff1660e01b815260040160206040518083038186803b15801561218557600080fd5b505afa158015612199573d6000803e3d6000fd5b505050506040513d601f19601f820116820180604052508101906121bd9190616880565b60ff1614612200576040517f08c379a00000000000000000000000000000000000000000000000000000000081526004016121f7906173c9565b60405180910390fd5b831561246e576001601160008573ffffffffffffffffffffffffffffffffffffffff1673ffffffffffffffffffffffffffffffffffffffff16815260200190815260200160002060006101000a81548160ff021916908315150217905550600073ffffffffffffffffffffffffffffffffffffffff168173ffffffffffffffffffffffffffffffffffffffff161415601260008573ffffffffffffffffffffffffffffffffffffffff1673ffffffffffffffffffffffffffffffffffffffff16815260200190815260200160002060006101000a81548160ff02191690831515021790555060405180604001604052808373ffffffffffffffffffffffffffffffffffffffff1681526020018273ffffffffffffffffffffffffffffffffffffffff16815250601960008573ffffffffffffffffffffffffffffffffffffffff1673ffffffffffffffffffffffffffffffffffffffff16815260200190815260200160002060008201518160000160006101000a81548173ffffffffffffffffffffffffffffffffffffffff021916908373ffffffffffffffffffffffffffffffffffffffff16021790555060208201518160010160006101000a81548173ffffffffffffffffffffffffffffffffffffffff021916908373ffffffffffffffffffffffffffffffffffffffff160217905550905050612401601d84615e52565b61246957601d839080600181540180825580915050600190039060005260206000200160009091909190916101000a81548173ffffffffffffffffffffffffffffffffffffffff021916908373ffffffffffffffffffffffffffffffffffffffff1602179055505b61263b565b601160008473ffffffffffffffffffffffffffffffffffffffff1673ffffffffffffffffffffffffffffffffffffffff16815260200190815260200160002060009054906101000a900460ff166124fa576040517f08c379a00000000000000000000000000000000000000000000000000000000081526004016124f190617489565b60405180910390fd5b6000601160008573ffffffffffffffffffffffffffffffffffffffff1673ffffffffffffffffffffffffffffffffffffffff16815260200190815260200160002060006101000a81548160ff0219169083151502179055506000601260008573ffffffffffffffffffffffffffffffffffffffff1673ffffffffffffffffffffffffffffffffffffffff16815260200190815260200160002060006101000a81548160ff021916908315150217905550601960008473ffffffffffffffffffffffffffffffffffffffff1673ffffffffffffffffffffffffffffffffffffffff168152602001908152602001600020600080820160006101000a81549073ffffffffffffffffffffffffffffffffffffffff02191690556001820160006101000a81549073ffffffffffffffffffffffffffffffffffffffff021916905550505b50505050565b60126020528060005260406000206000915054906101000a900460ff1681565b612669615e4a565b73ffffffffffffffffffffffffffffffffffffffff16612687614390565b73ffffffffffffffffffffffffffffffffffffffff16146126dd576040517f08c379a00000000000000000000000000000000000000000000000000000000081526004016126d490617409565b60405180910390fd5b60128373ffffffffffffffffffffffffffffffffffffffff1663313ce5676040518163ffffffff1660e01b815260040160206040518083038186803b15801561272557600080fd5b505afa158015612739573d6000803e3d6000fd5b505050506040513d601f19601f8201168201806040525081019061275d9190616880565b60ff16146127a0576040517f08c379a0000000000000000000000000000000000000000000000000000000008152600401612797906173c9565b60405180910390fd5b8315612987576001601060008573ffffffffffffffffffffffffffffffffffffffff1673ffffffffffffffffffffffffffffffffffffffff16815260200190815260200160002060006101000a81548160ff02191690831515021790555060405180604001604052808373ffffffffffffffffffffffffffffffffffffffff1681526020018273ffffffffffffffffffffffffffffffffffffffff16815250601960008573ffffffffffffffffffffffffffffffffffffffff1673ffffffffffffffffffffffffffffffffffffffff16815260200190815260200160002060008201518160000160006101000a81548173ffffffffffffffffffffffffffffffffffffffff021916908373ffffffffffffffffffffffffffffffffffffffff16021790555060208201518160010160006101000a81548173ffffffffffffffffffffffffffffffffffffffff021916908373ffffffffffffffffffffffffffffffffffffffff16021790555090505061291a601c84615e52565b61298257601c839080600181540180825580915050600190039060005260206000200160009091909190916101000a81548173ffffffffffffffffffffffffffffffffffffffff021916908373ffffffffffffffffffffffffffffffffffffffff1602179055505b612afc565b600f60008473ffffffffffffffffffffffffffffffffffffffff1673ffffffffffffffffffffffffffffffffffffffff16815260200190815260200160002060009054906101000a900460ff16612a13576040517f08c379a0000000000000000000000000000000000000000000000000000000008152600401612a0a90617449565b60405180910390fd5b6000601060008573ffffffffffffffffffffffffffffffffffffffff1673ffffffffffffffffffffffffffffffffffffffff16815260200190815260200160002060006101000a81548160ff021916908315150217905550601960008473ffffffffffffffffffffffffffffffffffffffff1673ffffffffffffffffffffffffffffffffffffffff168152602001908152602001600020600080820160006101000a81549073ffffffffffffffffffffffffffffffffffffffff02191690556001820160006101000a81549073ffffffffffffffffffffffffffffffffffffffff021916905550505b50505050565b601a6020528060005260406000206000915090508060000160009054906101000a900473ffffffffffffffffffffffffffffffffffffffff16908060000160149054906101000a900460ff16908060000160159054906101000a900461ffff16905083565b601360003373ffffffffffffffffffffffffffffffffffffffff1673ffffffffffffffffffffffffffffffffffffffff16815260200190815260200160002060009054906101000a900460ff16612bf3576040517f08c379a0000000000000000000000000000000000000000000000000000000008152600401612bea906174a9565b60405180910390fd5b8383601360008373ffffffffffffffffffffffffffffffffffffffff1673ffffffffffffffffffffffffffffffffffffffff16815260200190815260200160002060009054906101000a900460ff16612c81576040517f08c379a0000000000000000000000000000000000000000000000000000000008152600401612c7890617329565b60405180910390fd5b8173ffffffffffffffffffffffffffffffffffffffff166375cd51ed826040518263ffffffff1660e01b8152600401612cba9190617104565b60206040518083038186803b158015612cd257600080fd5b505afa158015612ce6573d6000803e3d6000fd5b505050506040513d601f19601f82011682018060405250810190612d0a9190616701565b612d49576040517f08c379a0000000000000000000000000000000000000000000000000000000008152600401612d40906173e9565b60405180910390fd5b8215612f605760008673ffffffffffffffffffffffffffffffffffffffff166350b2b931876040518263ffffffff1660e01b8152600401612d8a9190617104565b60206040518083038186803b158015612da257600080fd5b505afa158015612db6573d6000803e3d6000fd5b505050506040513d601f19601f82011682018060405250810190612dda91906167c9565b61ffff1690506000811115612f0c576000612e12612710612e048489615e1e90919063ffffffff16565b615e3490919063ffffffff16565b90506000612e298288615df290919063ffffffff16565b9050612e788989837f000000000000000000000000000000000000000000000000000000000000000073ffffffffffffffffffffffffffffffffffffffff16615f26909392919063ffffffff16565b7f000000000000000000000000000000000000000000000000000000000000000073ffffffffffffffffffffffffffffffffffffffff166340c10f1989846040518363ffffffff1660e01b8152600401612ed39291906171d1565b600060405180830381600087803b158015612eed57600080fd5b505af1158015612f01573d6000803e3d6000fd5b505050505050612f5a565b612f598787877f000000000000000000000000000000000000000000000000000000000000000073ffffffffffffffffffffffffffffffffffffffff16615f26909392919063ffffffff16565b5b5061303b565b612fad8630867f000000000000000000000000000000000000000000000000000000000000000073ffffffffffffffffffffffffffffffffffffffff16615f26909392919063ffffffff16565b7f000000000000000000000000000000000000000000000000000000000000000073ffffffffffffffffffffffffffffffffffffffff166379cc679086866040518363ffffffff1660e01b81526004016130089291906171d1565b600060405180830381600087803b15801561302257600080fd5b505af1158015613036573d6000803e3d6000fd5b505050505b505050505050565b80601760008573ffffffffffffffffffffffffffffffffffffffff1673ffffffffffffffffffffffffffffffffffffffff16815260200190815260200160002054101561308f57600080fd5b7f000000000000000000000000000000000000000000000000000000000000000073ffffffffffffffffffffffffffffffffffffffff166379cc679083836040518363ffffffff1660e01b81526004016130ea9291906171d1565b600060405180830381600087803b15801561310457600080fd5b505af1158015613118573d6000803e3d6000fd5b5050505061313481600160090154615df290919063ffffffff16565b60016009018190555061318f81601760008673ffffffffffffffffffffffffffffffffffffffff1673ffffffffffffffffffffffffffffffffffffffff16815260200190815260200160002054615df290919063ffffffff16565b601760008573ffffffffffffffffffffffffffffffffffffffff1673ffffffffffffffffffffffffffffffffffffffff168152602001908152602001600020819055508273ffffffffffffffffffffffffffffffffffffffff167f000000000000000000000000000000000000000000000000000000000000000073ffffffffffffffffffffffffffffffffffffffff167ff6290eed3ed9d2add25153332b8efd496643990cc139aa19b27fd52763cd957783601760008873ffffffffffffffffffffffffffffffffffffffff1673ffffffffffffffffffffffffffffffffffffffff16815260200190815260200160002054604051613290929190617569565b60405180910390a3505050565b600082600f60008273ffffffffffffffffffffffffffffffffffffffff1673ffffffffffffffffffffffffffffffffffffffff16815260200190815260200160002060009054906101000a900460ff16806133415750601060008273ffffffffffffffffffffffffffffffffffffffff1673ffffffffffffffffffffffffffffffffffffffff16815260200190815260200160002060009054906101000a900460ff165b806133955750601160008273ffffffffffffffffffffffffffffffffffffffff1673ffffffffffffffffffffffffffffffffffffffff16815260200190815260200160002060009054906101000a900460ff165b6133d4576040517f08c379a00000000000000000000000000000000000000000000000000000000081526004016133cb906174e9565b60405180910390fd5b60006133e0858561495e565b90506134406134177f0000000000000000000000000000000000000000000000000000000000000000670de0b6b3a764000061495e565b613432670de0b6b3a764000084615e1e90919063ffffffff16565b615e3490919063ffffffff16565b9250505092915050565b80601860008573ffffffffffffffffffffffffffffffffffffffff1673ffffffffffffffffffffffffffffffffffffffff16815260200190815260200160002054101561349657600080fd5b7f000000000000000000000000000000000000000000000000000000000000000073ffffffffffffffffffffffffffffffffffffffff166379cc679083836040518363ffffffff1660e01b81526004016134f19291906171d1565b600060405180830381600087803b15801561350b57600080fd5b505af115801561351f573d6000803e3d6000fd5b5050505061353b816001600a0154615df290919063ffffffff16565b6001600a018190555061359681601860008673ffffffffffffffffffffffffffffffffffffffff1673ffffffffffffffffffffffffffffffffffffffff16815260200190815260200160002054615df290919063ffffffff16565b601860008573ffffffffffffffffffffffffffffffffffffffff1673ffffffffffffffffffffffffffffffffffffffff168152602001908152602001600020819055508273ffffffffffffffffffffffffffffffffffffffff167f000000000000000000000000000000000000000000000000000000000000000073ffffffffffffffffffffffffffffffffffffffff167f824f9999a67a9b9936847acb7ffeefb1614ca68fbea8e6ce3a51aa80e0b24ac583601860008873ffffffffffffffffffffffffffffffffffffffff1673ffffffffffffffffffffffffffffffffffffffff16815260200190815260200160002054604051613697929190617569565b60405180910390a3505050565b600082600f60008273ffffffffffffffffffffffffffffffffffffffff1673ffffffffffffffffffffffffffffffffffffffff16815260200190815260200160002060009054906101000a900460ff16806137485750601060008273ffffffffffffffffffffffffffffffffffffffff1673ffffffffffffffffffffffffffffffffffffffff16815260200190815260200160002060009054906101000a900460ff165b8061379c5750601160008273ffffffffffffffffffffffffffffffffffffffff1673ffffffffffffffffffffffffffffffffffffffff16815260200190815260200160002060009054906101000a900460ff165b6137db576040517f08c379a00000000000000000000000000000000000000000000000000000000081526004016137d2906174e9565b60405180910390fd5b601560003373ffffffffffffffffffffffffffffffffffffffff1673ffffffffffffffffffffffffffffffffffffffff16815260200190815260200160002060009054906101000a900460ff16613867576040517f08c379a000000000000000000000000000000000000000000000000000000000815260040161385e906173a9565b60405180910390fd5b6138943330858773ffffffffffffffffffffffffffffffffffffffff16615f26909392919063ffffffff16565b60006138a0858561495e565b905060006138ae868661329d565b90506138c882600160000154615e0890919063ffffffff16565b6001600001819055508573ffffffffffffffffffffffffffffffffffffffff167fedb8afe4635300f18bd69a3797aec3a2f205a8e9e3dae228c4192478e113edb486848460405161391b93929190617592565b60405180910390a261396333826040518060400160405280600e81526020017f646972656374206465706f7369740000000000000000000000000000000000008152506157d1565b80935050505092915050565b7f000000000000000000000000000000000000000000000000000000000000000081565b60156020528060005260406000206000915054906101000a900460ff1681565b600f6020528060005260406000206000915054906101000a900460ff1681565b7f000000000000000000000000000000000000000000000000000000000000000081565b60106020528060005260406000206000915054906101000a900460ff1681565b60166020528060005260406000206000915054906101000a900460ff1681565b613a3f615e4a565b73ffffffffffffffffffffffffffffffffffffffff16613a5d614390565b73ffffffffffffffffffffffffffffffffffffffff1614613ab3576040517f08c379a0000000000000000000000000000000000000000000000000000000008152600401613aaa90617409565b60405180910390fd5b7f000000000000000000000000000000000000000000000000000000000000000073ffffffffffffffffffffffffffffffffffffffff166340c10f1983836040518363ffffffff1660e01b8152600401613b0e9291906171d1565b600060405180830381600087803b158015613b2857600080fd5b505af1158015613b3c573d6000803e3d6000fd5b50505050613b58816001600a0154615e0890919063ffffffff16565b6001600a0181905550613bb381601860008573ffffffffffffffffffffffffffffffffffffffff1673ffffffffffffffffffffffffffffffffffffffff16815260200190815260200160002054615e0890919063ffffffff16565b601860008473ffffffffffffffffffffffffffffffffffffffff1673ffffffffffffffffffffffffffffffffffffffff168152602001908152602001600020819055508173ffffffffffffffffffffffffffffffffffffffff167f000000000000000000000000000000000000000000000000000000000000000073ffffffffffffffffffffffffffffffffffffffff167fb05fa3a90a585041324d05cbab7053cc3cc46f6e7b5cb485434dd358fb6d66e783601860008773ffffffffffffffffffffffffffffffffffffffff1673ffffffffffffffffffffffffffffffffffffffff16815260200190815260200160002054604051613cb4929190617569565b60405180910390a35050565b60176020528060005260406000206000915090505481565b60186020528060005260406000206000915090505481565b613cf8615e4a565b73ffffffffffffffffffffffffffffffffffffffff16613d16614390565b73ffffffffffffffffffffffffffffffffffffffff1614613d6c576040517f08c379a0000000000000000000000000000000000000000000000000000000008152600401613d6390617409565b60405180910390fd5b80601560008473ffffffffffffffffffffffffffffffffffffffff1673ffffffffffffffffffffffffffffffffffffffff16815260200190815260200160002060006101000a81548160ff0219169083151502179055507fcf94e9757bbb5658073781ab4043a6e7c4de9b01ee266881ee00920da16bc74e8282604051613df492919061717f565b60405180910390a15050565b613e08615e4a565b73ffffffffffffffffffffffffffffffffffffffff16613e26614390565b73ffffffffffffffffffffffffffffffffffffffff1614613e7c576040517f08c379a0000000000000000000000000000000000000000000000000000000008152600401613e7390617409565b60405180910390fd5b613e866000615faf565b565b60196020528060005260406000206000915090508060000160009054906101000a900473ffffffffffffffffffffffffffffffffffffffff16908060010160009054906101000a900473ffffffffffffffffffffffffffffffffffffffff16905082565b80601860008473ffffffffffffffffffffffffffffffffffffffff1673ffffffffffffffffffffffffffffffffffffffff168152602001908152602001600020541015613f3857600080fd5b7f000000000000000000000000000000000000000000000000000000000000000073ffffffffffffffffffffffffffffffffffffffff166379cc679083836040518363ffffffff1660e01b8152600401613f939291906171d1565b600060405180830381600087803b158015613fad57600080fd5b505af1158015613fc1573d6000803e3d6000fd5b50505050613fdd816001600a0154615df290919063ffffffff16565b6001600a018190555061403881601860008573ffffffffffffffffffffffffffffffffffffffff1673ffffffffffffffffffffffffffffffffffffffff16815260200190815260200160002054615df290919063ffffffff16565b601860008473ffffffffffffffffffffffffffffffffffffffff1673ffffffffffffffffffffffffffffffffffffffff168152602001908152602001600020819055508173ffffffffffffffffffffffffffffffffffffffff167f000000000000000000000000000000000000000000000000000000000000000073ffffffffffffffffffffffffffffffffffffffff167f824f9999a67a9b9936847acb7ffeefb1614ca68fbea8e6ce3a51aa80e0b24ac583601860008773ffffffffffffffffffffffffffffffffffffffff1673ffffffffffffffffffffffffffffffffffffffff16815260200190815260200160002054604051614139929190617569565b60405180910390a35050565b601660003373ffffffffffffffffffffffffffffffffffffffff1673ffffffffffffffffffffffffffffffffffffffff16815260200190815260200160002060009054906101000a900460ff166141d1576040517f08c379a00000000000000000000000000000000000000000000000000000000081526004016141c8906174c9565b60405180910390fd5b60006141dd848461495e565b905060006141eb858561329d565b90507f000000000000000000000000000000000000000000000000000000000000000073ffffffffffffffffffffffffffffffffffffffff166379cc679030836040518363ffffffff1660e01b81526004016142489291906171d1565b600060405180830381600087803b15801561426257600080fd5b505af1158015614276573d6000803e3d6000fd5b5050505061429282600160060154615df290919063ffffffff16565b600160060181905550600f60008673ffffffffffffffffffffffffffffffffffffffff1673ffffffffffffffffffffffffffffffffffffffff16815260200190815260200160002060009054906101000a900460ff16156143135761430582600160070154615e0890919063ffffffff16565b600160070181905550614335565b61432b82600160080154615e0890919063ffffffff16565b6001600801819055505b8473ffffffffffffffffffffffffffffffffffffffff167fb9f4b7239b9a98f1b1bb097407db726f3f37481c1ab55c0608cd7131387d1a8c8584848760405161438194939291906175c9565b60405180910390a25050505050565b60008060009054906101000a900473ffffffffffffffffffffffffffffffffffffffff16905090565b600d81815481106143c957600080fd5b90600052602060002090600302016000915090508060000160009054906101000a900473ffffffffffffffffffffffffffffffffffffffff16908060010154908060020154905083565b61441b616304565b60016040518061016001604052908160008201548152602001600182015481526020016002820154815260200160038201548152602001600482015481526020016005820154815260200160068201548152602001600782015481526020016008820154815260200160098201548152602001600a82015481525050905090565b60146020528060005260406000206000915054906101000a900460ff1681565b7f000000000000000000000000000000000000000000000000000000000000000081565b6144e8615e4a565b73ffffffffffffffffffffffffffffffffffffffff16614506614390565b73ffffffffffffffffffffffffffffffffffffffff161461455c576040517f08c379a000000000000000000000000000000000000000000000000000000000815260040161455390617409565b60405180910390fd5b80601660008473ffffffffffffffffffffffffffffffffffffffff1673ffffffffffffffffffffffffffffffffffffffff16815260200190815260200160002060006101000a81548160ff0219169083151502179055507fbf9060ea8471bf69f47f2ac5dc98bb74593d00ed41eed8df1d2dfdffbdc3679682826040516145e492919061717f565b60405180910390a15050565b8133601360008373ffffffffffffffffffffffffffffffffffffffff1673ffffffffffffffffffffffffffffffffffffffff16815260200190815260200160002060009054906101000a900460ff1661467e576040517f08c379a000000000000000000000000000000000000000000000000000000000815260040161467590617329565b60405180910390fd5b8173ffffffffffffffffffffffffffffffffffffffff166375cd51ed826040518263ffffffff1660e01b81526004016146b79190617104565b60206040518083038186803b1580156146cf57600080fd5b505afa1580156146e3573d6000803e3d6000fd5b505050506040513d601f19601f820116820180604052508101906147079190616701565b614746576040517f08c379a000000000000000000000000000000000000000000000000000000000815260040161473d906173e9565b60405180910390fd5b8373ffffffffffffffffffffffffffffffffffffffff1663fb01508d6040518163ffffffff1660e01b8152600401600060405180830381600087803b15801561478e57600080fd5b505af11580156147a2573d6000803e3d6000fd5b505050508373ffffffffffffffffffffffffffffffffffffffff16633b4abb0a336040518263ffffffff1660e01b81526004016147df9190617104565b600060405180830381600087803b1580156147f957600080fd5b505af115801561480d573d6000803e3d6000fd5b5050505061485e8433857f000000000000000000000000000000000000000000000000000000000000000073ffffffffffffffffffffffffffffffffffffffff16615f26909392919063ffffffff16565b7f000000000000000000000000000000000000000000000000000000000000000073ffffffffffffffffffffffffffffffffffffffff166379cc679033856040518363ffffffff1660e01b81526004016148b99291906171d1565b600060405180830381600087803b1580156148d357600080fd5b505af11580156148e7573d6000803e3d6000fd5b505050508373ffffffffffffffffffffffffffffffffffffffff16637f5bdecd33856040518363ffffffff1660e01b81526004016149269291906171d1565b600060405180830381600087803b15801561494057600080fd5b505af1158015614954573d6000803e3d6000fd5b5050505050505050565b6000600f60008473ffffffffffffffffffffffffffffffffffffffff1673ffffffffffffffffffffffffffffffffffffffff16815260200190815260200160002060009054906101000a900460ff16156149ba57819050614e00565b6000601960008573ffffffffffffffffffffffffffffffffffffffff1673ffffffffffffffffffffffffffffffffffffffff16815260200190815260200160002060010160009054906101000a900473ffffffffffffffffffffffffffffffffffffffff169050601060008573ffffffffffffffffffffffffffffffffffffffff1673ffffffffffffffffffffffffffffffffffffffff16815260200190815260200160002060009054906101000a900460ff1615614b6a57601960008573ffffffffffffffffffffffffffffffffffffffff1673ffffffffffffffffffffffffffffffffffffffff16815260200190815260200160002060000160009054906101000a900473ffffffffffffffffffffffffffffffffffffffff1673ffffffffffffffffffffffffffffffffffffffff1663638156d08583866040518463ffffffff1660e01b8152600401614b1293929190617148565b60206040518083038186803b158015614b2a57600080fd5b505afa158015614b3e573d6000803e3d6000fd5b505050506040513d601f19601f82011682018060405250810190614b62919061681b565b915050614e00565b601160008573ffffffffffffffffffffffffffffffffffffffff1673ffffffffffffffffffffffffffffffffffffffff16815260200190815260200160002060009054906101000a900460ff1615614dfa57601260008573ffffffffffffffffffffffffffffffffffffffff1673ffffffffffffffffffffffffffffffffffffffff16815260200190815260200160002060009054906101000a900460ff1615614d0557601960008573ffffffffffffffffffffffffffffffffffffffff1673ffffffffffffffffffffffffffffffffffffffff16815260200190815260200160002060000160009054906101000a900473ffffffffffffffffffffffffffffffffffffffff1673ffffffffffffffffffffffffffffffffffffffff1663e676a5258583866040518463ffffffff1660e01b8152600401614cad93929190617148565b60206040518083038186803b158015614cc557600080fd5b505afa158015614cd9573d6000803e3d6000fd5b505050506040513d601f19601f82011682018060405250810190614cfd919061681b565b915050614e00565b601960008573ffffffffffffffffffffffffffffffffffffffff1673ffffffffffffffffffffffffffffffffffffffff16815260200190815260200160002060000160009054906101000a900473ffffffffffffffffffffffffffffffffffffffff1673ffffffffffffffffffffffffffffffffffffffff166337216de685856040518363ffffffff1660e01b8152600401614da29291906171d1565b60206040518083038186803b158015614dba57600080fd5b505afa158015614dce573d6000803e3d6000fd5b505050506040513d601f19601f82011682018060405250810190614df2919061681b565b915050614e00565b60009150505b92915050565b614e0e615e4a565b73ffffffffffffffffffffffffffffffffffffffff16614e2c614390565b73ffffffffffffffffffffffffffffffffffffffff1614614e82576040517f08c379a0000000000000000000000000000000000000000000000000000000008152600401614e7990617409565b60405180910390fd5b811561503d57601360008273ffffffffffffffffffffffffffffffffffffffff1673ffffffffffffffffffffffffffffffffffffffff16815260200190815260200160002060009054906101000a900460ff1615614f15576040517f08c379a0000000000000000000000000000000000000000000000000000000008152600401614f0c90617309565b60405180910390fd5b6001601360008373ffffffffffffffffffffffffffffffffffffffff1673ffffffffffffffffffffffffffffffffffffffff16815260200190815260200160002060006101000a81548160ff021916908315150217905550614f78601e82615e52565b614fe057601e819080600181540180825580915050600190039060005260206000200160009091909190916101000a81548173ffffffffffffffffffffffffffffffffffffffff021916908373ffffffffffffffffffffffffffffffffffffffff1602179055505b6001601660008373ffffffffffffffffffffffffffffffffffffffff1673ffffffffffffffffffffffffffffffffffffffff16815260200190815260200160002060006101000a81548160ff021916908315150217905550615171565b601360008273ffffffffffffffffffffffffffffffffffffffff1673ffffffffffffffffffffffffffffffffffffffff16815260200190815260200160002060009054906101000a900460ff166150c9576040517f08c379a00000000000000000000000000000000000000000000000000000000081526004016150c090617369565b60405180910390fd5b601360008273ffffffffffffffffffffffffffffffffffffffff1673ffffffffffffffffffffffffffffffffffffffff16815260200190815260200160002060006101000a81549060ff02191690556000601660008373ffffffffffffffffffffffffffffffffffffffff1673ffffffffffffffffffffffffffffffffffffffff16815260200190815260200160002060006101000a81548160ff0219169083151502179055505b8073ffffffffffffffffffffffffffffffffffffffff167f86ddbb962e85f6c5d739cd61731d7ec6062593767596250a59f303050455899d836040516151b791906172ac565b60405180910390a25050565b601360008473ffffffffffffffffffffffffffffffffffffffff1673ffffffffffffffffffffffffffffffffffffffff16815260200190815260200160002060009054906101000a900460ff1661524f576040517f08c379a000000000000000000000000000000000000000000000000000000000815260040161524690617329565b60405180910390fd5b8273ffffffffffffffffffffffffffffffffffffffff16631619cf3a33836040518363ffffffff1660e01b815260040161528a9291906171a8565b600060405180830381600087803b1580156152a457600080fd5b505af11580156152b8573d6000803e3d6000fd5b505050508273ffffffffffffffffffffffffffffffffffffffff1663fb01508d6040518163ffffffff1660e01b8152600401600060405180830381600087803b15801561530457600080fd5b505af1158015615318573d6000803e3d6000fd5b505050508273ffffffffffffffffffffffffffffffffffffffff16633b4abb0a336040518263ffffffff1660e01b81526004016153559190617104565b600060405180830381600087803b15801561536f57600080fd5b505af1158015615383573d6000803e3d6000fd5b505050506153d43384847f000000000000000000000000000000000000000000000000000000000000000073ffffffffffffffffffffffffffffffffffffffff16615f26909392919063ffffffff16565b7f000000000000000000000000000000000000000000000000000000000000000073ffffffffffffffffffffffffffffffffffffffff166340c10f1933846040518363ffffffff1660e01b815260040161542f9291906171d1565b600060405180830381600087803b15801561544957600080fd5b505af115801561545d573d6000803e3d6000fd5b505050508273ffffffffffffffffffffffffffffffffffffffff1663ffb1738033846040518363ffffffff1660e01b815260040161549c9291906171d1565b600060405180830381600087803b1580156154b657600080fd5b505af11580156154ca573d6000803e3d6000fd5b50505050505050565b6154db615e4a565b73ffffffffffffffffffffffffffffffffffffffff166154f9614390565b73ffffffffffffffffffffffffffffffffffffffff161461554f576040517f08c379a000000000000000000000000000000000000000000000000000000000815260040161554690617409565b60405180910390fd5b60128173ffffffffffffffffffffffffffffffffffffffff1663313ce5676040518163ffffffff1660e01b815260040160206040518083038186803b15801561559757600080fd5b505afa1580156155ab573d6000803e3d6000fd5b505050506040513d601f19601f820116820180604052508101906155cf9190616880565b60ff1614615612576040517f08c379a0000000000000000000000000000000000000000000000000000000008152600401615609906173c9565b60405180910390fd5b81156156e8576001600f60008373ffffffffffffffffffffffffffffffffffffffff1673ffffffffffffffffffffffffffffffffffffffff16815260200190815260200160002060006101000a81548160ff02191690831515021790555061567b601b82615e52565b6156e357601b819080600181540180825580915050600190039060005260206000200160009091909190916101000a81548173ffffffffffffffffffffffffffffffffffffffff021916908373ffffffffffffffffffffffffffffffffffffffff1602179055505b6157cd565b600f60008273ffffffffffffffffffffffffffffffffffffffff1673ffffffffffffffffffffffffffffffffffffffff16815260200190815260200160002060009054906101000a900460ff16615774576040517f08c379a000000000000000000000000000000000000000000000000000000000815260040161576b90617349565b60405180910390fd5b6000600f60008373ffffffffffffffffffffffffffffffffffffffff1673ffffffffffffffffffffffffffffffffffffffff16815260200190815260200160002060006101000a81548160ff0219169083151502179055505b5050565b601660003373ffffffffffffffffffffffffffffffffffffffff1673ffffffffffffffffffffffffffffffffffffffff16815260200190815260200160002060009054906101000a900460ff1661585d576040517f08c379a0000000000000000000000000000000000000000000000000000000008152600401615854906174c9565b60405180910390fd5b6000615869848461495e565b90506000615877858561329d565b90507f000000000000000000000000000000000000000000000000000000000000000073ffffffffffffffffffffffffffffffffffffffff166340c10f1930836040518363ffffffff1660e01b81526004016158d49291906171d1565b600060405180830381600087803b1580156158ee57600080fd5b505af1158015615902573d6000803e3d6000fd5b5050505061591e82600160030154615e0890919063ffffffff16565b600160030181905550600f60008673ffffffffffffffffffffffffffffffffffffffff1673ffffffffffffffffffffffffffffffffffffffff16815260200190815260200160002060009054906101000a900460ff161561599f5761599182600160040154615e0890919063ffffffff16565b6001600401819055506159c1565b6159b782600160050154615e0890919063ffffffff16565b6001600501819055505b8473ffffffffffffffffffffffffffffffffffffffff167f926c2d7742d92e39ee1d06f11a9ddfee4391e8b5db6b0c5c9c15df3de8d6af0085848487604051615a0d94939291906175c9565b60405180910390a2600060019050615a258282610ddd565b505050505050565b615a35615e4a565b73ffffffffffffffffffffffffffffffffffffffff16615a53614390565b73ffffffffffffffffffffffffffffffffffffffff1614615aa9576040517f08c379a0000000000000000000000000000000000000000000000000000000008152600401615aa090617409565b60405180910390fd5b600073ffffffffffffffffffffffffffffffffffffffff168173ffffffffffffffffffffffffffffffffffffffff161415615b19576040517f08c379a0000000000000000000000000000000000000000000000000000000008152600401615b10906172e9565b60405180910390fd5b615b2281615faf565b50565b615b2d615e4a565b73ffffffffffffffffffffffffffffffffffffffff16615b4b614390565b73ffffffffffffffffffffffffffffffffffffffff1614615ba1576040517f08c379a0000000000000000000000000000000000000000000000000000000008152600401615b9890617409565b60405180910390fd5b7f000000000000000000000000000000000000000000000000000000000000000073ffffffffffffffffffffffffffffffffffffffff166340c10f1983836040518363ffffffff1660e01b8152600401615bfc9291906171d1565b600060405180830381600087803b158015615c1657600080fd5b505af1158015615c2a573d6000803e3d6000fd5b50505050615c4681600160090154615e0890919063ffffffff16565b600160090181905550615ca181601760008573ffffffffffffffffffffffffffffffffffffffff1673ffffffffffffffffffffffffffffffffffffffff16815260200190815260200160002054615e0890919063ffffffff16565b601760008473ffffffffffffffffffffffffffffffffffffffff1673ffffffffffffffffffffffffffffffffffffffff168152602001908152602001600020819055508173ffffffffffffffffffffffffffffffffffffffff167f000000000000000000000000000000000000000000000000000000000000000073ffffffffffffffffffffffffffffffffffffffff167f4818b92ef195c8580e3cd08d9f47d50913f1a9aa6d4e4b8570d6861fa4ab2e6483601760008773ffffffffffffffffffffffffffffffffffffffff1673ffffffffffffffffffffffffffffffffffffffff16815260200190815260200160002054604051615da2929190617569565b60405180910390a35050565b600e6020528060005260406000206000915090508060000160009054906101000a900473ffffffffffffffffffffffffffffffffffffffff16908060010154905082565b60008183615e009190617829565b905092915050565b60008183615e16919061770e565b905092915050565b60008183615e2c91906177cf565b905092915050565b60008183615e42919061779e565b905092915050565b600033905090565b600080600090505b8380549050811015615f1a578273ffffffffffffffffffffffffffffffffffffffff16848281548110615eb6577f4e487b7100000000000000000000000000000000000000000000000000000000600052603260045260246000fd5b9060005260206000200160009054906101000a900473ffffffffffffffffffffffffffffffffffffffff1673ffffffffffffffffffffffffffffffffffffffff161415615f07576001915050615f20565b8080615f1290617970565b915050615e5a565b50600090505b92915050565b615fa9846323b872dd60e01b858585604051602401615f4793929190617148565b604051602081830303815290604052907bffffffffffffffffffffffffffffffffffffffffffffffffffffffff19166020820180517bffffffffffffffffffffffffffffffffffffffffffffffffffffffff8381831617835250505050616073565b50505050565b60008060009054906101000a900473ffffffffffffffffffffffffffffffffffffffff169050816000806101000a81548173ffffffffffffffffffffffffffffffffffffffff021916908373ffffffffffffffffffffffffffffffffffffffff1602179055508173ffffffffffffffffffffffffffffffffffffffff168173ffffffffffffffffffffffffffffffffffffffff167f8be0079c531659141344cd1fd0a4f28419497f9722a3daafe3b4186f6b6457e060405160405180910390a35050565b60006160d5826040518060400160405280602081526020017f5361666545524332303a206c6f772d6c6576656c2063616c6c206661696c65648152508573ffffffffffffffffffffffffffffffffffffffff1661613a9092919063ffffffff16565b905060008151111561613557808060200190518101906160f59190616701565b616134576040517f08c379a000000000000000000000000000000000000000000000000000000000815260040161612b90617469565b60405180910390fd5b5b505050565b60606161498484600085616152565b90509392505050565b606082471015616197576040517f08c379a000000000000000000000000000000000000000000000000000000000815260040161618e90617389565b60405180910390fd5b6161a085616266565b6161df576040517f08c379a00000000000000000000000000000000000000000000000000000000081526004016161d690617429565b60405180910390fd5b6000808673ffffffffffffffffffffffffffffffffffffffff16858760405161620891906170ed565b60006040518083038185875af1925050503d8060008114616245576040519150601f19603f3d011682016040523d82523d6000602084013e61624a565b606091505b509150915061625a828286616279565b92505050949350505050565b600080823b905060008111915050919050565b60608315616289578290506162d9565b60008351111561629c5782518084602001fd5b816040517f08c379a00000000000000000000000000000000000000000000000000000000081526004016162d091906172c7565b60405180910390fd5b9392505050565b5080546000825560030290600052602060002090810190616301919061635e565b50565b60405180610160016040528060008152602001600081526020016000815260200160008152602001600081526020016000815260200160008152602001600081526020016000815260200160008152602001600081525090565b5b808211156163a857600080820160006101000a81549073ffffffffffffffffffffffffffffffffffffffff0219169055600182016000905560028201600090555060030161635f565b5090565b60006163bf6163ba84617646565b617615565b9050828152602081018484840111156163d757600080fd5b6163e28482856178fa565b509392505050565b6000813590506163f981617a64565b92915050565b60008135905061640e81617a7b565b92915050565b60008151905061642381617a7b565b92915050565b600082601f83011261643a57600080fd5b813561644a8482602086016163ac565b91505092915050565b60008135905061646281617a92565b92915050565b60008151905061647781617a92565b92915050565b60008135905061648c81617aa9565b92915050565b6000815190506164a181617aa9565b92915050565b6000815190506164b681617ac0565b92915050565b6000602082840312156164ce57600080fd5b60006164dc848285016163ea565b91505092915050565b6000806000606084860312156164fa57600080fd5b6000616508868287016163ea565b9350506020616519868287016163ea565b925050604061652a8682870161647d565b9150509250925092565b6000806000806080858703121561654a57600080fd5b6000616558878288016163ea565b9450506020616569878288016163ea565b935050604061657a8782880161647d565b925050606061658b878288016163ff565b91505092959194509250565b600080604083850312156165aa57600080fd5b60006165b8858286016163ea565b92505060206165c9858286016163ff565b9150509250929050565b600080604083850312156165e657600080fd5b60006165f4858286016163ea565b925050602061660585828601616453565b9150509250929050565b6000806040838503121561662257600080fd5b6000616630858286016163ea565b92505060206166418582860161647d565b9150509250929050565b60008060006060848603121561666057600080fd5b600061666e868287016163ea565b935050602061667f8682870161647d565b925050604084013567ffffffffffffffff81111561669c57600080fd5b6166a886828701616429565b9150509250925092565b6000806000606084860312156166c757600080fd5b60006166d5868287016163ea565b93505060206166e68682870161647d565b92505060406166f786828701616453565b9150509250925092565b60006020828403121561671357600080fd5b600061672184828501616414565b91505092915050565b6000806040838503121561673d57600080fd5b600061674b858286016163ff565b925050602061675c858286016163ea565b9150509250929050565b6000806000806080858703121561677c57600080fd5b600061678a878288016163ff565b945050602061679b878288016163ea565b93505060406167ac878288016163ea565b92505060606167bd878288016163ea565b91505092959194509250565b6000602082840312156167db57600080fd5b60006167e984828501616468565b91505092915050565b60006020828403121561680457600080fd5b60006168128482850161647d565b91505092915050565b60006020828403121561682d57600080fd5b600061683b84828501616492565b91505092915050565b6000806040838503121561685757600080fd5b60006168658582860161647d565b9250506020616876858286016163ff565b9150509250929050565b60006020828403121561689257600080fd5b60006168a0848285016164a7565b91505092915050565b60006168b5838361700a565b60608301905092915050565b60006168cd838361704c565b60608301905092915050565b6168e281617887565b82525050565b6168f181617887565b82525050565b60006169028261769b565b61690c81856176e1565b935061691783617676565b8060005b8381101561694857815161692f88826168a9565b975061693a836176c7565b92505060018101905061691b565b5085935050505092915050565b6000616960826176a6565b61696a81856176e1565b935061697583617686565b8060005b838110156169a5578161698c88826168c1565b9750616997836176d4565b925050600181019050616979565b5085935050505092915050565b6169bb81617899565b82525050565b60006169cc826176b1565b6169d681856176f2565b93506169e6818560208601617909565b80840191505092915050565b60006169fd826176bc565b616a0781856176fd565b9350616a17818560208601617909565b616a2081617a46565b840191505092915050565b6000616a386026836176fd565b91507f4f776e61626c653a206e6577206f776e657220697320746865207a65726f206160008301527f64647265737300000000000000000000000000000000000000000000000000006020830152604082019050919050565b6000616a9e6012836176fd565b91507f616c7265616479207265676973746572656400000000000000000000000000006000830152602082019050919050565b6000616ade6016836176fd565b91507f4e6f742061207374616b696e6720636f6e7472616374000000000000000000006000830152602082019050919050565b6000616b1e601d836176fd565b91507f6e6f742061207265676973746572656420737461626c6520746f6b656e0000006000830152602082019050919050565b6000616b5e601e836176fd565b91507f636f6e7472616374206e6f7420666f756e64206f6e20726567697374727900006000830152602082019050919050565b6000616b9e6026836176fd565b91507f416464726573733a20696e73756666696369656e742062616c616e636520666f60008301527f722063616c6c00000000000000000000000000000000000000000000000000006020830152604082019050919050565b6000616c04601b836176fd565b91507f4e6f7420616e20617574686f72697a6564206465706f7369746f7200000000006000830152602082019050919050565b6000616c446032836176fd565b91507f74726561737572792063616e206f6e6c79206465616c2077697468204552433260008301527f30207769746820313820646563696d616c7300000000000000000000000000006020830152604082019050919050565b6000616caa6025836176fd565b91507f4e6f742061207374616b6572206f6e2074686973207374616b696e6720636f6e60008301527f74726163740000000000000000000000000000000000000000000000000000006020830152604082019050919050565b6000616d106020836176fd565b91507f4f776e61626c653a2063616c6c6572206973206e6f7420746865206f776e65726000830152602082019050919050565b6000616d50601d836176fd565b91507f416464726573733a2063616c6c20746f206e6f6e2d636f6e74726163740000006000830152602082019050919050565b6000616d90601f836176fd565b91507f6e6f742061207265676973746572656420666c6f6174696e6720746f6b656e006000830152602082019050919050565b6000616dd0602a836176fd565b91507f5361666545524332303a204552433230206f7065726174696f6e20646964206e60008301527f6f742073756363656564000000000000000000000000000000000000000000006020830152604082019050919050565b6000616e366019836176fd565b91507f6e6f7420612072656769737465726564204c5020746f6b656e000000000000006000830152602082019050919050565b6000616e76601b836176fd565b91507f4e6f742066726f6d2061207374616b696e6720636f6e747261637400000000006000830152602082019050919050565b6000616eb6600e836176fd565b91507f4e6f7420617574686f72697a65640000000000000000000000000000000000006000830152602082019050919050565b6000616ef6600c836176fd565b91507f4e6f7420616363657074656400000000000000000000000000000000000000006000830152602082019050919050565b61016082016000820151616f4060008501826170c0565b506020820151616f5360208501826170c0565b506040820151616f6660408501826170c0565b506060820151616f7960608501826170c0565b506080820151616f8c60808501826170c0565b5060a0820151616f9f60a08501826170c0565b5060c0820151616fb260c08501826170c0565b5060e0820151616fc560e08501826170c0565b50610100820151616fda6101008501826170c0565b50610120820151616fef6101208501826170c0565b506101408201516170046101408501826170c0565b50505050565b60608201600082015161702060008501826168d9565b50602082015161703360208501826170c0565b50604082015161704660408501826170c0565b50505050565b6060820160008083015490506170618161793c565b61706e60008601826168d9565b506001830154905061707f81617956565b61708c60208601826170c0565b506002830154905061709d81617956565b6170aa60408601826170c0565b5050505050565b6170ba816178a5565b82525050565b6170c9816178d3565b82525050565b6170d8816178d3565b82525050565b6170e7816178ed565b82525050565b60006170f982846169c1565b915081905092915050565b600060208201905061711960008301846168e8565b92915050565b600060408201905061713460008301856168e8565b61714160208301846168e8565b9392505050565b600060608201905061715d60008301866168e8565b61716a60208301856168e8565b61717760408301846170cf565b949350505050565b600060408201905061719460008301856168e8565b6171a160208301846169b2565b9392505050565b60006040820190506171bd60008301856168e8565b6171ca60208301846170b1565b9392505050565b60006040820190506171e660008301856168e8565b6171f360208301846170cf565b9392505050565b600060608201905061720f60008301866168e8565b61721c60208301856170cf565b61722960408301846170cf565b949350505050565b600060608201905061724660008301866168e8565b61725360208301856170de565b61726060408301846170b1565b949350505050565b6000602082019050818103600083015261728281846168f7565b905092915050565b600060208201905081810360008301526172a48184616955565b905092915050565b60006020820190506172c160008301846169b2565b92915050565b600060208201905081810360008301526172e181846169f2565b905092915050565b6000602082019050818103600083015261730281616a2b565b9050919050565b6000602082019050818103600083015261732281616a91565b9050919050565b6000602082019050818103600083015261734281616ad1565b9050919050565b6000602082019050818103600083015261736281616b11565b9050919050565b6000602082019050818103600083015261738281616b51565b9050919050565b600060208201905081810360008301526173a281616b91565b9050919050565b600060208201905081810360008301526173c281616bf7565b9050919050565b600060208201905081810360008301526173e281616c37565b9050919050565b6000602082019050818103600083015261740281616c9d565b9050919050565b6000602082019050818103600083015261742281616d03565b9050919050565b6000602082019050818103600083015261744281616d43565b9050919050565b6000602082019050818103600083015261746281616d83565b9050919050565b6000602082019050818103600083015261748281616dc3565b9050919050565b600060208201905081810360008301526174a281616e29565b9050919050565b600060208201905081810360008301526174c281616e69565b9050919050565b600060208201905081810360008301526174e281616ea9565b9050919050565b6000602082019050818103600083015261750281616ee9565b9050919050565b60006101608201905061751f6000830184616f29565b92915050565b600060208201905061753a60008301846170cf565b92915050565b600060408201905061755560008301856170cf565b61756260208301846169b2565b9392505050565b600060408201905061757e60008301856170cf565b61758b60208301846170cf565b9392505050565b60006060820190506175a760008301866170cf565b6175b460208301856170cf565b6175c160408301846170cf565b949350505050565b60006080820190506175de60008301876170cf565b6175eb60208301866170cf565b6175f860408301856170cf565b818103606083015261760a81846169f2565b905095945050505050565b6000604051905081810181811067ffffffffffffffff8211171561763c5761763b617a17565b5b8060405250919050565b600067ffffffffffffffff82111561766157617660617a17565b5b601f19601f8301169050602081019050919050565b6000819050602082019050919050565b60008190508160005260206000209050919050565b600081519050919050565b600081549050919050565b600081519050919050565b600081519050919050565b6000602082019050919050565b6000600382019050919050565b600082825260208201905092915050565b600081905092915050565b600082825260208201905092915050565b6000617719826178d3565b9150617724836178d3565b9250827fffffffffffffffffffffffffffffffffffffffffffffffffffffffffffffffff03821115617759576177586179b9565b5b828201905092915050565b600061776f826178dd565b915061777a836178dd565b92508263ffffffff03821115617793576177926179b9565b5b828201905092915050565b60006177a9826178d3565b91506177b4836178d3565b9250826177c4576177c36179e8565b5b828204905092915050565b60006177da826178d3565b91506177e5836178d3565b9250817fffffffffffffffffffffffffffffffffffffffffffffffffffffffffffffffff048311821515161561781e5761781d6179b9565b5b828202905092915050565b6000617834826178d3565b915061783f836178d3565b925082821015617852576178516179b9565b5b828203905092915050565b600073ffffffffffffffffffffffffffffffffffffffff82169050919050565b6000819050919050565b6000617892826178b3565b9050919050565b60008115159050919050565b600061ffff82169050919050565b600073ffffffffffffffffffffffffffffffffffffffff82169050919050565b6000819050919050565b600063ffffffff82169050919050565b600060ff82169050919050565b82818337600083830152505050565b60005b8381101561792757808201518184015260208101905061790c565b83811115617936576000848401525b50505050565b600061794f61794a83617a57565b61785d565b9050919050565b600061796961796483617a57565b61787d565b9050919050565b600061797b826178d3565b91507fffffffffffffffffffffffffffffffffffffffffffffffffffffffffffffffff8214156179ae576179ad6179b9565b5b600182019050919050565b7f4e487b7100000000000000000000000000000000000000000000000000000000600052601160045260246000fd5b7f4e487b7100000000000000000000000000000000000000000000000000000000600052601260045260246000fd5b7f4e487b7100000000000000000000000000000000000000000000000000000000600052604160045260246000fd5b6000601f19601f8301169050919050565b60008160001c9050919050565b617a6d81617887565b8114617a7857600080fd5b50565b617a8481617899565b8114617a8f57600080fd5b50565b617a9b816178a5565b8114617aa657600080fd5b50565b617ab2816178d3565b8114617abd57600080fd5b50565b617ac9816178ed565b8114617ad457600080fd5b5056fea26469706673582212206a87ef9663c2a84c7f2f98dae21d4efc3fe5880cede1c61b9c88117c0c9a5f6564736f6c63430008000033",
  "immutableReferences": {
    "3629": [
      {
        "length": 32,
        "start": 2368
      },
      {
        "length": 32,
        "start": 2714
      },
      {
        "length": 32,
        "start": 3698
      },
      {
        "length": 32,
        "start": 4082
      },
      {
        "length": 32,
        "start": 4641
      },
      {
        "length": 32,
        "start": 4961
      },
      {
        "length": 32,
        "start": 11827
      },
      {
        "length": 32,
        "start": 12052
      },
      {
        "length": 32,
        "start": 12136
      },
      {
        "length": 32,
        "start": 12433
      },
      {
        "length": 32,
        "start": 12779
      },
      {
        "length": 32,
        "start": 13290
      },
      {
        "length": 32,
        "start": 14805
      },
      {
        "length": 32,
        "start": 16879
      },
      {
        "length": 32,
        "start": 18457
      },
      {
        "length": 32,
        "start": 21391
      },
      {
        "length": 32,
        "start": 22651
      },
      {
        "length": 32,
        "start": 23459
      },
      {
        "length": 32,
        "start": 23805
      }
    ],
    "3631": [
      {
        "length": 32,
        "start": 13464
      },
      {
        "length": 32,
        "start": 13810
      },
      {
        "length": 32,
        "start": 14705
      },
      {
        "length": 32,
        "start": 15029
      },
      {
        "length": 32,
        "start": 15375
      },
      {
        "length": 32,
        "start": 16186
      },
      {
        "length": 32,
        "start": 16532
      }
    ],
    "3633": [
      {
        "length": 32,
        "start": 11898
      },
      {
        "length": 32,
        "start": 12207
      },
      {
        "length": 32,
        "start": 17598
      },
      {
        "length": 32,
        "start": 18528
      },
      {
        "length": 32,
        "start": 21462
      }
    ]
  },
  "source": "// SPDX-License-Identifier: AGPL-3.0-or-later\npragma solidity 0.8.0;\n\nimport \"@openzeppelin/contracts/token/ERC20/ERC20.sol\";\nimport \"@openzeppelin/contracts/token/ERC20/utils/SafeERC20.sol\";\nimport \"@openzeppelin/contracts/utils/math/SafeMath.sol\";\nimport \"@openzeppelin/contracts/access/Ownable.sol\";\nimport \"./util/ERC20Mintable.sol\";\nimport \"./AthertonModels.sol\";\nimport \"./lp/LPInterface.sol\";\n\n\n\ncontract AthertonTreasury is Ownable {\n\n    using SafeMath for uint;\n    using SafeERC20 for IERC20;\n\n    modifier onlyAuthority() { require( isRecordAuthority[msg.sender], \"Not authorized\" ); _; }\n    modifier onlyDirectDepositor() { require( isDirectDepositor[ msg.sender ], \"Not an authorized depositor\" ); _; }\n    modifier isAccepted(address _token) {\n        require( isStableToken[ _token ] || isFloatingToken[ _token ] || isLpToken[ _token ], \"Not accepted\" ); _;\n    }\n    modifier fromStaking() { require( isStakingContract[ msg.sender ], \"Not from a staking contract\" ); _; }\n    modifier isStaker(address _stakingContract, address _account) {\n        require( isStakingContract[ _stakingContract ], \"Not a staking contract\" );\n        require( IStaking(_stakingContract).accountExists(_account), \"Not a staker on this staking contract\" );\n        _;\n    }\n\n    struct TreasuryOwnedErc20 {\n        address token;\n        uint balance;\n        uint value;\n    }\n\n    struct TreasuryOwnedErc721 {\n        address token;\n        uint value;\n    }\n\n    event StakingContractUpdated( address indexed stakingContract,  bool value );\n    event AthertonProfit( address indexed token, uint amount, uint usdValue, uint atherAmount, string details);\n    event AthertonLoss( address indexed token, uint amount, uint usdValue, uint atherAmount, string details);\n    event DividendPaid( address indexed recipient, uint atherAmount, uint usdValue);\n    event DirectDeposit( address indexed token, uint amount, uint usdValue, uint atherAmount );\n    event BondCalulatorChange (address indexed token, address calulator);\n    event ReservesUpdated( uint indexed totalReserves, TreasuryOwnedErc20[] );\n    event ReservesUpdatedErc721( uint indexed totalReserves, address indexed collectionAddress, uint tokenId, bool added, uint estValue);\n    event AuthorityChange( address target, bool value);\n    event DirectDepositorChange( address target, bool value);\n    event IncurUnsecured( address indexed token, address indexed borrower, uint amount, uint balance );\n    event RepayUnsecured( address indexed token, address indexed borrower, uint amount, uint balance );\n    event IncurUnsecuredUSD( address indexed token, address indexed borrower, uint amount, uint balance );\n    event RepayUnsecuredUSD( address indexed token, address indexed borrower, uint amount, uint balance );\n\n    address public immutable ATHER;\n    address public immutable ATHERUSD;\n    address public immutable SATHER;\n\n    struct TreasuryData {\n        uint256 totalReserves; // value of all assets\n        uint256 totalReservesHard; // Risk-free value of all assets\n        uint256 totalReservesSoft; // Risk-free value of all assets\n        uint totalProfit;\n        uint totalProfitHard;\n        uint totalProfitSoft;\n        uint totalLoss;\n        uint totalLossHard;\n        uint totalLossSoft;\n        uint256 totalUnsecured; // Total unsecured ATHER (very highly risky)\n        uint256 totalUnsecuredUSD; // Total unsecured ATHERUSD (very highly risky)\n    }\n    TreasuryData data;\n\n    struct TreasuryController {\n        uint32 reserveUpdateLast;\n        uint32 reserveUpdateInterval;\n        uint8 directDepositPublic;\n    }\n    TreasuryController control;\n\n    TreasuryOwnedErc20[] public erc20Assets;\n    mapping( address => TreasuryOwnedErc721 ) public erc721Assets; // collectionAddress => tokenData\n\n    mapping( address => bool ) public isStableToken; // Stable USD pegged\n    mapping( address => bool ) public isFloatingToken; // Floating\n    mapping( address => bool ) public isLpToken; // mostly Floating/Stable LP Token (e.g. wETH/USDT)\n    mapping( address => bool ) public isComplexLpToken;  // Floating/Floating LP Token (e.g. wETH/wBTC)\n\n    mapping( address => bool ) public isStakingContract;\n    mapping( address => bool ) public isBondingContract;\n\n    mapping( address => bool ) public isDirectDepositor;\n    mapping( address => bool ) public isRecordAuthority; // Able to modify ATHER/SATHER circulation\n\n    mapping( address => uint ) public unsecuredLoans; // No-collateral loans (very highly risky)\n    mapping( address => uint ) public unsecuredLoansUSD; // No-collateral USD loans (very highly risky)\n\n    struct TokenEvaluator { address addr; address pair; }\n    mapping( address => TokenEvaluator ) public evaluator; // value calculator for floating & lp tokens\n\n    struct ProfitShare { address addr; uint8 kind; uint16 percent; } // kind (0=staking, 1=bonding)\n    mapping( address => ProfitShare ) public profitShare;\n\n    address[] stableTokens;\n    address[] floatingTokens;\n    address[] lpTokens;\n    address[] stakingContracts;\n    address[] bondingContracts;\n\n    constructor (\n        address _ATHER,\n        address _ATHERUSD,\n        address _SATHER\n    ) {\n        require( _ATHER != address(0) );\n        ATHER = _ATHER;\n        require( _ATHERUSD != address(0) );\n        ATHERUSD = _ATHERUSD;\n        require( _SATHER != address(0) );\n        SATHER = _SATHER;\n\n        isRecordAuthority[address(this)] = true;\n        isRecordAuthority[msg.sender] = true;\n        isDirectDepositor[msg.sender] = true;\n\n        control = TreasuryController({\n            reserveUpdateLast: 0,\n            reserveUpdateInterval: 60, // every 30 blocks (or by owner)\n            directDepositPublic: 0\n        });\n    }\n\n    /**\n        @notice allow approved address to deposit an asset for ATHER\n        @param _token address\n        @param _amount uint\n     */\n    function deposit( address _token, uint _amount ) external isAccepted(_token) onlyDirectDepositor() returns ( uint ) {\n        IERC20( _token ).safeTransferFrom( msg.sender, address(this), _amount );\n        uint tokenUsdValue = valueOfToken( _token, _amount );\n        uint atherMatched = atherValueOf( _token, _amount );\n        data.totalReserves = data.totalReserves.add( tokenUsdValue );\n        emit DirectDeposit( _token, _amount, tokenUsdValue, atherMatched );\n        recordProfit( msg.sender, atherMatched, \"direct deposit\" );\n        return atherMatched;\n    }\n    function recordProfit( address _token, uint _amount, string memory _details) public onlyAuthority() {\n        uint tokenUsdValue = valueOfToken( _token, _amount );\n        uint atherAmount = atherValueOf( _token, _amount );\n        IERC20Mintable( ATHER ).mint( address(this), atherAmount );\n        data.totalProfit = data.totalProfit.add(tokenUsdValue);\n        if (isStableToken[_token]) { data.totalProfitHard = data.totalProfitHard.add(tokenUsdValue); }\n        else { data.totalProfitSoft = data.totalProfitSoft.add(tokenUsdValue); }\n        emit AthertonProfit( _token, _amount, tokenUsdValue, atherAmount, _details);\n        bool excludeTreasuryHoldings = true;\n        payDividends( atherAmount, excludeTreasuryHoldings );\n    }\n    function recordLoss( address _token, uint _amount, string memory _details) public onlyAuthority() {\n        uint tokenUsdValue = valueOfToken( _token, _amount );\n        uint atherValue = atherValueOf( _token, _amount );\n        IERC20Mintable( ATHER ).burnFrom( address(this), atherValue );\n        data.totalLoss = data.totalLoss.sub(tokenUsdValue);\n        if (isStableToken[_token]) { data.totalLossHard = data.totalLossHard.add(tokenUsdValue); }\n        else { data.totalLossSoft = data.totalLossSoft.add(tokenUsdValue); }\n        emit AthertonLoss( _token, _amount, tokenUsdValue, atherValue, _details);\n    }\n    function payDividends( uint _atherAmount, bool _excludeTreasuryHoldings ) public onlyAuthority() {\n        // Denominator = TreasuryOwndAther + StakingOwned + BondOwned\n        uint totalDividendable = _excludeTreasuryHoldings ? 0 : ERC20( ATHER ).balanceOf(address(this));\n        for( uint i = 0; i < stakingContracts.length; i++ ) {\n            if ( ! isStakingContract[ stakingContracts[ i ] ] ) { continue; }\n            totalDividendable.add( ERC20( ATHER ).balanceOf( stakingContracts[ i ] ) );\n        }\n        uint perAtherDistribute = _atherAmount.mul(1e18).div(totalDividendable); // bump 1e18 for precision\n        for( uint i = 0; i < stakingContracts.length; i++ ) {\n            if ( ! isStakingContract[ stakingContracts[ i ] ] ) { continue; }\n            uint atherBalance = ERC20( ATHER ).balanceOf( stakingContracts[ i ] );\n            uint dividend = atherBalance.mul(perAtherDistribute).div(1e18);\n            IERC20( ATHER ).transfer(stakingContracts[ i ], dividend );\n            IStaking( stakingContracts[ i ] ).updateDistribute( dividend, true );\n        }\n        // TODO: for bonds\n    }\n\n    // Staking\n    function stake( address _stakingContract, uint _amount, uint16 _autoRestake ) external {\n        require( isStakingContract[_stakingContract], \"Not a staking contract\");\n        IStaking(_stakingContract).setAutoRestake( msg.sender, _autoRestake );\n        IStaking(_stakingContract).epochCheck();\n        IStaking(_stakingContract).rebaseAccount( msg.sender );\n        IERC20( ATHER ).safeTransferFrom( msg.sender, _stakingContract, _amount );\n        IERC20Mintable( SATHER ).mint( msg.sender, _amount );\n        IStaking(_stakingContract).stakeEffect( msg.sender, _amount );\n    }\n    function unstake( address _stakingContract, uint _amount ) external isStaker( _stakingContract, msg.sender ) {\n        IStaking(_stakingContract).epochCheck();\n        IStaking(_stakingContract).rebaseAccount( msg.sender );\n        IERC20( ATHER ).safeTransferFrom( _stakingContract, msg.sender, _amount );\n        IERC20Mintable( SATHER ).burnFrom( msg.sender, _amount );\n        IStaking(_stakingContract).unstakeEffect( msg.sender, _amount );\n    }\n    function setAutoRestake( address _stakingContract, uint16 _autoRestake ) external isStaker( _stakingContract, msg.sender ) {\n        IStaking(_stakingContract).setAutoRestake( msg.sender, _autoRestake );\n    }\n    function rebaseAccount( address _stakingContract, address _account, uint _amount, bool _isPositive )\n      public fromStaking() isStaker( _stakingContract, _account ) {\n        if (_isPositive) {\n            uint restakePercent = IStaking( _stakingContract ).accountRestakePercent( _account );\n            if ( restakePercent > 0 ) {\n                uint restakeAmount = _amount.mul( restakePercent ).div( 1e4 );\n                uint payoutAmount = _amount.sub( restakeAmount );\n                IERC20( ATHER ).safeTransferFrom( _stakingContract, _account, payoutAmount );\n                IERC20Mintable( SATHER ).mint( _account, restakeAmount );\n            } else {\n                IERC20( ATHER ).safeTransferFrom( _stakingContract, _account, _amount );\n            }\n        } else {\n            IERC20( ATHER ).safeTransferFrom( _stakingContract, address(this), _amount );\n            IERC20Mintable( SATHER ).burnFrom( _account, _amount );\n        }\n    }\n\n    // Liquidity Providing\n    // 0 : UNISWAP_V2\n    enum LPType {\n        UNISWAP_V2\n    }\n\n\n\n    function incurUnsecured( address _borrower, uint _amount ) external onlyOwner() {\n        IERC20Mintable( ATHER ).mint( _borrower, _amount );\n        data.totalUnsecured = data.totalUnsecured.add( _amount );\n        unsecuredLoans[_borrower] = unsecuredLoans[_borrower].add(_amount);\n\n        emit IncurUnsecured( ATHER, _borrower, _amount, unsecuredLoans[_borrower]);\n    }\n    function repayUnsecured( address _borrower, uint _amount ) external {\n        require( unsecuredLoans[_borrower] >= _amount );\n        IATHERERC20( ATHER ).burnFrom(_borrower, _amount);\n        data.totalUnsecured = data.totalUnsecured.sub( _amount );\n        unsecuredLoans[_borrower] = unsecuredLoans[_borrower].sub(_amount);\n        emit RepayUnsecured( ATHER, _borrower, _amount, unsecuredLoans[_borrower]);\n    }\n    function repayUnsecuredOnBehalfOf( address _borrower, address _repayer, uint _amount ) external {\n        require( unsecuredLoans[_borrower] >= _amount );\n        IATHERERC20( ATHER ).burnFrom(_repayer, _amount);\n        data.totalUnsecured = data.totalUnsecured.sub( _amount );\n        unsecuredLoans[_borrower] = unsecuredLoans[_borrower].sub(_amount);\n        emit RepayUnsecured( ATHER, _borrower, _amount, unsecuredLoans[_borrower]);\n    }\n    function incurUnsecuredUSD( address _borrower, uint _amount ) external onlyOwner() {\n        IERC20Mintable( ATHERUSD ).mint( _borrower, _amount );\n        data.totalUnsecuredUSD = data.totalUnsecuredUSD.add( _amount );\n        unsecuredLoansUSD[_borrower] = unsecuredLoansUSD[_borrower].add(_amount);\n        emit IncurUnsecuredUSD( ATHERUSD, _borrower, _amount, unsecuredLoansUSD[_borrower]);\n    }\n    function repayUnsecuredUSD( address _borrower, uint _amount ) external {\n        require( unsecuredLoansUSD[_borrower] >= _amount );\n        IATHERERC20( ATHERUSD ).burnFrom(_borrower, _amount);\n        data.totalUnsecuredUSD = data.totalUnsecuredUSD.sub( _amount );\n        unsecuredLoansUSD[_borrower] = unsecuredLoansUSD[_borrower].sub(_amount);\n        emit RepayUnsecuredUSD( ATHERUSD, _borrower, _amount, unsecuredLoansUSD[_borrower]);\n    }\n    function repayUnsecuredUSDOnBehalfOf( address _borrower, address _repayer, uint _amount ) external {\n        require( unsecuredLoansUSD[_borrower] >= _amount );\n        IATHERERC20( ATHERUSD ).burnFrom(_repayer, _amount);\n        data.totalUnsecuredUSD = data.totalUnsecuredUSD.sub( _amount );\n        unsecuredLoansUSD[_borrower] = unsecuredLoansUSD[_borrower].sub(_amount);\n        emit RepayUnsecuredUSD( ATHERUSD, _borrower, _amount, unsecuredLoansUSD[_borrower]);\n    }\n\n\n    /**\n        @notice takes inventory of all tracked assets\n        @notice always consolidate to recognized reserves before audit\n     */\n    function auditReserves() public {\n        if (block.number < control.reserveUpdateLast + control.reserveUpdateInterval) {\n            return;\n        }\n        control.reserveUpdateLast = uint32(block.number);\n        uint reserves;\n        delete erc20Assets;\n        for( uint i = 0; i < stableTokens.length; i++ ) {\n            if (!isStableToken[stableTokens[ i ]]) { continue; }\n            uint balance = IERC20( stableTokens[ i ] ).balanceOf( address(this) );\n            uint value = valueOfToken( stableTokens[ i ], balance );\n            reserves = reserves.add(value);\n            erc20Assets.push(TreasuryOwnedErc20({\n                token: stableTokens[ i ],\n                balance: balance,\n                value: value\n            }));\n        }\n        for( uint i = 0; i < floatingTokens.length; i++ ) {\n            if (!isFloatingToken[floatingTokens[ i ]]) { continue; }\n            uint balance = IERC20( floatingTokens[ i ] ).balanceOf( address(this) );\n            uint value = valueOfToken( floatingTokens[ i ], balance );\n            reserves = reserves.add(value);\n            erc20Assets.push(TreasuryOwnedErc20({\n                token: floatingTokens[ i ],\n                balance: balance,\n                value: value\n            }));\n        }\n        for( uint i = 0; i < lpTokens.length; i++ ) {\n            if (!isLpToken[lpTokens[ i ]]) { continue; }\n            uint balance = IERC20( lpTokens[ i ] ).balanceOf( address(this) );\n            uint value = valueOfToken( lpTokens[ i ], balance );\n            reserves = reserves.add(value);\n            erc20Assets.push(TreasuryOwnedErc20({\n                token: lpTokens[ i ],\n                balance: balance,\n                value: value\n            }));\n        }\n        data.totalReserves = reserves;\n        if (msg.sender == owner()) { // only calls from owner emit the event to reduce polution\n            emit ReservesUpdated( reserves, erc20Assets );    \n        }\n    }\n\n    /**\n        @notice verify queue then set boolean in mapping\n        @param _address address\n        @param value bool\n     */\n    function setAuthority( address _address, bool value ) external onlyOwner() {\n        isRecordAuthority[_address] = value;\n        emit AuthorityChange( _address, value );\n    }\n    function setDepositor( address _address, bool value ) external onlyOwner() {\n        isDirectDepositor[_address] = value;\n        emit DirectDepositorChange( _address, value );\n    }\n    function setStableToken(bool _value, address _token) external onlyOwner() {\n        require(ERC20( _token ).decimals() == 18, \"treasury can only deal with ERC20 with 18 decimals\");\n        if ( _value ) {\n            isStableToken[ _token ] = true;\n            if (!listContains(stableTokens, _token)) {\n                stableTokens.push(_token);\n            }\n        } else {\n            require(isStableToken[ _token ], \"not a registered stable token\");\n            isStableToken[ _token ] = false;\n        }\n    }\n    function setFloatingToken(bool _value, address _token, address _evaluator, address _groudingLpPair) external onlyOwner() {\n        require(ERC20( _token ).decimals() == 18, \"treasury can only deal with ERC20 with 18 decimals\");\n        if ( _value ) {\n            isFloatingToken[ _token ] = true;\n            evaluator[ _token ] = TokenEvaluator({\n                addr: _evaluator,\n                pair: _groudingLpPair\n            });\n            if (!listContains(floatingTokens, _token)) {\n                floatingTokens.push(_token);\n            }\n        } else {\n            require(isStableToken[ _token ], \"not a registered floating token\");\n            isFloatingToken[ _token ] = false;\n            delete evaluator[ _token ];\n        }\n    }\n    function setLpToken(bool _value, address _token, address _evaluator, address _groudingLpPair) external onlyOwner() {\n        require(ERC20( _token ).decimals() == 18, \"treasury can only deal with ERC20 with 18 decimals\");\n        if (_value) {\n            isLpToken[ _token ] = true;\n            isComplexLpToken[ _token ] = _groudingLpPair != address(0);\n            evaluator[ _token ] = TokenEvaluator({\n                addr: _evaluator,\n                pair: _groudingLpPair\n            });\n            if (!listContains(lpTokens, _token)) {\n                lpTokens.push(_token);\n            }\n        } else {\n            require(isLpToken[ _token ], \"not a registered LP token\");\n            isLpToken[ _token ] = false;\n            isComplexLpToken[ _token ] = false;\n            delete evaluator[ _token ];\n        }\n    }\n\n    function setStakingContract( bool _value, address stakingContract_ ) external onlyOwner() {\n        if (_value) {\n            require( !isStakingContract[stakingContract_], \"already registered\" );\n            isStakingContract[stakingContract_] = true;\n            if (!listContains(stakingContracts, stakingContract_)) {\n                stakingContracts.push(stakingContract_);\n            }\n            isRecordAuthority[stakingContract_] = true;\n        } else {\n            require( isStakingContract[stakingContract_], \"contract not found on registry\" );\n            delete isStakingContract[stakingContract_];\n            isRecordAuthority[stakingContract_] = false;\n        }\n        emit StakingContractUpdated( stakingContract_, _value );\n    }\n\n    /**\n        @notice returns all important treasury data\n        @return TreasuryData\n     */\n    function getTreasuryData() public view returns ( TreasuryData memory ) {\n        return data;\n    }\n\n    /**\n        @notice returns USD valuation of asset\n        @param _token address\n        @param _amount uint\n        @return value_ uint\n     */\n    function valueOfToken( address _token, uint _amount ) public view returns ( uint ) {\n        if ( isStableToken[ _token ] ) {\n            return _amount; // 1 USD = 1 USD\n        }\n        address groudingLpPair = evaluator[ _token ].pair;\n        if ( isFloatingToken[ _token ] ) {\n            return ITokenEvaluator( evaluator[ _token ].addr ).valuationFloating( _token, groudingLpPair, _amount );  \n        } else if ( isLpToken[ _token ] ) {\n            if ( isComplexLpToken[ _token ] ) {\n                return ITokenEvaluator( evaluator[ _token ].addr ).valuationComplexLpToken( _token, groudingLpPair, _amount );\n            } else {\n                return ITokenEvaluator( evaluator[ _token ].addr ).valuationLpToken( _token, _amount );\n            }\n        }\n        return 0;\n    }\n    function atherValueOf( address _token, uint _amount ) public view isAccepted(_token) returns ( uint ) {\n        uint tokenUsdValue = valueOfToken( _token, _amount );\n        return tokenUsdValue.mul( 1e18 ).div( valueOfToken( ATHER, 1e18 ) );\n    }\n\n    function getErc20Assets() public view returns (TreasuryOwnedErc20[] memory) {\n        return erc20Assets;\n    }\n\n    /**\n        @notice checks array to ensure against duplicate\n        @param _list address[]\n        @param _token address\n        @return bool\n     */\n    function listContains( address[] storage _list, address _token ) internal view returns ( bool ) {\n        for( uint i = 0; i < _list.length; i++ ) {\n            if( _list[ i ] == _token ) {\n                return true;\n            }\n        }\n        return false;\n    }\n\n}",
  "sourcePath": "/var/www/atherton/solidity/contracts/Treasury.sol",
  "compiler": {
    "name": "solc",
    "version": "0.8.0+commit.c7dfd78e.Emscripten.clang"
  },
  "schemaVersion": "3.4.3",
  "updatedAt": "2021-12-08T23:25:38.067Z",
  "devdoc": {
    "kind": "dev",
    "methods": {
      "deposit(address,uint256)": {
        "params": {
          "_amount": "uint",
          "_token": "address"
        }
      },
      "getTreasuryData()": {
        "returns": {
          "_0": "TreasuryData"
        }
      },
      "owner()": {
        "details": "Returns the address of the current owner."
      },
      "renounceOwnership()": {
        "details": "Leaves the contract without owner. It will not be possible to call `onlyOwner` functions anymore. Can only be called by the current owner. NOTE: Renouncing ownership will leave the contract without an owner, thereby removing any functionality that is only available to the owner."
      },
      "setAuthority(address,bool)": {
        "params": {
          "_address": "address",
          "value": "bool"
        }
      },
      "transferOwnership(address)": {
        "details": "Transfers ownership of the contract to a new account (`newOwner`). Can only be called by the current owner."
      },
      "valueOfToken(address,uint256)": {
        "params": {
          "_amount": "uint",
          "_token": "address"
        },
        "returns": {
          "_0": "value_ uint"
        }
      }
    },
    "version": 1
  },
  "userdoc": {
    "kind": "user",
    "methods": {
      "auditReserves()": {
        "notice": "takes inventory of all tracked assetsalways consolidate to recognized reserves before audit"
      },
      "deposit(address,uint256)": {
        "notice": "allow approved address to deposit an asset for ATHER"
      },
      "getTreasuryData()": {
        "notice": "returns all important treasury data"
      },
      "setAuthority(address,bool)": {
        "notice": "verify queue then set boolean in mapping"
      },
      "valueOfToken(address,uint256)": {
        "notice": "returns USD valuation of asset"
      }
    },
    "version": 1
  }
}