{
  "contractName": "AthertonBondDepository",
  "abi": [
    {
      "inputs": [
        {
          "internalType": "address",
          "name": "_treasury",
          "type": "address"
        },
        {
          "internalType": "address",
          "name": "_ATHER",
          "type": "address"
        },
        {
          "internalType": "address",
          "name": "_principle",
          "type": "address"
        },
        {
          "internalType": "address",
          "name": "_bondCalculator",
          "type": "address"
        }
      ],
      "stateMutability": "nonpayable",
      "type": "constructor"
    },
    {
      "anonymous": false,
      "inputs": [
        {
          "indexed": false,
          "internalType": "uint256",
          "name": "deposit",
          "type": "uint256"
        },
        {
          "indexed": true,
          "internalType": "uint256",
          "name": "payout",
          "type": "uint256"
        },
        {
          "indexed": true,
          "internalType": "uint256",
          "name": "expires",
          "type": "uint256"
        },
        {
          "indexed": true,
          "internalType": "uint256",
          "name": "priceInUSD",
          "type": "uint256"
        }
      ],
      "name": "BondCreated",
      "type": "event"
    },
    {
      "anonymous": false,
      "inputs": [
        {
          "indexed": true,
          "internalType": "uint256",
          "name": "priceInUSD",
          "type": "uint256"
        },
        {
          "indexed": true,
          "internalType": "uint256",
          "name": "internalPrice",
          "type": "uint256"
        },
        {
          "indexed": true,
          "internalType": "uint256",
          "name": "debtRatio",
          "type": "uint256"
        }
      ],
      "name": "BondPriceChanged",
      "type": "event"
    },
    {
      "anonymous": false,
      "inputs": [
        {
          "indexed": true,
          "internalType": "address",
          "name": "recipient",
          "type": "address"
        },
        {
          "indexed": false,
          "internalType": "uint256",
          "name": "payout",
          "type": "uint256"
        },
        {
          "indexed": false,
          "internalType": "uint256",
          "name": "remaining",
          "type": "uint256"
        }
      ],
      "name": "BondRedeemed",
      "type": "event"
    },
    {
      "anonymous": false,
      "inputs": [
        {
          "indexed": false,
          "internalType": "uint256",
          "name": "initialBCV",
          "type": "uint256"
        },
        {
          "indexed": false,
          "internalType": "uint256",
          "name": "newBCV",
          "type": "uint256"
        },
        {
          "indexed": false,
          "internalType": "uint256",
          "name": "adjustment",
          "type": "uint256"
        },
        {
          "indexed": false,
          "internalType": "bool",
          "name": "addition",
          "type": "bool"
        }
      ],
      "name": "ControlVariableAdjustment",
      "type": "event"
    },
    {
      "anonymous": false,
      "inputs": [
        {
          "indexed": true,
          "internalType": "address",
          "name": "previousOwner",
          "type": "address"
        },
        {
          "indexed": true,
          "internalType": "address",
          "name": "newOwner",
          "type": "address"
        }
      ],
      "name": "OwnershipTransferred",
      "type": "event"
    },
    {
      "inputs": [],
      "name": "ATHER",
      "outputs": [
        {
          "internalType": "address",
          "name": "",
          "type": "address"
        }
      ],
      "stateMutability": "view",
      "type": "function"
    },
    {
      "inputs": [],
      "name": "adjustment",
      "outputs": [
        {
          "internalType": "bool",
          "name": "add",
          "type": "bool"
        },
        {
          "internalType": "uint256",
          "name": "rate",
          "type": "uint256"
        },
        {
          "internalType": "uint256",
          "name": "target",
          "type": "uint256"
        },
        {
          "internalType": "uint256",
          "name": "buffer",
          "type": "uint256"
        },
        {
          "internalType": "uint256",
          "name": "lastBlock",
          "type": "uint256"
        }
      ],
      "stateMutability": "view",
      "type": "function"
    },
    {
      "inputs": [],
      "name": "bondCalculator",
      "outputs": [
        {
          "internalType": "address",
          "name": "",
          "type": "address"
        }
      ],
      "stateMutability": "view",
      "type": "function"
    },
    {
      "inputs": [
        {
          "internalType": "address",
          "name": "",
          "type": "address"
        }
      ],
      "name": "bondInfo",
      "outputs": [
        {
          "internalType": "uint256",
          "name": "payout",
          "type": "uint256"
        },
        {
          "internalType": "uint256",
          "name": "vesting",
          "type": "uint256"
        },
        {
          "internalType": "uint256",
          "name": "lastBlock",
          "type": "uint256"
        },
        {
          "internalType": "uint256",
          "name": "pricePaid",
          "type": "uint256"
        }
      ],
      "stateMutability": "view",
      "type": "function"
    },
    {
      "inputs": [],
      "name": "isLiquidityBond",
      "outputs": [
        {
          "internalType": "bool",
          "name": "",
          "type": "bool"
        }
      ],
      "stateMutability": "view",
      "type": "function"
    },
    {
      "inputs": [],
      "name": "lastDecay",
      "outputs": [
        {
          "internalType": "uint256",
          "name": "",
          "type": "uint256"
        }
      ],
      "stateMutability": "view",
      "type": "function"
    },
    {
      "inputs": [],
      "name": "owner",
      "outputs": [
        {
          "internalType": "address",
          "name": "",
          "type": "address"
        }
      ],
      "stateMutability": "view",
      "type": "function"
    },
    {
      "inputs": [],
      "name": "principle",
      "outputs": [
        {
          "internalType": "address",
          "name": "",
          "type": "address"
        }
      ],
      "stateMutability": "view",
      "type": "function"
    },
    {
      "inputs": [],
      "name": "renounceOwnership",
      "outputs": [],
      "stateMutability": "nonpayable",
      "type": "function"
    },
    {
      "inputs": [],
      "name": "staking",
      "outputs": [
        {
          "internalType": "address",
          "name": "",
          "type": "address"
        }
      ],
      "stateMutability": "view",
      "type": "function"
    },
    {
      "inputs": [],
      "name": "stakingHelper",
      "outputs": [
        {
          "internalType": "address",
          "name": "",
          "type": "address"
        }
      ],
      "stateMutability": "view",
      "type": "function"
    },
    {
      "inputs": [],
      "name": "terms",
      "outputs": [
        {
          "internalType": "uint256",
          "name": "controlVariable",
          "type": "uint256"
        },
        {
          "internalType": "uint256",
          "name": "vestingTerm",
          "type": "uint256"
        },
        {
          "internalType": "uint256",
          "name": "minimumPrice",
          "type": "uint256"
        },
        {
          "internalType": "uint256",
          "name": "maxPayout",
          "type": "uint256"
        },
        {
          "internalType": "uint256",
          "name": "fee",
          "type": "uint256"
        },
        {
          "internalType": "uint256",
          "name": "maxDebt",
          "type": "uint256"
        }
      ],
      "stateMutability": "view",
      "type": "function"
    },
    {
      "inputs": [],
      "name": "totalDebt",
      "outputs": [
        {
          "internalType": "uint256",
          "name": "",
          "type": "uint256"
        }
      ],
      "stateMutability": "view",
      "type": "function"
    },
    {
      "inputs": [
        {
          "internalType": "address",
          "name": "newOwner",
          "type": "address"
        }
      ],
      "name": "transferOwnership",
      "outputs": [],
      "stateMutability": "nonpayable",
      "type": "function"
    },
    {
      "inputs": [],
      "name": "treasury",
      "outputs": [
        {
          "internalType": "address",
          "name": "",
          "type": "address"
        }
      ],
      "stateMutability": "view",
      "type": "function"
    },
    {
      "inputs": [],
      "name": "useHelper",
      "outputs": [
        {
          "internalType": "bool",
          "name": "",
          "type": "bool"
        }
      ],
      "stateMutability": "view",
      "type": "function"
    },
    {
      "inputs": [
        {
          "internalType": "uint256",
          "name": "_controlVariable",
          "type": "uint256"
        },
        {
          "internalType": "uint256",
          "name": "_vestingTerm",
          "type": "uint256"
        },
        {
          "internalType": "uint256",
          "name": "_minimumPrice",
          "type": "uint256"
        },
        {
          "internalType": "uint256",
          "name": "_maxPayout",
          "type": "uint256"
        },
        {
          "internalType": "uint256",
          "name": "_fee",
          "type": "uint256"
        },
        {
          "internalType": "uint256",
          "name": "_maxDebt",
          "type": "uint256"
        },
        {
          "internalType": "uint256",
          "name": "_initialDebt",
          "type": "uint256"
        }
      ],
      "name": "initializeBondTerms",
      "outputs": [],
      "stateMutability": "nonpayable",
      "type": "function"
    },
    {
      "inputs": [
        {
          "internalType": "enum AthertonBondDepository.PARAMETER",
          "name": "_parameter",
          "type": "uint8"
        },
        {
          "internalType": "uint256",
          "name": "_input",
          "type": "uint256"
        }
      ],
      "name": "setBondTerms",
      "outputs": [],
      "stateMutability": "nonpayable",
      "type": "function"
    },
    {
      "inputs": [
        {
          "internalType": "bool",
          "name": "_addition",
          "type": "bool"
        },
        {
          "internalType": "uint256",
          "name": "_increment",
          "type": "uint256"
        },
        {
          "internalType": "uint256",
          "name": "_target",
          "type": "uint256"
        },
        {
          "internalType": "uint256",
          "name": "_buffer",
          "type": "uint256"
        }
      ],
      "name": "setAdjustment",
      "outputs": [],
      "stateMutability": "nonpayable",
      "type": "function"
    },
    {
      "inputs": [
        {
          "internalType": "address",
          "name": "_staking",
          "type": "address"
        },
        {
          "internalType": "bool",
          "name": "_helper",
          "type": "bool"
        }
      ],
      "name": "setStaking",
      "outputs": [],
      "stateMutability": "nonpayable",
      "type": "function"
    },
    {
      "inputs": [
        {
          "internalType": "uint256",
          "name": "_amount",
          "type": "uint256"
        },
        {
          "internalType": "uint256",
          "name": "_maxPrice",
          "type": "uint256"
        },
        {
          "internalType": "address",
          "name": "_depositor",
          "type": "address"
        }
      ],
      "name": "deposit",
      "outputs": [
        {
          "internalType": "uint256",
          "name": "",
          "type": "uint256"
        }
      ],
      "stateMutability": "nonpayable",
      "type": "function"
    },
    {
      "inputs": [
        {
          "internalType": "address",
          "name": "_recipient",
          "type": "address"
        },
        {
          "internalType": "bool",
          "name": "_stake",
          "type": "bool"
        }
      ],
      "name": "redeem",
      "outputs": [
        {
          "internalType": "uint256",
          "name": "",
          "type": "uint256"
        }
      ],
      "stateMutability": "nonpayable",
      "type": "function"
    },
    {
      "inputs": [],
      "name": "maxPayout",
      "outputs": [
        {
          "internalType": "uint256",
          "name": "",
          "type": "uint256"
        }
      ],
      "stateMutability": "view",
      "type": "function"
    },
    {
      "inputs": [
        {
          "internalType": "uint256",
          "name": "_value",
          "type": "uint256"
        }
      ],
      "name": "payoutFor",
      "outputs": [
        {
          "internalType": "uint256",
          "name": "",
          "type": "uint256"
        }
      ],
      "stateMutability": "view",
      "type": "function"
    },
    {
      "inputs": [],
      "name": "bondPrice",
      "outputs": [
        {
          "internalType": "uint256",
          "name": "price_",
          "type": "uint256"
        }
      ],
      "stateMutability": "view",
      "type": "function"
    },
    {
      "inputs": [],
      "name": "bondTerms",
      "outputs": [
        {
          "components": [
            {
              "internalType": "uint256",
              "name": "controlVariable",
              "type": "uint256"
            },
            {
              "internalType": "uint256",
              "name": "vestingTerm",
              "type": "uint256"
            },
            {
              "internalType": "uint256",
              "name": "minimumPrice",
              "type": "uint256"
            },
            {
              "internalType": "uint256",
              "name": "maxPayout",
              "type": "uint256"
            },
            {
              "internalType": "uint256",
              "name": "fee",
              "type": "uint256"
            },
            {
              "internalType": "uint256",
              "name": "maxDebt",
              "type": "uint256"
            }
          ],
          "internalType": "struct AthertonBondDepository.Terms",
          "name": "",
          "type": "tuple"
        }
      ],
      "stateMutability": "view",
      "type": "function"
    },
    {
      "inputs": [],
      "name": "bondPriceInUSD",
      "outputs": [
        {
          "internalType": "uint256",
          "name": "price_",
          "type": "uint256"
        }
      ],
      "stateMutability": "view",
      "type": "function"
    },
    {
      "inputs": [],
      "name": "debtRatio",
      "outputs": [
        {
          "internalType": "uint256",
          "name": "debtRatio_",
          "type": "uint256"
        }
      ],
      "stateMutability": "view",
      "type": "function"
    },
    {
      "inputs": [],
      "name": "standardizedDebtRatio",
      "outputs": [
        {
          "internalType": "uint256",
          "name": "",
          "type": "uint256"
        }
      ],
      "stateMutability": "view",
      "type": "function"
    },
    {
      "inputs": [],
      "name": "currentDebt",
      "outputs": [
        {
          "internalType": "uint256",
          "name": "",
          "type": "uint256"
        }
      ],
      "stateMutability": "view",
      "type": "function"
    },
    {
      "inputs": [],
      "name": "debtDecay",
      "outputs": [
        {
          "internalType": "uint256",
          "name": "decay_",
          "type": "uint256"
        }
      ],
      "stateMutability": "view",
      "type": "function"
    },
    {
      "inputs": [
        {
          "internalType": "address",
          "name": "_depositor",
          "type": "address"
        }
      ],
      "name": "percentVestedFor",
      "outputs": [
        {
          "internalType": "uint256",
          "name": "percentVested_",
          "type": "uint256"
        }
      ],
      "stateMutability": "view",
      "type": "function"
    },
    {
      "inputs": [
        {
          "internalType": "address",
          "name": "_depositor",
          "type": "address"
        }
      ],
      "name": "pendingPayoutFor",
      "outputs": [
        {
          "internalType": "uint256",
          "name": "pendingPayout_",
          "type": "uint256"
        }
      ],
      "stateMutability": "view",
      "type": "function"
    }
  ],
  "bytecode": "0x6101206040523480156200001257600080fd5b50604051620047a5380380620047a5833981810160405281019062000038919062000312565b620000586200004c6200022f60201b60201c565b6200023760201b60201c565b600073ffffffffffffffffffffffffffffffffffffffff168373ffffffffffffffffffffffffffffffffffffffff1614156200009357600080fd5b8273ffffffffffffffffffffffffffffffffffffffff1660808173ffffffffffffffffffffffffffffffffffffffff1660601b81525050600073ffffffffffffffffffffffffffffffffffffffff168273ffffffffffffffffffffffffffffffffffffffff1614156200010557600080fd5b8173ffffffffffffffffffffffffffffffffffffffff1660a08173ffffffffffffffffffffffffffffffffffffffff1660601b81525050600073ffffffffffffffffffffffffffffffffffffffff168473ffffffffffffffffffffffffffffffffffffffff1614156200017757600080fd5b8373ffffffffffffffffffffffffffffffffffffffff1660c08173ffffffffffffffffffffffffffffffffffffffff1660601b815250508073ffffffffffffffffffffffffffffffffffffffff166101008173ffffffffffffffffffffffffffffffffffffffff1660601b81525050600073ffffffffffffffffffffffffffffffffffffffff168173ffffffffffffffffffffffffffffffffffffffff161415151560e081151560f81b8152505050505050620003cc565b600033905090565b60008060009054906101000a900473ffffffffffffffffffffffffffffffffffffffff169050816000806101000a81548173ffffffffffffffffffffffffffffffffffffffff021916908373ffffffffffffffffffffffffffffffffffffffff1602179055508173ffffffffffffffffffffffffffffffffffffffff168173ffffffffffffffffffffffffffffffffffffffff167f8be0079c531659141344cd1fd0a4f28419497f9722a3daafe3b4186f6b6457e060405160405180910390a35050565b6000815190506200030c81620003b2565b92915050565b600080600080608085870312156200032957600080fd5b60006200033987828801620002fb565b94505060206200034c87828801620002fb565b93505060406200035f87828801620002fb565b92505060606200037287828801620002fb565b91505092959194509250565b60006200038b8262000392565b9050919050565b600073ffffffffffffffffffffffffffffffffffffffff82169050919050565b620003bd816200037e565b8114620003c957600080fd5b50565b60805160601c60a05160601c60c05160601c60e05160f81c6101005160601c6143076200049e600039600081816112cd01528181611beb0152611ced01526000818161129f01528181611bba0152611fdb015260008181611024015281816115e601528181611836015281816118c801526119a301526000818161063a01528181611309015281816113c901528181611622015281816117b3015281816117fa015281816119050152611c27015260008181610f21015281816119c501528181611d4401526120ce01526143076000f3fe608060405234801561001057600080fd5b50600436106101fb5760003560e01c8063844b5c7c1161011a578063d5025625116100ad578063e0176de81161007c578063e0176de8146105a4578063e392a262146105c2578063f2fde38b146105e0578063f5c2ab5b146105fc578063fc7b9c181461061a576101fb565b8063d502562514610527578063d79690601461054a578063d7ccfb0b14610568578063de6efb3114610586576101fb565b8063c5332b7c116100e9578063c5332b7c1461049c578063cd1234b3146104ba578063cea55f57146104ed578063d4d863ce1461050b576101fb565b8063844b5c7c146104125780638da5cb5b146104305780638dbdbe6d1461044e578063904b3ece1461047e576101fb565b80634e3d8853116101925780637153500811610161578063715350081461038a578063759076e5146103a657806377b81895146103c45780637927ebf8146103e2576101fb565b80634e3d885314610314578063507930ec1461033257806361d027b314610362578063715018a614610380576101fb565b80631feed31f116101ce5780631feed31f146102865780632f3f470a146102b6578063451ee4a1146102d45780634cf088d9146102f6576101fb565b8063016a42841461020057806301b88ee81461021e5780631a3d00681461024e5780631e321a0f1461026a575b600080fd5b610208610638565b60405161021591906139a2565b60405180910390f35b6102386004803603810190610233919061303c565b61065c565b6040516102459190613d08565b60405180910390f35b610268600480360381019061026391906130ca565b6106f3565b005b610284600480360381019061027f919061312d565b61085a565b005b6102a0600480360381019061029b9190613065565b610bc6565b6040516102ad9190613d08565b60405180910390f35b6102be610eb5565b6040516102cb9190613a1d565b60405180910390f35b6102dc610ec8565b6040516102ed959493929190613a38565b60405180910390f35b6102fe610ef9565b60405161030b91906139a2565b60405180910390f35b61031c610f1f565b60405161032991906139a2565b60405180910390f35b61034c6004803603810190610347919061303c565b610f43565b6040516103599190613d08565b60405180910390f35b61036a611022565b60405161037791906139a2565b60405180910390f35b610388611046565b005b6103a4600480360381019061039f919061320a565b6110ce565b005b6103ae611217565b6040516103bb9190613d08565b60405180910390f35b6103cc61123a565b6040516103d991906139a2565b60405180910390f35b6103fc60048036038101906103f79190613169565b611260565b6040516104099190613d08565b60405180910390f35b61041a61129b565b6040516104279190613d08565b60405180910390f35b61043861149b565b60405161044591906139a2565b60405180910390f35b610468600480360381019061046391906131bb565b6114c4565b6040516104759190613d08565b60405180910390f35b610486611bb6565b6040516104939190613d08565b60405180910390f35b6104a4611ceb565b6040516104b191906139a2565b60405180910390f35b6104d460048036038101906104cf919061303c565b611d0f565b6040516104e49493929190613df1565b60405180910390f35b6104f5611d3f565b6040516105029190613d08565b60405180910390f35b61052560048036038101906105209190613065565b611e31565b005b61052f611faf565b60405161054196959493929190613e36565b60405180910390f35b610552611fd9565b60405161055f9190613a1d565b60405180910390f35b610570611ffd565b60405161057d9190613d08565b60405180910390f35b61058e612064565b60405161059b9190613ced565b60405180910390f35b6105ac6120bb565b6040516105b99190613d08565b60405180910390f35b6105ca61218b565b6040516105d79190613d08565b60405180910390f35b6105fa60048036038101906105f5919061303c565b6121e7565b005b6106046122df565b6040516106119190613d08565b60405180910390f35b6106226122e5565b60405161062f9190613d08565b60405180910390f35b7f000000000000000000000000000000000000000000000000000000000000000081565b60008061066883610f43565b90506000600e60008573ffffffffffffffffffffffffffffffffffffffff1673ffffffffffffffffffffffffffffffffffffffff16815260200190815260200160002060000154905061271082106106c2578092506106ec565b6106e96127106106db84846122eb90919063ffffffff16565b61230190919063ffffffff16565b92505b5050919050565b6106fb612317565b73ffffffffffffffffffffffffffffffffffffffff1661071961149b565b73ffffffffffffffffffffffffffffffffffffffff161461076f576040517f08c379a000000000000000000000000000000000000000000000000000000000815260040161076690613bed565b60405180910390fd5b61079c6103e861078e60196003600001546122eb90919063ffffffff16565b61230190919063ffffffff16565b8311156107de576040517f08c379a00000000000000000000000000000000000000000000000000000000081526004016107d590613b6d565b60405180910390fd5b6040518060a00160405280851515815260200184815260200183815260200182815260200143815250600960008201518160000160006101000a81548160ff0219169083151502179055506020820151816001015560408201518160020155606082015181600301556080820151816004015590505050505050565b610862612317565b73ffffffffffffffffffffffffffffffffffffffff1661088061149b565b73ffffffffffffffffffffffffffffffffffffffff16146108d6576040517f08c379a00000000000000000000000000000000000000000000000000000000081526004016108cd90613bed565b60405180910390fd5b60006003811115610910577f4e487b7100000000000000000000000000000000000000000000000000000000600052602160045260246000fd5b826003811115610949577f4e487b7100000000000000000000000000000000000000000000000000000000600052602160045260246000fd5b14156109a357612710811015610994576040517f08c379a000000000000000000000000000000000000000000000000000000000815260040161098b90613c2d565b60405180910390fd5b80600360010181905550610bc2565b600160038111156109dd577f4e487b7100000000000000000000000000000000000000000000000000000000600052602160045260246000fd5b826003811115610a16577f4e487b7100000000000000000000000000000000000000000000000000000000600052602160045260246000fd5b1415610a6f576103e8811115610a61576040517f08c379a0000000000000000000000000000000000000000000000000000000008152600401610a5890613aed565b60405180910390fd5b806003800181905550610bc1565b60026003811115610aa9577f4e487b7100000000000000000000000000000000000000000000000000000000600052602160045260246000fd5b826003811115610ae2577f4e487b7100000000000000000000000000000000000000000000000000000000600052602160045260246000fd5b1415610b3c57612710811115610b2d576040517f08c379a0000000000000000000000000000000000000000000000000000000008152600401610b2490613b0d565b60405180910390fd5b80600360040181905550610bc0565b600380811115610b75577f4e487b7100000000000000000000000000000000000000000000000000000000600052602160045260246000fd5b826003811115610bae577f4e487b7100000000000000000000000000000000000000000000000000000000600052602160045260246000fd5b1415610bbf57806003600501819055505b5b5b5b5050565b600080600e60008573ffffffffffffffffffffffffffffffffffffffff1673ffffffffffffffffffffffffffffffffffffffff16815260200190815260200160002060405180608001604052908160008201548152602001600182015481526020016002820154815260200160038201548152505090506000610c4885610f43565b90506127108110610d1557600e60008673ffffffffffffffffffffffffffffffffffffffff1673ffffffffffffffffffffffffffffffffffffffff16815260200190815260200160002060008082016000905560018201600090556002820160009055600382016000905550508473ffffffffffffffffffffffffffffffffffffffff167f51c99f515c87b0d95ba97f616edd182e8f161c4932eac17c6fefe9dab58b77b183600001516000604051610d02929190613d5a565b60405180910390a2600092505050610eaf565b6000610d42612710610d348486600001516122eb90919063ffffffff16565b61230190919063ffffffff16565b90506040518060800160405280610d6683866000015161231f90919063ffffffff16565b8152602001610d98610d8586604001514361231f90919063ffffffff16565b866020015161231f90919063ffffffff16565b81526020014381526020018460600151815250600e60008873ffffffffffffffffffffffffffffffffffffffff1673ffffffffffffffffffffffffffffffffffffffff168152602001908152602001600020600082015181600001556020820151816001015560408201518160020155606082015181600301559050508573ffffffffffffffffffffffffffffffffffffffff167f51c99f515c87b0d95ba97f616edd182e8f161c4932eac17c6fefe9dab58b77b182600e60008a73ffffffffffffffffffffffffffffffffffffffff1673ffffffffffffffffffffffffffffffffffffffff16815260200190815260200160002060000154604051610e9f929190613d83565b60405180910390a2600093505050505b92915050565b600260149054906101000a900460ff1681565b60098060000160009054906101000a900460ff16908060010154908060020154908060030154908060040154905085565b600160009054906101000a900473ffffffffffffffffffffffffffffffffffffffff1681565b7f000000000000000000000000000000000000000000000000000000000000000081565b600080600e60008473ffffffffffffffffffffffffffffffffffffffff1673ffffffffffffffffffffffffffffffffffffffff16815260200190815260200160002060405180608001604052908160008201548152602001600182015481526020016002820154815260200160038201548152505090506000610fd382604001514361231f90919063ffffffff16565b905060008260200151905060008111156110155761100e81611000612710856122eb90919063ffffffff16565b61230190919063ffffffff16565b935061101a565b600093505b505050919050565b7f000000000000000000000000000000000000000000000000000000000000000081565b61104e612317565b73ffffffffffffffffffffffffffffffffffffffff1661106c61149b565b73ffffffffffffffffffffffffffffffffffffffff16146110c2576040517f08c379a00000000000000000000000000000000000000000000000000000000081526004016110b990613bed565b60405180910390fd5b6110cc6000612335565b565b6110d6612317565b73ffffffffffffffffffffffffffffffffffffffff166110f461149b565b73ffffffffffffffffffffffffffffffffffffffff161461114a576040517f08c379a000000000000000000000000000000000000000000000000000000000815260040161114190613bed565b60405180910390fd5b600060036000015414611192576040517f08c379a000000000000000000000000000000000000000000000000000000000815260040161118990613c6d565b60405180910390fd5b6040518060c00160405280888152602001878152602001868152602001858152602001848152602001838152506003600082015181600001556020820151816001015560408201518160020155606082015181600301556080820151816004015560a0820151816005015590505080600f819055504360108190555050505050505050565b600061123561122461218b565b600f5461231f90919063ffffffff16565b905090565b600260009054906101000a900473ffffffffffffffffffffffffffffffffffffffff1681565b6000611294662386f26fc100006112866112818561127c611ffd565b6123f9565b612600565b61230190919063ffffffff16565b9050919050565b60007f0000000000000000000000000000000000000000000000000000000000000000156113bf576113b860646113aa7f000000000000000000000000000000000000000000000000000000000000000073ffffffffffffffffffffffffffffffffffffffff166332da80a37f00000000000000000000000000000000000000000000000000000000000000006040518263ffffffff1660e01b815260040161134491906139a2565b60206040518083038186803b15801561135c57600080fd5b505afa158015611370573d6000803e3d6000fd5b505050506040513d601f19601f820116820180604052508101906113949190613192565b61139c611ffd565b6122eb90919063ffffffff16565b61230190919063ffffffff16565b9050611498565b61149560646114877f000000000000000000000000000000000000000000000000000000000000000073ffffffffffffffffffffffffffffffffffffffff1663313ce5676040518163ffffffff1660e01b815260040160206040518083038186803b15801561142d57600080fd5b505afa158015611441573d6000803e3d6000fd5b505050506040513d601f19601f8201168201806040525081019061146591906132a8565b600a6114719190613fa3565b611479611ffd565b6122eb90919063ffffffff16565b61230190919063ffffffff16565b90505b90565b60008060009054906101000a900473ffffffffffffffffffffffffffffffffffffffff16905090565b60008073ffffffffffffffffffffffffffffffffffffffff168273ffffffffffffffffffffffffffffffffffffffff161415611535576040517f08c379a000000000000000000000000000000000000000000000000000000000815260040161152c90613aad565b60405180910390fd5b61153d61263e565b600360050154600f541115611587576040517f08c379a000000000000000000000000000000000000000000000000000000000815260040161157e90613b8d565b60405180910390fd5b600061159161129b565b9050600061159d612669565b9050808510156115e2576040517f08c379a00000000000000000000000000000000000000000000000000000000081526004016115d990613c0d565b60405180910390fd5b60007f000000000000000000000000000000000000000000000000000000000000000073ffffffffffffffffffffffffffffffffffffffff1663d1b317e57f0000000000000000000000000000000000000000000000000000000000000000896040518363ffffffff1660e01b815260040161165f9291906139f4565b60206040518083038186803b15801561167757600080fd5b505afa15801561168b573d6000803e3d6000fd5b505050506040513d601f19601f820116820180604052508101906116af9190613192565b905060006116bc82611260565b9050662386f26fc10000811015611708576040517f08c379a00000000000000000000000000000000000000000000000000000000081526004016116ff90613bcd565b60405180910390fd5b6117106120bb565b811115611752576040517f08c379a000000000000000000000000000000000000000000000000000000000815260040161174990613c8d565b60405180910390fd5b6000611780612710611772600360040154856122eb90919063ffffffff16565b61230190919063ffffffff16565b905060006117a98261179b858761231f90919063ffffffff16565b61231f90919063ffffffff16565b90506117f833308c7f000000000000000000000000000000000000000000000000000000000000000073ffffffffffffffffffffffffffffffffffffffff166126ee909392919063ffffffff16565b7f000000000000000000000000000000000000000000000000000000000000000073ffffffffffffffffffffffffffffffffffffffff1663095ea7b37f00000000000000000000000000000000000000000000000000000000000000008c6040518363ffffffff1660e01b81526004016118739291906139f4565b602060405180830381600087803b15801561188d57600080fd5b505af11580156118a1573d6000803e3d6000fd5b505050506040513d601f19601f820116820180604052508101906118c591906130a1565b507f000000000000000000000000000000000000000000000000000000000000000073ffffffffffffffffffffffffffffffffffffffff1663bc157ac18b7f0000000000000000000000000000000000000000000000000000000000000000846040518463ffffffff1660e01b815260040161194393929190613d23565b602060405180830381600087803b15801561195d57600080fd5b505af1158015611971573d6000803e3d6000fd5b505050506040513d601f19601f820116820180604052508101906119959190613192565b5060008214611a0a57611a097f0000000000000000000000000000000000000000000000000000000000000000837f000000000000000000000000000000000000000000000000000000000000000073ffffffffffffffffffffffffffffffffffffffff166127779092919063ffffffff16565b5b611a1f84600f546127fd90919063ffffffff16565b600f819055506040518060800160405280611a8585600e60008d73ffffffffffffffffffffffffffffffffffffffff1673ffffffffffffffffffffffffffffffffffffffff168152602001908152602001600020600001546127fd90919063ffffffff16565b8152602001600360010154815260200143815260200187815250600e60008a73ffffffffffffffffffffffffffffffffffffffff1673ffffffffffffffffffffffffffffffffffffffff1681526020019081526020016000206000820151816000015560208201518160010155604082015181600201556060820151816003015590505085611b22600360010154436127fd90919063ffffffff16565b847f1fec6dc81f140574bf43f6b1e420ae1dd47928b9d57db8cbd7b8611063b85ae58d604051611b529190613d08565b60405180910390a4611b62611d3f565b611b6a612669565b611b7261129b565b7f375b221f40939bfd8f49723a17cf7bc6d576ebf72efe2cc3e991826f5b3f390a60405160405180910390a4611ba6612813565b8296505050505050509392505050565b60007f000000000000000000000000000000000000000000000000000000000000000015611cdd57611cd6633b9aca00611cc87f000000000000000000000000000000000000000000000000000000000000000073ffffffffffffffffffffffffffffffffffffffff166332da80a37f00000000000000000000000000000000000000000000000000000000000000006040518263ffffffff1660e01b8152600401611c6291906139a2565b60206040518083038186803b158015611c7a57600080fd5b505afa158015611c8e573d6000803e3d6000fd5b505050506040513d601f19601f82011682018060405250810190611cb29190613192565b611cba611d3f565b6122eb90919063ffffffff16565b61230190919063ffffffff16565b9050611ce8565b611ce5611d3f565b90505b90565b7f000000000000000000000000000000000000000000000000000000000000000081565b600e6020528060005260406000206000915090508060000154908060010154908060020154908060030154905084565b6000807f000000000000000000000000000000000000000000000000000000000000000073ffffffffffffffffffffffffffffffffffffffff166318160ddd6040518163ffffffff1660e01b815260040160206040518083038186803b158015611da857600080fd5b505afa158015611dbc573d6000803e3d6000fd5b505050506040513d601f19601f82011682018060405250810190611de09190613192565b9050611e2b670de0b6b3a7640000611e1d611e18611e12633b9aca00611e04611217565b6122eb90919063ffffffff16565b856123f9565b612600565b61230190919063ffffffff16565b91505090565b611e39612317565b73ffffffffffffffffffffffffffffffffffffffff16611e5761149b565b73ffffffffffffffffffffffffffffffffffffffff1614611ead576040517f08c379a0000000000000000000000000000000000000000000000000000000008152600401611ea490613bed565b60405180910390fd5b600073ffffffffffffffffffffffffffffffffffffffff168273ffffffffffffffffffffffffffffffffffffffff161415611ee757600080fd5b8015611f4e576001600260146101000a81548160ff02191690831515021790555081600260006101000a81548173ffffffffffffffffffffffffffffffffffffffff021916908373ffffffffffffffffffffffffffffffffffffffff160217905550611fab565b6000600260146101000a81548160ff02191690831515021790555081600160006101000a81548173ffffffffffffffffffffffffffffffffffffffff021916908373ffffffffffffffffffffffffffffffffffffffff1602179055505b5050565b60038060000154908060010154908060020154908060030154908060040154908060050154905086565b7f000000000000000000000000000000000000000000000000000000000000000081565b60006120496298968061203b633b9aca0061202d612019611d3f565b6003600001546122eb90919063ffffffff16565b6127fd90919063ffffffff16565b61230190919063ffffffff16565b90506003600201548110156120615760036002015490505b90565b61206c612f42565b6040518060c00160405280600360000154815260200160036001015481526020016003600201548152602001600380015481526020016003600401548152602001600360050154815250905090565b6000612186620186a061217860038001547f000000000000000000000000000000000000000000000000000000000000000073ffffffffffffffffffffffffffffffffffffffff166318160ddd6040518163ffffffff1660e01b815260040160206040518083038186803b15801561213257600080fd5b505afa158015612146573d6000803e3d6000fd5b505050506040513d601f19601f8201168201806040525081019061216a9190613192565b6122eb90919063ffffffff16565b61230190919063ffffffff16565b905090565b6000806121a36010544361231f90919063ffffffff16565b90506121d16003600101546121c383600f546122eb90919063ffffffff16565b61230190919063ffffffff16565b9150600f548211156121e357600f5491505b5090565b6121ef612317565b73ffffffffffffffffffffffffffffffffffffffff1661220d61149b565b73ffffffffffffffffffffffffffffffffffffffff1614612263576040517f08c379a000000000000000000000000000000000000000000000000000000000815260040161225a90613bed565b60405180910390fd5b600073ffffffffffffffffffffffffffffffffffffffff168173ffffffffffffffffffffffffffffffffffffffff1614156122d3576040517f08c379a00000000000000000000000000000000000000000000000000000000081526004016122ca90613acd565b60405180910390fd5b6122dc81612335565b50565b60105481565b600f5481565b600081836122f991906140c1565b905092915050565b6000818361230f9190613f1f565b905092915050565b600033905090565b6000818361232d919061411b565b905092915050565b60008060009054906101000a900473ffffffffffffffffffffffffffffffffffffffff169050816000806101000a81548173ffffffffffffffffffffffffffffffffffffffff021916908373ffffffffffffffffffffffffffffffffffffffff1602179055508173ffffffffffffffffffffffffffffffffffffffff168173ffffffffffffffffffffffffffffffffffffffff167f8be0079c531659141344cd1fd0a4f28419497f9722a3daafe3b4186f6b6457e060405160405180910390a35050565b612401612f78565b60008211612444576040517f08c379a000000000000000000000000000000000000000000000000000000000815260040161243b90613b4d565b60405180910390fd5b600083141561248257604051806020016040528060007bffffffffffffffffffffffffffffffffffffffffffffffffffffffff1681525090506125fa565b71ffffffffffffffffffffffffffffffffffff8016831161254a57600082607060ff1685901b6124b29190613f1f565b90507bffffffffffffffffffffffffffffffffffffffffffffffffffffffff8016811115612515576040517f08c379a000000000000000000000000000000000000000000000000000000000815260040161250c90613c4d565b60405180910390fd5b6040518060200160405280827bffffffffffffffffffffffffffffffffffffffffffffffffffffffff168152509150506125fa565b6000612566846e01000000000000000000000000000085612965565b90507bffffffffffffffffffffffffffffffffffffffffffffffffffffffff80168111156125c9576040517f08c379a00000000000000000000000000000000000000000000000000000000081526004016125c090613c4d565b60405180910390fd5b6040518060200160405280827bffffffffffffffffffffffffffffffffffffffffffffffffffffffff168152509150505b92915050565b60006612725dd1d243ab82600001517bffffffffffffffffffffffffffffffffffffffffffffffffffffffff166126379190613f1f565b9050919050565b61265a61264961218b565b600f5461231f90919063ffffffff16565b600f8190555043601081905550565b60006126b5629896806126a7633b9aca00612699612685611d3f565b6003600001546122eb90919063ffffffff16565b6127fd90919063ffffffff16565b61230190919063ffffffff16565b90506003600201548110156126d15760036002015490506126eb565b6000600360020154146126ea5760006003600201819055505b5b90565b612771846323b872dd60e01b85858560405160240161270f939291906139bd565b604051602081830303815290604052907bffffffffffffffffffffffffffffffffffffffffffffffffffffffff19166020820180517bffffffffffffffffffffffffffffffffffffffffffffffffffffffff8381831617835250505050612a33565b50505050565b6127f88363a9059cbb60e01b84846040516024016127969291906139f4565b604051602081830303815290604052907bffffffffffffffffffffffffffffffffffffffffffffffffffffffff19166020820180517bffffffffffffffffffffffffffffffffffffffffffffffffffffffff8381831617835250505050612a33565b505050565b6000818361280b9190613ec9565b905092915050565b60006128326009600301546009600401546127fd90919063ffffffff16565b905060006009600101541415801561284a5750804310155b156129625760006003600001549050600960000160009054906101000a900460ff16156128b95761288e6009600101546003600001546127fd90919063ffffffff16565b600360000181905550600960020154600360000154106128b45760006009600101819055505b6128fd565b6128d660096001015460036000015461231f90919063ffffffff16565b600360000181905550600960020154600360000154116128fc5760006009600101819055505b5b436009600401819055507fb923e581a0f83128e9e1d8297aa52b18d6744310476e0b54509c054cd7a93b2a81600360000154600960010154600960000160009054906101000a900460ff166040516129589493929190613dac565b60405180910390a1505b50565b60008060006129748686612afa565b91509150600084806129af577f4e487b7100000000000000000000000000000000000000000000000000000000600052601260045260246000fd5b8688099050828111156129cc576001826129c9919061411b565b91505b80836129d8919061411b565b9250848210612a1c576040517f08c379a0000000000000000000000000000000000000000000000000000000008152600401612a1390613bad565b60405180910390fd5b612a27838387612b95565b93505050509392505050565b6000612a95826040518060400160405280602081526020017f5361666545524332303a206c6f772d6c6576656c2063616c6c206661696c65648152508573ffffffffffffffffffffffffffffffffffffffff16612d9c9092919063ffffffff16565b9050600081511115612af55780806020019051810190612ab591906130a1565b612af4576040517f08c379a0000000000000000000000000000000000000000000000000000000008152600401612aeb90613ccd565b60405180910390fd5b5b505050565b60008060007fffffffffffffffffffffffffffffffffffffffffffffffffffffffffffffffff80612b54577f4e487b7100000000000000000000000000000000000000000000000000000000600052601260045260246000fd5b84860990508385612b6591906140c1565b92508281612b73919061411b565b915082811015612b8d57600182612b8a919061411b565b91505b509250929050565b6000806001837fffffffffffffffffffffffffffffffffffffffffffffffffffffffffffffffff612bc6919061411b565b612bd09190613ec9565b831690508083612be09190613f1f565b92508085612bee9190613f1f565b94506001816001837fffffffffffffffffffffffffffffffffffffffffffffffffffffffffffffffff612c21919061411b565b612c2b9190613ec9565b612c359190613f1f565b612c3f9190613ec9565b84612c4a91906140c1565b85612c559190613ec9565b94506000600190508084612c6991906140c1565b6002612c75919061411b565b81612c8091906140c1565b90508084612c8e91906140c1565b6002612c9a919061411b565b81612ca591906140c1565b90508084612cb391906140c1565b6002612cbf919061411b565b81612cca91906140c1565b90508084612cd891906140c1565b6002612ce4919061411b565b81612cef91906140c1565b90508084612cfd91906140c1565b6002612d09919061411b565b81612d1491906140c1565b90508084612d2291906140c1565b6002612d2e919061411b565b81612d3991906140c1565b90508084612d4791906140c1565b6002612d53919061411b565b81612d5e91906140c1565b90508084612d6c91906140c1565b6002612d78919061411b565b81612d8391906140c1565b90508086612d9191906140c1565b925050509392505050565b6060612dab8484600085612db4565b90509392505050565b606082471015612df9576040517f08c379a0000000000000000000000000000000000000000000000000000000008152600401612df090613b2d565b60405180910390fd5b612e0285612ec8565b612e41576040517f08c379a0000000000000000000000000000000000000000000000000000000008152600401612e3890613cad565b60405180910390fd5b6000808673ffffffffffffffffffffffffffffffffffffffff168587604051612e6a919061398b565b60006040518083038185875af1925050503d8060008114612ea7576040519150601f19603f3d011682016040523d82523d6000602084013e612eac565b606091505b5091509150612ebc828286612edb565b92505050949350505050565b600080823b905060008111915050919050565b60608315612eeb57829050612f3b565b600083511115612efe5782518084602001fd5b816040517f08c379a0000000000000000000000000000000000000000000000000000000008152600401612f329190613a8b565b60405180910390fd5b9392505050565b6040518060c001604052806000815260200160008152602001600081526020016000815260200160008152602001600081525090565b604051806020016040528060007bffffffffffffffffffffffffffffffffffffffffffffffffffffffff1681525090565b600081359050612fb881614265565b92915050565b600081359050612fcd8161427c565b92915050565b600081519050612fe28161427c565b92915050565b600081359050612ff781614293565b92915050565b60008135905061300c816142a3565b92915050565b600081519050613021816142a3565b92915050565b600081519050613036816142ba565b92915050565b60006020828403121561304e57600080fd5b600061305c84828501612fa9565b91505092915050565b6000806040838503121561307857600080fd5b600061308685828601612fa9565b925050602061309785828601612fbe565b9150509250929050565b6000602082840312156130b357600080fd5b60006130c184828501612fd3565b91505092915050565b600080600080608085870312156130e057600080fd5b60006130ee87828801612fbe565b94505060206130ff87828801612ffd565b935050604061311087828801612ffd565b925050606061312187828801612ffd565b91505092959194509250565b6000806040838503121561314057600080fd5b600061314e85828601612fe8565b925050602061315f85828601612ffd565b9150509250929050565b60006020828403121561317b57600080fd5b600061318984828501612ffd565b91505092915050565b6000602082840312156131a457600080fd5b60006131b284828501613012565b91505092915050565b6000806000606084860312156131d057600080fd5b60006131de86828701612ffd565b93505060206131ef86828701612ffd565b925050604061320086828701612fa9565b9150509250925092565b600080600080600080600060e0888a03121561322557600080fd5b60006132338a828b01612ffd565b97505060206132448a828b01612ffd565b96505060406132558a828b01612ffd565b95505060606132668a828b01612ffd565b94505060806132778a828b01612ffd565b93505060a06132888a828b01612ffd565b92505060c06132998a828b01612ffd565b91505092959891949750929550565b6000602082840312156132ba57600080fd5b60006132c884828501613027565b91505092915050565b6132da8161414f565b82525050565b6132e981614161565b82525050565b60006132fa82613e97565b6133048185613ead565b93506133148185602086016141b6565b80840191505092915050565b613329816141a4565b82525050565b600061333a82613ea2565b6133448185613eb8565b93506133548185602086016141b6565b61335d81614247565b840191505092915050565b6000613375600f83613eb8565b91507f496e76616c6964206164647265737300000000000000000000000000000000006000830152602082019050919050565b60006133b5602683613eb8565b91507f4f776e61626c653a206e6577206f776e657220697320746865207a65726f206160008301527f64647265737300000000000000000000000000000000000000000000000000006020830152604082019050919050565b600061341b602083613eb8565b91507f5061796f75742063616e6e6f742062652061626f766520312070657263656e746000830152602082019050919050565b600061345b602183613eb8565b91507f5472656173757279206665652063616e6e6f7420657863656564207061796f7560008301527f74000000000000000000000000000000000000000000000000000000000000006020830152604082019050919050565b60006134c1602683613eb8565b91507f416464726573733a20696e73756666696369656e742062616c616e636520666f60008301527f722063616c6c00000000000000000000000000000000000000000000000000006020830152604082019050919050565b6000613527602683613eb8565b91507f4669786564506f696e743a3a6672616374696f6e3a206469766973696f6e206260008301527f79207a65726f00000000000000000000000000000000000000000000000000006020830152604082019050919050565b600061358d601383613eb8565b91507f496e6372656d656e7420746f6f206c61726765000000000000000000000000006000830152602082019050919050565b60006135cd601483613eb8565b91507f4d617820636170616369747920726561636865640000000000000000000000006000830152602082019050919050565b600061360d601a83613eb8565b91507f46756c6c4d6174683a3a6d756c4469763a206f766572666c6f770000000000006000830152602082019050919050565b600061364d600e83613eb8565b91507f426f6e6420746f6f20736d616c6c0000000000000000000000000000000000006000830152602082019050919050565b600061368d602083613eb8565b91507f4f776e61626c653a2063616c6c6572206973206e6f7420746865206f776e65726000830152602082019050919050565b60006136cd602383613eb8565b91507f536c697070616765206c696d69743a206d6f7265207468616e206d617820707260008301527f69636500000000000000000000000000000000000000000000000000000000006020830152604082019050919050565b6000613733602483613eb8565b91507f56657374696e67206d757374206265206c6f6e676572207468616e203336206860008301527f6f757273000000000000000000000000000000000000000000000000000000006020830152604082019050919050565b6000613799601e83613eb8565b91507f4669786564506f696e743a3a6672616374696f6e3a206f766572666c6f7700006000830152602082019050919050565b60006137d9602083613eb8565b91507f426f6e6473206d75737420626520696e697469616c697a65642066726f6d20306000830152602082019050919050565b6000613819600e83613eb8565b91507f426f6e6420746f6f206c617267650000000000000000000000000000000000006000830152602082019050919050565b6000613859601d83613eb8565b91507f416464726573733a2063616c6c20746f206e6f6e2d636f6e74726163740000006000830152602082019050919050565b6000613899602a83613eb8565b91507f5361666545524332303a204552433230206f7065726174696f6e20646964206e60008301527f6f742073756363656564000000000000000000000000000000000000000000006020830152604082019050919050565b60c082016000820151613908600085018261396d565b50602082015161391b602085018261396d565b50604082015161392e604085018261396d565b506060820151613941606085018261396d565b506080820151613954608085018261396d565b5060a082015161396760a085018261396d565b50505050565b6139768161418d565b82525050565b6139858161418d565b82525050565b600061399782846132ef565b915081905092915050565b60006020820190506139b760008301846132d1565b92915050565b60006060820190506139d260008301866132d1565b6139df60208301856132d1565b6139ec604083018461397c565b949350505050565b6000604082019050613a0960008301856132d1565b613a16602083018461397c565b9392505050565b6000602082019050613a3260008301846132e0565b92915050565b600060a082019050613a4d60008301886132e0565b613a5a602083018761397c565b613a67604083018661397c565b613a74606083018561397c565b613a81608083018461397c565b9695505050505050565b60006020820190508181036000830152613aa5818461332f565b905092915050565b60006020820190508181036000830152613ac681613368565b9050919050565b60006020820190508181036000830152613ae6816133a8565b9050919050565b60006020820190508181036000830152613b068161340e565b9050919050565b60006020820190508181036000830152613b268161344e565b9050919050565b60006020820190508181036000830152613b46816134b4565b9050919050565b60006020820190508181036000830152613b668161351a565b9050919050565b60006020820190508181036000830152613b8681613580565b9050919050565b60006020820190508181036000830152613ba6816135c0565b9050919050565b60006020820190508181036000830152613bc681613600565b9050919050565b60006020820190508181036000830152613be681613640565b9050919050565b60006020820190508181036000830152613c0681613680565b9050919050565b60006020820190508181036000830152613c26816136c0565b9050919050565b60006020820190508181036000830152613c4681613726565b9050919050565b60006020820190508181036000830152613c668161378c565b9050919050565b60006020820190508181036000830152613c86816137cc565b9050919050565b60006020820190508181036000830152613ca68161380c565b9050919050565b60006020820190508181036000830152613cc68161384c565b9050919050565b60006020820190508181036000830152613ce68161388c565b9050919050565b600060c082019050613d0260008301846138f2565b92915050565b6000602082019050613d1d600083018461397c565b92915050565b6000606082019050613d38600083018661397c565b613d4560208301856132d1565b613d52604083018461397c565b949350505050565b6000604082019050613d6f600083018561397c565b613d7c6020830184613320565b9392505050565b6000604082019050613d98600083018561397c565b613da5602083018461397c565b9392505050565b6000608082019050613dc1600083018761397c565b613dce602083018661397c565b613ddb604083018561397c565b613de860608301846132e0565b95945050505050565b6000608082019050613e06600083018761397c565b613e13602083018661397c565b613e20604083018561397c565b613e2d606083018461397c565b95945050505050565b600060c082019050613e4b600083018961397c565b613e58602083018861397c565b613e65604083018761397c565b613e72606083018661397c565b613e7f608083018561397c565b613e8c60a083018461397c565b979650505050505050565b600081519050919050565b600081519050919050565b600081905092915050565b600082825260208201905092915050565b6000613ed48261418d565b9150613edf8361418d565b9250827fffffffffffffffffffffffffffffffffffffffffffffffffffffffffffffffff03821115613f1457613f136141e9565b5b828201905092915050565b6000613f2a8261418d565b9150613f358361418d565b925082613f4557613f44614218565b5b828204905092915050565b6000808291508390505b6001851115613f9a57808604811115613f7657613f756141e9565b5b6001851615613f855780820291505b8081029050613f9385614258565b9450613f5a565b94509492505050565b6000613fae8261418d565b9150613fb983614197565b9250613fe67fffffffffffffffffffffffffffffffffffffffffffffffffffffffffffffffff8484613fee565b905092915050565b600082613ffe57600190506140ba565b8161400c57600090506140ba565b8160018114614022576002811461402c5761405b565b60019150506140ba565b60ff84111561403e5761403d6141e9565b5b8360020a915084821115614055576140546141e9565b5b506140ba565b5060208310610133831016604e8410600b84101617156140905782820a90508381111561408b5761408a6141e9565b5b6140ba565b61409d8484846001613f50565b925090508184048111156140b4576140b36141e9565b5b81810290505b9392505050565b60006140cc8261418d565b91506140d78361418d565b9250817fffffffffffffffffffffffffffffffffffffffffffffffffffffffffffffffff04831182151516156141105761410f6141e9565b5b828202905092915050565b60006141268261418d565b91506141318361418d565b925082821015614144576141436141e9565b5b828203905092915050565b600061415a8261416d565b9050919050565b60008115159050919050565b600073ffffffffffffffffffffffffffffffffffffffff82169050919050565b6000819050919050565b600060ff82169050919050565b60006141af8261418d565b9050919050565b60005b838110156141d45780820151818401526020810190506141b9565b838111156141e3576000848401525b50505050565b7f4e487b7100000000000000000000000000000000000000000000000000000000600052601160045260246000fd5b7f4e487b7100000000000000000000000000000000000000000000000000000000600052601260045260246000fd5b6000601f19601f8301169050919050565b60008160011c9050919050565b61426e8161414f565b811461427957600080fd5b50565b61428581614161565b811461429057600080fd5b50565b600481106142a057600080fd5b50565b6142ac8161418d565b81146142b757600080fd5b50565b6142c381614197565b81146142ce57600080fd5b5056fea2646970667358221220d6024c327351c75023c99f7bc77502fe033ba1ac95db1482ccbf645617a274df64736f6c63430008000033",
  "immutableReferences": {
    "2523": [
      {
        "length": 32,
        "start": 3873
      },
      {
        "length": 32,
        "start": 6597
      },
      {
        "length": 32,
        "start": 7492
      },
      {
        "length": 32,
        "start": 8398
      }
    ],
    "2525": [
      {
        "length": 32,
        "start": 1594
      },
      {
        "length": 32,
        "start": 4873
      },
      {
        "length": 32,
        "start": 5065
      },
      {
        "length": 32,
        "start": 5666
      },
      {
        "length": 32,
        "start": 6067
      },
      {
        "length": 32,
        "start": 6138
      },
      {
        "length": 32,
        "start": 6405
      },
      {
        "length": 32,
        "start": 7207
      }
    ],
    "2527": [
      {
        "length": 32,
        "start": 4132
      },
      {
        "length": 32,
        "start": 5606
      },
      {
        "length": 32,
        "start": 6198
      },
      {
        "length": 32,
        "start": 6344
      },
      {
        "length": 32,
        "start": 6563
      }
    ],
    "2529": [
      {
        "length": 32,
        "start": 4767
      },
      {
        "length": 32,
        "start": 7098
      },
      {
        "length": 32,
        "start": 8155
      }
    ],
    "2531": [
      {
        "length": 32,
        "start": 4813
      },
      {
        "length": 32,
        "start": 7147
      },
      {
        "length": 32,
        "start": 7405
      }
    ]
  },
  "source": "// SPDX-License-Identifier: AGPL-3.0-or-later\npragma solidity 0.8.0;\n\nimport \"@openzeppelin/contracts/token/ERC20/ERC20.sol\";\nimport \"@openzeppelin/contracts/token/ERC20/utils/SafeERC20.sol\";\nimport \"@openzeppelin/contracts/utils/math/SafeMath.sol\";\nimport \"@openzeppelin/contracts/access/Ownable.sol\";\nimport \"./util/MathOther.sol\";\nimport \"./AthertonModels.sol\";\n\n// TODO-hightlight :: main logic\n\ncontract AthertonBondDepository is Ownable {\n\n    using FixedPoint for *;\n    using SafeERC20 for IERC20;\n    using SafeMath for uint;\n\n\n\n\n    /* ======== EVENTS ======== */\n\n    event BondCreated( uint deposit, uint indexed payout, uint indexed expires, uint indexed priceInUSD );\n    event BondRedeemed( address indexed recipient, uint payout, uint remaining );\n    event BondPriceChanged( uint indexed priceInUSD, uint indexed internalPrice, uint indexed debtRatio );\n    event ControlVariableAdjustment( uint initialBCV, uint newBCV, uint adjustment, bool addition );\n\n\n\n\n    /* ======== STATE VARIABLES ======== */\n\n    address public immutable ATHER; // token given as payment for bond\n    address public immutable principle; // token used to create bond\n    address public immutable treasury; // mints ATHER when receives principle\n\n    bool public immutable isLiquidityBond; // LP and Reserve bonds are treated slightly different\n    address public immutable bondCalculator; // calculates value of LP tokens\n\n    address public staking; // to auto-stake payout\n    address public stakingHelper; // to stake and claim if no staking warmup\n    bool public useHelper;\n\n    Terms public terms; // stores terms for new bonds\n    Adjust public adjustment; // stores adjustment to BCV data\n\n    mapping( address => Bond ) public bondInfo; // stores bond information for depositors\n\n    uint public totalDebt; // total value of outstanding bonds; used for pricing\n    uint public lastDecay; // reference block for debt decay\n\n\n\n\n    /* ======== STRUCTS ======== */\n\n    // Info for creating new bonds\n    struct Terms {\n        uint controlVariable; // scaling variable for price\n        uint vestingTerm; // in blocks\n        uint minimumPrice; // vs principle value\n        uint maxPayout; // in thousandths of a %. i.e. 500 = 0.5%\n        uint fee; // as % of bond payout, in hundreths. ( 500 = 5% = 0.05 for every 1 paid)\n        uint maxDebt; // 9 decimal debt ratio, max % total supply created as debt\n    }\n\n    // Info for bond holder\n    struct Bond {\n        uint payout; // ATHER remaining to be paid\n        uint vesting; // Blocks left to vest\n        uint lastBlock; // Last interaction\n        uint pricePaid; // In DAI, for front end viewing\n    }\n\n    // Info for incremental adjustments to control variable \n    struct Adjust {\n        bool add; // addition or subtraction\n        uint rate; // increment\n        uint target; // BCV when adjustment finished\n        uint buffer; // minimum length (in blocks) between adjustments\n        uint lastBlock; // block when last adjustment made\n    }\n\n\n\n\n    /* ======== INITIALIZATION ======== */\n\n    constructor ( \n        address _treasury,\n        address _ATHER,\n        address _principle,\n        address _bondCalculator\n    ) {\n        require( _ATHER != address(0) );\n        ATHER = _ATHER;\n        require( _principle != address(0) );\n        principle = _principle;\n        require( _treasury != address(0) );\n        treasury = _treasury;\n        // bondCalculator should be address(0) if not LP bond\n        bondCalculator = _bondCalculator;\n        isLiquidityBond = ( _bondCalculator != address(0) );\n    }\n\n    /**\n     *  @notice initializes bond parameters\n     *  @param _controlVariable uint\n     *  @param _vestingTerm uint\n     *  @param _minimumPrice uint\n     *  @param _maxPayout uint\n     *  @param _fee uint\n     *  @param _maxDebt uint\n     *  @param _initialDebt uint\n     */\n    function initializeBondTerms( \n        uint _controlVariable, \n        uint _vestingTerm,\n        uint _minimumPrice,\n        uint _maxPayout,\n        uint _fee,\n        uint _maxDebt,\n        uint _initialDebt\n    ) external onlyOwner() {\n        require( terms.controlVariable == 0, \"Bonds must be initialized from 0\" );\n        terms = Terms ({\n            controlVariable: _controlVariable,\n            vestingTerm: _vestingTerm,\n            minimumPrice: _minimumPrice,\n            maxPayout: _maxPayout,\n            fee: _fee,\n            maxDebt: _maxDebt\n        });\n        totalDebt = _initialDebt;\n        lastDecay = block.number;\n    }\n\n\n\n    \n    /* ======== POLICY FUNCTIONS ======== */\n\n    enum PARAMETER { VESTING, PAYOUT, FEE, DEBT }\n    /**\n     *  @notice set parameters for new bonds\n     *  @param _parameter PARAMETER\n     *  @param _input uint\n     */\n    function setBondTerms ( PARAMETER _parameter, uint _input ) external onlyOwner() {\n        if ( _parameter == PARAMETER.VESTING ) { // 0\n            require( _input >= 10000, \"Vesting must be longer than 36 hours\" );\n            terms.vestingTerm = _input;\n        } else if ( _parameter == PARAMETER.PAYOUT ) { // 1\n            require( _input <= 1000, \"Payout cannot be above 1 percent\" );\n            terms.maxPayout = _input;\n        } else if ( _parameter == PARAMETER.FEE ) { // 2\n            require( _input <= 10000, \"Treasury fee cannot exceed payout\" );\n            terms.fee = _input;\n        } else if ( _parameter == PARAMETER.DEBT ) { // 3\n            terms.maxDebt = _input;\n        }\n    }\n\n    /**\n     *  @notice set control variable adjustment\n     *  @param _addition bool\n     *  @param _increment uint\n     *  @param _target uint\n     *  @param _buffer uint\n     */\n    function setAdjustment ( \n        bool _addition,\n        uint _increment, \n        uint _target,\n        uint _buffer \n    ) external onlyOwner() {\n        require( _increment <= terms.controlVariable.mul( 25 ).div( 1000 ), \"Increment too large\" );\n\n        adjustment = Adjust({\n            add: _addition,\n            rate: _increment,\n            target: _target,\n            buffer: _buffer,\n            lastBlock: block.number\n        });\n    }\n\n    /**\n     *  @notice set contract for auto stake\n     *  @param _staking address\n     *  @param _helper bool\n     */\n    function setStaking( address _staking, bool _helper ) external onlyOwner() {\n        require( _staking != address(0) );\n        if ( _helper ) {\n            useHelper = true;\n            stakingHelper = _staking;\n        } else {\n            useHelper = false;\n            staking = _staking;\n        }\n    }\n\n\n    \n\n    /* ======== USER FUNCTIONS ======== */\n\n    /**\n     *  @notice deposit bond\n     *  @param _amount uint\n     *  @param _maxPrice uint\n     *  @param _depositor address\n     *  @return uint\n     */\n    function deposit( \n        uint _amount, \n        uint _maxPrice,\n        address _depositor\n    ) external returns ( uint ) {\n        require( _depositor != address(0), \"Invalid address\" );\n\n        decayDebt();\n        require( totalDebt <= terms.maxDebt, \"Max capacity reached\" );\n        \n        uint priceInUSD = bondPriceInUSD(); // Stored in bond info\n        uint nativePrice = _bondPrice();\n\n        require( _maxPrice >= nativePrice, \"Slippage limit: more than max price\" ); // slippage protection\n\n        uint value = ITreasury( treasury ).valueOfToken( principle, _amount );\n        uint payout = payoutFor( value ); // payout to bonder is computed\n\n        require( payout >= 10000000000000000, \"Bond too small\" ); // must be > 0.01 ATHER ( underflow protection )\n        require( payout <= maxPayout(), \"Bond too large\"); // size protection because there is no slippage\n\n        // profits are calculated\n        uint fee = payout.mul( terms.fee ).div( 10000 );\n        uint profit = value.sub( payout ).sub( fee );\n\n        /**\n            principle is transferred in\n            approved and\n            deposited into the treasury, returning (_amount - profit) ATHER\n         */\n        IERC20( principle ).safeTransferFrom( msg.sender, address(this), _amount );\n        IERC20( principle ).approve( address( treasury ), _amount );\n        ITreasury( treasury ).deposit( _amount, principle, profit );\n        \n        if ( fee != 0 ) { // fee is transferred to dao \n            IERC20( ATHER ).safeTransfer( address( treasury ), fee );\n        }\n        \n        // total debt is increased\n        totalDebt = totalDebt.add( value ); \n                \n        // depositor info is stored\n        bondInfo[ _depositor ] = Bond({ \n            payout: bondInfo[ _depositor ].payout.add( payout ),\n            vesting: terms.vestingTerm,\n            lastBlock: block.number,\n            pricePaid: priceInUSD\n        });\n\n        // indexed events are emitted\n        emit BondCreated( _amount, payout, block.number.add( terms.vestingTerm ), priceInUSD );\n        emit BondPriceChanged( bondPriceInUSD(), _bondPrice(), debtRatio() );\n\n        adjust(); // control variable is adjusted\n        return payout; \n    }\n\n    /** \n     *  @notice redeem bond for user\n     *  @param _recipient address\n     *  @param _stake bool\n     *  @return uint\n     */ \n    function redeem( address _recipient, bool _stake ) external returns ( uint ) {        \n        Bond memory info = bondInfo[ _recipient ];\n        uint percentVested = percentVestedFor( _recipient ); // (blocks since last interaction / vesting term remaining)\n\n        if ( percentVested >= 10000 ) { // if fully vested\n            delete bondInfo[ _recipient ]; // delete user info\n            emit BondRedeemed( _recipient, info.payout, 0 ); // emit bond data\n            return 0;\n            // return stakeOrSend( _recipient, _stake, info.payout ); // pay user everything due\n\n        } else { // if unfinished\n            // calculate payout vested\n            uint payout = info.payout.mul( percentVested ).div( 10000 );\n\n            // store updated deposit info\n            bondInfo[ _recipient ] = Bond({\n                payout: info.payout.sub( payout ),\n                vesting: info.vesting.sub( block.number.sub( info.lastBlock ) ),\n                lastBlock: block.number,\n                pricePaid: info.pricePaid\n            });\n\n            emit BondRedeemed( _recipient, payout, bondInfo[ _recipient ].payout );\n            return 0;\n            // return stakeOrSend( _recipient, _stake, payout );\n        }\n    }\n\n\n\n\n    /**\n     *  @notice makes incremental adjustment to control variable\n     */\n    function adjust() internal {\n        uint blockCanAdjust = adjustment.lastBlock.add( adjustment.buffer );\n        if( adjustment.rate != 0 && block.number >= blockCanAdjust ) {\n            uint initial = terms.controlVariable;\n            if ( adjustment.add ) {\n                terms.controlVariable = terms.controlVariable.add( adjustment.rate );\n                if ( terms.controlVariable >= adjustment.target ) {\n                    adjustment.rate = 0;\n                }\n            } else {\n                terms.controlVariable = terms.controlVariable.sub( adjustment.rate );\n                if ( terms.controlVariable <= adjustment.target ) {\n                    adjustment.rate = 0;\n                }\n            }\n            adjustment.lastBlock = block.number;\n            emit ControlVariableAdjustment( initial, terms.controlVariable, adjustment.rate, adjustment.add );\n        }\n    }\n\n    /**\n     *  @notice reduce total debt\n     */\n    function decayDebt() internal {\n        totalDebt = totalDebt.sub( debtDecay() );\n        lastDecay = block.number;\n    }\n\n\n\n\n    /* ======== VIEW FUNCTIONS ======== */\n\n    /**\n     *  @notice determine maximum bond size\n     *  @return uint\n     */\n    function maxPayout() public view returns ( uint ) {\n        return IERC20( ATHER ).totalSupply().mul( terms.maxPayout ).div( 100000 );\n    }\n\n    /**\n     *  @notice calculate interest due for new bond\n     *  @param _value uint\n     *  @return uint\n     */\n    function payoutFor( uint _value ) public view returns ( uint ) {\n        return FixedPoint.fraction( _value, bondPrice() ).decode112with18().div( 1e16 );\n    }\n\n\n    /**\n     *  @notice calculate current bond premium\n     *  @return price_ uint\n     */\n    function bondPrice() public view returns ( uint price_ ) {        \n        price_ = terms.controlVariable.mul( debtRatio() ).add( 1000000000 ).div( 1e7 );\n        if ( price_ < terms.minimumPrice ) {\n            price_ = terms.minimumPrice;\n        }\n    }\n\n    /**\n     *  @notice calculate current bond premium\n     *  @return price_ uint\n     */\n    function bondTerms() public view returns ( Terms memory ) {        \n        return Terms({\n          controlVariable: terms.controlVariable, // scaling variable for price\n          vestingTerm: terms.vestingTerm, // in blocks\n          minimumPrice: terms.minimumPrice, // vs principle value\n          maxPayout: terms.maxPayout, // in thousandths of a %. i.e. 500 = 0.5%\n          fee: terms.fee, // as % of bond payout, in hundreths. ( 500 = 5% = 0.05 for every 1 paid)\n          maxDebt: terms.maxDebt // 9 decimal debt ratio, max % total supply created as debt\n        });\n    }\n\n    /**\n     *  @notice calculate current bond price and remove floor if above\n     *  @return price_ uint\n     */\n    function _bondPrice() internal returns ( uint price_ ) {\n        price_ = terms.controlVariable.mul( debtRatio() ).add( 1000000000 ).div( 1e7 );\n        if ( price_ < terms.minimumPrice ) {\n            price_ = terms.minimumPrice;        \n        } else if ( terms.minimumPrice != 0 ) {\n            terms.minimumPrice = 0;\n        }\n    }\n\n    /**\n     *  @notice converts bond price to DAI value\n     *  @return price_ uint\n     */\n    function bondPriceInUSD() public view returns ( uint price_ ) {\n        if( isLiquidityBond ) {\n            price_ = bondPrice().mul( IBondCalculator( bondCalculator ).markdown( principle ) ).div( 100 );\n        } else {\n            price_ = bondPrice().mul( 10 ** ERC20( principle ).decimals() ).div( 100 );\n        }\n    }\n\n\n    /**\n     *  @notice calculate current ratio of debt to ATHER supply\n     *  @return debtRatio_ uint\n     */\n    function debtRatio() public view returns ( uint debtRatio_ ) {   \n        uint supply = IERC20( ATHER ).totalSupply();\n        debtRatio_ = FixedPoint.fraction( \n            currentDebt().mul( 1e9 ), \n            supply\n        ).decode112with18().div( 1e18 );\n    }\n\n    /**\n     *  @notice debt ratio in same terms for reserve or liquidity bonds\n     *  @return uint\n     */\n    function standardizedDebtRatio() external view returns ( uint ) {\n        if ( isLiquidityBond ) {\n            return debtRatio().mul( IBondCalculator( bondCalculator ).markdown( principle ) ).div( 1e9 );\n        } else {\n            return debtRatio();\n        }\n    }\n\n    /**\n     *  @notice calculate debt factoring in decay\n     *  @return uint\n     */\n    function currentDebt() public view returns ( uint ) {\n        return totalDebt.sub( debtDecay() );\n    }\n\n    /**\n     *  @notice amount to decay total debt by\n     *  @return decay_ uint\n     */\n    function debtDecay() public view returns ( uint decay_ ) {\n        uint blocksSinceLast = block.number.sub( lastDecay );\n        decay_ = totalDebt.mul( blocksSinceLast ).div( terms.vestingTerm );\n        if ( decay_ > totalDebt ) {\n            decay_ = totalDebt;\n        }\n    }\n\n\n    /**\n     *  @notice calculate how far into vesting a depositor is\n     *  @param _depositor address\n     *  @return percentVested_ uint\n     */\n    function percentVestedFor( address _depositor ) public view returns ( uint percentVested_ ) {\n        Bond memory bond = bondInfo[ _depositor ];\n        uint blocksSinceLast = block.number.sub( bond.lastBlock );\n        uint vesting = bond.vesting;\n\n        if ( vesting > 0 ) {\n            percentVested_ = blocksSinceLast.mul( 10000 ).div( vesting );\n        } else {\n            percentVested_ = 0;\n        }\n    }\n\n    /**\n     *  @notice calculate amount of ATHER available for claim by depositor\n     *  @param _depositor address\n     *  @return pendingPayout_ uint\n     */\n    function pendingPayoutFor( address _depositor ) external view returns ( uint pendingPayout_ ) {\n        uint percentVested = percentVestedFor( _depositor );\n        uint payout = bondInfo[ _depositor ].payout;\n\n        if ( percentVested >= 10000 ) {\n            pendingPayout_ = payout;\n        } else {\n            pendingPayout_ = payout.mul( percentVested ).div( 10000 );\n        }\n    }\n\n\n}",
  "sourcePath": "/var/www/atherton/solidity/contracts/BondDepository.sol",
  "compiler": {
    "name": "solc",
    "version": "0.8.0+commit.c7dfd78e.Emscripten.clang"
  },
  "schemaVersion": "3.4.3",
  "updatedAt": "2021-12-07T05:40:45.609Z",
  "devdoc": {
    "kind": "dev",
    "methods": {
      "bondPrice()": {
        "returns": {
          "price_": "uint"
        }
      },
      "bondPriceInUSD()": {
        "returns": {
          "price_": "uint"
        }
      },
      "bondTerms()": {
        "returns": {
          "_0": "price_ uint"
        }
      },
      "currentDebt()": {
        "returns": {
          "_0": "uint"
        }
      },
      "debtDecay()": {
        "returns": {
          "decay_": "uint"
        }
      },
      "debtRatio()": {
        "returns": {
          "debtRatio_": "uint"
        }
      },
      "deposit(uint256,uint256,address)": {
        "params": {
          "_amount": "uint",
          "_depositor": "address",
          "_maxPrice": "uint"
        },
        "returns": {
          "_0": "uint"
        }
      },
      "initializeBondTerms(uint256,uint256,uint256,uint256,uint256,uint256,uint256)": {
        "params": {
          "_controlVariable": "uint",
          "_fee": "uint",
          "_initialDebt": "uint",
          "_maxDebt": "uint",
          "_maxPayout": "uint",
          "_minimumPrice": "uint",
          "_vestingTerm": "uint"
        }
      },
      "maxPayout()": {
        "returns": {
          "_0": "uint"
        }
      },
      "owner()": {
        "details": "Returns the address of the current owner."
      },
      "payoutFor(uint256)": {
        "params": {
          "_value": "uint"
        },
        "returns": {
          "_0": "uint"
        }
      },
      "pendingPayoutFor(address)": {
        "params": {
          "_depositor": "address"
        },
        "returns": {
          "pendingPayout_": "uint"
        }
      },
      "percentVestedFor(address)": {
        "params": {
          "_depositor": "address"
        },
        "returns": {
          "percentVested_": "uint"
        }
      },
      "redeem(address,bool)": {
        "params": {
          "_recipient": "address",
          "_stake": "bool"
        },
        "returns": {
          "_0": "uint"
        }
      },
      "renounceOwnership()": {
        "details": "Leaves the contract without owner. It will not be possible to call `onlyOwner` functions anymore. Can only be called by the current owner. NOTE: Renouncing ownership will leave the contract without an owner, thereby removing any functionality that is only available to the owner."
      },
      "setAdjustment(bool,uint256,uint256,uint256)": {
        "params": {
          "_addition": "bool",
          "_buffer": "uint",
          "_increment": "uint",
          "_target": "uint"
        }
      },
      "setBondTerms(uint8,uint256)": {
        "params": {
          "_input": "uint",
          "_parameter": "PARAMETER"
        }
      },
      "setStaking(address,bool)": {
        "params": {
          "_helper": "bool",
          "_staking": "address"
        }
      },
      "standardizedDebtRatio()": {
        "returns": {
          "_0": "uint"
        }
      },
      "transferOwnership(address)": {
        "details": "Transfers ownership of the contract to a new account (`newOwner`). Can only be called by the current owner."
      }
    },
    "version": 1
  },
  "userdoc": {
    "kind": "user",
    "methods": {
      "bondPrice()": {
        "notice": "calculate current bond premium"
      },
      "bondPriceInUSD()": {
        "notice": "converts bond price to DAI value"
      },
      "bondTerms()": {
        "notice": "calculate current bond premium"
      },
      "currentDebt()": {
        "notice": "calculate debt factoring in decay"
      },
      "debtDecay()": {
        "notice": "amount to decay total debt by"
      },
      "debtRatio()": {
        "notice": "calculate current ratio of debt to ATHER supply"
      },
      "deposit(uint256,uint256,address)": {
        "notice": "deposit bond"
      },
      "initializeBondTerms(uint256,uint256,uint256,uint256,uint256,uint256,uint256)": {
        "notice": "initializes bond parameters"
      },
      "maxPayout()": {
        "notice": "determine maximum bond size"
      },
      "payoutFor(uint256)": {
        "notice": "calculate interest due for new bond"
      },
      "pendingPayoutFor(address)": {
        "notice": "calculate amount of ATHER available for claim by depositor"
      },
      "percentVestedFor(address)": {
        "notice": "calculate how far into vesting a depositor is"
      },
      "redeem(address,bool)": {
        "notice": "redeem bond for user"
      },
      "setAdjustment(bool,uint256,uint256,uint256)": {
        "notice": "set control variable adjustment"
      },
      "setBondTerms(uint8,uint256)": {
        "notice": "set parameters for new bonds"
      },
      "setStaking(address,bool)": {
        "notice": "set contract for auto stake"
      },
      "standardizedDebtRatio()": {
        "notice": "debt ratio in same terms for reserve or liquidity bonds"
      }
    },
    "version": 1
  }
}