{
  "contractName": "AthertonBondDepository",
  "abi": [
    {
      "inputs": [
        {
          "internalType": "address",
          "name": "_ATHER",
          "type": "address"
        },
        {
          "internalType": "address",
          "name": "_principle",
          "type": "address"
        },
        {
          "internalType": "address",
          "name": "_treasury",
          "type": "address"
        },
        {
          "internalType": "address",
          "name": "_DAO",
          "type": "address"
        },
        {
          "internalType": "address",
          "name": "_bondCalculator",
          "type": "address"
        }
      ],
      "stateMutability": "nonpayable",
      "type": "constructor"
    },
    {
      "anonymous": false,
      "inputs": [
        {
          "indexed": false,
          "internalType": "uint256",
          "name": "deposit",
          "type": "uint256"
        },
        {
          "indexed": true,
          "internalType": "uint256",
          "name": "payout",
          "type": "uint256"
        },
        {
          "indexed": true,
          "internalType": "uint256",
          "name": "expires",
          "type": "uint256"
        },
        {
          "indexed": true,
          "internalType": "uint256",
          "name": "priceInUSD",
          "type": "uint256"
        }
      ],
      "name": "BondCreated",
      "type": "event"
    },
    {
      "anonymous": false,
      "inputs": [
        {
          "indexed": true,
          "internalType": "uint256",
          "name": "priceInUSD",
          "type": "uint256"
        },
        {
          "indexed": true,
          "internalType": "uint256",
          "name": "internalPrice",
          "type": "uint256"
        },
        {
          "indexed": true,
          "internalType": "uint256",
          "name": "debtRatio",
          "type": "uint256"
        }
      ],
      "name": "BondPriceChanged",
      "type": "event"
    },
    {
      "anonymous": false,
      "inputs": [
        {
          "indexed": true,
          "internalType": "address",
          "name": "recipient",
          "type": "address"
        },
        {
          "indexed": false,
          "internalType": "uint256",
          "name": "payout",
          "type": "uint256"
        },
        {
          "indexed": false,
          "internalType": "uint256",
          "name": "remaining",
          "type": "uint256"
        }
      ],
      "name": "BondRedeemed",
      "type": "event"
    },
    {
      "anonymous": false,
      "inputs": [
        {
          "indexed": false,
          "internalType": "uint256",
          "name": "initialBCV",
          "type": "uint256"
        },
        {
          "indexed": false,
          "internalType": "uint256",
          "name": "newBCV",
          "type": "uint256"
        },
        {
          "indexed": false,
          "internalType": "uint256",
          "name": "adjustment",
          "type": "uint256"
        },
        {
          "indexed": false,
          "internalType": "bool",
          "name": "addition",
          "type": "bool"
        }
      ],
      "name": "ControlVariableAdjustment",
      "type": "event"
    },
    {
      "anonymous": false,
      "inputs": [
        {
          "indexed": true,
          "internalType": "address",
          "name": "previousOwner",
          "type": "address"
        },
        {
          "indexed": true,
          "internalType": "address",
          "name": "newOwner",
          "type": "address"
        }
      ],
      "name": "OwnershipTransferred",
      "type": "event"
    },
    {
      "inputs": [],
      "name": "ATHER",
      "outputs": [
        {
          "internalType": "address",
          "name": "",
          "type": "address"
        }
      ],
      "stateMutability": "view",
      "type": "function"
    },
    {
      "inputs": [],
      "name": "DAO",
      "outputs": [
        {
          "internalType": "address",
          "name": "",
          "type": "address"
        }
      ],
      "stateMutability": "view",
      "type": "function"
    },
    {
      "inputs": [],
      "name": "adjustment",
      "outputs": [
        {
          "internalType": "bool",
          "name": "add",
          "type": "bool"
        },
        {
          "internalType": "uint256",
          "name": "rate",
          "type": "uint256"
        },
        {
          "internalType": "uint256",
          "name": "target",
          "type": "uint256"
        },
        {
          "internalType": "uint256",
          "name": "buffer",
          "type": "uint256"
        },
        {
          "internalType": "uint256",
          "name": "lastBlock",
          "type": "uint256"
        }
      ],
      "stateMutability": "view",
      "type": "function"
    },
    {
      "inputs": [],
      "name": "bondCalculator",
      "outputs": [
        {
          "internalType": "address",
          "name": "",
          "type": "address"
        }
      ],
      "stateMutability": "view",
      "type": "function"
    },
    {
      "inputs": [
        {
          "internalType": "address",
          "name": "",
          "type": "address"
        }
      ],
      "name": "bondInfo",
      "outputs": [
        {
          "internalType": "uint256",
          "name": "payout",
          "type": "uint256"
        },
        {
          "internalType": "uint256",
          "name": "vesting",
          "type": "uint256"
        },
        {
          "internalType": "uint256",
          "name": "lastBlock",
          "type": "uint256"
        },
        {
          "internalType": "uint256",
          "name": "pricePaid",
          "type": "uint256"
        }
      ],
      "stateMutability": "view",
      "type": "function"
    },
    {
      "inputs": [],
      "name": "isLiquidityBond",
      "outputs": [
        {
          "internalType": "bool",
          "name": "",
          "type": "bool"
        }
      ],
      "stateMutability": "view",
      "type": "function"
    },
    {
      "inputs": [],
      "name": "lastDecay",
      "outputs": [
        {
          "internalType": "uint256",
          "name": "",
          "type": "uint256"
        }
      ],
      "stateMutability": "view",
      "type": "function"
    },
    {
      "inputs": [],
      "name": "owner",
      "outputs": [
        {
          "internalType": "address",
          "name": "",
          "type": "address"
        }
      ],
      "stateMutability": "view",
      "type": "function"
    },
    {
      "inputs": [],
      "name": "principle",
      "outputs": [
        {
          "internalType": "address",
          "name": "",
          "type": "address"
        }
      ],
      "stateMutability": "view",
      "type": "function"
    },
    {
      "inputs": [],
      "name": "renounceOwnership",
      "outputs": [],
      "stateMutability": "nonpayable",
      "type": "function"
    },
    {
      "inputs": [],
      "name": "staking",
      "outputs": [
        {
          "internalType": "address",
          "name": "",
          "type": "address"
        }
      ],
      "stateMutability": "view",
      "type": "function"
    },
    {
      "inputs": [],
      "name": "stakingHelper",
      "outputs": [
        {
          "internalType": "address",
          "name": "",
          "type": "address"
        }
      ],
      "stateMutability": "view",
      "type": "function"
    },
    {
      "inputs": [],
      "name": "terms",
      "outputs": [
        {
          "internalType": "uint256",
          "name": "controlVariable",
          "type": "uint256"
        },
        {
          "internalType": "uint256",
          "name": "vestingTerm",
          "type": "uint256"
        },
        {
          "internalType": "uint256",
          "name": "minimumPrice",
          "type": "uint256"
        },
        {
          "internalType": "uint256",
          "name": "maxPayout",
          "type": "uint256"
        },
        {
          "internalType": "uint256",
          "name": "fee",
          "type": "uint256"
        },
        {
          "internalType": "uint256",
          "name": "maxDebt",
          "type": "uint256"
        }
      ],
      "stateMutability": "view",
      "type": "function"
    },
    {
      "inputs": [],
      "name": "totalDebt",
      "outputs": [
        {
          "internalType": "uint256",
          "name": "",
          "type": "uint256"
        }
      ],
      "stateMutability": "view",
      "type": "function"
    },
    {
      "inputs": [
        {
          "internalType": "address",
          "name": "newOwner",
          "type": "address"
        }
      ],
      "name": "transferOwnership",
      "outputs": [],
      "stateMutability": "nonpayable",
      "type": "function"
    },
    {
      "inputs": [],
      "name": "treasury",
      "outputs": [
        {
          "internalType": "address",
          "name": "",
          "type": "address"
        }
      ],
      "stateMutability": "view",
      "type": "function"
    },
    {
      "inputs": [],
      "name": "useHelper",
      "outputs": [
        {
          "internalType": "bool",
          "name": "",
          "type": "bool"
        }
      ],
      "stateMutability": "view",
      "type": "function"
    },
    {
      "inputs": [
        {
          "internalType": "uint256",
          "name": "_controlVariable",
          "type": "uint256"
        },
        {
          "internalType": "uint256",
          "name": "_vestingTerm",
          "type": "uint256"
        },
        {
          "internalType": "uint256",
          "name": "_minimumPrice",
          "type": "uint256"
        },
        {
          "internalType": "uint256",
          "name": "_maxPayout",
          "type": "uint256"
        },
        {
          "internalType": "uint256",
          "name": "_fee",
          "type": "uint256"
        },
        {
          "internalType": "uint256",
          "name": "_maxDebt",
          "type": "uint256"
        },
        {
          "internalType": "uint256",
          "name": "_initialDebt",
          "type": "uint256"
        }
      ],
      "name": "initializeBondTerms",
      "outputs": [],
      "stateMutability": "nonpayable",
      "type": "function"
    },
    {
      "inputs": [
        {
          "internalType": "enum AthertonBondDepository.PARAMETER",
          "name": "_parameter",
          "type": "uint8"
        },
        {
          "internalType": "uint256",
          "name": "_input",
          "type": "uint256"
        }
      ],
      "name": "setBondTerms",
      "outputs": [],
      "stateMutability": "nonpayable",
      "type": "function"
    },
    {
      "inputs": [
        {
          "internalType": "bool",
          "name": "_addition",
          "type": "bool"
        },
        {
          "internalType": "uint256",
          "name": "_increment",
          "type": "uint256"
        },
        {
          "internalType": "uint256",
          "name": "_target",
          "type": "uint256"
        },
        {
          "internalType": "uint256",
          "name": "_buffer",
          "type": "uint256"
        }
      ],
      "name": "setAdjustment",
      "outputs": [],
      "stateMutability": "nonpayable",
      "type": "function"
    },
    {
      "inputs": [
        {
          "internalType": "address",
          "name": "_staking",
          "type": "address"
        },
        {
          "internalType": "bool",
          "name": "_helper",
          "type": "bool"
        }
      ],
      "name": "setStaking",
      "outputs": [],
      "stateMutability": "nonpayable",
      "type": "function"
    },
    {
      "inputs": [
        {
          "internalType": "uint256",
          "name": "_amount",
          "type": "uint256"
        },
        {
          "internalType": "uint256",
          "name": "_maxPrice",
          "type": "uint256"
        },
        {
          "internalType": "address",
          "name": "_depositor",
          "type": "address"
        }
      ],
      "name": "deposit",
      "outputs": [
        {
          "internalType": "uint256",
          "name": "",
          "type": "uint256"
        }
      ],
      "stateMutability": "nonpayable",
      "type": "function"
    },
    {
      "inputs": [
        {
          "internalType": "address",
          "name": "_recipient",
          "type": "address"
        },
        {
          "internalType": "bool",
          "name": "_stake",
          "type": "bool"
        }
      ],
      "name": "redeem",
      "outputs": [
        {
          "internalType": "uint256",
          "name": "",
          "type": "uint256"
        }
      ],
      "stateMutability": "nonpayable",
      "type": "function"
    },
    {
      "inputs": [],
      "name": "maxPayout",
      "outputs": [
        {
          "internalType": "uint256",
          "name": "",
          "type": "uint256"
        }
      ],
      "stateMutability": "view",
      "type": "function"
    },
    {
      "inputs": [
        {
          "internalType": "uint256",
          "name": "_value",
          "type": "uint256"
        }
      ],
      "name": "payoutFor",
      "outputs": [
        {
          "internalType": "uint256",
          "name": "",
          "type": "uint256"
        }
      ],
      "stateMutability": "view",
      "type": "function"
    },
    {
      "inputs": [],
      "name": "bondPrice",
      "outputs": [
        {
          "internalType": "uint256",
          "name": "price_",
          "type": "uint256"
        }
      ],
      "stateMutability": "view",
      "type": "function"
    },
    {
      "inputs": [],
      "name": "bondPriceInUSD",
      "outputs": [
        {
          "internalType": "uint256",
          "name": "price_",
          "type": "uint256"
        }
      ],
      "stateMutability": "view",
      "type": "function"
    },
    {
      "inputs": [],
      "name": "debtRatio",
      "outputs": [
        {
          "internalType": "uint256",
          "name": "debtRatio_",
          "type": "uint256"
        }
      ],
      "stateMutability": "view",
      "type": "function"
    },
    {
      "inputs": [],
      "name": "standardizedDebtRatio",
      "outputs": [
        {
          "internalType": "uint256",
          "name": "",
          "type": "uint256"
        }
      ],
      "stateMutability": "view",
      "type": "function"
    },
    {
      "inputs": [],
      "name": "currentDebt",
      "outputs": [
        {
          "internalType": "uint256",
          "name": "",
          "type": "uint256"
        }
      ],
      "stateMutability": "view",
      "type": "function"
    },
    {
      "inputs": [],
      "name": "debtDecay",
      "outputs": [
        {
          "internalType": "uint256",
          "name": "decay_",
          "type": "uint256"
        }
      ],
      "stateMutability": "view",
      "type": "function"
    },
    {
      "inputs": [
        {
          "internalType": "address",
          "name": "_depositor",
          "type": "address"
        }
      ],
      "name": "percentVestedFor",
      "outputs": [
        {
          "internalType": "uint256",
          "name": "percentVested_",
          "type": "uint256"
        }
      ],
      "stateMutability": "view",
      "type": "function"
    },
    {
      "inputs": [
        {
          "internalType": "address",
          "name": "_depositor",
          "type": "address"
        }
      ],
      "name": "pendingPayoutFor",
      "outputs": [
        {
          "internalType": "uint256",
          "name": "pendingPayout_",
          "type": "uint256"
        }
      ],
      "stateMutability": "view",
      "type": "function"
    },
    {
      "inputs": [
        {
          "internalType": "address",
          "name": "_token",
          "type": "address"
        }
      ],
      "name": "recoverLostToken",
      "outputs": [
        {
          "internalType": "bool",
          "name": "",
          "type": "bool"
        }
      ],
      "stateMutability": "nonpayable",
      "type": "function"
    },
    {
      "inputs": [
        {
          "internalType": "address",
          "name": "newDao",
          "type": "address"
        }
      ],
      "name": "setDao",
      "outputs": [],
      "stateMutability": "nonpayable",
      "type": "function"
    }
  ],
  "bytecode": "0x6101206040523480156200001257600080fd5b5060405162004dd238038062004dd283398181016040528101906200003891906200038f565b620000586200004c620002ac60201b60201c565b620002b460201b60201c565b600073ffffffffffffffffffffffffffffffffffffffff168573ffffffffffffffffffffffffffffffffffffffff1614156200009357600080fd5b8473ffffffffffffffffffffffffffffffffffffffff1660808173ffffffffffffffffffffffffffffffffffffffff1660601b81525050600073ffffffffffffffffffffffffffffffffffffffff168473ffffffffffffffffffffffffffffffffffffffff1614156200010557600080fd5b8373ffffffffffffffffffffffffffffffffffffffff1660a08173ffffffffffffffffffffffffffffffffffffffff1660601b81525050600073ffffffffffffffffffffffffffffffffffffffff168373ffffffffffffffffffffffffffffffffffffffff1614156200017757600080fd5b8273ffffffffffffffffffffffffffffffffffffffff1660c08173ffffffffffffffffffffffffffffffffffffffff1660601b81525050600073ffffffffffffffffffffffffffffffffffffffff168273ffffffffffffffffffffffffffffffffffffffff161415620001e957600080fd5b81600160006101000a81548173ffffffffffffffffffffffffffffffffffffffff021916908373ffffffffffffffffffffffffffffffffffffffff1602179055508073ffffffffffffffffffffffffffffffffffffffff166101008173ffffffffffffffffffffffffffffffffffffffff1660601b81525050600073ffffffffffffffffffffffffffffffffffffffff168173ffffffffffffffffffffffffffffffffffffffff161415151560e081151560f81b8152505050505050506200045f565b600033905090565b60008060009054906101000a900473ffffffffffffffffffffffffffffffffffffffff169050816000806101000a81548173ffffffffffffffffffffffffffffffffffffffff021916908373ffffffffffffffffffffffffffffffffffffffff1602179055508173ffffffffffffffffffffffffffffffffffffffff168173ffffffffffffffffffffffffffffffffffffffff167f8be0079c531659141344cd1fd0a4f28419497f9722a3daafe3b4186f6b6457e060405160405180910390a35050565b600081519050620003898162000445565b92915050565b600080600080600060a08688031215620003a857600080fd5b6000620003b88882890162000378565b9550506020620003cb8882890162000378565b9450506040620003de8882890162000378565b9350506060620003f18882890162000378565b9250506080620004048882890162000378565b9150509295509295909350565b60006200041e8262000425565b9050919050565b600073ffffffffffffffffffffffffffffffffffffffff82169050919050565b620004508162000411565b81146200045c57600080fd5b50565b60805160601c60a05160601c60c05160601c60e05160f81c6101005160601c6148856200054d6000396000818161140501528181611d200152611fda0152600081816113d701528181611cef01526122c801526000818161109c0152818161171e0152818161196901526119fb01526000818161069c01528181611441015281816115010152818161175a015281816118e60152818161192d01528181611a3801528181611d5c0152611ea3015260008181610f9901528181611afa01528181611e4a0152818161203101528181612365015281816125bf0152818161268701526127eb01526148856000f3fe608060405234801561001057600080fd5b50600436106102115760003560e01c8063844b5c7c11610125578063d4d863ce116100ad578063e0176de81161007c578063e0176de814610606578063e392a26214610624578063f2fde38b14610642578063f5c2ab5b1461065e578063fc7b9c181461067c57610211565b8063d4d863ce1461058b578063d5025625146105a7578063d7969060146105ca578063d7ccfb0b146105e857610211565b806398fabd3a116100f457806398fabd3a146104ce578063b4abccba146104ec578063c5332b7c1461051c578063cd1234b31461053a578063cea55f571461056d57610211565b8063844b5c7c146104445780638da5cb5b146104625780638dbdbe6d14610480578063904b3ece146104b057610211565b80634e3d8853116101a8578063715018a611610177578063715018a6146103b257806371535008146103bc578063759076e5146103d857806377b81895146103f65780637927ebf81461041457610211565b80634e3d88531461032a578063507930ec1461034857806361d027b3146103785780636637b8821461039657610211565b80631feed31f116101e45780631feed31f1461029c5780632f3f470a146102cc578063451ee4a1146102ea5780634cf088d91461030c57610211565b8063016a42841461021657806301b88ee8146102345780631a3d0068146102645780631e321a0f14610280575b600080fd5b61021e61069a565b60405161022b9190613f12565b60405180910390f35b61024e6004803603810190610249919061365c565b6106be565b60405161025b919061425d565b60405180910390f35b61027e600480360381019061027991906136ea565b610755565b005b61029a6004803603810190610295919061374d565b6108bc565b005b6102b660048036038101906102b19190613685565b610c28565b6040516102c3919061425d565b60405180910390f35b6102d4610f2d565b6040516102e19190613f8d565b60405180910390f35b6102f2610f40565b604051610303959493929190613fa8565b60405180910390f35b610314610f71565b6040516103219190613f12565b60405180910390f35b610332610f97565b60405161033f9190613f12565b60405180910390f35b610362600480360381019061035d919061365c565b610fbb565b60405161036f919061425d565b60405180910390f35b61038061109a565b60405161038d9190613f12565b60405180910390f35b6103b060048036038101906103ab919061365c565b6110be565b005b6103ba61117e565b005b6103d660048036038101906103d1919061382a565b611206565b005b6103e061134f565b6040516103ed919061425d565b60405180910390f35b6103fe611372565b60405161040b9190613f12565b60405180910390f35b61042e60048036038101906104299190613789565b611398565b60405161043b919061425d565b60405180910390f35b61044c6113d3565b604051610459919061425d565b60405180910390f35b61046a6115d3565b6040516104779190613f12565b60405180910390f35b61049a600480360381019061049591906137db565b6115fc565b6040516104a7919061425d565b60405180910390f35b6104b8611ceb565b6040516104c5919061425d565b60405180910390f35b6104d6611e20565b6040516104e39190613f12565b60405180910390f35b6105066004803603810190610501919061365c565b611e46565b6040516105139190613f8d565b60405180910390f35b610524611fd8565b6040516105319190613f12565b60405180910390f35b610554600480360381019061054f919061365c565b611ffc565b604051610564949392919061436f565b60405180910390f35b61057561202c565b604051610582919061425d565b60405180910390f35b6105a560048036038101906105a09190613685565b61211e565b005b6105af61229c565b6040516105c1969594939291906143b4565b60405180910390f35b6105d26122c6565b6040516105df9190613f8d565b60405180910390f35b6105f06122ea565b6040516105fd919061425d565b60405180910390f35b61060e612351565b60405161061b919061425d565b60405180910390f35b61062c612422565b604051610639919061425d565b60405180910390f35b61065c6004803603810190610657919061365c565b61247e565b005b610666612576565b604051610673919061425d565b60405180910390f35b61068461257c565b604051610691919061425d565b60405180910390f35b7f000000000000000000000000000000000000000000000000000000000000000081565b6000806106ca83610fbb565b90506000600f60008573ffffffffffffffffffffffffffffffffffffffff1673ffffffffffffffffffffffffffffffffffffffff16815260200190815260200160002060000154905061271082106107245780925061074e565b61074b61271061073d848461258290919063ffffffff16565b61259890919063ffffffff16565b92505b5050919050565b61075d6125ae565b73ffffffffffffffffffffffffffffffffffffffff1661077b6115d3565b73ffffffffffffffffffffffffffffffffffffffff16146107d1576040517f08c379a00000000000000000000000000000000000000000000000000000000081526004016107c89061415d565b60405180910390fd5b6107fe6103e86107f0601960046000015461258290919063ffffffff16565b61259890919063ffffffff16565b831115610840576040517f08c379a0000000000000000000000000000000000000000000000000000000008152600401610837906140dd565b60405180910390fd5b6040518060a00160405280851515815260200184815260200183815260200182815260200143815250600a60008201518160000160006101000a81548160ff0219169083151502179055506020820151816001015560408201518160020155606082015181600301556080820151816004015590505050505050565b6108c46125ae565b73ffffffffffffffffffffffffffffffffffffffff166108e26115d3565b73ffffffffffffffffffffffffffffffffffffffff1614610938576040517f08c379a000000000000000000000000000000000000000000000000000000000815260040161092f9061415d565b60405180910390fd5b60006003811115610972577f4e487b7100000000000000000000000000000000000000000000000000000000600052602160045260246000fd5b8260038111156109ab577f4e487b7100000000000000000000000000000000000000000000000000000000600052602160045260246000fd5b1415610a05576127108110156109f6576040517f08c379a00000000000000000000000000000000000000000000000000000000081526004016109ed9061419d565b60405180910390fd5b80600460010181905550610c24565b60016003811115610a3f577f4e487b7100000000000000000000000000000000000000000000000000000000600052602160045260246000fd5b826003811115610a78577f4e487b7100000000000000000000000000000000000000000000000000000000600052602160045260246000fd5b1415610ad2576103e8811115610ac3576040517f08c379a0000000000000000000000000000000000000000000000000000000008152600401610aba9061407d565b60405180910390fd5b80600460030181905550610c23565b60026003811115610b0c577f4e487b7100000000000000000000000000000000000000000000000000000000600052602160045260246000fd5b826003811115610b45577f4e487b7100000000000000000000000000000000000000000000000000000000600052602160045260246000fd5b1415610b9e57612710811115610b90576040517f08c379a0000000000000000000000000000000000000000000000000000000008152600401610b879061401d565b60405180910390fd5b806004800181905550610c22565b600380811115610bd7577f4e487b7100000000000000000000000000000000000000000000000000000000600052602160045260246000fd5b826003811115610c10577f4e487b7100000000000000000000000000000000000000000000000000000000600052602160045260246000fd5b1415610c2157806004600501819055505b5b5b5b5050565b600080600f60008573ffffffffffffffffffffffffffffffffffffffff1673ffffffffffffffffffffffffffffffffffffffff16815260200190815260200160002060405180608001604052908160008201548152602001600182015481526020016002820154815260200160038201548152505090506000610caa85610fbb565b90506127108110610d8457600f60008673ffffffffffffffffffffffffffffffffffffffff1673ffffffffffffffffffffffffffffffffffffffff16815260200190815260200160002060008082016000905560018201600090556002820160009055600382016000905550508473ffffffffffffffffffffffffffffffffffffffff167f51c99f515c87b0d95ba97f616edd182e8f161c4932eac17c6fefe9dab58b77b183600001516000604051610d649291906142d8565b60405180910390a2610d7b858584600001516125b6565b92505050610f27565b6000610db1612710610da384866000015161258290919063ffffffff16565b61259890919063ffffffff16565b90506040518060800160405280610dd583866000015161297590919063ffffffff16565b8152602001610e07610df486604001514361297590919063ffffffff16565b866020015161297590919063ffffffff16565b81526020014381526020018460600151815250600f60008873ffffffffffffffffffffffffffffffffffffffff1673ffffffffffffffffffffffffffffffffffffffff168152602001908152602001600020600082015181600001556020820151816001015560408201518160020155606082015181600301559050508573ffffffffffffffffffffffffffffffffffffffff167f51c99f515c87b0d95ba97f616edd182e8f161c4932eac17c6fefe9dab58b77b182600f60008a73ffffffffffffffffffffffffffffffffffffffff1673ffffffffffffffffffffffffffffffffffffffff16815260200190815260200160002060000154604051610f0e929190614301565b60405180910390a2610f218686836125b6565b93505050505b92915050565b600360149054906101000a900460ff1681565b600a8060000160009054906101000a900460ff16908060010154908060020154908060030154908060040154905085565b600260009054906101000a900473ffffffffffffffffffffffffffffffffffffffff1681565b7f000000000000000000000000000000000000000000000000000000000000000081565b600080600f60008473ffffffffffffffffffffffffffffffffffffffff1673ffffffffffffffffffffffffffffffffffffffff1681526020019081526020016000206040518060800160405290816000820154815260200160018201548152602001600282015481526020016003820154815250509050600061104b82604001514361297590919063ffffffff16565b9050600082602001519050600081111561108d57611086816110786127108561258290919063ffffffff16565b61259890919063ffffffff16565b9350611092565b600093505b505050919050565b7f000000000000000000000000000000000000000000000000000000000000000081565b6110c66125ae565b73ffffffffffffffffffffffffffffffffffffffff166110e46115d3565b73ffffffffffffffffffffffffffffffffffffffff161461113a576040517f08c379a00000000000000000000000000000000000000000000000000000000081526004016111319061415d565b60405180910390fd5b80600160006101000a81548173ffffffffffffffffffffffffffffffffffffffff021916908373ffffffffffffffffffffffffffffffffffffffff16021790555050565b6111866125ae565b73ffffffffffffffffffffffffffffffffffffffff166111a46115d3565b73ffffffffffffffffffffffffffffffffffffffff16146111fa576040517f08c379a00000000000000000000000000000000000000000000000000000000081526004016111f19061415d565b60405180910390fd5b611204600061298b565b565b61120e6125ae565b73ffffffffffffffffffffffffffffffffffffffff1661122c6115d3565b73ffffffffffffffffffffffffffffffffffffffff1614611282576040517f08c379a00000000000000000000000000000000000000000000000000000000081526004016112799061415d565b60405180910390fd5b6000600460000154146112ca576040517f08c379a00000000000000000000000000000000000000000000000000000000081526004016112c1906141dd565b60405180910390fd5b6040518060c00160405280888152602001878152602001868152602001858152602001848152602001838152506004600082015181600001556020820151816001015560408201518160020155606082015181600301556080820151816004015560a08201518160050155905050806010819055504360118190555050505050505050565b600061136d61135c612422565b60105461297590919063ffffffff16565b905090565b600360009054906101000a900473ffffffffffffffffffffffffffffffffffffffff1681565b60006113cc662386f26fc100006113be6113b9856113b46122ea565b612a4f565b612c56565b61259890919063ffffffff16565b9050919050565b60007f0000000000000000000000000000000000000000000000000000000000000000156114f7576114f060646114e27f000000000000000000000000000000000000000000000000000000000000000073ffffffffffffffffffffffffffffffffffffffff166332da80a37f00000000000000000000000000000000000000000000000000000000000000006040518263ffffffff1660e01b815260040161147c9190613f12565b60206040518083038186803b15801561149457600080fd5b505afa1580156114a8573d6000803e3d6000fd5b505050506040513d601f19601f820116820180604052508101906114cc91906137b2565b6114d46122ea565b61258290919063ffffffff16565b61259890919063ffffffff16565b90506115d0565b6115cd60646115bf7f000000000000000000000000000000000000000000000000000000000000000073ffffffffffffffffffffffffffffffffffffffff1663313ce5676040518163ffffffff1660e01b815260040160206040518083038186803b15801561156557600080fd5b505afa158015611579573d6000803e3d6000fd5b505050506040513d601f19601f8201168201806040525081019061159d91906138c8565b600a6115a99190614521565b6115b16122ea565b61258290919063ffffffff16565b61259890919063ffffffff16565b90505b90565b60008060009054906101000a900473ffffffffffffffffffffffffffffffffffffffff16905090565b60008073ffffffffffffffffffffffffffffffffffffffff168273ffffffffffffffffffffffffffffffffffffffff16141561166d576040517f08c379a00000000000000000000000000000000000000000000000000000000081526004016116649061403d565b60405180910390fd5b611675612c94565b60046005015460105411156116bf576040517f08c379a00000000000000000000000000000000000000000000000000000000081526004016116b6906140fd565b60405180910390fd5b60006116c96113d3565b905060006116d5612cbf565b90508085101561171a576040517f08c379a00000000000000000000000000000000000000000000000000000000081526004016117119061417d565b60405180910390fd5b60007f000000000000000000000000000000000000000000000000000000000000000073ffffffffffffffffffffffffffffffffffffffff1663d1b317e57f0000000000000000000000000000000000000000000000000000000000000000896040518363ffffffff1660e01b8152600401611797929190613f64565b60206040518083038186803b1580156117af57600080fd5b505afa1580156117c3573d6000803e3d6000fd5b505050506040513d601f19601f820116820180604052508101906117e791906137b2565b905060006117f482611398565b90506298968081101561183c576040517f08c379a00000000000000000000000000000000000000000000000000000000081526004016118339061413d565b60405180910390fd5b611844612351565b811115611886576040517f08c379a000000000000000000000000000000000000000000000000000000000815260040161187d906141fd565b60405180910390fd5b60006118b36127106118a560048001548561258290919063ffffffff16565b61259890919063ffffffff16565b905060006118dc826118ce858761297590919063ffffffff16565b61297590919063ffffffff16565b905061192b33308c7f000000000000000000000000000000000000000000000000000000000000000073ffffffffffffffffffffffffffffffffffffffff16612d44909392919063ffffffff16565b7f000000000000000000000000000000000000000000000000000000000000000073ffffffffffffffffffffffffffffffffffffffff1663095ea7b37f00000000000000000000000000000000000000000000000000000000000000008c6040518363ffffffff1660e01b81526004016119a6929190613f64565b602060405180830381600087803b1580156119c057600080fd5b505af11580156119d4573d6000803e3d6000fd5b505050506040513d601f19601f820116820180604052508101906119f891906136c1565b507f000000000000000000000000000000000000000000000000000000000000000073ffffffffffffffffffffffffffffffffffffffff1663bc157ac18b7f0000000000000000000000000000000000000000000000000000000000000000846040518463ffffffff1660e01b8152600401611a76939291906142a1565b602060405180830381600087803b158015611a9057600080fd5b505af1158015611aa4573d6000803e3d6000fd5b505050506040513d601f19601f82011682018060405250810190611ac891906136c1565b5060008214611b3f57611b3e600160009054906101000a900473ffffffffffffffffffffffffffffffffffffffff16837f000000000000000000000000000000000000000000000000000000000000000073ffffffffffffffffffffffffffffffffffffffff16612dcd9092919063ffffffff16565b5b611b5484601054612e5390919063ffffffff16565b6010819055506040518060800160405280611bba85600f60008d73ffffffffffffffffffffffffffffffffffffffff1673ffffffffffffffffffffffffffffffffffffffff16815260200190815260200160002060000154612e5390919063ffffffff16565b8152602001600460010154815260200143815260200187815250600f60008a73ffffffffffffffffffffffffffffffffffffffff1673ffffffffffffffffffffffffffffffffffffffff1681526020019081526020016000206000820151816000015560208201518160010155604082015181600201556060820151816003015590505085611c5760046001015443612e5390919063ffffffff16565b847f1fec6dc81f140574bf43f6b1e420ae1dd47928b9d57db8cbd7b8611063b85ae58d604051611c87919061425d565b60405180910390a4611c9761202c565b611c9f612cbf565b611ca76113d3565b7f375b221f40939bfd8f49723a17cf7bc6d576ebf72efe2cc3e991826f5b3f390a60405160405180910390a4611cdb612e69565b8296505050505050509392505050565b60007f000000000000000000000000000000000000000000000000000000000000000015611e1257611e0b633b9aca00611dfd7f000000000000000000000000000000000000000000000000000000000000000073ffffffffffffffffffffffffffffffffffffffff166332da80a37f00000000000000000000000000000000000000000000000000000000000000006040518263ffffffff1660e01b8152600401611d979190613f12565b60206040518083038186803b158015611daf57600080fd5b505afa158015611dc3573d6000803e3d6000fd5b505050506040513d601f19601f82011682018060405250810190611de791906137b2565b611def61202c565b61258290919063ffffffff16565b61259890919063ffffffff16565b9050611e1d565b611e1a61202c565b90505b90565b600160009054906101000a900473ffffffffffffffffffffffffffffffffffffffff1681565b60007f000000000000000000000000000000000000000000000000000000000000000073ffffffffffffffffffffffffffffffffffffffff168273ffffffffffffffffffffffffffffffffffffffff161415611ea157600080fd5b7f000000000000000000000000000000000000000000000000000000000000000073ffffffffffffffffffffffffffffffffffffffff168273ffffffffffffffffffffffffffffffffffffffff161415611efa57600080fd5b611fcf600160009054906101000a900473ffffffffffffffffffffffffffffffffffffffff168373ffffffffffffffffffffffffffffffffffffffff166370a08231306040518263ffffffff1660e01b8152600401611f599190613f12565b60206040518083038186803b158015611f7157600080fd5b505afa158015611f85573d6000803e3d6000fd5b505050506040513d601f19601f82011682018060405250810190611fa991906137b2565b8473ffffffffffffffffffffffffffffffffffffffff16612dcd9092919063ffffffff16565b60019050919050565b7f000000000000000000000000000000000000000000000000000000000000000081565b600f6020528060005260406000206000915090508060000154908060010154908060020154908060030154905084565b6000807f000000000000000000000000000000000000000000000000000000000000000073ffffffffffffffffffffffffffffffffffffffff166318160ddd6040518163ffffffff1660e01b815260040160206040518083038186803b15801561209557600080fd5b505afa1580156120a9573d6000803e3d6000fd5b505050506040513d601f19601f820116820180604052508101906120cd91906137b2565b9050612118670de0b6b3a764000061210a6121056120ff633b9aca006120f161134f565b61258290919063ffffffff16565b85612a4f565b612c56565b61259890919063ffffffff16565b91505090565b6121266125ae565b73ffffffffffffffffffffffffffffffffffffffff166121446115d3565b73ffffffffffffffffffffffffffffffffffffffff161461219a576040517f08c379a00000000000000000000000000000000000000000000000000000000081526004016121919061415d565b60405180910390fd5b600073ffffffffffffffffffffffffffffffffffffffff168273ffffffffffffffffffffffffffffffffffffffff1614156121d457600080fd5b801561223b576001600360146101000a81548160ff02191690831515021790555081600360006101000a81548173ffffffffffffffffffffffffffffffffffffffff021916908373ffffffffffffffffffffffffffffffffffffffff160217905550612298565b6000600360146101000a81548160ff02191690831515021790555081600260006101000a81548173ffffffffffffffffffffffffffffffffffffffff021916908373ffffffffffffffffffffffffffffffffffffffff1602179055505b5050565b60048060000154908060010154908060020154908060030154908060040154908060050154905086565b7f000000000000000000000000000000000000000000000000000000000000000081565b600061233662989680612328633b9aca0061231a61230661202c565b60046000015461258290919063ffffffff16565b612e5390919063ffffffff16565b61259890919063ffffffff16565b905060046002015481101561234e5760046002015490505b90565b600061241d620186a061240f6004600301547f000000000000000000000000000000000000000000000000000000000000000073ffffffffffffffffffffffffffffffffffffffff166318160ddd6040518163ffffffff1660e01b815260040160206040518083038186803b1580156123c957600080fd5b505afa1580156123dd573d6000803e3d6000fd5b505050506040513d601f19601f8201168201806040525081019061240191906137b2565b61258290919063ffffffff16565b61259890919063ffffffff16565b905090565b60008061243a6011544361297590919063ffffffff16565b905061246860046001015461245a8360105461258290919063ffffffff16565b61259890919063ffffffff16565b915060105482111561247a5760105491505b5090565b6124866125ae565b73ffffffffffffffffffffffffffffffffffffffff166124a46115d3565b73ffffffffffffffffffffffffffffffffffffffff16146124fa576040517f08c379a00000000000000000000000000000000000000000000000000000000081526004016124f19061415d565b60405180910390fd5b600073ffffffffffffffffffffffffffffffffffffffff168173ffffffffffffffffffffffffffffffffffffffff16141561256a576040517f08c379a00000000000000000000000000000000000000000000000000000000081526004016125619061405d565b60405180910390fd5b6125738161298b565b50565b60115481565b60105481565b60008183612590919061463f565b905092915050565b600081836125a6919061449d565b905092915050565b600033905090565b600082612670577f000000000000000000000000000000000000000000000000000000000000000073ffffffffffffffffffffffffffffffffffffffff1663a9059cbb85846040518363ffffffff1660e01b8152600401612618929190613f64565b602060405180830381600087803b15801561263257600080fd5b505af1158015612646573d6000803e3d6000fd5b505050506040513d601f19601f8201168201806040525081019061266a91906136c1565b5061296b565b600360149054906101000a900460ff16156127e9577f000000000000000000000000000000000000000000000000000000000000000073ffffffffffffffffffffffffffffffffffffffff1663095ea7b3600360009054906101000a900473ffffffffffffffffffffffffffffffffffffffff16846040518363ffffffff1660e01b8152600401612702929190613f64565b602060405180830381600087803b15801561271c57600080fd5b505af1158015612730573d6000803e3d6000fd5b505050506040513d601f19601f8201168201806040525081019061275491906136c1565b50600360009054906101000a900473ffffffffffffffffffffffffffffffffffffffff1673ffffffffffffffffffffffffffffffffffffffff16637acb775783866040518363ffffffff1660e01b81526004016127b2929190614278565b600060405180830381600087803b1580156127cc57600080fd5b505af11580156127e0573d6000803e3d6000fd5b5050505061296a565b7f000000000000000000000000000000000000000000000000000000000000000073ffffffffffffffffffffffffffffffffffffffff1663095ea7b3600260009054906101000a900473ffffffffffffffffffffffffffffffffffffffff16846040518363ffffffff1660e01b8152600401612866929190613f64565b602060405180830381600087803b15801561288057600080fd5b505af1158015612894573d6000803e3d6000fd5b505050506040513d601f19601f820116820180604052508101906128b891906136c1565b50600260009054906101000a900473ffffffffffffffffffffffffffffffffffffffff1673ffffffffffffffffffffffffffffffffffffffff16637acb775783866040518363ffffffff1660e01b8152600401612916929190614278565b602060405180830381600087803b15801561293057600080fd5b505af1158015612944573d6000803e3d6000fd5b505050506040513d601f19601f8201168201806040525081019061296891906136c1565b505b5b8190509392505050565b600081836129839190614699565b905092915050565b60008060009054906101000a900473ffffffffffffffffffffffffffffffffffffffff169050816000806101000a81548173ffffffffffffffffffffffffffffffffffffffff021916908373ffffffffffffffffffffffffffffffffffffffff1602179055508173ffffffffffffffffffffffffffffffffffffffff168173ffffffffffffffffffffffffffffffffffffffff167f8be0079c531659141344cd1fd0a4f28419497f9722a3daafe3b4186f6b6457e060405160405180910390a35050565b612a57613598565b60008211612a9a576040517f08c379a0000000000000000000000000000000000000000000000000000000008152600401612a91906140bd565b60405180910390fd5b6000831415612ad857604051806020016040528060007bffffffffffffffffffffffffffffffffffffffffffffffffffffffff168152509050612c50565b71ffffffffffffffffffffffffffffffffffff80168311612ba057600082607060ff1685901b612b08919061449d565b90507bffffffffffffffffffffffffffffffffffffffffffffffffffffffff8016811115612b6b576040517f08c379a0000000000000000000000000000000000000000000000000000000008152600401612b62906141bd565b60405180910390fd5b6040518060200160405280827bffffffffffffffffffffffffffffffffffffffffffffffffffffffff16815250915050612c50565b6000612bbc846e01000000000000000000000000000085612fbb565b90507bffffffffffffffffffffffffffffffffffffffffffffffffffffffff8016811115612c1f576040517f08c379a0000000000000000000000000000000000000000000000000000000008152600401612c16906141bd565b60405180910390fd5b6040518060200160405280827bffffffffffffffffffffffffffffffffffffffffffffffffffffffff168152509150505b92915050565b60006612725dd1d243ab82600001517bffffffffffffffffffffffffffffffffffffffffffffffffffffffff16612c8d919061449d565b9050919050565b612cb0612c9f612422565b60105461297590919063ffffffff16565b60108190555043601181905550565b6000612d0b62989680612cfd633b9aca00612cef612cdb61202c565b60046000015461258290919063ffffffff16565b612e5390919063ffffffff16565b61259890919063ffffffff16565b9050600460020154811015612d27576004600201549050612d41565b600060046002015414612d405760006004600201819055505b5b90565b612dc7846323b872dd60e01b858585604051602401612d6593929190613f2d565b604051602081830303815290604052907bffffffffffffffffffffffffffffffffffffffffffffffffffffffff19166020820180517bffffffffffffffffffffffffffffffffffffffffffffffffffffffff8381831617835250505050613089565b50505050565b612e4e8363a9059cbb60e01b8484604051602401612dec929190613f64565b604051602081830303815290604052907bffffffffffffffffffffffffffffffffffffffffffffffffffffffff19166020820180517bffffffffffffffffffffffffffffffffffffffffffffffffffffffff8381831617835250505050613089565b505050565b60008183612e619190614447565b905092915050565b6000612e88600a60030154600a60040154612e5390919063ffffffff16565b90506000600a6001015414158015612ea05750804310155b15612fb85760006004600001549050600a60000160009054906101000a900460ff1615612f0f57612ee4600a60010154600460000154612e5390919063ffffffff16565b600460000181905550600a6002015460046000015410612f0a576000600a600101819055505b612f53565b612f2c600a6001015460046000015461297590919063ffffffff16565b600460000181905550600a6002015460046000015411612f52576000600a600101819055505b5b43600a600401819055507fb923e581a0f83128e9e1d8297aa52b18d6744310476e0b54509c054cd7a93b2a81600460000154600a60010154600a60000160009054906101000a900460ff16604051612fae949392919061432a565b60405180910390a1505b50565b6000806000612fca8686613150565b9150915060008480613005577f4e487b7100000000000000000000000000000000000000000000000000000000600052601260045260246000fd5b8688099050828111156130225760018261301f9190614699565b91505b808361302e9190614699565b9250848210613072576040517f08c379a00000000000000000000000000000000000000000000000000000000081526004016130699061411d565b60405180910390fd5b61307d8383876131eb565b93505050509392505050565b60006130eb826040518060400160405280602081526020017f5361666545524332303a206c6f772d6c6576656c2063616c6c206661696c65648152508573ffffffffffffffffffffffffffffffffffffffff166133f29092919063ffffffff16565b905060008151111561314b578080602001905181019061310b91906136c1565b61314a576040517f08c379a00000000000000000000000000000000000000000000000000000000081526004016131419061423d565b60405180910390fd5b5b505050565b60008060007fffffffffffffffffffffffffffffffffffffffffffffffffffffffffffffffff806131aa577f4e487b7100000000000000000000000000000000000000000000000000000000600052601260045260246000fd5b848609905083856131bb919061463f565b925082816131c99190614699565b9150828110156131e3576001826131e09190614699565b91505b509250929050565b6000806001837fffffffffffffffffffffffffffffffffffffffffffffffffffffffffffffffff61321c9190614699565b6132269190614447565b831690508083613236919061449d565b92508085613244919061449d565b94506001816001837fffffffffffffffffffffffffffffffffffffffffffffffffffffffffffffffff6132779190614699565b6132819190614447565b61328b919061449d565b6132959190614447565b846132a0919061463f565b856132ab9190614447565b945060006001905080846132bf919061463f565b60026132cb9190614699565b816132d6919061463f565b905080846132e4919061463f565b60026132f09190614699565b816132fb919061463f565b90508084613309919061463f565b60026133159190614699565b81613320919061463f565b9050808461332e919061463f565b600261333a9190614699565b81613345919061463f565b90508084613353919061463f565b600261335f9190614699565b8161336a919061463f565b90508084613378919061463f565b60026133849190614699565b8161338f919061463f565b9050808461339d919061463f565b60026133a99190614699565b816133b4919061463f565b905080846133c2919061463f565b60026133ce9190614699565b816133d9919061463f565b905080866133e7919061463f565b925050509392505050565b6060613401848460008561340a565b90509392505050565b60608247101561344f576040517f08c379a00000000000000000000000000000000000000000000000000000000081526004016134469061409d565b60405180910390fd5b6134588561351e565b613497576040517f08c379a000000000000000000000000000000000000000000000000000000000815260040161348e9061421d565b60405180910390fd5b6000808673ffffffffffffffffffffffffffffffffffffffff1685876040516134c09190613efb565b60006040518083038185875af1925050503d80600081146134fd576040519150601f19603f3d011682016040523d82523d6000602084013e613502565b606091505b5091509150613512828286613531565b92505050949350505050565b600080823b905060008111915050919050565b6060831561354157829050613591565b6000835111156135545782518084602001fd5b816040517f08c379a00000000000000000000000000000000000000000000000000000000081526004016135889190613ffb565b60405180910390fd5b9392505050565b604051806020016040528060007bffffffffffffffffffffffffffffffffffffffffffffffffffffffff1681525090565b6000813590506135d8816147e3565b92915050565b6000813590506135ed816147fa565b92915050565b600081519050613602816147fa565b92915050565b60008135905061361781614811565b92915050565b60008135905061362c81614821565b92915050565b60008151905061364181614821565b92915050565b60008151905061365681614838565b92915050565b60006020828403121561366e57600080fd5b600061367c848285016135c9565b91505092915050565b6000806040838503121561369857600080fd5b60006136a6858286016135c9565b92505060206136b7858286016135de565b9150509250929050565b6000602082840312156136d357600080fd5b60006136e1848285016135f3565b91505092915050565b6000806000806080858703121561370057600080fd5b600061370e878288016135de565b945050602061371f8782880161361d565b93505060406137308782880161361d565b92505060606137418782880161361d565b91505092959194509250565b6000806040838503121561376057600080fd5b600061376e85828601613608565b925050602061377f8582860161361d565b9150509250929050565b60006020828403121561379b57600080fd5b60006137a98482850161361d565b91505092915050565b6000602082840312156137c457600080fd5b60006137d284828501613632565b91505092915050565b6000806000606084860312156137f057600080fd5b60006137fe8682870161361d565b935050602061380f8682870161361d565b9250506040613820868287016135c9565b9150509250925092565b600080600080600080600060e0888a03121561384557600080fd5b60006138538a828b0161361d565b97505060206138648a828b0161361d565b96505060406138758a828b0161361d565b95505060606138868a828b0161361d565b94505060806138978a828b0161361d565b93505060a06138a88a828b0161361d565b92505060c06138b98a828b0161361d565b91505092959891949750929550565b6000602082840312156138da57600080fd5b60006138e884828501613647565b91505092915050565b6138fa816146cd565b82525050565b613909816146df565b82525050565b600061391a82614415565b613924818561442b565b9350613934818560208601614734565b80840191505092915050565b61394981614722565b82525050565b600061395a82614420565b6139648185614436565b9350613974818560208601614734565b61397d816147c5565b840191505092915050565b6000613995601c83614436565b91507f44414f206665652063616e6e6f7420657863656564207061796f7574000000006000830152602082019050919050565b60006139d5600f83614436565b91507f496e76616c6964206164647265737300000000000000000000000000000000006000830152602082019050919050565b6000613a15602683614436565b91507f4f776e61626c653a206e6577206f776e657220697320746865207a65726f206160008301527f64647265737300000000000000000000000000000000000000000000000000006020830152604082019050919050565b6000613a7b602083614436565b91507f5061796f75742063616e6e6f742062652061626f766520312070657263656e746000830152602082019050919050565b6000613abb602683614436565b91507f416464726573733a20696e73756666696369656e742062616c616e636520666f60008301527f722063616c6c00000000000000000000000000000000000000000000000000006020830152604082019050919050565b6000613b21602683614436565b91507f4669786564506f696e743a3a6672616374696f6e3a206469766973696f6e206260008301527f79207a65726f00000000000000000000000000000000000000000000000000006020830152604082019050919050565b6000613b87601383614436565b91507f496e6372656d656e7420746f6f206c61726765000000000000000000000000006000830152602082019050919050565b6000613bc7601483614436565b91507f4d617820636170616369747920726561636865640000000000000000000000006000830152602082019050919050565b6000613c07601a83614436565b91507f46756c6c4d6174683a3a6d756c4469763a206f766572666c6f770000000000006000830152602082019050919050565b6000613c47600e83614436565b91507f426f6e6420746f6f20736d616c6c0000000000000000000000000000000000006000830152602082019050919050565b6000613c87602083614436565b91507f4f776e61626c653a2063616c6c6572206973206e6f7420746865206f776e65726000830152602082019050919050565b6000613cc7602383614436565b91507f536c697070616765206c696d69743a206d6f7265207468616e206d617820707260008301527f69636500000000000000000000000000000000000000000000000000000000006020830152604082019050919050565b6000613d2d602483614436565b91507f56657374696e67206d757374206265206c6f6e676572207468616e203336206860008301527f6f757273000000000000000000000000000000000000000000000000000000006020830152604082019050919050565b6000613d93601e83614436565b91507f4669786564506f696e743a3a6672616374696f6e3a206f766572666c6f7700006000830152602082019050919050565b6000613dd3602083614436565b91507f426f6e6473206d75737420626520696e697469616c697a65642066726f6d20306000830152602082019050919050565b6000613e13600e83614436565b91507f426f6e6420746f6f206c617267650000000000000000000000000000000000006000830152602082019050919050565b6000613e53601d83614436565b91507f416464726573733a2063616c6c20746f206e6f6e2d636f6e74726163740000006000830152602082019050919050565b6000613e93602a83614436565b91507f5361666545524332303a204552433230206f7065726174696f6e20646964206e60008301527f6f742073756363656564000000000000000000000000000000000000000000006020830152604082019050919050565b613ef58161470b565b82525050565b6000613f07828461390f565b915081905092915050565b6000602082019050613f2760008301846138f1565b92915050565b6000606082019050613f4260008301866138f1565b613f4f60208301856138f1565b613f5c6040830184613eec565b949350505050565b6000604082019050613f7960008301856138f1565b613f866020830184613eec565b9392505050565b6000602082019050613fa26000830184613900565b92915050565b600060a082019050613fbd6000830188613900565b613fca6020830187613eec565b613fd76040830186613eec565b613fe46060830185613eec565b613ff16080830184613eec565b9695505050505050565b60006020820190508181036000830152614015818461394f565b905092915050565b6000602082019050818103600083015261403681613988565b9050919050565b60006020820190508181036000830152614056816139c8565b9050919050565b6000602082019050818103600083015261407681613a08565b9050919050565b6000602082019050818103600083015261409681613a6e565b9050919050565b600060208201905081810360008301526140b681613aae565b9050919050565b600060208201905081810360008301526140d681613b14565b9050919050565b600060208201905081810360008301526140f681613b7a565b9050919050565b6000602082019050818103600083015261411681613bba565b9050919050565b6000602082019050818103600083015261413681613bfa565b9050919050565b6000602082019050818103600083015261415681613c3a565b9050919050565b6000602082019050818103600083015261417681613c7a565b9050919050565b6000602082019050818103600083015261419681613cba565b9050919050565b600060208201905081810360008301526141b681613d20565b9050919050565b600060208201905081810360008301526141d681613d86565b9050919050565b600060208201905081810360008301526141f681613dc6565b9050919050565b6000602082019050818103600083015261421681613e06565b9050919050565b6000602082019050818103600083015261423681613e46565b9050919050565b6000602082019050818103600083015261425681613e86565b9050919050565b60006020820190506142726000830184613eec565b92915050565b600060408201905061428d6000830185613eec565b61429a60208301846138f1565b9392505050565b60006060820190506142b66000830186613eec565b6142c360208301856138f1565b6142d06040830184613eec565b949350505050565b60006040820190506142ed6000830185613eec565b6142fa6020830184613940565b9392505050565b60006040820190506143166000830185613eec565b6143236020830184613eec565b9392505050565b600060808201905061433f6000830187613eec565b61434c6020830186613eec565b6143596040830185613eec565b6143666060830184613900565b95945050505050565b60006080820190506143846000830187613eec565b6143916020830186613eec565b61439e6040830185613eec565b6143ab6060830184613eec565b95945050505050565b600060c0820190506143c96000830189613eec565b6143d66020830188613eec565b6143e36040830187613eec565b6143f06060830186613eec565b6143fd6080830185613eec565b61440a60a0830184613eec565b979650505050505050565b600081519050919050565b600081519050919050565b600081905092915050565b600082825260208201905092915050565b60006144528261470b565b915061445d8361470b565b9250827fffffffffffffffffffffffffffffffffffffffffffffffffffffffffffffffff0382111561449257614491614767565b5b828201905092915050565b60006144a88261470b565b91506144b38361470b565b9250826144c3576144c2614796565b5b828204905092915050565b6000808291508390505b6001851115614518578086048111156144f4576144f3614767565b5b60018516156145035780820291505b8081029050614511856147d6565b94506144d8565b94509492505050565b600061452c8261470b565b915061453783614715565b92506145647fffffffffffffffffffffffffffffffffffffffffffffffffffffffffffffffff848461456c565b905092915050565b60008261457c5760019050614638565b8161458a5760009050614638565b81600181146145a057600281146145aa576145d9565b6001915050614638565b60ff8411156145bc576145bb614767565b5b8360020a9150848211156145d3576145d2614767565b5b50614638565b5060208310610133831016604e8410600b841016171561460e5782820a90508381111561460957614608614767565b5b614638565b61461b84848460016144ce565b9250905081840481111561463257614631614767565b5b81810290505b9392505050565b600061464a8261470b565b91506146558361470b565b9250817fffffffffffffffffffffffffffffffffffffffffffffffffffffffffffffffff048311821515161561468e5761468d614767565b5b828202905092915050565b60006146a48261470b565b91506146af8361470b565b9250828210156146c2576146c1614767565b5b828203905092915050565b60006146d8826146eb565b9050919050565b60008115159050919050565b600073ffffffffffffffffffffffffffffffffffffffff82169050919050565b6000819050919050565b600060ff82169050919050565b600061472d8261470b565b9050919050565b60005b83811015614752578082015181840152602081019050614737565b83811115614761576000848401525b50505050565b7f4e487b7100000000000000000000000000000000000000000000000000000000600052601160045260246000fd5b7f4e487b7100000000000000000000000000000000000000000000000000000000600052601260045260246000fd5b6000601f19601f8301169050919050565b60008160011c9050919050565b6147ec816146cd565b81146147f757600080fd5b50565b614803816146df565b811461480e57600080fd5b50565b6004811061481e57600080fd5b50565b61482a8161470b565b811461483557600080fd5b50565b61484181614715565b811461484c57600080fd5b5056fea2646970667358221220dddd6cbab39df8e40663f0cdc43eeee15202b06bf69091f8a74702171581e02864736f6c63430008000033",
  "immutableReferences": {
    "2279": [
      {
        "length": 32,
        "start": 3993
      },
      {
        "length": 32,
        "start": 6906
      },
      {
        "length": 32,
        "start": 7754
      },
      {
        "length": 32,
        "start": 8241
      },
      {
        "length": 32,
        "start": 9061
      },
      {
        "length": 32,
        "start": 9663
      },
      {
        "length": 32,
        "start": 9863
      },
      {
        "length": 32,
        "start": 10219
      }
    ],
    "2281": [
      {
        "length": 32,
        "start": 1692
      },
      {
        "length": 32,
        "start": 5185
      },
      {
        "length": 32,
        "start": 5377
      },
      {
        "length": 32,
        "start": 5978
      },
      {
        "length": 32,
        "start": 6374
      },
      {
        "length": 32,
        "start": 6445
      },
      {
        "length": 32,
        "start": 6712
      },
      {
        "length": 32,
        "start": 7516
      },
      {
        "length": 32,
        "start": 7843
      }
    ],
    "2283": [
      {
        "length": 32,
        "start": 4252
      },
      {
        "length": 32,
        "start": 5918
      },
      {
        "length": 32,
        "start": 6505
      },
      {
        "length": 32,
        "start": 6651
      }
    ],
    "2287": [
      {
        "length": 32,
        "start": 5079
      },
      {
        "length": 32,
        "start": 7407
      },
      {
        "length": 32,
        "start": 8904
      }
    ],
    "2289": [
      {
        "length": 32,
        "start": 5125
      },
      {
        "length": 32,
        "start": 7456
      },
      {
        "length": 32,
        "start": 8154
      }
    ]
  },
  "source": "// SPDX-License-Identifier: AGPL-3.0-or-later\npragma solidity 0.8.0;\n\nimport \"@openzeppelin/contracts/token/ERC20/ERC20.sol\";\nimport \"@openzeppelin/contracts/token/ERC20/utils/SafeERC20.sol\";\nimport \"@openzeppelin/contracts/utils/math/SafeMath.sol\";\nimport \"@openzeppelin/contracts/access/Ownable.sol\";\nimport \"./util/MathOther.sol\";\nimport \"./AthertonModels.sol\";\n\n// TODO-hightlight :: main logic\n\ncontract AthertonBondDepository is Ownable {\n\n    using FixedPoint for *;\n    using SafeERC20 for IERC20;\n    using SafeMath for uint;\n\n\n\n\n    /* ======== EVENTS ======== */\n\n    event BondCreated( uint deposit, uint indexed payout, uint indexed expires, uint indexed priceInUSD );\n    event BondRedeemed( address indexed recipient, uint payout, uint remaining );\n    event BondPriceChanged( uint indexed priceInUSD, uint indexed internalPrice, uint indexed debtRatio );\n    event ControlVariableAdjustment( uint initialBCV, uint newBCV, uint adjustment, bool addition );\n\n\n\n\n    /* ======== STATE VARIABLES ======== */\n\n    address public immutable ATHER; // token given as payment for bond\n    address public immutable principle; // token used to create bond\n    address public immutable treasury; // mints ATHER when receives principle\n    address public DAO; // receives profit share from bond\n\n    bool public immutable isLiquidityBond; // LP and Reserve bonds are treated slightly different\n    address public immutable bondCalculator; // calculates value of LP tokens\n\n    address public staking; // to auto-stake payout\n    address public stakingHelper; // to stake and claim if no staking warmup\n    bool public useHelper;\n\n    Terms public terms; // stores terms for new bonds\n    Adjust public adjustment; // stores adjustment to BCV data\n\n    mapping( address => Bond ) public bondInfo; // stores bond information for depositors\n\n    uint public totalDebt; // total value of outstanding bonds; used for pricing\n    uint public lastDecay; // reference block for debt decay\n\n\n\n\n    /* ======== STRUCTS ======== */\n\n    // Info for creating new bonds\n    struct Terms {\n        uint controlVariable; // scaling variable for price\n        uint vestingTerm; // in blocks\n        uint minimumPrice; // vs principle value\n        uint maxPayout; // in thousandths of a %. i.e. 500 = 0.5%\n        uint fee; // as % of bond payout, in hundreths. ( 500 = 5% = 0.05 for every 1 paid)\n        uint maxDebt; // 9 decimal debt ratio, max % total supply created as debt\n    }\n\n    // Info for bond holder\n    struct Bond {\n        uint payout; // ATHER remaining to be paid\n        uint vesting; // Blocks left to vest\n        uint lastBlock; // Last interaction\n        uint pricePaid; // In DAI, for front end viewing\n    }\n\n    // Info for incremental adjustments to control variable \n    struct Adjust {\n        bool add; // addition or subtraction\n        uint rate; // increment\n        uint target; // BCV when adjustment finished\n        uint buffer; // minimum length (in blocks) between adjustments\n        uint lastBlock; // block when last adjustment made\n    }\n\n\n\n\n    /* ======== INITIALIZATION ======== */\n\n    constructor ( \n        address _ATHER,\n        address _principle,\n        address _treasury, \n        address _DAO, \n        address _bondCalculator\n    ) {\n        require( _ATHER != address(0) );\n        ATHER = _ATHER;\n        require( _principle != address(0) );\n        principle = _principle;\n        require( _treasury != address(0) );\n        treasury = _treasury;\n        require( _DAO != address(0) );\n        DAO = _DAO;\n        // bondCalculator should be address(0) if not LP bond\n        bondCalculator = _bondCalculator;\n        isLiquidityBond = ( _bondCalculator != address(0) );\n    }\n\n    /**\n     *  @notice initializes bond parameters\n     *  @param _controlVariable uint\n     *  @param _vestingTerm uint\n     *  @param _minimumPrice uint\n     *  @param _maxPayout uint\n     *  @param _fee uint\n     *  @param _maxDebt uint\n     *  @param _initialDebt uint\n     */\n    function initializeBondTerms( \n        uint _controlVariable, \n        uint _vestingTerm,\n        uint _minimumPrice,\n        uint _maxPayout,\n        uint _fee,\n        uint _maxDebt,\n        uint _initialDebt\n    ) external onlyOwner() {\n        require( terms.controlVariable == 0, \"Bonds must be initialized from 0\" );\n        terms = Terms ({\n            controlVariable: _controlVariable,\n            vestingTerm: _vestingTerm,\n            minimumPrice: _minimumPrice,\n            maxPayout: _maxPayout,\n            fee: _fee,\n            maxDebt: _maxDebt\n        });\n        totalDebt = _initialDebt;\n        lastDecay = block.number;\n    }\n\n\n\n    \n    /* ======== POLICY FUNCTIONS ======== */\n\n    enum PARAMETER { VESTING, PAYOUT, FEE, DEBT }\n    /**\n     *  @notice set parameters for new bonds\n     *  @param _parameter PARAMETER\n     *  @param _input uint\n     */\n    function setBondTerms ( PARAMETER _parameter, uint _input ) external onlyOwner() {\n        if ( _parameter == PARAMETER.VESTING ) { // 0\n            require( _input >= 10000, \"Vesting must be longer than 36 hours\" );\n            terms.vestingTerm = _input;\n        } else if ( _parameter == PARAMETER.PAYOUT ) { // 1\n            require( _input <= 1000, \"Payout cannot be above 1 percent\" );\n            terms.maxPayout = _input;\n        } else if ( _parameter == PARAMETER.FEE ) { // 2\n            require( _input <= 10000, \"DAO fee cannot exceed payout\" );\n            terms.fee = _input;\n        } else if ( _parameter == PARAMETER.DEBT ) { // 3\n            terms.maxDebt = _input;\n        }\n    }\n\n    /**\n     *  @notice set control variable adjustment\n     *  @param _addition bool\n     *  @param _increment uint\n     *  @param _target uint\n     *  @param _buffer uint\n     */\n    function setAdjustment ( \n        bool _addition,\n        uint _increment, \n        uint _target,\n        uint _buffer \n    ) external onlyOwner() {\n        require( _increment <= terms.controlVariable.mul( 25 ).div( 1000 ), \"Increment too large\" );\n\n        adjustment = Adjust({\n            add: _addition,\n            rate: _increment,\n            target: _target,\n            buffer: _buffer,\n            lastBlock: block.number\n        });\n    }\n\n    /**\n     *  @notice set contract for auto stake\n     *  @param _staking address\n     *  @param _helper bool\n     */\n    function setStaking( address _staking, bool _helper ) external onlyOwner() {\n        require( _staking != address(0) );\n        if ( _helper ) {\n            useHelper = true;\n            stakingHelper = _staking;\n        } else {\n            useHelper = false;\n            staking = _staking;\n        }\n    }\n\n\n    \n\n    /* ======== USER FUNCTIONS ======== */\n\n    /**\n     *  @notice deposit bond\n     *  @param _amount uint\n     *  @param _maxPrice uint\n     *  @param _depositor address\n     *  @return uint\n     */\n    function deposit( \n        uint _amount, \n        uint _maxPrice,\n        address _depositor\n    ) external returns ( uint ) {\n        require( _depositor != address(0), \"Invalid address\" );\n\n        decayDebt();\n        require( totalDebt <= terms.maxDebt, \"Max capacity reached\" );\n        \n        uint priceInUSD = bondPriceInUSD(); // Stored in bond info\n        uint nativePrice = _bondPrice();\n\n        require( _maxPrice >= nativePrice, \"Slippage limit: more than max price\" ); // slippage protection\n\n        uint value = ITreasury( treasury ).valueOfToken( principle, _amount );\n        uint payout = payoutFor( value ); // payout to bonder is computed\n\n        require( payout >= 10000000, \"Bond too small\" ); // must be > 0.01 ATHER ( underflow protection )\n        require( payout <= maxPayout(), \"Bond too large\"); // size protection because there is no slippage\n\n        // profits are calculated\n        uint fee = payout.mul( terms.fee ).div( 10000 );\n        uint profit = value.sub( payout ).sub( fee );\n\n        /**\n            principle is transferred in\n            approved and\n            deposited into the treasury, returning (_amount - profit) ATHER\n         */\n        IERC20( principle ).safeTransferFrom( msg.sender, address(this), _amount );\n        IERC20( principle ).approve( address( treasury ), _amount );\n        ITreasury( treasury ).deposit( _amount, principle, profit );\n        \n        if ( fee != 0 ) { // fee is transferred to dao \n            IERC20( ATHER ).safeTransfer( DAO, fee );\n        }\n        \n        // total debt is increased\n        totalDebt = totalDebt.add( value ); \n                \n        // depositor info is stored\n        bondInfo[ _depositor ] = Bond({ \n            payout: bondInfo[ _depositor ].payout.add( payout ),\n            vesting: terms.vestingTerm,\n            lastBlock: block.number,\n            pricePaid: priceInUSD\n        });\n\n        // indexed events are emitted\n        emit BondCreated( _amount, payout, block.number.add( terms.vestingTerm ), priceInUSD );\n        emit BondPriceChanged( bondPriceInUSD(), _bondPrice(), debtRatio() );\n\n        adjust(); // control variable is adjusted\n        return payout; \n    }\n\n    /** \n     *  @notice redeem bond for user\n     *  @param _recipient address\n     *  @param _stake bool\n     *  @return uint\n     */ \n    function redeem( address _recipient, bool _stake ) external returns ( uint ) {        \n        Bond memory info = bondInfo[ _recipient ];\n        uint percentVested = percentVestedFor( _recipient ); // (blocks since last interaction / vesting term remaining)\n\n        if ( percentVested >= 10000 ) { // if fully vested\n            delete bondInfo[ _recipient ]; // delete user info\n            emit BondRedeemed( _recipient, info.payout, 0 ); // emit bond data\n            return stakeOrSend( _recipient, _stake, info.payout ); // pay user everything due\n\n        } else { // if unfinished\n            // calculate payout vested\n            uint payout = info.payout.mul( percentVested ).div( 10000 );\n\n            // store updated deposit info\n            bondInfo[ _recipient ] = Bond({\n                payout: info.payout.sub( payout ),\n                vesting: info.vesting.sub( block.number.sub( info.lastBlock ) ),\n                lastBlock: block.number,\n                pricePaid: info.pricePaid\n            });\n\n            emit BondRedeemed( _recipient, payout, bondInfo[ _recipient ].payout );\n            return stakeOrSend( _recipient, _stake, payout );\n        }\n    }\n\n\n\n    \n    /* ======== INTERNAL HELPER FUNCTIONS ======== */\n\n    /**\n     *  @notice allow user to stake payout automatically\n     *  @param _stake bool\n     *  @param _amount uint\n     *  @return uint\n     */\n    function stakeOrSend( address _recipient, bool _stake, uint _amount ) internal returns ( uint ) {\n        if ( !_stake ) { // if user does not want to stake\n            IERC20( ATHER ).transfer( _recipient, _amount ); // send payout\n        } else { // if user wants to stake\n            if ( useHelper ) { // use if staking warmup is 0\n                IERC20( ATHER ).approve( stakingHelper, _amount );\n                IStakingHelper( stakingHelper ).stake( _amount, _recipient );\n            } else {\n                IERC20( ATHER ).approve( staking, _amount );\n                IStaking( staking ).stake( _amount, _recipient );\n            }\n        }\n        return _amount;\n    }\n\n    /**\n     *  @notice makes incremental adjustment to control variable\n     */\n    function adjust() internal {\n        uint blockCanAdjust = adjustment.lastBlock.add( adjustment.buffer );\n        if( adjustment.rate != 0 && block.number >= blockCanAdjust ) {\n            uint initial = terms.controlVariable;\n            if ( adjustment.add ) {\n                terms.controlVariable = terms.controlVariable.add( adjustment.rate );\n                if ( terms.controlVariable >= adjustment.target ) {\n                    adjustment.rate = 0;\n                }\n            } else {\n                terms.controlVariable = terms.controlVariable.sub( adjustment.rate );\n                if ( terms.controlVariable <= adjustment.target ) {\n                    adjustment.rate = 0;\n                }\n            }\n            adjustment.lastBlock = block.number;\n            emit ControlVariableAdjustment( initial, terms.controlVariable, adjustment.rate, adjustment.add );\n        }\n    }\n\n    /**\n     *  @notice reduce total debt\n     */\n    function decayDebt() internal {\n        totalDebt = totalDebt.sub( debtDecay() );\n        lastDecay = block.number;\n    }\n\n\n\n\n    /* ======== VIEW FUNCTIONS ======== */\n\n    /**\n     *  @notice determine maximum bond size\n     *  @return uint\n     */\n    function maxPayout() public view returns ( uint ) {\n        return IERC20( ATHER ).totalSupply().mul( terms.maxPayout ).div( 100000 );\n    }\n\n    /**\n     *  @notice calculate interest due for new bond\n     *  @param _value uint\n     *  @return uint\n     */\n    function payoutFor( uint _value ) public view returns ( uint ) {\n        return FixedPoint.fraction( _value, bondPrice() ).decode112with18().div( 1e16 );\n    }\n\n\n    /**\n     *  @notice calculate current bond premium\n     *  @return price_ uint\n     */\n    function bondPrice() public view returns ( uint price_ ) {        \n        price_ = terms.controlVariable.mul( debtRatio() ).add( 1000000000 ).div( 1e7 );\n        if ( price_ < terms.minimumPrice ) {\n            price_ = terms.minimumPrice;\n        }\n    }\n\n    /**\n     *  @notice calculate current bond price and remove floor if above\n     *  @return price_ uint\n     */\n    function _bondPrice() internal returns ( uint price_ ) {\n        price_ = terms.controlVariable.mul( debtRatio() ).add( 1000000000 ).div( 1e7 );\n        if ( price_ < terms.minimumPrice ) {\n            price_ = terms.minimumPrice;        \n        } else if ( terms.minimumPrice != 0 ) {\n            terms.minimumPrice = 0;\n        }\n    }\n\n    /**\n     *  @notice converts bond price to DAI value\n     *  @return price_ uint\n     */\n    function bondPriceInUSD() public view returns ( uint price_ ) {\n        if( isLiquidityBond ) {\n            price_ = bondPrice().mul( IBondCalculator( bondCalculator ).markdown( principle ) ).div( 100 );\n        } else {\n            price_ = bondPrice().mul( 10 ** ERC20( principle ).decimals() ).div( 100 );\n        }\n    }\n\n\n    /**\n     *  @notice calculate current ratio of debt to ATHER supply\n     *  @return debtRatio_ uint\n     */\n    function debtRatio() public view returns ( uint debtRatio_ ) {   \n        uint supply = IERC20( ATHER ).totalSupply();\n        debtRatio_ = FixedPoint.fraction( \n            currentDebt().mul( 1e9 ), \n            supply\n        ).decode112with18().div( 1e18 );\n    }\n\n    /**\n     *  @notice debt ratio in same terms for reserve or liquidity bonds\n     *  @return uint\n     */\n    function standardizedDebtRatio() external view returns ( uint ) {\n        if ( isLiquidityBond ) {\n            return debtRatio().mul( IBondCalculator( bondCalculator ).markdown( principle ) ).div( 1e9 );\n        } else {\n            return debtRatio();\n        }\n    }\n\n    /**\n     *  @notice calculate debt factoring in decay\n     *  @return uint\n     */\n    function currentDebt() public view returns ( uint ) {\n        return totalDebt.sub( debtDecay() );\n    }\n\n    /**\n     *  @notice amount to decay total debt by\n     *  @return decay_ uint\n     */\n    function debtDecay() public view returns ( uint decay_ ) {\n        uint blocksSinceLast = block.number.sub( lastDecay );\n        decay_ = totalDebt.mul( blocksSinceLast ).div( terms.vestingTerm );\n        if ( decay_ > totalDebt ) {\n            decay_ = totalDebt;\n        }\n    }\n\n\n    /**\n     *  @notice calculate how far into vesting a depositor is\n     *  @param _depositor address\n     *  @return percentVested_ uint\n     */\n    function percentVestedFor( address _depositor ) public view returns ( uint percentVested_ ) {\n        Bond memory bond = bondInfo[ _depositor ];\n        uint blocksSinceLast = block.number.sub( bond.lastBlock );\n        uint vesting = bond.vesting;\n\n        if ( vesting > 0 ) {\n            percentVested_ = blocksSinceLast.mul( 10000 ).div( vesting );\n        } else {\n            percentVested_ = 0;\n        }\n    }\n\n    /**\n     *  @notice calculate amount of ATHER available for claim by depositor\n     *  @param _depositor address\n     *  @return pendingPayout_ uint\n     */\n    function pendingPayoutFor( address _depositor ) external view returns ( uint pendingPayout_ ) {\n        uint percentVested = percentVestedFor( _depositor );\n        uint payout = bondInfo[ _depositor ].payout;\n\n        if ( percentVested >= 10000 ) {\n            pendingPayout_ = payout;\n        } else {\n            pendingPayout_ = payout.mul( percentVested ).div( 10000 );\n        }\n    }\n\n\n\n\n    /* ======= AUXILLIARY ======= */\n\n    /**\n     *  @notice allow anyone to send lost tokens (excluding principle or ATHER) to the DAO\n     *  @return bool\n     */\n    function recoverLostToken( address _token ) external returns ( bool ) {\n        require( _token != ATHER );\n        require( _token != principle );\n        IERC20( _token ).safeTransfer( DAO, IERC20( _token ).balanceOf( address(this) ) );\n        return true;\n    }\n\n\n\n\n    /* ======= Governance Contingency ======= */\n    function setDao(address newDao) external onlyOwner() {\n        DAO = newDao;\n    }\n}",
  "sourcePath": "/var/www/atherton/evm/contracts/BondDepository.sol",
  "compiler": {
    "name": "solc",
    "version": "0.8.0+commit.c7dfd78e.Emscripten.clang"
  },
  "schemaVersion": "3.4.3",
  "updatedAt": "2021-12-04T00:51:05.818Z",
  "devdoc": {
    "kind": "dev",
    "methods": {
      "bondPrice()": {
        "returns": {
          "price_": "uint"
        }
      },
      "bondPriceInUSD()": {
        "returns": {
          "price_": "uint"
        }
      },
      "currentDebt()": {
        "returns": {
          "_0": "uint"
        }
      },
      "debtDecay()": {
        "returns": {
          "decay_": "uint"
        }
      },
      "debtRatio()": {
        "returns": {
          "debtRatio_": "uint"
        }
      },
      "deposit(uint256,uint256,address)": {
        "params": {
          "_amount": "uint",
          "_depositor": "address",
          "_maxPrice": "uint"
        },
        "returns": {
          "_0": "uint"
        }
      },
      "initializeBondTerms(uint256,uint256,uint256,uint256,uint256,uint256,uint256)": {
        "params": {
          "_controlVariable": "uint",
          "_fee": "uint",
          "_initialDebt": "uint",
          "_maxDebt": "uint",
          "_maxPayout": "uint",
          "_minimumPrice": "uint",
          "_vestingTerm": "uint"
        }
      },
      "maxPayout()": {
        "returns": {
          "_0": "uint"
        }
      },
      "owner()": {
        "details": "Returns the address of the current owner."
      },
      "payoutFor(uint256)": {
        "params": {
          "_value": "uint"
        },
        "returns": {
          "_0": "uint"
        }
      },
      "pendingPayoutFor(address)": {
        "params": {
          "_depositor": "address"
        },
        "returns": {
          "pendingPayout_": "uint"
        }
      },
      "percentVestedFor(address)": {
        "params": {
          "_depositor": "address"
        },
        "returns": {
          "percentVested_": "uint"
        }
      },
      "recoverLostToken(address)": {
        "returns": {
          "_0": "bool"
        }
      },
      "redeem(address,bool)": {
        "params": {
          "_recipient": "address",
          "_stake": "bool"
        },
        "returns": {
          "_0": "uint"
        }
      },
      "renounceOwnership()": {
        "details": "Leaves the contract without owner. It will not be possible to call `onlyOwner` functions anymore. Can only be called by the current owner. NOTE: Renouncing ownership will leave the contract without an owner, thereby removing any functionality that is only available to the owner."
      },
      "setAdjustment(bool,uint256,uint256,uint256)": {
        "params": {
          "_addition": "bool",
          "_buffer": "uint",
          "_increment": "uint",
          "_target": "uint"
        }
      },
      "setBondTerms(uint8,uint256)": {
        "params": {
          "_input": "uint",
          "_parameter": "PARAMETER"
        }
      },
      "setStaking(address,bool)": {
        "params": {
          "_helper": "bool",
          "_staking": "address"
        }
      },
      "standardizedDebtRatio()": {
        "returns": {
          "_0": "uint"
        }
      },
      "transferOwnership(address)": {
        "details": "Transfers ownership of the contract to a new account (`newOwner`). Can only be called by the current owner."
      }
    },
    "version": 1
  },
  "userdoc": {
    "kind": "user",
    "methods": {
      "bondPrice()": {
        "notice": "calculate current bond premium"
      },
      "bondPriceInUSD()": {
        "notice": "converts bond price to DAI value"
      },
      "currentDebt()": {
        "notice": "calculate debt factoring in decay"
      },
      "debtDecay()": {
        "notice": "amount to decay total debt by"
      },
      "debtRatio()": {
        "notice": "calculate current ratio of debt to ATHER supply"
      },
      "deposit(uint256,uint256,address)": {
        "notice": "deposit bond"
      },
      "initializeBondTerms(uint256,uint256,uint256,uint256,uint256,uint256,uint256)": {
        "notice": "initializes bond parameters"
      },
      "maxPayout()": {
        "notice": "determine maximum bond size"
      },
      "payoutFor(uint256)": {
        "notice": "calculate interest due for new bond"
      },
      "pendingPayoutFor(address)": {
        "notice": "calculate amount of ATHER available for claim by depositor"
      },
      "percentVestedFor(address)": {
        "notice": "calculate how far into vesting a depositor is"
      },
      "recoverLostToken(address)": {
        "notice": "allow anyone to send lost tokens (excluding principle or ATHER) to the DAO"
      },
      "redeem(address,bool)": {
        "notice": "redeem bond for user"
      },
      "setAdjustment(bool,uint256,uint256,uint256)": {
        "notice": "set control variable adjustment"
      },
      "setBondTerms(uint8,uint256)": {
        "notice": "set parameters for new bonds"
      },
      "setStaking(address,bool)": {
        "notice": "set contract for auto stake"
      },
      "standardizedDebtRatio()": {
        "notice": "debt ratio in same terms for reserve or liquidity bonds"
      }
    },
    "version": 1
  }
}