{
  "contractName": "AthertonUSDToken",
  "abi": [
    {
      "inputs": [],
      "stateMutability": "nonpayable",
      "type": "constructor"
    },
    {
      "anonymous": false,
      "inputs": [
        {
          "indexed": true,
          "internalType": "address",
          "name": "owner",
          "type": "address"
        },
        {
          "indexed": true,
          "internalType": "address",
          "name": "spender",
          "type": "address"
        },
        {
          "indexed": false,
          "internalType": "uint256",
          "name": "value",
          "type": "uint256"
        }
      ],
      "name": "Approval",
      "type": "event"
    },
    {
      "anonymous": false,
      "inputs": [
        {
          "indexed": true,
          "internalType": "address",
          "name": "previousOwner",
          "type": "address"
        },
        {
          "indexed": true,
          "internalType": "address",
          "name": "newOwner",
          "type": "address"
        }
      ],
      "name": "OwnershipTransferred",
      "type": "event"
    },
    {
      "anonymous": false,
      "inputs": [
        {
          "indexed": true,
          "internalType": "address",
          "name": "from",
          "type": "address"
        },
        {
          "indexed": true,
          "internalType": "address",
          "name": "to",
          "type": "address"
        },
        {
          "indexed": false,
          "internalType": "uint256",
          "name": "value",
          "type": "uint256"
        }
      ],
      "name": "Transfer",
      "type": "event"
    },
    {
      "inputs": [],
      "name": "DOMAIN_SEPARATOR",
      "outputs": [
        {
          "internalType": "bytes32",
          "name": "",
          "type": "bytes32"
        }
      ],
      "stateMutability": "view",
      "type": "function"
    },
    {
      "inputs": [],
      "name": "PERMIT_TYPEHASH",
      "outputs": [
        {
          "internalType": "bytes32",
          "name": "",
          "type": "bytes32"
        }
      ],
      "stateMutability": "view",
      "type": "function"
    },
    {
      "inputs": [
        {
          "internalType": "address",
          "name": "owner",
          "type": "address"
        },
        {
          "internalType": "address",
          "name": "spender",
          "type": "address"
        }
      ],
      "name": "allowance",
      "outputs": [
        {
          "internalType": "uint256",
          "name": "",
          "type": "uint256"
        }
      ],
      "stateMutability": "view",
      "type": "function"
    },
    {
      "inputs": [
        {
          "internalType": "address",
          "name": "spender",
          "type": "address"
        },
        {
          "internalType": "uint256",
          "name": "amount",
          "type": "uint256"
        }
      ],
      "name": "approve",
      "outputs": [
        {
          "internalType": "bool",
          "name": "",
          "type": "bool"
        }
      ],
      "stateMutability": "nonpayable",
      "type": "function"
    },
    {
      "inputs": [
        {
          "internalType": "address",
          "name": "account",
          "type": "address"
        }
      ],
      "name": "balanceOf",
      "outputs": [
        {
          "internalType": "uint256",
          "name": "",
          "type": "uint256"
        }
      ],
      "stateMutability": "view",
      "type": "function"
    },
    {
      "inputs": [],
      "name": "decimals",
      "outputs": [
        {
          "internalType": "uint8",
          "name": "",
          "type": "uint8"
        }
      ],
      "stateMutability": "view",
      "type": "function"
    },
    {
      "inputs": [
        {
          "internalType": "address",
          "name": "spender",
          "type": "address"
        },
        {
          "internalType": "uint256",
          "name": "subtractedValue",
          "type": "uint256"
        }
      ],
      "name": "decreaseAllowance",
      "outputs": [
        {
          "internalType": "bool",
          "name": "",
          "type": "bool"
        }
      ],
      "stateMutability": "nonpayable",
      "type": "function"
    },
    {
      "inputs": [
        {
          "internalType": "address",
          "name": "spender",
          "type": "address"
        },
        {
          "internalType": "uint256",
          "name": "addedValue",
          "type": "uint256"
        }
      ],
      "name": "increaseAllowance",
      "outputs": [
        {
          "internalType": "bool",
          "name": "",
          "type": "bool"
        }
      ],
      "stateMutability": "nonpayable",
      "type": "function"
    },
    {
      "inputs": [],
      "name": "name",
      "outputs": [
        {
          "internalType": "string",
          "name": "",
          "type": "string"
        }
      ],
      "stateMutability": "view",
      "type": "function"
    },
    {
      "inputs": [
        {
          "internalType": "address",
          "name": "owner",
          "type": "address"
        }
      ],
      "name": "nonces",
      "outputs": [
        {
          "internalType": "uint256",
          "name": "",
          "type": "uint256"
        }
      ],
      "stateMutability": "view",
      "type": "function"
    },
    {
      "inputs": [],
      "name": "owner",
      "outputs": [
        {
          "internalType": "address",
          "name": "",
          "type": "address"
        }
      ],
      "stateMutability": "view",
      "type": "function"
    },
    {
      "inputs": [
        {
          "internalType": "address",
          "name": "owner",
          "type": "address"
        },
        {
          "internalType": "address",
          "name": "spender",
          "type": "address"
        },
        {
          "internalType": "uint256",
          "name": "amount",
          "type": "uint256"
        },
        {
          "internalType": "uint256",
          "name": "deadline",
          "type": "uint256"
        },
        {
          "internalType": "uint8",
          "name": "v",
          "type": "uint8"
        },
        {
          "internalType": "bytes32",
          "name": "r",
          "type": "bytes32"
        },
        {
          "internalType": "bytes32",
          "name": "s",
          "type": "bytes32"
        }
      ],
      "name": "permit",
      "outputs": [],
      "stateMutability": "nonpayable",
      "type": "function"
    },
    {
      "inputs": [],
      "name": "renounceOwnership",
      "outputs": [],
      "stateMutability": "nonpayable",
      "type": "function"
    },
    {
      "inputs": [
        {
          "internalType": "address",
          "name": "vault_",
          "type": "address"
        }
      ],
      "name": "setVault",
      "outputs": [
        {
          "internalType": "bool",
          "name": "",
          "type": "bool"
        }
      ],
      "stateMutability": "nonpayable",
      "type": "function"
    },
    {
      "inputs": [],
      "name": "symbol",
      "outputs": [
        {
          "internalType": "string",
          "name": "",
          "type": "string"
        }
      ],
      "stateMutability": "view",
      "type": "function"
    },
    {
      "inputs": [],
      "name": "totalSupply",
      "outputs": [
        {
          "internalType": "uint256",
          "name": "",
          "type": "uint256"
        }
      ],
      "stateMutability": "view",
      "type": "function"
    },
    {
      "inputs": [
        {
          "internalType": "address",
          "name": "recipient",
          "type": "address"
        },
        {
          "internalType": "uint256",
          "name": "amount",
          "type": "uint256"
        }
      ],
      "name": "transfer",
      "outputs": [
        {
          "internalType": "bool",
          "name": "",
          "type": "bool"
        }
      ],
      "stateMutability": "nonpayable",
      "type": "function"
    },
    {
      "inputs": [
        {
          "internalType": "address",
          "name": "sender",
          "type": "address"
        },
        {
          "internalType": "address",
          "name": "recipient",
          "type": "address"
        },
        {
          "internalType": "uint256",
          "name": "amount",
          "type": "uint256"
        }
      ],
      "name": "transferFrom",
      "outputs": [
        {
          "internalType": "bool",
          "name": "",
          "type": "bool"
        }
      ],
      "stateMutability": "nonpayable",
      "type": "function"
    },
    {
      "inputs": [
        {
          "internalType": "address",
          "name": "newOwner",
          "type": "address"
        }
      ],
      "name": "transferOwnership",
      "outputs": [],
      "stateMutability": "nonpayable",
      "type": "function"
    },
    {
      "inputs": [],
      "name": "vault",
      "outputs": [
        {
          "internalType": "address",
          "name": "",
          "type": "address"
        }
      ],
      "stateMutability": "view",
      "type": "function"
    },
    {
      "inputs": [
        {
          "internalType": "address",
          "name": "account_",
          "type": "address"
        },
        {
          "internalType": "uint256",
          "name": "amount_",
          "type": "uint256"
        }
      ],
      "name": "mint",
      "outputs": [],
      "stateMutability": "nonpayable",
      "type": "function"
    },
    {
      "inputs": [
        {
          "internalType": "address",
          "name": "account_",
          "type": "address"
        },
        {
          "internalType": "uint256",
          "name": "amount_",
          "type": "uint256"
        }
      ],
      "name": "burnFrom",
      "outputs": [],
      "stateMutability": "nonpayable",
      "type": "function"
    }
  ],
  "bytecode": "0x60806040523480156200001157600080fd5b506040518060400160405280600c81526020017f4174686572746f6e2055534400000000000000000000000000000000000000008152506040518060400160405280600881526020017f4174686572555344000000000000000000000000000000000000000000000000815250816003908051906020019062000096929190620002ef565b508060049080519060200190620000af929190620002ef565b50505060004690507f8b73c3c69bb8fe3d512ecc4cf759cc79239f7b179b0ffacaa9a75d522b39400f620000e86200018760201b60201c565b805190602001206040518060400160405280600181526020017f310000000000000000000000000000000000000000000000000000000000000081525080519060200120833060405160200162000144959493929190620003d2565b604051602081830303815290604052805190602001206006819055505062000181620001756200022160201b60201c565b6200022960201b60201c565b620004dc565b606060038054620001989062000477565b80601f0160208091040260200160405190810160405280929190818152602001828054620001c69062000477565b8015620002175780601f10620001eb5761010080835404028352916020019162000217565b820191906000526020600020905b815481529060010190602001808311620001f957829003601f168201915b5050505050905090565b600033905090565b6000600760009054906101000a900473ffffffffffffffffffffffffffffffffffffffff16905081600760006101000a81548173ffffffffffffffffffffffffffffffffffffffff021916908373ffffffffffffffffffffffffffffffffffffffff1602179055508173ffffffffffffffffffffffffffffffffffffffff168173ffffffffffffffffffffffffffffffffffffffff167f8be0079c531659141344cd1fd0a4f28419497f9722a3daafe3b4186f6b6457e060405160405180910390a35050565b828054620002fd9062000477565b90600052602060002090601f0160209004810192826200032157600085556200036d565b82601f106200033c57805160ff19168380011785556200036d565b828001600101855582156200036d579182015b828111156200036c5782518255916020019190600101906200034f565b5b5090506200037c919062000380565b5090565b5b808211156200039b57600081600090555060010162000381565b5090565b620003aa816200042f565b82525050565b620003bb8162000443565b82525050565b620003cc816200046d565b82525050565b600060a082019050620003e96000830188620003b0565b620003f86020830187620003b0565b620004076040830186620003b0565b620004166060830185620003c1565b6200042560808301846200039f565b9695505050505050565b60006200043c826200044d565b9050919050565b6000819050919050565b600073ffffffffffffffffffffffffffffffffffffffff82169050919050565b6000819050919050565b600060028204905060018216806200049057607f821691505b60208210811415620004a757620004a6620004ad565b5b50919050565b7f4e487b7100000000000000000000000000000000000000000000000000000000600052602260045260246000fd5b61269c80620004ec6000396000f3fe608060405234801561001057600080fd5b50600436106101425760003560e01c8063715018a6116100b8578063a457c2d71161007c578063a457c2d71461037b578063a9059cbb146103ab578063d505accf146103db578063dd62ed3e146103f7578063f2fde38b14610427578063fbfa77cf1461044357610142565b8063715018a6146102e957806379cc6790146102f35780637ecebe001461030f5780638da5cb5b1461033f57806395d89b411461035d57610142565b8063313ce5671161010a578063313ce567146102015780633644e5151461021f578063395093511461023d57806340c10f191461026d5780636817031b1461028957806370a08231146102b957610142565b806306fdde0314610147578063095ea7b31461016557806318160ddd1461019557806323b872dd146101b357806330adf81f146101e3575b600080fd5b61014f610461565b60405161015c91906121c2565b60405180910390f35b61017f600480360381019061017a9190611a18565b6104f3565b60405161018c91906120e6565b60405180910390f35b61019d610511565b6040516101aa91906123c4565b60405180910390f35b6101cd60048036038101906101c8919061192b565b61051b565b6040516101da91906120e6565b60405180910390f35b6101eb610613565b6040516101f89190612101565b60405180910390f35b61020961063a565b60405161021691906123df565b60405180910390f35b610227610643565b6040516102349190612101565b60405180910390f35b61025760048036038101906102529190611a18565b610649565b60405161026491906120e6565b60405180910390f35b61028760048036038101906102829190611a18565b6106f5565b005b6102a3600480360381019061029e91906118c6565b610793565b6040516102b091906120e6565b60405180910390f35b6102d360048036038101906102ce91906118c6565b61085b565b6040516102e091906123c4565b60405180910390f35b6102f16108a3565b005b61030d60048036038101906103089190611a18565b61092b565b005b610329600480360381019061032491906118c6565b6109c9565b60405161033691906123c4565b60405180910390f35b610347610a19565b60405161035491906120cb565b60405180910390f35b610365610a43565b60405161037291906121c2565b60405180910390f35b61039560048036038101906103909190611a18565b610ad5565b6040516103a291906120e6565b60405180910390f35b6103c560048036038101906103c09190611a18565b610bc0565b6040516103d291906120e6565b60405180910390f35b6103f560048036038101906103f0919061197a565b610bde565b005b610411600480360381019061040c91906118ef565b610e4a565b60405161041e91906123c4565b60405180910390f35b610441600480360381019061043c91906118c6565b610ed1565b005b61044b610fc9565b60405161045891906120cb565b60405180910390f35b60606003805461047090612540565b80601f016020809104026020016040519081016040528092919081815260200182805461049c90612540565b80156104e95780601f106104be576101008083540402835291602001916104e9565b820191906000526020600020905b8154815290600101906020018083116104cc57829003601f168201915b5050505050905090565b6000610507610500610ff3565b8484610ffb565b6001905092915050565b6000600254905090565b60006105288484846111c6565b6000600160008673ffffffffffffffffffffffffffffffffffffffff1673ffffffffffffffffffffffffffffffffffffffff1681526020019081526020016000206000610573610ff3565b73ffffffffffffffffffffffffffffffffffffffff1673ffffffffffffffffffffffffffffffffffffffff168152602001908152602001600020549050828110156105f3576040517f08c379a00000000000000000000000000000000000000000000000000000000081526004016105ea906122c4565b60405180910390fd5b610607856105ff610ff3565b858403610ffb565b60019150509392505050565b7f6e71edae12b1b97f4d1f60370fef10105fa2faae0126114a169c64845d6126c960001b81565b60006012905090565b60065481565b60006106eb610656610ff3565b848460016000610664610ff3565b73ffffffffffffffffffffffffffffffffffffffff1673ffffffffffffffffffffffffffffffffffffffff16815260200190815260200160002060008873ffffffffffffffffffffffffffffffffffffffff1673ffffffffffffffffffffffffffffffffffffffff168152602001908152602001600020546106e69190612416565b610ffb565b6001905092915050565b3373ffffffffffffffffffffffffffffffffffffffff16600860009054906101000a900473ffffffffffffffffffffffffffffffffffffffff1673ffffffffffffffffffffffffffffffffffffffff1614610785576040517f08c379a000000000000000000000000000000000000000000000000000000000815260040161077c906122e4565b60405180910390fd5b61078f8282611447565b5050565b600061079d610ff3565b73ffffffffffffffffffffffffffffffffffffffff166107bb610a19565b73ffffffffffffffffffffffffffffffffffffffff1614610811576040517f08c379a000000000000000000000000000000000000000000000000000000000815260040161080890612304565b60405180910390fd5b81600860006101000a81548173ffffffffffffffffffffffffffffffffffffffff021916908373ffffffffffffffffffffffffffffffffffffffff16021790555060019050919050565b60008060008373ffffffffffffffffffffffffffffffffffffffff1673ffffffffffffffffffffffffffffffffffffffff168152602001908152602001600020549050919050565b6108ab610ff3565b73ffffffffffffffffffffffffffffffffffffffff166108c9610a19565b73ffffffffffffffffffffffffffffffffffffffff161461091f576040517f08c379a000000000000000000000000000000000000000000000000000000000815260040161091690612304565b60405180910390fd5b61092960006115a7565b565b3373ffffffffffffffffffffffffffffffffffffffff16600860009054906101000a900473ffffffffffffffffffffffffffffffffffffffff1673ffffffffffffffffffffffffffffffffffffffff16146109bb576040517f08c379a00000000000000000000000000000000000000000000000000000000081526004016109b2906122e4565b60405180910390fd5b6109c5828261166d565b5050565b6000610a12600560008473ffffffffffffffffffffffffffffffffffffffff1673ffffffffffffffffffffffffffffffffffffffff168152602001908152602001600020611844565b9050919050565b6000600760009054906101000a900473ffffffffffffffffffffffffffffffffffffffff16905090565b606060048054610a5290612540565b80601f0160208091040260200160405190810160405280929190818152602001828054610a7e90612540565b8015610acb5780601f10610aa057610100808354040283529160200191610acb565b820191906000526020600020905b815481529060010190602001808311610aae57829003601f168201915b5050505050905090565b60008060016000610ae4610ff3565b73ffffffffffffffffffffffffffffffffffffffff1673ffffffffffffffffffffffffffffffffffffffff16815260200190815260200160002060008573ffffffffffffffffffffffffffffffffffffffff1673ffffffffffffffffffffffffffffffffffffffff16815260200190815260200160002054905082811015610ba1576040517f08c379a0000000000000000000000000000000000000000000000000000000008152600401610b9890612384565b60405180910390fd5b610bb5610bac610ff3565b85858403610ffb565b600191505092915050565b6000610bd4610bcd610ff3565b84846111c6565b6001905092915050565b83421115610c21576040517f08c379a0000000000000000000000000000000000000000000000000000000008152600401610c1890612264565b60405180910390fd5b60007f6e71edae12b1b97f4d1f60370fef10105fa2faae0126114a169c64845d6126c960001b888888610c91600560008e73ffffffffffffffffffffffffffffffffffffffff1673ffffffffffffffffffffffffffffffffffffffff168152602001908152602001600020611844565b89604051602001610ca79695949392919061211c565b604051602081830303815290604052805190602001209050600061190160065483604051602001610cda9392919061208e565b604051602081830303815290604052805190602001209050600060018287878760405160008152602001604052604051610d17949392919061217d565b6020604051602081039080840390855afa158015610d39573d6000803e3d6000fd5b505050602060405103519050600073ffffffffffffffffffffffffffffffffffffffff168173ffffffffffffffffffffffffffffffffffffffff1614158015610dad57508973ffffffffffffffffffffffffffffffffffffffff168173ffffffffffffffffffffffffffffffffffffffff16145b610dec576040517f08c379a0000000000000000000000000000000000000000000000000000000008152600401610de3906122a4565b60405180910390fd5b610e33600560008c73ffffffffffffffffffffffffffffffffffffffff1673ffffffffffffffffffffffffffffffffffffffff168152602001908152602001600020611852565b610e3e8a8a8a610ffb565b50505050505050505050565b6000600160008473ffffffffffffffffffffffffffffffffffffffff1673ffffffffffffffffffffffffffffffffffffffff16815260200190815260200160002060008373ffffffffffffffffffffffffffffffffffffffff1673ffffffffffffffffffffffffffffffffffffffff16815260200190815260200160002054905092915050565b610ed9610ff3565b73ffffffffffffffffffffffffffffffffffffffff16610ef7610a19565b73ffffffffffffffffffffffffffffffffffffffff1614610f4d576040517f08c379a0000000000000000000000000000000000000000000000000000000008152600401610f4490612304565b60405180910390fd5b600073ffffffffffffffffffffffffffffffffffffffff168173ffffffffffffffffffffffffffffffffffffffff161415610fbd576040517f08c379a0000000000000000000000000000000000000000000000000000000008152600401610fb490612224565b60405180910390fd5b610fc6816115a7565b50565b6000600860009054906101000a900473ffffffffffffffffffffffffffffffffffffffff16905090565b600033905090565b600073ffffffffffffffffffffffffffffffffffffffff168373ffffffffffffffffffffffffffffffffffffffff16141561106b576040517f08c379a000000000000000000000000000000000000000000000000000000000815260040161106290612364565b60405180910390fd5b600073ffffffffffffffffffffffffffffffffffffffff168273ffffffffffffffffffffffffffffffffffffffff1614156110db576040517f08c379a00000000000000000000000000000000000000000000000000000000081526004016110d290612244565b60405180910390fd5b80600160008573ffffffffffffffffffffffffffffffffffffffff1673ffffffffffffffffffffffffffffffffffffffff16815260200190815260200160002060008473ffffffffffffffffffffffffffffffffffffffff1673ffffffffffffffffffffffffffffffffffffffff168152602001908152602001600020819055508173ffffffffffffffffffffffffffffffffffffffff168373ffffffffffffffffffffffffffffffffffffffff167f8c5be1e5ebec7d5bd14f71427d1e84f3dd0314c0f7b2291e5b200ac8c7c3b925836040516111b991906123c4565b60405180910390a3505050565b600073ffffffffffffffffffffffffffffffffffffffff168373ffffffffffffffffffffffffffffffffffffffff161415611236576040517f08c379a000000000000000000000000000000000000000000000000000000000815260040161122d90612344565b60405180910390fd5b600073ffffffffffffffffffffffffffffffffffffffff168273ffffffffffffffffffffffffffffffffffffffff1614156112a6576040517f08c379a000000000000000000000000000000000000000000000000000000000815260040161129d906121e4565b60405180910390fd5b6112b1838383611868565b60008060008573ffffffffffffffffffffffffffffffffffffffff1673ffffffffffffffffffffffffffffffffffffffff16815260200190815260200160002054905081811015611337576040517f08c379a000000000000000000000000000000000000000000000000000000000815260040161132e90612284565b60405180910390fd5b8181036000808673ffffffffffffffffffffffffffffffffffffffff1673ffffffffffffffffffffffffffffffffffffffff16815260200190815260200160002081905550816000808573ffffffffffffffffffffffffffffffffffffffff1673ffffffffffffffffffffffffffffffffffffffff16815260200190815260200160002060008282546113ca9190612416565b925050819055508273ffffffffffffffffffffffffffffffffffffffff168473ffffffffffffffffffffffffffffffffffffffff167fddf252ad1be2c89b69c2b068fc378daa952ba7f163c4a11628f55a4df523b3ef8460405161142e91906123c4565b60405180910390a361144184848461186d565b50505050565b600073ffffffffffffffffffffffffffffffffffffffff168273ffffffffffffffffffffffffffffffffffffffff1614156114b7576040517f08c379a00000000000000000000000000000000000000000000000000000000081526004016114ae906123a4565b60405180910390fd5b6114c360008383611868565b80600260008282546114d59190612416565b92505081905550806000808473ffffffffffffffffffffffffffffffffffffffff1673ffffffffffffffffffffffffffffffffffffffff168152602001908152602001600020600082825461152a9190612416565b925050819055508173ffffffffffffffffffffffffffffffffffffffff16600073ffffffffffffffffffffffffffffffffffffffff167fddf252ad1be2c89b69c2b068fc378daa952ba7f163c4a11628f55a4df523b3ef8360405161158f91906123c4565b60405180910390a36115a36000838361186d565b5050565b6000600760009054906101000a900473ffffffffffffffffffffffffffffffffffffffff16905081600760006101000a81548173ffffffffffffffffffffffffffffffffffffffff021916908373ffffffffffffffffffffffffffffffffffffffff1602179055508173ffffffffffffffffffffffffffffffffffffffff168173ffffffffffffffffffffffffffffffffffffffff167f8be0079c531659141344cd1fd0a4f28419497f9722a3daafe3b4186f6b6457e060405160405180910390a35050565b600073ffffffffffffffffffffffffffffffffffffffff168273ffffffffffffffffffffffffffffffffffffffff1614156116dd576040517f08c379a00000000000000000000000000000000000000000000000000000000081526004016116d490612324565b60405180910390fd5b6116e982600083611868565b60008060008473ffffffffffffffffffffffffffffffffffffffff1673ffffffffffffffffffffffffffffffffffffffff1681526020019081526020016000205490508181101561176f576040517f08c379a000000000000000000000000000000000000000000000000000000000815260040161176690612204565b60405180910390fd5b8181036000808573ffffffffffffffffffffffffffffffffffffffff1673ffffffffffffffffffffffffffffffffffffffff1681526020019081526020016000208190555081600260008282546117c6919061246c565b92505081905550600073ffffffffffffffffffffffffffffffffffffffff168373ffffffffffffffffffffffffffffffffffffffff167fddf252ad1be2c89b69c2b068fc378daa952ba7f163c4a11628f55a4df523b3ef8460405161182b91906123c4565b60405180910390a361183f8360008461186d565b505050565b600081600001549050919050565b6001816000016000828254019250508190555050565b505050565b505050565b6000813590506118818161260a565b92915050565b60008135905061189681612621565b92915050565b6000813590506118ab81612638565b92915050565b6000813590506118c08161264f565b92915050565b6000602082840312156118d857600080fd5b60006118e684828501611872565b91505092915050565b6000806040838503121561190257600080fd5b600061191085828601611872565b925050602061192185828601611872565b9150509250929050565b60008060006060848603121561194057600080fd5b600061194e86828701611872565b935050602061195f86828701611872565b92505060406119708682870161189c565b9150509250925092565b600080600080600080600060e0888a03121561199557600080fd5b60006119a38a828b01611872565b97505060206119b48a828b01611872565b96505060406119c58a828b0161189c565b95505060606119d68a828b0161189c565b94505060806119e78a828b016118b1565b93505060a06119f88a828b01611887565b92505060c0611a098a828b01611887565b91505092959891949750929550565b60008060408385031215611a2b57600080fd5b6000611a3985828601611872565b9250506020611a4a8582860161189c565b9150509250929050565b611a5d816124a0565b82525050565b611a6c816124b2565b82525050565b611a7b816124be565b82525050565b611a92611a8d826124be565b612572565b82525050565b6000611aa3826123fa565b611aad8185612405565b9350611abd81856020860161250d565b611ac6816125ec565b840191505092915050565b6000611ade602383612405565b91507f45524332303a207472616e7366657220746f20746865207a65726f206164647260008301527f65737300000000000000000000000000000000000000000000000000000000006020830152604082019050919050565b6000611b44602283612405565b91507f45524332303a206275726e20616d6f756e7420657863656564732062616c616e60008301527f63650000000000000000000000000000000000000000000000000000000000006020830152604082019050919050565b6000611baa602683612405565b91507f4f776e61626c653a206e6577206f776e657220697320746865207a65726f206160008301527f64647265737300000000000000000000000000000000000000000000000000006020830152604082019050919050565b6000611c10602283612405565b91507f45524332303a20617070726f766520746f20746865207a65726f20616464726560008301527f73730000000000000000000000000000000000000000000000000000000000006020830152604082019050919050565b6000611c76601883612405565b91507f5065726d69743a206578706972656420646561646c696e6500000000000000006000830152602082019050919050565b6000611cb6602683612405565b91507f45524332303a207472616e7366657220616d6f756e742065786365656473206260008301527f616c616e636500000000000000000000000000000000000000000000000000006020830152604082019050919050565b6000611d1c602183612405565b91507f5a65726f537761705065726d69743a20496e76616c6964207369676e6174757260008301527f65000000000000000000000000000000000000000000000000000000000000006020830152604082019050919050565b6000611d82602883612405565b91507f45524332303a207472616e7366657220616d6f756e742065786365656473206160008301527f6c6c6f77616e63650000000000000000000000000000000000000000000000006020830152604082019050919050565b6000611de8602383612405565b91507f5661756c744f776e65643a2063616c6c6572206973206e6f742074686520566160008301527f756c7400000000000000000000000000000000000000000000000000000000006020830152604082019050919050565b6000611e4e602083612405565b91507f4f776e61626c653a2063616c6c6572206973206e6f7420746865206f776e65726000830152602082019050919050565b6000611e8e602183612405565b91507f45524332303a206275726e2066726f6d20746865207a65726f2061646472657360008301527f73000000000000000000000000000000000000000000000000000000000000006020830152604082019050919050565b6000611ef4602583612405565b91507f45524332303a207472616e736665722066726f6d20746865207a65726f20616460008301527f64726573730000000000000000000000000000000000000000000000000000006020830152604082019050919050565b6000611f5a602483612405565b91507f45524332303a20617070726f76652066726f6d20746865207a65726f2061646460008301527f72657373000000000000000000000000000000000000000000000000000000006020830152604082019050919050565b6000611fc0602583612405565b91507f45524332303a2064656372656173656420616c6c6f77616e63652062656c6f7760008301527f207a65726f0000000000000000000000000000000000000000000000000000006020830152604082019050919050565b6000612026601f83612405565b91507f45524332303a206d696e7420746f20746865207a65726f2061646472657373006000830152602082019050919050565b61206a612065826124c8565b61257c565b82525050565b612079816124f6565b82525050565b61208881612500565b82525050565b600061209a8286612059565b6002820191506120aa8285611a81565b6020820191506120ba8284611a81565b602082019150819050949350505050565b60006020820190506120e06000830184611a54565b92915050565b60006020820190506120fb6000830184611a63565b92915050565b60006020820190506121166000830184611a72565b92915050565b600060c0820190506121316000830189611a72565b61213e6020830188611a54565b61214b6040830187611a54565b6121586060830186612070565b6121656080830185612070565b61217260a0830184612070565b979650505050505050565b60006080820190506121926000830187611a72565b61219f602083018661207f565b6121ac6040830185611a72565b6121b96060830184611a72565b95945050505050565b600060208201905081810360008301526121dc8184611a98565b905092915050565b600060208201905081810360008301526121fd81611ad1565b9050919050565b6000602082019050818103600083015261221d81611b37565b9050919050565b6000602082019050818103600083015261223d81611b9d565b9050919050565b6000602082019050818103600083015261225d81611c03565b9050919050565b6000602082019050818103600083015261227d81611c69565b9050919050565b6000602082019050818103600083015261229d81611ca9565b9050919050565b600060208201905081810360008301526122bd81611d0f565b9050919050565b600060208201905081810360008301526122dd81611d75565b9050919050565b600060208201905081810360008301526122fd81611ddb565b9050919050565b6000602082019050818103600083015261231d81611e41565b9050919050565b6000602082019050818103600083015261233d81611e81565b9050919050565b6000602082019050818103600083015261235d81611ee7565b9050919050565b6000602082019050818103600083015261237d81611f4d565b9050919050565b6000602082019050818103600083015261239d81611fb3565b9050919050565b600060208201905081810360008301526123bd81612019565b9050919050565b60006020820190506123d96000830184612070565b92915050565b60006020820190506123f4600083018461207f565b92915050565b600081519050919050565b600082825260208201905092915050565b6000612421826124f6565b915061242c836124f6565b9250827fffffffffffffffffffffffffffffffffffffffffffffffffffffffffffffffff038211156124615761246061258e565b5b828201905092915050565b6000612477826124f6565b9150612482836124f6565b9250828210156124955761249461258e565b5b828203905092915050565b60006124ab826124d6565b9050919050565b60008115159050919050565b6000819050919050565b600061ffff82169050919050565b600073ffffffffffffffffffffffffffffffffffffffff82169050919050565b6000819050919050565b600060ff82169050919050565b60005b8381101561252b578082015181840152602081019050612510565b8381111561253a576000848401525b50505050565b6000600282049050600182168061255857607f821691505b6020821081141561256c5761256b6125bd565b5b50919050565b6000819050919050565b6000612587826125fd565b9050919050565b7f4e487b7100000000000000000000000000000000000000000000000000000000600052601160045260246000fd5b7f4e487b7100000000000000000000000000000000000000000000000000000000600052602260045260246000fd5b6000601f19601f8301169050919050565b60008160f01b9050919050565b612613816124a0565b811461261e57600080fd5b50565b61262a816124be565b811461263557600080fd5b50565b612641816124f6565b811461264c57600080fd5b50565b61265881612500565b811461266357600080fd5b5056fea2646970667358221220545be89431e7f5f39e622367020db5788152f6ea1c4c1b847752743e29e07bd064736f6c63430008000033",
  "immutableReferences": {},
  "source": "// SPDX-License-Identifier: AGPL-3.0-or-later\npragma solidity 0.8.0;\n\nimport \"@openzeppelin/contracts/utils/math/SafeMath.sol\";\nimport \"@openzeppelin/contracts/access/Ownable.sol\";\nimport \"./util/ERC20Permit.sol\";\nimport \"./util/VaultOwned.sol\";\n\n// TODO-hightlight :: main logic\n\ncontract AthertonUSDToken is ERC20Permit, VaultOwned {\n\n    using SafeMath for uint256;\n\n    constructor() ERC20(\"Atherton USD\", \"AtherUSD\") {\n\n    }\n\n    function mint(address account_, uint256 amount_) public onlyVault() {\n        _mint(account_, amount_);\n    }\n\n    function burnFrom(address account_, uint256 amount_) public onlyVault() {\n        _burn(account_, amount_);\n    }\n}",
  "sourcePath": "/var/www/atherton/solidity/contracts/AthertonUSD.sol",
  "compiler": {
    "name": "solc",
    "version": "0.8.0+commit.c7dfd78e.Emscripten.clang"
  },
  "schemaVersion": "3.4.3",
  "updatedAt": "2021-12-07T05:40:45.559Z",
  "devdoc": {
    "kind": "dev",
    "methods": {
      "allowance(address,address)": {
        "details": "See {IERC20-allowance}."
      },
      "approve(address,uint256)": {
        "details": "See {IERC20-approve}. Requirements: - `spender` cannot be the zero address."
      },
      "balanceOf(address)": {
        "details": "See {IERC20-balanceOf}."
      },
      "decimals()": {
        "details": "Returns the number of decimals used to get its user representation. For example, if `decimals` equals `2`, a balance of `505` tokens should be displayed to a user as `5.05` (`505 / 10 ** 2`). Tokens usually opt for a value of 18, imitating the relationship between Ether and Wei. This is the value {ERC20} uses, unless this function is overridden; NOTE: This information is only used for _display_ purposes: it in no way affects any of the arithmetic of the contract, including {IERC20-balanceOf} and {IERC20-transfer}."
      },
      "decreaseAllowance(address,uint256)": {
        "details": "Atomically decreases the allowance granted to `spender` by the caller. This is an alternative to {approve} that can be used as a mitigation for problems described in {IERC20-approve}. Emits an {Approval} event indicating the updated allowance. Requirements: - `spender` cannot be the zero address. - `spender` must have allowance for the caller of at least `subtractedValue`."
      },
      "increaseAllowance(address,uint256)": {
        "details": "Atomically increases the allowance granted to `spender` by the caller. This is an alternative to {approve} that can be used as a mitigation for problems described in {IERC20-approve}. Emits an {Approval} event indicating the updated allowance. Requirements: - `spender` cannot be the zero address."
      },
      "name()": {
        "details": "Returns the name of the token."
      },
      "owner()": {
        "details": "Returns the address of the current owner."
      },
      "renounceOwnership()": {
        "details": "Leaves the contract without owner. It will not be possible to call `onlyOwner` functions anymore. Can only be called by the current owner. NOTE: Renouncing ownership will leave the contract without an owner, thereby removing any functionality that is only available to the owner."
      },
      "symbol()": {
        "details": "Returns the symbol of the token, usually a shorter version of the name."
      },
      "totalSupply()": {
        "details": "See {IERC20-totalSupply}."
      },
      "transfer(address,uint256)": {
        "details": "See {IERC20-transfer}. Requirements: - `recipient` cannot be the zero address. - the caller must have a balance of at least `amount`."
      },
      "transferFrom(address,address,uint256)": {
        "details": "See {IERC20-transferFrom}. Emits an {Approval} event indicating the updated allowance. This is not required by the EIP. See the note at the beginning of {ERC20}. Requirements: - `sender` and `recipient` cannot be the zero address. - `sender` must have a balance of at least `amount`. - the caller must have allowance for ``sender``'s tokens of at least `amount`."
      },
      "transferOwnership(address)": {
        "details": "Transfers ownership of the contract to a new account (`newOwner`). Can only be called by the current owner."
      }
    },
    "version": 1
  },
  "userdoc": {
    "kind": "user",
    "methods": {},
    "version": 1
  }
}