{
  "contractName": "AthertonStaking",
  "abi": [
    {
      "inputs": [
        {
          "internalType": "address",
          "name": "_DAO",
          "type": "address"
        },
        {
          "internalType": "address",
          "name": "_ATHER",
          "type": "address"
        },
        {
          "internalType": "address",
          "name": "_sATHER",
          "type": "address"
        },
        {
          "internalType": "uint256",
          "name": "_epochLength",
          "type": "uint256"
        },
        {
          "internalType": "uint256",
          "name": "_firstEpochNumber",
          "type": "uint256"
        },
        {
          "internalType": "uint256",
          "name": "_firstEpochBlock",
          "type": "uint256"
        }
      ],
      "stateMutability": "nonpayable",
      "type": "constructor"
    },
    {
      "anonymous": false,
      "inputs": [
        {
          "indexed": true,
          "internalType": "address",
          "name": "previousOwner",
          "type": "address"
        },
        {
          "indexed": true,
          "internalType": "address",
          "name": "newOwner",
          "type": "address"
        }
      ],
      "name": "OwnershipTransferred",
      "type": "event"
    },
    {
      "inputs": [],
      "name": "ATHER",
      "outputs": [
        {
          "internalType": "address",
          "name": "",
          "type": "address"
        }
      ],
      "stateMutability": "view",
      "type": "function"
    },
    {
      "inputs": [],
      "name": "DAO",
      "outputs": [
        {
          "internalType": "address",
          "name": "",
          "type": "address"
        }
      ],
      "stateMutability": "view",
      "type": "function"
    },
    {
      "inputs": [],
      "name": "distributor",
      "outputs": [
        {
          "internalType": "address",
          "name": "",
          "type": "address"
        }
      ],
      "stateMutability": "view",
      "type": "function"
    },
    {
      "inputs": [],
      "name": "epoch",
      "outputs": [
        {
          "internalType": "uint256",
          "name": "length",
          "type": "uint256"
        },
        {
          "internalType": "uint256",
          "name": "number",
          "type": "uint256"
        },
        {
          "internalType": "uint256",
          "name": "endBlock",
          "type": "uint256"
        },
        {
          "internalType": "uint256",
          "name": "distribute",
          "type": "uint256"
        }
      ],
      "stateMutability": "view",
      "type": "function"
    },
    {
      "inputs": [],
      "name": "forfeitPenalty",
      "outputs": [
        {
          "internalType": "uint256",
          "name": "",
          "type": "uint256"
        }
      ],
      "stateMutability": "view",
      "type": "function"
    },
    {
      "inputs": [],
      "name": "locker",
      "outputs": [
        {
          "internalType": "address",
          "name": "",
          "type": "address"
        }
      ],
      "stateMutability": "view",
      "type": "function"
    },
    {
      "inputs": [],
      "name": "owner",
      "outputs": [
        {
          "internalType": "address",
          "name": "",
          "type": "address"
        }
      ],
      "stateMutability": "view",
      "type": "function"
    },
    {
      "inputs": [],
      "name": "renounceOwnership",
      "outputs": [],
      "stateMutability": "nonpayable",
      "type": "function"
    },
    {
      "inputs": [],
      "name": "sATHER",
      "outputs": [
        {
          "internalType": "address",
          "name": "",
          "type": "address"
        }
      ],
      "stateMutability": "view",
      "type": "function"
    },
    {
      "inputs": [],
      "name": "totalBonus",
      "outputs": [
        {
          "internalType": "uint256",
          "name": "",
          "type": "uint256"
        }
      ],
      "stateMutability": "view",
      "type": "function"
    },
    {
      "inputs": [
        {
          "internalType": "address",
          "name": "newOwner",
          "type": "address"
        }
      ],
      "name": "transferOwnership",
      "outputs": [],
      "stateMutability": "nonpayable",
      "type": "function"
    },
    {
      "inputs": [],
      "name": "warmupContract",
      "outputs": [
        {
          "internalType": "address",
          "name": "",
          "type": "address"
        }
      ],
      "stateMutability": "view",
      "type": "function"
    },
    {
      "inputs": [
        {
          "internalType": "address",
          "name": "",
          "type": "address"
        }
      ],
      "name": "warmupInfo",
      "outputs": [
        {
          "internalType": "uint256",
          "name": "deposit",
          "type": "uint256"
        },
        {
          "internalType": "uint256",
          "name": "gons",
          "type": "uint256"
        },
        {
          "internalType": "uint256",
          "name": "expiry",
          "type": "uint256"
        },
        {
          "internalType": "bool",
          "name": "lock",
          "type": "bool"
        }
      ],
      "stateMutability": "view",
      "type": "function"
    },
    {
      "inputs": [],
      "name": "warmupPeriod",
      "outputs": [
        {
          "internalType": "uint256",
          "name": "",
          "type": "uint256"
        }
      ],
      "stateMutability": "view",
      "type": "function"
    },
    {
      "inputs": [
        {
          "internalType": "uint256",
          "name": "_amount",
          "type": "uint256"
        },
        {
          "internalType": "address",
          "name": "_recipient",
          "type": "address"
        }
      ],
      "name": "stake",
      "outputs": [
        {
          "internalType": "bool",
          "name": "",
          "type": "bool"
        }
      ],
      "stateMutability": "nonpayable",
      "type": "function"
    },
    {
      "inputs": [
        {
          "internalType": "address",
          "name": "_recipient",
          "type": "address"
        }
      ],
      "name": "claim",
      "outputs": [],
      "stateMutability": "nonpayable",
      "type": "function"
    },
    {
      "inputs": [],
      "name": "forfeit",
      "outputs": [],
      "stateMutability": "nonpayable",
      "type": "function"
    },
    {
      "inputs": [],
      "name": "toggleDepositLock",
      "outputs": [],
      "stateMutability": "nonpayable",
      "type": "function"
    },
    {
      "inputs": [
        {
          "internalType": "uint256",
          "name": "_amount",
          "type": "uint256"
        },
        {
          "internalType": "bool",
          "name": "_trigger",
          "type": "bool"
        }
      ],
      "name": "unstake",
      "outputs": [],
      "stateMutability": "nonpayable",
      "type": "function"
    },
    {
      "inputs": [],
      "name": "index",
      "outputs": [
        {
          "internalType": "uint256",
          "name": "",
          "type": "uint256"
        }
      ],
      "stateMutability": "view",
      "type": "function"
    },
    {
      "inputs": [],
      "name": "rebase",
      "outputs": [],
      "stateMutability": "nonpayable",
      "type": "function"
    },
    {
      "inputs": [],
      "name": "contractBalance",
      "outputs": [
        {
          "internalType": "uint256",
          "name": "",
          "type": "uint256"
        }
      ],
      "stateMutability": "view",
      "type": "function"
    },
    {
      "inputs": [
        {
          "internalType": "uint256",
          "name": "_amount",
          "type": "uint256"
        }
      ],
      "name": "giveLockBonus",
      "outputs": [],
      "stateMutability": "nonpayable",
      "type": "function"
    },
    {
      "inputs": [
        {
          "internalType": "uint256",
          "name": "_amount",
          "type": "uint256"
        }
      ],
      "name": "returnLockBonus",
      "outputs": [],
      "stateMutability": "nonpayable",
      "type": "function"
    },
    {
      "inputs": [
        {
          "internalType": "enum AthertonStaking.CONTRACTS",
          "name": "_contract",
          "type": "uint8"
        },
        {
          "internalType": "address",
          "name": "_address",
          "type": "address"
        }
      ],
      "name": "setContract",
      "outputs": [],
      "stateMutability": "nonpayable",
      "type": "function"
    },
    {
      "inputs": [
        {
          "internalType": "uint256",
          "name": "_warmupPeriod",
          "type": "uint256"
        }
      ],
      "name": "setWarmup",
      "outputs": [],
      "stateMutability": "nonpayable",
      "type": "function"
    },
    {
      "inputs": [
        {
          "internalType": "uint256",
          "name": "_penalty",
          "type": "uint256"
        }
      ],
      "name": "setForfeitPenalty",
      "outputs": [],
      "stateMutability": "nonpayable",
      "type": "function"
    },
    {
      "inputs": [
        {
          "internalType": "address",
          "name": "newDao",
          "type": "address"
        }
      ],
      "name": "setDao",
      "outputs": [],
      "stateMutability": "nonpayable",
      "type": "function"
    }
  ],
  "bytecode": "0x60c06040523480156200001157600080fd5b506040516200321f3803806200321f83398181016040528101906200003791906200030c565b620000576200004b6200021260201b60201c565b6200021a60201b60201c565b600073ffffffffffffffffffffffffffffffffffffffff168673ffffffffffffffffffffffffffffffffffffffff1614156200009257600080fd5b85600160006101000a81548173ffffffffffffffffffffffffffffffffffffffff021916908373ffffffffffffffffffffffffffffffffffffffff160217905550600073ffffffffffffffffffffffffffffffffffffffff168573ffffffffffffffffffffffffffffffffffffffff1614156200010e57600080fd5b8473ffffffffffffffffffffffffffffffffffffffff1660808173ffffffffffffffffffffffffffffffffffffffff1660601b81525050600073ffffffffffffffffffffffffffffffffffffffff168473ffffffffffffffffffffffffffffffffffffffff1614156200018057600080fd5b8373ffffffffffffffffffffffffffffffffffffffff1660a08173ffffffffffffffffffffffffffffffffffffffff1660601b815250506040518060800160405280848152602001838152602001828152602001600081525060026000820151816000015560208201518160010155604082015181600201556060820151816003015590505050505050505062000414565b600033905090565b60008060009054906101000a900473ffffffffffffffffffffffffffffffffffffffff169050816000806101000a81548173ffffffffffffffffffffffffffffffffffffffff021916908373ffffffffffffffffffffffffffffffffffffffff1602179055508173ffffffffffffffffffffffffffffffffffffffff168173ffffffffffffffffffffffffffffffffffffffff167f8be0079c531659141344cd1fd0a4f28419497f9722a3daafe3b4186f6b6457e060405160405180910390a35050565b600081519050620002ef81620003e0565b92915050565b6000815190506200030681620003fa565b92915050565b60008060008060008060c087890312156200032657600080fd5b60006200033689828a01620002de565b96505060206200034989828a01620002de565b95505060406200035c89828a01620002de565b94505060606200036f89828a01620002f5565b93505060806200038289828a01620002f5565b92505060a06200039589828a01620002f5565b9150509295509295509295565b6000620003af82620003b6565b9050919050565b600073ffffffffffffffffffffffffffffffffffffffff82169050919050565b6000819050919050565b620003eb81620003a2565b8114620003f757600080fd5b50565b6200040581620003d6565b81146200041157600080fd5b50565b60805160601c60a05160601c612d6f620004b060003960008181610577015281816107170152818161081a01528181610bb301528181610d41015281816113660152818161140d0152818161160c0152818161170b01528181611ab90152611dba0152600081816108bd01528181610a7601528181611176015281816113b201528181611c3201528181611c7d0152611cd30152612d6f6000f3fe608060405234801561001057600080fd5b50600436106101c45760003560e01c806398fabd3a116100f9578063c9f464ff11610097578063ed4acaa811610071578063ed4acaa814610479578063f2fde38b14610497578063f3d86e4a146104b3578063f62ae76a146104bd576101c4565b8063c9f464ff14610421578063d7b96d4e1461043d578063deac361a1461045b576101c4565b8063af14052c116100d3578063af14052c146103bf578063bfe10928146103c9578063c188a200146103e7578063c289b21614610405576101c4565b806398fabd3a146103675780639ebea88c14610385578063a8dd07dc146103a1576101c4565b80637acb7757116101665780638da5cb5b116101405780638da5cb5b146103005780638f077b831461031e578063900cf0cf146103285780639697f58a14610349576101c4565b80637acb775714610296578063865e6fd3146102c65780638b7afe2e146102e2576101c4565b80634e3d8853116101a25780634e3d88531461021f5780636637b8821461023d5780636746f4c214610259578063715018a61461028c576101c4565b806303c23670146101c95780631e83409a146101e55780632986c0e514610201575b600080fd5b6101e360048036038101906101de91906123ae565b6104d9565b005b6101ff60048036038101906101fa9190612320565b6105be565b005b610209610816565b604051610216919061299c565b60405180910390f35b6102276108bb565b60405161023491906127e4565b60405180910390f35b61025760048036038101906102529190612320565b6108df565b005b610273600480360381019061026e9190612320565b61099f565b60405161028394939291906129e0565b60405180910390f35b6102946109dc565b005b6102b060048036038101906102ab9190612400565b610a64565b6040516102bd919061285f565b60405180910390f35b6102e060048036038101906102db9190612372565b610d90565b005b6102ea61116c565b6040516102f7919061299c565b60405180910390f35b610308611230565b60405161031591906127e4565b60405180910390f35b610326611259565b005b610330611305565b6040516103409493929190612a25565b60405180910390f35b610351611323565b60405161035e919061299c565b60405180910390f35b61036f611329565b60405161037c91906127e4565b60405180910390f35b61039f600480360381019061039a919061243c565b61134f565b005b6103a96113fa565b6040516103b6919061299c565b60405180910390f35b6103c7611400565b005b6103d16116e3565b6040516103de91906127e4565b60405180910390f35b6103ef611709565b6040516103fc91906127e4565b60405180910390f35b61041f600480360381019061041a91906123ae565b61172d565b005b61043b600480360381019061043691906123ae565b6117b3565b005b610445611839565b60405161045291906127e4565b60405180910390f35b61046361185f565b604051610470919061299c565b60405180910390f35b610481611865565b60405161048e91906127e4565b60405180910390f35b6104b160048036038101906104ac9190612320565b61188b565b005b6104bb611983565b005b6104d760048036038101906104d291906123ae565b611d1b565b005b600760009054906101000a900473ffffffffffffffffffffffffffffffffffffffff1673ffffffffffffffffffffffffffffffffffffffff163373ffffffffffffffffffffffffffffffffffffffff161461053357600080fd5b61054881600854611e0290919063ffffffff16565b6008819055506105bb600760009054906101000a900473ffffffffffffffffffffffffffffffffffffffff16827f000000000000000000000000000000000000000000000000000000000000000073ffffffffffffffffffffffffffffffffffffffff16611e189092919063ffffffff16565b50565b6000600c60008373ffffffffffffffffffffffffffffffffffffffff1673ffffffffffffffffffffffffffffffffffffffff1681526020019081526020016000206040518060800160405290816000820154815260200160018201548152602001600282015481526020016003820160009054906101000a900460ff161515151581525050905080604001516002600101541015801561066357506000816040015114155b1561081257600c60008373ffffffffffffffffffffffffffffffffffffffff1673ffffffffffffffffffffffffffffffffffffffff168152602001908152602001600020600080820160009055600182016000905560028201600090556003820160006101000a81549060ff02191690555050600960009054906101000a900473ffffffffffffffffffffffffffffffffffffffff1673ffffffffffffffffffffffffffffffffffffffff1663c3a2a665837f000000000000000000000000000000000000000000000000000000000000000073ffffffffffffffffffffffffffffffffffffffff16637965d56d85602001516040518263ffffffff1660e01b8152600401610772919061299c565b60206040518083038186803b15801561078a57600080fd5b505afa15801561079e573d6000803e3d6000fd5b505050506040513d601f19601f820116820180604052508101906107c291906123d7565b6040518363ffffffff1660e01b81526004016107df929190612836565b600060405180830381600087803b1580156107f957600080fd5b505af115801561080d573d6000803e3d6000fd5b505050505b5050565b60007f000000000000000000000000000000000000000000000000000000000000000073ffffffffffffffffffffffffffffffffffffffff16632986c0e56040518163ffffffff1660e01b815260040160206040518083038186803b15801561087e57600080fd5b505afa158015610892573d6000803e3d6000fd5b505050506040513d601f19601f820116820180604052508101906108b691906123d7565b905090565b7f000000000000000000000000000000000000000000000000000000000000000081565b6108e7611e9e565b73ffffffffffffffffffffffffffffffffffffffff16610905611230565b73ffffffffffffffffffffffffffffffffffffffff161461095b576040517f08c379a00000000000000000000000000000000000000000000000000000000081526004016109529061293c565b60405180910390fd5b80600160006101000a81548173ffffffffffffffffffffffffffffffffffffffff021916908373ffffffffffffffffffffffffffffffffffffffff16021790555050565b600c6020528060005260406000206000915090508060000154908060010154908060020154908060030160009054906101000a900460ff16905084565b6109e4611e9e565b73ffffffffffffffffffffffffffffffffffffffff16610a02611230565b73ffffffffffffffffffffffffffffffffffffffff1614610a58576040517f08c379a0000000000000000000000000000000000000000000000000000000008152600401610a4f9061293c565b60405180910390fd5b610a626000611ea6565b565b6000610a6e611400565b610abb3330857f000000000000000000000000000000000000000000000000000000000000000073ffffffffffffffffffffffffffffffffffffffff16611f6a909392919063ffffffff16565b6000600c60008473ffffffffffffffffffffffffffffffffffffffff1673ffffffffffffffffffffffffffffffffffffffff1681526020019081526020016000206040518060800160405290816000820154815260200160018201548152602001600282015481526020016003820160009054906101000a900460ff1615151515815250509050806060015115610b87576040517f08c379a0000000000000000000000000000000000000000000000000000000008152600401610b7e9061289c565b60405180910390fd5b6040518060800160405280610ba9868460000151611e0290919063ffffffff16565b8152602001610c6d7f000000000000000000000000000000000000000000000000000000000000000073ffffffffffffffffffffffffffffffffffffffff16631bd39674886040518263ffffffff1660e01b8152600401610c0a919061299c565b60206040518083038186803b158015610c2257600080fd5b505afa158015610c36573d6000803e3d6000fd5b505050506040513d601f19601f82011682018060405250810190610c5a91906123d7565b8460200151611e0290919063ffffffff16565b8152602001610c8c600a54600260010154611e0290919063ffffffff16565b815260200160001515815250600c60008573ffffffffffffffffffffffffffffffffffffffff1673ffffffffffffffffffffffffffffffffffffffff16815260200190815260200160002060008201518160000155602082015181600101556040820151816002015560608201518160030160006101000a81548160ff021916908315150217905550905050610d85600960009054906101000a900473ffffffffffffffffffffffffffffffffffffffff16857f000000000000000000000000000000000000000000000000000000000000000073ffffffffffffffffffffffffffffffffffffffff16611e189092919063ffffffff16565b600191505092915050565b610d98611e9e565b73ffffffffffffffffffffffffffffffffffffffff16610db6611230565b73ffffffffffffffffffffffffffffffffffffffff1614610e0c576040517f08c379a0000000000000000000000000000000000000000000000000000000008152600401610e039061293c565b60405180910390fd5b60006002811115610e46577f4e487b7100000000000000000000000000000000000000000000000000000000600052602160045260246000fd5b826002811115610e7f577f4e487b7100000000000000000000000000000000000000000000000000000000600052602160045260246000fd5b1415610ecb5780600660006101000a81548173ffffffffffffffffffffffffffffffffffffffff021916908373ffffffffffffffffffffffffffffffffffffffff160217905550611168565b60016002811115610f05577f4e487b7100000000000000000000000000000000000000000000000000000000600052602160045260246000fd5b826002811115610f3e577f4e487b7100000000000000000000000000000000000000000000000000000000600052602160045260246000fd5b141561101b57600073ffffffffffffffffffffffffffffffffffffffff16600960009054906101000a900473ffffffffffffffffffffffffffffffffffffffff1673ffffffffffffffffffffffffffffffffffffffff1614610fd5576040517f08c379a0000000000000000000000000000000000000000000000000000000008152600401610fcc906128fc565b60405180910390fd5b80600960006101000a81548173ffffffffffffffffffffffffffffffffffffffff021916908373ffffffffffffffffffffffffffffffffffffffff160217905550611167565b600280811115611054577f4e487b7100000000000000000000000000000000000000000000000000000000600052602160045260246000fd5b82600281111561108d577f4e487b7100000000000000000000000000000000000000000000000000000000600052602160045260246000fd5b141561116657600073ffffffffffffffffffffffffffffffffffffffff16600760009054906101000a900473ffffffffffffffffffffffffffffffffffffffff1673ffffffffffffffffffffffffffffffffffffffff1614611124576040517f08c379a000000000000000000000000000000000000000000000000000000000815260040161111b906128bc565b60405180910390fd5b80600760006101000a81548173ffffffffffffffffffffffffffffffffffffffff021916908373ffffffffffffffffffffffffffffffffffffffff1602179055505b5b5b5050565b600061122b6008547f000000000000000000000000000000000000000000000000000000000000000073ffffffffffffffffffffffffffffffffffffffff166370a08231306040518263ffffffff1660e01b81526004016111cd91906127e4565b60206040518083038186803b1580156111e557600080fd5b505afa1580156111f9573d6000803e3d6000fd5b505050506040513d601f19601f8201168201806040525081019061121d91906123d7565b611e0290919063ffffffff16565b905090565b60008060009054906101000a900473ffffffffffffffffffffffffffffffffffffffff16905090565b600c60003373ffffffffffffffffffffffffffffffffffffffff1673ffffffffffffffffffffffffffffffffffffffff16815260200190815260200160002060030160009054906101000a900460ff1615600c60003373ffffffffffffffffffffffffffffffffffffffff1673ffffffffffffffffffffffffffffffffffffffff16815260200190815260200160002060030160006101000a81548160ff021916908315150217905550565b60028060000154908060010154908060020154908060030154905084565b600b5481565b600160009054906101000a900473ffffffffffffffffffffffffffffffffffffffff1681565b801561135e5761135d611400565b5b6113ab3330847f000000000000000000000000000000000000000000000000000000000000000073ffffffffffffffffffffffffffffffffffffffff16611f6a909392919063ffffffff16565b6113f633837f000000000000000000000000000000000000000000000000000000000000000073ffffffffffffffffffffffffffffffffffffffff16611e189092919063ffffffff16565b5050565b60085481565b436002800154116116e1577f000000000000000000000000000000000000000000000000000000000000000073ffffffffffffffffffffffffffffffffffffffff1663058ecdb46002600301546002600101546040518363ffffffff1660e01b81526004016114709291906129b7565b602060405180830381600087803b15801561148a57600080fd5b505af115801561149e573d6000803e3d6000fd5b505050506040513d601f19601f820116820180604052508101906114c291906123d7565b506114df6002600001546002800154611e0290919063ffffffff16565b6002800181905550600260010160008154809291906114fd90612c2c565b9190505550600073ffffffffffffffffffffffffffffffffffffffff16600660009054906101000a900473ffffffffffffffffffffffffffffffffffffffff1673ffffffffffffffffffffffffffffffffffffffff16146115fc57600660009054906101000a900473ffffffffffffffffffffffffffffffffffffffff1673ffffffffffffffffffffffffffffffffffffffff1663e4fc6b6d6040518163ffffffff1660e01b8152600401602060405180830381600087803b1580156115c257600080fd5b505af11580156115d6573d6000803e3d6000fd5b505050506040513d601f19601f820116820180604052508101906115fa9190612349565b505b600061160661116c565b905060007f000000000000000000000000000000000000000000000000000000000000000073ffffffffffffffffffffffffffffffffffffffff16639358928b6040518163ffffffff1660e01b815260040160206040518083038186803b15801561167057600080fd5b505afa158015611684573d6000803e3d6000fd5b505050506040513d601f19601f820116820180604052508101906116a891906123d7565b90508082116116c15760006002600301819055506116de565b6116d48183611ff390919063ffffffff16565b6002600301819055505b50505b565b600660009054906101000a900473ffffffffffffffffffffffffffffffffffffffff1681565b7f000000000000000000000000000000000000000000000000000000000000000081565b611735611e9e565b73ffffffffffffffffffffffffffffffffffffffff16611753611230565b73ffffffffffffffffffffffffffffffffffffffff16146117a9576040517f08c379a00000000000000000000000000000000000000000000000000000000081526004016117a09061293c565b60405180910390fd5b80600b8190555050565b6117bb611e9e565b73ffffffffffffffffffffffffffffffffffffffff166117d9611230565b73ffffffffffffffffffffffffffffffffffffffff161461182f576040517f08c379a00000000000000000000000000000000000000000000000000000000081526004016118269061293c565b60405180910390fd5b80600a8190555050565b600760009054906101000a900473ffffffffffffffffffffffffffffffffffffffff1681565b600a5481565b600960009054906101000a900473ffffffffffffffffffffffffffffffffffffffff1681565b611893611e9e565b73ffffffffffffffffffffffffffffffffffffffff166118b1611230565b73ffffffffffffffffffffffffffffffffffffffff1614611907576040517f08c379a00000000000000000000000000000000000000000000000000000000081526004016118fe9061293c565b60405180910390fd5b600073ffffffffffffffffffffffffffffffffffffffff168173ffffffffffffffffffffffffffffffffffffffff161415611977576040517f08c379a000000000000000000000000000000000000000000000000000000000815260040161196e906128dc565b60405180910390fd5b61198081611ea6565b50565b6000600c60003373ffffffffffffffffffffffffffffffffffffffff1673ffffffffffffffffffffffffffffffffffffffff1681526020019081526020016000206040518060800160405290816000820154815260200160018201548152602001600282015481526020016003820160009054906101000a900460ff1615151515815250509050600c60003373ffffffffffffffffffffffffffffffffffffffff1673ffffffffffffffffffffffffffffffffffffffff168152602001908152602001600020600080820160009055600182016000905560028201600090556003820160006101000a81549060ff02191690555050600960009054906101000a900473ffffffffffffffffffffffffffffffffffffffff1673ffffffffffffffffffffffffffffffffffffffff1663c3a2a665307f000000000000000000000000000000000000000000000000000000000000000073ffffffffffffffffffffffffffffffffffffffff16637965d56d85602001516040518263ffffffff1660e01b8152600401611b14919061299c565b60206040518083038186803b158015611b2c57600080fd5b505afa158015611b40573d6000803e3d6000fd5b505050506040513d601f19601f82011682018060405250810190611b6491906123d7565b6040518363ffffffff1660e01b8152600401611b81929190612836565b600060405180830381600087803b158015611b9b57600080fd5b505af1158015611baf573d6000803e3d6000fd5b505050506000600b5414611cc8576000611bec612710611bde600b54856000015161200990919063ffffffff16565b61201f90919063ffffffff16565b90506000611c07828460000151611ff390919063ffffffff16565b9050611c76600160009054906101000a900473ffffffffffffffffffffffffffffffffffffffff16837f000000000000000000000000000000000000000000000000000000000000000073ffffffffffffffffffffffffffffffffffffffff16611e189092919063ffffffff16565b611cc133827f000000000000000000000000000000000000000000000000000000000000000073ffffffffffffffffffffffffffffffffffffffff16611e189092919063ffffffff16565b5050611d18565b611d173382600001517f000000000000000000000000000000000000000000000000000000000000000073ffffffffffffffffffffffffffffffffffffffff16611e189092919063ffffffff16565b5b50565b600760009054906101000a900473ffffffffffffffffffffffffffffffffffffffff1673ffffffffffffffffffffffffffffffffffffffff163373ffffffffffffffffffffffffffffffffffffffff1614611d7557600080fd5b611d8a81600854611ff390919063ffffffff16565b600881905550611dff600760009054906101000a900473ffffffffffffffffffffffffffffffffffffffff1630837f000000000000000000000000000000000000000000000000000000000000000073ffffffffffffffffffffffffffffffffffffffff16611f6a909392919063ffffffff16565b50565b60008183611e109190612a9c565b905092915050565b611e998363a9059cbb60e01b8484604051602401611e37929190612836565b604051602081830303815290604052907bffffffffffffffffffffffffffffffffffffffffffffffffffffffff19166020820180517bffffffffffffffffffffffffffffffffffffffffffffffffffffffff8381831617835250505050612035565b505050565b600033905090565b60008060009054906101000a900473ffffffffffffffffffffffffffffffffffffffff169050816000806101000a81548173ffffffffffffffffffffffffffffffffffffffff021916908373ffffffffffffffffffffffffffffffffffffffff1602179055508173ffffffffffffffffffffffffffffffffffffffff168173ffffffffffffffffffffffffffffffffffffffff167f8be0079c531659141344cd1fd0a4f28419497f9722a3daafe3b4186f6b6457e060405160405180910390a35050565b611fed846323b872dd60e01b858585604051602401611f8b939291906127ff565b604051602081830303815290604052907bffffffffffffffffffffffffffffffffffffffffffffffffffffffff19166020820180517bffffffffffffffffffffffffffffffffffffffffffffffffffffffff8381831617835250505050612035565b50505050565b600081836120019190612b7d565b905092915050565b600081836120179190612b23565b905092915050565b6000818361202d9190612af2565b905092915050565b6000612097826040518060400160405280602081526020017f5361666545524332303a206c6f772d6c6576656c2063616c6c206661696c65648152508573ffffffffffffffffffffffffffffffffffffffff166120fc9092919063ffffffff16565b90506000815111156120f757808060200190518101906120b79190612349565b6120f6576040517f08c379a00000000000000000000000000000000000000000000000000000000081526004016120ed9061297c565b60405180910390fd5b5b505050565b606061210b8484600085612114565b90509392505050565b606082471015612159576040517f08c379a00000000000000000000000000000000000000000000000000000000081526004016121509061291c565b60405180910390fd5b61216285612228565b6121a1576040517f08c379a00000000000000000000000000000000000000000000000000000000081526004016121989061295c565b60405180910390fd5b6000808673ffffffffffffffffffffffffffffffffffffffff1685876040516121ca91906127cd565b60006040518083038185875af1925050503d8060008114612207576040519150601f19603f3d011682016040523d82523d6000602084013e61220c565b606091505b509150915061221c82828661223b565b92505050949350505050565b600080823b905060008111915050919050565b6060831561224b5782905061229b565b60008351111561225e5782518084602001fd5b816040517f08c379a0000000000000000000000000000000000000000000000000000000008152600401612292919061287a565b60405180910390fd5b9392505050565b6000813590506122b181612ce4565b92915050565b6000813590506122c681612cfb565b92915050565b6000815190506122db81612cfb565b92915050565b6000813590506122f081612d12565b92915050565b60008135905061230581612d22565b92915050565b60008151905061231a81612d22565b92915050565b60006020828403121561233257600080fd5b6000612340848285016122a2565b91505092915050565b60006020828403121561235b57600080fd5b6000612369848285016122cc565b91505092915050565b6000806040838503121561238557600080fd5b6000612393858286016122e1565b92505060206123a4858286016122a2565b9150509250929050565b6000602082840312156123c057600080fd5b60006123ce848285016122f6565b91505092915050565b6000602082840312156123e957600080fd5b60006123f78482850161230b565b91505092915050565b6000806040838503121561241357600080fd5b6000612421858286016122f6565b9250506020612432858286016122a2565b9150509250929050565b6000806040838503121561244f57600080fd5b600061245d858286016122f6565b925050602061246e858286016122b7565b9150509250929050565b61248181612bb1565b82525050565b61249081612bc3565b82525050565b60006124a182612a6a565b6124ab8185612a80565b93506124bb818560208601612bf9565b80840191505092915050565b60006124d282612a75565b6124dc8185612a8b565b93506124ec818560208601612bf9565b6124f581612cd3565b840191505092915050565b600061250d601f83612a8b565b91507f4465706f7369747320666f72206163636f756e7420617265206c6f636b6564006000830152602082019050919050565b600061254d602383612a8b565b91507f4c6f636b65722063616e6e6f7420626520736574206d6f7265207468616e206f60008301527f6e636500000000000000000000000000000000000000000000000000000000006020830152604082019050919050565b60006125b3602683612a8b565b91507f4f776e61626c653a206e6577206f776e657220697320746865207a65726f206160008301527f64647265737300000000000000000000000000000000000000000000000000006020830152604082019050919050565b6000612619602383612a8b565b91507f5761726d75702063616e6e6f7420626520736574206d6f7265207468616e206f60008301527f6e636500000000000000000000000000000000000000000000000000000000006020830152604082019050919050565b600061267f602683612a8b565b91507f416464726573733a20696e73756666696369656e742062616c616e636520666f60008301527f722063616c6c00000000000000000000000000000000000000000000000000006020830152604082019050919050565b60006126e5602083612a8b565b91507f4f776e61626c653a2063616c6c6572206973206e6f7420746865206f776e65726000830152602082019050919050565b6000612725601d83612a8b565b91507f416464726573733a2063616c6c20746f206e6f6e2d636f6e74726163740000006000830152602082019050919050565b6000612765602a83612a8b565b91507f5361666545524332303a204552433230206f7065726174696f6e20646964206e60008301527f6f742073756363656564000000000000000000000000000000000000000000006020830152604082019050919050565b6127c781612bef565b82525050565b60006127d98284612496565b915081905092915050565b60006020820190506127f96000830184612478565b92915050565b60006060820190506128146000830186612478565b6128216020830185612478565b61282e60408301846127be565b949350505050565b600060408201905061284b6000830185612478565b61285860208301846127be565b9392505050565b60006020820190506128746000830184612487565b92915050565b6000602082019050818103600083015261289481846124c7565b905092915050565b600060208201905081810360008301526128b581612500565b9050919050565b600060208201905081810360008301526128d581612540565b9050919050565b600060208201905081810360008301526128f5816125a6565b9050919050565b600060208201905081810360008301526129158161260c565b9050919050565b6000602082019050818103600083015261293581612672565b9050919050565b60006020820190508181036000830152612955816126d8565b9050919050565b6000602082019050818103600083015261297581612718565b9050919050565b6000602082019050818103600083015261299581612758565b9050919050565b60006020820190506129b160008301846127be565b92915050565b60006040820190506129cc60008301856127be565b6129d960208301846127be565b9392505050565b60006080820190506129f560008301876127be565b612a0260208301866127be565b612a0f60408301856127be565b612a1c6060830184612487565b95945050505050565b6000608082019050612a3a60008301876127be565b612a4760208301866127be565b612a5460408301856127be565b612a6160608301846127be565b95945050505050565b600081519050919050565b600081519050919050565b600081905092915050565b600082825260208201905092915050565b6000612aa782612bef565b9150612ab283612bef565b9250827fffffffffffffffffffffffffffffffffffffffffffffffffffffffffffffffff03821115612ae757612ae6612c75565b5b828201905092915050565b6000612afd82612bef565b9150612b0883612bef565b925082612b1857612b17612ca4565b5b828204905092915050565b6000612b2e82612bef565b9150612b3983612bef565b9250817fffffffffffffffffffffffffffffffffffffffffffffffffffffffffffffffff0483118215151615612b7257612b71612c75565b5b828202905092915050565b6000612b8882612bef565b9150612b9383612bef565b925082821015612ba657612ba5612c75565b5b828203905092915050565b6000612bbc82612bcf565b9050919050565b60008115159050919050565b600073ffffffffffffffffffffffffffffffffffffffff82169050919050565b6000819050919050565b60005b83811015612c17578082015181840152602081019050612bfc565b83811115612c26576000848401525b50505050565b6000612c3782612bef565b91507fffffffffffffffffffffffffffffffffffffffffffffffffffffffffffffffff821415612c6a57612c69612c75565b5b600182019050919050565b7f4e487b7100000000000000000000000000000000000000000000000000000000600052601160045260246000fd5b7f4e487b7100000000000000000000000000000000000000000000000000000000600052601260045260246000fd5b6000601f19601f8301169050919050565b612ced81612bb1565b8114612cf857600080fd5b50565b612d0481612bc3565b8114612d0f57600080fd5b50565b60038110612d1f57600080fd5b50565b612d2b81612bef565b8114612d3657600080fd5b5056fea2646970667358221220f02639021b75093420840f2b0aeaf970353489e302b1c3a0bc6c398f0fc7d42164736f6c63430008000033",
  "immutableReferences": {
    "3658": [
      {
        "length": 32,
        "start": 2237
      },
      {
        "length": 32,
        "start": 2678
      },
      {
        "length": 32,
        "start": 4470
      },
      {
        "length": 32,
        "start": 5042
      },
      {
        "length": 32,
        "start": 7218
      },
      {
        "length": 32,
        "start": 7293
      },
      {
        "length": 32,
        "start": 7379
      }
    ],
    "3660": [
      {
        "length": 32,
        "start": 1399
      },
      {
        "length": 32,
        "start": 1815
      },
      {
        "length": 32,
        "start": 2074
      },
      {
        "length": 32,
        "start": 2995
      },
      {
        "length": 32,
        "start": 3393
      },
      {
        "length": 32,
        "start": 4966
      },
      {
        "length": 32,
        "start": 5133
      },
      {
        "length": 32,
        "start": 5644
      },
      {
        "length": 32,
        "start": 5899
      },
      {
        "length": 32,
        "start": 6841
      },
      {
        "length": 32,
        "start": 7610
      }
    ]
  },
  "source": "// SPDX-License-Identifier: AGPL-3.0-or-later\npragma solidity 0.8.0;\n\nimport \"@openzeppelin/contracts/utils/math/SafeMath.sol\";\nimport \"@openzeppelin/contracts/access/Ownable.sol\";\nimport \"@openzeppelin/contracts/token/ERC20/utils/SafeERC20.sol\";\nimport \"./util/ERC20Permit.sol\";\nimport \"./AthertonModels.sol\";\n\n// TODO-hightlight :: main logic\n\ncontract AthertonStaking is Ownable {\n\n    using SafeMath for uint256;\n    using SafeERC20 for IERC20;\n\n    address public immutable ATHER;\n    address public immutable sATHER;\n    address public DAO;\n\n    struct Epoch {\n        uint length;\n        uint number;\n        uint endBlock;\n        uint distribute;\n    }\n    Epoch public epoch;\n\n    address public distributor;\n    \n    address public locker;\n    uint public totalBonus;\n    \n    address public warmupContract;\n    uint public warmupPeriod;\n\n    uint public forfeitPenalty;\n    \n    constructor ( \n        address _DAO,\n        address _ATHER, \n        address _sATHER, \n        uint _epochLength,\n        uint _firstEpochNumber,\n        uint _firstEpochBlock\n    ) {\n        require( _DAO != address(0) );\n        DAO = _DAO;\n        require( _ATHER != address(0) );\n        ATHER = _ATHER;\n        require( _sATHER != address(0) );\n        sATHER = _sATHER;\n        \n        epoch = Epoch({\n            length: _epochLength,\n            number: _firstEpochNumber,\n            endBlock: _firstEpochBlock,\n            distribute: 0\n        });\n    }\n\n    struct Claim {\n        uint deposit;\n        uint gons;\n        uint expiry;\n        bool lock; // prevents malicious delays\n    }\n    mapping( address => Claim ) public warmupInfo;\n\n    /**\n        @notice stake ATHER to enter warmup\n        @param _amount uint\n        @return bool\n     */\n    function stake( uint _amount, address _recipient ) external returns ( bool ) {\n        rebase();\n        \n        IERC20( ATHER ).safeTransferFrom( msg.sender, address(this), _amount );\n\n        Claim memory info = warmupInfo[ _recipient ];\n        require( !info.lock, \"Deposits for account are locked\" );\n\n        warmupInfo[ _recipient ] = Claim ({\n            deposit: info.deposit.add( _amount ),\n            gons: info.gons.add( IsATHER( sATHER ).gonsForBalance( _amount ) ),\n            expiry: epoch.number.add( warmupPeriod ),\n            lock: false\n        });\n        \n        IERC20( sATHER ).safeTransfer( warmupContract, _amount );\n        return true;\n    }\n\n    /**\n        @notice retrieve sATHER from warmup\n        @param _recipient address\n     */\n    function claim ( address _recipient ) public {\n        Claim memory info = warmupInfo[ _recipient ];\n        if ( epoch.number >= info.expiry && info.expiry != 0 ) {\n            delete warmupInfo[ _recipient ];\n            IWarmup( warmupContract ).retrieve( _recipient, IsATHER( sATHER ).balanceForGons( info.gons ) );\n        }\n    }\n\n    /**\n        @notice forfeit sATHER in warmup and retrieve ATHER\n     */\n    function forfeit() external {\n        Claim memory info = warmupInfo[ msg.sender ];\n        delete warmupInfo[ msg.sender ];\n\n        IWarmup( warmupContract ).retrieve( address(this), IsATHER( sATHER ).balanceForGons( info.gons ) );\n        if ( forfeitPenalty != 0 ) { // there is penalty for early forfeiture\n            uint penalty = info.deposit.mul(forfeitPenalty).div(10000);\n            uint returnable = info.deposit.sub(penalty);\n            IERC20( ATHER ).safeTransfer( DAO, penalty );\n            IERC20( ATHER ).safeTransfer( msg.sender, returnable );\n        } else {\n            IERC20( ATHER ).safeTransfer( msg.sender, info.deposit );\n        }\n    }\n\n    /**\n        @notice prevent new deposits to address (protection from malicious activity)\n     */\n    function toggleDepositLock() external {\n        warmupInfo[ msg.sender ].lock = !warmupInfo[ msg.sender ].lock;\n    }\n\n    /**\n        @notice redeem sATHER for ATHER\n        @param _amount uint\n        @param _trigger bool\n     */\n    function unstake( uint _amount, bool _trigger ) external {\n        if ( _trigger ) {\n            rebase();\n        }\n        IERC20( sATHER ).safeTransferFrom( msg.sender, address(this), _amount );\n        IERC20( ATHER ).safeTransfer( msg.sender, _amount );\n    }\n\n    /**\n        @notice returns the sATHER index, which tracks rebase growth\n        @return uint\n     */\n    function index() public view returns ( uint ) {\n        return IsATHER( sATHER ).index();\n    }\n\n    /**\n        @notice trigger rebase if epoch over\n     */\n    function rebase() public {\n        if( epoch.endBlock <= block.number ) {\n\n            IsATHER( sATHER ).rebase( epoch.distribute, epoch.number );\n\n            epoch.endBlock = epoch.endBlock.add( epoch.length );\n            epoch.number++;\n            \n            if ( distributor != address(0) ) {\n                IDistributor( distributor ).distribute();\n            }\n\n            uint balance = contractBalance();\n            uint staked = IsATHER( sATHER ).circulatingSupply();\n\n            if( balance <= staked ) {\n                epoch.distribute = 0;\n            } else {\n                epoch.distribute = balance.sub( staked );\n            }\n        }\n    }\n\n    /**\n        @notice returns contract ATHER holdings, including bonuses provided\n        @return uint\n     */\n    function contractBalance() public view returns ( uint ) {\n        return IERC20( ATHER ).balanceOf( address(this) ).add( totalBonus );\n    }\n\n    /**\n        @notice provide bonus to locked staking contract\n        @param _amount uint\n     */\n    function giveLockBonus( uint _amount ) external {\n        require( msg.sender == locker );\n        totalBonus = totalBonus.add( _amount );\n        IERC20( sATHER ).safeTransfer( locker, _amount );\n    }\n\n    /**\n        @notice reclaim bonus from locked staking contract\n        @param _amount uint\n     */\n    function returnLockBonus( uint _amount ) external {\n        require( msg.sender == locker );\n        totalBonus = totalBonus.sub( _amount );\n        IERC20( sATHER ).safeTransferFrom( locker, address(this), _amount );\n    }\n\n    enum CONTRACTS { DISTRIBUTOR, WARMUP, LOCKER }\n\n    /**\n        @notice sets the contract address for LP staking\n        @param _contract address\n     */\n    function setContract( CONTRACTS _contract, address _address ) external onlyOwner() {\n        if( _contract == CONTRACTS.DISTRIBUTOR ) { // 0\n            distributor = _address;\n        } else if ( _contract == CONTRACTS.WARMUP ) { // 1\n            require( warmupContract == address( 0 ), \"Warmup cannot be set more than once\" );\n            warmupContract = _address;\n        } else if ( _contract == CONTRACTS.LOCKER ) { // 2\n            require( locker == address(0), \"Locker cannot be set more than once\" );\n            locker = _address;\n        }\n    }\n    \n    /**\n     * @notice set warmup period for new stakers\n     * @param _warmupPeriod uint\n     */\n    function setWarmup( uint _warmupPeriod ) external onlyOwner() {\n        warmupPeriod = _warmupPeriod;\n    }\n\n    /**\n     * @notice set warmup period for new stakers\n     * @param _penalty uint (10000 == 100%)\n     */\n    function setForfeitPenalty( uint _penalty ) external onlyOwner() {\n        forfeitPenalty = _penalty;\n    }\n\n    /* ======= Governance Contingency ======= */\n    function setDao(address newDao) external onlyOwner() {\n        DAO = newDao;\n    }\n}",
  "sourcePath": "/var/www/atherton/evm/contracts/Staking.sol",
  "compiler": {
    "name": "solc",
    "version": "0.8.0+commit.c7dfd78e.Emscripten.clang"
  },
  "schemaVersion": "3.4.3",
  "updatedAt": "2021-12-04T00:51:05.899Z",
  "devdoc": {
    "kind": "dev",
    "methods": {
      "claim(address)": {
        "params": {
          "_recipient": "address"
        }
      },
      "contractBalance()": {
        "returns": {
          "_0": "uint"
        }
      },
      "giveLockBonus(uint256)": {
        "params": {
          "_amount": "uint"
        }
      },
      "index()": {
        "returns": {
          "_0": "uint"
        }
      },
      "owner()": {
        "details": "Returns the address of the current owner."
      },
      "renounceOwnership()": {
        "details": "Leaves the contract without owner. It will not be possible to call `onlyOwner` functions anymore. Can only be called by the current owner. NOTE: Renouncing ownership will leave the contract without an owner, thereby removing any functionality that is only available to the owner."
      },
      "returnLockBonus(uint256)": {
        "params": {
          "_amount": "uint"
        }
      },
      "setContract(uint8,address)": {
        "params": {
          "_contract": "address"
        }
      },
      "setForfeitPenalty(uint256)": {
        "params": {
          "_penalty": "uint (10000 == 100%)"
        }
      },
      "setWarmup(uint256)": {
        "params": {
          "_warmupPeriod": "uint"
        }
      },
      "stake(uint256,address)": {
        "params": {
          "_amount": "uint"
        },
        "returns": {
          "_0": "bool"
        }
      },
      "transferOwnership(address)": {
        "details": "Transfers ownership of the contract to a new account (`newOwner`). Can only be called by the current owner."
      },
      "unstake(uint256,bool)": {
        "params": {
          "_amount": "uint",
          "_trigger": "bool"
        }
      }
    },
    "version": 1
  },
  "userdoc": {
    "kind": "user",
    "methods": {
      "claim(address)": {
        "notice": "retrieve sATHER from warmup"
      },
      "contractBalance()": {
        "notice": "returns contract ATHER holdings, including bonuses provided"
      },
      "forfeit()": {
        "notice": "forfeit sATHER in warmup and retrieve ATHER"
      },
      "giveLockBonus(uint256)": {
        "notice": "provide bonus to locked staking contract"
      },
      "index()": {
        "notice": "returns the sATHER index, which tracks rebase growth"
      },
      "rebase()": {
        "notice": "trigger rebase if epoch over"
      },
      "returnLockBonus(uint256)": {
        "notice": "reclaim bonus from locked staking contract"
      },
      "setContract(uint8,address)": {
        "notice": "sets the contract address for LP staking"
      },
      "setForfeitPenalty(uint256)": {
        "notice": "set warmup period for new stakers"
      },
      "setWarmup(uint256)": {
        "notice": "set warmup period for new stakers"
      },
      "stake(uint256,address)": {
        "notice": "stake ATHER to enter warmup"
      },
      "toggleDepositLock()": {
        "notice": "prevent new deposits to address (protection from malicious activity)"
      },
      "unstake(uint256,bool)": {
        "notice": "redeem sATHER for ATHER"
      }
    },
    "version": 1
  }
}