{
  "contractName": "RedeemHelper",
  "abi": [
    {
      "anonymous": false,
      "inputs": [
        {
          "indexed": true,
          "internalType": "address",
          "name": "previousOwner",
          "type": "address"
        },
        {
          "indexed": true,
          "internalType": "address",
          "name": "newOwner",
          "type": "address"
        }
      ],
      "name": "OwnershipTransferred",
      "type": "event"
    },
    {
      "inputs": [
        {
          "internalType": "uint256",
          "name": "",
          "type": "uint256"
        }
      ],
      "name": "bonds",
      "outputs": [
        {
          "internalType": "address",
          "name": "",
          "type": "address"
        }
      ],
      "stateMutability": "view",
      "type": "function"
    },
    {
      "inputs": [],
      "name": "owner",
      "outputs": [
        {
          "internalType": "address",
          "name": "",
          "type": "address"
        }
      ],
      "stateMutability": "view",
      "type": "function"
    },
    {
      "inputs": [],
      "name": "renounceOwnership",
      "outputs": [],
      "stateMutability": "nonpayable",
      "type": "function"
    },
    {
      "inputs": [
        {
          "internalType": "address",
          "name": "newOwner",
          "type": "address"
        }
      ],
      "name": "transferOwnership",
      "outputs": [],
      "stateMutability": "nonpayable",
      "type": "function"
    },
    {
      "inputs": [
        {
          "internalType": "address",
          "name": "_recipient",
          "type": "address"
        },
        {
          "internalType": "bool",
          "name": "_stake",
          "type": "bool"
        }
      ],
      "name": "redeemAll",
      "outputs": [],
      "stateMutability": "nonpayable",
      "type": "function"
    },
    {
      "inputs": [
        {
          "internalType": "address",
          "name": "_bond",
          "type": "address"
        }
      ],
      "name": "addBondContract",
      "outputs": [],
      "stateMutability": "nonpayable",
      "type": "function"
    },
    {
      "inputs": [
        {
          "internalType": "uint256",
          "name": "_index",
          "type": "uint256"
        }
      ],
      "name": "removeBondContract",
      "outputs": [],
      "stateMutability": "nonpayable",
      "type": "function"
    }
  ],
  "bytecode": "0x608060405234801561001057600080fd5b5061002d61002261003260201b60201c565b61003a60201b60201c565b6100fe565b600033905090565b60008060009054906101000a900473ffffffffffffffffffffffffffffffffffffffff169050816000806101000a81548173ffffffffffffffffffffffffffffffffffffffff021916908373ffffffffffffffffffffffffffffffffffffffff1602179055508173ffffffffffffffffffffffffffffffffffffffff168173ffffffffffffffffffffffffffffffffffffffff167f8be0079c531659141344cd1fd0a4f28419497f9722a3daafe3b4186f6b6457e060405160405180910390a35050565b610c658061010d6000396000f3fe608060405234801561001057600080fd5b506004361061007d5760003560e01c8063715018a61161005b578063715018a6146100ea5780638da5cb5b146100f4578063b1e59ab714610112578063f2fde38b1461012e5761007d565b80630a6d18601461008257806346aed74e1461009e5780635f1c17c0146100ba575b600080fd5b61009c6004803603810190610097919061091a565b61014a565b005b6100b860048036038101906100b39190610943565b610266565b005b6100d460048036038101906100cf919061097f565b61050f565b6040516100e19190610a95565b60405180910390f35b6100f261054e565b005b6100fc6105d6565b6040516101099190610a95565b60405180910390f35b61012c6004803603810190610127919061097f565b6105ff565b005b6101486004803603810190610143919061091a565b610702565b005b6101526107fa565b73ffffffffffffffffffffffffffffffffffffffff166101706105d6565b73ffffffffffffffffffffffffffffffffffffffff16146101c6576040517f08c379a00000000000000000000000000000000000000000000000000000000081526004016101bd90610af9565b60405180910390fd5b600073ffffffffffffffffffffffffffffffffffffffff168173ffffffffffffffffffffffffffffffffffffffff16141561020057600080fd5b6001819080600181540180825580915050600190039060005260206000200160009091909190916101000a81548173ffffffffffffffffffffffffffffffffffffffff021916908373ffffffffffffffffffffffffffffffffffffffff16021790555050565b60005b60018054905081101561050a57600073ffffffffffffffffffffffffffffffffffffffff16600182815481106102c8577f4e487b7100000000000000000000000000000000000000000000000000000000600052603260045260246000fd5b9060005260206000200160009054906101000a900473ffffffffffffffffffffffffffffffffffffffff1673ffffffffffffffffffffffffffffffffffffffff16146104f75760006001828154811061034a577f4e487b7100000000000000000000000000000000000000000000000000000000600052603260045260246000fd5b9060005260206000200160009054906101000a900473ffffffffffffffffffffffffffffffffffffffff1673ffffffffffffffffffffffffffffffffffffffff166301b88ee8856040518263ffffffff1660e01b81526004016103ad9190610a95565b60206040518083038186803b1580156103c557600080fd5b505afa1580156103d9573d6000803e3d6000fd5b505050506040513d601f19601f820116820180604052508101906103fd91906109a8565b11156104f6576001818154811061043d577f4e487b7100000000000000000000000000000000000000000000000000000000600052603260045260246000fd5b9060005260206000200160009054906101000a900473ffffffffffffffffffffffffffffffffffffffff1673ffffffffffffffffffffffffffffffffffffffff16631feed31f84846040518363ffffffff1660e01b81526004016104a2929190610ab0565b602060405180830381600087803b1580156104bc57600080fd5b505af11580156104d0573d6000803e3d6000fd5b505050506040513d601f19601f820116820180604052508101906104f491906109a8565b505b5b808061050290610b72565b915050610269565b505050565b6001818154811061051f57600080fd5b906000526020600020016000915054906101000a900473ffffffffffffffffffffffffffffffffffffffff1681565b6105566107fa565b73ffffffffffffffffffffffffffffffffffffffff166105746105d6565b73ffffffffffffffffffffffffffffffffffffffff16146105ca576040517f08c379a00000000000000000000000000000000000000000000000000000000081526004016105c190610af9565b60405180910390fd5b6105d46000610802565b565b60008060009054906101000a900473ffffffffffffffffffffffffffffffffffffffff16905090565b6106076107fa565b73ffffffffffffffffffffffffffffffffffffffff166106256105d6565b73ffffffffffffffffffffffffffffffffffffffff161461067b576040517f08c379a000000000000000000000000000000000000000000000000000000000815260040161067290610af9565b60405180910390fd5b6000600182815481106106b7577f4e487b7100000000000000000000000000000000000000000000000000000000600052603260045260246000fd5b9060005260206000200160006101000a81548173ffffffffffffffffffffffffffffffffffffffff021916908373ffffffffffffffffffffffffffffffffffffffff16021790555050565b61070a6107fa565b73ffffffffffffffffffffffffffffffffffffffff166107286105d6565b73ffffffffffffffffffffffffffffffffffffffff161461077e576040517f08c379a000000000000000000000000000000000000000000000000000000000815260040161077590610af9565b60405180910390fd5b600073ffffffffffffffffffffffffffffffffffffffff168173ffffffffffffffffffffffffffffffffffffffff1614156107ee576040517f08c379a00000000000000000000000000000000000000000000000000000000081526004016107e590610ad9565b60405180910390fd5b6107f781610802565b50565b600033905090565b60008060009054906101000a900473ffffffffffffffffffffffffffffffffffffffff169050816000806101000a81548173ffffffffffffffffffffffffffffffffffffffff021916908373ffffffffffffffffffffffffffffffffffffffff1602179055508173ffffffffffffffffffffffffffffffffffffffff168173ffffffffffffffffffffffffffffffffffffffff167f8be0079c531659141344cd1fd0a4f28419497f9722a3daafe3b4186f6b6457e060405160405180910390a35050565b6000813590506108d581610bea565b92915050565b6000813590506108ea81610c01565b92915050565b6000813590506108ff81610c18565b92915050565b60008151905061091481610c18565b92915050565b60006020828403121561092c57600080fd5b600061093a848285016108c6565b91505092915050565b6000806040838503121561095657600080fd5b6000610964858286016108c6565b9250506020610975858286016108db565b9150509250929050565b60006020828403121561099157600080fd5b600061099f848285016108f0565b91505092915050565b6000602082840312156109ba57600080fd5b60006109c884828501610905565b91505092915050565b6109da81610b2a565b82525050565b6109e981610b3c565b82525050565b60006109fc602683610b19565b91507f4f776e61626c653a206e6577206f776e657220697320746865207a65726f206160008301527f64647265737300000000000000000000000000000000000000000000000000006020830152604082019050919050565b6000610a62602083610b19565b91507f4f776e61626c653a2063616c6c6572206973206e6f7420746865206f776e65726000830152602082019050919050565b6000602082019050610aaa60008301846109d1565b92915050565b6000604082019050610ac560008301856109d1565b610ad260208301846109e0565b9392505050565b60006020820190508181036000830152610af2816109ef565b9050919050565b60006020820190508181036000830152610b1281610a55565b9050919050565b600082825260208201905092915050565b6000610b3582610b48565b9050919050565b60008115159050919050565b600073ffffffffffffffffffffffffffffffffffffffff82169050919050565b6000819050919050565b6000610b7d82610b68565b91507fffffffffffffffffffffffffffffffffffffffffffffffffffffffffffffffff821415610bb057610baf610bbb565b5b600182019050919050565b7f4e487b7100000000000000000000000000000000000000000000000000000000600052601160045260246000fd5b610bf381610b2a565b8114610bfe57600080fd5b50565b610c0a81610b3c565b8114610c1557600080fd5b50565b610c2181610b68565b8114610c2c57600080fd5b5056fea264697066735822122065c993c623c145f02c5f3810fc124a115d8826ca68e581904c40c2e269a9689164736f6c63430008000033",
  "immutableReferences": {},
  "source": "// SPDX-License-Identifier: AGPL-3.0-or-later\npragma solidity 0.8.0;\n\nimport \"@openzeppelin/contracts/access/Ownable.sol\";\nimport \"./AthertonModels.sol\";\n\n\n\ncontract RedeemHelper is Ownable {\n\n    address[] public bonds;\n\n    function redeemAll( address _recipient, bool _stake ) external {\n        for( uint i = 0; i < bonds.length; i++ ) {\n            if ( bonds[i] != address(0) ) {\n                if ( IBond( bonds[i] ).pendingPayoutFor( _recipient ) > 0 ) {\n                    IBond( bonds[i] ).redeem( _recipient, _stake );\n                }\n            }\n        }\n    }\n\n    function addBondContract( address _bond ) external onlyOwner() {\n        require( _bond != address(0) );\n        bonds.push( _bond );\n    }\n\n    function removeBondContract( uint _index ) external onlyOwner() {\n        bonds[ _index ] = address(0);\n    }\n}",
  "sourcePath": "/var/www/atherton/solidity/contracts/RedeemHelper.sol",
  "compiler": {
    "name": "solc",
    "version": "0.8.0+commit.c7dfd78e.Emscripten.clang"
  },
  "schemaVersion": "3.4.3",
  "updatedAt": "2021-12-08T23:25:37.958Z",
  "devdoc": {
    "kind": "dev",
    "methods": {
      "owner()": {
        "details": "Returns the address of the current owner."
      },
      "renounceOwnership()": {
        "details": "Leaves the contract without owner. It will not be possible to call `onlyOwner` functions anymore. Can only be called by the current owner. NOTE: Renouncing ownership will leave the contract without an owner, thereby removing any functionality that is only available to the owner."
      },
      "transferOwnership(address)": {
        "details": "Transfers ownership of the contract to a new account (`newOwner`). Can only be called by the current owner."
      }
    },
    "version": 1
  },
  "userdoc": {
    "kind": "user",
    "methods": {},
    "version": 1
  }
}