{
  "contractName": "sAtherton",
  "abi": [
    {
      "inputs": [],
      "stateMutability": "nonpayable",
      "type": "constructor"
    },
    {
      "anonymous": false,
      "inputs": [
        {
          "indexed": true,
          "internalType": "address",
          "name": "owner",
          "type": "address"
        },
        {
          "indexed": true,
          "internalType": "address",
          "name": "spender",
          "type": "address"
        },
        {
          "indexed": false,
          "internalType": "uint256",
          "name": "value",
          "type": "uint256"
        }
      ],
      "name": "Approval",
      "type": "event"
    },
    {
      "anonymous": false,
      "inputs": [
        {
          "indexed": true,
          "internalType": "uint256",
          "name": "epoch",
          "type": "uint256"
        },
        {
          "indexed": false,
          "internalType": "uint256",
          "name": "rebase",
          "type": "uint256"
        },
        {
          "indexed": false,
          "internalType": "uint256",
          "name": "index",
          "type": "uint256"
        }
      ],
      "name": "LogRebase",
      "type": "event"
    },
    {
      "anonymous": false,
      "inputs": [
        {
          "indexed": false,
          "internalType": "address",
          "name": "stakingContract",
          "type": "address"
        }
      ],
      "name": "LogStakingContractUpdated",
      "type": "event"
    },
    {
      "anonymous": false,
      "inputs": [
        {
          "indexed": true,
          "internalType": "uint256",
          "name": "epoch",
          "type": "uint256"
        },
        {
          "indexed": false,
          "internalType": "uint256",
          "name": "timestamp",
          "type": "uint256"
        },
        {
          "indexed": false,
          "internalType": "uint256",
          "name": "totalSupply",
          "type": "uint256"
        }
      ],
      "name": "LogSupply",
      "type": "event"
    },
    {
      "anonymous": false,
      "inputs": [
        {
          "indexed": true,
          "internalType": "address",
          "name": "previousOwner",
          "type": "address"
        },
        {
          "indexed": true,
          "internalType": "address",
          "name": "newOwner",
          "type": "address"
        }
      ],
      "name": "OwnershipTransferred",
      "type": "event"
    },
    {
      "anonymous": false,
      "inputs": [
        {
          "indexed": true,
          "internalType": "address",
          "name": "from",
          "type": "address"
        },
        {
          "indexed": true,
          "internalType": "address",
          "name": "to",
          "type": "address"
        },
        {
          "indexed": false,
          "internalType": "uint256",
          "name": "value",
          "type": "uint256"
        }
      ],
      "name": "Transfer",
      "type": "event"
    },
    {
      "inputs": [],
      "name": "DOMAIN_SEPARATOR",
      "outputs": [
        {
          "internalType": "bytes32",
          "name": "",
          "type": "bytes32"
        }
      ],
      "stateMutability": "view",
      "type": "function"
    },
    {
      "inputs": [],
      "name": "INDEX",
      "outputs": [
        {
          "internalType": "uint256",
          "name": "",
          "type": "uint256"
        }
      ],
      "stateMutability": "view",
      "type": "function"
    },
    {
      "inputs": [],
      "name": "PERMIT_TYPEHASH",
      "outputs": [
        {
          "internalType": "bytes32",
          "name": "",
          "type": "bytes32"
        }
      ],
      "stateMutability": "view",
      "type": "function"
    },
    {
      "inputs": [],
      "name": "_totalSupply",
      "outputs": [
        {
          "internalType": "uint256",
          "name": "",
          "type": "uint256"
        }
      ],
      "stateMutability": "view",
      "type": "function"
    },
    {
      "inputs": [],
      "name": "decimals",
      "outputs": [
        {
          "internalType": "uint8",
          "name": "",
          "type": "uint8"
        }
      ],
      "stateMutability": "view",
      "type": "function"
    },
    {
      "inputs": [],
      "name": "initializer",
      "outputs": [
        {
          "internalType": "address",
          "name": "",
          "type": "address"
        }
      ],
      "stateMutability": "view",
      "type": "function"
    },
    {
      "inputs": [],
      "name": "name",
      "outputs": [
        {
          "internalType": "string",
          "name": "",
          "type": "string"
        }
      ],
      "stateMutability": "view",
      "type": "function"
    },
    {
      "inputs": [
        {
          "internalType": "address",
          "name": "owner",
          "type": "address"
        }
      ],
      "name": "nonces",
      "outputs": [
        {
          "internalType": "uint256",
          "name": "",
          "type": "uint256"
        }
      ],
      "stateMutability": "view",
      "type": "function"
    },
    {
      "inputs": [],
      "name": "owner",
      "outputs": [
        {
          "internalType": "address",
          "name": "",
          "type": "address"
        }
      ],
      "stateMutability": "view",
      "type": "function"
    },
    {
      "inputs": [
        {
          "internalType": "address",
          "name": "owner",
          "type": "address"
        },
        {
          "internalType": "address",
          "name": "spender",
          "type": "address"
        },
        {
          "internalType": "uint256",
          "name": "amount",
          "type": "uint256"
        },
        {
          "internalType": "uint256",
          "name": "deadline",
          "type": "uint256"
        },
        {
          "internalType": "uint8",
          "name": "v",
          "type": "uint8"
        },
        {
          "internalType": "bytes32",
          "name": "r",
          "type": "bytes32"
        },
        {
          "internalType": "bytes32",
          "name": "s",
          "type": "bytes32"
        }
      ],
      "name": "permit",
      "outputs": [],
      "stateMutability": "nonpayable",
      "type": "function"
    },
    {
      "inputs": [
        {
          "internalType": "uint256",
          "name": "",
          "type": "uint256"
        }
      ],
      "name": "rebases",
      "outputs": [
        {
          "internalType": "uint256",
          "name": "epoch",
          "type": "uint256"
        },
        {
          "internalType": "uint256",
          "name": "rebase",
          "type": "uint256"
        },
        {
          "internalType": "uint256",
          "name": "totalStakedBefore",
          "type": "uint256"
        },
        {
          "internalType": "uint256",
          "name": "totalStakedAfter",
          "type": "uint256"
        },
        {
          "internalType": "uint256",
          "name": "amountRebased",
          "type": "uint256"
        },
        {
          "internalType": "uint256",
          "name": "index",
          "type": "uint256"
        },
        {
          "internalType": "uint256",
          "name": "blockNumberOccured",
          "type": "uint256"
        }
      ],
      "stateMutability": "view",
      "type": "function"
    },
    {
      "inputs": [],
      "name": "renounceOwnership",
      "outputs": [],
      "stateMutability": "nonpayable",
      "type": "function"
    },
    {
      "inputs": [],
      "name": "stakingContract",
      "outputs": [
        {
          "internalType": "address",
          "name": "",
          "type": "address"
        }
      ],
      "stateMutability": "view",
      "type": "function"
    },
    {
      "inputs": [],
      "name": "symbol",
      "outputs": [
        {
          "internalType": "string",
          "name": "",
          "type": "string"
        }
      ],
      "stateMutability": "view",
      "type": "function"
    },
    {
      "inputs": [],
      "name": "totalSupply",
      "outputs": [
        {
          "internalType": "uint256",
          "name": "",
          "type": "uint256"
        }
      ],
      "stateMutability": "view",
      "type": "function"
    },
    {
      "inputs": [
        {
          "internalType": "address",
          "name": "newOwner",
          "type": "address"
        }
      ],
      "name": "transferOwnership",
      "outputs": [],
      "stateMutability": "nonpayable",
      "type": "function"
    },
    {
      "inputs": [
        {
          "internalType": "address",
          "name": "stakingContract_",
          "type": "address"
        }
      ],
      "name": "initialize",
      "outputs": [
        {
          "internalType": "bool",
          "name": "",
          "type": "bool"
        }
      ],
      "stateMutability": "nonpayable",
      "type": "function"
    },
    {
      "inputs": [
        {
          "internalType": "uint256",
          "name": "_INDEX",
          "type": "uint256"
        }
      ],
      "name": "setIndex",
      "outputs": [
        {
          "internalType": "bool",
          "name": "",
          "type": "bool"
        }
      ],
      "stateMutability": "nonpayable",
      "type": "function"
    },
    {
      "inputs": [
        {
          "internalType": "uint256",
          "name": "profit_",
          "type": "uint256"
        },
        {
          "internalType": "uint256",
          "name": "epoch_",
          "type": "uint256"
        }
      ],
      "name": "rebase",
      "outputs": [
        {
          "internalType": "uint256",
          "name": "",
          "type": "uint256"
        }
      ],
      "stateMutability": "nonpayable",
      "type": "function"
    },
    {
      "inputs": [
        {
          "internalType": "address",
          "name": "who",
          "type": "address"
        }
      ],
      "name": "balanceOf",
      "outputs": [
        {
          "internalType": "uint256",
          "name": "",
          "type": "uint256"
        }
      ],
      "stateMutability": "view",
      "type": "function"
    },
    {
      "inputs": [
        {
          "internalType": "uint256",
          "name": "amount",
          "type": "uint256"
        }
      ],
      "name": "gonsForBalance",
      "outputs": [
        {
          "internalType": "uint256",
          "name": "",
          "type": "uint256"
        }
      ],
      "stateMutability": "view",
      "type": "function"
    },
    {
      "inputs": [
        {
          "internalType": "uint256",
          "name": "gons",
          "type": "uint256"
        }
      ],
      "name": "balanceForGons",
      "outputs": [
        {
          "internalType": "uint256",
          "name": "",
          "type": "uint256"
        }
      ],
      "stateMutability": "view",
      "type": "function"
    },
    {
      "inputs": [],
      "name": "circulatingSupply",
      "outputs": [
        {
          "internalType": "uint256",
          "name": "",
          "type": "uint256"
        }
      ],
      "stateMutability": "view",
      "type": "function"
    },
    {
      "inputs": [],
      "name": "index",
      "outputs": [
        {
          "internalType": "uint256",
          "name": "",
          "type": "uint256"
        }
      ],
      "stateMutability": "view",
      "type": "function"
    },
    {
      "inputs": [
        {
          "internalType": "address",
          "name": "to",
          "type": "address"
        },
        {
          "internalType": "uint256",
          "name": "value",
          "type": "uint256"
        }
      ],
      "name": "transfer",
      "outputs": [
        {
          "internalType": "bool",
          "name": "",
          "type": "bool"
        }
      ],
      "stateMutability": "nonpayable",
      "type": "function"
    },
    {
      "inputs": [
        {
          "internalType": "address",
          "name": "owner_",
          "type": "address"
        },
        {
          "internalType": "address",
          "name": "spender",
          "type": "address"
        }
      ],
      "name": "allowance",
      "outputs": [
        {
          "internalType": "uint256",
          "name": "",
          "type": "uint256"
        }
      ],
      "stateMutability": "view",
      "type": "function"
    },
    {
      "inputs": [
        {
          "internalType": "address",
          "name": "from",
          "type": "address"
        },
        {
          "internalType": "address",
          "name": "to",
          "type": "address"
        },
        {
          "internalType": "uint256",
          "name": "value",
          "type": "uint256"
        }
      ],
      "name": "transferFrom",
      "outputs": [
        {
          "internalType": "bool",
          "name": "",
          "type": "bool"
        }
      ],
      "stateMutability": "nonpayable",
      "type": "function"
    },
    {
      "inputs": [
        {
          "internalType": "address",
          "name": "spender",
          "type": "address"
        },
        {
          "internalType": "uint256",
          "name": "value",
          "type": "uint256"
        }
      ],
      "name": "approve",
      "outputs": [
        {
          "internalType": "bool",
          "name": "",
          "type": "bool"
        }
      ],
      "stateMutability": "nonpayable",
      "type": "function"
    },
    {
      "inputs": [
        {
          "internalType": "address",
          "name": "spender",
          "type": "address"
        },
        {
          "internalType": "uint256",
          "name": "addedValue",
          "type": "uint256"
        }
      ],
      "name": "increaseAllowance",
      "outputs": [
        {
          "internalType": "bool",
          "name": "",
          "type": "bool"
        }
      ],
      "stateMutability": "nonpayable",
      "type": "function"
    },
    {
      "inputs": [
        {
          "internalType": "address",
          "name": "spender",
          "type": "address"
        },
        {
          "internalType": "uint256",
          "name": "subtractedValue",
          "type": "uint256"
        }
      ],
      "name": "decreaseAllowance",
      "outputs": [
        {
          "internalType": "bool",
          "name": "",
          "type": "bool"
        }
      ],
      "stateMutability": "nonpayable",
      "type": "function"
    }
  ],
  "bytecode": "0x60806040523480156200001157600080fd5b506040518060400160405280600c81526020017f5374616b656420417468657200000000000000000000000000000000000000008152506040518060400160405280600681526020017f7341544845520000000000000000000000000000000000000000000000000000815250816003908051906020019062000096929190620003a5565b508060049080519060200190620000af929190620003a5565b50505060004690507f8b73c3c69bb8fe3d512ecc4cf759cc79239f7b179b0ffacaa9a75d522b39400f620000e86200022560201b60201c565b805190602001206040518060400160405280600181526020017f31000000000000000000000000000000000000000000000000000000000000008152508051906020012083306040516020016200014495949392919062000488565b60405160208183030381529060405280519060200120600681905550506200018162000175620002bf60201b60201c565b620002c760201b60201c565b33600960006101000a81548173ffffffffffffffffffffffffffffffffffffffff021916908373ffffffffffffffffffffffffffffffffffffffff1602179055506a0422ca8b0a00a425000000600c8190555062000219600c546a0422ca8b0a00a425000000600019620001f69190620005d6565b6000196200020591906200051d565b6200038d60201b62001dfe1790919060201c565b600d819055506200069b565b6060600380546200023690620005a0565b80601f01602080910402602001604051908101604052809291908181526020018280546200026490620005a0565b8015620002b55780601f106200028957610100808354040283529160200191620002b5565b820191906000526020600020905b8154815290600101906020018083116200029757829003601f168201915b5050505050905090565b600033905090565b6000600760009054906101000a900473ffffffffffffffffffffffffffffffffffffffff16905081600760006101000a81548173ffffffffffffffffffffffffffffffffffffffff021916908373ffffffffffffffffffffffffffffffffffffffff1602179055508173ffffffffffffffffffffffffffffffffffffffff168173ffffffffffffffffffffffffffffffffffffffff167f8be0079c531659141344cd1fd0a4f28419497f9722a3daafe3b4186f6b6457e060405160405180910390a35050565b600081836200039d9190620004e5565b905092915050565b828054620003b390620005a0565b90600052602060002090601f016020900481019282620003d7576000855562000423565b82601f10620003f257805160ff191683800117855562000423565b8280016001018555821562000423579182015b828111156200042257825182559160200191906001019062000405565b5b50905062000432919062000436565b5090565b5b808211156200045157600081600090555060010162000437565b5090565b620004608162000558565b82525050565b62000471816200056c565b82525050565b620004828162000596565b82525050565b600060a0820190506200049f600083018862000466565b620004ae602083018762000466565b620004bd604083018662000466565b620004cc606083018562000477565b620004db608083018462000455565b9695505050505050565b6000620004f28262000596565b9150620004ff8362000596565b9250826200051257620005116200063d565b5b828204905092915050565b60006200052a8262000596565b9150620005378362000596565b9250828210156200054d576200054c6200060e565b5b828203905092915050565b6000620005658262000576565b9050919050565b6000819050919050565b600073ffffffffffffffffffffffffffffffffffffffff82169050919050565b6000819050919050565b60006002820490506001821680620005b957607f821691505b60208210811415620005d057620005cf6200066c565b5b50919050565b6000620005e38262000596565b9150620005f08362000596565b9250826200060357620006026200063d565b5b828206905092915050565b7f4e487b7100000000000000000000000000000000000000000000000000000000600052601160045260246000fd5b7f4e487b7100000000000000000000000000000000000000000000000000000000600052601260045260246000fd5b7f4e487b7100000000000000000000000000000000000000000000000000000000600052602260045260246000fd5b612c6280620006ab6000396000f3fe608060405234801561001057600080fd5b50600436106101da5760003560e01c8063715018a6116101045780639ce110d7116100a2578063d505accf11610071578063d505accf146105c7578063dd62ed3e146105e3578063ee99205c14610613578063f2fde38b14610631576101da565b80639ce110d714610519578063a457c2d714610537578063a9059cbb14610567578063c4d66de814610597576101da565b80637ecebe00116100de5780637ecebe001461048f5780638da5cb5b146104bf5780639358928b146104dd57806395d89b41146104fb576101da565b8063715018a61461041f57806373c69eb7146104295780637965d56d1461045f576101da565b80632df75cb11161017c578063395093511161014b57806339509351146103715780633eaaf86b146103a157806340a5737f146103bf57806370a08231146103ef576101da565b80632df75cb1146102f957806330adf81f14610317578063313ce567146103355780633644e51514610353576101da565b806318160ddd116101b857806318160ddd1461025d5780631bd396741461027b57806323b872dd146102ab5780632986c0e5146102db576101da565b8063058ecdb4146101df57806306fdde031461020f578063095ea7b31461022d575b600080fd5b6101f960048036038101906101f491906123ad565b61064d565b60405161020691906127f5565b60405180910390f35b610217610833565b6040516102249190612753565b60405180910390f35b61024760048036038101906102429190612348565b6108c5565b604051610254919061264e565b60405180910390f35b6102656109b7565b60405161027291906127f5565b60405180910390f35b61029560048036038101906102909190612384565b6109c1565b6040516102a291906127f5565b60405180910390f35b6102c560048036038101906102c0919061225b565b6109df565b6040516102d2919061264e565b60405180910390f35b6102e3610d79565b6040516102f091906127f5565b60405180910390f35b610301610d8b565b60405161030e91906127f5565b60405180910390f35b61031f610d91565b60405161032c9190612669565b60405180910390f35b61033d610db8565b60405161034a91906128a8565b60405180910390f35b61035b610dc1565b6040516103689190612669565b60405180910390f35b61038b60048036038101906103869190612348565b610dc7565b604051610398919061264e565b60405180910390f35b6103a9610fc3565b6040516103b691906127f5565b60405180910390f35b6103d960048036038101906103d49190612384565b610fc9565b6040516103e6919061264e565b60405180910390f35b610409600480360381019061040491906121f6565b61106e565b60405161041691906127f5565b60405180910390f35b6104276110cb565b005b610443600480360381019061043e9190612384565b611153565b6040516104569796959493929190612839565b60405180910390f35b61047960048036038101906104749190612384565b6111a5565b60405161048691906127f5565b60405180910390f35b6104a960048036038101906104a491906121f6565b6111c3565b6040516104b691906127f5565b60405180910390f35b6104c7611213565b6040516104d49190612633565b60405180910390f35b6104e561123d565b6040516104f291906127f5565b60405180910390f35b610503611283565b6040516105109190612753565b60405180910390f35b610521611315565b60405161052e9190612633565b60405180910390f35b610551600480360381019061054c9190612348565b61133b565b60405161055e919061264e565b60405180910390f35b610581600480360381019061057c9190612348565b6115cb565b60405161058e919061264e565b60405180910390f35b6105b160048036038101906105ac91906121f6565b61177f565b6040516105be919061264e565b60405180910390f35b6105e160048036038101906105dc91906122aa565b6119ed565b005b6105fd60048036038101906105f8919061221f565b611c59565b60405161060a91906127f5565b60405180910390f35b61061b611ce0565b6040516106289190612633565b60405180910390f35b61064b600480360381019061064691906121f6565b611d06565b005b6000600860009054906101000a900473ffffffffffffffffffffffffffffffffffffffff1673ffffffffffffffffffffffffffffffffffffffff163373ffffffffffffffffffffffffffffffffffffffff16146106a957600080fd5b6000806106b461123d565b9050600085141561074957837f917acfbe39be6509ccf7fecb66a7e42ce2be1083c2d7dd3b9b7491dabddb8da442600c546040516106f3929190612810565b60405180910390a2837f6012dbce857565c4a40974aa5de8373a761fc429077ef0c8c8611d1e20d63fb26000610727610d79565b60405161073592919061272a565b60405180910390a2600c549250505061082d565b6000811115610780576107798161076b600c5488611e1490919063ffffffff16565b611dfe90919063ffffffff16565b9150610784565b8491505b61079982600c54611e2a90919063ffffffff16565b600c819055506000196fffffffffffffffffffffffffffffffff16600c5411156107d9576000196fffffffffffffffffffffffffffffffff16600c819055505b610813600c546a0422ca8b0a00a4250000006000196107f89190612af4565b60001961080591906129c0565b611dfe90919063ffffffff16565b600d81905550610824818686611e40565b50600c54925050505b92915050565b60606003805461084290612aa6565b80601f016020809104026020016040519081016040528092919081815260200182805461086e90612aa6565b80156108bb5780601f10610890576101008083540402835291602001916108bb565b820191906000526020600020905b81548152906001019060200180831161089e57829003601f168201915b5050505050905090565b600081600f60003373ffffffffffffffffffffffffffffffffffffffff1673ffffffffffffffffffffffffffffffffffffffff16815260200190815260200160002060008573ffffffffffffffffffffffffffffffffffffffff1673ffffffffffffffffffffffffffffffffffffffff168152602001908152602001600020819055508273ffffffffffffffffffffffffffffffffffffffff163373ffffffffffffffffffffffffffffffffffffffff167f8c5be1e5ebec7d5bd14f71427d1e84f3dd0314c0f7b2291e5b200ac8c7c3b925846040516109a591906127f5565b60405180910390a36001905092915050565b6000600254905090565b60006109d8600d5483611e1490919063ffffffff16565b9050919050565b6000610a7082600f60008773ffffffffffffffffffffffffffffffffffffffff1673ffffffffffffffffffffffffffffffffffffffff16815260200190815260200160002060003373ffffffffffffffffffffffffffffffffffffffff1673ffffffffffffffffffffffffffffffffffffffff16815260200190815260200160002054611faf90919063ffffffff16565b600f60008673ffffffffffffffffffffffffffffffffffffffff1673ffffffffffffffffffffffffffffffffffffffff16815260200190815260200160002060003373ffffffffffffffffffffffffffffffffffffffff1673ffffffffffffffffffffffffffffffffffffffff168152602001908152602001600020819055503373ffffffffffffffffffffffffffffffffffffffff168473ffffffffffffffffffffffffffffffffffffffff167f8c5be1e5ebec7d5bd14f71427d1e84f3dd0314c0f7b2291e5b200ac8c7c3b925600f60008873ffffffffffffffffffffffffffffffffffffffff1673ffffffffffffffffffffffffffffffffffffffff16815260200190815260200160002060003373ffffffffffffffffffffffffffffffffffffffff1673ffffffffffffffffffffffffffffffffffffffff16815260200190815260200160002054604051610bc991906127f5565b60405180910390a36000610bdc836109c1565b9050610c3081600e60008873ffffffffffffffffffffffffffffffffffffffff1673ffffffffffffffffffffffffffffffffffffffff16815260200190815260200160002054611faf90919063ffffffff16565b600e60008773ffffffffffffffffffffffffffffffffffffffff1673ffffffffffffffffffffffffffffffffffffffff16815260200190815260200160002081905550610cc581600e60008773ffffffffffffffffffffffffffffffffffffffff1673ffffffffffffffffffffffffffffffffffffffff16815260200190815260200160002054611e2a90919063ffffffff16565b600e60008673ffffffffffffffffffffffffffffffffffffffff1673ffffffffffffffffffffffffffffffffffffffff168152602001908152602001600020819055508373ffffffffffffffffffffffffffffffffffffffff168573ffffffffffffffffffffffffffffffffffffffff167fddf252ad1be2c89b69c2b068fc378daa952ba7f163c4a11628f55a4df523b3ef85604051610d6591906127f5565b60405180910390a360019150509392505050565b6000610d86600b546111a5565b905090565b600b5481565b7f6e71edae12b1b97f4d1f60370fef10105fa2faae0126114a169c64845d6126c960001b81565b60006012905090565b60065481565b6000610e5882600f60003373ffffffffffffffffffffffffffffffffffffffff1673ffffffffffffffffffffffffffffffffffffffff16815260200190815260200160002060008673ffffffffffffffffffffffffffffffffffffffff1673ffffffffffffffffffffffffffffffffffffffff16815260200190815260200160002054611e2a90919063ffffffff16565b600f60003373ffffffffffffffffffffffffffffffffffffffff1673ffffffffffffffffffffffffffffffffffffffff16815260200190815260200160002060008573ffffffffffffffffffffffffffffffffffffffff1673ffffffffffffffffffffffffffffffffffffffff168152602001908152602001600020819055508273ffffffffffffffffffffffffffffffffffffffff163373ffffffffffffffffffffffffffffffffffffffff167f8c5be1e5ebec7d5bd14f71427d1e84f3dd0314c0f7b2291e5b200ac8c7c3b925600f60003373ffffffffffffffffffffffffffffffffffffffff1673ffffffffffffffffffffffffffffffffffffffff16815260200190815260200160002060008773ffffffffffffffffffffffffffffffffffffffff1673ffffffffffffffffffffffffffffffffffffffff16815260200190815260200160002054604051610fb191906127f5565b60405180910390a36001905092915050565b600c5481565b6000610fd3611fc5565b73ffffffffffffffffffffffffffffffffffffffff16610ff1611213565b73ffffffffffffffffffffffffffffffffffffffff1614611047576040517f08c379a000000000000000000000000000000000000000000000000000000000815260040161103e906127d5565b60405180910390fd5b6000600b541461105657600080fd5b61105f826109c1565b600b8190555060019050919050565b60006110c4600d54600e60008573ffffffffffffffffffffffffffffffffffffffff1673ffffffffffffffffffffffffffffffffffffffff16815260200190815260200160002054611dfe90919063ffffffff16565b9050919050565b6110d3611fc5565b73ffffffffffffffffffffffffffffffffffffffff166110f1611213565b73ffffffffffffffffffffffffffffffffffffffff1614611147576040517f08c379a000000000000000000000000000000000000000000000000000000000815260040161113e906127d5565b60405180910390fd5b6111516000611fcd565b565b600a818154811061116357600080fd5b90600052602060002090600702016000915090508060000154908060010154908060020154908060030154908060040154908060050154908060060154905087565b60006111bc600d5483611dfe90919063ffffffff16565b9050919050565b600061120c600560008473ffffffffffffffffffffffffffffffffffffffff1673ffffffffffffffffffffffffffffffffffffffff168152602001908152602001600020612093565b9050919050565b6000600760009054906101000a900473ffffffffffffffffffffffffffffffffffffffff16905090565b600061127e61126d600860009054906101000a900473ffffffffffffffffffffffffffffffffffffffff1661106e565b600c54611faf90919063ffffffff16565b905090565b60606004805461129290612aa6565b80601f01602080910402602001604051908101604052809291908181526020018280546112be90612aa6565b801561130b5780601f106112e05761010080835404028352916020019161130b565b820191906000526020600020905b8154815290600101906020018083116112ee57829003601f168201915b5050505050905090565b600960009054906101000a900473ffffffffffffffffffffffffffffffffffffffff1681565b600080600f60003373ffffffffffffffffffffffffffffffffffffffff1673ffffffffffffffffffffffffffffffffffffffff16815260200190815260200160002060008573ffffffffffffffffffffffffffffffffffffffff1673ffffffffffffffffffffffffffffffffffffffff16815260200190815260200160002054905080831061144b576000600f60003373ffffffffffffffffffffffffffffffffffffffff1673ffffffffffffffffffffffffffffffffffffffff16815260200190815260200160002060008673ffffffffffffffffffffffffffffffffffffffff1673ffffffffffffffffffffffffffffffffffffffff168152602001908152602001600020819055506114df565b61145e8382611faf90919063ffffffff16565b600f60003373ffffffffffffffffffffffffffffffffffffffff1673ffffffffffffffffffffffffffffffffffffffff16815260200190815260200160002060008673ffffffffffffffffffffffffffffffffffffffff1673ffffffffffffffffffffffffffffffffffffffff168152602001908152602001600020819055505b8373ffffffffffffffffffffffffffffffffffffffff163373ffffffffffffffffffffffffffffffffffffffff167f8c5be1e5ebec7d5bd14f71427d1e84f3dd0314c0f7b2291e5b200ac8c7c3b925600f60003373ffffffffffffffffffffffffffffffffffffffff1673ffffffffffffffffffffffffffffffffffffffff16815260200190815260200160002060008873ffffffffffffffffffffffffffffffffffffffff1673ffffffffffffffffffffffffffffffffffffffff168152602001908152602001600020546040516115b891906127f5565b60405180910390a3600191505092915050565b6000806115e3600d5484611e1490919063ffffffff16565b905061163781600e60003373ffffffffffffffffffffffffffffffffffffffff1673ffffffffffffffffffffffffffffffffffffffff16815260200190815260200160002054611faf90919063ffffffff16565b600e60003373ffffffffffffffffffffffffffffffffffffffff1673ffffffffffffffffffffffffffffffffffffffff168152602001908152602001600020819055506116cc81600e60008773ffffffffffffffffffffffffffffffffffffffff1673ffffffffffffffffffffffffffffffffffffffff16815260200190815260200160002054611e2a90919063ffffffff16565b600e60008673ffffffffffffffffffffffffffffffffffffffff1673ffffffffffffffffffffffffffffffffffffffff168152602001908152602001600020819055508373ffffffffffffffffffffffffffffffffffffffff163373ffffffffffffffffffffffffffffffffffffffff167fddf252ad1be2c89b69c2b068fc378daa952ba7f163c4a11628f55a4df523b3ef8560405161176c91906127f5565b60405180910390a3600191505092915050565b6000600960009054906101000a900473ffffffffffffffffffffffffffffffffffffffff1673ffffffffffffffffffffffffffffffffffffffff163373ffffffffffffffffffffffffffffffffffffffff16146117db57600080fd5b600073ffffffffffffffffffffffffffffffffffffffff168273ffffffffffffffffffffffffffffffffffffffff16141561181557600080fd5b81600860006101000a81548173ffffffffffffffffffffffffffffffffffffffff021916908373ffffffffffffffffffffffffffffffffffffffff1602179055506a0422ca8b0a00a42500000060001961186f9190612af4565b60001961187c91906129c0565b600e6000600860009054906101000a900473ffffffffffffffffffffffffffffffffffffffff1673ffffffffffffffffffffffffffffffffffffffff1673ffffffffffffffffffffffffffffffffffffffff16815260200190815260200160002081905550600860009054906101000a900473ffffffffffffffffffffffffffffffffffffffff1673ffffffffffffffffffffffffffffffffffffffff16600073ffffffffffffffffffffffffffffffffffffffff167fddf252ad1be2c89b69c2b068fc378daa952ba7f163c4a11628f55a4df523b3ef600c5460405161196391906127f5565b60405180910390a37f817c653428858ed536dc085c5d8273734c517b55de44b55f5c5877a75e3373a18260405161199a9190612633565b60405180910390a16000600960006101000a81548173ffffffffffffffffffffffffffffffffffffffff021916908373ffffffffffffffffffffffffffffffffffffffff16021790555060019050919050565b83421115611a30576040517f08c379a0000000000000000000000000000000000000000000000000000000008152600401611a2790612795565b60405180910390fd5b60007f6e71edae12b1b97f4d1f60370fef10105fa2faae0126114a169c64845d6126c960001b888888611aa0600560008e73ffffffffffffffffffffffffffffffffffffffff1673ffffffffffffffffffffffffffffffffffffffff168152602001908152602001600020612093565b89604051602001611ab696959493929190612684565b604051602081830303815290604052805190602001209050600061190160065483604051602001611ae9939291906125f6565b604051602081830303815290604052805190602001209050600060018287878760405160008152602001604052604051611b2694939291906126e5565b6020604051602081039080840390855afa158015611b48573d6000803e3d6000fd5b505050602060405103519050600073ffffffffffffffffffffffffffffffffffffffff168173ffffffffffffffffffffffffffffffffffffffff1614158015611bbc57508973ffffffffffffffffffffffffffffffffffffffff168173ffffffffffffffffffffffffffffffffffffffff16145b611bfb576040517f08c379a0000000000000000000000000000000000000000000000000000000008152600401611bf2906127b5565b60405180910390fd5b611c42600560008c73ffffffffffffffffffffffffffffffffffffffff1673ffffffffffffffffffffffffffffffffffffffff1681526020019081526020016000206120a1565b611c4d8a8a8a6120b7565b50505050505050505050565b6000600f60008473ffffffffffffffffffffffffffffffffffffffff1673ffffffffffffffffffffffffffffffffffffffff16815260200190815260200160002060008373ffffffffffffffffffffffffffffffffffffffff1673ffffffffffffffffffffffffffffffffffffffff16815260200190815260200160002054905092915050565b600860009054906101000a900473ffffffffffffffffffffffffffffffffffffffff1681565b611d0e611fc5565b73ffffffffffffffffffffffffffffffffffffffff16611d2c611213565b73ffffffffffffffffffffffffffffffffffffffff1614611d82576040517f08c379a0000000000000000000000000000000000000000000000000000000008152600401611d79906127d5565b60405180910390fd5b600073ffffffffffffffffffffffffffffffffffffffff168173ffffffffffffffffffffffffffffffffffffffff161415611df2576040517f08c379a0000000000000000000000000000000000000000000000000000000008152600401611de990612775565b60405180910390fd5b611dfb81611fcd565b50565b60008183611e0c9190612935565b905092915050565b60008183611e229190612966565b905092915050565b60008183611e3891906128df565b905092915050565b600080611e7085611e62670de0b6b3a764000087611e1490919063ffffffff16565b611dfe90919063ffffffff16565b9050600a6040518060e00160405280858152602001838152602001878152602001611e9961123d565b8152602001868152602001611eac610d79565b8152602001438152509080600181540180825580915050600190039060005260206000209060070201600090919091909150600082015181600001556020820151816001015560408201518160020155606082015181600301556080820151816004015560a0820151816005015560c082015181600601555050827f917acfbe39be6509ccf7fecb66a7e42ce2be1083c2d7dd3b9b7491dabddb8da442600c54604051611f5a929190612810565b60405180910390a2827f6012dbce857565c4a40974aa5de8373a761fc429077ef0c8c8611d1e20d63fb282611f8d610d79565b604051611f9b929190612810565b60405180910390a260019150509392505050565b60008183611fbd91906129c0565b905092915050565b600033905090565b6000600760009054906101000a900473ffffffffffffffffffffffffffffffffffffffff16905081600760006101000a81548173ffffffffffffffffffffffffffffffffffffffff021916908373ffffffffffffffffffffffffffffffffffffffff1602179055508173ffffffffffffffffffffffffffffffffffffffff168173ffffffffffffffffffffffffffffffffffffffff167f8be0079c531659141344cd1fd0a4f28419497f9722a3daafe3b4186f6b6457e060405160405180910390a35050565b600081600001549050919050565b6001816000016000828254019250508190555050565b80600f60008573ffffffffffffffffffffffffffffffffffffffff1673ffffffffffffffffffffffffffffffffffffffff16815260200190815260200160002060008473ffffffffffffffffffffffffffffffffffffffff1673ffffffffffffffffffffffffffffffffffffffff168152602001908152602001600020819055508173ffffffffffffffffffffffffffffffffffffffff168373ffffffffffffffffffffffffffffffffffffffff167f8c5be1e5ebec7d5bd14f71427d1e84f3dd0314c0f7b2291e5b200ac8c7c3b9258360405161219591906127f5565b60405180910390a3505050565b6000813590506121b181612bd0565b92915050565b6000813590506121c681612be7565b92915050565b6000813590506121db81612bfe565b92915050565b6000813590506121f081612c15565b92915050565b60006020828403121561220857600080fd5b6000612216848285016121a2565b91505092915050565b6000806040838503121561223257600080fd5b6000612240858286016121a2565b9250506020612251858286016121a2565b9150509250929050565b60008060006060848603121561227057600080fd5b600061227e868287016121a2565b935050602061228f868287016121a2565b92505060406122a0868287016121cc565b9150509250925092565b600080600080600080600060e0888a0312156122c557600080fd5b60006122d38a828b016121a2565b97505060206122e48a828b016121a2565b96505060406122f58a828b016121cc565b95505060606123068a828b016121cc565b94505060806123178a828b016121e1565b93505060a06123288a828b016121b7565b92505060c06123398a828b016121b7565b91505092959891949750929550565b6000806040838503121561235b57600080fd5b6000612369858286016121a2565b925050602061237a858286016121cc565b9150509250929050565b60006020828403121561239657600080fd5b60006123a4848285016121cc565b91505092915050565b600080604083850312156123c057600080fd5b60006123ce858286016121cc565b92505060206123df858286016121cc565b9150509250929050565b6123f2816129f4565b82525050565b61240181612a06565b82525050565b61241081612a12565b82525050565b61242761242282612a12565b612ad8565b82525050565b61243681612a61565b82525050565b6000612447826128c3565b61245181856128ce565b9350612461818560208601612a73565b61246a81612bb2565b840191505092915050565b60006124826026836128ce565b91507f4f776e61626c653a206e6577206f776e657220697320746865207a65726f206160008301527f64647265737300000000000000000000000000000000000000000000000000006020830152604082019050919050565b60006124e86018836128ce565b91507f5065726d69743a206578706972656420646561646c696e6500000000000000006000830152602082019050919050565b60006125286021836128ce565b91507f5a65726f537761705065726d69743a20496e76616c6964207369676e6174757260008301527f65000000000000000000000000000000000000000000000000000000000000006020830152604082019050919050565b600061258e6020836128ce565b91507f4f776e61626c653a2063616c6c6572206973206e6f7420746865206f776e65726000830152602082019050919050565b6125d26125cd82612a1c565b612ae2565b82525050565b6125e181612a4a565b82525050565b6125f081612a54565b82525050565b600061260282866125c1565b6002820191506126128285612416565b6020820191506126228284612416565b602082019150819050949350505050565b600060208201905061264860008301846123e9565b92915050565b600060208201905061266360008301846123f8565b92915050565b600060208201905061267e6000830184612407565b92915050565b600060c0820190506126996000830189612407565b6126a660208301886123e9565b6126b360408301876123e9565b6126c060608301866125d8565b6126cd60808301856125d8565b6126da60a08301846125d8565b979650505050505050565b60006080820190506126fa6000830187612407565b61270760208301866125e7565b6127146040830185612407565b6127216060830184612407565b95945050505050565b600060408201905061273f600083018561242d565b61274c60208301846125d8565b9392505050565b6000602082019050818103600083015261276d818461243c565b905092915050565b6000602082019050818103600083015261278e81612475565b9050919050565b600060208201905081810360008301526127ae816124db565b9050919050565b600060208201905081810360008301526127ce8161251b565b9050919050565b600060208201905081810360008301526127ee81612581565b9050919050565b600060208201905061280a60008301846125d8565b92915050565b600060408201905061282560008301856125d8565b61283260208301846125d8565b9392505050565b600060e08201905061284e600083018a6125d8565b61285b60208301896125d8565b61286860408301886125d8565b61287560608301876125d8565b61288260808301866125d8565b61288f60a08301856125d8565b61289c60c08301846125d8565b98975050505050505050565b60006020820190506128bd60008301846125e7565b92915050565b600081519050919050565b600082825260208201905092915050565b60006128ea82612a4a565b91506128f583612a4a565b9250827fffffffffffffffffffffffffffffffffffffffffffffffffffffffffffffffff0382111561292a57612929612b25565b5b828201905092915050565b600061294082612a4a565b915061294b83612a4a565b92508261295b5761295a612b54565b5b828204905092915050565b600061297182612a4a565b915061297c83612a4a565b9250817fffffffffffffffffffffffffffffffffffffffffffffffffffffffffffffffff04831182151516156129b5576129b4612b25565b5b828202905092915050565b60006129cb82612a4a565b91506129d683612a4a565b9250828210156129e9576129e8612b25565b5b828203905092915050565b60006129ff82612a2a565b9050919050565b60008115159050919050565b6000819050919050565b600061ffff82169050919050565b600073ffffffffffffffffffffffffffffffffffffffff82169050919050565b6000819050919050565b600060ff82169050919050565b6000612a6c82612a4a565b9050919050565b60005b83811015612a91578082015181840152602081019050612a76565b83811115612aa0576000848401525b50505050565b60006002820490506001821680612abe57607f821691505b60208210811415612ad257612ad1612b83565b5b50919050565b6000819050919050565b6000612aed82612bc3565b9050919050565b6000612aff82612a4a565b9150612b0a83612a4a565b925082612b1a57612b19612b54565b5b828206905092915050565b7f4e487b7100000000000000000000000000000000000000000000000000000000600052601160045260246000fd5b7f4e487b7100000000000000000000000000000000000000000000000000000000600052601260045260246000fd5b7f4e487b7100000000000000000000000000000000000000000000000000000000600052602260045260246000fd5b6000601f19601f8301169050919050565b60008160f01b9050919050565b612bd9816129f4565b8114612be457600080fd5b50565b612bf081612a12565b8114612bfb57600080fd5b50565b612c0781612a4a565b8114612c1257600080fd5b50565b612c1e81612a54565b8114612c2957600080fd5b5056fea2646970667358221220ca978917cb2c65b4434b35a76423705a0ec3118b2b4461bd4f0135371b2dbc6d64736f6c63430008000033",
  "immutableReferences": {},
  "source": "// SPDX-License-Identifier: AGPL-3.0-or-later\npragma solidity 0.8.0;\n\nimport \"@openzeppelin/contracts/utils/math/SafeMath.sol\";\nimport \"@openzeppelin/contracts/access/Ownable.sol\";\nimport \"./util/ERC20Permit.sol\";\n\n// TODO-hightlight :: main logic\n\ncontract sAtherton is ERC20Permit, Ownable {\n\n    using SafeMath for uint256;\n\n    modifier onlyStakingContract() {\n        require( msg.sender == stakingContract );\n        _;\n    }\n\n    address public stakingContract;\n    address public initializer;\n\n    event LogSupply(uint256 indexed epoch, uint256 timestamp, uint256 totalSupply );\n    event LogRebase( uint256 indexed epoch, uint256 rebase, uint256 index );\n    event LogStakingContractUpdated( address stakingContract );\n\n    struct Rebase {\n        uint epoch;\n        uint rebase; // 18 decimals\n        uint totalStakedBefore;\n        uint totalStakedAfter;\n        uint amountRebased;\n        uint index;\n        uint blockNumberOccured;\n    }\n    Rebase[] public rebases;\n\n    uint public INDEX;\n    uint public _totalSupply;\n\n    uint256 private constant MAX_UINT256 = ~uint256(0);\n    uint256 private constant INITIAL_FRAGMENTS_SUPPLY = 5000000 * 10**18; // 5 million initial supply\n\n    // TOTAL_GONS is a multiple of INITIAL_FRAGMENTS_SUPPLY so that _gonsPerFragment is an integer.\n    // Use the highest value that fits in a uint256 for max granularity.\n    uint256 private constant TOTAL_GONS = MAX_UINT256 - (MAX_UINT256 % INITIAL_FRAGMENTS_SUPPLY);\n\n    // MAX_SUPPLY = maximum integer < (sqrt(4*TOTAL_GONS + 1) - 1) / 2\n    uint256 private constant MAX_SUPPLY = ~uint128(0);  // (2^128) - 1\n\n    uint256 private _gonsPerFragment;\n    mapping(address => uint256) private _gonBalances;\n\n    mapping ( address => mapping ( address => uint256 ) ) private _allowedValue;\n\n    constructor() ERC20(\"Staked Ather\", \"sATHER\") ERC20Permit() {\n        initializer = msg.sender;\n        _totalSupply = INITIAL_FRAGMENTS_SUPPLY;\n        _gonsPerFragment = TOTAL_GONS.div(_totalSupply);\n    }\n\n    function initialize( address stakingContract_ ) external returns ( bool ) {\n        require( msg.sender == initializer );\n        require( stakingContract_ != address(0) );\n        stakingContract = stakingContract_;\n        _gonBalances[ stakingContract ] = TOTAL_GONS;\n\n        emit Transfer( address(0x0), stakingContract, _totalSupply );\n        emit LogStakingContractUpdated( stakingContract_ );\n        \n        initializer = address(0);\n        return true;\n    }\n\n    function setIndex( uint _INDEX ) external onlyOwner() returns ( bool ) {\n        require( INDEX == 0 );\n        INDEX = gonsForBalance( _INDEX );\n        return true;\n    }\n\n    /**\n        @notice increases sATHER supply to increase staking balances relative to profit_\n        @param profit_ uint256\n        @return uint256\n     */\n    function rebase( uint256 profit_, uint epoch_ ) public onlyStakingContract() returns ( uint256 ) {\n        uint256 rebaseAmount;\n        uint256 circulatingSupply_ = circulatingSupply();\n\n        if ( profit_ == 0 ) {\n            emit LogSupply( epoch_, block.timestamp, _totalSupply );\n            emit LogRebase( epoch_, 0, index() );\n            return _totalSupply;\n        } else if ( circulatingSupply_ > 0 ){\n            rebaseAmount = profit_.mul( _totalSupply ).div( circulatingSupply_ );\n        } else {\n            rebaseAmount = profit_;\n        }\n\n        _totalSupply = _totalSupply.add( rebaseAmount );\n\n        if ( _totalSupply > MAX_SUPPLY ) {\n            _totalSupply = MAX_SUPPLY;\n        }\n\n        _gonsPerFragment = TOTAL_GONS.div( _totalSupply );\n\n        _storeRebase( circulatingSupply_, profit_, epoch_ );\n\n        return _totalSupply;\n    }\n\n    /**\n        @notice emits event with data about rebase\n        @param previousCirculating_ uint\n        @param profit_ uint\n        @param epoch_ uint\n        @return bool\n     */\n    function _storeRebase( uint previousCirculating_, uint profit_, uint epoch_ ) internal returns ( bool ) {\n        uint rebasePercent = profit_.mul( 1e18 ).div( previousCirculating_ );\n\n        rebases.push( Rebase ( {\n            epoch: epoch_,\n            rebase: rebasePercent, // 18 decimals\n            totalStakedBefore: previousCirculating_,\n            totalStakedAfter: circulatingSupply(),\n            amountRebased: profit_,\n            index: index(),\n            blockNumberOccured: block.number\n        }));\n        \n        emit LogSupply( epoch_, block.timestamp, _totalSupply );\n        emit LogRebase( epoch_, rebasePercent, index() );\n\n        return true;\n    }\n\n    function balanceOf( address who ) public view override returns ( uint256 ) {\n        return _gonBalances[ who ].div( _gonsPerFragment );\n    }\n\n    function gonsForBalance( uint amount ) public view returns ( uint ) {\n        return amount.mul( _gonsPerFragment );\n    }\n\n    function balanceForGons( uint gons ) public view returns ( uint ) {\n        return gons.div( _gonsPerFragment );\n    }\n\n    // Staking contract holds excess sATHER\n    function circulatingSupply() public view returns ( uint ) {\n        return _totalSupply.sub( balanceOf( stakingContract ) );\n    }\n\n    function index() public view returns ( uint ) {\n        return balanceForGons( INDEX );\n    }\n\n    function transfer( address to, uint256 value ) public override returns (bool) {\n        uint256 gonValue = value.mul( _gonsPerFragment );\n        _gonBalances[ msg.sender ] = _gonBalances[ msg.sender ].sub( gonValue );\n        _gonBalances[ to ] = _gonBalances[ to ].add( gonValue );\n        emit Transfer( msg.sender, to, value );\n        return true;\n    }\n\n    function allowance( address owner_, address spender ) public view override returns ( uint256 ) {\n        return _allowedValue[ owner_ ][ spender ];\n    }\n\n    function transferFrom( address from, address to, uint256 value ) public override returns ( bool ) {\n       _allowedValue[ from ][ msg.sender ] = _allowedValue[ from ][ msg.sender ].sub( value );\n       emit Approval( from, msg.sender,  _allowedValue[ from ][ msg.sender ] );\n\n        uint256 gonValue = gonsForBalance( value );\n        _gonBalances[ from ] = _gonBalances[from].sub( gonValue );\n        _gonBalances[ to ] = _gonBalances[to].add( gonValue );\n        emit Transfer( from, to, value );\n\n        return true;\n    }\n\n    function approve( address spender, uint256 value ) public override returns (bool) {\n         _allowedValue[ msg.sender ][ spender ] = value;\n         emit Approval( msg.sender, spender, value );\n         return true;\n    }\n\n    // What gets called in a permit\n    function _approve( address owner, address spender, uint256 value ) internal override virtual {\n        _allowedValue[owner][spender] = value;\n        emit Approval( owner, spender, value );\n    }\n\n    function increaseAllowance( address spender, uint256 addedValue ) public override returns (bool) {\n        _allowedValue[ msg.sender ][ spender ] = _allowedValue[ msg.sender ][ spender ].add( addedValue );\n        emit Approval( msg.sender, spender, _allowedValue[ msg.sender ][ spender ] );\n        return true;\n    }\n\n    function decreaseAllowance( address spender, uint256 subtractedValue ) public override returns (bool) {\n        uint256 oldValue = _allowedValue[ msg.sender ][ spender ];\n        if (subtractedValue >= oldValue) {\n            _allowedValue[ msg.sender ][ spender ] = 0;\n        } else {\n            _allowedValue[ msg.sender ][ spender ] = oldValue.sub( subtractedValue );\n        }\n        emit Approval( msg.sender, spender, _allowedValue[ msg.sender ][ spender ] );\n        return true;\n    }\n}",
  "sourcePath": "/var/www/atherton/evm/contracts/sAthertonERC20.sol",
  "compiler": {
    "name": "solc",
    "version": "0.8.0+commit.c7dfd78e.Emscripten.clang"
  },
  "schemaVersion": "3.4.3",
  "updatedAt": "2021-12-04T00:51:06.074Z",
  "devdoc": {
    "kind": "dev",
    "methods": {
      "decimals()": {
        "details": "Returns the number of decimals used to get its user representation. For example, if `decimals` equals `2`, a balance of `505` tokens should be displayed to a user as `5.05` (`505 / 10 ** 2`). Tokens usually opt for a value of 18, imitating the relationship between Ether and Wei. This is the value {ERC20} uses, unless this function is overridden; NOTE: This information is only used for _display_ purposes: it in no way affects any of the arithmetic of the contract, including {IERC20-balanceOf} and {IERC20-transfer}."
      },
      "decreaseAllowance(address,uint256)": {
        "details": "Atomically decreases the allowance granted to `spender` by the caller. This is an alternative to {approve} that can be used as a mitigation for problems described in {IERC20-approve}. Emits an {Approval} event indicating the updated allowance. Requirements: - `spender` cannot be the zero address. - `spender` must have allowance for the caller of at least `subtractedValue`."
      },
      "increaseAllowance(address,uint256)": {
        "details": "Atomically increases the allowance granted to `spender` by the caller. This is an alternative to {approve} that can be used as a mitigation for problems described in {IERC20-approve}. Emits an {Approval} event indicating the updated allowance. Requirements: - `spender` cannot be the zero address."
      },
      "name()": {
        "details": "Returns the name of the token."
      },
      "owner()": {
        "details": "Returns the address of the current owner."
      },
      "rebase(uint256,uint256)": {
        "params": {
          "profit_": "uint256"
        },
        "returns": {
          "_0": "uint256"
        }
      },
      "renounceOwnership()": {
        "details": "Leaves the contract without owner. It will not be possible to call `onlyOwner` functions anymore. Can only be called by the current owner. NOTE: Renouncing ownership will leave the contract without an owner, thereby removing any functionality that is only available to the owner."
      },
      "symbol()": {
        "details": "Returns the symbol of the token, usually a shorter version of the name."
      },
      "totalSupply()": {
        "details": "See {IERC20-totalSupply}."
      },
      "transferOwnership(address)": {
        "details": "Transfers ownership of the contract to a new account (`newOwner`). Can only be called by the current owner."
      }
    },
    "version": 1
  },
  "userdoc": {
    "kind": "user",
    "methods": {
      "rebase(uint256,uint256)": {
        "notice": "increases sATHER supply to increase staking balances relative to profit_"
      }
    },
    "version": 1
  }
}