{
  "contractName": "sAtherton",
  "abi": [
    {
      "inputs": [],
      "stateMutability": "nonpayable",
      "type": "constructor"
    },
    {
      "anonymous": false,
      "inputs": [
        {
          "indexed": true,
          "internalType": "address",
          "name": "owner",
          "type": "address"
        },
        {
          "indexed": true,
          "internalType": "address",
          "name": "spender",
          "type": "address"
        },
        {
          "indexed": false,
          "internalType": "uint256",
          "name": "value",
          "type": "uint256"
        }
      ],
      "name": "Approval",
      "type": "event"
    },
    {
      "anonymous": false,
      "inputs": [
        {
          "indexed": true,
          "internalType": "address",
          "name": "previousOwner",
          "type": "address"
        },
        {
          "indexed": true,
          "internalType": "address",
          "name": "newOwner",
          "type": "address"
        }
      ],
      "name": "OwnershipTransferred",
      "type": "event"
    },
    {
      "anonymous": false,
      "inputs": [
        {
          "indexed": true,
          "internalType": "address",
          "name": "from",
          "type": "address"
        },
        {
          "indexed": true,
          "internalType": "address",
          "name": "to",
          "type": "address"
        },
        {
          "indexed": false,
          "internalType": "uint256",
          "name": "value",
          "type": "uint256"
        }
      ],
      "name": "Transfer",
      "type": "event"
    },
    {
      "inputs": [],
      "name": "DOMAIN_SEPARATOR",
      "outputs": [
        {
          "internalType": "bytes32",
          "name": "",
          "type": "bytes32"
        }
      ],
      "stateMutability": "view",
      "type": "function"
    },
    {
      "inputs": [],
      "name": "PERMIT_TYPEHASH",
      "outputs": [
        {
          "internalType": "bytes32",
          "name": "",
          "type": "bytes32"
        }
      ],
      "stateMutability": "view",
      "type": "function"
    },
    {
      "inputs": [
        {
          "internalType": "address",
          "name": "owner",
          "type": "address"
        },
        {
          "internalType": "address",
          "name": "spender",
          "type": "address"
        }
      ],
      "name": "allowance",
      "outputs": [
        {
          "internalType": "uint256",
          "name": "",
          "type": "uint256"
        }
      ],
      "stateMutability": "view",
      "type": "function"
    },
    {
      "inputs": [
        {
          "internalType": "address",
          "name": "spender",
          "type": "address"
        },
        {
          "internalType": "uint256",
          "name": "amount",
          "type": "uint256"
        }
      ],
      "name": "approve",
      "outputs": [
        {
          "internalType": "bool",
          "name": "",
          "type": "bool"
        }
      ],
      "stateMutability": "nonpayable",
      "type": "function"
    },
    {
      "inputs": [
        {
          "internalType": "address",
          "name": "account",
          "type": "address"
        }
      ],
      "name": "balanceOf",
      "outputs": [
        {
          "internalType": "uint256",
          "name": "",
          "type": "uint256"
        }
      ],
      "stateMutability": "view",
      "type": "function"
    },
    {
      "inputs": [],
      "name": "decimals",
      "outputs": [
        {
          "internalType": "uint8",
          "name": "",
          "type": "uint8"
        }
      ],
      "stateMutability": "view",
      "type": "function"
    },
    {
      "inputs": [
        {
          "internalType": "address",
          "name": "spender",
          "type": "address"
        },
        {
          "internalType": "uint256",
          "name": "subtractedValue",
          "type": "uint256"
        }
      ],
      "name": "decreaseAllowance",
      "outputs": [
        {
          "internalType": "bool",
          "name": "",
          "type": "bool"
        }
      ],
      "stateMutability": "nonpayable",
      "type": "function"
    },
    {
      "inputs": [
        {
          "internalType": "address",
          "name": "spender",
          "type": "address"
        },
        {
          "internalType": "uint256",
          "name": "addedValue",
          "type": "uint256"
        }
      ],
      "name": "increaseAllowance",
      "outputs": [
        {
          "internalType": "bool",
          "name": "",
          "type": "bool"
        }
      ],
      "stateMutability": "nonpayable",
      "type": "function"
    },
    {
      "inputs": [],
      "name": "name",
      "outputs": [
        {
          "internalType": "string",
          "name": "",
          "type": "string"
        }
      ],
      "stateMutability": "view",
      "type": "function"
    },
    {
      "inputs": [
        {
          "internalType": "address",
          "name": "owner",
          "type": "address"
        }
      ],
      "name": "nonces",
      "outputs": [
        {
          "internalType": "uint256",
          "name": "",
          "type": "uint256"
        }
      ],
      "stateMutability": "view",
      "type": "function"
    },
    {
      "inputs": [],
      "name": "owner",
      "outputs": [
        {
          "internalType": "address",
          "name": "",
          "type": "address"
        }
      ],
      "stateMutability": "view",
      "type": "function"
    },
    {
      "inputs": [
        {
          "internalType": "address",
          "name": "owner",
          "type": "address"
        },
        {
          "internalType": "address",
          "name": "spender",
          "type": "address"
        },
        {
          "internalType": "uint256",
          "name": "amount",
          "type": "uint256"
        },
        {
          "internalType": "uint256",
          "name": "deadline",
          "type": "uint256"
        },
        {
          "internalType": "uint8",
          "name": "v",
          "type": "uint8"
        },
        {
          "internalType": "bytes32",
          "name": "r",
          "type": "bytes32"
        },
        {
          "internalType": "bytes32",
          "name": "s",
          "type": "bytes32"
        }
      ],
      "name": "permit",
      "outputs": [],
      "stateMutability": "nonpayable",
      "type": "function"
    },
    {
      "inputs": [],
      "name": "renounceOwnership",
      "outputs": [],
      "stateMutability": "nonpayable",
      "type": "function"
    },
    {
      "inputs": [
        {
          "internalType": "address",
          "name": "vault_",
          "type": "address"
        }
      ],
      "name": "setVault",
      "outputs": [
        {
          "internalType": "bool",
          "name": "",
          "type": "bool"
        }
      ],
      "stateMutability": "nonpayable",
      "type": "function"
    },
    {
      "inputs": [],
      "name": "symbol",
      "outputs": [
        {
          "internalType": "string",
          "name": "",
          "type": "string"
        }
      ],
      "stateMutability": "view",
      "type": "function"
    },
    {
      "inputs": [],
      "name": "totalSupply",
      "outputs": [
        {
          "internalType": "uint256",
          "name": "",
          "type": "uint256"
        }
      ],
      "stateMutability": "view",
      "type": "function"
    },
    {
      "inputs": [
        {
          "internalType": "address",
          "name": "newOwner",
          "type": "address"
        }
      ],
      "name": "transferOwnership",
      "outputs": [],
      "stateMutability": "nonpayable",
      "type": "function"
    },
    {
      "inputs": [],
      "name": "vault",
      "outputs": [
        {
          "internalType": "address",
          "name": "",
          "type": "address"
        }
      ],
      "stateMutability": "view",
      "type": "function"
    },
    {
      "inputs": [
        {
          "internalType": "address",
          "name": "account_",
          "type": "address"
        },
        {
          "internalType": "uint256",
          "name": "amount_",
          "type": "uint256"
        }
      ],
      "name": "mint",
      "outputs": [],
      "stateMutability": "nonpayable",
      "type": "function"
    },
    {
      "inputs": [
        {
          "internalType": "address",
          "name": "account_",
          "type": "address"
        },
        {
          "internalType": "uint256",
          "name": "amount_",
          "type": "uint256"
        }
      ],
      "name": "burnFrom",
      "outputs": [],
      "stateMutability": "nonpayable",
      "type": "function"
    },
    {
      "inputs": [
        {
          "internalType": "address",
          "name": "recipient_",
          "type": "address"
        },
        {
          "internalType": "uint256",
          "name": "amount_",
          "type": "uint256"
        }
      ],
      "name": "transfer",
      "outputs": [
        {
          "internalType": "bool",
          "name": "",
          "type": "bool"
        }
      ],
      "stateMutability": "nonpayable",
      "type": "function"
    },
    {
      "inputs": [
        {
          "internalType": "address",
          "name": "sender_",
          "type": "address"
        },
        {
          "internalType": "address",
          "name": "recipient_",
          "type": "address"
        },
        {
          "internalType": "uint256",
          "name": "amount_",
          "type": "uint256"
        }
      ],
      "name": "transferFrom",
      "outputs": [
        {
          "internalType": "bool",
          "name": "",
          "type": "bool"
        }
      ],
      "stateMutability": "nonpayable",
      "type": "function"
    }
  ],
  "bytecode": "0x60806040523480156200001157600080fd5b506040518060400160405280600c81526020017f5374616b656420417468657200000000000000000000000000000000000000008152506040518060400160405280600681526020017f7341544845520000000000000000000000000000000000000000000000000000815250816003908051906020019062000096929190620002ef565b508060049080519060200190620000af929190620002ef565b50505060004690507f8b73c3c69bb8fe3d512ecc4cf759cc79239f7b179b0ffacaa9a75d522b39400f620000e86200018760201b60201c565b805190602001206040518060400160405280600181526020017f310000000000000000000000000000000000000000000000000000000000000081525080519060200120833060405160200162000144959493929190620003d2565b604051602081830303815290604052805190602001206006819055505062000181620001756200022160201b60201c565b6200022960201b60201c565b620004dc565b606060038054620001989062000477565b80601f0160208091040260200160405190810160405280929190818152602001828054620001c69062000477565b8015620002175780601f10620001eb5761010080835404028352916020019162000217565b820191906000526020600020905b815481529060010190602001808311620001f957829003601f168201915b5050505050905090565b600033905090565b6000600760009054906101000a900473ffffffffffffffffffffffffffffffffffffffff16905081600760006101000a81548173ffffffffffffffffffffffffffffffffffffffff021916908373ffffffffffffffffffffffffffffffffffffffff1602179055508173ffffffffffffffffffffffffffffffffffffffff168173ffffffffffffffffffffffffffffffffffffffff167f8be0079c531659141344cd1fd0a4f28419497f9722a3daafe3b4186f6b6457e060405160405180910390a35050565b828054620002fd9062000477565b90600052602060002090601f0160209004810192826200032157600085556200036d565b82601f106200033c57805160ff19168380011785556200036d565b828001600101855582156200036d579182015b828111156200036c5782518255916020019190600101906200034f565b5b5090506200037c919062000380565b5090565b5b808211156200039b57600081600090555060010162000381565b5090565b620003aa816200042f565b82525050565b620003bb8162000443565b82525050565b620003cc816200046d565b82525050565b600060a082019050620003e96000830188620003b0565b620003f86020830187620003b0565b620004076040830186620003b0565b620004166060830185620003c1565b6200042560808301846200039f565b9695505050505050565b60006200043c826200044d565b9050919050565b6000819050919050565b600073ffffffffffffffffffffffffffffffffffffffff82169050919050565b6000819050919050565b600060028204905060018216806200049057607f821691505b60208210811415620004a757620004a6620004ad565b5b50919050565b7f4e487b7100000000000000000000000000000000000000000000000000000000600052602260045260246000fd5b61264f80620004ec6000396000f3fe608060405234801561001057600080fd5b50600436106101425760003560e01c8063715018a6116100b8578063a457c2d71161007c578063a457c2d71461037b578063a9059cbb146103ab578063d505accf146103db578063dd62ed3e146103f7578063f2fde38b14610427578063fbfa77cf1461044357610142565b8063715018a6146102e957806379cc6790146102f35780637ecebe001461030f5780638da5cb5b1461033f57806395d89b411461035d57610142565b8063313ce5671161010a578063313ce567146102015780633644e5151461021f578063395093511461023d57806340c10f191461026d5780636817031b1461028957806370a08231146102b957610142565b806306fdde0314610147578063095ea7b31461016557806318160ddd1461019557806323b872dd146101b357806330adf81f146101e3575b600080fd5b61014f610461565b60405161015c9190612195565b60405180910390f35b61017f600480360381019061017a9190611a51565b6104f3565b60405161018c91906120b9565b60405180910390f35b61019d610511565b6040516101aa9190612377565b60405180910390f35b6101cd60048036038101906101c89190611964565b61051b565b6040516101da91906120b9565b60405180910390f35b6101eb6105c3565b6040516101f891906120d4565b60405180910390f35b6102096105ea565b6040516102169190612392565b60405180910390f35b6102276105f3565b60405161023491906120d4565b60405180910390f35b61025760048036038101906102529190611a51565b6105f9565b60405161026491906120b9565b60405180910390f35b61028760048036038101906102829190611a51565b6106a5565b005b6102a3600480360381019061029e91906118ff565b610743565b6040516102b091906120b9565b60405180910390f35b6102d360048036038101906102ce91906118ff565b61080b565b6040516102e09190612377565b60405180910390f35b6102f1610853565b005b61030d60048036038101906103089190611a51565b6108db565b005b610329600480360381019061032491906118ff565b610979565b6040516103369190612377565b60405180910390f35b6103476109c9565b604051610354919061209e565b60405180910390f35b6103656109f3565b6040516103729190612195565b60405180910390f35b61039560048036038101906103909190611a51565b610a85565b6040516103a291906120b9565b60405180910390f35b6103c560048036038101906103c09190611a51565b610b70565b6040516103d291906120b9565b60405180910390f35b6103f560048036038101906103f091906119b3565b610c17565b005b610411600480360381019061040c9190611928565b610e83565b60405161041e9190612377565b60405180910390f35b610441600480360381019061043c91906118ff565b610f0a565b005b61044b611002565b604051610458919061209e565b60405180910390f35b606060038054610470906124f3565b80601f016020809104026020016040519081016040528092919081815260200182805461049c906124f3565b80156104e95780601f106104be576101008083540402835291602001916104e9565b820191906000526020600020905b8154815290600101906020018083116104cc57829003601f168201915b5050505050905090565b600061050761050061102c565b8484611034565b6001905092915050565b6000600254905090565b60003373ffffffffffffffffffffffffffffffffffffffff16600860009054906101000a900473ffffffffffffffffffffffffffffffffffffffff1673ffffffffffffffffffffffffffffffffffffffff16146105ad576040517f08c379a00000000000000000000000000000000000000000000000000000000081526004016105a490612297565b60405180910390fd5b6105b88484846111ff565b600190509392505050565b7f6e71edae12b1b97f4d1f60370fef10105fa2faae0126114a169c64845d6126c960001b81565b60006012905090565b60065481565b600061069b61060661102c565b84846001600061061461102c565b73ffffffffffffffffffffffffffffffffffffffff1673ffffffffffffffffffffffffffffffffffffffff16815260200190815260200160002060008873ffffffffffffffffffffffffffffffffffffffff1673ffffffffffffffffffffffffffffffffffffffff1681526020019081526020016000205461069691906123c9565b611034565b6001905092915050565b3373ffffffffffffffffffffffffffffffffffffffff16600860009054906101000a900473ffffffffffffffffffffffffffffffffffffffff1673ffffffffffffffffffffffffffffffffffffffff1614610735576040517f08c379a000000000000000000000000000000000000000000000000000000000815260040161072c90612297565b60405180910390fd5b61073f8282611480565b5050565b600061074d61102c565b73ffffffffffffffffffffffffffffffffffffffff1661076b6109c9565b73ffffffffffffffffffffffffffffffffffffffff16146107c1576040517f08c379a00000000000000000000000000000000000000000000000000000000081526004016107b8906122b7565b60405180910390fd5b81600860006101000a81548173ffffffffffffffffffffffffffffffffffffffff021916908373ffffffffffffffffffffffffffffffffffffffff16021790555060019050919050565b60008060008373ffffffffffffffffffffffffffffffffffffffff1673ffffffffffffffffffffffffffffffffffffffff168152602001908152602001600020549050919050565b61085b61102c565b73ffffffffffffffffffffffffffffffffffffffff166108796109c9565b73ffffffffffffffffffffffffffffffffffffffff16146108cf576040517f08c379a00000000000000000000000000000000000000000000000000000000081526004016108c6906122b7565b60405180910390fd5b6108d960006115e0565b565b3373ffffffffffffffffffffffffffffffffffffffff16600860009054906101000a900473ffffffffffffffffffffffffffffffffffffffff1673ffffffffffffffffffffffffffffffffffffffff161461096b576040517f08c379a000000000000000000000000000000000000000000000000000000000815260040161096290612297565b60405180910390fd5b61097582826116a6565b5050565b60006109c2600560008473ffffffffffffffffffffffffffffffffffffffff1673ffffffffffffffffffffffffffffffffffffffff16815260200190815260200160002061187d565b9050919050565b6000600760009054906101000a900473ffffffffffffffffffffffffffffffffffffffff16905090565b606060048054610a02906124f3565b80601f0160208091040260200160405190810160405280929190818152602001828054610a2e906124f3565b8015610a7b5780601f10610a5057610100808354040283529160200191610a7b565b820191906000526020600020905b815481529060010190602001808311610a5e57829003601f168201915b5050505050905090565b60008060016000610a9461102c565b73ffffffffffffffffffffffffffffffffffffffff1673ffffffffffffffffffffffffffffffffffffffff16815260200190815260200160002060008573ffffffffffffffffffffffffffffffffffffffff1673ffffffffffffffffffffffffffffffffffffffff16815260200190815260200160002054905082811015610b51576040517f08c379a0000000000000000000000000000000000000000000000000000000008152600401610b4890612337565b60405180910390fd5b610b65610b5c61102c565b85858403611034565b600191505092915050565b60003373ffffffffffffffffffffffffffffffffffffffff16600860009054906101000a900473ffffffffffffffffffffffffffffffffffffffff1673ffffffffffffffffffffffffffffffffffffffff1614610c02576040517f08c379a0000000000000000000000000000000000000000000000000000000008152600401610bf990612297565b60405180910390fd5b610c0d3384846111ff565b6001905092915050565b83421115610c5a576040517f08c379a0000000000000000000000000000000000000000000000000000000008152600401610c5190612237565b60405180910390fd5b60007f6e71edae12b1b97f4d1f60370fef10105fa2faae0126114a169c64845d6126c960001b888888610cca600560008e73ffffffffffffffffffffffffffffffffffffffff1673ffffffffffffffffffffffffffffffffffffffff16815260200190815260200160002061187d565b89604051602001610ce0969594939291906120ef565b604051602081830303815290604052805190602001209050600061190160065483604051602001610d1393929190612061565b604051602081830303815290604052805190602001209050600060018287878760405160008152602001604052604051610d509493929190612150565b6020604051602081039080840390855afa158015610d72573d6000803e3d6000fd5b505050602060405103519050600073ffffffffffffffffffffffffffffffffffffffff168173ffffffffffffffffffffffffffffffffffffffff1614158015610de657508973ffffffffffffffffffffffffffffffffffffffff168173ffffffffffffffffffffffffffffffffffffffff16145b610e25576040517f08c379a0000000000000000000000000000000000000000000000000000000008152600401610e1c90612277565b60405180910390fd5b610e6c600560008c73ffffffffffffffffffffffffffffffffffffffff1673ffffffffffffffffffffffffffffffffffffffff16815260200190815260200160002061188b565b610e778a8a8a611034565b50505050505050505050565b6000600160008473ffffffffffffffffffffffffffffffffffffffff1673ffffffffffffffffffffffffffffffffffffffff16815260200190815260200160002060008373ffffffffffffffffffffffffffffffffffffffff1673ffffffffffffffffffffffffffffffffffffffff16815260200190815260200160002054905092915050565b610f1261102c565b73ffffffffffffffffffffffffffffffffffffffff16610f306109c9565b73ffffffffffffffffffffffffffffffffffffffff1614610f86576040517f08c379a0000000000000000000000000000000000000000000000000000000008152600401610f7d906122b7565b60405180910390fd5b600073ffffffffffffffffffffffffffffffffffffffff168173ffffffffffffffffffffffffffffffffffffffff161415610ff6576040517f08c379a0000000000000000000000000000000000000000000000000000000008152600401610fed906121f7565b60405180910390fd5b610fff816115e0565b50565b6000600860009054906101000a900473ffffffffffffffffffffffffffffffffffffffff16905090565b600033905090565b600073ffffffffffffffffffffffffffffffffffffffff168373ffffffffffffffffffffffffffffffffffffffff1614156110a4576040517f08c379a000000000000000000000000000000000000000000000000000000000815260040161109b90612317565b60405180910390fd5b600073ffffffffffffffffffffffffffffffffffffffff168273ffffffffffffffffffffffffffffffffffffffff161415611114576040517f08c379a000000000000000000000000000000000000000000000000000000000815260040161110b90612217565b60405180910390fd5b80600160008573ffffffffffffffffffffffffffffffffffffffff1673ffffffffffffffffffffffffffffffffffffffff16815260200190815260200160002060008473ffffffffffffffffffffffffffffffffffffffff1673ffffffffffffffffffffffffffffffffffffffff168152602001908152602001600020819055508173ffffffffffffffffffffffffffffffffffffffff168373ffffffffffffffffffffffffffffffffffffffff167f8c5be1e5ebec7d5bd14f71427d1e84f3dd0314c0f7b2291e5b200ac8c7c3b925836040516111f29190612377565b60405180910390a3505050565b600073ffffffffffffffffffffffffffffffffffffffff168373ffffffffffffffffffffffffffffffffffffffff16141561126f576040517f08c379a0000000000000000000000000000000000000000000000000000000008152600401611266906122f7565b60405180910390fd5b600073ffffffffffffffffffffffffffffffffffffffff168273ffffffffffffffffffffffffffffffffffffffff1614156112df576040517f08c379a00000000000000000000000000000000000000000000000000000000081526004016112d6906121b7565b60405180910390fd5b6112ea8383836118a1565b60008060008573ffffffffffffffffffffffffffffffffffffffff1673ffffffffffffffffffffffffffffffffffffffff16815260200190815260200160002054905081811015611370576040517f08c379a000000000000000000000000000000000000000000000000000000000815260040161136790612257565b60405180910390fd5b8181036000808673ffffffffffffffffffffffffffffffffffffffff1673ffffffffffffffffffffffffffffffffffffffff16815260200190815260200160002081905550816000808573ffffffffffffffffffffffffffffffffffffffff1673ffffffffffffffffffffffffffffffffffffffff168152602001908152602001600020600082825461140391906123c9565b925050819055508273ffffffffffffffffffffffffffffffffffffffff168473ffffffffffffffffffffffffffffffffffffffff167fddf252ad1be2c89b69c2b068fc378daa952ba7f163c4a11628f55a4df523b3ef846040516114679190612377565b60405180910390a361147a8484846118a6565b50505050565b600073ffffffffffffffffffffffffffffffffffffffff168273ffffffffffffffffffffffffffffffffffffffff1614156114f0576040517f08c379a00000000000000000000000000000000000000000000000000000000081526004016114e790612357565b60405180910390fd5b6114fc600083836118a1565b806002600082825461150e91906123c9565b92505081905550806000808473ffffffffffffffffffffffffffffffffffffffff1673ffffffffffffffffffffffffffffffffffffffff168152602001908152602001600020600082825461156391906123c9565b925050819055508173ffffffffffffffffffffffffffffffffffffffff16600073ffffffffffffffffffffffffffffffffffffffff167fddf252ad1be2c89b69c2b068fc378daa952ba7f163c4a11628f55a4df523b3ef836040516115c89190612377565b60405180910390a36115dc600083836118a6565b5050565b6000600760009054906101000a900473ffffffffffffffffffffffffffffffffffffffff16905081600760006101000a81548173ffffffffffffffffffffffffffffffffffffffff021916908373ffffffffffffffffffffffffffffffffffffffff1602179055508173ffffffffffffffffffffffffffffffffffffffff168173ffffffffffffffffffffffffffffffffffffffff167f8be0079c531659141344cd1fd0a4f28419497f9722a3daafe3b4186f6b6457e060405160405180910390a35050565b600073ffffffffffffffffffffffffffffffffffffffff168273ffffffffffffffffffffffffffffffffffffffff161415611716576040517f08c379a000000000000000000000000000000000000000000000000000000000815260040161170d906122d7565b60405180910390fd5b611722826000836118a1565b60008060008473ffffffffffffffffffffffffffffffffffffffff1673ffffffffffffffffffffffffffffffffffffffff168152602001908152602001600020549050818110156117a8576040517f08c379a000000000000000000000000000000000000000000000000000000000815260040161179f906121d7565b60405180910390fd5b8181036000808573ffffffffffffffffffffffffffffffffffffffff1673ffffffffffffffffffffffffffffffffffffffff1681526020019081526020016000208190555081600260008282546117ff919061241f565b92505081905550600073ffffffffffffffffffffffffffffffffffffffff168373ffffffffffffffffffffffffffffffffffffffff167fddf252ad1be2c89b69c2b068fc378daa952ba7f163c4a11628f55a4df523b3ef846040516118649190612377565b60405180910390a3611878836000846118a6565b505050565b600081600001549050919050565b6001816000016000828254019250508190555050565b505050565b505050565b6000813590506118ba816125bd565b92915050565b6000813590506118cf816125d4565b92915050565b6000813590506118e4816125eb565b92915050565b6000813590506118f981612602565b92915050565b60006020828403121561191157600080fd5b600061191f848285016118ab565b91505092915050565b6000806040838503121561193b57600080fd5b6000611949858286016118ab565b925050602061195a858286016118ab565b9150509250929050565b60008060006060848603121561197957600080fd5b6000611987868287016118ab565b9350506020611998868287016118ab565b92505060406119a9868287016118d5565b9150509250925092565b600080600080600080600060e0888a0312156119ce57600080fd5b60006119dc8a828b016118ab565b97505060206119ed8a828b016118ab565b96505060406119fe8a828b016118d5565b9550506060611a0f8a828b016118d5565b9450506080611a208a828b016118ea565b93505060a0611a318a828b016118c0565b92505060c0611a428a828b016118c0565b91505092959891949750929550565b60008060408385031215611a6457600080fd5b6000611a72858286016118ab565b9250506020611a83858286016118d5565b9150509250929050565b611a9681612453565b82525050565b611aa581612465565b82525050565b611ab481612471565b82525050565b611acb611ac682612471565b612525565b82525050565b6000611adc826123ad565b611ae681856123b8565b9350611af68185602086016124c0565b611aff8161259f565b840191505092915050565b6000611b176023836123b8565b91507f45524332303a207472616e7366657220746f20746865207a65726f206164647260008301527f65737300000000000000000000000000000000000000000000000000000000006020830152604082019050919050565b6000611b7d6022836123b8565b91507f45524332303a206275726e20616d6f756e7420657863656564732062616c616e60008301527f63650000000000000000000000000000000000000000000000000000000000006020830152604082019050919050565b6000611be36026836123b8565b91507f4f776e61626c653a206e6577206f776e657220697320746865207a65726f206160008301527f64647265737300000000000000000000000000000000000000000000000000006020830152604082019050919050565b6000611c496022836123b8565b91507f45524332303a20617070726f766520746f20746865207a65726f20616464726560008301527f73730000000000000000000000000000000000000000000000000000000000006020830152604082019050919050565b6000611caf6018836123b8565b91507f5065726d69743a206578706972656420646561646c696e6500000000000000006000830152602082019050919050565b6000611cef6026836123b8565b91507f45524332303a207472616e7366657220616d6f756e742065786365656473206260008301527f616c616e636500000000000000000000000000000000000000000000000000006020830152604082019050919050565b6000611d556021836123b8565b91507f5a65726f537761705065726d69743a20496e76616c6964207369676e6174757260008301527f65000000000000000000000000000000000000000000000000000000000000006020830152604082019050919050565b6000611dbb6023836123b8565b91507f5661756c744f776e65643a2063616c6c6572206973206e6f742074686520566160008301527f756c7400000000000000000000000000000000000000000000000000000000006020830152604082019050919050565b6000611e216020836123b8565b91507f4f776e61626c653a2063616c6c6572206973206e6f7420746865206f776e65726000830152602082019050919050565b6000611e616021836123b8565b91507f45524332303a206275726e2066726f6d20746865207a65726f2061646472657360008301527f73000000000000000000000000000000000000000000000000000000000000006020830152604082019050919050565b6000611ec76025836123b8565b91507f45524332303a207472616e736665722066726f6d20746865207a65726f20616460008301527f64726573730000000000000000000000000000000000000000000000000000006020830152604082019050919050565b6000611f2d6024836123b8565b91507f45524332303a20617070726f76652066726f6d20746865207a65726f2061646460008301527f72657373000000000000000000000000000000000000000000000000000000006020830152604082019050919050565b6000611f936025836123b8565b91507f45524332303a2064656372656173656420616c6c6f77616e63652062656c6f7760008301527f207a65726f0000000000000000000000000000000000000000000000000000006020830152604082019050919050565b6000611ff9601f836123b8565b91507f45524332303a206d696e7420746f20746865207a65726f2061646472657373006000830152602082019050919050565b61203d6120388261247b565b61252f565b82525050565b61204c816124a9565b82525050565b61205b816124b3565b82525050565b600061206d828661202c565b60028201915061207d8285611aba565b60208201915061208d8284611aba565b602082019150819050949350505050565b60006020820190506120b36000830184611a8d565b92915050565b60006020820190506120ce6000830184611a9c565b92915050565b60006020820190506120e96000830184611aab565b92915050565b600060c0820190506121046000830189611aab565b6121116020830188611a8d565b61211e6040830187611a8d565b61212b6060830186612043565b6121386080830185612043565b61214560a0830184612043565b979650505050505050565b60006080820190506121656000830187611aab565b6121726020830186612052565b61217f6040830185611aab565b61218c6060830184611aab565b95945050505050565b600060208201905081810360008301526121af8184611ad1565b905092915050565b600060208201905081810360008301526121d081611b0a565b9050919050565b600060208201905081810360008301526121f081611b70565b9050919050565b6000602082019050818103600083015261221081611bd6565b9050919050565b6000602082019050818103600083015261223081611c3c565b9050919050565b6000602082019050818103600083015261225081611ca2565b9050919050565b6000602082019050818103600083015261227081611ce2565b9050919050565b6000602082019050818103600083015261229081611d48565b9050919050565b600060208201905081810360008301526122b081611dae565b9050919050565b600060208201905081810360008301526122d081611e14565b9050919050565b600060208201905081810360008301526122f081611e54565b9050919050565b6000602082019050818103600083015261231081611eba565b9050919050565b6000602082019050818103600083015261233081611f20565b9050919050565b6000602082019050818103600083015261235081611f86565b9050919050565b6000602082019050818103600083015261237081611fec565b9050919050565b600060208201905061238c6000830184612043565b92915050565b60006020820190506123a76000830184612052565b92915050565b600081519050919050565b600082825260208201905092915050565b60006123d4826124a9565b91506123df836124a9565b9250827fffffffffffffffffffffffffffffffffffffffffffffffffffffffffffffffff0382111561241457612413612541565b5b828201905092915050565b600061242a826124a9565b9150612435836124a9565b92508282101561244857612447612541565b5b828203905092915050565b600061245e82612489565b9050919050565b60008115159050919050565b6000819050919050565b600061ffff82169050919050565b600073ffffffffffffffffffffffffffffffffffffffff82169050919050565b6000819050919050565b600060ff82169050919050565b60005b838110156124de5780820151818401526020810190506124c3565b838111156124ed576000848401525b50505050565b6000600282049050600182168061250b57607f821691505b6020821081141561251f5761251e612570565b5b50919050565b6000819050919050565b600061253a826125b0565b9050919050565b7f4e487b7100000000000000000000000000000000000000000000000000000000600052601160045260246000fd5b7f4e487b7100000000000000000000000000000000000000000000000000000000600052602260045260246000fd5b6000601f19601f8301169050919050565b60008160f01b9050919050565b6125c681612453565b81146125d157600080fd5b50565b6125dd81612471565b81146125e857600080fd5b50565b6125f4816124a9565b81146125ff57600080fd5b50565b61260b816124b3565b811461261657600080fd5b5056fea2646970667358221220a9c759eeb20daf9a07267280b8f1fc97c43460af186d34084def875e8f02f09f64736f6c63430008000033",
  "immutableReferences": {},
  "source": "// SPDX-License-Identifier: AGPL-3.0-or-later\npragma solidity 0.8.0;\n\nimport \"@openzeppelin/contracts/utils/math/SafeMath.sol\";\nimport \"./util/ERC20Permit.sol\";\nimport \"./util/VaultOwned.sol\";\n\n// TODO-hightlight :: main logic\n\ncontract sAtherton is ERC20Permit, VaultOwned {\n\n    using SafeMath for uint256;\n\n    constructor() ERC20(\"Staked Ather\", \"sATHER\") ERC20Permit() {\n        \n    }\n\n    function mint(address account_, uint256 amount_) public onlyVault() {\n        _mint(account_, amount_);\n    }\n\n    function burnFrom(address account_, uint256 amount_) public onlyVault() {\n        _burn(account_, amount_);\n    }\n\n    function transfer(address recipient_, uint amount_) public override onlyVault() returns (bool) {\n        _transfer(msg.sender, recipient_, amount_);\n        return true;\n    }\n\n    function transferFrom(address sender_, address recipient_, uint amount_) public override onlyVault() returns (bool) {\n        _transfer(sender_, recipient_, amount_);\n        return true;\n    }\n\n}",
  "sourcePath": "/var/www/atherton/solidity/contracts/sAthertonERC20.sol",
  "compiler": {
    "name": "solc",
    "version": "0.8.0+commit.c7dfd78e.Emscripten.clang"
  },
  "schemaVersion": "3.4.3",
  "updatedAt": "2021-12-07T05:40:45.868Z",
  "devdoc": {
    "kind": "dev",
    "methods": {
      "allowance(address,address)": {
        "details": "See {IERC20-allowance}."
      },
      "approve(address,uint256)": {
        "details": "See {IERC20-approve}. Requirements: - `spender` cannot be the zero address."
      },
      "balanceOf(address)": {
        "details": "See {IERC20-balanceOf}."
      },
      "decimals()": {
        "details": "Returns the number of decimals used to get its user representation. For example, if `decimals` equals `2`, a balance of `505` tokens should be displayed to a user as `5.05` (`505 / 10 ** 2`). Tokens usually opt for a value of 18, imitating the relationship between Ether and Wei. This is the value {ERC20} uses, unless this function is overridden; NOTE: This information is only used for _display_ purposes: it in no way affects any of the arithmetic of the contract, including {IERC20-balanceOf} and {IERC20-transfer}."
      },
      "decreaseAllowance(address,uint256)": {
        "details": "Atomically decreases the allowance granted to `spender` by the caller. This is an alternative to {approve} that can be used as a mitigation for problems described in {IERC20-approve}. Emits an {Approval} event indicating the updated allowance. Requirements: - `spender` cannot be the zero address. - `spender` must have allowance for the caller of at least `subtractedValue`."
      },
      "increaseAllowance(address,uint256)": {
        "details": "Atomically increases the allowance granted to `spender` by the caller. This is an alternative to {approve} that can be used as a mitigation for problems described in {IERC20-approve}. Emits an {Approval} event indicating the updated allowance. Requirements: - `spender` cannot be the zero address."
      },
      "name()": {
        "details": "Returns the name of the token."
      },
      "owner()": {
        "details": "Returns the address of the current owner."
      },
      "renounceOwnership()": {
        "details": "Leaves the contract without owner. It will not be possible to call `onlyOwner` functions anymore. Can only be called by the current owner. NOTE: Renouncing ownership will leave the contract without an owner, thereby removing any functionality that is only available to the owner."
      },
      "symbol()": {
        "details": "Returns the symbol of the token, usually a shorter version of the name."
      },
      "totalSupply()": {
        "details": "See {IERC20-totalSupply}."
      },
      "transferOwnership(address)": {
        "details": "Transfers ownership of the contract to a new account (`newOwner`). Can only be called by the current owner."
      }
    },
    "version": 1
  },
  "userdoc": {
    "kind": "user",
    "methods": {},
    "version": 1
  }
}