{
  "contractName": "StakingHelper",
  "abi": [
    {
      "inputs": [
        {
          "internalType": "address",
          "name": "_staking",
          "type": "address"
        },
        {
          "internalType": "address",
          "name": "_ATHER",
          "type": "address"
        }
      ],
      "stateMutability": "nonpayable",
      "type": "constructor"
    },
    {
      "inputs": [],
      "name": "ATHER",
      "outputs": [
        {
          "internalType": "address",
          "name": "",
          "type": "address"
        }
      ],
      "stateMutability": "view",
      "type": "function"
    },
    {
      "inputs": [],
      "name": "staking",
      "outputs": [
        {
          "internalType": "address",
          "name": "",
          "type": "address"
        }
      ],
      "stateMutability": "view",
      "type": "function"
    },
    {
      "inputs": [
        {
          "internalType": "uint256",
          "name": "_amount",
          "type": "uint256"
        }
      ],
      "name": "stake",
      "outputs": [],
      "stateMutability": "nonpayable",
      "type": "function"
    }
  ],
  "bytecode": "0x60c060405234801561001057600080fd5b5060405161078a38038061078a83398181016040528101906100329190610130565b600073ffffffffffffffffffffffffffffffffffffffff168273ffffffffffffffffffffffffffffffffffffffff16141561006c57600080fd5b8173ffffffffffffffffffffffffffffffffffffffff1660808173ffffffffffffffffffffffffffffffffffffffff1660601b81525050600073ffffffffffffffffffffffffffffffffffffffff168173ffffffffffffffffffffffffffffffffffffffff1614156100dd57600080fd5b8073ffffffffffffffffffffffffffffffffffffffff1660a08173ffffffffffffffffffffffffffffffffffffffff1660601b8152505050506101b5565b60008151905061012a8161019e565b92915050565b6000806040838503121561014357600080fd5b60006101518582860161011b565b92505060206101628582860161011b565b9150509250929050565b60006101778261017e565b9050919050565b600073ffffffffffffffffffffffffffffffffffffffff82169050919050565b6101a78161016c565b81146101b257600080fd5b50565b60805160601c60a05160601c61058a6102006000396000818160c40152818160e8015261019801526000818160a0015281816101d4015281816102660152610314015261058a6000f3fe608060405234801561001057600080fd5b50600436106100415760003560e01c80634cf088d9146100465780634e3d885314610064578063a694fc3a14610082575b600080fd5b61004e61009e565b60405161005b919061043a565b60405180910390f35b61006c6100c2565b604051610079919061043a565b60405180910390f35b61009c600480360381019061009791906103f3565b6100e6565b005b7f000000000000000000000000000000000000000000000000000000000000000081565b7f000000000000000000000000000000000000000000000000000000000000000081565b7f000000000000000000000000000000000000000000000000000000000000000073ffffffffffffffffffffffffffffffffffffffff166323b872dd3330846040518463ffffffff1660e01b815260040161014393929190610455565b602060405180830381600087803b15801561015d57600080fd5b505af1158015610171573d6000803e3d6000fd5b505050506040513d601f19601f8201168201806040525081019061019591906103ca565b507f000000000000000000000000000000000000000000000000000000000000000073ffffffffffffffffffffffffffffffffffffffff1663095ea7b37f0000000000000000000000000000000000000000000000000000000000000000836040518363ffffffff1660e01b815260040161021192919061048c565b602060405180830381600087803b15801561022b57600080fd5b505af115801561023f573d6000803e3d6000fd5b505050506040513d601f19601f8201168201806040525081019061026391906103ca565b507f000000000000000000000000000000000000000000000000000000000000000073ffffffffffffffffffffffffffffffffffffffff16637acb775782336040518363ffffffff1660e01b81526004016102bf9291906104b5565b602060405180830381600087803b1580156102d957600080fd5b505af11580156102ed573d6000803e3d6000fd5b505050506040513d601f19601f8201168201806040525081019061031191906103ca565b507f000000000000000000000000000000000000000000000000000000000000000073ffffffffffffffffffffffffffffffffffffffff16631e83409a336040518263ffffffff1660e01b815260040161036b919061043a565b600060405180830381600087803b15801561038557600080fd5b505af1158015610399573d6000803e3d6000fd5b5050505050565b6000815190506103af81610526565b92915050565b6000813590506103c48161053d565b92915050565b6000602082840312156103dc57600080fd5b60006103ea848285016103a0565b91505092915050565b60006020828403121561040557600080fd5b6000610413848285016103b5565b91505092915050565b610425816104de565b82525050565b6104348161051c565b82525050565b600060208201905061044f600083018461041c565b92915050565b600060608201905061046a600083018661041c565b610477602083018561041c565b610484604083018461042b565b949350505050565b60006040820190506104a1600083018561041c565b6104ae602083018461042b565b9392505050565b60006040820190506104ca600083018561042b565b6104d7602083018461041c565b9392505050565b60006104e9826104fc565b9050919050565b60008115159050919050565b600073ffffffffffffffffffffffffffffffffffffffff82169050919050565b6000819050919050565b61052f816104f0565b811461053a57600080fd5b50565b6105468161051c565b811461055157600080fd5b5056fea264697066735822122041e47e01511972e685bd70b456222e1bef1f0e7d8a54aeae7b4f12dbe6b2895964736f6c63430008000033",
  "immutableReferences": {
    "4721": [
      {
        "length": 32,
        "start": 160
      },
      {
        "length": 32,
        "start": 468
      },
      {
        "length": 32,
        "start": 614
      },
      {
        "length": 32,
        "start": 788
      }
    ],
    "4723": [
      {
        "length": 32,
        "start": 196
      },
      {
        "length": 32,
        "start": 232
      },
      {
        "length": 32,
        "start": 408
      }
    ]
  },
  "source": "// SPDX-License-Identifier: AGPL-3.0-or-later\npragma solidity 0.8.0;\n\nimport \"@openzeppelin/contracts/token/ERC20/ERC20.sol\";\nimport \"./AthertonModels.sol\";\n\n// TODO-hightlight :: main logic\n\ncontract StakingHelper {\n\n    address public immutable staking;\n    address public immutable ATHER;\n\n    constructor ( address _staking, address _ATHER ) {\n        require( _staking != address(0) );\n        staking = _staking;\n        require( _ATHER != address(0) );\n        ATHER = _ATHER;\n    }\n\n    function stake( uint _amount ) external {\n        IERC20( ATHER ).transferFrom( msg.sender, address(this), _amount );\n        IERC20( ATHER ).approve( staking, _amount );\n        IStaking( staking ).stake( _amount, msg.sender );\n        IStaking( staking ).claim( msg.sender );\n    }\n}",
  "sourcePath": "/var/www/atherton/evm/contracts/StakingHelper.sol",
  "compiler": {
    "name": "solc",
    "version": "0.8.0+commit.c7dfd78e.Emscripten.clang"
  },
  "schemaVersion": "3.4.3",
  "updatedAt": "2021-12-04T00:51:05.954Z",
  "devdoc": {
    "kind": "dev",
    "methods": {},
    "version": 1
  },
  "userdoc": {
    "kind": "user",
    "methods": {},
    "version": 1
  }
}