{
  "contractName": "StakingWarmup",
  "abi": [
    {
      "inputs": [
        {
          "internalType": "address",
          "name": "_staking",
          "type": "address"
        },
        {
          "internalType": "address",
          "name": "_sATHER",
          "type": "address"
        }
      ],
      "stateMutability": "nonpayable",
      "type": "constructor"
    },
    {
      "inputs": [],
      "name": "sATHER",
      "outputs": [
        {
          "internalType": "address",
          "name": "",
          "type": "address"
        }
      ],
      "stateMutability": "view",
      "type": "function"
    },
    {
      "inputs": [],
      "name": "staking",
      "outputs": [
        {
          "internalType": "address",
          "name": "",
          "type": "address"
        }
      ],
      "stateMutability": "view",
      "type": "function"
    },
    {
      "inputs": [
        {
          "internalType": "address",
          "name": "_staker",
          "type": "address"
        },
        {
          "internalType": "uint256",
          "name": "_amount",
          "type": "uint256"
        }
      ],
      "name": "retrieve",
      "outputs": [],
      "stateMutability": "nonpayable",
      "type": "function"
    }
  ],
  "bytecode": "0x60c060405234801561001057600080fd5b506040516105a43803806105a483398181016040528101906100329190610130565b600073ffffffffffffffffffffffffffffffffffffffff168273ffffffffffffffffffffffffffffffffffffffff16141561006c57600080fd5b8173ffffffffffffffffffffffffffffffffffffffff1660808173ffffffffffffffffffffffffffffffffffffffff1660601b81525050600073ffffffffffffffffffffffffffffffffffffffff168173ffffffffffffffffffffffffffffffffffffffff1614156100dd57600080fd5b8073ffffffffffffffffffffffffffffffffffffffff1660a08173ffffffffffffffffffffffffffffffffffffffff1660601b8152505050506101b5565b60008151905061012a8161019e565b92915050565b6000806040838503121561014357600080fd5b60006101518582860161011b565b92505060206101628582860161011b565b9150509250929050565b60006101778261017e565b9050919050565b600073ffffffffffffffffffffffffffffffffffffffff82169050919050565b6101a78161016c565b81146101b257600080fd5b50565b60805160601c60a05160601c6103b96101eb6000396000818160c4015261014001526000818160a0015260e801526103b96000f3fe608060405234801561001057600080fd5b50600436106100415760003560e01c80634cf088d914610046578063c188a20014610064578063c3a2a66514610082575b600080fd5b61004e61009e565b60405161005b91906102b2565b60405180910390f35b61006c6100c2565b60405161007991906102b2565b60405180910390f35b61009c6004803603810190610097919061022f565b6100e6565b005b7f000000000000000000000000000000000000000000000000000000000000000081565b7f000000000000000000000000000000000000000000000000000000000000000081565b7f000000000000000000000000000000000000000000000000000000000000000073ffffffffffffffffffffffffffffffffffffffff163373ffffffffffffffffffffffffffffffffffffffff161461013e57600080fd5b7f000000000000000000000000000000000000000000000000000000000000000073ffffffffffffffffffffffffffffffffffffffff1663a9059cbb83836040518363ffffffff1660e01b81526004016101999291906102cd565b602060405180830381600087803b1580156101b357600080fd5b505af11580156101c7573d6000803e3d6000fd5b505050506040513d601f19601f820116820180604052508101906101eb919061026b565b505050565b6000813590506101ff8161033e565b92915050565b60008151905061021481610355565b92915050565b6000813590506102298161036c565b92915050565b6000806040838503121561024257600080fd5b6000610250858286016101f0565b92505060206102618582860161021a565b9150509250929050565b60006020828403121561027d57600080fd5b600061028b84828501610205565b91505092915050565b61029d816102f6565b82525050565b6102ac81610334565b82525050565b60006020820190506102c76000830184610294565b92915050565b60006040820190506102e26000830185610294565b6102ef60208301846102a3565b9392505050565b600061030182610314565b9050919050565b60008115159050919050565b600073ffffffffffffffffffffffffffffffffffffffff82169050919050565b6000819050919050565b610347816102f6565b811461035257600080fd5b50565b61035e81610308565b811461036957600080fd5b50565b61037581610334565b811461038057600080fd5b5056fea2646970667358221220528a2508012d3d8f1396d0e64043261ad4ae91df5603520b46c1fb6704e546bb64736f6c63430008000033",
  "immutableReferences": {
    "4807": [
      {
        "length": 32,
        "start": 160
      },
      {
        "length": 32,
        "start": 232
      }
    ],
    "4809": [
      {
        "length": 32,
        "start": 196
      },
      {
        "length": 32,
        "start": 320
      }
    ]
  },
  "source": "// SPDX-License-Identifier: AGPL-3.0-or-later\npragma solidity 0.8.0;\n\nimport \"@openzeppelin/contracts/token/ERC20/ERC20.sol\";\n\n// TODO-hightlight :: main logic\n\ncontract StakingWarmup {\n\n    address public immutable staking;\n    address public immutable sATHER;\n\n    constructor ( address _staking, address _sATHER ) {\n        require( _staking != address(0) );\n        staking = _staking;\n        require( _sATHER != address(0) );\n        sATHER = _sATHER;\n    }\n\n    function retrieve( address _staker, uint _amount ) external {\n        require( msg.sender == staking );\n        IERC20( sATHER ).transfer( _staker, _amount );\n    }\n}",
  "sourcePath": "/var/www/atherton/evm/contracts/StakingWarmup.sol",
  "compiler": {
    "name": "solc",
    "version": "0.8.0+commit.c7dfd78e.Emscripten.clang"
  },
  "schemaVersion": "3.4.3",
  "updatedAt": "2021-12-04T00:51:05.970Z",
  "devdoc": {
    "kind": "dev",
    "methods": {},
    "version": 1
  },
  "userdoc": {
    "kind": "user",
    "methods": {},
    "version": 1
  }
}