{
  "contractName": "StakingDistributor",
  "abi": [
    {
      "inputs": [
        {
          "internalType": "address",
          "name": "_treasury",
          "type": "address"
        },
        {
          "internalType": "address",
          "name": "_ather",
          "type": "address"
        },
        {
          "internalType": "uint256",
          "name": "_epochLength",
          "type": "uint256"
        },
        {
          "internalType": "uint256",
          "name": "_nextEpochBlock",
          "type": "uint256"
        }
      ],
      "stateMutability": "nonpayable",
      "type": "constructor"
    },
    {
      "anonymous": false,
      "inputs": [
        {
          "indexed": true,
          "internalType": "address",
          "name": "previousOwner",
          "type": "address"
        },
        {
          "indexed": true,
          "internalType": "address",
          "name": "newOwner",
          "type": "address"
        }
      ],
      "name": "OwnershipTransferred",
      "type": "event"
    },
    {
      "inputs": [],
      "name": "ATHER",
      "outputs": [
        {
          "internalType": "address",
          "name": "",
          "type": "address"
        }
      ],
      "stateMutability": "view",
      "type": "function"
    },
    {
      "inputs": [
        {
          "internalType": "uint256",
          "name": "",
          "type": "uint256"
        }
      ],
      "name": "adjustments",
      "outputs": [
        {
          "internalType": "bool",
          "name": "add",
          "type": "bool"
        },
        {
          "internalType": "uint256",
          "name": "rate",
          "type": "uint256"
        },
        {
          "internalType": "uint256",
          "name": "target",
          "type": "uint256"
        }
      ],
      "stateMutability": "view",
      "type": "function"
    },
    {
      "inputs": [],
      "name": "epochLength",
      "outputs": [
        {
          "internalType": "uint256",
          "name": "",
          "type": "uint256"
        }
      ],
      "stateMutability": "view",
      "type": "function"
    },
    {
      "inputs": [
        {
          "internalType": "uint256",
          "name": "",
          "type": "uint256"
        }
      ],
      "name": "info",
      "outputs": [
        {
          "internalType": "uint256",
          "name": "rate",
          "type": "uint256"
        },
        {
          "internalType": "address",
          "name": "recipient",
          "type": "address"
        }
      ],
      "stateMutability": "view",
      "type": "function"
    },
    {
      "inputs": [],
      "name": "nextEpochBlock",
      "outputs": [
        {
          "internalType": "uint256",
          "name": "",
          "type": "uint256"
        }
      ],
      "stateMutability": "view",
      "type": "function"
    },
    {
      "inputs": [],
      "name": "owner",
      "outputs": [
        {
          "internalType": "address",
          "name": "",
          "type": "address"
        }
      ],
      "stateMutability": "view",
      "type": "function"
    },
    {
      "inputs": [],
      "name": "renounceOwnership",
      "outputs": [],
      "stateMutability": "nonpayable",
      "type": "function"
    },
    {
      "inputs": [
        {
          "internalType": "address",
          "name": "newOwner",
          "type": "address"
        }
      ],
      "name": "transferOwnership",
      "outputs": [],
      "stateMutability": "nonpayable",
      "type": "function"
    },
    {
      "inputs": [],
      "name": "treasury",
      "outputs": [
        {
          "internalType": "address",
          "name": "",
          "type": "address"
        }
      ],
      "stateMutability": "view",
      "type": "function"
    },
    {
      "inputs": [],
      "name": "distribute",
      "outputs": [
        {
          "internalType": "bool",
          "name": "",
          "type": "bool"
        }
      ],
      "stateMutability": "nonpayable",
      "type": "function"
    },
    {
      "inputs": [
        {
          "internalType": "uint256",
          "name": "_rate",
          "type": "uint256"
        }
      ],
      "name": "nextRewardAt",
      "outputs": [
        {
          "internalType": "uint256",
          "name": "",
          "type": "uint256"
        }
      ],
      "stateMutability": "view",
      "type": "function"
    },
    {
      "inputs": [
        {
          "internalType": "address",
          "name": "_recipient",
          "type": "address"
        }
      ],
      "name": "nextRewardFor",
      "outputs": [
        {
          "internalType": "uint256",
          "name": "",
          "type": "uint256"
        }
      ],
      "stateMutability": "view",
      "type": "function"
    },
    {
      "inputs": [
        {
          "internalType": "address",
          "name": "_recipient",
          "type": "address"
        },
        {
          "internalType": "uint256",
          "name": "_rewardRate",
          "type": "uint256"
        }
      ],
      "name": "addRecipient",
      "outputs": [],
      "stateMutability": "nonpayable",
      "type": "function"
    },
    {
      "inputs": [
        {
          "internalType": "uint256",
          "name": "_index",
          "type": "uint256"
        },
        {
          "internalType": "address",
          "name": "_recipient",
          "type": "address"
        }
      ],
      "name": "removeRecipient",
      "outputs": [],
      "stateMutability": "nonpayable",
      "type": "function"
    },
    {
      "inputs": [
        {
          "internalType": "uint256",
          "name": "_index",
          "type": "uint256"
        },
        {
          "internalType": "bool",
          "name": "_add",
          "type": "bool"
        },
        {
          "internalType": "uint256",
          "name": "_rate",
          "type": "uint256"
        },
        {
          "internalType": "uint256",
          "name": "_target",
          "type": "uint256"
        }
      ],
      "name": "setAdjustment",
      "outputs": [],
      "stateMutability": "nonpayable",
      "type": "function"
    }
  ],
  "bytecode": "0x60e06040523480156200001157600080fd5b5060405162001b6f38038062001b6f83398181016040528101906200003791906200024e565b620000576200004b6200015460201b60201c565b6200015c60201b60201c565b600073ffffffffffffffffffffffffffffffffffffffff168473ffffffffffffffffffffffffffffffffffffffff1614156200009257600080fd5b8373ffffffffffffffffffffffffffffffffffffffff1660a08173ffffffffffffffffffffffffffffffffffffffff1660601b81525050600073ffffffffffffffffffffffffffffffffffffffff168373ffffffffffffffffffffffffffffffffffffffff1614156200010457600080fd5b8273ffffffffffffffffffffffffffffffffffffffff1660808173ffffffffffffffffffffffffffffffffffffffff1660601b815250508160c0818152505080600181905550505050506200032c565b600033905090565b60008060009054906101000a900473ffffffffffffffffffffffffffffffffffffffff169050816000806101000a81548173ffffffffffffffffffffffffffffffffffffffff021916908373ffffffffffffffffffffffffffffffffffffffff1602179055508173ffffffffffffffffffffffffffffffffffffffff168173ffffffffffffffffffffffffffffffffffffffff167f8be0079c531659141344cd1fd0a4f28419497f9722a3daafe3b4186f6b6457e060405160405180910390a35050565b6000815190506200023181620002f8565b92915050565b600081519050620002488162000312565b92915050565b600080600080608085870312156200026557600080fd5b6000620002758782880162000220565b9450506020620002888782880162000220565b93505060406200029b8782880162000237565b9250506060620002ae8782880162000237565b91505092959194509250565b6000620002c782620002ce565b9050919050565b600073ffffffffffffffffffffffffffffffffffffffff82169050919050565b6000819050919050565b6200030381620002ba565b81146200030f57600080fd5b50565b6200031d81620002ee565b81146200032957600080fd5b50565b60805160601c60a05160601c60c0516117f86200037760003960008181610490015261078501526000818161059d015261082101526000818161046c01526106b601526117f86000f3fe608060405234801561001057600080fd5b50600436106100f45760003560e01c8063715018a611610097578063e4fc6b6d11610066578063e4fc6b6d14610278578063f2fde38b14610296578063f7982243146102b2578063fe3fbbad146102ce576100f4565b8063715018a6146101ee5780638da5cb5b146101f8578063bc3b2b1214610216578063c9fa8b2a14610248576100f4565b80634e3d8853116100d35780634e3d88531461017857806357d775f8146101965780635db854b0146101b457806361d027b3146101d0576100f4565b8062640c2e146100f95780632e3405991461011757806336d33f4414610148575b600080fd5b6101016102ea565b60405161010e9190611524565b60405180910390f35b610131600480360381019061012c919061128a565b6102f0565b60405161013f92919061153f565b60405180910390f35b610162600480360381019061015d9190611225565b610344565b60405161016f9190611524565b60405180910390f35b61018061046a565b60405161018d919061144e565b60405180910390f35b61019e61048e565b6040516101ab9190611524565b60405180910390f35b6101ce60048036038101906101c99190611318565b6104b2565b005b6101d861059b565b6040516101e5919061144e565b60405180910390f35b6101f66105bf565b005b610200610647565b60405161020d919061144e565b60405180910390f35b610230600480360381019061022b919061128a565b610670565b60405161023f939291906114ad565b60405180910390f35b610262600480360381019061025d919061128a565b6106a7565b60405161026f9190611524565b60405180910390f35b610280610775565b60405161028d9190611492565b60405180910390f35b6102b060048036038101906102ab9190611225565b610999565b005b6102cc60048036038101906102c7919061124e565b610a91565b005b6102e860048036038101906102e391906112dc565b610bf4565b005b60015481565b6003818154811061030057600080fd5b90600052602060002090600202016000915090508060000154908060010160009054906101000a900473ffffffffffffffffffffffffffffffffffffffff16905082565b60008060005b600380549050811015610460578373ffffffffffffffffffffffffffffffffffffffff16600382815481106103a8577f4e487b7100000000000000000000000000000000000000000000000000000000600052603260045260246000fd5b906000526020600020906002020160010160009054906101000a900473ffffffffffffffffffffffffffffffffffffffff1673ffffffffffffffffffffffffffffffffffffffff16141561044d5761044a60038281548110610433577f4e487b7100000000000000000000000000000000000000000000000000000000600052603260045260246000fd5b9060005260206000209060020201600001546106a7565b91505b8080610458906116d6565b91505061034a565b5080915050919050565b7f000000000000000000000000000000000000000000000000000000000000000081565b7f000000000000000000000000000000000000000000000000000000000000000081565b6104ba610df3565b73ffffffffffffffffffffffffffffffffffffffff166104d8610647565b73ffffffffffffffffffffffffffffffffffffffff161461052e576040517f08c379a000000000000000000000000000000000000000000000000000000000815260040161052590611504565b60405180910390fd5b60405180606001604052808415158152602001838152602001828152506002600086815260200190815260200160002060008201518160000160006101000a81548160ff021916908315150217905550602082015181600101556040820151816002015590505050505050565b7f000000000000000000000000000000000000000000000000000000000000000081565b6105c7610df3565b73ffffffffffffffffffffffffffffffffffffffff166105e5610647565b73ffffffffffffffffffffffffffffffffffffffff161461063b576040517f08c379a000000000000000000000000000000000000000000000000000000000815260040161063290611504565b60405180910390fd5b6106456000610dfb565b565b60008060009054906101000a900473ffffffffffffffffffffffffffffffffffffffff16905090565b60026020528060005260406000206000915090508060000160009054906101000a900460ff16908060010154908060020154905083565b600061076e620f4240610760847f000000000000000000000000000000000000000000000000000000000000000073ffffffffffffffffffffffffffffffffffffffff166318160ddd6040518163ffffffff1660e01b815260040160206040518083038186803b15801561071a57600080fd5b505afa15801561072e573d6000803e3d6000fd5b505050506040513d601f19601f8201168201806040525081019061075291906112b3565b610ebf90919063ffffffff16565b610ed590919063ffffffff16565b9050919050565b60004360015411610991576107b57f0000000000000000000000000000000000000000000000000000000000000000600154610eeb90919063ffffffff16565b60018190555060005b60038054905081101561098757600060038281548110610807577f4e487b7100000000000000000000000000000000000000000000000000000000600052603260045260246000fd5b9060005260206000209060020201600001541115610974577f000000000000000000000000000000000000000000000000000000000000000073ffffffffffffffffffffffffffffffffffffffff16636a20de9260038381548110610895577f4e487b7100000000000000000000000000000000000000000000000000000000600052603260045260246000fd5b906000526020600020906002020160010160009054906101000a900473ffffffffffffffffffffffffffffffffffffffff1661091b60038581548110610904577f4e487b7100000000000000000000000000000000000000000000000000000000600052603260045260246000fd5b9060005260206000209060020201600001546106a7565b6040518363ffffffff1660e01b8152600401610938929190611469565b600060405180830381600087803b15801561095257600080fd5b505af1158015610966573d6000803e3d6000fd5b5050505061097381610f01565b5b808061097f906116d6565b9150506107be565b5060019050610996565b600090505b90565b6109a1610df3565b73ffffffffffffffffffffffffffffffffffffffff166109bf610647565b73ffffffffffffffffffffffffffffffffffffffff1614610a15576040517f08c379a0000000000000000000000000000000000000000000000000000000008152600401610a0c90611504565b60405180910390fd5b600073ffffffffffffffffffffffffffffffffffffffff168173ffffffffffffffffffffffffffffffffffffffff161415610a85576040517f08c379a0000000000000000000000000000000000000000000000000000000008152600401610a7c906114e4565b60405180910390fd5b610a8e81610dfb565b50565b610a99610df3565b73ffffffffffffffffffffffffffffffffffffffff16610ab7610647565b73ffffffffffffffffffffffffffffffffffffffff1614610b0d576040517f08c379a0000000000000000000000000000000000000000000000000000000008152600401610b0490611504565b60405180910390fd5b600073ffffffffffffffffffffffffffffffffffffffff168273ffffffffffffffffffffffffffffffffffffffff161415610b4757600080fd5b600360405180604001604052808381526020018473ffffffffffffffffffffffffffffffffffffffff1681525090806001815401808255809150506001900390600052602060002090600202016000909190919091506000820151816000015560208201518160010160006101000a81548173ffffffffffffffffffffffffffffffffffffffff021916908373ffffffffffffffffffffffffffffffffffffffff16021790555050505050565b610bfc610df3565b73ffffffffffffffffffffffffffffffffffffffff16610c1a610647565b73ffffffffffffffffffffffffffffffffffffffff1614610c70576040517f08c379a0000000000000000000000000000000000000000000000000000000008152600401610c6790611504565b60405180910390fd5b60038281548110610caa577f4e487b7100000000000000000000000000000000000000000000000000000000600052603260045260246000fd5b906000526020600020906002020160010160009054906101000a900473ffffffffffffffffffffffffffffffffffffffff1673ffffffffffffffffffffffffffffffffffffffff168173ffffffffffffffffffffffffffffffffffffffff1614610d1357600080fd5b600060038381548110610d4f577f4e487b7100000000000000000000000000000000000000000000000000000000600052603260045260246000fd5b906000526020600020906002020160010160006101000a81548173ffffffffffffffffffffffffffffffffffffffff021916908373ffffffffffffffffffffffffffffffffffffffff160217905550600060038381548110610dda577f4e487b7100000000000000000000000000000000000000000000000000000000600052603260045260246000fd5b9060005260206000209060020201600001819055505050565b600033905090565b60008060009054906101000a900473ffffffffffffffffffffffffffffffffffffffff169050816000806101000a81548173ffffffffffffffffffffffffffffffffffffffff021916908373ffffffffffffffffffffffffffffffffffffffff1602179055508173ffffffffffffffffffffffffffffffffffffffff168173ffffffffffffffffffffffffffffffffffffffff167f8be0079c531659141344cd1fd0a4f28419497f9722a3daafe3b4186f6b6457e060405160405180910390a35050565b60008183610ecd9190611600565b905092915050565b60008183610ee391906115cf565b905092915050565b60008183610ef99190611579565b905092915050565b6000600260008381526020019081526020016000206040518060600160405290816000820160009054906101000a900460ff1615151515815260200160018201548152602001600282015481525050905060008160200151146111b75780600001511561109157610fca816020015160038481548110610faa577f4e487b7100000000000000000000000000000000000000000000000000000000600052603260045260246000fd5b906000526020600020906002020160000154610eeb90919063ffffffff16565b60038381548110611004577f4e487b7100000000000000000000000000000000000000000000000000000000600052603260045260246000fd5b906000526020600020906002020160000181905550806040015160038381548110611058577f4e487b7100000000000000000000000000000000000000000000000000000000600052603260045260246000fd5b9060005260206000209060020201600001541061108c57600060026000848152602001908152602001600020600101819055505b6111b6565b6110f38160200151600384815481106110d3577f4e487b7100000000000000000000000000000000000000000000000000000000600052603260045260246000fd5b9060005260206000209060020201600001546111bb90919063ffffffff16565b6003838154811061112d577f4e487b7100000000000000000000000000000000000000000000000000000000600052603260045260246000fd5b906000526020600020906002020160000181905550806040015160038381548110611181577f4e487b7100000000000000000000000000000000000000000000000000000000600052603260045260246000fd5b906000526020600020906002020160000154116111b557600060026000848152602001908152602001600020600101819055505b5b5b5050565b600081836111c9919061165a565b905092915050565b6000813590506111e08161177d565b92915050565b6000813590506111f581611794565b92915050565b60008135905061120a816117ab565b92915050565b60008151905061121f816117ab565b92915050565b60006020828403121561123757600080fd5b6000611245848285016111d1565b91505092915050565b6000806040838503121561126157600080fd5b600061126f858286016111d1565b9250506020611280858286016111fb565b9150509250929050565b60006020828403121561129c57600080fd5b60006112aa848285016111fb565b91505092915050565b6000602082840312156112c557600080fd5b60006112d384828501611210565b91505092915050565b600080604083850312156112ef57600080fd5b60006112fd858286016111fb565b925050602061130e858286016111d1565b9150509250929050565b6000806000806080858703121561132e57600080fd5b600061133c878288016111fb565b945050602061134d878288016111e6565b935050604061135e878288016111fb565b925050606061136f878288016111fb565b91505092959194509250565b6113848161168e565b82525050565b611393816116a0565b82525050565b60006113a6602683611568565b91507f4f776e61626c653a206e6577206f776e657220697320746865207a65726f206160008301527f64647265737300000000000000000000000000000000000000000000000000006020830152604082019050919050565b600061140c602083611568565b91507f4f776e61626c653a2063616c6c6572206973206e6f7420746865206f776e65726000830152602082019050919050565b611448816116cc565b82525050565b6000602082019050611463600083018461137b565b92915050565b600060408201905061147e600083018561137b565b61148b602083018461143f565b9392505050565b60006020820190506114a7600083018461138a565b92915050565b60006060820190506114c2600083018661138a565b6114cf602083018561143f565b6114dc604083018461143f565b949350505050565b600060208201905081810360008301526114fd81611399565b9050919050565b6000602082019050818103600083015261151d816113ff565b9050919050565b6000602082019050611539600083018461143f565b92915050565b6000604082019050611554600083018561143f565b611561602083018461137b565b9392505050565b600082825260208201905092915050565b6000611584826116cc565b915061158f836116cc565b9250827fffffffffffffffffffffffffffffffffffffffffffffffffffffffffffffffff038211156115c4576115c361171f565b5b828201905092915050565b60006115da826116cc565b91506115e5836116cc565b9250826115f5576115f461174e565b5b828204905092915050565b600061160b826116cc565b9150611616836116cc565b9250817fffffffffffffffffffffffffffffffffffffffffffffffffffffffffffffffff048311821515161561164f5761164e61171f565b5b828202905092915050565b6000611665826116cc565b9150611670836116cc565b9250828210156116835761168261171f565b5b828203905092915050565b6000611699826116ac565b9050919050565b60008115159050919050565b600073ffffffffffffffffffffffffffffffffffffffff82169050919050565b6000819050919050565b60006116e1826116cc565b91507fffffffffffffffffffffffffffffffffffffffffffffffffffffffffffffffff8214156117145761171361171f565b5b600182019050919050565b7f4e487b7100000000000000000000000000000000000000000000000000000000600052601160045260246000fd5b7f4e487b7100000000000000000000000000000000000000000000000000000000600052601260045260246000fd5b6117868161168e565b811461179157600080fd5b50565b61179d816116a0565b81146117a857600080fd5b50565b6117b4816116cc565b81146117bf57600080fd5b5056fea26469706673582212201db58c69e780b068943c90525fdc9b6c6b4bd4cc9f750d9dda252fea9961afca64736f6c63430008000033",
  "immutableReferences": {
    "4334": [
      {
        "length": 32,
        "start": 1132
      },
      {
        "length": 32,
        "start": 1718
      }
    ],
    "4336": [
      {
        "length": 32,
        "start": 1437
      },
      {
        "length": 32,
        "start": 2081
      }
    ],
    "4338": [
      {
        "length": 32,
        "start": 1168
      },
      {
        "length": 32,
        "start": 1925
      }
    ]
  },
  "source": "// SPDX-License-Identifier: AGPL-3.0-or-later\n\npragma solidity 0.8.0;\n\nimport \"@openzeppelin/contracts/utils/math/SafeMath.sol\";\nimport \"@openzeppelin/contracts/access/Ownable.sol\";\nimport \"@openzeppelin/contracts/token/ERC20/utils/SafeERC20.sol\";\nimport \"./AthertonModels.sol\";\n\n// TODO-hightlight :: main logic\n\ncontract StakingDistributor is Ownable {\n    using SafeMath for uint;\n    using SafeERC20 for IERC20;\n    \n    \n    \n    /* ====== VARIABLES ====== */\n\n    address public immutable ATHER;\n    address public immutable treasury;\n    \n    uint public immutable epochLength;\n    uint public nextEpochBlock;\n    \n    mapping( uint => Adjust ) public adjustments;\n    \n    \n    /* ====== STRUCTS ====== */\n        \n    struct Info {\n        uint rate; // in ten-thousandths ( 5000 = 0.5% )\n        address recipient;\n    }\n    Info[] public info;\n    \n    struct Adjust {\n        bool add;\n        uint rate;\n        uint target;\n    }\n    \n    \n    \n    /* ====== CONSTRUCTOR ====== */\n\n    constructor( address _treasury, address _ather, uint _epochLength, uint _nextEpochBlock ) {        \n        require( _treasury != address(0) );\n        treasury = _treasury;\n        require( _ather != address(0) );\n        ATHER = _ather;\n        epochLength = _epochLength;\n        nextEpochBlock = _nextEpochBlock;\n    }\n    \n    \n    \n    /* ====== PUBLIC FUNCTIONS ====== */\n    \n    /**\n        @notice send epoch reward to staking contract\n     */\n    function distribute() external returns ( bool ) {\n        if ( nextEpochBlock <= block.number ) {\n            nextEpochBlock = nextEpochBlock.add( epochLength ); // set next epoch block\n            \n            // distribute rewards to each recipient\n            for ( uint i = 0; i < info.length; i++ ) {\n                if ( info[ i ].rate > 0 ) {\n                    ITreasury( treasury ).mintRewards( // mint and send from treasury\n                        info[ i ].recipient, \n                        nextRewardAt( info[ i ].rate ) \n                    );\n                    adjust( i ); // check for adjustment\n                }\n            }\n            return true;\n        } else { \n            return false; \n        }\n    }\n    \n    \n    \n    /* ====== INTERNAL FUNCTIONS ====== */\n\n    /**\n        @notice increment reward rate for collector\n     */\n    function adjust( uint _index ) internal {\n        Adjust memory adjustment = adjustments[ _index ];\n        if ( adjustment.rate != 0 ) {\n            if ( adjustment.add ) { // if rate should increase\n                info[ _index ].rate = info[ _index ].rate.add( adjustment.rate ); // raise rate\n                if ( info[ _index ].rate >= adjustment.target ) { // if target met\n                    adjustments[ _index ].rate = 0; // turn off adjustment\n                }\n            } else { // if rate should decrease\n                info[ _index ].rate = info[ _index ].rate.sub( adjustment.rate ); // lower rate\n                if ( info[ _index ].rate <= adjustment.target ) { // if target met\n                    adjustments[ _index ].rate = 0; // turn off adjustment\n                }\n            }\n        }\n    }\n    \n    \n    \n    /* ====== VIEW FUNCTIONS ====== */\n\n    /**\n        @notice view function for next reward at given rate\n        @param _rate uint\n        @return uint\n     */\n    function nextRewardAt( uint _rate ) public view returns ( uint ) {\n        return IERC20( ATHER ).totalSupply().mul( _rate ).div( 1000000 );\n    }\n\n    /**\n        @notice view function for next reward for specified address\n        @param _recipient address\n        @return uint\n     */\n    function nextRewardFor( address _recipient ) public view returns ( uint ) {\n        uint reward;\n        for ( uint i = 0; i < info.length; i++ ) {\n            if ( info[ i ].recipient == _recipient ) {\n                reward = nextRewardAt( info[ i ].rate );\n            }\n        }\n        return reward;\n    }\n    \n    \n    \n    /* ====== POLICY FUNCTIONS ====== */\n\n    /**\n        @notice adds recipient for distributions\n        @param _recipient address\n        @param _rewardRate uint\n     */\n    function addRecipient( address _recipient, uint _rewardRate ) external onlyOwner() {\n        require( _recipient != address(0) );\n        info.push( Info({\n            recipient: _recipient,\n            rate: _rewardRate\n        }));\n    }\n\n    /**\n        @notice removes recipient for distributions\n        @param _index uint\n        @param _recipient address\n     */\n    function removeRecipient( uint _index, address _recipient ) external onlyOwner() {\n        require( _recipient == info[ _index ].recipient );\n        info[ _index ].recipient = address(0);\n        info[ _index ].rate = 0;\n    }\n\n    /**\n        @notice set adjustment info for a collector's reward rate\n        @param _index uint\n        @param _add bool\n        @param _rate uint\n        @param _target uint\n     */\n    function setAdjustment( uint _index, bool _add, uint _rate, uint _target ) external onlyOwner() {\n        adjustments[ _index ] = Adjust({\n            add: _add,\n            rate: _rate,\n            target: _target\n        });\n    }\n}",
  "sourcePath": "/var/www/atherton/evm/contracts/StakingDistributor.sol",
  "compiler": {
    "name": "solc",
    "version": "0.8.0+commit.c7dfd78e.Emscripten.clang"
  },
  "schemaVersion": "3.4.3",
  "updatedAt": "2021-12-04T00:51:05.918Z",
  "devdoc": {
    "kind": "dev",
    "methods": {
      "addRecipient(address,uint256)": {
        "params": {
          "_recipient": "address",
          "_rewardRate": "uint"
        }
      },
      "nextRewardAt(uint256)": {
        "params": {
          "_rate": "uint"
        },
        "returns": {
          "_0": "uint"
        }
      },
      "nextRewardFor(address)": {
        "params": {
          "_recipient": "address"
        },
        "returns": {
          "_0": "uint"
        }
      },
      "owner()": {
        "details": "Returns the address of the current owner."
      },
      "removeRecipient(uint256,address)": {
        "params": {
          "_index": "uint",
          "_recipient": "address"
        }
      },
      "renounceOwnership()": {
        "details": "Leaves the contract without owner. It will not be possible to call `onlyOwner` functions anymore. Can only be called by the current owner. NOTE: Renouncing ownership will leave the contract without an owner, thereby removing any functionality that is only available to the owner."
      },
      "setAdjustment(uint256,bool,uint256,uint256)": {
        "params": {
          "_add": "bool",
          "_index": "uint",
          "_rate": "uint",
          "_target": "uint"
        }
      },
      "transferOwnership(address)": {
        "details": "Transfers ownership of the contract to a new account (`newOwner`). Can only be called by the current owner."
      }
    },
    "version": 1
  },
  "userdoc": {
    "kind": "user",
    "methods": {
      "addRecipient(address,uint256)": {
        "notice": "adds recipient for distributions"
      },
      "distribute()": {
        "notice": "send epoch reward to staking contract"
      },
      "nextRewardAt(uint256)": {
        "notice": "view function for next reward at given rate"
      },
      "nextRewardFor(address)": {
        "notice": "view function for next reward for specified address"
      },
      "removeRecipient(uint256,address)": {
        "notice": "removes recipient for distributions"
      },
      "setAdjustment(uint256,bool,uint256,uint256)": {
        "notice": "set adjustment info for a collector's reward rate"
      }
    },
    "version": 1
  }
}