{
  "contractName": "TokenEvalutorUniswapV2",
  "abi": [
    {
      "inputs": [
        {
          "internalType": "address",
          "name": "_token",
          "type": "address"
        },
        {
          "internalType": "address",
          "name": "_groundingLpPair",
          "type": "address"
        },
        {
          "internalType": "uint256",
          "name": "_amount",
          "type": "uint256"
        }
      ],
      "name": "valuationFloating",
      "outputs": [
        {
          "internalType": "uint256",
          "name": "",
          "type": "uint256"
        }
      ],
      "stateMutability": "view",
      "type": "function"
    },
    {
      "inputs": [
        {
          "internalType": "address",
          "name": "_token",
          "type": "address"
        },
        {
          "internalType": "uint256",
          "name": "_amount",
          "type": "uint256"
        }
      ],
      "name": "valuationLpToken",
      "outputs": [
        {
          "internalType": "uint256",
          "name": "",
          "type": "uint256"
        }
      ],
      "stateMutability": "view",
      "type": "function"
    },
    {
      "inputs": [
        {
          "internalType": "address",
          "name": "_token",
          "type": "address"
        },
        {
          "internalType": "address",
          "name": "_groundingLpPair",
          "type": "address"
        },
        {
          "internalType": "uint256",
          "name": "_amount",
          "type": "uint256"
        }
      ],
      "name": "valuationComplexLpToken",
      "outputs": [
        {
          "internalType": "uint256",
          "name": "",
          "type": "uint256"
        }
      ],
      "stateMutability": "view",
      "type": "function"
    },
    {
      "inputs": [
        {
          "internalType": "address",
          "name": "_pair",
          "type": "address"
        }
      ],
      "name": "getKValue",
      "outputs": [
        {
          "internalType": "uint256",
          "name": "k_",
          "type": "uint256"
        }
      ],
      "stateMutability": "view",
      "type": "function"
    },
    {
      "inputs": [
        {
          "internalType": "address",
          "name": "_pair",
          "type": "address"
        }
      ],
      "name": "getTotalValue",
      "outputs": [
        {
          "internalType": "uint256",
          "name": "_value",
          "type": "uint256"
        }
      ],
      "stateMutability": "view",
      "type": "function"
    },
    {
      "inputs": [
        {
          "internalType": "uint256",
          "name": "a",
          "type": "uint256"
        }
      ],
      "name": "sqrrt",
      "outputs": [
        {
          "internalType": "uint256",
          "name": "c",
          "type": "uint256"
        }
      ],
      "stateMutability": "pure",
      "type": "function"
    }
  ],
  "bytecode": "0x608060405234801561001057600080fd5b50611681806100206000396000f3fe608060405234801561001057600080fd5b50600436106100625760003560e01c806337216de614610067578063490084ef14610097578063638156d0146100c757806368637549146100f7578063e1d2220f14610127578063e676a52514610157575b600080fd5b610081600480360381019061007c9190610fed565b610187565b60405161008e9190611248565b60405180910390f35b6100b160048036038101906100ac9190610f4c565b61025b565b6040516100be9190611248565b60405180910390f35b6100e160048036038101906100dc9190610f9e565b6105ec565b6040516100ee9190611248565b60405180910390f35b610111600480360381019061010c9190610f4c565b6107a8565b60405161011e9190611248565b60405180910390f35b610141600480360381019061013c9190611078565b6107d5565b60405161014e9190611248565b60405180910390f35b610171600480360381019061016c9190610f9e565b610872565b60405161017e9190611248565b60405180910390f35b600080610193846107a8565b905060008473ffffffffffffffffffffffffffffffffffffffff166318160ddd6040518163ffffffff1660e01b815260040160206040518083038186803b1580156101dd57600080fd5b505afa1580156101f1573d6000803e3d6000fd5b505050506040513d601f19601f8201168201806040525081019061021591906110a1565b9050610251633b9aca0061024361023461022f888661087b565b610a82565b85610ac090919063ffffffff16565b610ad690919063ffffffff16565b9250505092915050565b6000808273ffffffffffffffffffffffffffffffffffffffff16630dfe16816040518163ffffffff1660e01b815260040160206040518083038186803b1580156102a457600080fd5b505afa1580156102b8573d6000803e3d6000fd5b505050506040513d601f19601f820116820180604052508101906102dc9190610f75565b73ffffffffffffffffffffffffffffffffffffffff1663313ce5676040518163ffffffff1660e01b815260040160206040518083038186803b15801561032157600080fd5b505afa158015610335573d6000803e3d6000fd5b505050506040513d601f19601f8201168201806040525081019061035991906110ca565b60ff16905060008373ffffffffffffffffffffffffffffffffffffffff1663d21220a76040518163ffffffff1660e01b815260040160206040518083038186803b1580156103a657600080fd5b505afa1580156103ba573d6000803e3d6000fd5b505050506040513d601f19601f820116820180604052508101906103de9190610f75565b73ffffffffffffffffffffffffffffffffffffffff1663313ce5676040518163ffffffff1660e01b815260040160206040518083038186803b15801561042357600080fd5b505afa158015610437573d6000803e3d6000fd5b505050506040513d601f19601f8201168201806040525081019061045b91906110ca565b60ff16905060006105078573ffffffffffffffffffffffffffffffffffffffff1663313ce5676040518163ffffffff1660e01b815260040160206040518083038186803b1580156104ab57600080fd5b505afa1580156104bf573d6000803e3d6000fd5b505050506040513d601f19601f820116820180604052508101906104e391906110ca565b60ff166104f98486610aec90919063ffffffff16565b610b0290919063ffffffff16565b90506000808673ffffffffffffffffffffffffffffffffffffffff16630902f1ac6040518163ffffffff1660e01b815260040160606040518083038186803b15801561055257600080fd5b505afa158015610566573d6000803e3d6000fd5b505050506040513d601f19601f8201168201806040525081019061058a9190611029565b506dffffffffffffffffffffffffffff1691506dffffffffffffffffffffffffffff1691506105e083600a6105bf919061134e565b6105d28385610ac090919063ffffffff16565b610ad690919063ffffffff16565b95505050505050919050565b60008060008473ffffffffffffffffffffffffffffffffffffffff16630902f1ac6040518163ffffffff1660e01b815260040160606040518083038186803b15801561063757600080fd5b505afa15801561064b573d6000803e3d6000fd5b505050506040513d601f19601f8201168201806040525081019061066f9190611029565b506dffffffffffffffffffffffffffff1691506dffffffffffffffffffffffffffff16915060008573ffffffffffffffffffffffffffffffffffffffff16630dfe16816040518163ffffffff1660e01b815260040160206040518083038186803b1580156106dc57600080fd5b505afa1580156106f0573d6000803e3d6000fd5b505050506040513d601f19601f820116820180604052508101906107149190610f75565b73ffffffffffffffffffffffffffffffffffffffff168773ffffffffffffffffffffffffffffffffffffffff1614156107735761076c8361075e8785610ac090919063ffffffff16565b610ad690919063ffffffff16565b905061079b565b6107988261078a8786610ac090919063ffffffff16565b610ad690919063ffffffff16565b90505b8093505050509392505050565b60006107ce60026107c06107bb8561025b565b6107d5565b610ac090919063ffffffff16565b9050919050565b6000600382111561085f57819050600061080c60016107fe600286610ad690919063ffffffff16565b610aec90919063ffffffff16565b90505b81811015610859578091506108526002610844836108368588610ad690919063ffffffff16565b610aec90919063ffffffff16565b610ad690919063ffffffff16565b905061080f565b5061086d565b6000821461086c57600190505b5b919050565b60009392505050565b610883610e88565b600082116108c6576040517f08c379a00000000000000000000000000000000000000000000000000000000081526004016108bd906111e8565b60405180910390fd5b600083141561090457604051806020016040528060007bffffffffffffffffffffffffffffffffffffffffffffffffffffffff168152509050610a7c565b71ffffffffffffffffffffffffffffffffffff801683116109cc57600082607060ff1685901b61093491906112ca565b90507bffffffffffffffffffffffffffffffffffffffffffffffffffffffff8016811115610997576040517f08c379a000000000000000000000000000000000000000000000000000000000815260040161098e90611228565b60405180910390fd5b6040518060200160405280827bffffffffffffffffffffffffffffffffffffffffffffffffffffffff16815250915050610a7c565b60006109e8846e01000000000000000000000000000085610b18565b90507bffffffffffffffffffffffffffffffffffffffffffffffffffffffff8016811115610a4b576040517f08c379a0000000000000000000000000000000000000000000000000000000008152600401610a4290611228565b60405180910390fd5b6040518060200160405280827bffffffffffffffffffffffffffffffffffffffffffffffffffffffff168152509150505b92915050565b60006612725dd1d243ab82600001517bffffffffffffffffffffffffffffffffffffffffffffffffffffffff16610ab991906112ca565b9050919050565b60008183610ace919061146c565b905092915050565b60008183610ae491906112ca565b905092915050565b60008183610afa9190611274565b905092915050565b60008183610b1091906114c6565b905092915050565b6000806000610b278686610be6565b9150915060008480610b62577f4e487b7100000000000000000000000000000000000000000000000000000000600052601260045260246000fd5b868809905082811115610b7f57600182610b7c91906114c6565b91505b8083610b8b91906114c6565b9250848210610bcf576040517f08c379a0000000000000000000000000000000000000000000000000000000008152600401610bc690611208565b60405180910390fd5b610bda838387610c81565b93505050509392505050565b60008060007fffffffffffffffffffffffffffffffffffffffffffffffffffffffffffffffff80610c40577f4e487b7100000000000000000000000000000000000000000000000000000000600052601260045260246000fd5b84860990508385610c51919061146c565b92508281610c5f91906114c6565b915082811015610c7957600182610c7691906114c6565b91505b509250929050565b6000806001837fffffffffffffffffffffffffffffffffffffffffffffffffffffffffffffffff610cb291906114c6565b610cbc9190611274565b831690508083610ccc91906112ca565b92508085610cda91906112ca565b94506001816001837fffffffffffffffffffffffffffffffffffffffffffffffffffffffffffffffff610d0d91906114c6565b610d179190611274565b610d2191906112ca565b610d2b9190611274565b84610d36919061146c565b85610d419190611274565b94506000600190508084610d55919061146c565b6002610d6191906114c6565b81610d6c919061146c565b90508084610d7a919061146c565b6002610d8691906114c6565b81610d91919061146c565b90508084610d9f919061146c565b6002610dab91906114c6565b81610db6919061146c565b90508084610dc4919061146c565b6002610dd091906114c6565b81610ddb919061146c565b90508084610de9919061146c565b6002610df591906114c6565b81610e00919061146c565b90508084610e0e919061146c565b6002610e1a91906114c6565b81610e25919061146c565b90508084610e33919061146c565b6002610e3f91906114c6565b81610e4a919061146c565b90508084610e58919061146c565b6002610e6491906114c6565b81610e6f919061146c565b90508086610e7d919061146c565b925050509392505050565b604051806020016040528060007bffffffffffffffffffffffffffffffffffffffffffffffffffffffff1681525090565b600081359050610ec8816115d8565b92915050565b600081519050610edd816115d8565b92915050565b600081519050610ef2816115ef565b92915050565b600081359050610f0781611606565b92915050565b600081519050610f1c81611606565b92915050565b600081519050610f318161161d565b92915050565b600081519050610f4681611634565b92915050565b600060208284031215610f5e57600080fd5b6000610f6c84828501610eb9565b91505092915050565b600060208284031215610f8757600080fd5b6000610f9584828501610ece565b91505092915050565b600080600060608486031215610fb357600080fd5b6000610fc186828701610eb9565b9350506020610fd286828701610eb9565b9250506040610fe386828701610ef8565b9150509250925092565b6000806040838503121561100057600080fd5b600061100e85828601610eb9565b925050602061101f85828601610ef8565b9150509250929050565b60008060006060848603121561103e57600080fd5b600061104c86828701610ee3565b935050602061105d86828701610ee3565b925050604061106e86828701610f22565b9150509250925092565b60006020828403121561108a57600080fd5b600061109884828501610ef8565b91505092915050565b6000602082840312156110b357600080fd5b60006110c184828501610f0d565b91505092915050565b6000602082840312156110dc57600080fd5b60006110ea84828501610f37565b91505092915050565b6000611100602683611263565b91507f4669786564506f696e743a3a6672616374696f6e3a206469766973696f6e206260008301527f79207a65726f00000000000000000000000000000000000000000000000000006020830152604082019050919050565b6000611166601a83611263565b91507f46756c6c4d6174683a3a6d756c4469763a206f766572666c6f770000000000006000830152602082019050919050565b60006111a6601e83611263565b91507f4669786564506f696e743a3a6672616374696f6e3a206f766572666c6f7700006000830152602082019050919050565b6111e281611546565b82525050565b60006020820190508181036000830152611201816110f3565b9050919050565b6000602082019050818103600083015261122181611159565b9050919050565b6000602082019050818103600083015261124181611199565b9050919050565b600060208201905061125d60008301846111d9565b92915050565b600082825260208201905092915050565b600061127f82611546565b915061128a83611546565b9250827fffffffffffffffffffffffffffffffffffffffffffffffffffffffffffffffff038211156112bf576112be61156d565b5b828201905092915050565b60006112d582611546565b91506112e083611546565b9250826112f0576112ef61159c565b5b828204905092915050565b6000808291508390505b6001851115611345578086048111156113215761132061156d565b5b60018516156113305780820291505b808102905061133e856115cb565b9450611305565b94509492505050565b600061135982611546565b915061136483611546565b92506113917fffffffffffffffffffffffffffffffffffffffffffffffffffffffffffffffff8484611399565b905092915050565b6000826113a95760019050611465565b816113b75760009050611465565b81600181146113cd57600281146113d757611406565b6001915050611465565b60ff8411156113e9576113e861156d565b5b8360020a915084821115611400576113ff61156d565b5b50611465565b5060208310610133831016604e8410600b841016171561143b5782820a9050838111156114365761143561156d565b5b611465565b61144884848460016112fb565b9250905081840481111561145f5761145e61156d565b5b81810290505b9392505050565b600061147782611546565b915061148283611546565b9250817fffffffffffffffffffffffffffffffffffffffffffffffffffffffffffffffff04831182151516156114bb576114ba61156d565b5b828202905092915050565b60006114d182611546565b91506114dc83611546565b9250828210156114ef576114ee61156d565b5b828203905092915050565b600061150582611526565b9050919050565b60006dffffffffffffffffffffffffffff82169050919050565b600073ffffffffffffffffffffffffffffffffffffffff82169050919050565b6000819050919050565b600063ffffffff82169050919050565b600060ff82169050919050565b7f4e487b7100000000000000000000000000000000000000000000000000000000600052601160045260246000fd5b7f4e487b7100000000000000000000000000000000000000000000000000000000600052601260045260246000fd5b60008160011c9050919050565b6115e1816114fa565b81146115ec57600080fd5b50565b6115f88161150c565b811461160357600080fd5b50565b61160f81611546565b811461161a57600080fd5b50565b61162681611550565b811461163157600080fd5b50565b61163d81611560565b811461164857600080fd5b5056fea26469706673582212201184e3a9aca55051f5b76693987de44ce29fb5ccb98c7459839aa3fa99ca07ee64736f6c63430008000033",
  "immutableReferences": {},
  "source": "// SPDX-License-Identifier: AGPL-3.0-or-later\npragma solidity 0.8.0;\n\nimport \"@openzeppelin/contracts/token/ERC20/ERC20.sol\";\nimport \"@openzeppelin/contracts/utils/math/SafeMath.sol\";\nimport \"../util/MathOther.sol\";\nimport \"../lib/UniswapV2.sol\";\nimport \"../AthertonModels.sol\";\n\n\ncontract TokenEvalutorUniswapV2 is ITokenEvaluator {\n\n    using FixedPoint for *;\n    using SafeMath for uint;\n    using SafeMath for uint112;\n\n    function valuationFloating( address _token, address _groundingLpPair, uint _amount ) external override view returns ( uint ) {\n        (uint r0, uint r1,) = IUniswapV2Pair( _groundingLpPair ).getReserves();\n        uint v;\n        // Ascertain price base on LP ratio\n        if (_token == IUniswapV2Pair( _groundingLpPair ).token0()) {\n            v = r1.mul(_amount).div(r0);\n        } else {\n            v = r0.mul(_amount).div(r1);\n        }\n        return v;\n    }\n    function valuationLpToken( address _token, uint _amount ) external override view returns ( uint ) {\n        uint totalValue = getTotalValue( _token );\n        uint totalSupply = IUniswapV2Pair( _token ).totalSupply();\n        return totalValue.mul( FixedPoint.fraction( _amount, totalSupply ).decode112with18() ).div( 1e9 );\n    }\n    function valuationComplexLpToken( address _token, address _groundingLpPair, uint _amount ) external override view returns ( uint ) {\n        // TODO\n        return 0;\n    }\n\n    function getKValue( address _pair ) public view returns( uint k_ ) {\n        uint decimals0 = ERC20( IUniswapV2Pair( _pair ).token0() ).decimals();\n        uint decimals1 = ERC20( IUniswapV2Pair( _pair ).token1() ).decimals();\n        uint decimals = decimals0.add( decimals1 ).sub( ERC20( _pair ).decimals() );\n\n        (uint reserve0, uint reserve1, ) = IUniswapV2Pair( _pair ).getReserves();\n        k_ = reserve0.mul(reserve1).div( 10 ** decimals );\n    }\n\n    function getTotalValue( address _pair ) public view returns ( uint _value ) {\n        _value = sqrrt(getKValue( _pair )).mul(2);\n    }\n\n    function sqrrt(uint256 a) public pure returns (uint c) {\n        if (a > 3) {\n            c = a;\n            uint b = a.div(2).add(1);\n            while (b < c) {\n                c = b;\n                b = a.div(b).add(b).div(2);\n            }\n        } else if (a != 0) {\n            c = 1;\n        }\n    }\n}\n",
  "sourcePath": "/var/www/atherton/solidity/contracts/eval/TokenEvaluatorUniswapV2.sol",
  "compiler": {
    "name": "solc",
    "version": "0.8.0+commit.c7dfd78e.Emscripten.clang"
  },
  "schemaVersion": "3.4.3",
  "updatedAt": "2021-12-08T23:25:38.206Z",
  "devdoc": {
    "kind": "dev",
    "methods": {},
    "version": 1
  },
  "userdoc": {
    "kind": "user",
    "methods": {},
    "version": 1
  }
}