{
  "contractName": "UniswapV2LP",
  "abi": [
    {
      "inputs": [
        {
          "internalType": "address",
          "name": "_treasury",
          "type": "address"
        },
        {
          "internalType": "address",
          "name": "_pair",
          "type": "address"
        }
      ],
      "stateMutability": "nonpayable",
      "type": "constructor"
    },
    {
      "inputs": [
        {
          "internalType": "address",
          "name": "account_",
          "type": "address"
        },
        {
          "internalType": "uint256",
          "name": "amount_",
          "type": "uint256"
        }
      ],
      "name": "provide",
      "outputs": [],
      "stateMutability": "nonpayable",
      "type": "function"
    }
  ],
  "bytecode": "0x608060405234801561001057600080fd5b506040516102383803806102388339818101604052810190610032919061004e565b50506100d3565b600081519050610048816100bc565b92915050565b6000806040838503121561006157600080fd5b600061006f85828601610039565b925050602061008085828601610039565b9150509250929050565b60006100958261009c565b9050919050565b600073ffffffffffffffffffffffffffffffffffffffff82169050919050565b6100c58161008a565b81146100d057600080fd5b50565b610156806100e26000396000f3fe608060405234801561001057600080fd5b506004361061002b5760003560e01c806336b7390814610030575b600080fd5b61004a6004803603810190610045919061007a565b61004c565b005b5050565b60008135905061005f816100f2565b92915050565b60008135905061007481610109565b92915050565b6000806040838503121561008d57600080fd5b600061009b85828601610050565b92505060206100ac85828601610065565b9150509250929050565b60006100c1826100c8565b9050919050565b600073ffffffffffffffffffffffffffffffffffffffff82169050919050565b6000819050919050565b6100fb816100b6565b811461010657600080fd5b50565b610112816100e8565b811461011d57600080fd5b5056fea2646970667358221220fb8974eed8598fd5d3f24b8cae5b88cd22948787b3b976179b4dc1aa0cfc7c4464736f6c63430008000033",
  "immutableReferences": {},
  "source": "// SPDX-License-Identifier: AGPL-3.0-or-later\npragma solidity 0.8.0;\n\nimport \"./LPInterface.sol\";\n\ncontract UniswapV2LP is LPInterface {\n    constructor(\n      address _treasury,\n      address _pair\n    ) {\n\n    }\n    function provide(address account_, uint256 amount_) external override {\n\n    }\n    // function finalize(address account_, uint256 amount_) external override {\n\n    // }\n}\n",
  "sourcePath": "/var/www/atherton/solidity/contracts/lp/LPUniswapV2.sol",
  "compiler": {
    "name": "solc",
    "version": "0.8.0+commit.c7dfd78e.Emscripten.clang"
  },
  "schemaVersion": "3.4.3",
  "updatedAt": "2021-12-08T23:25:38.266Z",
  "devdoc": {
    "kind": "dev",
    "methods": {},
    "version": 1
  },
  "userdoc": {
    "kind": "user",
    "methods": {},
    "version": 1
  }
}