{
  "contractName": "wsATHER",
  "abi": [
    {
      "inputs": [
        {
          "internalType": "address",
          "name": "_staking",
          "type": "address"
        },
        {
          "internalType": "address",
          "name": "_ATHER",
          "type": "address"
        },
        {
          "internalType": "address",
          "name": "_sATHER",
          "type": "address"
        }
      ],
      "stateMutability": "nonpayable",
      "type": "constructor"
    },
    {
      "anonymous": false,
      "inputs": [
        {
          "indexed": true,
          "internalType": "address",
          "name": "owner",
          "type": "address"
        },
        {
          "indexed": true,
          "internalType": "address",
          "name": "spender",
          "type": "address"
        },
        {
          "indexed": false,
          "internalType": "uint256",
          "name": "value",
          "type": "uint256"
        }
      ],
      "name": "Approval",
      "type": "event"
    },
    {
      "anonymous": false,
      "inputs": [
        {
          "indexed": true,
          "internalType": "address",
          "name": "from",
          "type": "address"
        },
        {
          "indexed": true,
          "internalType": "address",
          "name": "to",
          "type": "address"
        },
        {
          "indexed": false,
          "internalType": "uint256",
          "name": "value",
          "type": "uint256"
        }
      ],
      "name": "Transfer",
      "type": "event"
    },
    {
      "inputs": [],
      "name": "ATHER",
      "outputs": [
        {
          "internalType": "address",
          "name": "",
          "type": "address"
        }
      ],
      "stateMutability": "view",
      "type": "function"
    },
    {
      "inputs": [
        {
          "internalType": "address",
          "name": "owner",
          "type": "address"
        },
        {
          "internalType": "address",
          "name": "spender",
          "type": "address"
        }
      ],
      "name": "allowance",
      "outputs": [
        {
          "internalType": "uint256",
          "name": "",
          "type": "uint256"
        }
      ],
      "stateMutability": "view",
      "type": "function"
    },
    {
      "inputs": [
        {
          "internalType": "address",
          "name": "spender",
          "type": "address"
        },
        {
          "internalType": "uint256",
          "name": "amount",
          "type": "uint256"
        }
      ],
      "name": "approve",
      "outputs": [
        {
          "internalType": "bool",
          "name": "",
          "type": "bool"
        }
      ],
      "stateMutability": "nonpayable",
      "type": "function"
    },
    {
      "inputs": [
        {
          "internalType": "address",
          "name": "account",
          "type": "address"
        }
      ],
      "name": "balanceOf",
      "outputs": [
        {
          "internalType": "uint256",
          "name": "",
          "type": "uint256"
        }
      ],
      "stateMutability": "view",
      "type": "function"
    },
    {
      "inputs": [],
      "name": "decimals",
      "outputs": [
        {
          "internalType": "uint8",
          "name": "",
          "type": "uint8"
        }
      ],
      "stateMutability": "view",
      "type": "function"
    },
    {
      "inputs": [
        {
          "internalType": "address",
          "name": "spender",
          "type": "address"
        },
        {
          "internalType": "uint256",
          "name": "subtractedValue",
          "type": "uint256"
        }
      ],
      "name": "decreaseAllowance",
      "outputs": [
        {
          "internalType": "bool",
          "name": "",
          "type": "bool"
        }
      ],
      "stateMutability": "nonpayable",
      "type": "function"
    },
    {
      "inputs": [
        {
          "internalType": "address",
          "name": "spender",
          "type": "address"
        },
        {
          "internalType": "uint256",
          "name": "addedValue",
          "type": "uint256"
        }
      ],
      "name": "increaseAllowance",
      "outputs": [
        {
          "internalType": "bool",
          "name": "",
          "type": "bool"
        }
      ],
      "stateMutability": "nonpayable",
      "type": "function"
    },
    {
      "inputs": [],
      "name": "name",
      "outputs": [
        {
          "internalType": "string",
          "name": "",
          "type": "string"
        }
      ],
      "stateMutability": "view",
      "type": "function"
    },
    {
      "inputs": [],
      "name": "sATHER",
      "outputs": [
        {
          "internalType": "address",
          "name": "",
          "type": "address"
        }
      ],
      "stateMutability": "view",
      "type": "function"
    },
    {
      "inputs": [],
      "name": "staking",
      "outputs": [
        {
          "internalType": "address",
          "name": "",
          "type": "address"
        }
      ],
      "stateMutability": "view",
      "type": "function"
    },
    {
      "inputs": [],
      "name": "symbol",
      "outputs": [
        {
          "internalType": "string",
          "name": "",
          "type": "string"
        }
      ],
      "stateMutability": "view",
      "type": "function"
    },
    {
      "inputs": [],
      "name": "totalSupply",
      "outputs": [
        {
          "internalType": "uint256",
          "name": "",
          "type": "uint256"
        }
      ],
      "stateMutability": "view",
      "type": "function"
    },
    {
      "inputs": [
        {
          "internalType": "address",
          "name": "recipient",
          "type": "address"
        },
        {
          "internalType": "uint256",
          "name": "amount",
          "type": "uint256"
        }
      ],
      "name": "transfer",
      "outputs": [
        {
          "internalType": "bool",
          "name": "",
          "type": "bool"
        }
      ],
      "stateMutability": "nonpayable",
      "type": "function"
    },
    {
      "inputs": [
        {
          "internalType": "address",
          "name": "sender",
          "type": "address"
        },
        {
          "internalType": "address",
          "name": "recipient",
          "type": "address"
        },
        {
          "internalType": "uint256",
          "name": "amount",
          "type": "uint256"
        }
      ],
      "name": "transferFrom",
      "outputs": [
        {
          "internalType": "bool",
          "name": "",
          "type": "bool"
        }
      ],
      "stateMutability": "nonpayable",
      "type": "function"
    },
    {
      "inputs": [
        {
          "internalType": "uint256",
          "name": "_amount",
          "type": "uint256"
        }
      ],
      "name": "wrapFromATHER",
      "outputs": [
        {
          "internalType": "uint256",
          "name": "",
          "type": "uint256"
        }
      ],
      "stateMutability": "nonpayable",
      "type": "function"
    },
    {
      "inputs": [
        {
          "internalType": "uint256",
          "name": "_amount",
          "type": "uint256"
        }
      ],
      "name": "unwrapToATHER",
      "outputs": [
        {
          "internalType": "uint256",
          "name": "",
          "type": "uint256"
        }
      ],
      "stateMutability": "nonpayable",
      "type": "function"
    },
    {
      "inputs": [
        {
          "internalType": "uint256",
          "name": "_amount",
          "type": "uint256"
        }
      ],
      "name": "wrapFromSATHER",
      "outputs": [
        {
          "internalType": "uint256",
          "name": "",
          "type": "uint256"
        }
      ],
      "stateMutability": "nonpayable",
      "type": "function"
    },
    {
      "inputs": [
        {
          "internalType": "uint256",
          "name": "_amount",
          "type": "uint256"
        }
      ],
      "name": "unwrapToSATHER",
      "outputs": [
        {
          "internalType": "uint256",
          "name": "",
          "type": "uint256"
        }
      ],
      "stateMutability": "nonpayable",
      "type": "function"
    },
    {
      "inputs": [
        {
          "internalType": "uint256",
          "name": "_amount",
          "type": "uint256"
        }
      ],
      "name": "sATHERValue",
      "outputs": [
        {
          "internalType": "uint256",
          "name": "",
          "type": "uint256"
        }
      ],
      "stateMutability": "view",
      "type": "function"
    },
    {
      "inputs": [
        {
          "internalType": "uint256",
          "name": "_amount",
          "type": "uint256"
        }
      ],
      "name": "wsATHERValue",
      "outputs": [
        {
          "internalType": "uint256",
          "name": "",
          "type": "uint256"
        }
      ],
      "stateMutability": "view",
      "type": "function"
    }
  ],
  "bytecode": "0x60e06040523480156200001157600080fd5b5060405162002ae838038062002ae88339818101604052810190620000379190620002fd565b6040518060400160405280600e81526020017f57726170706564207341544845520000000000000000000000000000000000008152506040518060400160405280600781526020017f77734154484552000000000000000000000000000000000000000000000000008152508160039080519060200190620000bb92919062000236565b508060049080519060200190620000d492919062000236565b505050600073ffffffffffffffffffffffffffffffffffffffff168373ffffffffffffffffffffffffffffffffffffffff1614156200011257600080fd5b8273ffffffffffffffffffffffffffffffffffffffff1660808173ffffffffffffffffffffffffffffffffffffffff1660601b81525050600073ffffffffffffffffffffffffffffffffffffffff168273ffffffffffffffffffffffffffffffffffffffff1614156200018457600080fd5b8173ffffffffffffffffffffffffffffffffffffffff1660a08173ffffffffffffffffffffffffffffffffffffffff1660601b81525050600073ffffffffffffffffffffffffffffffffffffffff168173ffffffffffffffffffffffffffffffffffffffff161415620001f657600080fd5b8073ffffffffffffffffffffffffffffffffffffffff1660c08173ffffffffffffffffffffffffffffffffffffffff1660601b8152505050505062000406565b828054620002449062000387565b90600052602060002090601f016020900481019282620002685760008555620002b4565b82601f106200028357805160ff1916838001178555620002b4565b82800160010185558215620002b4579182015b82811115620002b357825182559160200191906001019062000296565b5b509050620002c39190620002c7565b5090565b5b80821115620002e2576000816000905550600101620002c8565b5090565b600081519050620002f781620003ec565b92915050565b6000806000606084860312156200031357600080fd5b60006200032386828701620002e6565b93505060206200033686828701620002e6565b92505060406200034986828701620002e6565b9150509250925092565b6000620003608262000367565b9050919050565b600073ffffffffffffffffffffffffffffffffffffffff82169050919050565b60006002820490506001821680620003a057607f821691505b60208210811415620003b757620003b6620003bd565b5b50919050565b7f4e487b7100000000000000000000000000000000000000000000000000000000600052602260045260246000fd5b620003f78162000353565b81146200040357600080fd5b50565b60805160601c60a05160601c60c05160601c612655620004936000396000818161053e0152818161085501528181610daf015261100101526000818161069a015281816109fe01528181610a240152610ad401526000818161057a0152818161060c015281816109da01528181610b1001528181610ba201528181610c8c015261102a01526126556000f3fe608060405234801561001057600080fd5b506004361061012c5760003560e01c80636eb6e31b116100ad578063a457c2d711610071578063a457c2d714610395578063a9059cbb146103c5578063c188a200146103f5578063cd648fce14610413578063dd62ed3e146104435761012c565b80636eb6e31b146102b75780636f3e61f0146102e757806370a0823114610317578063902810911461034757806395d89b41146103775761012c565b80632a76ed2e116100f45780632a76ed2e146101fd578063313ce5671461022d578063395093511461024b5780634cf088d91461027b5780634e3d8853146102995761012c565b806306fdde0314610131578063095ea7b31461014f5780630de1ba8a1461017f57806318160ddd146101af57806323b872dd146101cd575b600080fd5b610139610473565b6040516101469190611fe9565b60405180910390f35b61016960048036038101906101649190611a51565b610505565b6040516101769190611fce565b60405180910390f35b61019960048036038101906101949190611ab6565b610523565b6040516101a6919061214b565b60405180910390f35b6101b761074f565b6040516101c4919061214b565b60405180910390f35b6101e760048036038101906101e29190611a02565b610759565b6040516101f49190611fce565b60405180910390f35b61021760048036038101906102129190611ab6565b610851565b604051610224919061214b565b60405180910390f35b610235610923565b60405161024291906121b8565b60405180910390f35b61026560048036038101906102609190611a51565b61092c565b6040516102729190611fce565b60405180910390f35b6102836109d8565b6040516102909190611f53565b60405180910390f35b6102a16109fc565b6040516102ae9190611f53565b60405180910390f35b6102d160048036038101906102cc9190611ab6565b610a20565b6040516102de919061214b565b60405180910390f35b61030160048036038101906102fc9190611ab6565b610c6e565b60405161030e919061214b565b60405180910390f35b610331600480360381019061032c919061199d565b610d4c565b60405161033e919061214b565b60405180910390f35b610361600480360381019061035c9190611ab6565b610d94565b60405161036e919061214b565b60405180910390f35b61037f610e64565b60405161038c9190611fe9565b60405180910390f35b6103af60048036038101906103aa9190611a51565b610ef6565b6040516103bc9190611fce565b60405180910390f35b6103df60048036038101906103da9190611a51565b610fe1565b6040516103ec9190611fce565b60405180910390f35b6103fd610fff565b60405161040a9190611f53565b60405180910390f35b61042d60048036038101906104289190611ab6565b611023565b60405161043a919061214b565b60405180910390f35b61045d600480360381019061045891906119c6565b611101565b60405161046a919061214b565b60405180910390f35b606060038054610482906124fd565b80601f01602080910402602001604051908101604052809291908181526020018280546104ae906124fd565b80156104fb5780601f106104d0576101008083540402835291602001916104fb565b820191906000526020600020905b8154815290600101906020018083116104de57829003601f168201915b5050505050905090565b6000610519610512611188565b8484611190565b6001905092915050565b600061052f338361135b565b600061053a83610c6e565b90507f000000000000000000000000000000000000000000000000000000000000000073ffffffffffffffffffffffffffffffffffffffff1663095ea7b37f0000000000000000000000000000000000000000000000000000000000000000836040518363ffffffff1660e01b81526004016105b7929190611fa5565b602060405180830381600087803b1580156105d157600080fd5b505af11580156105e5573d6000803e3d6000fd5b505050506040513d601f19601f820116820180604052508101906106099190611a8d565b507f000000000000000000000000000000000000000000000000000000000000000073ffffffffffffffffffffffffffffffffffffffff16639ebea88c8260006040518363ffffffff1660e01b815260040161066692919061218f565b600060405180830381600087803b15801561068057600080fd5b505af1158015610694573d6000803e3d6000fd5b505050507f000000000000000000000000000000000000000000000000000000000000000073ffffffffffffffffffffffffffffffffffffffff1663a9059cbb33836040518363ffffffff1660e01b81526004016106f3929190611fa5565b602060405180830381600087803b15801561070d57600080fd5b505af1158015610721573d6000803e3d6000fd5b505050506040513d601f19601f820116820180604052508101906107459190611a8d565b5080915050919050565b6000600254905090565b6000610766848484611532565b6000600160008673ffffffffffffffffffffffffffffffffffffffff1673ffffffffffffffffffffffffffffffffffffffff16815260200190815260200160002060006107b1611188565b73ffffffffffffffffffffffffffffffffffffffff1673ffffffffffffffffffffffffffffffffffffffff16815260200190815260200160002054905082811015610831576040517f08c379a00000000000000000000000000000000000000000000000000000000081526004016108289061208b565b60405180910390fd5b6108458561083d611188565b858403611190565b60019150509392505050565b60007f000000000000000000000000000000000000000000000000000000000000000073ffffffffffffffffffffffffffffffffffffffff166323b872dd3330856040518463ffffffff1660e01b81526004016108b093929190611f6e565b602060405180830381600087803b1580156108ca57600080fd5b505af11580156108de573d6000803e3d6000fd5b505050506040513d601f19601f820116820180604052508101906109029190611a8d565b50600061090e83611023565b905061091a33826117b3565b80915050919050565b60006012905090565b60006109ce610939611188565b848460016000610947611188565b73ffffffffffffffffffffffffffffffffffffffff1673ffffffffffffffffffffffffffffffffffffffff16815260200190815260200160002060008873ffffffffffffffffffffffffffffffffffffffff1673ffffffffffffffffffffffffffffffffffffffff168152602001908152602001600020546109c991906121ef565b611190565b6001905092915050565b7f000000000000000000000000000000000000000000000000000000000000000081565b7f000000000000000000000000000000000000000000000000000000000000000081565b60007f000000000000000000000000000000000000000000000000000000000000000073ffffffffffffffffffffffffffffffffffffffff166323b872dd3330856040518463ffffffff1660e01b8152600401610a7f93929190611f6e565b602060405180830381600087803b158015610a9957600080fd5b505af1158015610aad573d6000803e3d6000fd5b505050506040513d601f19601f82011682018060405250810190610ad19190611a8d565b507f000000000000000000000000000000000000000000000000000000000000000073ffffffffffffffffffffffffffffffffffffffff1663095ea7b37f0000000000000000000000000000000000000000000000000000000000000000846040518363ffffffff1660e01b8152600401610b4d929190611fa5565b602060405180830381600087803b158015610b6757600080fd5b505af1158015610b7b573d6000803e3d6000fd5b505050506040513d601f19601f82011682018060405250810190610b9f9190611a8d565b507f000000000000000000000000000000000000000000000000000000000000000073ffffffffffffffffffffffffffffffffffffffff16637acb775783306040518363ffffffff1660e01b8152600401610bfb929190612166565b602060405180830381600087803b158015610c1557600080fd5b505af1158015610c29573d6000803e3d6000fd5b505050506040513d601f19601f82011682018060405250810190610c4d9190611a8d565b506000610c5983611023565b9050610c6533826117b3565b80915050919050565b6000610d45610c7b610923565b600a610c8791906122c9565b610d377f000000000000000000000000000000000000000000000000000000000000000073ffffffffffffffffffffffffffffffffffffffff16632986c0e56040518163ffffffff1660e01b815260040160206040518083038186803b158015610cf057600080fd5b505afa158015610d04573d6000803e3d6000fd5b505050506040513d601f19601f82011682018060405250810190610d289190611adf565b8561191390919063ffffffff16565b61192990919063ffffffff16565b9050919050565b60008060008373ffffffffffffffffffffffffffffffffffffffff1673ffffffffffffffffffffffffffffffffffffffff168152602001908152602001600020549050919050565b6000610da0338361135b565b6000610dab83610c6e565b90507f000000000000000000000000000000000000000000000000000000000000000073ffffffffffffffffffffffffffffffffffffffff1663a9059cbb33836040518363ffffffff1660e01b8152600401610e08929190611fa5565b602060405180830381600087803b158015610e2257600080fd5b505af1158015610e36573d6000803e3d6000fd5b505050506040513d601f19601f82011682018060405250810190610e5a9190611a8d565b5080915050919050565b606060048054610e73906124fd565b80601f0160208091040260200160405190810160405280929190818152602001828054610e9f906124fd565b8015610eec5780601f10610ec157610100808354040283529160200191610eec565b820191906000526020600020905b815481529060010190602001808311610ecf57829003601f168201915b5050505050905090565b60008060016000610f05611188565b73ffffffffffffffffffffffffffffffffffffffff1673ffffffffffffffffffffffffffffffffffffffff16815260200190815260200160002060008573ffffffffffffffffffffffffffffffffffffffff1673ffffffffffffffffffffffffffffffffffffffff16815260200190815260200160002054905082811015610fc2576040517f08c379a0000000000000000000000000000000000000000000000000000000008152600401610fb99061210b565b60405180910390fd5b610fd6610fcd611188565b85858403611190565b600191505092915050565b6000610ff5610fee611188565b8484611532565b6001905092915050565b7f000000000000000000000000000000000000000000000000000000000000000081565b60006110fa7f000000000000000000000000000000000000000000000000000000000000000073ffffffffffffffffffffffffffffffffffffffff16632986c0e56040518163ffffffff1660e01b815260040160206040518083038186803b15801561108e57600080fd5b505afa1580156110a2573d6000803e3d6000fd5b505050506040513d601f19601f820116820180604052508101906110c69190611adf565b6110ec6110d1610923565b600a6110dd91906122c9565b8561191390919063ffffffff16565b61192990919063ffffffff16565b9050919050565b6000600160008473ffffffffffffffffffffffffffffffffffffffff1673ffffffffffffffffffffffffffffffffffffffff16815260200190815260200160002060008373ffffffffffffffffffffffffffffffffffffffff1673ffffffffffffffffffffffffffffffffffffffff16815260200190815260200160002054905092915050565b600033905090565b600073ffffffffffffffffffffffffffffffffffffffff168373ffffffffffffffffffffffffffffffffffffffff161415611200576040517f08c379a00000000000000000000000000000000000000000000000000000000081526004016111f7906120eb565b60405180910390fd5b600073ffffffffffffffffffffffffffffffffffffffff168273ffffffffffffffffffffffffffffffffffffffff161415611270576040517f08c379a00000000000000000000000000000000000000000000000000000000081526004016112679061204b565b60405180910390fd5b80600160008573ffffffffffffffffffffffffffffffffffffffff1673ffffffffffffffffffffffffffffffffffffffff16815260200190815260200160002060008473ffffffffffffffffffffffffffffffffffffffff1673ffffffffffffffffffffffffffffffffffffffff168152602001908152602001600020819055508173ffffffffffffffffffffffffffffffffffffffff168373ffffffffffffffffffffffffffffffffffffffff167f8c5be1e5ebec7d5bd14f71427d1e84f3dd0314c0f7b2291e5b200ac8c7c3b9258360405161134e919061214b565b60405180910390a3505050565b600073ffffffffffffffffffffffffffffffffffffffff168273ffffffffffffffffffffffffffffffffffffffff1614156113cb576040517f08c379a00000000000000000000000000000000000000000000000000000000081526004016113c2906120ab565b60405180910390fd5b6113d78260008361193f565b60008060008473ffffffffffffffffffffffffffffffffffffffff1673ffffffffffffffffffffffffffffffffffffffff1681526020019081526020016000205490508181101561145d576040517f08c379a00000000000000000000000000000000000000000000000000000000081526004016114549061202b565b60405180910390fd5b8181036000808573ffffffffffffffffffffffffffffffffffffffff1673ffffffffffffffffffffffffffffffffffffffff1681526020019081526020016000208190555081600260008282546114b49190612441565b92505081905550600073ffffffffffffffffffffffffffffffffffffffff168373ffffffffffffffffffffffffffffffffffffffff167fddf252ad1be2c89b69c2b068fc378daa952ba7f163c4a11628f55a4df523b3ef84604051611519919061214b565b60405180910390a361152d83600084611944565b505050565b600073ffffffffffffffffffffffffffffffffffffffff168373ffffffffffffffffffffffffffffffffffffffff1614156115a2576040517f08c379a0000000000000000000000000000000000000000000000000000000008152600401611599906120cb565b60405180910390fd5b600073ffffffffffffffffffffffffffffffffffffffff168273ffffffffffffffffffffffffffffffffffffffff161415611612576040517f08c379a00000000000000000000000000000000000000000000000000000000081526004016116099061200b565b60405180910390fd5b61161d83838361193f565b60008060008573ffffffffffffffffffffffffffffffffffffffff1673ffffffffffffffffffffffffffffffffffffffff168152602001908152602001600020549050818110156116a3576040517f08c379a000000000000000000000000000000000000000000000000000000000815260040161169a9061206b565b60405180910390fd5b8181036000808673ffffffffffffffffffffffffffffffffffffffff1673ffffffffffffffffffffffffffffffffffffffff16815260200190815260200160002081905550816000808573ffffffffffffffffffffffffffffffffffffffff1673ffffffffffffffffffffffffffffffffffffffff168152602001908152602001600020600082825461173691906121ef565b925050819055508273ffffffffffffffffffffffffffffffffffffffff168473ffffffffffffffffffffffffffffffffffffffff167fddf252ad1be2c89b69c2b068fc378daa952ba7f163c4a11628f55a4df523b3ef8460405161179a919061214b565b60405180910390a36117ad848484611944565b50505050565b600073ffffffffffffffffffffffffffffffffffffffff168273ffffffffffffffffffffffffffffffffffffffff161415611823576040517f08c379a000000000000000000000000000000000000000000000000000000000815260040161181a9061212b565b60405180910390fd5b61182f6000838361193f565b806002600082825461184191906121ef565b92505081905550806000808473ffffffffffffffffffffffffffffffffffffffff1673ffffffffffffffffffffffffffffffffffffffff168152602001908152602001600020600082825461189691906121ef565b925050819055508173ffffffffffffffffffffffffffffffffffffffff16600073ffffffffffffffffffffffffffffffffffffffff167fddf252ad1be2c89b69c2b068fc378daa952ba7f163c4a11628f55a4df523b3ef836040516118fb919061214b565b60405180910390a361190f60008383611944565b5050565b6000818361192191906123e7565b905092915050565b600081836119379190612245565b905092915050565b505050565b505050565b600081359050611958816125da565b92915050565b60008151905061196d816125f1565b92915050565b60008135905061198281612608565b92915050565b60008151905061199781612608565b92915050565b6000602082840312156119af57600080fd5b60006119bd84828501611949565b91505092915050565b600080604083850312156119d957600080fd5b60006119e785828601611949565b92505060206119f885828601611949565b9150509250929050565b600080600060608486031215611a1757600080fd5b6000611a2586828701611949565b9350506020611a3686828701611949565b9250506040611a4786828701611973565b9150509250925092565b60008060408385031215611a6457600080fd5b6000611a7285828601611949565b9250506020611a8385828601611973565b9150509250929050565b600060208284031215611a9f57600080fd5b6000611aad8482850161195e565b91505092915050565b600060208284031215611ac857600080fd5b6000611ad684828501611973565b91505092915050565b600060208284031215611af157600080fd5b6000611aff84828501611988565b91505092915050565b611b1181612475565b82525050565b611b2081612487565b82525050565b6000611b31826121d3565b611b3b81856121de565b9350611b4b8185602086016124ca565b611b54816125bc565b840191505092915050565b6000611b6c6023836121de565b91507f45524332303a207472616e7366657220746f20746865207a65726f206164647260008301527f65737300000000000000000000000000000000000000000000000000000000006020830152604082019050919050565b6000611bd26022836121de565b91507f45524332303a206275726e20616d6f756e7420657863656564732062616c616e60008301527f63650000000000000000000000000000000000000000000000000000000000006020830152604082019050919050565b6000611c386022836121de565b91507f45524332303a20617070726f766520746f20746865207a65726f20616464726560008301527f73730000000000000000000000000000000000000000000000000000000000006020830152604082019050919050565b6000611c9e6026836121de565b91507f45524332303a207472616e7366657220616d6f756e742065786365656473206260008301527f616c616e636500000000000000000000000000000000000000000000000000006020830152604082019050919050565b6000611d046028836121de565b91507f45524332303a207472616e7366657220616d6f756e742065786365656473206160008301527f6c6c6f77616e63650000000000000000000000000000000000000000000000006020830152604082019050919050565b6000611d6a6021836121de565b91507f45524332303a206275726e2066726f6d20746865207a65726f2061646472657360008301527f73000000000000000000000000000000000000000000000000000000000000006020830152604082019050919050565b6000611dd06025836121de565b91507f45524332303a207472616e736665722066726f6d20746865207a65726f20616460008301527f64726573730000000000000000000000000000000000000000000000000000006020830152604082019050919050565b6000611e366024836121de565b91507f45524332303a20617070726f76652066726f6d20746865207a65726f2061646460008301527f72657373000000000000000000000000000000000000000000000000000000006020830152604082019050919050565b6000611e9c6025836121de565b91507f45524332303a2064656372656173656420616c6c6f77616e63652062656c6f7760008301527f207a65726f0000000000000000000000000000000000000000000000000000006020830152604082019050919050565b6000611f02601f836121de565b91507f45524332303a206d696e7420746f20746865207a65726f2061646472657373006000830152602082019050919050565b611f3e816124b3565b82525050565b611f4d816124bd565b82525050565b6000602082019050611f686000830184611b08565b92915050565b6000606082019050611f836000830186611b08565b611f906020830185611b08565b611f9d6040830184611f35565b949350505050565b6000604082019050611fba6000830185611b08565b611fc76020830184611f35565b9392505050565b6000602082019050611fe36000830184611b17565b92915050565b600060208201905081810360008301526120038184611b26565b905092915050565b6000602082019050818103600083015261202481611b5f565b9050919050565b6000602082019050818103600083015261204481611bc5565b9050919050565b6000602082019050818103600083015261206481611c2b565b9050919050565b6000602082019050818103600083015261208481611c91565b9050919050565b600060208201905081810360008301526120a481611cf7565b9050919050565b600060208201905081810360008301526120c481611d5d565b9050919050565b600060208201905081810360008301526120e481611dc3565b9050919050565b6000602082019050818103600083015261210481611e29565b9050919050565b6000602082019050818103600083015261212481611e8f565b9050919050565b6000602082019050818103600083015261214481611ef5565b9050919050565b60006020820190506121606000830184611f35565b92915050565b600060408201905061217b6000830185611f35565b6121886020830184611b08565b9392505050565b60006040820190506121a46000830185611f35565b6121b16020830184611b17565b9392505050565b60006020820190506121cd6000830184611f44565b92915050565b600081519050919050565b600082825260208201905092915050565b60006121fa826124b3565b9150612205836124b3565b9250827fffffffffffffffffffffffffffffffffffffffffffffffffffffffffffffffff0382111561223a5761223961252f565b5b828201905092915050565b6000612250826124b3565b915061225b836124b3565b92508261226b5761226a61255e565b5b828204905092915050565b6000808291508390505b60018511156122c05780860481111561229c5761229b61252f565b5b60018516156122ab5780820291505b80810290506122b9856125cd565b9450612280565b94509492505050565b60006122d4826124b3565b91506122df836124bd565b925061230c7fffffffffffffffffffffffffffffffffffffffffffffffffffffffffffffffff8484612314565b905092915050565b60008261232457600190506123e0565b8161233257600090506123e0565b8160018114612348576002811461235257612381565b60019150506123e0565b60ff8411156123645761236361252f565b5b8360020a91508482111561237b5761237a61252f565b5b506123e0565b5060208310610133831016604e8410600b84101617156123b65782820a9050838111156123b1576123b061252f565b5b6123e0565b6123c38484846001612276565b925090508184048111156123da576123d961252f565b5b81810290505b9392505050565b60006123f2826124b3565b91506123fd836124b3565b9250817fffffffffffffffffffffffffffffffffffffffffffffffffffffffffffffffff04831182151516156124365761243561252f565b5b828202905092915050565b600061244c826124b3565b9150612457836124b3565b92508282101561246a5761246961252f565b5b828203905092915050565b600061248082612493565b9050919050565b60008115159050919050565b600073ffffffffffffffffffffffffffffffffffffffff82169050919050565b6000819050919050565b600060ff82169050919050565b60005b838110156124e85780820151818401526020810190506124cd565b838111156124f7576000848401525b50505050565b6000600282049050600182168061251557607f821691505b602082108114156125295761252861258d565b5b50919050565b7f4e487b7100000000000000000000000000000000000000000000000000000000600052601160045260246000fd5b7f4e487b7100000000000000000000000000000000000000000000000000000000600052601260045260246000fd5b7f4e487b7100000000000000000000000000000000000000000000000000000000600052602260045260246000fd5b6000601f19601f8301169050919050565b60008160011c9050919050565b6125e381612475565b81146125ee57600080fd5b50565b6125fa81612487565b811461260557600080fd5b50565b612611816124b3565b811461261c57600080fd5b5056fea26469706673582212206821f5fc82ad3e27c775d914d56cd0ad78dada84cabab6cbc30f43ec5af03a0464736f6c63430008000033",
  "immutableReferences": {
    "8937": [
      {
        "length": 32,
        "start": 1402
      },
      {
        "length": 32,
        "start": 1548
      },
      {
        "length": 32,
        "start": 2522
      },
      {
        "length": 32,
        "start": 2832
      },
      {
        "length": 32,
        "start": 2978
      },
      {
        "length": 32,
        "start": 3212
      },
      {
        "length": 32,
        "start": 4138
      }
    ],
    "8939": [
      {
        "length": 32,
        "start": 1690
      },
      {
        "length": 32,
        "start": 2558
      },
      {
        "length": 32,
        "start": 2596
      },
      {
        "length": 32,
        "start": 2772
      }
    ],
    "8941": [
      {
        "length": 32,
        "start": 1342
      },
      {
        "length": 32,
        "start": 2133
      },
      {
        "length": 32,
        "start": 3503
      },
      {
        "length": 32,
        "start": 4097
      }
    ]
  },
  "source": "// SPDX-License-Identifier: MIT\npragma solidity 0.8.0;\n\nimport \"@openzeppelin/contracts/token/ERC20/ERC20.sol\";\nimport \"@openzeppelin/contracts/token/ERC20/utils/SafeERC20.sol\";\nimport \"@openzeppelin/contracts/utils/math/SafeMath.sol\";\nimport \"./AthertonModels.sol\";\n\n// TODO-hightlight :: main logic\n\ncontract wsATHER is ERC20 {\n    using SafeERC20 for ERC20;\n    using Address for address;\n    using SafeMath for uint;\n\n    address public immutable staking;\n    address public immutable ATHER;\n    address public immutable sATHER;\n\n    constructor( address _staking, address _ATHER, address _sATHER ) ERC20( 'Wrapped sATHER', 'wsATHER' ) {\n        require( _staking != address(0) );\n        staking = _staking;\n        require( _ATHER != address(0) );\n        ATHER = _ATHER;\n        require( _sATHER != address(0) );\n        sATHER = _sATHER;\n    }\n\n    /**\n        @notice stakes ATHER and wraps sATHER\n        @param _amount uint\n        @return uint\n     */\n    function wrapFromATHER( uint _amount ) external returns ( uint ) {\n        IERC20( ATHER ).transferFrom( msg.sender, address(this), _amount );\n\n        IERC20( ATHER ).approve( staking, _amount ); // stake ATHER for sATHER\n        IStaking( staking ).stake( _amount, address(this) );\n\n        uint value = wsATHERValue( _amount );\n        _mint( msg.sender, value );\n        return value;\n    }\n\n    /**\n        @notice unwrap sATHER and unstake ATHER\n        @param _amount uint\n        @return uint\n     */\n    function unwrapToATHER( uint _amount ) external returns ( uint ) {\n        _burn( msg.sender, _amount );\n        \n        uint value = sATHERValue( _amount );\n        IERC20( sATHER ).approve( staking, value ); // unstake sATHER for ATHER\n        IStaking( staking ).unstake( value, false );\n\n        IERC20( ATHER ).transfer( msg.sender, value );\n        return value;\n    }\n\n    /**\n        @notice wrap sATHER\n        @param _amount uint\n        @return uint\n     */\n    function wrapFromSATHER( uint _amount ) external returns ( uint ) {\n        IERC20( sATHER ).transferFrom( msg.sender, address(this), _amount );\n        \n        uint value = wsATHERValue( _amount );\n        _mint( msg.sender, value );\n        return value;\n    }\n\n    /**\n        @notice unwrap sATHER\n        @param _amount uint\n        @return uint\n     */\n    function unwrapToSATHER( uint _amount ) external returns ( uint ) {\n        _burn( msg.sender, _amount );\n\n        uint value = sATHERValue( _amount );\n        IERC20( sATHER ).transfer( msg.sender, value );\n        return value;\n    }\n\n    /**\n        @notice converts wATHER amount to sATHER\n        @param _amount uint\n        @return uint\n     */\n    function sATHERValue( uint _amount ) public view returns ( uint ) {\n        return _amount.mul( IStaking( staking ).index() ).div( 10 ** decimals() );\n    }\n\n    /**\n        @notice converts sATHER amount to wATHER\n        @param _amount uint\n        @return uint\n     */\n    function wsATHERValue( uint _amount ) public view returns ( uint ) {\n        return _amount.mul( 10 ** decimals() ).div( IStaking( staking ).index() );\n    }\n\n}",
  "sourcePath": "/var/www/atherton/evm/contracts/wsATHER.sol",
  "compiler": {
    "name": "solc",
    "version": "0.8.0+commit.c7dfd78e.Emscripten.clang"
  },
  "schemaVersion": "3.4.3",
  "updatedAt": "2021-12-04T00:51:06.268Z",
  "devdoc": {
    "kind": "dev",
    "methods": {
      "allowance(address,address)": {
        "details": "See {IERC20-allowance}."
      },
      "approve(address,uint256)": {
        "details": "See {IERC20-approve}. Requirements: - `spender` cannot be the zero address."
      },
      "balanceOf(address)": {
        "details": "See {IERC20-balanceOf}."
      },
      "decimals()": {
        "details": "Returns the number of decimals used to get its user representation. For example, if `decimals` equals `2`, a balance of `505` tokens should be displayed to a user as `5.05` (`505 / 10 ** 2`). Tokens usually opt for a value of 18, imitating the relationship between Ether and Wei. This is the value {ERC20} uses, unless this function is overridden; NOTE: This information is only used for _display_ purposes: it in no way affects any of the arithmetic of the contract, including {IERC20-balanceOf} and {IERC20-transfer}."
      },
      "decreaseAllowance(address,uint256)": {
        "details": "Atomically decreases the allowance granted to `spender` by the caller. This is an alternative to {approve} that can be used as a mitigation for problems described in {IERC20-approve}. Emits an {Approval} event indicating the updated allowance. Requirements: - `spender` cannot be the zero address. - `spender` must have allowance for the caller of at least `subtractedValue`."
      },
      "increaseAllowance(address,uint256)": {
        "details": "Atomically increases the allowance granted to `spender` by the caller. This is an alternative to {approve} that can be used as a mitigation for problems described in {IERC20-approve}. Emits an {Approval} event indicating the updated allowance. Requirements: - `spender` cannot be the zero address."
      },
      "name()": {
        "details": "Returns the name of the token."
      },
      "sATHERValue(uint256)": {
        "params": {
          "_amount": "uint"
        },
        "returns": {
          "_0": "uint"
        }
      },
      "symbol()": {
        "details": "Returns the symbol of the token, usually a shorter version of the name."
      },
      "totalSupply()": {
        "details": "See {IERC20-totalSupply}."
      },
      "transfer(address,uint256)": {
        "details": "See {IERC20-transfer}. Requirements: - `recipient` cannot be the zero address. - the caller must have a balance of at least `amount`."
      },
      "transferFrom(address,address,uint256)": {
        "details": "See {IERC20-transferFrom}. Emits an {Approval} event indicating the updated allowance. This is not required by the EIP. See the note at the beginning of {ERC20}. Requirements: - `sender` and `recipient` cannot be the zero address. - `sender` must have a balance of at least `amount`. - the caller must have allowance for ``sender``'s tokens of at least `amount`."
      },
      "unwrapToATHER(uint256)": {
        "params": {
          "_amount": "uint"
        },
        "returns": {
          "_0": "uint"
        }
      },
      "unwrapToSATHER(uint256)": {
        "params": {
          "_amount": "uint"
        },
        "returns": {
          "_0": "uint"
        }
      },
      "wrapFromATHER(uint256)": {
        "params": {
          "_amount": "uint"
        },
        "returns": {
          "_0": "uint"
        }
      },
      "wrapFromSATHER(uint256)": {
        "params": {
          "_amount": "uint"
        },
        "returns": {
          "_0": "uint"
        }
      },
      "wsATHERValue(uint256)": {
        "params": {
          "_amount": "uint"
        },
        "returns": {
          "_0": "uint"
        }
      }
    },
    "version": 1
  },
  "userdoc": {
    "kind": "user",
    "methods": {
      "sATHERValue(uint256)": {
        "notice": "converts wATHER amount to sATHER"
      },
      "unwrapToATHER(uint256)": {
        "notice": "unwrap sATHER and unstake ATHER"
      },
      "unwrapToSATHER(uint256)": {
        "notice": "unwrap sATHER"
      },
      "wrapFromATHER(uint256)": {
        "notice": "stakes ATHER and wraps sATHER"
      },
      "wrapFromSATHER(uint256)": {
        "notice": "wrap sATHER"
      },
      "wsATHERValue(uint256)": {
        "notice": "converts sATHER amount to wATHER"
      }
    },
    "version": 1
  }
}